:0200000460009A
:100000004643464200000156000000000101020084
:1000100000000000000000000000000000000000E0
:1000200000000000000000000000000000000000D0
:1000300000000000000000000000000000000000C0
:1000400000000000010406010000000000000000A4
:100050000000800000000000000000000000000020
:100060000000000000000000000000000000000090
:100070000000000000000000000000000000000080
:10008000EB04180AFF1E04320126000000000000E5
:100090000000000000000000000000000000000060
:1000A0000000000000000000000000000000000050
:1000B0000000000000000000000000000000000040
:1000C0000000000000000000000000000000000030
:1000D0000000000000000000000000000000000020
:1000E0000000000000000000000000000000000010
:1000F0000000000000000000000000000000000000
:1001000000000000000000000000000000000000EF
:1001100000000000000000000000000000000000DF
:1001200000000000000000000000000000000000CF
:1001300000000000000000000000000000000000BF
:1001400000000000000000000000000000000000AF
:10015000000000000000000000000000000000009F
:10016000000000000000000000000000000000008F
:10017000000000000000000000000000000000007F
:10018000000000000000000000000000000000006F
:10019000000000000000000000000000000000005F
:1001A000000000000000000000000000000000004F
:1001B000000000000000000000000000000000003F
:1001C000000100000010000001000000000000001D
:1001D000000001000000000000000000000000001E
:1001E000000000000000000000000000000000000F
:1001F00000000000000000000000000000000000FF
:10020000FFFFFFFFFFFFFFFFFFFFFFFFFFFFFFFFFE
:10021000FFFFFFFFFFFFFFFFFFFFFFFFFFFFFFFFEE
:10100000D1002043F1150060000000000000000046
:1010100020100060001000600090026000000000DE
:1010200000000060009C020000000000FFFFFFFFC6
:10103000FFFFFFFFFFFFFFFFFFFFFFFFFFFFFFFFC0
:10104000FFFFFFFFFFFFFFFFFFFFFFFFFFFFFFFFB0
:10105000FFFFFFFFFFFFFFFFFFFFFFFFFFFFFFFFA0
:10106000FFFFFFFFFFFFFFFFFFFFFFFFFFFFFFFF90
:10140000824205D051F8043B40F8043B8242F9D8AF
:10141000704700BF044A05494FF0000342F8043BFF
:101420009142FBD8704700BFC04A0020E0780020FE
:1014300080B5BFF34F8F00F075F9544C544B082022
:101440005449C3F85401544AC3F800115348C3F82F
:10145000F0405349FFF7D4FF524A53495348FFF72E
:10146000CFFF534CFFF7D6FF4FF470004FF0E02151
:101470000023504AC1F8880D44F823200133B02BD3
:10148000FAD14D4B80214D4A03F8011B9342FBD109
:101490004FF0E0254A4F4B4A4FF0FF31C5F8084D59
:1014A0000026D5F8243D43F4E023C5F8243DFB692C
:1014B00023F07F0343F04003FB617B6A23F07F034B
:1014C00043F040037B629166D1661167516700F07B
:1014D00031F93D4B63223D49A3633D4BE363032355
:1014E0006A613C4AAE612B61C5F8202DD5F8FC2D10
:1014F000394B42F08072C5F8FC2D1A6842F00102A7
:101500001A605B680B6000F0D9FA344800F058FCB0
:10151000F96E334B334A41F44051F9661E60C3F80B
:101520000861C3F81861C3F82861C3F83861936B88
:10153000DB0708D442F615632B4951651365936B9D
:1015400043F001039363274A284C936843F0011347
:10155000936000F079F900F05FF800F02DFC00F0E6
:10156000DBFA00F0E1F82368132BFCD900F06CFBE8
:101570002368B3F5967FFBD300F0DAF800F0D6F8D5
:1015800000F00AFC00F010FC30BFFDE70C0D111359
:1015900000800D401B101820E8230200000000000E
:1015A000101F0060C04A0020FC42026000000020C2
:1015B00000480020417A010000E400E0A0E400E0DF
:1015C00000C00F4000C00A406D6701006077002036
:1015D0007167010000002020001000E00046C323D6
:1015E0000040084000400D400000C05664770020D5
:1015F000054B4FF42A01054A05485A641864054A08
:1016000099639546FFF714FF00C00A40FFABAAAAF2
:101610000700200000800520104BA020104AD96E42
:1016200041F4403110B4D96640F23764D96E41F4C8
:101630004071D96654649064936C1B06FCD4094ACB
:1016400040F23761A02351649364936C13F08003DC
:10165000FBD1054A13705DF8044B704700C00F4082
:1016600000400C4000800C40AE7800202B4A002146
:10167000012310B4C2F8A000C2F8A410C2F8B03020
:101680005369DB07FCD501234FF4803423495361B0
:10169000C2F8A000C2F8A440C2F8B0304B69DC0721
:1016A000FCD501234FF400341C4A4B61C1F8A00063
:1016B000C1F8A440C1F8B0305369D907FCD5012363
:1016C000174C16495361C2F8A000C2F8A440C2F8F2
:1016D000B0304B69DB07FCD5D1F8003145F60D5031
:1016E00021249AB24C61824214D045F69D518A421F
:1016F0000CD1C3F34253032B0CD0A3F104035DF8C8
:10170000044BB3FA83F35B091801704700205DF8BE
:10171000044B704708205DF8044B704700402A4096
:1017200004000300704700BF704700BF704700BF50
:1017300000BF704710B44FF0E0230021102432485E
:10174000C3F8941DC3F89C4D1124C3F8A00D2F4875
:10175000C3F89C4D1224C3F8A00D2D48C3F89C4D2E
:101760002C4AC3F8A00D2C4C42F015022B48C3F8AC
:101770009C4DC3F8A00D2A4C2A48C3F89C4DC3F8D1
:10178000A00D294CC3F89C2D2848294AC3F8A04D28
:10179000C3F89C0DC3F8A02D02F5A022254C0C32F5
:1017A0002548C3F89C4DC3F8A02D244AC3F89C0DCE
:1017B000C3F8A02D02F14062214C02322148C3F847
:1017C0009C4DC3F8A02D0A32C3F89C0DC3F8A02D80
:1017D00000BF00BF00BF00BF00BF0122C3F8942DAF
:1017E000BFF34F8FBFF36F8FC3F8501FBFF34F8FFF
:1017F000BFF36F8FD3F8142D5DF8044B42F44032E1
:10180000C3F8142D704700BF3F00001025000807E3
:1018100009001000E07800201300200021000207DA
:1018200014000020250008130900001016002020D5
:1018300027000B1317000040180000602F000B0753
:10184000190000701A000080F0B5824B1822824DFA
:101850000120824F83B0C3F85C528149C3F86072A3
:10186000804CC3F86452A5F530457F4EC3F86852EA
:1018700048F20C75C3F86C42C3F87042C3F8744266
:10188000C3F878424FF0FF34DA661A675A679A67EE
:10189000DA67C3F88020C3F88420C3F88820C1F831
:1018A0002C03724AC1F83003C1F83403C1F838037D
:1018B000C1F83C03C1F85003B1696D4B0A406D4853
:1018C0006D4913436D4AB361D6F8843043F00C037D
:1018D000C6F88430036843F00203036003682B40BA
:1018E00021251A43664B026044608A68654C1340A8
:1018F000654A43F000538360C36823F07803C360F4
:10190000036A134023430362036A13405F4A23437D
:1019100040F2056443628262C2620022D1F8B830AC
:1019200023F03F0343F00103C0F8B830D1F8BC30D6
:10193000574923F03F0343F00103C0F8BC30026174
:101940000567C0F880404567C0F8844002240368FA
:1019500023F00203036081614E4B4F49C46143F899
:10196000042B8B42FBD1434D2B6843F001032B60CA
:101970002C6814F00104FBD14549022340F2F562C2
:101980002046A96140F29941EB6140F26643C5F8F7
:10199000002242F20142C5F81032404BC5F8201235
:1019A000C5F8303240F23543C5F834223C49C5F819
:1019B00040323C4BC5F850123B4AC5F8543242F213
:1019C0000123C5F86022C5F86432FFF74FFE0646D2
:1019D000002836D083024FF480222B660123C5F8FD
:1019E000A040244CC5F8A420C5F8B0306369DA07DC
:1019F000FCD50125370565613846FFF737FE3218FB
:101A00002A4BD2B21A7078B180024FF48023194960
:101A10006066C4F8A070C4F8A430C4F8B0504B6934
:101A2000DB07FCD501234B61214900242148012318
:101A30000094401A00EB02521F4800F0C5F903B0B1
:101A4000F0BD1D4B194A18601070D860C3E9010041
:101A500003B0F0BD00801F40F9B00100F910010093
:101A600000841F40F970010000C00F40FFFCFF1F01
:101A70000003008000402A4000802A401200FFFF3F
:101A8000FF37F7004000008000FFF07CFF000F836D
:101A9000F05AF05A00422A4000432A409F0418306E
:101AA000EB06180A063201263806180AAF7800201D
:101AB00000000070000000700C750020F0B4154AA2
:101AC00040274FF480314FF480564FF400554FF4C7
:101AD000404443F24200136913F0020F0ED113F495
:101AE000005F0FD013F4805F0ED0002BF3DA13F4F5
:101AF000803F0BD15B060BD5F0BC70479461516100
:101B00009061E8E75561E6E75661E4E79161E2E755
:101B10005761E0E700800D403F4A03203F49F3EE64
:101B2000095AD2F880304FF0000C9FED3D6A23F047
:101B300001039FED3C5A30B4C2F88030C2F89000E7
:101B4000D1F8E010384DCBB2384C39482B6007EE55
:101B5000903A0B0DC1F30B21F8EEE77A06EE903ABE
:101B600007EE101A334BB8EEC77A2160F8EEE66A3A
:101B7000314937EEC66A37EEC55A76EEC76A77EE58
:101B8000E57A26EE266AC3ED006A25EE265AD2F8DB
:101B9000803067EEA64AC0ED007AC6EE275A274885
:101BA00085EE276AC4EEA76A75EE875AFCEEE55A01
:101BB00036EE076A15EE904ABCEEC66A43EA045355
:101BC00076EE877AC2F8803016EE103AD2F890415D
:101BD000FCEEE77A01EA0341214317EE903AC2F89E
:101BE0009011C3F30B03D2F890110B431449C2F8C0
:101BF0009031D2F8803043F00203C2F88030114BAC
:101C000080F840C0C1F840314FF0E023012230BCE1
:101C1000C3F80821704700BF00810D4000441F40F9
:101C20000000AA420000B442D0760020CC7600200A
:101C3000D4760020D87600200000FF0F00E400E0FA
:101C4000004800202D7C0100314B40F6617210B538
:101C5000C3F8202140F2044400F09AF82D4A2E499E
:101C6000D2F880302D4843F00303C2F880302C4B6B
:101C7000C1F8604102681A4203D1D1F8A8319A072D
:101C80001BD0254A4FF00041244B5963D2F8403114
:101C900043F00203C2F84031D2F840319B07FBD435
:101CA0004FF400304FF0E0211C4B4FF00042C1F8E0
:101CB0008C0219209A6300F073F8184A4FF08040A4
:101CC000154C002190630A20164B11604FF42072CE
:101CD000C4F8A801184600F06BF84FF480020346E0
:101CE0004FF4810040F243111860C4F858311A646F
:101CF0000D4B0E4AC4F84811C3F804224FF0E022FD
:101D00004FF400310123C2F80C11C4F8403110BD6A
:101D100000800D4000C00F4000002E4000900D409C
:101D2000001C1E000000002000480020157E01005D
:101D300008B50E4B1B6E9B0700D4FBBE72B60C4B56
:101D400000200C4AC3F8400103F160430A49A3F59F
:101D50005F2311649D46BFF34F8F4FF40013074874
:101D6000074ADB6902609B68984700BF00441F4038
:101D700000002E4000C00A40030020000080202008
:101D8000000012EBF8B500BFF8BC08BC9E467047D7
:101D90005FF800F0858501005FF800F069C101007F
:101DA0005FF800F0957101005FF800F0997801008C
:101DB0005FF800F0F1BE01005FF800F0A58E0100B1
:101DC0005FF800F0796E01005FF800F00990010003
:101DD000050100008D650000D1D1000029ED000053
:041DE0008535010044
:101DE4000901809611800A3A81550A3601082A04AD
:101DF400000000F02B040000014021800A13800A37
:101E040029800A00160355005300420020005300A5
:101E140065007200690061006C0000001803540042
:101E2400650065006E007300790064007500690048
:101E34006E006F000403090409026200030100C07C
:101E440032080B0002020201000904000001020230
:101E540001000524001001052401010104240206E7
:101E6400052406000107058203100010090401007F
:101E7400020A00000007050302400000070584026F
:101E84004000000904020002FF6AFF000705810206
:101E94004000010705010240000100000902620040
:101EA400030100C032080B00020202010009040011
:101EB40000010202010005240010010524010101B2
:101EC4000424020605240600010705820310000508
:101ED40009040100020A00000007050302000200D1
:101EE400070584020002000904020002FF6AC70019
:101EF400070581020002010705010200020100003A
:0C1F04000A060002EF020140010000008C
:101F100000000000000000000000000000000000C1
:101F200000000000000000000000000000000000B1
:101F3000F8B54FF084439D695A6915400DD0254F7F
:101F400001269D6195FAA5F4B4FA84F457F824307B
:101F500006FA04F49847A543F4D11F4B9D695A69CA
:101F600015400DD01D4F01269D6195FAA5F4B4FAD8
:101F700084F457F8243006FA04F49847A543F4D1C2
:101F8000174B9D695A6915400DD0164F01269D616A
:101F900095FAA5F4B4FA84F457F8243006FA04F458
:101FA0009847A543F4D1104B9D695A6915400DD04F
:101FB0000E4F01269D6195FAA5F4B4FA84F457F802
:101FC000243006FA04F49847A543F4D1BFF34F8FA9
:101FD000F8BD00BFBC430020004000423C4400204C
:101FE00000800042BC44002000C000423C4500206C
:101FF0000548064B1B1AD90F01EBA301491002D06B
:10200000034B03B118477047C04A0020C04A002064
:102010000000000008B5054B1BB105490548AFF3AA
:102020000080BDE80840FFF7E3BF00BF00000000EC
:102030007C760020009C0260562802D1034B0122CE
:10204000DA73034B1B6803B118477047A053002095
:10205000FC6E0020562802D1034B0022DA73034B9A
:102060001B6803B118477047A0530020106F002071
:10207000704700BF234A002130B51378224C8342B9
:10208000215401D1002B3BD1204B1B6873B39A79AB
:1020900062B3DC7A54B31E4D002295F800E011467D
:1020A0000BE0BCF1030F04D193F80FC0BCF1010F9A
:1020B0001DD08C4203F11A0318D901328E45D1B2DA
:1020C000F7D193F80CC0BCF1010FEAD193F80FC01F
:1020D000BCF1010FEDD193F80DC08445E9D1002387
:1020E0000C480D49FF2203700B702A7030BD93F825
:1020F0000DC08445F3D093F80EC08445D9D1EEE7E6
:10210000117030BDA2780020686F00206870002038
:102110000E460020A6780020A378002038B5254D73
:10212000044640F2E93128462DED028BF0EE408A5C
:1021300016F026FC034640F2E931284608EE103A34
:1021400016F01EFC07EE900A40F2E931B8EEC88A9C
:102150002846F8EEE77A38EE278A16F011FC07EEEB
:10216000904A07EE100A9FED146A47F6FF73F8EEE7
:10217000677ADFED125AB8EEC77ADFED116A27EE03
:10218000A80A37EE087AC0EE067A87EE256ABDEC1B
:10219000028B67EE867A67EEA67AFDEEE77A17EE97
:1021A000900A20449842A8BF18460128B8BF0120D1
:1021B00080B238BD18FCFFFF0000C84200803B45DC
:1021C0002DB25D4038B5164B0C461A6801EB810301
:1021D0001A2101FB00331344997CD1B1D2F80720B6
:1021E000DFED107A00EE102A0F49B3F81300B4EEB9
:1021F000E70A0D68F1EE10FA02D410B1FFF78EFF76
:1022000005440A4A0A490B4B147001220D601A70EA
:1022100038BD064B1C70BDE8384000F00DB800BF5B
:10222000687000200AD7233C64770020A47800203F
:10223000E06D0020A678002010B41A4C1A4B2178CB
:102240001B680131C9B2032919D800EB40024FF0D5
:10225000050C00EB820252001CFB0122134403E038
:102260005FFA8CF104290AD09A7C01F1010C053344
:10227000002AF5D021705DF8044BFFF7A3BF0B4A8D
:10228000137843B90A49FF200A4C08702370137071
:102290005DF8044B7047002121705DF8044BFFF797
:1022A00091BF00BFA478002068700020A3780020B0
:1022B0000E460020A678002038B5044649B10846ED
:1022C0000D461CF025F92368024629465B68204626
:1022D00098472046BDE8384016F05ABA38B5184C31
:1022E00023780BB100232370164A1A23164D126867
:1022F000287003FB0023154D2970997CD1B1D2F8C9
:102300000720DFED137A00EE102A1249B3F813000C
:10231000B4EEE70A0D68F1EE10FA02D410B1FFF73F
:10232000FDFE05440C4B00220C491A7001230D6080
:10233000237038BD084B1970BDE83840FFF77CBFEB
:10234000A6780020687000200E460020A3780020A8
:102350000AD7233C64770020A4780020E06D002099
:10236000214B1A68D2E90010D3680968006810B4DC
:102370001842946801EA04012ED0137C03F0030391
:10238000D9B943F008039908013B11740D2B0BD800
:10239000DFE803F00D071C070A160D0D160A071CCF
:1023A000070D5369013B53615DF8044B7047536956
:1023B0005DF8044B01335361704743F00403E0E7D9
:1023C00053695DF8044B023B5361704753695DF8F4
:1023D000044B023353617047137C03F0030300295D
:1023E000D1D043F00403CEE7A4700020224BD3F8F1
:1023F000D420D2E90010D3680968006810B41842EC
:10240000946801EA04012ED0137C03F00303D9B9C8
:1024100043F008039908013B11740D2B0BD8DFE83A
:1024200003F00D071C070A160D0D160A071C070DF1
:102430005369013B53615DF8044B704753695DF884
:10244000044B01335361704743F00403E0E75369E1
:102450005DF8044B023B5361704753695DF8044BD0
:10246000023353617047137C03F003030029D1D07A
:1024700043F00403CEE700BFA4700020224BD3F842
:10248000D820D2E90010D3680968006810B4184257
:10249000946801EA04012ED0137C03F00303D9B938
:1024A00043F008039908013B11740D2B0BD8DFE8AA
:1024B00003F00D071C070A160D0D160A071C070D61
:1024C0005369013B53615DF8044B704753695DF8F4
:1024D000044B01335361704743F00403E0E7536951
:1024E0005DF8044B023B5361704753695DF8044B40
:1024F000023353617047137C03F003030029D1D0EA
:1025000043F00403CEE700BFA4700020214B5A69BA
:10251000D2E90010D3680968006810B418429468C2
:1025200001EA04012ED0137C03F00303D9B943F070
:1025300008039908013B11740D2B0BD8DFE803F059
:102540000D071C070A160D0D160A071C070D536907
:10255000013B53615DF8044B704753695DF8044BD0
:1025600001335361704743F00403E0E753695DF8BA
:10257000044B023B5361704753695DF8044B0233CF
:1025800053617047137C03F003030029D1D043F05B
:102590000403CEE7A4700020214B9A69D2E9001011
:1025A000D3680968006810B41842946801EA04010D
:1025B0002ED0137C03F00303D9B943F00803990824
:1025C000013B11740D2B0BD8DFE803F00D071C073E
:1025D0000A160D0D160A071C070D5369013B5361BE
:1025E0005DF8044B704753695DF8044B0133536148
:1025F000704743F00403E0E753695DF8044B023B86
:102600005361704753695DF8044B0233536170475F
:10261000137C03F003030029D1D043F00403CEE779
:10262000A4700020214BDA69D2E90010D368096850
:10263000006810B41842946801EA04012ED0137C9B
:1026400003F00303D9B943F008039908013B11745F
:102650000D2B0BD8DFE803F00D071C070A160D0D34
:10266000160A071C070D5369013B53615DF8044BC3
:10267000704753695DF8044B01335361704743F071
:102680000403E0E753695DF8044B023B5361704774
:1026900053695DF8044B023353617047137C03F0B8
:1026A00003030029D1D043F00403CEE7A470002037
:1026B000214B1A6AD2E90010D3680968006810B487
:1026C0001842946801EA04012ED0137C03F003033E
:1026D000D9B943F008039908013B11740D2B0BD8AD
:1026E000DFE803F00D071C070A160D0D160A071C7C
:1026F000070D5369013B53615DF8044B7047536903
:102700005DF8044B01335361704743F00403E0E785
:1027100053695DF8044B023B5361704753695DF8A0
:10272000044B023353617047137C03F00303002909
:10273000D1D043F00403CEE7A4700020214B5A6AA5
:10274000D2E90010D3680968006810B41842946890
:1027500001EA04012ED0137C03F00303D9B943F03E
:1027600008039908013B11740D2B0BD8DFE803F027
:102770000D071C070A160D0D160A071C070D5369D5
:10278000013B53615DF8044B704753695DF8044B9E
:1027900001335361704743F00403E0E753695DF888
:1027A000044B023B5361704753695DF8044B02339D
:1027B00053617047137C03F003030029D1D043F029
:1027C0000403CEE7A4700020214B9A6AD2E90010DE
:1027D000D3680968006810B41842946801EA0401DB
:1027E0002ED0137C03F00303D9B943F008039908F2
:1027F000013B11740D2B0BD8DFE803F00D071C070C
:102800000A160D0D160A071C070D5369013B53618B
:102810005DF8044B704753695DF8044B0133536115
:10282000704743F00403E0E753695DF8044B023B53
:102830005361704753695DF8044B0233536170472D
:10284000137C03F003030029D1D043F00403CEE747
:10285000A4700020214BDA6AD2E90010D36809681D
:10286000006810B41842946801EA04012ED0137C69
:1028700003F00303D9B943F008039908013B11742D
:102880000D2B0BD8DFE803F00D071C070A160D0D02
:10289000160A071C070D5369013B53615DF8044B91
:1028A000704753695DF8044B01335361704743F03F
:1028B0000403E0E753695DF8044B023B5361704742
:1028C00053695DF8044B023353617047137C03F086
:1028D00003030029D1D043F00403CEE7A470002005
:1028E000214B1A6BD2E90010D3680968006810B454
:1028F0001842946801EA04012ED0137C03F003030C
:10290000D9B943F008039908013B11740D2B0BD87A
:10291000DFE803F00D071C070A160D0D160A071C49
:10292000070D5369013B53615DF8044B70475369D0
:102930005DF8044B01335361704743F00403E0E753
:1029400053695DF8044B023B5361704753695DF86E
:10295000044B023353617047137C03F003030029D7
:10296000D1D043F00403CEE7A4700020214B5A6B72
:10297000D2E90010D3680968006810B4184294685E
:1029800001EA04012ED0137C03F00303D9B943F00C
:1029900008039908013B11740D2B0BD8DFE803F0F5
:1029A0000D071C070A160D0D160A071C070D5369A3
:1029B000013B53615DF8044B704753695DF8044B6C
:1029C00001335361704743F00403E0E753695DF856
:1029D000044B023B5361704753695DF8044B02336B
:1029E00053617047137C03F003030029D1D043F0F7
:1029F0000403CEE7A4700020214B9A6BD2E90010AB
:102A0000D3680968006810B41842946801EA0401A8
:102A10002ED0137C03F00303D9B943F008039908BF
:102A2000013B11740D2B0BD8DFE803F00D071C07D9
:102A30000A160D0D160A071C070D5369013B536159
:102A40005DF8044B704753695DF8044B01335361E3
:102A5000704743F00403E0E753695DF8044B023B21
:102A60005361704753695DF8044B023353617047FB
:102A7000137C03F003030029D1D043F00403CEE715
:102A8000A4700020214BDA6BD2E90010D3680968EA
:102A9000006810B41842946801EA04012ED0137C37
:102AA00003F00303D9B943F008039908013B1174FB
:102AB0000D2B0BD8DFE803F00D071C070A160D0DD0
:102AC000160A071C070D5369013B53615DF8044B5F
:102AD000704753695DF8044B01335361704743F00D
:102AE0000403E0E753695DF8044B023B5361704710
:102AF00053695DF8044B023353617047137C03F054
:102B000003030029D1D043F00403CEE7A4700020D2
:102B1000214B1A6CD2E90010D3680968006810B420
:102B20001842946801EA04012ED0137C03F00303D9
:102B3000D9B943F008039908013B11740D2B0BD848
:102B4000DFE803F00D071C070A160D0D160A071C17
:102B5000070D5369013B53615DF8044B704753699E
:102B60005DF8044B01335361704743F00403E0E721
:102B700053695DF8044B023B5361704753695DF83C
:102B8000044B023353617047137C03F003030029A5
:102B9000D1D043F00403CEE7A4700020214B5A6C3F
:102BA000D2E90010D3680968006810B4184294682C
:102BB00001EA04012ED0137C03F00303D9B943F0DA
:102BC00008039908013B11740D2B0BD8DFE803F0C3
:102BD0000D071C070A160D0D160A071C070D536971
:102BE000013B53615DF8044B704753695DF8044B3A
:102BF00001335361704743F00403E0E753695DF824
:102C0000044B023B5361704753695DF8044B023338
:102C100053617047137C03F003030029D1D043F0C4
:102C20000403CEE7A4700020214B9A6CD2E9001077
:102C3000D3680968006810B41842946801EA040176
:102C40002ED0137C03F00303D9B943F0080399088D
:102C5000013B11740D2B0BD8DFE803F00D071C07A7
:102C60000A160D0D160A071C070D5369013B536127
:102C70005DF8044B704753695DF8044B01335361B1
:102C8000704743F00403E0E753695DF8044B023BEF
:102C90005361704753695DF8044B023353617047C9
:102CA000137C03F003030029D1D043F00403CEE7E3
:102CB000A4700020214BDA6CD2E90010D3680968B7
:102CC000006810B41842946801EA04012ED0137C05
:102CD00003F00303D9B943F008039908013B1174C9
:102CE0000D2B0BD8DFE803F00D071C070A160D0D9E
:102CF000160A071C070D5369013B53615DF8044B2D
:102D0000704753695DF8044B01335361704743F0DA
:102D10000403E0E753695DF8044B023B53617047DD
:102D200053695DF8044B023353617047137C03F021
:102D300003030029D1D043F00403CEE7A4700020A0
:102D4000214B1A6DD2E90010D3680968006810B4ED
:102D50001842946801EA04012ED0137C03F00303A7
:102D6000D9B943F008039908013B11740D2B0BD816
:102D7000DFE803F00D071C070A160D0D160A071CE5
:102D8000070D5369013B53615DF8044B704753696C
:102D90005DF8044B01335361704743F00403E0E7EF
:102DA00053695DF8044B023B5361704753695DF80A
:102DB000044B023353617047137C03F00303002973
:102DC000D1D043F00403CEE7A4700020214B5A6D0C
:102DD000D2E90010D3680968006810B418429468FA
:102DE00001EA04012ED0137C03F00303D9B943F0A8
:102DF00008039908013B11740D2B0BD8DFE803F091
:102E00000D071C070A160D0D160A071C070D53693E
:102E1000013B53615DF8044B704753695DF8044B07
:102E200001335361704743F00403E0E753695DF8F1
:102E3000044B023B5361704753695DF8044B023306
:102E400053617047137C03F003030029D1D043F092
:102E50000403CEE7A4700020214B9A6DD2E9001044
:102E6000D3680968006810B41842946801EA040144
:102E70002ED0137C03F00303D9B943F0080399085B
:102E8000013B11740D2B0BD8DFE803F00D071C0775
:102E90000A160D0D160A071C070D5369013B5361F5
:102EA0005DF8044B704753695DF8044B013353617F
:102EB000704743F00403E0E753695DF8044B023BBD
:102EC0005361704753695DF8044B02335361704797
:102ED000137C03F003030029D1D043F00403CEE7B1
:102EE000A4700020214BDA6DD2E90010D368096884
:102EF000006810B41842946801EA04012ED0137CD3
:102F000003F00303D9B943F008039908013B117496
:102F10000D2B0BD8DFE803F00D071C070A160D0D6B
:102F2000160A071C070D5369013B53615DF8044BFA
:102F3000704753695DF8044B01335361704743F0A8
:102F40000403E0E753695DF8044B023B53617047AB
:102F500053695DF8044B023353617047137C03F0EF
:102F600003030029D1D043F00403CEE7A47000206E
:102F7000214B1A6ED2E90010D3680968006810B4BA
:102F80001842946801EA04012ED0137C03F0030375
:102F9000D9B943F008039908013B11740D2B0BD8E4
:102FA000DFE803F00D071C070A160D0D160A071CB3
:102FB000070D5369013B53615DF8044B704753693A
:102FC0005DF8044B01335361704743F00403E0E7BD
:102FD00053695DF8044B023B5361704753695DF8D8
:102FE000044B023353617047137C03F00303002941
:102FF000D1D043F00403CEE7A4700020214B5A6ED9
:10300000D2E90010D3680968006810B418429468C7
:1030100001EA04012ED0137C03F00303D9B943F075
:1030200008039908013B11740D2B0BD8DFE803F05E
:103030000D071C070A160D0D160A071C070D53690C
:10304000013B53615DF8044B704753695DF8044BD5
:1030500001335361704743F00403E0E753695DF8BF
:10306000044B023B5361704753695DF8044B0233D4
:1030700053617047137C03F003030029D1D043F060
:103080000403CEE7A4700020214B9A6ED2E9001011
:10309000D3680968006810B41842946801EA040112
:1030A0002ED0137C03F00303D9B943F00803990829
:1030B000013B11740D2B0BD8DFE803F00D071C0743
:1030C0000A160D0D160A071C070D5369013B5361C3
:1030D0005DF8044B704753695DF8044B013353614D
:1030E000704743F00403E0E753695DF8044B023B8B
:1030F0005361704753695DF8044B02335361704765
:10310000137C03F003030029D1D043F00403CEE77E
:10311000A4700020214BDA6ED2E90010D368096850
:10312000006810B41842946801EA04012ED0137CA0
:1031300003F00303D9B943F008039908013B117464
:103140000D2B0BD8DFE803F00D071C070A160D0D39
:10315000160A071C070D5369013B53615DF8044BC8
:10316000704753695DF8044B01335361704743F076
:103170000403E0E753695DF8044B023B5361704779
:1031800053695DF8044B023353617047137C03F0BD
:1031900003030029D1D043F00403CEE7A47000203C
:1031A000214B1A6FD2E90010D3680968006810B487
:1031B0001842946801EA04012ED0137C03F0030343
:1031C000D9B943F008039908013B11740D2B0BD8B2
:1031D000DFE803F00D071C070A160D0D160A071C81
:1031E000070D5369013B53615DF8044B7047536908
:1031F0005DF8044B01335361704743F00403E0E78B
:1032000053695DF8044B023B5361704753695DF8A5
:10321000044B023353617047137C03F0030300290E
:10322000D1D043F00403CEE7A4700020214B5A6FA5
:10323000D2E90010D3680968006810B41842946895
:1032400001EA04012ED0137C03F00303D9B943F043
:1032500008039908013B11740D2B0BD8DFE803F02C
:103260000D071C070A160D0D160A071C070D5369DA
:10327000013B53615DF8044B704753695DF8044BA3
:1032800001335361704743F00403E0E753695DF88D
:10329000044B023B5361704753695DF8044B0233A2
:1032A00053617047137C03F003030029D1D043F02E
:1032B0000403CEE7A4700020214B9A6FD2E90010DE
:1032C000D3680968006810B41842946801EA0401E0
:1032D0002ED0137C03F00303D9B943F008039908F7
:1032E000013B11740D2B0BD8DFE803F00D071C0711
:1032F0000A160D0D160A071C070D5369013B536191
:103300005DF8044B704753695DF8044B013353611A
:10331000704743F00403E0E753695DF8044B023B58
:103320005361704753695DF8044B02335361704732
:10333000137C03F003030029D1D043F00403CEE74C
:10334000A4700020214BDA6FD2E90010D36809681D
:10335000006810B41842946801EA04012ED0137C6E
:1033600003F00303D9B943F008039908013B117432
:103370000D2B0BD8DFE803F00D071C070A160D0D07
:10338000160A071C070D5369013B53615DF8044B96
:10339000704753695DF8044B01335361704743F044
:1033A0000403E0E753695DF8044B023B5361704747
:1033B00053695DF8044B023353617047137C03F08B
:1033C00003030029D1D043F00403CEE7A47000200A
:1033D000224BD3F88020D2E90010D3680968006836
:1033E00010B41842946801EA04012ED0137C03F053
:1033F0000303D9B943F008039908013B11740D2B5D
:103400000BD8DFE803F00D071C070A160D0D160A8E
:10341000071C070D5369013B53615DF8044B70476E
:1034200053695DF8044B01335361704743F0040363
:10343000E0E753695DF8044B023B53617047536901
:103440005DF8044B023353617047137C03F00303B0
:103450000029D1D043F00403CEE700BFA4700020C0
:10346000224BD3F88420D2E90010D36809680068A1
:1034700010B41842946801EA04012ED0137C03F0C2
:103480000303D9B943F008039908013B11740D2BCC
:103490000BD8DFE803F00D071C070A160D0D160AFE
:1034A000071C070D5369013B53615DF8044B7047DE
:1034B00053695DF8044B01335361704743F00403D3
:1034C000E0E753695DF8044B023B53617047536971
:1034D0005DF8044B023353617047137C03F0030320
:1034E0000029D1D043F00403CEE700BFA470002030
:1034F000224BD3F88820D2E90010D368096800680D
:1035000010B41842946801EA04012ED0137C03F031
:103510000303D9B943F008039908013B11740D2B3B
:103520000BD8DFE803F00D071C070A160D0D160A6D
:10353000071C070D5369013B53615DF8044B70474D
:1035400053695DF8044B01335361704743F0040342
:10355000E0E753695DF8044B023B536170475369E0
:103560005DF8044B023353617047137C03F003038F
:103570000029D1D043F00403CEE700BFA47000209F
:10358000224BD3F88C20D2E90010D3680968006878
:1035900010B41842946801EA04012ED0137C03F0A1
:1035A0000303D9B943F008039908013B11740D2BAB
:1035B0000BD8DFE803F00D071C070A160D0D160ADD
:1035C000071C070D5369013B53615DF8044B7047BD
:1035D00053695DF8044B01335361704743F00403B2
:1035E000E0E753695DF8044B023B53617047536950
:1035F0005DF8044B023353617047137C03F00303FF
:103600000029D1D043F00403CEE700BFA47000200E
:10361000224BD3F89020D2E90010D36809680068E3
:1036200010B41842946801EA04012ED0137C03F010
:103630000303D9B943F008039908013B11740D2B1A
:103640000BD8DFE803F00D071C070A160D0D160A4C
:10365000071C070D5369013B53615DF8044B70472C
:1036600053695DF8044B01335361704743F0040321
:10367000E0E753695DF8044B023B536170475369BF
:103680005DF8044B023353617047137C03F003036E
:103690000029D1D043F00403CEE700BFA47000207E
:1036A000214B5A68D2E90010D3680968006810B449
:1036B0001842946801EA04012ED0137C03F003033E
:1036C000D9B943F008039908013B11740D2B0BD8AD
:1036D000DFE803F00D071C070A160D0D160A071C7C
:1036E000070D5369013B53615DF8044B7047536903
:1036F0005DF8044B01335361704743F00403E0E786
:1037000053695DF8044B023B5361704753695DF8A0
:10371000044B023353617047137C03F00303002909
:10372000D1D043F00403CEE7A4700020214B9A6867
:10373000D2E90010D3680968006810B41842946890
:1037400001EA04012ED0137C03F00303D9B943F03E
:1037500008039908013B11740D2B0BD8DFE803F027
:103760000D071C070A160D0D160A071C070D5369D5
:10377000013B53615DF8044B704753695DF8044B9E
:1037800001335361704743F00403E0E753695DF888
:10379000044B023B5361704753695DF8044B02339D
:1037A00053617047137C03F003030029D1D043F029
:1037B0000403CEE7A4700020214BDA68D2E90010A0
:1037C000D3680968006810B41842946801EA0401DB
:1037D0002ED0137C03F00303D9B943F008039908F2
:1037E000013B11740D2B0BD8DFE803F00D071C070C
:1037F0000A160D0D160A071C070D5369013B53618C
:103800005DF8044B704753695DF8044B0133536115
:10381000704743F00403E0E753695DF8044B023B53
:103820005361704753695DF8044B0233536170472D
:10383000137C03F003030029D1D043F00403CEE747
:10384000A4700020214B1A69D2E90010D3680968DE
:10385000006810B41842946801EA04012ED0137C69
:1038600003F00303D9B943F008039908013B11742D
:103870000D2B0BD8DFE803F00D071C070A160D0D02
:10388000160A071C070D5369013B53615DF8044B91
:10389000704753695DF8044B01335361704743F03F
:1038A0000403E0E753695DF8044B023B5361704742
:1038B00053695DF8044B023353617047137C03F086
:1038C00003030029D1D043F00403CEE7A470002005
:1038D000224BD3F89420D2E90010D368096800681D
:1038E00010B41842946801EA04012ED0137C03F04E
:1038F0000303D9B943F008039908013B11740D2B58
:103900000BD8DFE803F00D071C070A160D0D160A89
:10391000071C070D5369013B53615DF8044B704769
:1039200053695DF8044B01335361704743F004035E
:10393000E0E753695DF8044B023B536170475369FC
:103940005DF8044B023353617047137C03F00303AB
:103950000029D1D043F00403CEE700BFA4700020BB
:10396000224BD3F89820D2E90010D3680968006888
:1039700010B41842946801EA04012ED0137C03F0BD
:103980000303D9B943F008039908013B11740D2BC7
:103990000BD8DFE803F00D071C070A160D0D160AF9
:1039A000071C070D5369013B53615DF8044B7047D9
:1039B00053695DF8044B01335361704743F00403CE
:1039C000E0E753695DF8044B023B5361704753696C
:1039D0005DF8044B023353617047137C03F003031B
:1039E0000029D1D043F00403CEE700BFA47000202B
:1039F000224BD3F89C20D2E90010D36809680068F4
:103A000010B41842946801EA04012ED0137C03F02C
:103A10000303D9B943F008039908013B11740D2B36
:103A20000BD8DFE803F00D071C070A160D0D160A68
:103A3000071C070D5369013B53615DF8044B704748
:103A400053695DF8044B01335361704743F004033D
:103A5000E0E753695DF8044B023B536170475369DB
:103A60005DF8044B023353617047137C03F003038A
:103A70000029D1D043F00403CEE700BFA47000209A
:103A8000224BD3F8A020D2E90010D368096800685F
:103A900010B41842946801EA04012ED0137C03F09C
:103AA0000303D9B943F008039908013B11740D2BA6
:103AB0000BD8DFE803F00D071C070A160D0D160AD8
:103AC000071C070D5369013B53615DF8044B7047B8
:103AD00053695DF8044B01335361704743F00403AD
:103AE000E0E753695DF8044B023B5361704753694B
:103AF0005DF8044B023353617047137C03F00303FA
:103B00000029D1D043F00403CEE700BFA470002009
:103B1000224BD3F8A420D2E90010D36809680068CA
:103B200010B41842946801EA04012ED0137C03F00B
:103B30000303D9B943F008039908013B11740D2B15
:103B40000BD8DFE803F00D071C070A160D0D160A47
:103B5000071C070D5369013B53615DF8044B704727
:103B600053695DF8044B01335361704743F004031C
:103B7000E0E753695DF8044B023B536170475369BA
:103B80005DF8044B023353617047137C03F0030369
:103B90000029D1D043F00403CEE700BFA470002079
:103BA000224BD3F8A820D2E90010D3680968006836
:103BB00010B41842946801EA04012ED0137C03F07B
:103BC0000303D9B943F008039908013B11740D2B85
:103BD0000BD8DFE803F00D071C070A160D0D160AB7
:103BE000071C070D5369013B53615DF8044B704797
:103BF00053695DF8044B01335361704743F004038C
:103C0000E0E753695DF8044B023B53617047536929
:103C10005DF8044B023353617047137C03F00303D8
:103C20000029D1D043F00403CEE700BFA4700020E8
:103C3000224BD3F8AC20D2E90010D36809680068A1
:103C400010B41842946801EA04012ED0137C03F0EA
:103C50000303D9B943F008039908013B11740D2BF4
:103C60000BD8DFE803F00D071C070A160D0D160A26
:103C7000071C070D5369013B53615DF8044B704706
:103C800053695DF8044B01335361704743F00403FB
:103C9000E0E753695DF8044B023B53617047536999
:103CA0005DF8044B023353617047137C03F0030348
:103CB0000029D1D043F00403CEE700BFA470002058
:103CC000224BD3F8B020D2E90010D368096800680D
:103CD00010B41842946801EA04012ED0137C03F05A
:103CE0000303D9B943F008039908013B11740D2B64
:103CF0000BD8DFE803F00D071C070A160D0D160A96
:103D0000071C070D5369013B53615DF8044B704775
:103D100053695DF8044B01335361704743F004036A
:103D2000E0E753695DF8044B023B53617047536908
:103D30005DF8044B023353617047137C03F00303B7
:103D40000029D1D043F00403CEE700BFA4700020C7
:103D5000224BD3F8B420D2E90010D3680968006878
:103D600010B41842946801EA04012ED0137C03F0C9
:103D70000303D9B943F008039908013B11740D2BD3
:103D80000BD8DFE803F00D071C070A160D0D160A05
:103D9000071C070D5369013B53615DF8044B7047E5
:103DA00053695DF8044B01335361704743F00403DA
:103DB000E0E753695DF8044B023B53617047536978
:103DC0005DF8044B023353617047137C03F0030327
:103DD0000029D1D043F00403CEE700BFA470002037
:103DE000224BD3F8B820D2E90010D36809680068E4
:103DF00010B41842946801EA04012ED0137C03F039
:103E00000303D9B943F008039908013B11740D2B42
:103E10000BD8DFE803F00D071C070A160D0D160A74
:103E2000071C070D5369013B53615DF8044B704754
:103E300053695DF8044B01335361704743F0040349
:103E4000E0E753695DF8044B023B536170475369E7
:103E50005DF8044B023353617047137C03F0030396
:103E60000029D1D043F00403CEE700BFA4700020A6
:103E7000224BD3F8BC20D2E90010D368096800684F
:103E800010B41842946801EA04012ED0137C03F0A8
:103E90000303D9B943F008039908013B11740D2BB2
:103EA0000BD8DFE803F00D071C070A160D0D160AE4
:103EB000071C070D5369013B53615DF8044B7047C4
:103EC00053695DF8044B01335361704743F00403B9
:103ED000E0E753695DF8044B023B53617047536957
:103EE0005DF8044B023353617047137C03F0030306
:103EF0000029D1D043F00403CEE700BFA470002016
:103F0000224BD3F8C020D2E90010D36809680068BA
:103F100010B41842946801EA04012ED0137C03F017
:103F20000303D9B943F008039908013B11740D2B21
:103F30000BD8DFE803F00D071C070A160D0D160A53
:103F4000071C070D5369013B53615DF8044B704733
:103F500053695DF8044B01335361704743F0040328
:103F6000E0E753695DF8044B023B536170475369C6
:103F70005DF8044B023353617047137C03F0030375
:103F80000029D1D043F00403CEE700BFA470002085
:103F9000224BD3F8C420D2E90010D3680968006826
:103FA00010B41842946801EA04012ED0137C03F087
:103FB0000303D9B943F008039908013B11740D2B91
:103FC0000BD8DFE803F00D071C070A160D0D160AC3
:103FD000071C070D5369013B53615DF8044B7047A3
:103FE00053695DF8044B01335361704743F0040398
:103FF000E0E753695DF8044B023B53617047536936
:104000005DF8044B023353617047137C03F00303E4
:104010000029D1D043F00403CEE700BFA4700020F4
:10402000224BD3F8C820D2E90010D3680968006891
:1040300010B41842946801EA04012ED0137C03F0F6
:104040000303D9B943F008039908013B11740D2B00
:104050000BD8DFE803F00D071C070A160D0D160A32
:10406000071C070D5369013B53615DF8044B704712
:1040700053695DF8044B01335361704743F0040307
:10408000E0E753695DF8044B023B536170475369A5
:104090005DF8044B023353617047137C03F0030354
:1040A0000029D1D043F00403CEE700BFA470002064
:1040B000224BD3F8CC20D2E90010D36809680068FD
:1040C00010B41842946801EA04012ED0137C03F066
:1040D0000303D9B943F008039908013B11740D2B70
:1040E0000BD8DFE803F00D071C070A160D0D160AA2
:1040F000071C070D5369013B53615DF8044B704782
:1041000053695DF8044B01335361704743F0040376
:10411000E0E753695DF8044B023B53617047536914
:104120005DF8044B023353617047137C03F00303C3
:104130000029D1D043F00403CEE700BFA4700020D3
:10414000224BD3F8D020D2E90010D3680968006868
:1041500010B41842946801EA04012ED0137C03F0D5
:104160000303D9B943F008039908013B11740D2BDF
:104170000BD8DFE803F00D071C070A160D0D160A11
:10418000071C070D5369013B53615DF8044B7047F1
:1041900053695DF8044B01335361704743F00403E6
:1041A000E0E753695DF8044B023B53617047536984
:1041B0005DF8044B023353617047137C03F0030333
:1041C0000029D1D043F00403CEE700BFA470002043
:1041D000F8B501235C4E5D4F0446335416F040FDA4
:1041E0003B781BB15A4B1B78DA072BD4594D2A78F0
:1041F000002A38D1584B1F681FB3BB790BB3574BFC
:10420000FD7AD3F800E0E5B13B46104609E002290B
:1042100050D1597BA14274D001321A33D0B28542B9
:104220000FD9197B0129F2D1597BA142F4D11A236C
:1042300003FB0273D97B012979D002297BD00029A5
:1042400075D0F8BD454B464A1B681268414D9B1A14
:104250000E2BCCD922462B784249434814F0B4FAAD
:104260002A78002AC6D0414B00261C702E7016F00A
:10427000F7FC3B78002BE4D0354B1B78DB07E0D50F
:10428000364B374A1B6812689B1A0E2BD9D911215D
:10429000374816F067FC334621460A22324814F0AC
:1042A000A1FA0121334816F05DFC2F48BDE8F84023
:1042B00014F06EBA0329AFD1597BA14203D093F811
:1042C0000EC0A445A8D1735C002BBAD01A2303FBFF
:1042D0000273997B715C0029B3D0D97B012926D068
:1042E0000229ACD124498B5C83F001038B54EBB9D8
:1042F0000023224C2248FF21224A237003701170B0
:10430000F8BD214B53F8241043F824E0AEEB010E26
:10431000BEF1310F95D91A2303FB02731B8A734533
:104320008FD30021BDE8F840FDF7D8BF0121BDE8DB
:10433000F840FDF7D3BF10498B5C83F001038B5429
:10434000002BD5D0EDE700BF686F0020BB780020C0
:10435000BA7800209A7800206870002064770020E6
:104360007C78002058190020783D0020A278002099
:1043700074190020541D0020A86D0020A67800208C
:10438000A37800200E4600208469002070B5044602
:1043900000257949FF2604F5EB634FF44072203085
:1043A0002570C4F858374FF4687365702162A570A2
:1043B000A4F89823E570C4F8A8032671A4F85C3724
:1043C0006671E5816562A562C4F87853C4F87C53D0
:1043D00084F89A5384F85E57C4E9E055C4E9E2557D
:1043E000C4E9E4550EF050F8644B04F5EC6084F831
:1043F000855703F14C02C4F86037C4F86457C4F819
:104400006C27C4F86857C4F8705784F87457C4F818
:104410007857C4F87C57C4F8805784F8845784F8D8
:10442000865784F88757C4F88857C4F88C57C4F85F
:104430009057C4F8945711F0BDFF514B04F5F36049
:1044400084F81A5803F15802C4F89837A4F81C6885
:1044500004F50466C4F8A427C4F89C57C4F8A05710
:10446000C4F8A85784F8AC57C4F8B057C4F8B45788
:10447000C4F8C057C4F8C45784F8F65784F8F857FE
:10448000C4F80458C4F80858C4F80C58C4F81058B4
:10449000C4F81458A4F8185884F81B5884F82758FE
:1044A000C4F82858C4F82C58C4F83058C4F8345804
:1044B00011F0E6F9334B40F20111012003F16C02D7
:1044C000C4F84038A4F878182946C4F84C2803F1F9
:1044D000980284F87A0804F68800C4F858284FF443
:1044E0008072C4F84458C4F84858C4F85058C4F806
:1044F0005458C4F85C5884F86058C4F86458C4F838
:10450000685884F86C58C4F87058C4F87458C4F8E3
:104510007C58A4F8805884F88258C4F8845819F05C
:104520006FFC00220023C6E95223C6E9542340F25F
:10453000FF320023C6E95623C4F8A059C4F8A45991
:10454000C4F8A859C4F8AC5914F000FE034684F826
:10455000B4593046C4F8B03984F8D55CA4F8D65CB8
:10456000A4F8D85C0EF0F4FF204684F8805DC4F80F
:104570000650C4F80A5070BDB0280020EC29002075
:10458000702B00209C2A002010B504460CF06CFB18
:10459000034A044BC4F8C027C4F8C43710BD00BF99
:1045A000290100004501000070B504460E460DF0DB
:1045B00027FBD4F8683794F88527003B02F0FF0505
:1045C00018BF012384F8803D0AB9284670BD94F8CD
:1045D00087376FF07E0204F5EC603370D4F88837CB
:1045E0007F2BA8BF7F239342B8BF13467380D4F8B4
:1045F0008C377F2BA8BF7F239342B8BF1346B3806D
:10460000D4F890377F2BA8BF7F239342B8BF1346BF
:10461000B37111F0D9FE284670BD00BF704700BFCE
:1046200090F8800D704700BFD0F85408003818BFCC
:1046300001207047D0F8A007003818BF012070474C
:10464000012810B54ED00238334C012832D916F06B
:1046500007FB23781BB1314B1B78DA071BD464208E
:1046600014F020FD16F0FCFA23789BB12B4B1B783D
:10467000DB070FD52A4B2B4A1B6812689B1A0E2B9F
:1046800008D90B21284816F06DFA2848BDE81040DB
:1046900014F07EB810BD224B224A1B6812689B1A88
:1046A0000E2BDCD92521224816F05CFA1F4814F0A5
:1046B0006FF8D4E716F0D4FA2378002BC7D0174B45
:1046C0001B78D907C3D5164B164A1B6812689B1A6C
:1046D0000E2BBCD93821174816F044FA134814F0B1
:1046E00057F8B4E70C4C16F0BBFA2378002BAED089
:1046F0000A4B1B78D807AAD5094B0A4A1B681268CF
:104700009B1A0E2BA3D923210B4816F02BFA07482E
:1047100014F03EF89BE700BFBB780020BA78002079
:10472000647700207C780020EC150020783D002084
:10473000C415002088150020641500200B4610B514
:10474000362800F29782DFE810F08C0282027902AC
:10475000700267025E0255024C0243023A023102C5
:1047600028021F02BF01B601AD01A4019B01920105
:104770008901800177016E0165015C0153014A01E5
:10478000410138012F0126011D0113010901FF001C
:10479000F500EB00E100D700CD00C300B900AF0089
:1047A000A5009B00910087007D00730069005F00F9
:1047B00055004B0041003700C84C0422C849362040
:1047C000C4F8D83014F06EFF012010BDC34C042291
:1047D000C4493520C4F8D43014F064FF012010BD62
:1047E000BE4C0422C0493420C4F8D03014F05AFF23
:1047F000012010BDB94C0422BC493320C4F8CC3090
:1048000014F050FF012010BDB44C0422B8493220EE
:10481000C4F8C83014F046FF012010BDAF4C04228C
:10482000B4493120C4F8C43014F03CFF012010BD5D
:10483000AA4C0422B0493020C4F8C03014F032FF32
:10484000012010BDA54C0422AC492F20C4F8BC3077
:1048500014F028FF012010BDA04C0422A8492E20EE
:10486000C4F8B83014F01EFF012010BD9B4C042288
:10487000A4492D20C4F8B43014F014FF012010BD59
:10488000964C0422A0492C20C4F8B03014F00AFF42
:10489000012010BD914C04229C492B20C4F8AC305F
:1048A00014F000FF012010BD8C4C042298492A20EE
:1048B000C4F8A83014F0F6FE012010BD874C042285
:1048C00094492920C4F8A43014F0ECFE012010BD56
:1048D000824C042290492820C4F8A03014F0E2FE53
:1048E000012010BD7D4C04228C492720C4F89C3047
:1048F00014F0D8FE012010BD784C042288492620EF
:10490000C4F8983014F0CEFE012010BD734C042280
:1049100084492520C4F8943014F0C4FE012010BD51
:104920006E4C042280492420C4F8903014F0BAFE62
:10493000012010BD694C04227C492320C4F88C302E
:1049400014F0B0FE012010BD644C042278492220EE
:10495000C4F8883014F0A6FE012010BD5F4C04227C
:1049600074492120C4F8843014F09CFE012010BD4D
:104970005A4C042270492020C4F8803014F092FE72
:10498000012010BD554C04226C491F20E36714F030
:1049900089FE012010BD514C042269491E20A367E5
:1049A00014F080FE012010BD4C4C042265491D20EE
:1049B000636714F077FE012010BD484C0422624961
:1049C0001C20236714F06EFE012010BD434C04220E
:1049D0005E491B20E36614F065FE012010BD3F4CCC
:1049E00004225B491A20A36614F05CFE012010BD6E
:1049F0003A4C042257491920636614F053FE0120F3
:104A000010BD364C042254491820236614F04AFE87
:104A1000012010BD314C042250491720E36514F0E9
:104A200041FE012010BD2D4C04224D491620A365E6
:104A300014F038FE012010BD284C042249491520ED
:104A4000636514F02FFE012010BD244C042246495A
:104A50001420236514F026FE012010BD1F4C0422F3
:104A600042491320E36414F01DFE012010BD1B4CCD
:104A700004223F491220A36414F014FE012010BD4B
:104A8000164C04223B491120636414F00BFE0120F4
:104A900010BD124C042238491020236414F002FE89
:104AA000012010BD0D4C042234490F20E36314F0A3
:104AB000F9FD012010BD094C042231490E20A363E9
:104AC00014F0F0FD012010BD044C04222D490D20EE
:104AD000636314F0E7FD012010BD00BFA470002047
:104AE0006D050000DD04000031220000A12100005E
:104AF0001121000081200000F11F0000611F000053
:104B0000D11E0000411E0000B11D0000211D00004B
:104B1000911C0000011C0000711B0000E11A000044
:104B2000511A0000C11900000117000071160000A1
:104B3000E115000051150000C114000035140000FB
:104B4000A91300001D1300009112000005120000BF
:104B500079110000ED10000061100000D50F000079
:104B6000490F0000BD0E0000310E0000A50D000031
:104B7000190D00008D0C0000010C0000750B0000E9
:104B8000E90A00005D0A00003B4C04223B490C206E
:104B9000236314F087FD012010BD374C04223849EF
:104BA0000B20E36214F07EFD012010BD324C042284
:104BB00034490A20A36214F075FD012010BD2E4C6B
:104BC000042231490920636214F06CFD012010BDFC
:104BD000294C04222D490820236214F063FD012092
:104BE00010BD254C04222A490720E36114F05AFD28
:104BF000012010BD204C042226490620A36114F098
:104C000051FD012010BD1C4C042223490520636185
:104C100014F048FD012010BD0422174C1F49104616
:104C2000236114F03FFD012010BD134C04221C49E8
:104C30000320E36014F036FD012010BD0E4C042269
:104C400018490220A36014F02DFD012010BD044678
:104C50000948042214494360012014F023FD204632
:104C600010BD054C042211490020236014F01AFDE8
:104C7000012010BD002010BDA4700020D10900004B
:104C800045090000B90800002D080000A107000038
:104C90001507000089060000FD0500003519000019
:104CA000A91800001D180000911700005104000011
:104CB0002DE9F0410F46164604460221384614F00D
:104CC000ABFA0221304614F0A7FA224B3A012248EF
:104CD0003101DFF88CC053F8028003EB0712C4F8EF
:104CE0000080D2F80CE003EB061259580023C4F8F8
:104CF00008E0D2686361194BE26045681B68616037
:104D0000ACFB033C4FF4FA634FEA9C4C03FB0CFCF6
:104D100043685B1B9C45FBD8D8F8003038460968CF
:104D20001EEA030F14BF012300230A42214618BFC5
:104D300043F002032374FFF701FD0346214630468A
:104D40002376FFF7FBFC227E03462046134423769E
:104D5000BDE8F081C8300020001000E0843C002055
:104D600083DE1B43022110B50446084614F054FAB2
:104D70000221052014F050FA022014F03BFA0346F9
:104D8000052084F8203014F035FA002384F821003F
:104D90006362E36215F064FF0B4B1B789BB10B4B16
:104DA0001B78DB070FD50A4B0A4A1B6812689B1A4F
:104DB0000E2B08D92821084815F0D4FE0748BDE875
:104DC000104013F0E5BC10BDBB780020BA7800207D
:104DD000647700207C780020C0220020783D0020ED
:104DE000A74AA84930B5137E83B004460D68012B4D
:104DF00040F2928072B6536962B6002B1846B8BF73
:104E0000D81C80101AD072B6D3F1000C03F0030145
:104E10000CF0030C58BFCCF10001516162B622685E
:104E200062B1B3F5007F06DA13F5007F40F3168117
:104E3000404240B201E06FF07E009047924A137EFC
:104E4000012B56D972B6536962B6002B1846B8BF0B
:104E5000D81C80101AD072B6D3F1000C03F00301F5
:104E60000CF0030C58BFCCF10001516162B66268CE
:104E700062B1B3F5007F06DA13F5007F40F3EC80F2
:104E8000404240B201E06FF07E009047022014F0F3
:104E9000B1F994F82030834203D0636AEB1A312BC6
:104EA00015D8052014F0A6F994F8213083420CD0CF
:104EB000E36AEB1A312B08D9E56200283FD10123C0
:104EC0002563E561237684F8210003B030BD656277
:104ED000002848D0A36A40F2DB52EB1A934240F21A
:104EE000BF80E36813B101909847019884F82000CF
:104EF000D7E772B6136891681B6819405368186841
:104F0000D36818425CD0137C03F0030309B143F06B
:104F1000040343F0080359E072B6136891681B68F4
:104F2000194053681868D36818421ED0137C03F0E8
:104F3000030309B143F0040343F008031BE0534BA0
:104F400000221B782276002BBDD1236B40F2DB526E
:104F5000EB1A934200F28E802369002BB3D00190AC
:104F600098470198AFE7A562C0E7137C03F00303FD
:104F700009B143F004039908013B11740D2B3FF66E
:104F80003AAF01A151F823F01131000009310000BE
:104F90004131000009310000E72E000039310000E6
:104FA000113100001131000039310000E72E0000FE
:104FB00009310000413100000931000011310000C9
:104FC000137C03F0030309B143F004039908013B88
:104FD00011740D2B3FF637AF01A151F823F000BF3C
:104FE0002131000019310000313100001931000079
:104FF000372F00002931000021310000213100004D
:1050000029310000372F0000193100003131000034
:1050100019310000213100005369013B5361EBE677
:10502000536901335361E7E65369013B53610BE771
:1050300053690133536107E75369023B536103E747
:10504000536902335361FFE65369023B5361D3E670
:10505000536902335361CFE67F2016E77F20ECE6E9
:105060000A4B1B78002B7FF441AFA368002B7FF421
:105070003AAF3BE76369002B7FF471AF23E700BFD2
:10508000286F002064770020446F00201446002021
:1050900010B501210A2014F0BFF801210A202B4C81
:1050A00014F07EF80121252014F0B6F80121252006
:1050B00014F076F80121072014F0AEF80121072042
:1050C00014F06EF800234FF48C72F021204613F098
:1050D00023F90121204613F0B5F80021204611F0F4
:1050E00031FC00224FF0FF3303212046E27663615A
:1050F00012F0ECF9164B092216492046236113F0F1
:1051000013FB0221204612F0E1F9134B0F22134941
:105110002046236113F008FB15F0A2FD104B1B780D
:105120009BB1104B1B78DB070FD50F4B0F4A1B6849
:1051300012689B1A0E2B08D918210D4815F012FD84
:105140000C48BDE8104013F023BB10BD6C77002065
:105150003C005A00401800203C007D004C18002004
:10516000BB780020BA780020647700207C7800208B
:105170005C180020783D002010B50121254C22202C
:1051800014F04AF80121222014F00AF800234FF409
:105190008C72F021204613F0BFF80121204613F055
:1051A00051F80021204611F0CDFB00226FF0F823CA
:1051B00003212046E276636112F088F9164B09223A
:1051C00016492046236113F0AFFA0221204612F05F
:1051D0007DF9134B0B2213492046236113F0A4FAE7
:1051E00015F03EFD104B1B789BB1104B1B78DB0775
:1051F0000FD50F4B0F4A1B6812689B1A0E2B08D94C
:1052000018210D4815F0AEFC0C48BDE8104013F015
:10521000BFBA10BDF07700203C005A0040180020B3
:1052200054007D0078180020BB780020BA78002058
:10523000647700207C78002084180020783D0020CE
:10524000034608461146062B10B582B014D90D2B23
:1052500008D90E3B062B3AD8DFE803F035312F246E
:10526000181410001D4C073B1D4A34F9133002B0CE
:10527000BDE8104018F058BC1A4CF5E71A4B1B4A11
:105280001B68F4E71A4B1B4A1B78F0E71A4B93EDA7
:10529000007A1A4AB7EEC77A8DED007B18F044FC0D
:1052A00002B010BD164B174A93ED007AB7EEC77ADD
:1052B0008DED007B18F038FCF2E7134BE7E7134B5A
:1052C000134A1B88D3E7134B114A1B88CFE7124AB6
:1052D00002B0BDE8104018F027BC00BF6C7600207B
:1052E000F81500205C760020B84300202C16002022
:1052F0001346002024160020B04300200C16002086
:105300005876002018160020B44300209078002022
:10531000041600208E780020E4270020C1EB011144
:10532000364A374B49002DE9F0410746B3F90050A2
:1053300092F900008CB27BB286B004F11802984258
:1053400092B253D0AF424DD0062F53D94FF6FF73D0
:105350004FF6A0460D2F88BF1E460023294D12B2DE
:1053600001931E230021284600934FF48C7312F002
:105370005FFBEE82AE820221284604F11F0612F086
:10538000A5F8042336B22B821F4B6E8253F8278078
:10539000B8F1000F07D0404619F0BAF8414602466E
:1053A000284613F0C1F902A938460E22FFF748FF3C
:1053B000982302A86E822B8219F0AAF802A902464D
:1053C000104813F0B1F904F1350242F204144FF41D
:1053D0008C7312B200210B48009412F0C1FA06B08F
:1053E000BDE8F08100264FF6FF73B7E700264FF4C3
:1053F000FC63B3E740F25F460023AFE711460020AD
:105400008C7800206C770020E41B00202DE9F04F01
:105410002DED048B8FB0002800F01B8240F25F421C
:10542000914B924F0292B3F80080914A0492049BF0
:1054300000219A1E03F10C04059232F9023F002B61
:10544000C3F10000B8BF03B29942B8BF1946A242E7
:10545000F3D1642940F38C82C82940F30482B1F56A
:10546000967F9FED848ADFED847ACBBF4FF0FA09F7
:105470004FF096094FF4FA764FF4967638FE278A65
:105480007E4C002116254FF0CC0A204611F05AFA26
:1054900000220F2320461146009501934FF48C7390
:1054A00012F0C6FA0221204612F010F8029B39468B
:1054B0000722E3822046A38241F6C307704B236193
:1054C00013F032F96F4B01212046636111F0FEFFAA
:1054D0006D4B6E4A14211B6809A80093334618F0DF
:1054E00023FB09A819F014F8082140F2151302460D
:1054F000618200EB40012046A3EB410309A923820E
:1055000013F012F940F641032A461C212046CDE94A
:1055100000A3FA2312F08CFA44F208237C221C2107
:1055200020460093FA2312F01BFAFA2349221C2189
:105530002046009712F014FAFA23AF221C212046CD
:10554000009712F00DFA42F204132A461C21009330
:105550002046FA2312F004FAB8F1000F04D04A4BA7
:105560001A68424500F20A820121444811F0AEFF58
:10557000474B484A0721636107A83346002518F0C6
:10558000D3FA4FF4B01307A89FED439A23614FF06D
:105590007C0A18F0BDFF07A90246384813F0C4F88A
:1055A0004B463C4A072107A8DFED3C9A18F0BCFAAD
:1055B0004FF48A0307A8DFED3A8A236118F0A8FFA9
:1055C00007A902462D4813F0AFF8364B02223649A0
:1055D00023612A4813F0A8F84B46344A072107A84C
:1055E0004FF01C0918F0A0FA4FF42B0307A8236111
:1055F00018F08EFF07A90246204813F095F83346AD
:105600002A4A072107A82E4618F08EFA4FF45A03AB
:1056100007A8236118F07CFF07A90246174813F07A
:1056200083F8234B012223492361144813F07CF8AB
:10563000154B214A14211B6809A818F075FA09A80E
:1056400018F066FFE423024609A9638200EB4003D9
:105650000A485B00C3F58B732382012413F064F8BE
:10566000064812F0FDF841E08E780020B8090020CD
:105670005C7600200000FA4300009643F07700209B
:105680000900030018C618C6B8430020C809002046
:1056900010841084D8090020000000000000CC42D3
:1056A0000000F84204007800DC090020E009002036
:1056B0001C00E40048180020E4090020E12BA8BFEA
:1056C000E1231A461FB205F11C030FFA83FB002CDD
:1056D00000F0988002354FF0000446F10006A5F175
:1056E000FC02324300F0DA80BA46D946AC4BFA22CB
:1056F0001F680023A7FB050107FB061116F066FAD9
:105700004045C0F0B680874240F2B380A0EB08006D
:10571000A7EB0807B1EE086A049907EE900AF8EEC5
:10572000676A07EE907AB8EE677AC6EE877A67EE18
:10573000867ABDEEE77A17EE102A17EE103A052AA0
:10574000A8BF052331F9130007EE103A01EB43031C
:10575000B8EEC77A05EE900AB3F90210F8EEE55AF2
:1057600005EE101A77EEC77AB8EEC55A002A40F057
:10577000838035EE654AB3F90430B6EE007A06EE62
:10578000103AB8EEC66A36EE656A26EE076A27EE6C
:10579000A77AF0EE086AB0EE003A67EE874A67EE45
:1057A000266AF7EE002AB0EE642AF0EE663AE4EEDE
:1057B000C36AA7EE432AD4EE833A34EEC77A77EE73
:1057C000827A73EEA24A67EE847AE5EEA47AE6EE78
:1057D000857AE7EE067A67EEA97A87EE887A78EE20
:1057E000C77AFDEEE77A17EE903A1BB2152B3FF71A
:1057F00065AF162705F11C033A460FFA83FB002C10
:105800007FF468AF94B2029B1FFA8AF16548621E6A
:10581000019303915B4612B2013400924A1E49463D
:1058200024B212B211F00AF9029B524649465D4871
:10583000CDE900735B4611F001F9039902985B46CC
:105840004A1C4946CDE9004012B2564811F0F6F81C
:1058500040E74FF6A042544B544F0292544AB3F8DB
:1058600000800492E3E59FED538A4FF06409C82657
:1058700006E6F0EE497AB0E733F9021CB6EE007A9C
:10588000042A04EE101AB8EEC44A35EE444A24EE57
:10589000074A7FF770AF35EE656A78E741482546DD
:1058A00011F088FE9FED449ADFED448A444E059F37
:1058B0004CE001FB0500191841F10001A6FB01CEE7
:1058C0002EF0010C0CEB5E0CA1EB0C015B1AA3FBA0
:1058D000061360F10000490806FB003341EAC3717A
:1058E0004144FA200023A1FB000116F06FF91C21AE
:1058F00040F21512084403B21B2B03DD9342A8BFEC
:105900001346194637F9023F4FF6FF72254807EE56
:10591000103A00920423B8EEC77A27EE097AC7EE50
:10592000087A78EEE77AFDEEE77A17EE902A12B25F
:10593000E12AA8BFE122162AB8BF162211F0F8FA10
:10594000013445F10005E31F2B430CD0144B1A68BA
:10595000A2EB08014245A1FB0430AAD84146002A27
:10596000BFD11C21CEE70FB0BDEC048BBDE8F08F9A
:105970009FED148A4FF03209642681E5FA21002355
:10598000A8FB010116F022F91C3053462A4601B249
:1059900047F6EF300090204611F078FFE4E500BFB5
:1059A000B8430020F077002090780020C009002044
:1059B0006C760020000048430000CC420000F84212
:1059C000ABAAAAAA0000C8422DE9F04F844D91B0BD
:1059D00000214FF00F0828464FF0FF3410F0B2FFBF
:1059E000002216214FF48C73284609AE07AF4FF002
:1059F0001B09CDE90018114612F01AF802212846B9
:105A000011F064FD774B072277492846C5E9043435
:105A100012F08AFE754B012128466B6111F056FD8C
:105A2000734B1022734928462B6112F07DFE724B96
:105A3000724AADF820400024079293E8070086E8F8
:105A400007000121284611F041FD5C2321B21622F6
:105A50002846CDE9009811F0EBFF37F8022B56F8F5
:105A600004ABA31C1F21EA825046AA822B826982C2
:105A7000BAF1000F06D018F04BFD514602462846F9
:105A800012F052FE5D3440F21713A4B29C42DCD1F6
:105A90005B4B00264FF01B0B514F0393594B049364
:105AA000594B059306EB460416F0010F40F6410AE8
:105AB0004FF05C0304EBC40418BF4FF0000A002150
:105AC0003846A4B2CDF800B0CDF804A05FFA86F84D
:105AD00004F131093A340FFA89F924B24A4611F037
:105AE000A7FF4A4B4A4A40F25F411B7810784FF6B5
:105AF000FF72C3EBC3036C82434408F10E08DBB2B0
:105B0000834218BF0A460E210CA8EA82AA82039A91
:105B100032F9023F0093022303922B8233463D4A1F
:105B200018F002F80CA818F0F3FC0CA9024638464D
:105B300012F0FAFD5C234A465D213846CDE900BAF1
:105B400011F076FF049A0E210CA832F9023F6C8204
:105B50000093314B04926B615F23304A2B823346B2
:105B600017F0E2FF0CA818F0D3FC0CA90246384647
:105B700012F0DAFD4A465D23BA213846CDF804A07A
:105B8000CDF800B011F054FF4FF0FF330E225FFA52
:105B900088F06B61BC230CA96C822B82FFF750FB51
:105BA000059B53F8044F05933CB1204618F0B0FC18
:105BB00021460246384612F0B7FD3A21384611F028
:105BC000E9FB01360CA818F0A3FC0CA902463846E4
:105BD00012F0AAFD072E7FF465AF11B0BDE8F08F7B
:105BE000F077002009000300E017002018C618C64F
:105BF0007800080038150020980800205F04A0FCF9
:105C00005A7600206A760020181C0020B278002006
:105C10008C7800204C150020A0FCA0FC581500201A
:105C200010B5204C8AB0034608461146E268D4F805
:105C300008C0042B06922269CDF814C00792D4F84C
:105C400014C0A269CDF820C0099225D8164C9A003C
:105C500003EB830304EB83031C69237873B102F124
:105C60002803124A6B4413ED057A0294B7EEC77A03
:105C70008DED007B17F058FF0AB010BD02F128032C
:105C80000B4A6B4413ED057AB7EEC77A8DED007BB6
:105C900017F04AFF0AB010BD064A0AB0BDE810402E
:105CA00017F042BF207500209C190020101800201A
:105CB00008180020E4270020C1EB011104284FEA56
:105CC00041012DE9F0418CB286B004F1180292B284
:105CD00059D80746324B3349B3F900007BB291F9EA
:105CE000001099424BD0874240F2FF764FF6FF7387
:105CF0000CBF002600232C4D12B201931E2300215D
:105D0000284600934FF48C7311F092FE022128462E
:105D1000EE82AE8211F0DAFB042304F11F062B821F
:105D200036B2224B6E8253F82780B8F1000F07D0AD
:105D3000404618F0EDFB41460246284612F0F4FCBE
:105D400002A938460E22FFF76BFF982302A86E8245
:105D50002B8218F0DDFB02A90246134812F0E4FC86
:105D600004F1350242F204144FF48C7312B2002194
:105D70000D48009411F0F4FD06B0BDE8F081002656
:105D80004FF4FC63B7E700211E204FF48C7312B26E
:105D9000CDE90001044811F04BFE06B0BDE8F081EA
:105DA0008C780020114600206C770020D01B00204A
:105DB000F0B5002287B03C4C1F2118274FF0FF356B
:105DC0004FF48C7320460526CDE90071114611F081
:105DD0002FFE02212046656111F078FB334B032230
:105DE00033492361204612F09FFC324B0A2232498C
:105DF0002361204612F098FC01212046656111F0D4
:105E000065FB2E4B0C212E4AB3F900300DEB01003F
:105E10000096013317F088FE2A4B03A8236118F07F
:105E200077FB03A90246204612F07EFC264B274A48
:105E30001B6812689A421AD9254B1B88312B20D82F
:105E40004FF478724FF48C73204600970192002231
:105E5000114611F0EDFD02212046656111F036FB7F
:105E600032461C491C4B1048236112F05DFC002493
:105E7000E1B201340846FFF71FFF072CF8D107B045
:105E8000F0BD00224FF400414FF48C732046019185
:105E90001146009711F0CCFD02212046656111F0FA
:105EA00015FB07220D49DDE76C770020090004008F
:105EB0006C09002041000400700900208C7800204B
:105EC0007C090020DE000A00647700209474002022
:105ED000887800205C090020550004006409002037
:105EE000614B1B78022B00F0A380002218204FF496
:105EF0008C731146F0B55D4C89B00F254FF0FF361D
:105F0000CDE9000520465A4D11F092FD02212046B0
:105F1000666111F0DBFA574B032257492361204693
:105F200012F002FC2B78002B7BD140F25F425349E8
:105F3000E282A282524A216152F823100846514F50
:105F4000039118F0E5FA039902464848072612F033
:105F5000EBFB01214548676111F0B8FA2B78082165
:105F600004A8C3EB431203EBC203474A128800960E
:105F70001344464A0133DBB217F0D6FD444B04A864
:105F8000236118F0C5FA04A90246384812F0CCFB88
:105F900002213648676111F099FA2B783D4A0821B1
:105FA000013306A817F0C0FD3B4B06A8236118F08B
:105FB000AFFA06A902462D4812F0B6FB374B384A15
:105FC0001B6812689A421DD9364B1B88312B31D879
:105FD000002218234FF478712448CDE9003111468E
:105FE0004FF48C7311F024FD4FF0FF3302211F4852
:105FF000636111F06BFA05222B492C4B1B4823617E
:1060000012F092FB2D780024C5EBC505EDB2E1B28C
:1060100001346818C0B2FFF781F9072CF7D109B035
:10602000F0BD012B1CD0154B2149C4E9043685E78E
:10603000FFF7BEBE002218234FF400410B48CDE904
:10604000003111464FF48C7311F0F2FC4FF0FF3326
:1060500002210648636111F039FA32461549CCE74E
:106060004FF6A04263E700BF124600206C77002085
:10607000B278002009000400A018002041000400AC
:10608000AC18002018C618C68C7800207C090020A7
:10609000A2000A00A4180020DA000400647700209F
:1060A00094740020887800205C09002055000400CA
:1060B00074090020640900202DE9F04F564C8FB080
:1060C0000021564F2046DFF8749110F03BFC00226F
:1060D0001F2016214FF48C7348260025DFF860B18D
:1060E000CDE900101146204611F0A2FC0221204605
:1060F00011F0ECF94FF0FF3349490B222046C4E977
:106100000413484912F010FB474B012120466361FC
:1061100011F0DCF9454B0E2245492046236112F06F
:1061200003FB444915F0010F40F64103A6F10E02AE
:10613000B1F9001018BF002324205FFA85F8A942A6
:1061400012B25AD00021CDE900034FF48C732046DF
:1061500011F06EFC40F2FF7301212046E3820FFA3A
:1061600086FAA38211F0B2F959F8041B0423013511
:10617000A4F812A008462382059131B118F0C8F99D
:1061800005990246204612F0CFFA0E2206A9404693
:106190002436FFF745FD822306A8A4F812A0238227
:1061A00018F0B6F906A902462046143712F0BCFAD8
:1061B00017ED036A17ED047A1021B7EEC66A5A4646
:1061C000B7EEC77A0AA8B6B28DED026B8DED007BF3
:1061D00017F0AAFCC323184A0AA823826261A4F814
:1061E00012A018F095F90AA90246204612F09CFA6E
:1061F000052D96D10FB0BDE8F08F242343F2861110
:106200002046CDE900314FF48C73002111F010FCD1
:106210004FF6FF73A0E700BFF07700209C19002025
:1062200009000300DC17002018C618C6B4000800D7
:10623000E81700208C7800204D6B4D6BD01B0020A0
:10624000F8170020094B1B78022B0CD0084B1B7849
:1062500033B1012B01D0FFF7B7BB0020FFF7D6B851
:106260000120FFF7D3B8FFF727BF00BF1246002079
:10627000B278002040F2DB5398422DE9F0470C46FB
:1062800082B041D84FF06408324B4FF48A75002237
:1062900008FB00F7DFF8D89011462F48A3FB073A18
:1062A00018234FEA5A1A05FB0AF5CDE90032A9FB7B
:1062B00005364FF48C7311F0BBFB284B76099F42D7
:1062C0003AD8CAEB4A104000A9FB00904009C0022E
:1062D00040F4FC6080B2632D24D8214A4FF6FF734E
:1062E000204E01211C4D022C18BF164628466B611A
:1062F00011F0ECF81C4B0622314628462B6102B007
:10630000BDE8F04712F010BA002218204FF48C7349
:106310004FF48A76009011460F48019211F088FBE5
:106320004FF68020102133B20422CDE90010022163
:10633000094811F07DFBD0E756230C4803FB0A0007
:10634000B0FBF8F0C0F13F00C0B2400140F478402B
:10635000C1E700BFF11976056C770020D32A010050
:1063600030180020381800207A00080034EFFFFFB2
:106370001F85EB51014B1888704700BF88780020BB
:1063800010B504460020214613F0E0F814F068FC34
:10639000114B1B78EBB1114B1B78DB0719D5104B58
:1063A000104A1B6812689B1A0E2B12D91D210E4829
:1063B00014F0D8FB022C0DD00C480D4B032C18BF49
:1063C0001846112114F0CEFB0A48BDE8104012F027
:1063D000DFB910BD0848F4E7BB780020BA78002088
:1063E000647700207C7800202C140020F01300201B
:1063F00018140020783D002004140020494B9868B0
:1064000010F0010010B525D112F090FF02280446CB
:1064100055D003286CD0042838D014F021FC424B0E
:106420001B7813B90124204610BD404B1C7814F092
:106430000104F7D03E4B3F4A1B6812689B1A0E2B93
:10644000F0D91A213C4814F08DFB3C4812F0A0F919
:10645000204610BD01229A6014F002FC324B1B78DA
:10646000002BDFD0314B1C7814F00104DAD0304B14
:10647000304A1B6812689B1A0E2BD3D91E21304854
:1064800014F070FB2D4812F083F9CCE714F0E8FB10
:10649000254B1B78002BC6D0244B1B78DB07C2D5BD
:1064A000234B244A1B6812689B1A0E2BBBD91A2156
:1064B000244814F057FB214812F06AF9B3E714F0AE
:1064C000CFFB194B1B78002BADD0184B1B78D9078D
:1064D000A9D5174B174A1B6812689B1A0E2BA2D915
:1064E0001A21194814F03EFB144812F051F99AE7AA
:1064F00014F0B6FB0C4B1B78002B94D00B4B1B7885
:10650000DA0790D50A4B0B4A1B6812689B1A0E2BB0
:1065100089D91A210D4814F025FB084812F038F9E2
:1065200081E700BF00800F40BB780020BA780020D0
:10653000647700207C780020740C0020783D0020D7
:10654000000C0020580C0020200C00203C0C0020E7
:1065500038B54D21002232244923417094460470FD
:1065600001248370431DC17000F13701047180F86C
:10657000372013F8012F99428CEA020CF9D1244CF0
:106580003822042180F805C013F07AF82388214DC1
:106590000133238014F064FB2B781BB11E4B1B7856
:1065A000DA0704D42388322B1AD0012038BD1B4BC4
:1065B0001B4A1B6812689B1A0E2BF3D9312119480C
:1065C00014F0D0FA2188184812F0D6F801211748A3
:1065D00014F0C8FA144812F0DBF82388322BE4D107
:1065E00014F03EFB2B78002BDFD00B4B1B78DB0726
:1065F000DBD50A4B0A4A1B6812689B1A0E2BD4D9AA
:1066000031210B4814F0AEFA074812F0C1F8CCE77C
:1066100088780020BB780020BA78002064770020BA
:106620007C780020B4140020783D0020D838002069
:10663000E81400202DE9F0418EB006466F463C4636
:10664000C7F10405601912F071FE0EAB04F8010BDE
:106650009C42F7D1AE4B009A9A4240F026819DF8B9
:106660000430012B40F0B4800DF105030DF137012A
:10667000002413F8012F8B4284EA0204F9D19DF81B
:106680000580444540F05E8104AA07F11E0132F8FE
:10669000023F03F5FA739BB2B3F57A7F00F284816F
:1066A000D38903F5FA739BB2B3F57A7F00F2D681F2
:1066B0009142ECD1BDF8322040F6B8339A4200F254
:1066C0000D81BDF834209A4200F20881DDF80630D1
:1066D0009FED907A07EE903AF4EEC77AF1EE10FA59
:1066E00000F1A081F2EE0E6AF4EEE67AF1EE10FA15
:1066F00000F39881DDF82E3007EE903AF5EEC07A7F
:10670000F1EE10FA00F16E81F3EE046AF4EEE67A2F
:10671000F1EE10FA00F36681DDF80A3007EE903AE8
:10672000F4EEC77AF1EE10FA00F1B481B2EE0E7A0F
:10673000F4EEC77AF1EE10FA00F3AC819DF8363032
:10674000053B5A2B00F2C281DDF80E3042F21C529A
:10675000A3F5FA73934200F2D5810CAD3C46103696
:1067600010370FCCAC4246F8100C46F80C1C46F81B
:10677000082C46F8043CF1D103CF3060716014F06E
:106780006FFA654B1B78002B00F04881634B1B7838
:10679000DB0740F14381624B624A1B6812689B1A17
:1067A0000E2B40F23B811E215F4814F0DBF90023E1
:1067B0000A2201215D4812F015F801215C4814F00D
:1067C000D1F95A4811F0E4FF01200EB0BDE8F08184
:1067D000514D14F045FA2B788BB1504B1B78DC07E8
:1067E0000DD54F4B4F4A1B6812689B1A0E2B06D9CA
:1067F0003121504814F0B6F94C4811F0C9FF4D232F
:106800003222002400217370F370012332704FF0A4
:106810007E5233716FF07703C6F80620B3731323EB
:10682000C6F80A204622F37349237471B370C6F880
:106830001240C6F82E10C6F81640C6F81A40C6F820
:106840001E40C6F82240C6F82640C6F82A4086F800
:10685000324086F8334086F8344086F83540347448
:1068600086F83620747486F8374014F0F9F92B78DE
:1068700003F0FF00002BA8D0284B1B7813F0010376
:1068800000F09080264B274A1B6812689B1A0E2B3B
:1068900040F2A6803521284814F064F9234811F00D
:1068A00077FF20460EB0BDE8F0811B4D14F0D8F9FB
:1068B0002B78002BA3D0194B1B78DF079FD5184BE3
:1068C000184A1B6812689B1A0E2B98D92F211B4857
:1068D00014F048F9154811F05BFF90E70E4D14F0E5
:1068E000BFF92B78002B8AD00C4B1B78DB0786D5A1
:1068F0000B4B0C4A1B6812689B1A0E2B7FF67FAF5E
:1069000033210F4814F02EF9084811F041FF76E7C3
:10691000324D494DCDCCCC3DBB780020BA7800201B
:10692000647700207C7800209C130020783D0020B4
:10693000D8380020401100206413002010110020DE
:106940001C1200207C4D14F08BF92B78002B3FF4A7
:1069500056AF7A4B1B78D8077FF551AF784B794A01
:106960001B6812689B1A0E2B7FF649AF30217648C0
:1069700014F0F8F8002341461022744811F032FF59
:106980000B21734814F0EEF80023102221466F48C3
:1069900011F028FF01216F4814F0E4F86B4811F062
:1069A000F7FE2CE7184610E7634D14F059F92B78E1
:1069B000002B3FF424AF614B1B78D9077FF51FAF45
:1069C0005F4B604A1B6812689B1A0E2B7FF617AF4D
:1069D0003021614814F0C6F85C4811F0D9FE0EE78A
:1069E0002046F2E6544D14F03BF92B78002B3FF48F
:1069F00006AF524B1B78DC077FF501AF504B514A75
:106A00001B6812689B1A0E2B7FF6F9AE3221534891
:106A100014F0A8F84D4811F0BBFEF0E601200EB0CE
:106A2000BDE8F081444D14F01BF92B78002B3FF4A6
:106A3000E6AE424B1B78DF077FF5E1AE404B414AA3
:106A40001B6812689B1A0E2B7FF6D9AE362144487C
:106A500014F088F83D4811F09BFED0E6364D14F056
:106A6000FFF82B78002B3FF4CAAE344B1B78DA07C3
:106A70007FF5C5AE324B334A1B6812689B1A0E2B4A
:106A80007FF6BDAE3021374814F06CF82F4811F076
:106A90007FFEB4E6284D14F0E3F82B78002B3FF48A
:106AA000AEAE264B1B78D8077FF5A9AE244B254AFE
:106AB0001B6812689B1A0E2B7FF6A1AE36212A485E
:106AC00014F050F8214811F063FE98E61A4D14F0C6
:106AD000C7F82B78002B3FF492AE184B1B78D907E0
:106AE0007FF58DAE164B174A1B6812689B1A0E2B4A
:106AF0007FF685AE37211D4814F034F8134811F0A5
:106B000047FE7CE60C4D14F0ABF82B78002B3FF4DD
:106B100076AE0A4B1B78DA077FF571AE084B094A4F
:106B20001B6812689B1A0E2B7FF669AE1049074846
:106B3000FBF7C2FB63E600BFBB780020BA780020F9
:106B4000647700207C78002074110020783D0020BC
:106B5000A8110020D8380020B4110020881200208D
:106B600050120020E8110020BC120020F412002076
:106B70002C1300200022012138B594462A4C0171C3
:106B8000431D00F11B010460C28013F8012F9942DC
:106B90008CEA020CF9D1254C1C22402180F805C05A
:106BA00012F06EFD2388224D0133238014F058F833
:106BB0002B781BB11F4B1B78DA0704D42388322BA8
:106BC0001AD0012038BD1C4B1C4A1B6812689B1A46
:106BD0000E2BF3D931211A4813F0C4FF218819482C
:106BE00011F0CAFD0121184813F0BCFF154811F03F
:106BF000CFFD2388322BE4D114F032F82B78002B10
:106C0000DFD00C4B1B78DB07DBD50B4B0B4A1B682B
:106C100012689B1A0E2BD4D931210C4813F0A2FF15
:106C2000084811F0B5FDCCE7314D49418878002086
:106C3000BB780020BA780020647700207C780020A0
