:0200000460009A
:100000004643464200000156000000000101020084
:1000100000000000000000000000000000000000E0
:1000200000000000000000000000000000000000D0
:1000300000000000000000000000000000000000C0
:1000400000000000010406010000000000000000A4
:100050000000800000000000000000000000000020
:100060000000000000000000000000000000000090
:100070000000000000000000000000000000000080
:10008000EB04180AFF1E04320126000000000000E5
:100090000000000000000000000000000000000060
:1000A0000000000000000000000000000000000050
:1000B0000000000000000000000000000000000040
:1000C0000000000000000000000000000000000030
:1000D0000000000000000000000000000000000020
:1000E0000000000000000000000000000000000010
:1000F0000000000000000000000000000000000000
:1001000000000000000000000000000000000000EF
:1001100000000000000000000000000000000000DF
:1001200000000000000000000000000000000000CF
:1001300000000000000000000000000000000000BF
:1001400000000000000000000000000000000000AF
:10015000000000000000000000000000000000009F
:10016000000000000000000000000000000000008F
:10017000000000000000000000000000000000007F
:10018000000000000000000000000000000000006F
:10019000000000000000000000000000000000005F
:1001A000000000000000000000000000000000004F
:1001B000000000000000000000000000000000003F
:1001C000000100000010000001000000000000001D
:1001D000000001000000000000000000000000001E
:1001E000000000000000000000000000000000000F
:1001F00000000000000000000000000000000000FF
:10020000FFFFFFFFFFFFFFFFFFFFFFFFFFFFFFFFFE
:10021000FFFFFFFFFFFFFFFFFFFFFFFFFFFFFFFFEE
:10100000D1002043F1150060000000000000000046
:10101000201000600010006000A8026000000000C6
:101020000000006000B4020000000000FFFFFFFFAE
:10103000FFFFFFFFFFFFFFFFFFFFFFFFFFFFFFFFC0
:10104000FFFFFFFFFFFFFFFFFFFFFFFFFFFFFFFFB0
:10105000FFFFFFFFFFFFFFFFFFFFFFFFFFFFFFFFA0
:10106000FFFFFFFFFFFFFFFFFFFFFFFFFFFFFFFF90
:10140000824205D051F8043B40F8043B8242F9D8AF
:10141000704700BF044A05494FF0000342F8043BFF
:101420009142FBD8704700BFC04E0020A07B002037
:1014300080B5BFF34F8F00F075F9544C544B082022
:101440005449C3F85401544AC3F800115348C3F82F
:10145000F0405349FFF7D4FF524A53495348FFF72E
:10146000CFFF534CFFF7D6FF4FF470004FF0E02151
:101470000023504AC1F8880D44F823200133B02BD3
:10148000FAD14D4B80214D4A03F8011B9342FBD109
:101490004FF0E0254A4F4B4A4FF0FF31C5F8084D59
:1014A0000026D5F8243D43F4E023C5F8243DFB692C
:1014B00023F07F0343F04003FB617B6A23F07F034B
:1014C00043F040037B629166D1661167516700F07B
:1014D00031F93D4B63223D49A3633D4BE363032355
:1014E0006A613C4AAE612B61C5F8202DD5F8FC2D10
:1014F000394B42F08072C5F8FC2D1A6842F00102A7
:101500001A605B680B6000F0D9FA344800F05CFCAC
:10151000F96E334B334A41F44051F9661E60C3F80B
:101520000861C3F81861C3F82861C3F83861936B88
:10153000DB0708D442F615632B4951651365936B9D
:1015400043F001039363274A284C936843F0011347
:10155000936000F079F900F05FF800F029FC00F0EA
:10156000DBFA00F0E1F82368132BFCD900F06CFBE8
:101570002368B3F5967FFBD300F0DAF800F0D6F8D5
:1015800000F006FC00F008FC30BFFDE70C0D111365
:1015900000800D401B101820A8350200000000003C
:1015A000D01F0060C04E00207C550260000000206B
:1015B000004C0020D182010000E400E0A0E400E043
:1015C00000C00F4000C00A403D700100F0790020CB
:1015D0004170010000002020001000E00046C323FD
:1015E0000040084000400D400000C056F479002043
:1015F000054B4FF42A01054A05485A641864054A08
:1016000099639546FFF714FF00C00A40FFABAAAAF2
:101610000700200000800520104BA020104AD96E42
:1016200041F4403110B4D96640F23764D96E41F4C8
:101630004071D96654649064936C1B06FCD4094ACB
:1016400040F23761A02351649364936C13F08003DC
:10165000FBD1054A13705DF8044B704700C00F4082
:1016600000400C4000800C404D7B00202B4A0021A4
:10167000012310B4C2F8A000C2F8A410C2F8B03020
:101680005369DB07FCD501234FF4803423495361B0
:10169000C2F8A000C2F8A440C2F8B0304B69DC0721
:1016A000FCD501234FF400341C4A4B61C1F8A00063
:1016B000C1F8A440C1F8B0305369D907FCD5012363
:1016C000174C16495361C2F8A000C2F8A440C2F8F2
:1016D000B0304B69DB07FCD5D1F8003145F60D5031
:1016E00021249AB24C61824214D045F69D518A421F
:1016F0000CD1C3F34253032B0CD0A3F104035DF8C8
:10170000044BB3FA83F35B091801704700205DF8BE
:10171000044B704708205DF8044B704700402A4096
:1017200004000300704700BF704700BF704700BF50
:1017300000BF704710B44FF0E0230021102432485E
:10174000C3F8941DC3F89C4D1124C3F8A00D2F4875
:10175000C3F89C4D1224C3F8A00D2D48C3F89C4D2E
:101760002C4AC3F8A00D2C4C42F015022B48C3F8AC
:101770009C4DC3F8A00D2A4C2A48C3F89C4DC3F8D1
:10178000A00D294CC3F89C2D2848294AC3F8A04D28
:10179000C3F89C0DC3F8A02D02F5A022254C0C32F5
:1017A0002548C3F89C4DC3F8A02D244AC3F89C0DCE
:1017B000C3F8A02D02F14062214C02322148C3F847
:1017C0009C4DC3F8A02D0A32C3F89C0DC3F8A02D80
:1017D00000BF00BF00BF00BF00BF0122C3F8942DAF
:1017E000BFF34F8FBFF36F8FC3F8501FBFF34F8FFF
:1017F000BFF36F8FD3F8142D5DF8044B42F44032E1
:10180000C3F8142D704700BF3F00001025000807E3
:1018100009001000A07B0020130020002100020717
:1018200014000020250008130900001016002020D5
:1018300027000B1317000040180000602F000B0753
:10184000190000701A000080F0B5824B1822824DFA
:101850000120824F83B0C3F85C528149C3F86072A3
:10186000804CC3F86452A5F530457F4EC3F86852EA
:1018700048F20C75C3F86C42C3F87042C3F8744266
:10188000C3F878424FF0FF34DA661A675A679A67EE
:10189000DA67C3F88020C3F88420C3F88820C1F831
:1018A0002C03724AC1F83003C1F83403C1F838037D
:1018B000C1F83C03C1F85003B1696D4B0A406D4853
:1018C0006D4913436D4AB361D6F8843043F00C037D
:1018D000C6F88430036843F00203036003682B40BA
:1018E00021251A43664B026044608A68654C1340A8
:1018F000654A43F000538360C36823F07803C360F4
:10190000036A134023430362036A13405F4A23437D
:1019100040F2056443628262C2620022D1F8B830AC
:1019200023F03F0343F00103C0F8B830D1F8BC30D6
:10193000574923F03F0343F00103C0F8BC30026174
:101940000567C0F880404567C0F8844002240368FA
:1019500023F00203036081614E4B4F49C46143F899
:10196000042B8B42FBD1434D2B6843F001032B60CA
:101970002C6814F00104FBD14549022340F2F562C2
:101980002046A96140F29941EB6140F26643C5F8F7
:10199000002242F20142C5F81032404BC5F8201235
:1019A000C5F8303240F23543C5F834223C49C5F819
:1019B00040323C4BC5F850123B4AC5F8543242F213
:1019C0000123C5F86022C5F86432FFF74FFE0646D2
:1019D000002836D083024FF480222B660123C5F8FD
:1019E000A040244CC5F8A420C5F8B0306369DA07DC
:1019F000FCD50125370565613846FFF737FE3218FB
:101A00002A4BD2B21A7078B180024FF48023194960
:101A10006066C4F8A070C4F8A430C4F8B0504B6934
:101A2000DB07FCD501234B61214900242148012318
:101A30000094401A00EB02521F4800F0BDF903B0B9
:101A4000F0BD1D4B194A18601070D860C3E9010041
:101A500003B0F0BD00801F40F9B00100F910010093
:101A600000841F40F970010000C00F40FFFCFF1F01
:101A70000003008000402A4000802A401200FFFF3F
:101A8000FF37F7004000008000FFF07CFF000F836D
:101A9000F05AF05A00422A4000432A409F0418306E
:101AA000EB06180A063201263806180A4E7B00207B
:101AB0000000007000000070A0770020F0B4154A0C
:101AC00040274FF480314FF480564FF400554FF4C7
:101AD000404443F24200136913F0020F0ED113F495
:101AE000005F0FD013F4805F0ED0002BF3DA13F4F5
:101AF000803F0BD15B060BD5F0BC70479461516100
:101B00009061E8E75561E6E75661E4E79161E2E755
:101B10005761E0E700800D403F4A03203F49F3EE64
:101B2000095AD2F880304FF0000C9FED3D6A23F047
:101B300001039FED3C5A30B4C2F88030C2F89000E7
:101B4000D1F8E010384DCBB2384C39482B6007EE55
:101B5000903A0B0DC1F30B21F8EEE77A06EE903ABE
:101B600007EE101A334BB8EEC77A2160F8EEE66A3A
:101B7000314937EEC66A37EEC55A76EEC76A77EE58
:101B8000E57A26EE266AC3ED006A25EE265AD2F8DB
:101B9000803067EEA64AC0ED007AC6EE275A274885
:101BA00085EE276AC4EEA76A75EE875AFCEEE55A01
:101BB00036EE076A15EE904ABCEEC66A43EA045355
:101BC00076EE877AC2F8803016EE103AD2F890415D
:101BD000FCEEE77A01EA0341214317EE903AC2F89E
:101BE0009011C3F30B03D2F890110B431449C2F8C0
:101BF0009031D2F8803043F00203C2F88030114BAC
:101C000080F840C0C1F840314FF0E023012230BCE1
:101C1000C3F80821704700BF00810D4000441F40F9
:101C20000000AA420000B442607900205C790020E4
:101C300064790020687900200000FF0F00E400E0D4
:101C4000004C0020BD840100314B40F6617210B59C
:101C5000C3F8202140F2044400F0B2F82D4A2E4986
:101C6000D2F880302D4843F00303C2F880302C4B6B
:101C7000C1F8604102681A4203D1D1F8A8319A072D
:101C80001BD0254A4FF00041244B5963D2F8403114
:101C900043F00203C2F84031D2F840319B07FBD435
:101CA0004FF400304FF0E0211C4B4FF00042C1F8E0
:101CB0008C0219209A6300F073F8184A4FF08040A4
:101CC000154C002190630A20164B11604FF480627E
:101CD000C4F8A801184600F067F84FF480020346E4
:101CE0004FF4810040F243111860C4F858311A646F
:101CF0000D4B0E4AC4F84811C3F804224FF0E022FD
:101D00004FF400310123C2F80C11C4F8403110BD6A
:101D100000800D4000C00F4000002E4000900D409C
:101D2000001C1E0000000020004C00206D870100F8
:101D300008B50E4B1B6E9B0700D4FBBE72B60C4B56
:101D400000200C4AC3F8400103F160430A49A3F59F
:101D50005F2311649D46BFF34F8F4FF40013074874
:101D6000074ADB6902609B68984700BF00441F4038
:101D700000002E4000C00A40030020000080202008
:101D8000000012EBF8B500BFF8BC08BC9E467047D7
:101D90005FF800F0F9D201005FF800F0298101003E
:101DA0005FF800F0257A01005FF800F081D00100B3
:101DB0005FF800F031A001005FF800F095A101008C
:101DC0005FF800F0D18E01005FF800F009770100A4
:101DD00005010000856C000009DA0000E1F5000053
:041DE000553E01006B
:101DE4000901809611800A3A81550A3601082A04AD
:101DF400000000F02B040000014021800A13800A37
:101E040029800A003E0353006500720069006100E6
:101E14006C002F004B006500790062006F006100C8
:101E2400720064002F004D006F00750073006500A0
:101E34002F004A006F00790073007400690063008A
:101E44006B00000018035400650065006E00730009
:101E540079006400750069006E006F0004030904D2
:101E64000902AF00060100C032080B0002020201A1
:101E7400000904000001020201000524001001050C
:101E84002401010104240206052406000107058239
:101E94000310001009040100020A000000070503F2
:101EA400024000000705830240000009040200010B
:101EB40003010100092111010001223F00070584EB
:101EC40003080001090403000103000000092111B3
:101ED40001000122540007058603080002090404D6
:101EE400000103000000092111010001225500072F
:101EF4000587030C00010904050001030000000923
:101F040021110100012228000705850308000400AF
:101F14000902AF00060100C032080B0002020201F0
:101F2400000904000001020201000524001001055B
:101F34002401010104240206052406000107058288
:101F44000310000509040100020A0000000705034C
:101F540002000200070583020002000904020001D6
:101F640003010100092111010001223F000705843A
:101F74000308000109040300010300000009211102
:101F84000100012254000705860308000209040425
:101F9400000103000000092111010001225500077E
:101FA4000587030C00010904050001030000000972
:101FB40021110100012228000705850308000400FF
:0C1FC4000A060002EF02014001000000CC
:101FD0000000000000000000000000000000000001
:101FE00000000000000000000000000000000000F1
:101FF000F8B54FF084439D695A6915400DD0254FBF
:1020000001269D6195FAA5F4B4FA84F457F82430BA
:1020100006FA04F49847A543F4D11F4B9D695A6909
:1020200015400DD01D4F01269D6195FAA5F4B4FA17
:1020300084F457F8243006FA04F49847A543F4D101
:10204000174B9D695A6915400DD0164F01269D61A9
:1020500095FAA5F4B4FA84F457F8243006FA04F497
:102060009847A543F4D1104B9D695A6915400DD08E
:102070000E4F01269D6195FAA5F4B4FA84F457F841
:10208000243006FA04F49847A543F4D1BFF34F8FE8
:10209000F8BD00BF7447002000400042F447002014
:1020A000008000427448002000C00042F448002034
:1020B0000548064B1B1AD90F01EBA301491002D0AA
:1020C000034B03B118477047C04E0020C04E00209C
:1020D0000000000008B5054B1BB105490548AFF3EA
:1020E0000080BDE80840FFF7E3BF00BF000000002C
:1020F0000C79002000B40260704700BF2DE9F8435E
:1021000029492A4E91F8F68796F90030327838EA54
:10211000030591F9F6771AD00024DFF89C9002E0CD
:102120000134082C0AD025FA04F3DA07F8D539F877
:102130001400013419F09EF9082CF4D11C4B3278AC
:102140001B682A431B49323332700B6053B218EAC2
:10215000020F04D0164A1749126832320A6023EA85
:10216000070515F0FF071CD0114B124A1B681268B7
:102170009B1A002B15DB0024DFF83C8002E00134C1
:10218000082C0AD027FA04F3DB07F8D538F8140036
:10219000013419F0C7F8082CF4D1337823EA050389
:1021A0003370BDE8F88300BF205600203F7B00203D
:1021B000F47900203070002084250020562810B5C6
:1021C000044602D1064B0022DA73FFF797FF054B56
:1021D0001B681BB12046BDE81040184710BD00BF6A
:1021E000205600209C710020562810B5044602D1CC
:1021F000064B0122DA73FFF781FF054B1B681BB109
:102200002046BDE81040184710BD00BF20560020F2
:1022100088710020031F192B12D9A0F11E03082B6F
:102220000BD9272817D0A0F13A030B2B0FD9283848
:10223000C0B2BF2807D9002070471330C0B2704722
:102240005D30C0B27047054B33F810007047A0F501
:10225000805080B270473020704700BFAC0A002029
:10226000284A002138B5284C137821540BB18342F9
:1022700045D0264B1B688BB39A797AB3DC7A6CB362
:10228000234D002295F800E011460BE0BCF1030F4E
:1022900004D193F80FC0BCF1010F27D0A14203F184
:1022A00017031BD201328E45D1B2F7D193F80CC07F
:1022B000BCF1010FEAD193F80FC0BCF1010FEDD1D1
:1022C00093F80DC08445E9D118F0E6FF00231148CA
:1022D000FF22114903700B702A7038BDFFF79AFF77
:1022E0000028FAD0BDE8384019F01CB893F80DC0AA
:1022F0008445E9D093F80EC08445CFD1E4E711704E
:1023000038BD00BF3E7B0020F4710020F472002035
:102310009E4A0020437B0020407B002038B5254D9D
:10232000044640F2E93128462DED028BF0EE408A5A
:1023300016F0CEFF034640F2E931284608EE103A87
:1023400016F0C6FF07EE900A40F2E931B8EEC88AEF
:102350002846F8EEE77A38EE278A16F0B9FF07EE3E
:10236000904A07EE100A9FED146A47F6FF73F8EEE5
:10237000677ADFED125AB8EEC77ADFED116A27EE01
:10238000A80A37EE087AC0EE067A87EE256ABDEC19
:10239000028B67EE867A67EEA67AFDEEE77A17EE95
:1023A000900A20449842A8BF18460128B8BF0120CF
:1023B00080B238BD18FCFFFF0000C84200803B45DA
:1023C0002DB25D4000EB40022DE9F843C0EBC202A4
:1023D000DFF8949001EB81030D46D9F800701344A7
:1023E0003B449B7C83B304464FEA400818468E006A
:1023F000FFF710FF18BB3B46D3F80730A044DFEDD2
:10240000157A2E4400EE103AC4EBC804124BB4EE19
:10241000E70A26441C683744F1EE10FAB7F81300B7
:102420000BD440B90D4A0E490E4B157001220C60B9
:102430001A70BDE8F883FFF771FF0444F2E719F062
:1024400019F8D9F80030D7E7044B1970BDE8F84304
:1024500000F00CB80AD7233CF4790020417B00201F
:102460006C700020437B0020F472002070B5194C82
:10247000194B21781B680131C9B2022917D800EB2A
:10248000400C0522C0EBCC0C12FB01C2134403E04C
:102490005FFA8CF103290AD09A7C01F1010C053313
:1024A000002AF5D02170BDE87040FFF78BBF0B4EBE
:1024B00035782DB100212170BDE87040FFF782BF53
:1024C00018F0EAFE0649074BFF220D7035701A70AE
:1024D00070BD00BF417B0020F4720020407B0020D3
:1024E000437B00209E4A002038B5044649B1084687
:1024F0000D461DF04DF92368024629465B682046CB
:1025000098472046BDE8384016F0F6BD214B1A68C2
:10251000D2E90010D3680968006810B418429468C2
:1025200001EA04012ED0137C03F00303D9B943F070
:1025300008039908013B11740D2B0BD8DFE803F059
:102540000D071C070A160D0D160A071C070D536907
:10255000013B53615DF8044B704753695DF8044BD0
:1025600001335361704743F00403E0E753695DF8BA
:10257000044B023B5361704753695DF8044B0233CF
:1025800053617047137C03F003030029D1D043F05B
:102590000403CEE730730020214B5A68D2E90010C3
:1025A000D3680968006810B41842946801EA04010D
:1025B0002ED0137C03F00303D9B943F00803990824
:1025C000013B11740D2B0BD8DFE803F00D071C073E
:1025D0000A160D0D160A071C070D5369013B5361BE
:1025E0005DF8044B704753695DF8044B0133536148
:1025F000704743F00403E0E753695DF8044B023B86
:102600005361704753695DF8044B0233536170475F
:10261000137C03F003030029D1D043F00403CEE779
:1026200030730020214B9A68D2E90010D368096802
:10263000006810B41842946801EA04012ED0137C9B
:1026400003F00303D9B943F008039908013B11745F
:102650000D2B0BD8DFE803F00D071C070A160D0D34
:10266000160A071C070D5369013B53615DF8044BC3
:10267000704753695DF8044B01335361704743F071
:102680000403E0E753695DF8044B023B5361704774
:1026900053695DF8044B023353617047137C03F0B8
:1026A00003030029D1D043F00403CEE730730020A8
:1026B000214BDA68D2E90010D3680968006810B4C9
:1026C0001842946801EA04012ED0137C03F003033E
:1026D000D9B943F008039908013B11740D2B0BD8AD
:1026E000DFE803F00D071C070A160D0D160A071C7C
:1026F000070D5369013B53615DF8044B7047536903
:102700005DF8044B01335361704743F00403E0E785
:1027100053695DF8044B023B5361704753695DF8A0
:10272000044B023353617047137C03F00303002909
:10273000D1D043F00403CEE730730020214B1A6957
:10274000D2E90010D3680968006810B41842946890
:1027500001EA04012ED0137C03F00303D9B943F03E
:1027600008039908013B11740D2B0BD8DFE803F027
:102770000D071C070A160D0D160A071C070D5369D5
:10278000013B53615DF8044B704753695DF8044B9E
:1027900001335361704743F00403E0E753695DF888
:1027A000044B023B5361704753695DF8044B02339D
:1027B00053617047137C03F003030029D1D043F029
:1027C0000403CEE730730020214B5A69D2E9001090
:1027D000D3680968006810B41842946801EA0401DB
:1027E0002ED0137C03F00303D9B943F008039908F2
:1027F000013B11740D2B0BD8DFE803F00D071C070C
:102800000A160D0D160A071C070D5369013B53618B
:102810005DF8044B704753695DF8044B0133536115
:10282000704743F00403E0E753695DF8044B023B53
:102830005361704753695DF8044B0233536170472D
:10284000137C03F003030029D1D043F00403CEE747
:1028500030730020214B9A69D2E90010D3680968CF
:10286000006810B41842946801EA04012ED0137C69
:1028700003F00303D9B943F008039908013B11742D
:102880000D2B0BD8DFE803F00D071C070A160D0D02
:10289000160A071C070D5369013B53615DF8044B91
:1028A000704753695DF8044B01335361704743F03F
:1028B0000403E0E753695DF8044B023B5361704742
:1028C00053695DF8044B023353617047137C03F086
:1028D00003030029D1D043F00403CEE73073002076
:1028E000214BDA69D2E90010D3680968006810B496
:1028F0001842946801EA04012ED0137C03F003030C
:10290000D9B943F008039908013B11740D2B0BD87A
:10291000DFE803F00D071C070A160D0D160A071C49
:10292000070D5369013B53615DF8044B70475369D0
:102930005DF8044B01335361704743F00403E0E753
:1029400053695DF8044B023B5361704753695DF86E
:10295000044B023353617047137C03F003030029D7
:10296000D1D043F00403CEE730730020214B1A6A24
:10297000D2E90010D3680968006810B4184294685E
:1029800001EA04012ED0137C03F00303D9B943F00C
:1029900008039908013B11740D2B0BD8DFE803F0F5
:1029A0000D071C070A160D0D160A071C070D5369A3
:1029B000013B53615DF8044B704753695DF8044B6C
:1029C00001335361704743F00403E0E753695DF856
:1029D000044B023B5361704753695DF8044B02336B
:1029E00053617047137C03F003030029D1D043F0F7
:1029F0000403CEE730730020214B5A6AD2E900105D
:102A0000D3680968006810B41842946801EA0401A8
:102A10002ED0137C03F00303D9B943F008039908BF
:102A2000013B11740D2B0BD8DFE803F00D071C07D9
:102A30000A160D0D160A071C070D5369013B536159
:102A40005DF8044B704753695DF8044B01335361E3
:102A5000704743F00403E0E753695DF8044B023B21
:102A60005361704753695DF8044B023353617047FB
:102A7000137C03F003030029D1D043F00403CEE715
:102A800030730020214B9A6AD2E90010D36809689C
:102A9000006810B41842946801EA04012ED0137C37
:102AA00003F00303D9B943F008039908013B1174FB
:102AB0000D2B0BD8DFE803F00D071C070A160D0DD0
:102AC000160A071C070D5369013B53615DF8044B5F
:102AD000704753695DF8044B01335361704743F00D
:102AE0000403E0E753695DF8044B023B5361704710
:102AF00053695DF8044B023353617047137C03F054
:102B000003030029D1D043F00403CEE73073002043
:102B1000214BDA6AD2E90010D3680968006810B462
:102B20001842946801EA04012ED0137C03F00303D9
:102B3000D9B943F008039908013B11740D2B0BD848
:102B4000DFE803F00D071C070A160D0D160A071C17
:102B5000070D5369013B53615DF8044B704753699E
:102B60005DF8044B01335361704743F00403E0E721
:102B700053695DF8044B023B5361704753695DF83C
:102B8000044B023353617047137C03F003030029A5
:102B9000D1D043F00403CEE730730020214B1A6BF1
:102BA000D2E90010D3680968006810B4184294682C
:102BB00001EA04012ED0137C03F00303D9B943F0DA
:102BC00008039908013B11740D2B0BD8DFE803F0C3
:102BD0000D071C070A160D0D160A071C070D536971
:102BE000013B53615DF8044B704753695DF8044B3A
:102BF00001335361704743F00403E0E753695DF824
:102C0000044B023B5361704753695DF8044B023338
:102C100053617047137C03F003030029D1D043F0C4
:102C20000403CEE730730020214B5A6BD2E9001029
:102C3000D3680968006810B41842946801EA040176
:102C40002ED0137C03F00303D9B943F0080399088D
:102C5000013B11740D2B0BD8DFE803F00D071C07A7
:102C60000A160D0D160A071C070D5369013B536127
:102C70005DF8044B704753695DF8044B01335361B1
:102C8000704743F00403E0E753695DF8044B023BEF
:102C90005361704753695DF8044B023353617047C9
:102CA000137C03F003030029D1D043F00403CEE7E3
:102CB00030730020214B9A6BD2E90010D368096869
:102CC000006810B41842946801EA04012ED0137C05
:102CD00003F00303D9B943F008039908013B1174C9
:102CE0000D2B0BD8DFE803F00D071C070A160D0D9E
:102CF000160A071C070D5369013B53615DF8044B2D
:102D0000704753695DF8044B01335361704743F0DA
:102D10000403E0E753695DF8044B023B53617047DD
:102D200053695DF8044B023353617047137C03F021
:102D300003030029D1D043F00403CEE73073002011
:102D4000214BDA6BD2E90010D3680968006810B42F
:102D50001842946801EA04012ED0137C03F00303A7
:102D6000D9B943F008039908013B11740D2B0BD816
:102D7000DFE803F00D071C070A160D0D160A071CE5
:102D8000070D5369013B53615DF8044B704753696C
:102D90005DF8044B01335361704743F00403E0E7EF
:102DA00053695DF8044B023B5361704753695DF80A
:102DB000044B023353617047137C03F00303002973
:102DC000D1D043F00403CEE730730020214B1A6CBE
:102DD000D2E90010D3680968006810B418429468FA
:102DE00001EA04012ED0137C03F00303D9B943F0A8
:102DF00008039908013B11740D2B0BD8DFE803F091
:102E00000D071C070A160D0D160A071C070D53693E
:102E1000013B53615DF8044B704753695DF8044B07
:102E200001335361704743F00403E0E753695DF8F1
:102E3000044B023B5361704753695DF8044B023306
:102E400053617047137C03F003030029D1D043F092
:102E50000403CEE730730020214B5A6CD2E90010F6
:102E6000D3680968006810B41842946801EA040144
:102E70002ED0137C03F00303D9B943F0080399085B
:102E8000013B11740D2B0BD8DFE803F00D071C0775
:102E90000A160D0D160A071C070D5369013B5361F5
:102EA0005DF8044B704753695DF8044B013353617F
:102EB000704743F00403E0E753695DF8044B023BBD
:102EC0005361704753695DF8044B02335361704797
:102ED000137C03F003030029D1D043F00403CEE7B1
:102EE00030730020214B9A6CD2E90010D368096836
:102EF000006810B41842946801EA04012ED0137CD3
:102F000003F00303D9B943F008039908013B117496
:102F10000D2B0BD8DFE803F00D071C070A160D0D6B
:102F2000160A071C070D5369013B53615DF8044BFA
:102F3000704753695DF8044B01335361704743F0A8
:102F40000403E0E753695DF8044B023B53617047AB
:102F500053695DF8044B023353617047137C03F0EF
:102F600003030029D1D043F00403CEE730730020DF
:102F7000214BDA6CD2E90010D3680968006810B4FC
:102F80001842946801EA04012ED0137C03F0030375
:102F9000D9B943F008039908013B11740D2B0BD8E4
:102FA000DFE803F00D071C070A160D0D160A071CB3
:102FB000070D5369013B53615DF8044B704753693A
:102FC0005DF8044B01335361704743F00403E0E7BD
:102FD00053695DF8044B023B5361704753695DF8D8
:102FE000044B023353617047137C03F00303002941
:102FF000D1D043F00403CEE730730020214B1A6D8B
:10300000D2E90010D3680968006810B418429468C7
:1030100001EA04012ED0137C03F00303D9B943F075
:1030200008039908013B11740D2B0BD8DFE803F05E
:103030000D071C070A160D0D160A071C070D53690C
:10304000013B53615DF8044B704753695DF8044BD5
:1030500001335361704743F00403E0E753695DF8BF
:10306000044B023B5361704753695DF8044B0233D4
:1030700053617047137C03F003030029D1D043F060
:103080000403CEE730730020214B5A6DD2E90010C3
:10309000D3680968006810B41842946801EA040112
:1030A0002ED0137C03F00303D9B943F00803990829
:1030B000013B11740D2B0BD8DFE803F00D071C0743
:1030C0000A160D0D160A071C070D5369013B5361C3
:1030D0005DF8044B704753695DF8044B013353614D
:1030E000704743F00403E0E753695DF8044B023B8B
:1030F0005361704753695DF8044B02335361704765
:10310000137C03F003030029D1D043F00403CEE77E
:1031100030730020214B9A6DD2E90010D368096802
:10312000006810B41842946801EA04012ED0137CA0
:1031300003F00303D9B943F008039908013B117464
:103140000D2B0BD8DFE803F00D071C070A160D0D39
:10315000160A071C070D5369013B53615DF8044BC8
:10316000704753695DF8044B01335361704743F076
:103170000403E0E753695DF8044B023B5361704779
:1031800053695DF8044B023353617047137C03F0BD
:1031900003030029D1D043F00403CEE730730020AD
:1031A000214BDA6DD2E90010D3680968006810B4C9
:1031B0001842946801EA04012ED0137C03F0030343
:1031C000D9B943F008039908013B11740D2B0BD8B2
:1031D000DFE803F00D071C070A160D0D160A071C81
:1031E000070D5369013B53615DF8044B7047536908
:1031F0005DF8044B01335361704743F00403E0E78B
:1032000053695DF8044B023B5361704753695DF8A5
:10321000044B023353617047137C03F0030300290E
:10322000D1D043F00403CEE730730020214B1A6E57
:10323000D2E90010D3680968006810B41842946895
:1032400001EA04012ED0137C03F00303D9B943F043
:1032500008039908013B11740D2B0BD8DFE803F02C
:103260000D071C070A160D0D160A071C070D5369DA
:10327000013B53615DF8044B704753695DF8044BA3
:1032800001335361704743F00403E0E753695DF88D
:10329000044B023B5361704753695DF8044B0233A2
:1032A00053617047137C03F003030029D1D043F02E
:1032B0000403CEE730730020214B5A6ED2E9001090
:1032C000D3680968006810B41842946801EA0401E0
:1032D0002ED0137C03F00303D9B943F008039908F7
:1032E000013B11740D2B0BD8DFE803F00D071C0711
:1032F0000A160D0D160A071C070D5369013B536191
:103300005DF8044B704753695DF8044B013353611A
:10331000704743F00403E0E753695DF8044B023B58
:103320005361704753695DF8044B02335361704732
:10333000137C03F003030029D1D043F00403CEE74C
:1033400030730020214B9A6ED2E90010D3680968CF
:10335000006810B41842946801EA04012ED0137C6E
:1033600003F00303D9B943F008039908013B117432
:103370000D2B0BD8DFE803F00D071C070A160D0D07
:10338000160A071C070D5369013B53615DF8044B96
:10339000704753695DF8044B01335361704743F044
:1033A0000403E0E753695DF8044B023B5361704747
:1033B00053695DF8044B023353617047137C03F08B
:1033C00003030029D1D043F00403CEE7307300207B
:1033D000214BDA6ED2E90010D3680968006810B496
:1033E0001842946801EA04012ED0137C03F0030311
:1033F000D9B943F008039908013B11740D2B0BD880
:10340000DFE803F00D071C070A160D0D160A071C4E
:10341000070D5369013B53615DF8044B70475369D5
:103420005DF8044B01335361704743F00403E0E758
:1034300053695DF8044B023B5361704753695DF873
:10344000044B023353617047137C03F003030029DC
:10345000D1D043F00403CEE730730020214B1A6F24
:10346000D2E90010D3680968006810B41842946863
:1034700001EA04012ED0137C03F00303D9B943F011
:1034800008039908013B11740D2B0BD8DFE803F0FA
:103490000D071C070A160D0D160A071C070D5369A8
:1034A000013B53615DF8044B704753695DF8044B71
:1034B00001335361704743F00403E0E753695DF85B
:1034C000044B023B5361704753695DF8044B023370
:1034D00053617047137C03F003030029D1D043F0FC
:1034E0000403CEE730730020214B5A6FD2E900105D
:1034F000D3680968006810B41842946801EA0401AE
:103500002ED0137C03F00303D9B943F008039908C4
:10351000013B11740D2B0BD8DFE803F00D071C07DE
:103520000A160D0D160A071C070D5369013B53615E
:103530005DF8044B704753695DF8044B01335361E8
:10354000704743F00403E0E753695DF8044B023B26
:103550005361704753695DF8044B02335361704700
:10356000137C03F003030029D1D043F00403CEE71A
:1035700030730020214B9A6FD2E90010D36809689C
:10358000006810B41842946801EA04012ED0137C3C
:1035900003F00303D9B943F008039908013B117400
:1035A0000D2B0BD8DFE803F00D071C070A160D0DD5
:1035B000160A071C070D5369013B53615DF8044B64
:1035C000704753695DF8044B01335361704743F012
:1035D0000403E0E753695DF8044B023B5361704715
:1035E00053695DF8044B023353617047137C03F059
:1035F00003030029D1D043F00403CEE73073002049
:10360000214BDA6FD2E90010D3680968006810B462
:103610001842946801EA04012ED0137C03F00303DE
:10362000D9B943F008039908013B11740D2B0BD84D
:10363000DFE803F00D071C070A160D0D160A071C1C
:10364000070D5369013B53615DF8044B70475369A3
:103650005DF8044B01335361704743F00403E0E726
:1036600053695DF8044B023B5361704753695DF841
:10367000044B023353617047137C03F003030029AA
:10368000D1D043F00403CEE730730020224BD3F8AF
:103690008020D2E90010D3680968006810B418428D
:1036A000946801EA04012ED0137C03F00303D9B916
:1036B00043F008039908013B11740D2B0BD8DFE888
:1036C00003F00D071C070A160D0D160A071C070D3F
:1036D0005369013B53615DF8044B704753695DF8D2
:1036E000044B01335361704743F00403E0E753692F
:1036F0005DF8044B023B5361704753695DF8044B1E
:10370000023353617047137C03F003030029D1D0C7
:1037100043F00403CEE700BF30730020224BD3F800
:103720008420D2E90010D3680968006810B41842F8
:10373000946801EA04012ED0137C03F00303D9B985
:1037400043F008039908013B11740D2B0BD8DFE8F7
:1037500003F00D071C070A160D0D160A071C070DAE
:103760005369013B53615DF8044B704753695DF841
:10377000044B01335361704743F00403E0E753699E
:103780005DF8044B023B5361704753695DF8044B8D
:10379000023353617047137C03F003030029D1D037
:1037A00043F00403CEE700BF30730020224BD3F870
:1037B0008820D2E90010D3680968006810B4184264
:1037C000946801EA04012ED0137C03F00303D9B9F5
:1037D00043F008039908013B11740D2B0BD8DFE867
:1037E00003F00D071C070A160D0D160A071C070D1E
:1037F0005369013B53615DF8044B704753695DF8B1
:10380000044B01335361704743F00403E0E753690D
:103810005DF8044B023B5361704753695DF8044BFC
:10382000023353617047137C03F003030029D1D0A6
:1038300043F00403CEE700BF30730020224BD3F8DF
:103840008C20D2E90010D3680968006810B41842CF
:10385000946801EA04012ED0137C03F00303D9B964
:1038600043F008039908013B11740D2B0BD8DFE8D6
:1038700003F00D071C070A160D0D160A071C070D8D
:103880005369013B53615DF8044B704753695DF820
:10389000044B01335361704743F00403E0E753697D
:1038A0005DF8044B023B5361704753695DF8044B6C
:1038B000023353617047137C03F003030029D1D016
:1038C00043F00403CEE700BF30730020224BD3F84F
:1038D0009020D2E90010D3680968006810B418423B
:1038E000946801EA04012ED0137C03F00303D9B9D4
:1038F00043F008039908013B11740D2B0BD8DFE846
:1039000003F00D071C070A160D0D160A071C070DFC
:103910005369013B53615DF8044B704753695DF88F
:10392000044B01335361704743F00403E0E75369EC
:103930005DF8044B023B5361704753695DF8044BDB
:10394000023353617047137C03F003030029D1D085
:1039500043F00403CEE700BF30730020224BD3F8BE
:103960009420D2E90010D3680968006810B41842A6
:10397000946801EA04012ED0137C03F00303D9B943
:1039800043F008039908013B11740D2B0BD8DFE8B5
:1039900003F00D071C070A160D0D160A071C070D6C
:1039A0005369013B53615DF8044B704753695DF8FF
:1039B000044B01335361704743F00403E0E753695C
:1039C0005DF8044B023B5361704753695DF8044B4B
:1039D000023353617047137C03F003030029D1D0F5
:1039E00043F00403CEE700BF30730020224BD3F82E
:1039F0009820D2E90010D3680968006810B4184212
:103A0000946801EA04012ED0137C03F00303D9B9B2
:103A100043F008039908013B11740D2B0BD8DFE824
:103A200003F00D071C070A160D0D160A071C070DDB
:103A30005369013B53615DF8044B704753695DF86E
:103A4000044B01335361704743F00403E0E75369CB
:103A50005DF8044B023B5361704753695DF8044BBA
:103A6000023353617047137C03F003030029D1D064
:103A700043F00403CEE700BF30730020224BD3F89D
:103A80009C20D2E90010D3680968006810B418427D
:103A9000946801EA04012ED0137C03F00303D9B922
:103AA00043F008039908013B11740D2B0BD8DFE894
:103AB00003F00D071C070A160D0D160A071C070D4B
:103AC0005369013B53615DF8044B704753695DF8DE
:103AD000044B01335361704743F00403E0E753693B
:103AE0005DF8044B023B5361704753695DF8044B2A
:103AF000023353617047137C03F003030029D1D0D4
:103B000043F00403CEE700BF30730020224BD3F80C
:103B1000A020D2E90010D3680968006810B41842E8
:103B2000946801EA04012ED0137C03F00303D9B991
:103B300043F008039908013B11740D2B0BD8DFE803
:103B400003F00D071C070A160D0D160A071C070DBA
:103B50005369013B53615DF8044B704753695DF84D
:103B6000044B01335361704743F00403E0E75369AA
:103B70005DF8044B023B5361704753695DF8044B99
:103B8000023353617047137C03F003030029D1D043
:103B900043F00403CEE700BF30730020224BD3F87C
:103BA000A420D2E90010D3680968006810B4184254
:103BB000946801EA04012ED0137C03F00303D9B901
:103BC00043F008039908013B11740D2B0BD8DFE873
:103BD00003F00D071C070A160D0D160A071C070D2A
:103BE0005369013B53615DF8044B704753695DF8BD
:103BF000044B01335361704743F00403E0E753691A
:103C00005DF8044B023B5361704753695DF8044B08
:103C1000023353617047137C03F003030029D1D0B2
:103C200043F00403CEE700BF30730020224BD3F8EB
:103C3000A820D2E90010D3680968006810B41842BF
:103C4000946801EA04012ED0137C03F00303D9B970
:103C500043F008039908013B11740D2B0BD8DFE8E2
:103C600003F00D071C070A160D0D160A071C070D99
:103C70005369013B53615DF8044B704753695DF82C
:103C8000044B01335361704743F00403E0E7536989
:103C90005DF8044B023B5361704753695DF8044B78
:103CA000023353617047137C03F003030029D1D022
:103CB00043F00403CEE700BF30730020224BD3F85B
:103CC000AC20D2E90010D3680968006810B418422B
:103CD000946801EA04012ED0137C03F00303D9B9E0
:103CE00043F008039908013B11740D2B0BD8DFE852
:103CF00003F00D071C070A160D0D160A071C070D09
:103D00005369013B53615DF8044B704753695DF89B
:103D1000044B01335361704743F00403E0E75369F8
:103D20005DF8044B023B5361704753695DF8044BE7
:103D3000023353617047137C03F003030029D1D091
:103D400043F00403CEE700BF30730020224BD3F8CA
:103D5000B020D2E90010D3680968006810B4184296
:103D6000946801EA04012ED0137C03F00303D9B94F
:103D700043F008039908013B11740D2B0BD8DFE8C1
:103D800003F00D071C070A160D0D160A071C070D78
:103D90005369013B53615DF8044B704753695DF80B
:103DA000044B01335361704743F00403E0E7536968
:103DB0005DF8044B023B5361704753695DF8044B57
:103DC000023353617047137C03F003030029D1D001
:103DD00043F00403CEE700BF30730020224BD3F83A
:103DE000B420D2E90010D3680968006810B4184202
:103DF000946801EA04012ED0137C03F00303D9B9BF
:103E000043F008039908013B11740D2B0BD8DFE830
:103E100003F00D071C070A160D0D160A071C070DE7
:103E20005369013B53615DF8044B704753695DF87A
:103E3000044B01335361704743F00403E0E75369D7
:103E40005DF8044B023B5361704753695DF8044BC6
:103E5000023353617047137C03F003030029D1D070
:103E600043F00403CEE700BF30730020224BD3F8A9
:103E7000B820D2E90010D3680968006810B418426D
:103E8000946801EA04012ED0137C03F00303D9B92E
:103E900043F008039908013B11740D2B0BD8DFE8A0
:103EA00003F00D071C070A160D0D160A071C070D57
:103EB0005369013B53615DF8044B704753695DF8EA
:103EC000044B01335361704743F00403E0E7536947
:103ED0005DF8044B023B5361704753695DF8044B36
:103EE000023353617047137C03F003030029D1D0E0
:103EF00043F00403CEE700BF30730020224BD3F819
:103F0000BC20D2E90010D3680968006810B41842D8
:103F1000946801EA04012ED0137C03F00303D9B99D
:103F200043F008039908013B11740D2B0BD8DFE80F
:103F300003F00D071C070A160D0D160A071C070DC6
:103F40005369013B53615DF8044B704753695DF859
:103F5000044B01335361704743F00403E0E75369B6
:103F60005DF8044B023B5361704753695DF8044BA5
:103F7000023353617047137C03F003030029D1D04F
:103F800043F00403CEE700BF30730020224BD3F888
:103F9000C020D2E90010D3680968006810B4184244
:103FA000946801EA04012ED0137C03F00303D9B90D
:103FB00043F008039908013B11740D2B0BD8DFE87F
:103FC00003F00D071C070A160D0D160A071C070D36
:103FD0005369013B53615DF8044B704753695DF8C9
:103FE000044B01335361704743F00403E0E7536926
:103FF0005DF8044B023B5361704753695DF8044B15
:10400000023353617047137C03F003030029D1D0BE
:1040100043F00403CEE700BF30730020224BD3F8F7
:10402000C420D2E90010D3680968006810B41842AF
:10403000946801EA04012ED0137C03F00303D9B97C
:1040400043F008039908013B11740D2B0BD8DFE8EE
:1040500003F00D071C070A160D0D160A071C070DA5
:104060005369013B53615DF8044B704753695DF838
:10407000044B01335361704743F00403E0E7536995
:104080005DF8044B023B5361704753695DF8044B84
:10409000023353617047137C03F003030029D1D02E
:1040A00043F00403CEE700BF30730020224BD3F867
:1040B000C820D2E90010D3680968006810B418421B
:1040C000946801EA04012ED0137C03F00303D9B9EC
:1040D00043F008039908013B11740D2B0BD8DFE85E
:1040E00003F00D071C070A160D0D160A071C070D15
:1040F0005369013B53615DF8044B704753695DF8A8
:10410000044B01335361704743F00403E0E7536904
:104110005DF8044B023B5361704753695DF8044BF3
:10412000023353617047137C03F003030029D1D09D
:1041300043F00403CEE700BF30730020224BD3F8D6
:10414000CC20D2E90010D3680968006810B4184286
:10415000946801EA04012ED0137C03F00303D9B95B
:1041600043F008039908013B11740D2B0BD8DFE8CD
:1041700003F00D071C070A160D0D160A071C070D84
:104180005369013B53615DF8044B704753695DF817
:10419000044B01335361704743F00403E0E7536974
:1041A0005DF8044B023B5361704753695DF8044B63
:1041B000023353617047137C03F003030029D1D00D
:1041C00043F00403CEE700BF30730020224BD3F846
:1041D000D020D2E90010D3680968006810B41842F2
:1041E000946801EA04012ED0137C03F00303D9B9CB
:1041F00043F008039908013B11740D2B0BD8DFE83D
:1042000003F00D071C070A160D0D160A071C070DF3
:104210005369013B53615DF8044B704753695DF886
:10422000044B01335361704743F00403E0E75369E3
:104230005DF8044B023B5361704753695DF8044BD2
:10424000023353617047137C03F003030029D1D07C
:1042500043F00403CEE700BF30730020224BD3F8B5
:10426000D420D2E90010D3680968006810B418425D
:10427000946801EA04012ED0137C03F00303D9B93A
:1042800043F008039908013B11740D2B0BD8DFE8AC
:1042900003F00D071C070A160D0D160A071C070D63
:1042A0005369013B53615DF8044B704753695DF8F6
:1042B000044B01335361704743F00403E0E7536953
:1042C0005DF8044B023B5361704753695DF8044B42
:1042D000023353617047137C03F003030029D1D0EC
:1042E00043F00403CEE700BF30730020224BD3F825
:1042F000D820D2E90010D3680968006810B41842C9
:10430000946801EA04012ED0137C03F00303D9B9A9
:1043100043F008039908013B11740D2B0BD8DFE81B
:1043200003F00D071C070A160D0D160A071C070DD2
:104330005369013B53615DF8044B704753695DF865
:10434000044B01335361704743F00403E0E75369C2
:104350005DF8044B023B5361704753695DF8044BB1
:10436000023353617047137C03F003030029D1D05B
:1043700043F00403CEE700BF30730020F8B50123FB
:10438000774E784F0546335417F090FD3B781BB1BC
:10439000754B1B78DA0743D4744C2278002A50D12D
:1043A000734B1F689FB3BB798BB3724BF87AD3F80A
:1043B00000E060B33B46144609E0022968D1597B0E
:1043C000A9421AD001321733D4B2A0421FD9197BA7
:1043D0000129F2D1597BA942F4D102EB4203C2EB8D
:1043E000C3033B44DD7B012D00F0A280022D00F0D1
:1043F0009780002D00F08C80F8BD5F4B53F825109E
:1044000043F825E0AEEB010EBEF1310F6BD8284624
:10441000FDF700FF0028EFD0BDE8F84017F02AB8FC
:10442000544B564A1B681268504C9B1A0E2BB4D939
:104430002A4623785249534814F07AFE2278002AFB
:10444000AED0514B00261D70267017F02FFD3B7823
:10445000002BD1D0444B1B78DB07CDD5454B474AC9
:104460001B6812689B1A0E2BC6D91121474817F0FA
:104470009FFC334629460A22424814F067FE012178
:10448000434817F095FC3F48BDE8F84014F034BEAF
:10449000032997D1597BA94203D093F80EC0AC45AC
:1044A00090D1735C002BB2D002EB4203C2EBC3038A
:1044B0003B44997B715C0029A9D0DD7B012D37D06D
:1044C000022D96D133498B5C83F001038B547BBB67
:1044D00016F0E2FE304C00233048314AFF212370B1
:1044E00003701170F8BD02EB4203C2EBC3033B44FF
:1044F0001B8A73458BD3284D2B7863BB274B002138
:10450000274A204619701470BDE8F840FDF75ABFDD
:10451000214E3378002BF1D016F0BEFE3570EDE75A
:104520001C498B5C83F001038B54002BD0D0E2E755
:10453000194D2B7853B91A480122184B00210470E9
:1045400020461A70BDE8F840FDF73CBF16F0A4FE07
:1045500000232B70EFE716F09FFE00232B70CDE7B2
:10456000F4710020627B0020617B0020367B0020FC
:10457000F4720020F47900200C6C00200C7B0020E9
:10458000781C0020304100203E7B0020941C00203D
:104590007820002034700020437B0020407B0020E6
:1045A0009E4A002070B5044600257949FF2604F58F
:1045B000EB634FF4407220302570C4F858374FF445
:1045C000687365702162A570A4F89823E570C4F83B
:1045D000A8032671A4F85C376671E5816562A5625F
:1045E000C4F87853C4F87C5384F89A5384F85E571F
:1045F000C4E9E055C4E9E255C4E9E4550EF000FC15
:10460000644B04F5EC6084F8855703F14C02C4F860
:104610006037C4F86457C4F86C27C4F86857C4F806
:10462000705784F87457C4F87857C4F87C57C4F8A6
:10463000805784F8845784F8865784F88757C4F8DD
:104640008857C4F88C57C4F89057C4F8945712F0A0
:1046500079FB514B04F5F36084F81A5803F15802C2
:10466000C4F89837A4F81C6804F50466C4F8A427B5
:10467000C4F89C57C4F8A057C4F8A85784F8AC579E
:10468000C4F8B057C4F8B457C4F8C057C4F8C457F6
:1046900084F8F65784F8F857C4F80458C4F8085852
:1046A000C4F80C58C4F81058C4F81458A4F8185892
:1046B00084F81B5884F82758C4F82858C4F82C5894
:1046C000C4F83058C4F8345811F0A2FD334B40F20E
:1046D0000111012003F16C02C4F84038A4F87818E5
:1046E0002946C4F84C2803F1980284F87A0804F6A5
:1046F0008800C4F858284FF48072C4F84458C4F8AD
:104700004858C4F85058C4F85458C4F85C5884F851
:104710006058C4F86458C4F8685884F86C58C4F8F1
:104720007058C4F87458C4F87C58A4F8805884F8B9
:104730008258C4F884581AF08BFC00220023C6E982
:104740005223C6E9542340F2FF320023C6E9562320
:10475000C4F8A059C4F8A459C4F8A859C4F8AC596D
:1047600015F09CF9034684F8B4593046C4F8B039C2
:1047700084F8D55CA4F8D65CA4F8D85C0FF0A4FB50
:10478000204684F8805DC4F80650C4F80A5070BD15
:10479000E42B0020202D0020A42E0020D02D00206E
:1047A00010B504460CF01CFF034A044BC4F8C027A4
:1047B000C4F8C43710BD00BF19020000ED010000AD
:1047C00070B504460E460DF0D7FEFDF797FCD4F801
:1047D000683794F88527003B02F0FF0518BF0123D6
:1047E00084F8803D0AB9284670BD94F887376FF089
:1047F0007E0204F5EC603370D4F888377F2BA8BFB5
:104800007F239342B8BF13467380D4F88C377F2B35
:10481000A8BF7F239342B8BF1346B380D4F8903724
:104820007F2BA8BF7F239342B8BF1346B37112F00A
:1048300093FA284670BD00BF144A10B5137882B0B1
:1048400008780C4683420DD0C0F300111070C0F3FD
:10485000C003C0F340020091C0F3800100F00100EA
:1048600016F028FFB4F90200B4F9041094F90620F8
:1048700000B939B1002349B240B202B0BDE81040DE
:1048800016F040BF002AF5D102B010BDA04A0020AA
:1048900090F8800D704700BFD0F85408003818BF5A
:1048A00001207047D0F8A007003818BF01207047DA
:1048B000012870B576D0831E0446012B33D9464DAE
:1048C00017F0F4FA2B781BB1444B1B78DA071BD492
:1048D000642015F08FF817F0E9FA2B789BB13F4B65
:1048E0001B78DB070FD53E4B3E4A1B6812689B1AAC
:1048F0000E2B08D90B213C4817F05AFA3B48BDE86B
:10490000704014F0F9BB70BD354B364A1B68126815
:104910009B1A0E2BDCD92521354817F049FA33486C
:1049200014F0EAFBD4E7334B40F6020232485D68EC
:10493000324905F00F05324E2843274D58609868DC
:1049400001400A439A600123337016F0FDFA17F014
:10495000ADFA2B78002BB3D0204B1B78D907AFD5FD
:104960001F4B204A1B6812689B1A0E2BA8D90E21D8
:10497000244817F01DFA244B032124488C4218BF09
:10498000184617F015FA2121214817F011FA174897
:1049900014F0B2FB36211F4817F00AFA134814F03E
:1049A000ABFB8DE70C4D17F081FA2B78002B87D0ED
:1049B0000A4B1B78D80783D5094B0A4A1B68126833
:1049C0009B1A0E2B7FF67CAF2321134817F0F0F9CA
:1049D000064814F091FB73E7627B0020617B0020A6
:1049E000F47900200C7B0020C41800203041002006
:1049F0009C180020107B00200020800000F0FFFFAA
:104A0000457B00208C1800206018002064180020CE
:104A1000D0180020F418002068180020DFED327A4A
:104A200040F2FF3120EE270A60EEA70ABDEEC00A71
:104A3000FDEEE00A10EE103A03F500732DE9F041A7
:104A40008B422A4E074610EE900AA8BF0B46B2686A
:104A500000F50074DFF89C8023EAE37322F0030280
:104A60008C4242EA1322F371A8BF0C4698F800105A
:104A7000B26024EAE47431B31D4B134043EA84036B
:104A8000B3600024012508E0336801341A43326022
:104A900089B1072C13D098F8001047FA04F305FAEF
:104AA00004F0DB070246EFD43268013422EA000248
:104AB00032600029EDD116F047FA072CEBD1BDE8A2
:104AC000F04116F041BA16F03FFAB268084B98F878
:104AD0000010134043EA8403B3600029D1D116F0DB
:104AE00033FA98F80010CCE70080FF43107B0020D9
:104AF00003F0FFFF457B00200B4610B5362800F27F
:104B00009782DFE810F08C0282027902700267025D
:104B10005E0255024C0243023A02310228021F0291
:104B2000BF01B601AD01A4019B0192018901800181
:104B300077016E0165015C0153014A0141013801B1
:104B40002F0126011D0113010901FF00F500EB00F3
:104B5000E100D700CD00C300B900AF00A5009B0065
:104B6000910087007D00730069005F0055004B00D5
:104B700041003700C84C0422C8493620C4F8D83058
:104B800015F038FA012010BDC34C0422C449352069
:104B9000C4F8D43015F02EFA012010BDBE4C04220A
:104BA000C0493420C4F8D03015F024FA012010BDDB
:104BB000B94C0422BC493320C4F8CC3015F01AFAA1
:104BC000012010BDB44C0422B8493220C4F8C830CA
:104BD00015F010FA012010BDAF4C0422B449312069
:104BE000C4F8C43015F006FA012010BDAA4C042206
:104BF000B0493020C4F8C03015F0FCF9012010BDD8
:104C0000A54C0422AC492F20C4F8BC3015F0F2F9B1
:104C1000012010BDA04C0422A8492E20C4F8B830B1
:104C200015F0E8F9012010BD9B4C0422A4492D2069
:104C3000C4F8B43015F0DEF9012010BD964C042202
:104C4000A0492C20C4F8B03015F0D4F9012010BDD3
:104C5000914C04229C492B20C4F8AC3015F0CAF9C1
:104C6000012010BD8C4C042298492A20C4F8A83099
:104C700015F0C0F9012010BD874C04229449292069
:104C8000C4F8A43015F0B6F9012010BD824C0422FE
:104C900090492820C4F8A03015F0ACF9012010BDCF
:104CA0007D4C04228C492720C4F89C3015F0A2F9D1
:104CB000012010BD784C042288492620C4F8983081
:104CC00015F098F9012010BD734C04228449252069
:104CD000C4F8943015F08EF9012010BD6E4C0422FA
:104CE00080492420C4F8903015F084F9012010BDCB
:104CF000694C04227C492320C4F88C3015F07AF9E1
:104D0000012010BD644C042278492220C4F8883068
:104D100015F070F9012010BD5F4C04227449212068
:104D2000C4F8843015F066F9012010BD5A4C0422F5
:104D300070492020C4F8803015F05CF9012010BDC6
:104D4000554C04226C491F20E36715F053F90120EC
:104D500010BD514C042269491E20A36715F04AF981
:104D6000012010BD4C4C042265491D20636715F0DD
:104D700041F9012010BD484C042262491C202367E0
:104D800015F038F9012010BD434C04225E491B2068
:104D9000E36615F02FF9012010BD3F4C04225B495A
:104DA0001A20A36615F026F9012010BD3A4C042202
:104DB00057491920636615F01DF9012010BD364CC6
:104DC000042254491820236615F014F9012010BD5F
:104DD000314C042250491720E36515F00BF90120EE
:104DE00010BD2D4C04224D491620A36515F002F983
:104DF000012010BD284C042249491520636515F097
:104E0000F9F8012010BD244C0422464914202365E2
:104E100015F0F0F8012010BD1F4C04224249132068
:104E2000E36415F0E7F8012010BD1B4C04223F4954
:104E30001220A36415F0DEF8012010BD164C0422E8
:104E40003B491120636415F0D5F8012010BD124CC8
:104E5000042238491020236415F0CCF8012010BD3D
:104E60000D4C042234490F20E36315F0C3F80120F0
:104E700010BD094C042231490E20A36315F0BAF885
:104E8000012010BD044C04222D490D20636315F050
:104E9000B1F8012010BD00BF307300201D230000B9
:104EA0008D220000FD2100006D210000DD200000AA
:104EB0004D200000BD1F00002D1F00009D1E0000A2
:104EC0000D1E00007D1D0000ED1C00005D1C00009B
:104ED000CD1B00003D1B0000AD1A00001D1A000094
:104EE0008D190000FD1800006D180000DD1700008E
:104EF0004D170000BD16000031160000A51500007A
:104F0000191500008D140000011400007513000035
:104F1000E91200005D120000D111000045110000EF
:104F2000B91000002D100000A10F0000150F0000A7
:104F3000890E0000FD0D0000710D0000E50C000061
:104F4000590C00003B4C04223B490C20236315F014
:104F500051F8012010BD374C042238490B20E36280
:104F600015F048F8012010BD324C042234490A20C3
:104F7000A36215F03FF8012010BD2E4C04223149E8
:104F80000920636215F036F8012010BD294C042277
:104F90002D490820236215F02DF8012010BD254C65
:104FA00004222A490720E36115F024F8012010BDEE
:104FB000204C042226490620A36115F01BF801208D
:104FC00010BD1C4C042223490520636115F012F822
:104FD000012010BD0422174C1F491046236115F013
:104FE00009F8012010BD134C04221C490320E36082
:104FF00015F000F8012010BD0E4C042218490220C3
:10500000A36014F0F7FF012010BD044609480422F4
:1050100014494360012014F0EDFF204610BD054CFB
:10502000042211490020236014F0E4FF012010BD88
:10503000002010BD30730020CD0B0000410B00009C
:10504000B50A0000290A00009D09000011090000AE
:1050500085080000F90700006D070000E106000068
:1050600055060000C90500003D0500002DE9F0418E
:105070000F46164604460221384614F075FD0221FB
:10508000304614F071FD214B3A0121483101DFF81F
:1050900088C053F8028003EB0712C4F80080D2F8EE
:1050A0000CE003EB061259580023C4F808E0D2685C
:1050B0006361184BE26045681B686160ACFB033CB0
:1050C0004FF4FA634FEA9C4C03FB0CFC43685B1BF8
:1050D0009C45FBD8D8F80030384609681EEA030F13
:1050E00014BF012300230A42214618BF43F00203E4
:1050F0002374FFF701FD0346214630462376FFF770
:10510000FBFC237E18442076BDE8F081FC330020B0
:10511000001000E03C40002083DE1B43022110B55C
:105120000446084614F020FD0221052014F01CFD61
:10513000022014F007FD0346052084F8203014F007
:1051400001FD002384F821006362E36216F0AEFEE5
:105150000B4B1B789BB10B4B1B78DB070FD50A4B16
:105160000A4A1B6812689B1A0E2B08D92821084886
:1051700016F01EFE0748BDE8104013F0BDBF10BD7D
:10518000627B0020617B0020F47900200C7B0020F2
:10519000F425002030410020A74AA84930B5137EED
:1051A00083B004460D68012B40F2928072B65369B9
:1051B00062B6002B1846B8BFD81C80101AD072B641
:1051C000D3F1000C03F003010CF0030C58BFCCF139
:1051D0000001516162B6226862B1B3F5007F06DA60
:1051E00013F5007F40F31681404240B201E06FF0BA
:1051F0007E009047924A137E012B56D972B65369AE
:1052000062B6002B1846B8BFD81C80101AD072B6F0
:10521000D3F1000C03F003010CF0030C58BFCCF1E8
:105220000001516162B6626862B1B3F5007F06DACF
:1052300013F5007F40F3EC80404240B201E06FF094
:105240007E009047022014F07DFC94F820308342C9
:1052500003D0636AEB1A312B15D8052014F072FCC9
:1052600094F8213083420CD0E36AEB1A312B08D931
:10527000E56200283FD101232563E561237684F8A8
:10528000210003B030BD6562002848D0A36A40F217
:10529000DB52EB1A934240F2BF80E36813B10190F6
:1052A0009847019884F82000D7E772B61368916890
:1052B0001B68194053681868D36818425CD0137C87
:1052C00003F0030309B143F0040343F0080359E07A
:1052D00072B6136891681B68194053681868D368E0
:1052E00018421ED0137C03F0030309B143F00403FA
:1052F00043F008031BE0534B00221B782276002B5F
:10530000BDD1236B40F2DB52EB1A934200F28E8048
:105310002369002BB3D0019098470198AFE7A562AD
:10532000C0E7137C03F0030309B143F004039908B9
:10533000013B11740D2B3FF63AAF01A151F823F058
:105340000934000001340000393400000134000049
:10535000DF3100003134000009340000093400005E
:1053600031340000DF310000013400003934000026
:105370000134000009340000137C03F0030309B179
:1053800043F004039908013B11740D2B3FF637AF2E
:1053900001A151F823F000BF1934000011340000BE
:1053A00029340000113400002F32000021340000A5
:1053B0001934000019340000213400002F3200009D
:1053C00011340000293400001134000019340000A9
:1053D0005369013B5361EBE6536901335361E7E6DF
:1053E0005369013B53610BE753690133536107E78D
:1053F0005369023B536103E7536902335361FFE68C
:105400005369023B5361D3E6536902335361CFE6DC
:105410007F2016E77F20ECE60A4B1B78002B7FF4F9
:1054200041AFA368002B7FF43AAF3BE76369002BE1
:105430007FF471AF23E700BFB4710020F47900203E
:10544000D0710020A54A002010B501210A2014F0D7
:105450008BFB01210A202B4C14F04AFB0121252053
:1054600014F082FB0121252014F042FB01210720CA
:1054700014F07AFB0121072014F03AFB00234FF4CB
:105480008C72F021204613F00FFC0121204613F00E
:10549000A1FB0021204611F01DFF00224FF0FF3339
:1054A00003212046E276636112F0D8FC164B0922F4
:1054B00016492046236113F0BBFD0221204612F05D
:1054C000CDFC134B0F2213492046236113F0B0FD8E
:1054D00016F0ECFC104B1B789BB1104B1B78DB07D4
:1054E0000FD50F4B0F4A1B6812689B1A0E2B08D959
:1054F00018210D4816F05CFC0C48BDE8104013F074
:10550000FBBD10BDFC7900203C005A00641B00204C
:105510003C007D00701B0020627B0020617B00202E
:10552000F47900200C7B0020801B002030410020FB
:1055300010B50121254C222014F016FB0121222058
:1055400014F0D6FA00234FF48C72F021204613F0A9
:10555000ABFB0121204613F03DFB0021204611F05A
:10556000B9FE00226FF0F82303212046E276636142
:1055700012F074FC164B092216492046236113F0E1
:1055800057FD0221204612F069FC134B0B221349F0
:105590002046236113F04CFD16F088FC104B1B785D
:1055A0009BB1104B1B78DB070FD50F4B0F4A1B68C5
:1055B00012689B1A0E2B08D918210D4816F0F8FB1B
:1055C0000C48BDE8104013F097BD10BD807A002054
:1055D0003C005A00641B002054007D009C1B0020EE
:1055E000627B0020617B0020F47900200C7B00208E
:1055F000A81B002030410020034608461146062B18
:1056000010B582B014D90D2B08D90E3B062B3AD811
:10561000DFE803F035312F24181410001D4C073B30
:105620001D4A34F9133002B0BDE8104019F0A4BB94
:105630001A4CF5E71A4B1B4A1B68F4E71A4B1B4A36
:105640001B78F0E71A4B93ED007A1A4AB7EEC77A47
:105650008DED007B19F090FB02B010BD164B174A80
:1056600093ED007AB7EEC77A8DED007B19F084FBDD
:10567000F2E7134BE7E7134B134A1B88D3E7134BAF
:10568000114A1B88CFE7124A02B0BDE8104019F05A
:1056900073BB00BFE87800202C190020D8780020C8
:1056A0007047002060190020A44A002058190020EB
:1056B0006847002040190020D47800204C190020B1
:1056C0006C4700202C7B0020381900202A7B00200A
:1056D000182B0020C1EB0111364A374B49002DE948
:1056E000F0410746B3F9005092F900008CB27BB24A
:1056F00086B004F11802984292B253D0AF424DD016
:10570000062F53D94FF6FF734FF6A0460D2F88BFD3
:105710001E460023294D12B201931E230021284664
:1057200000934FF48C7312F04BFEEE82AE82022196
:10573000284604F11F0612F091FB042336B22B8297
:105740001F4B6E8253F82780B8F1000F07D04046F8
:105750001AF01EF841460246284613F069FC02A9D9
:1057600038460E22FFF748FF982302A86E822B824C
:105770001AF00EF802A90246104813F059FC04F181
:10578000350242F204144FF48C7312B200210B481C
:10579000009412F0ADFD06B0BDE8F08100264FF692
:1057A000FF73B7E700264FF4FC63B3E740F25F46B0
:1057B0000023AFE7A24A0020287B0020FC790020CC
:1057C000081F00202DE9F04F2DED048B8FB000282D
:1057D00000F01B8240F25F42914B924F0292B3F86D
:1057E0000080914A0492049B00219A1E03F10C044C
:1057F000059232F9023F002BC3F10000B8BF03B29B
:105800009942B8BF1946A242F3D1642940F38C8271
:10581000C82940F30482B1F5967F9FED848ADFEDBD
:10582000847ACBBF4FF0FA094FF096094FF4FA761D
:105830004FF4967638FE278A7E4C002116254FF0CD
:10584000CC0A204611F046FD00220F2320461146C7
:10585000009501934FF48C7312F0B2FD02212046A3
:1058600012F0FCFA029B39460722E3822046A3820B
:1058700041F6C307704B236113F0DAFB6F4B012134
:105880002046636112F0EAFA6D4B6E4A14211B68E0
:1058900009A80093334619F06FFA09A819F078FFA8
:1058A000082140F215130246618200EB40012046B8
:1058B000A3EB410309A9238213F0BAFB40F641038D
:1058C0002A461C212046CDE900A3FA2312F078FDD8
:1058D00044F208237C221C2120460093FA2312F074
:1058E00007FDFA2349221C212046009712F000FDF3
:1058F000FA23AF221C212046009712F0F9FC42F255
:1059000004132A461C2100932046FA2312F0F0FCCF
:10591000B8F1000F04D04A4B1A68424500F20A82DF
:105920000121444812F09AFA474B484A0721636123
:1059300007A83346002519F01FFA4FF4B01307A843
:105940009FED439A23614FF07C0A19F021FF07A9CC
:105950000246384813F06CFB4B463C4A072107A827
:10596000DFED3C9A19F008FA4FF48A0307A8DFED3F
:105970003A8A236119F00CFF07A902462D4813F05B
:1059800057FB364B0222364923612A4813F050FB5D
:105990004B46344A072107A84FF01C0919F0ECF9CF
:1059A0004FF42B0307A8236119F0F2FE07A9024662
:1059B000204813F03DFB33462A4A072107A82E460C
:1059C00019F0DAF94FF45A0307A8236119F0E0FE41
:1059D00007A90246174813F02BFB234B012223494A
:1059E0002361144813F024FB154B214A14211B6832
:1059F00009A819F0C1F909A819F0CAFEE423024662
:105A000009A9638200EB40030A485B00C3F58B736E
:105A10002382012413F00CFB064812F0E9FB41E05D
:105A20002A7B0020B40C0020D87800200000FA4324
:105A300000009643807A00200900030018C618C6AB
:105A400070470020C40C002010841084D40C002067
:105A5000000000000000CC420000F8420400780082
:105A6000D80C0020DC0C00201C00E4006C1B002083
:105A7000E00C0020E12BA8BFE1231A461FB205F17C
:105A80001C030FFA83FB002C00F0988002354FF0C6
:105A9000000446F10006A5F1FC02324300F0DA8072
:105AA000BA46D946AC4BFA221F680023A7FB050172
:105AB00007FB061117F0B2F94045C0F0B6808742E7
:105AC00040F2B380A0EB0800A7EB0807B1EE086A2C
:105AD000049907EE900AF8EE676A07EE907AB8EE3E
:105AE000677AC6EE877A67EE867ABDEEE77A17EEBA
:105AF000102A17EE103A052AA8BF052331F9130022
:105B000007EE103A01EB4303B8EEC77A05EE900AB0
:105B1000B3F90210F8EEE55A05EE101A77EEC77ADF
:105B2000B8EEC55A002A40F0838035EE654AB3F9D5
:105B30000430B6EE007A06EE103AB8EEC66A36EEDB
:105B4000656A26EE076A27EEA77AF0EE086AB0EEDD
:105B5000003A67EE874A67EE266AF7EE002AB0EE53
:105B6000642AF0EE663AE4EEC36AA7EE432AD4EE66
:105B7000833A34EEC77A77EE827A73EEA24A67EE02
:105B8000847AE5EEA47AE6EE857AE7EE067A67EEA9
:105B9000A97A87EE887A78EEC77AFDEEE77A17EE73
:105BA000903A1BB2152B3FF765AF162705F11C0382
:105BB0003A460FFA83FB002C7FF468AF94B2029B45
:105BC0001FFA8AF16548621E019303915B4612B287
:105BD000013400924A1E494624B212B211F0F6FB7B
:105BE000029B524649465D48CDE900735B4611F081
:105BF000EDFB039902985B464A1C4946CDE90040FB
:105C000012B2564811F0E2FB40E74FF6A042544B67
:105C1000544F0292544AB3F800800492E3E59FED9A
:105C2000538A4FF06409C82606E6F0EE497AB0E7D9
:105C300033F9021CB6EE007A042A04EE101AB8EE0C
:105C4000C44A35EE444A24EE074A7FF770AF35EE7A
:105C5000656A78E74148254612F074F99FED449A49
:105C6000DFED448A444E059F4CE001FB0500191806
:105C700041F10001A6FB01CE2EF0010C0CEB5E0CF5
:105C8000A1EB0C015B1AA3FB061360F100004908AD
:105C900006FB003341EAC3714144FA200023A1FB13
:105CA000000117F0BBF81C2140F21512084403B2A2
:105CB0001B2B03DD9342A8BF1346194637F9023F59
:105CC0004FF6FF72254807EE103A00920423B8EE13
:105CD000C77A27EE097AC7EE087A78EEE77AFDEE02
:105CE000E77A17EE902A12B2E12AA8BFE122162A1B
:105CF000B8BF162211F0E4FD013445F10005E31FA1
:105D00002B430CD0144B1A68A2EB08014245A1FBAF
:105D10000430AAD84146002ABFD11C21CEE70FB0DB
:105D2000BDEC048BBDE8F08F9FED148A4FF0320973
:105D3000642681E5FA210023A8FB010117F06EF823
:105D40001C3053462A4601B247F6EF3000902046F9
:105D500012F064FAE4E500BF70470020807A00206A
:105D60002C7B0020BC0C0020E87800200000484379
:105D70000000CC420000F842ABAAAAAA0000C84228
:105D80002DE9F04F844D91B000214FF00F082846C7
:105D90004FF0FF3411F09EFA002216214FF48C735D
:105DA000284609AE07AF4FF01B09CDE90018114690
:105DB00012F006FB0221284612F050F8774B07221A
:105DC00077492846C5E9043413F032F9754B0121AF
:105DD00028466B6112F042F8734B10227349284633
:105DE0002B6113F025F9724B724AADF82040002464
:105DF000079293E8070086E807000121284612F081
:105E00002DF85C2321B216222846CDE9009812F025
:105E1000D7FA37F8022B56F804ABA31C1F21EA82ED
:105E20005046AA822B826982BAF1000F06D019F07F
:105E3000AFFC51460246284613F0FAF85D3440F2B2
:105E40001713A4B29C42DCD15B4B00264FF01B0B16
:105E5000514F0393594B0493594B059306EB46045A
:105E600016F0010F40F6410A4FF05C0304EBC40446
:105E700018BF4FF0000A00213846A4B2CDF800B098
:105E8000CDF804A05FFA86F804F131093A340FFA2C
:105E900089F924B24A4612F093FA4A4B4A4A40F230
:105EA0005F411B7810784FF6FF72C3EBC3036C821F
:105EB000434408F10E08DBB2834218BF0A460E21A4
:105EC0000CA8EA82AA82039A32F9023F00930223C5
:105ED00003922B8233463D4A18F04EFF0CA819F06E
:105EE00057FC0CA90246384613F0A2F85C234A4638
:105EF0005D213846CDE900BA12F062FA049A0E210B
:105F00000CA832F9023F6C820093314B04926B6112
:105F10005F23304A2B82334618F02EFF0CA819F06D
:105F200037FC0CA90246384613F082F84A465D2336
:105F3000BA213846CDF804A0CDF800B012F040FAEE
:105F40004FF0FF330E225FFA88F06B61BC230CA97F
:105F50006C822B82FFF750FB059B53F8044F05938F
:105F60003CB1204619F014FC21460246384613F095
:105F70005FF83A21384611F0D5FE01360CA819F029
:105F800007FC0CA90246384613F052F8072E7FF49E
:105F900065AF11B0BDE8F08F807A002009000300E2
:105FA000041B002018C618C678000800341800200A
:105FB000180A00205F04A0FCD6780020E6780020B4
:105FC0003C1F0020517B0020287B00204818002027
:105FD000A0FCA0FC5418002010B5204C8AB0034649
:105FE00008461146E268D4F808C0042B06922269DC
:105FF000CDF814C00792D4F814C0A269CDF820C01F
:10600000099225D8164C9A0003EB830304EB830313
:106010001C69237873B102F12803124A6B4413ED13
:10602000057A0294B7EEC77A8DED007B18F0A4FED6
:106030000AB010BD02F128030B4A6B4413ED057A38
:10604000B7EEC77A8DED007B18F096FE0AB010BD52
:10605000064A0AB0BDE8104018F08EBEB4770020A2
:10606000BC1C0020341B00202C1B0020182B0020FF
:10607000C1EB011104284FEA41012DE9F0418CB236
:1060800086B004F1180292B259D80746324B334910
:10609000B3F900007BB291F9001099424BD08742CE
:1060A00040F2FF764FF6FF730CBF002600232C4D05
:1060B00012B201931E230021284600934FF48C73E3
:1060C00012F07EF902212846EE82AE8211F0C6FE61
:1060D000042304F11F062B8236B2224B6E8253F842
:1060E0002780B8F1000F07D0404619F051FB414618
:1060F0000246284612F09CFF02A938460E22FFF7FE
:106100006BFF982302A86E822B8219F041FB02A933
:106110000246134812F08CFF04F1350242F20414D7
:106120004FF48C7312B200210D48009412F0E0F885
:1061300006B0BDE8F08100264FF4FC63B7E700210C
:106140001E204FF48C7312B2CDE90001044812F006
:1061500037F906B0BDE8F081287B0020A24A002074
:10616000FC790020F41E0020F0B5002287B03C4CE2
:106170001F2118274FF0FF354FF48C73204605265A
:10618000CDE90071114612F01BF90221204665612C
:1061900011F064FE334B032233492361204612F091
:1061A00047FF324B0A2232492361204612F040FF5A
:1061B00001212046656111F051FE2E4B0C212E4A23
:1061C000B3F900300DEB01000096013318F0D4FD57
:1061D0002A4B03A8236119F0DBFA03A902462046E3
:1061E00012F026FF264B274A1B6812689A421AD9DA
:1061F000254B1B88312B20D84FF478724FF48C73C9
:106200002046009701920022114612F0D9F802218F
:106210002046656111F022FE32461C491C4B104895
:10622000236112F005FF0024E1B201340846FFF7B4
:106230001FFF072CF8D107B0F0BD00224FF400413A
:106240004FF48C73204601911146009712F0B8F874
:1062500002212046656111F001FE07220D49DDE7AC
:10626000FC790020090004006018002041000400AF
:106270006C0C0020287B0020780C0020DE000A0037
:10628000F479002028770020247B00205C0C00207B
:1062900055000400640C0020614B1B78022B00F0B9
:1062A000A380002218204FF48C731146F0B55D4C8A
:1062B00089B00F254FF0FF36CDE9000520465A4D35
:1062C00012F07EF802212046666111F0C7FD574B9F
:1062D000032257492361204612F0AAFE2B78002B97
:1062E0007BD140F25F425349E282A282524A21614D
:1062F00052F823100846514F039119F049FA0399B7
:1063000002464848072612F093FE0121454867617E
:1063100011F0A4FD2B78082104A8C3EB431203EB72
:10632000C203474A128800961344464A0133DBB23F
:1063300018F022FD444B04A8236119F029FA04A99E
:106340000246384812F074FE02213648676111F0A7
:1063500085FD2B783D4A0821013306A818F00CFD75
:106360003B4B06A8236119F013FA06A902462D48F3
:1063700012F05EFE374B384A1B6812689A421DD9EC
:10638000364B1B88312B31D8002218234FF47871FB
:106390002448CDE9003111464FF48C7312F010F807
:1063A0004FF0FF3302211F48636111F057FD0522B2
:1063B0002B492C4B1B48236112F03AFE2D78002408
:1063C000C5EBC505EDB2E1B201346818C0B2FFF704
:1063D00081F9072CF7D109B0F0BD012B1CD0154B6A
:1063E0002149C4E9043685E7FFF7BEBE0022182321
:1063F0004FF400410B48CDE9003111464FF48C7346
:1064000011F0DEFF4FF0FF3302210648636111F007
:1064100025FD32461549CCE74FF6A04263E700BFA1
:10642000A34A0020FC790020517B002009000400D1
:10643000C41B002041000400D01B002018C618C651
:10644000287B0020780C0020A2000A00C81B002036
:10645000DA000400F479002028770020247B002053
:106460005C0C002055000400700C0020640C00201F
:106470002DE9F04F564C8FB00021564F2046DFF8E3
:10648000749110F027FF00221F2016214FF48C7307
:1064900048260025DFF860B1CDE9001011462046FE
:1064A00011F08EFF0221204611F0D8FC4FF0FF338F
:1064B00049490B222046C4E90413484912F0B8FDAB
:1064C000474B01212046636111F0C8FC454B0E2269
:1064D00045492046236112F0ABFD444915F0010FF8
:1064E00040F64103A6F10E02B1F9001018BF0023D7
:1064F00024205FFA85F8A94212B25AD00021CDE9D2
:1065000000034FF48C73204611F05AFF40F2FF73E2
:1065100001212046E3820FFA86FAA38211F09EFC45
:1065200059F8041B04230135A4F812A0084623825D
:10653000059131B119F02CF905990246204612F067
:1065400077FD0E2206A940462436FFF745FD82233B
:1065500006A8A4F812A0238219F01AF906A9024687
:106560002046143712F064FD17ED036A17ED047A24
:106570001021B7EEC66A5A46B7EEC77A0AA8B6B275
:106580008DED026B8DED007B18F0F6FBC323184AEE
:106590000AA823826261A4F812A019F0F9F80AA9E6
:1065A0000246204612F044FD052D96D10FB0BDE8FD
:1065B000F08F242343F286112046CDE900314FF4B9
:1065C0008C73002111F0FCFE4FF6FF73A0E700BFB3
:1065D000807A0020BC1C002009000300001B002062
:1065E00018C618C6B40008000C1B0020287B002029
:1065F0004D6B4D6BF41E00201C1B0020094B1B78BB
:10660000022B0CD0084B1B7833B1012B01D0FFF7C4
:10661000B7BB0020FFF7D6B80120FFF7D3B8FFF7CC
:1066200027BF00BFA34A0020517B002040F2DB536C
:1066300098422DE9F0470C4682B041D84FF06408EB
:10664000324B4FF48A75002208FB00F7DFF8D89030
:1066500011462F48A3FB073A18234FEA5A1A05FBA5
:106660000AF5CDE90032A9FB05364FF48C7311F021
:10667000A7FE284B76099F423AD8CAEB4A10400041
:10668000A9FB00904009C00240F4FC6080B2632D79
:1066900024D8214A4FF6FF73204E01211C4D022CB5
:1066A00018BF164628466B6111F0D8FB1C4B06221A
:1066B000314628462B6102B0BDE8F04712F0B8BC65
:1066C000002218204FF48C734FF48A760090114604
:1066D0000F48019211F074FE4FF68020102133B262
:1066E0000422CDE900100221094811F069FED0E72B
:1066F00056230C4803FB0A00B0FBF8F0C0F13F0042
:10670000C0B2400140F47840C1E700BFF1197605FE
:10671000FC790020D32A0100541B00205C1B0020C0
:106720007A00080034EFFFFF1F85EB51014B1888FA
:10673000704700BF247B002010B50446002021468E
:1067400013F0ACFB15F0B2FB114B1B78EBB1114B06
:106750001B78DB0719D5104B104A1B6812689B1A6F
:106760000E2B12D91D210E4815F022FB022C0DD044
:106770000C480D4B032C18BF1846112115F018FBBF
:106780000A48BDE8104012F0B7BC10BD0848F4E755
:10679000627B0020617B0020F47900200C7B0020CC
:1067A00028170020EC16002014170020304100208C
:1067B00000170020494B986810F0010010B525D152
:1067C00013F05CFA0228044655D003286CD0042844
:1067D00038D015F06BFB424B1B7813B901242046CF
:1067E00010BD404B1C7814F00104F7D03E4B3F4ADB
:1067F0001B6812689B1A0E2BF0D91A213C4815F021
:10680000D7FA3C4812F078FC204610BD01229A606D
:1068100015F04CFB324B1B78002BDFD0314B1C7832
:1068200014F00104DAD0304B304A1B6812689B1A0E
:106830000E2BD3D91E21304815F0BAFA2D4812F08C
:106840005BFCCCE715F032FB254B1B78002BC6D048
:10685000244B1B78DB07C2D5234B244A1B681268E4
:106860009B1A0E2BBBD91A21244815F0A1FA2148F6
:1068700012F042FCB3E715F019FB194B1B78002B03
:10688000ADD0184B1B78D907A9D5174B174A1B68F1
:1068900012689B1A0E2BA2D91A21194815F088FAF2
:1068A000144812F029FC9AE715F000FB0C4B1B78FA
:1068B000002B94D00B4B1B78DA0790D50A4B0B4A70
:1068C0001B6812689B1A0E2B89D91A210D4815F0E6
:1068D0006FFA084812F010FC81E700BF00800F40FB
:1068E000627B0020617B0020F47900200C7B00207B
:1068F000700F002030410020FC0E0020540F0020BB
:106900001C0F0020380F002038B54D210022322402
:10691000492341709446047001248370431DC17063
:1069200000F13701047180F8372013F8012F9942E4
:106930008CEA020CF9D1244C3822042180F805C0DD
:1069400013F046FB2388214D0133238015F0AEFA66
:106950002B781BB11E4B1B78DA0704D42388322B0B
:106960001AD0012038BD1B4B1B4A1B6812689B1AAA
:106970000E2BF3D93121194815F01AFA218818483D
:1069800012F0AEFB0121174815F012FA144812F06C
:10699000B3FB2388322BE4D115F088FA2B78002B37
:1069A000DFD00B4B1B78DB07DBD50A4B0A4A1B6891
:1069B00012689B1A0E2BD4D931210B4815F0F8F927
:1069C000074812F099FBCCE7247B0020627B002073
:1069D000617B0020F47900200C7B0020B0170020A0
:1069E00030410020D80E0020E41700202DE9F041AE
:1069F0008EB006466F463C46C7F10405601913F099
:106A00003DF90EAB04F8010B9C42F7D1AE4B009A56
:106A10009A4240F026819DF80430012B40F0B4806A
:106A20000DF105030DF13701002413F8012F8B42FE
:106A300084EA0204F9D19DF80580444540F05E8166
:106A400004AA07F11E0132F8023F03F5FA739BB264
:106A5000B3F57A7F00F28481D38903F5FA739BB290
:106A6000B3F57A7F00F2D6819142ECD1BDF83220A5
:106A700040F6B8339A4200F20D81BDF834209A42B4
:106A800000F20881DDF806309FED907A07EE903A2B
:106A9000F4EEC77AF1EE10FA00F1A081F2EE0E6A80
:106AA000F4EEE67AF1EE10FA00F39881DDF82E307C
:106AB00007EE903AF5EEC07AF1EE10FA00F16E8131
:106AC000F3EE046AF4EEE67AF1EE10FA00F3668172
:106AD000DDF80A3007EE903AF4EEC77AF1EE10FADC
:106AE00000F1B481B2EE0E7AF4EEC77AF1EE10FA4C
:106AF00000F3AC819DF83630053B5A2B00F2C28181
:106B0000DDF80E3042F21C52A3F5FA73934200F204
:106B1000D5810CAD3C46103610370FCCAC4246F850
:106B2000100C46F80C1C46F8082C46F8043CF1D131
:106B300003CF3060716015F0B9F9654B1B78002BFD
:106B400000F04881634B1B78DB0740F14381624BC7
:106B5000624A1B6812689B1A0E2B40F23B811E2171
:106B60005F4815F025F900230A2201215D4812F043
:106B7000EDFA01215C4815F01BF95A4812F0BCFAF5
:106B800001200EB0BDE8F081514D15F08FF92B7842
:106B90008BB1504B1B78DC070DD54F4B4F4A1B6810
:106BA00012689B1A0E2B06D93121504815F000F9B6
:106BB0004C4812F0A1FA4D233222002400217370B8
:106BC000F370012332704FF07E5233716FF0770310
:106BD000C6F80620B3731323C6F80A204622F373BF
:106BE00049237471B370C6F81240C6F82E10C6F867
:106BF0001640C6F81A40C6F81E40C6F82240C6F82D
:106C00002640C6F82A4086F8324086F8334086F897
:106C1000344086F83540347486F83620747486F82B
:106C2000374015F043F92B7803F0FF00002BA8D074
:106C3000284B1B7813F0010300F09080264B274A65
