:0200000460009A
:100000004643464200000156000000000101020084
:1000100000000000000000000000000000000000E0
:1000200000000000000000000000000000000000D0
:1000300000000000000000000000000000000000C0
:1000400000000000010406010000000000000000A4
:100050000000800000000000000000000000000020
:100060000000000000000000000000000000000090
:100070000000000000000000000000000000000080
:10008000EB04180AFF1E04320126000000000000E5
:100090000000000000000000000000000000000060
:1000A0000000000000000000000000000000000050
:1000B0000000000000000000000000000000000040
:1000C0000000000000000000000000000000000030
:1000D0000000000000000000000000000000000020
:1000E0000000000000000000000000000000000010
:1000F0000000000000000000000000000000000000
:1001000000000000000000000000000000000000EF
:1001100000000000000000000000000000000000DF
:1001200000000000000000000000000000000000CF
:1001300000000000000000000000000000000000BF
:1001400000000000000000000000000000000000AF
:10015000000000000000000000000000000000009F
:10016000000000000000000000000000000000008F
:10017000000000000000000000000000000000007F
:10018000000000000000000000000000000000006F
:10019000000000000000000000000000000000005F
:1001A000000000000000000000000000000000004F
:1001B000000000000000000000000000000000003F
:1001C000000100000010000001000000000000001D
:1001D000000001000000000000000000000000001E
:1001E000000000000000000000000000000000000F
:1001F00000000000000000000000000000000000FF
:10020000FFFFFFFFFFFFFFFFFFFFFFFFFFFFFFFFFE
:10021000FFFFFFFFFFFFFFFFFFFFFFFFFFFFFFFFEE
:10100000D1002043F1150060000000000000000046
:10101000201000600010006000140260000000005A
:10102000000000600020020000000000FFFFFFFF42
:10103000FFFFFFFFFFFFFFFFFFFFFFFFFFFFFFFFC0
:10104000FFFFFFFFFFFFFFFFFFFFFFFFFFFFFFFFB0
:10105000FFFFFFFFFFFFFFFFFFFFFFFFFFFFFFFFA0
:10106000FFFFFFFFFFFFFFFFFFFFFFFFFFFFFFFF90
:10140000824205D051F8043B40F8043B8242F9D8AF
:10141000704700BF044A05494FF0000342F8043BFF
:101420009142FBD8704700BFC0360020E0920020F8
:1014300008B5BFF34F8F00F06FF9544C544B0820A0
:101440005449C3F85401544AC3F800115348C3F82F
:10145000F0405349FFF7D4FF524A53495348FFF72E
:10146000CFFF534CFFF7D6FF4FF470004FF0E02151
:101470000023504AC1F8880D44F823200133B02BD3
:10148000FAD14D4B80214D4A03F8011B9342FBD109
:101490004FF0E0254A4E4B4A4FF0FF31C5F8084D5A
:1014A000D5F8243D43F4E023C5F8243DF36923F047
:1014B0007F0343F04003F361736A23F07F0343F03B
:1014C000400373629166D1661167516700F02CF991
:1014D0003D4A3E4BA2636322E36300246A61032317
:1014E0003B4AAC612B61C5F8202DD5F8FC2D394B5A
:1014F00042F080723849C5F8FC2D1A6842F00102AA
:101500001A605B680B6000F0DFFA344800F058FCAA
:10151000F16E334B334A41F44051F1661C60C3F81D
:101520000841C3F81841C3F82841C3F83841936B08
:10153000DB0708D442F615632B4951651365936B9D
:1015400043F001039363274A284C936843F0011347
:10155000936000F077F900F05FF800F035FC00F0E0
:10156000E5FA00F0DBF82368132BFCD900F07AFBD6
:101570002368B3F5967FFBD300F0D4F800F0D0F8E1
:1015800000F032FC00F024FC30BFFDE70C0D11131D
:1015900000800D401B101820B8BA010000000000A8
:1015A0001C210060C0360020D8DB01600000002054
:1015B000003400208928010000E400E0A0E400E0FD
:1015C00000C00F4000C00A40691701006D170100FC
:1015D00000002020001000E0549100200046C323AA
:1015E0000040084000400D400000C05658910020C7
:1015F000054B4FF42A01054A05485A641864054A08
:1016000099639546FFF714FF00C00A40FFAAAAAAF3
:1016100007002000000006200F4B40F2376C0F4AF5
:10162000A020D96E41F44031D966D96E41F44071A1
:10163000D966C2F844C09064936C1B06FCD4084A77
:1016400040F23761A02351649364936C13F08003DC
:10165000FBD1044A1370704700C00F4000400C409B
:1016600000800C40A4920020294A00210123C2F8E6
:10167000A000C2F8A410C2F8B0305369D907FCD555
:1016800001234FF4803C22495361C2F8A000C2F804
:10169000A4C0C2F8B0304B69DB07FCD501234FF47E
:1016A000003C1B4A4B61C1F8A000C1F8A4C0C1F8BE
:1016B000B0305369D907FCD50123DFF858C014496D
:1016C0005361C2F8A000C2F8A4C0C2F8B0304B69A0
:1016D000DB07FCD5D1F8003145F60D504FF0210C59
:1016E0009AB2C1F814C0824210D045F69D518A4288
:1016F0000AD1C3F34253032B08D0A3F10403B3FA76
:1017000083F35B0918017047002070470820704779
:1017100000402A4004000300704700BF704700BF2C
:10172000704700BF00BF70474FF0E02300214FF02B
:10173000100C3448C3F8941DC3F89CCD4FF0110C25
:10174000C3F8A00D3048C3F89CCD4FF0120CC3F87D
:10175000A00D2E48C3F89CCD2D4AC3F8A00DDFF88C
:10176000D0C042F015022B48C3F89CCDC3F8A00DA1
:10177000DFF8C0C02848C3F89CCDC3F8A00DDFF83F
:10178000B8C0C3F89C2D2548254AC3F8A0CDC3F89E
:101790009C0DC3F8A02D02F5A022DFF8A0C00C32EA
:1017A0002048C3F89CCDC3F8A02D1F4AC3F89C0D58
:1017B000C3F8A02D02F14062DFF884C002321B485A
:1017C000C3F89CCDC3F8A02D0A32C3F89C0DC3F812
:1017D000A02D00BF00BF00BF00BF00BF0122C3F8A3
:1017E000942DBFF34F8FBFF36F8FC3F8501FBFF31C
:1017F0004F8FBFF36F8FD3F8142D42F44032C3F8EC
:10180000142D70473F000010250008070900100044
:10181000E092002021000207250008131600202076
:1018200027000B13180000602F000B071A00008020
:1018300013002000140000200900001017000040D1
:101840001900007030B5864B85B0DFF874E21822BD
:10185000844D0120C3F85CE28349C3F86052A5F5CA
:101860008055DFF860C2814CC3F864E2C3F8685267
:101870002125C3F86CC2C3F870C2C3F874C2C3F8A0
:1018800078C248F20C7CDA661A675A679A67DA6798
:10189000C3F88020C3F88420C3F88820C1F82C0343
:1018A000734AC1F83003C1F83403C1F83803C1F8F2
:1018B0003C03C1F85003A1696E4B0A406E486F4962
:1018C00013436F4AA361D4F8843043F00C03C4F887
:1018D00084304FF0FF34036843F002030360036871
:1018E00003EA0C031A43674B026044608A68664C43
:1018F0001340664A43F000538360C36823F07803C3
:10190000C360036A23401A43604B0262026A2240AA
:101910005F4C1343002243628462C46240F2056458
:10192000D1F8B83023F03F0343F00103C0F8B830DA
:10193000D1F8BC30574923F03F0343F00103C0F80E
:10194000BC3002610567C0F880404567C0F884403C
:101950000224036823F00203036081614E4B4F4968
:10196000C46143F8042B8B42FBD1434C236843F002
:1019700001032360256815F00105FBD145480222CB
:1019800040F2F561A06140F29940E26140F26642A6
:10199000C4F8001242F20141C4F81022404AC4F8CF
:1019A0002002C4F8302240F23542C4F834123D48D7
:1019B000C4F840223C4AC4F850022846C4F85422D5
:1019C00042F201223949C4F86012C4F86422FFF7D8
:1019D0004BFE0246002839D0810201234FF48020BB
:1019E00021662549C4F8A050C4F8A400C4F8B0305A
:1019F0004B69D807FCD515050124039228464C6194
:101A0000FFF732FE039A2A4B0244D2B21A7080B119
:101A1000194980024FF4802348660846C1F8A05057
:101A2000C1F8A430C1F8B0404369DB07FCD50123FD
:101A3000436120490024204801230094401A00EB10
:101A400002521E4800F0CCF905B030BD1B4B1849BE
:101A500018600870D860C3E9010005B030BD00BF50
:101A600000801F40F910010000841F4000C00F409B
:101A7000FFFCFF1F0003008000402A4000802A4036
:101A80001200FFFFFF37F70000FFF07C40000080EE
:101A9000FF000F83F05AF05A00422A4000432A40C8
:101AA0009F041830EB06180A063201263806180A79
:101AB000A69200200000007000000070F08E002050
:101AC000F9B00100F970010010B5174A4FF48054C5
:101AD0004FF4005E4FF4404C4FF4803043F242012B
:101AE000136913F0020F0DD113F4005F0FD013F43C
:101AF000805F0FD0002BF3DA13F4803F0CD15B062C
:101B00000ED510BDC2F818C050619161E8E7C2F867
:101B100014E0E5E75461E3E74FF480339361DFE7D6
:101B200040235361DCE700BF00800D40414A0320A1
:101B30004149F3EE095AD2F880309FED406A23F014
:101B400001039FED3F5ADFF814C100B5C2F88030A1
:101B5000C2F89000D1F8E010DFF804E1CBB23948C8
:101B6000CEF8003007EE903A0B0DC1F30B21F8EEE2
:101B7000E77A06EE903A07EE101A334BB8EEC77AC2
:101B8000CCF80010F8EEE66A304937EEC66A37EE58
:101B9000C55A76EEC76A77EEE57A26EE266AC3ED79
:101BA000006A25EE265AD2F8803067EEA64AC0EDCC
:101BB000007AC6EE275A264885EE276AC4EEA76A41
:101BC00075EE875AFCEEE55A36EE076A15EE90CAB6
:101BD000BCEEC66A43EA0C5376EE877AC2F88030D0
:101BE00016EE103AD2F890C1FCEEE77A01EA034112
:101BF00041EA0C014FF0000C17EE903AC2F8901138
:101C0000C3F30B03D2F890110B431249C2F8903181
:101C1000D2F8803043F00203C2F880300E4B80F8D7
:101C200040C0C1F840314FF0E0230122C3F8082141
:101C300000BD00BF00810D4000441F400000AA42CB
:101C40000000B442C8900020CC9000200000FF0F9C
:101C500000E400E0003400206D2A0100C090002064
:101C6000C4900020314B40F6617210B5C3F82021BA
:101C700040F2044400F09CF82D4A2E49D2F88030FE
:101C80002D4843F00303C2F880302C4BC1F860416B
:101C900002681A4203D1D1F8A8319A071BD0254A0D
:101CA0004FF00041244B5963D2F8403143F0020316
:101CB000C2F84031D2F840319B07FBD44FF40030DA
:101CC0004FF0E0211C4B4FF00042C1F88C0219206C
:101CD0009A6300F071F8184B0021164C4FF08042C7
:101CE0000A209A634FF480621960C4F8A80114486E
:101CF00000F072F84FF4800203464FF4810040F286
:101D000043111860C4F858311A640E4B0E4AC4F8D7
:101D10004811C3F804224FF0E0224FF400310123B0
:101D2000C2F80C11C4F8403110BD00BF00800D4056
:101D300000C00F4000002E4000900D40001C1E000F
:101D40000000002000340020712C010008B50E4B6B
:101D50001B6E9B0700D4FBBE72B60C4B00200C4AD6
:101D6000C3F8400103F160430A49A3F55F231164FE
:101D70009D46BFF34F8F4FF40013074A0748DB69B6
:101D800002609B68984700BF00441F4000002E403F
:101D900000C00A4003002000000012EB0080202059
:101DA000F8B500BFF8BC08BC9E46704700000000B4
:101DB0005FF800F0913301005FF800F08D1F010023
:101DC0005FF800F0791C01005FF800F06D3E010043
:101DD0005FF800F0DD2601005FF800F0815C010093
:101DE0005FF800F0D13F01005FF800F0D15E010024
:101DF00005010000C9750000D9760000698900005E
:081E00003191000089E30000AC
:101E08006CC00F40030000000E0D000059F40000E4
:101E18002A36000014000000130000000100000032
:101E2800F4841F402B32000014000000130000004F
:101E380001000000F8841F402D310000140000004C
:101E48001300000001000000F0841F402CFFFF0079
:101E58001400000000000000000000000100000065
:101E680000000000EC841F4000000000000000009B
:101E78006CC00F4030000000100F000059F4000043
:101E880001270000170000001200000000010000F8
:101E980014851F401AFF0000120000000000000017
:101EA8000100000018851F401BFF00001200000001
:101EB800000000000100000010851F400026FF0000
:101EC80017000000120000000000000001010000DF
:101ED800010000000C851F400C851F400000000019
:101EE8006CC00F40C0000000504F00002DF50000EE
:101EF8000CFF0000130000000000000000000000BC
:101F080024851F400BFF00001300000000000000A4
:101F18000000000028851F400DFF0000130000008E
:101F2800000000000000000020851F400A25240052
:101F3800130000001200000012000000010203005C
:101F48000000000000000000000000000000000089
:101F58000901809611800A3A81550A3601082A0437
:101F6800000000F02B040000014021800A13800AC1
:101F780029800A0010034D0049004D002000500040
:101F88006F00430008034D0049004D000403090495
:101F98000902BA00050100A0FA080B0004FFFFFFC0
:101FA800000904000002FF5D010011210001012564
:101FB80081140000000013020800000705810320B7
:101FC8000004070502032000080904010004FF5D5E
:101FD80003001B2100010101834001042016850034
:101FE800000000000016050000000000000705833F
:101FF80003200002070504032000040705850320C9
:102008000040070505032000100904020001FF5DD8
:102018000200092100010122860700070586032026
:1020280000100904030000FFFD130406410001012C
:102038000309040400010300000009211101000143
:10204800221C000705870340000A00000902BA00A5
:10205800050100A0FA080B0004FFFFFF00090400B7
:102068000002FF5D0100112100010125811400001B
:10207800000013020800000705810320000407057B
:1020880002032000080904010004FF5D03001B216E
:1020980000010101834001042016850000000000B2
:1020A8000016050000000000000705830320000259
:1020B80007050403200004070585032000400705E1
:1020C80005032000100904020001FF5D0200092138
:1020D8000001012286070007058603200010090475
:1020E800030000FFFD130406410001010309040475
:1020F800000103000000092111010001221C000752
:1021080005870340000A00000A060002EF020140AA
:0421180001000000C2
:10211C0000000000000000000000000000000000B3
:10212C0000000000000000000000000000000000A3
:10213C00F8B54FF084439D695A6915400DD0254F71
:10214C0001269D6195FAA5F4B4FA84F457F824306D
:10215C0006FA04F49847A543F4D11F4B9D695A69BC
:10216C0015400DD01D4F01269D6195FAA5F4B4FACA
:10217C0084F457F8243006FA04F49847A543F4D1B4
:10218C00174B9D695A6915400DD0164F01269D615C
:10219C0095FAA5F4B4FA84F457F8243006FA04F44A
:1021AC009847A543F4D1104B9D695A6915400DD041
:1021BC000E4F01269D6195FAA5F4B4FA84F457F8F4
:1021CC00243006FA04F49847A543F4D1BFF34F8F9B
:1021DC00F8BD00BF582E002000400042D82E002031
:1021EC0000800042582F002000C00042D82F002051
:1021FC000548064B1B1AD90F01EBA301491002D05D
:10220C00034B03B118477047C0360020C03600207E
:10221C000000000008B5054B1BB105490548AFF39C
:10222C000080BDE80840FFF7E3BF00BF00000000DE
:10223C008890002000200260704700BF704700BFEC
:10224C00704700BF562802D1034B01229A73034BEF
:10225C001B6803B118477047A0450020C8870020B1
:10226C00562802D1034B00229A73034B1B6803B10F
:10227C0018477047A0450020D88700200023838290
:10228C00C0E90333704700BF704700BF194B1B7880
:10229C001A074CBFF7EE007ADFED177A5A0703D511
:1022AC00B7EE007A77EEC77A03F00202DB07C0EDD7
:1022BC00007A03D5D2B100230B607047002AFAD004
:1022CC000E4B0B60D0ED007AF5EE407AF1EE10FA81
:1022DC000FD09FED0B7A67EE877AC0ED007AD1EDC7
:1022EC00007A67EE877AC1ED007A70474FF07E5323
:1022FC00E7E770479192002000000000000080BFCB
:10230C00F304353F1D4A1E49136870B501331D4C4B
:10231C0013602468087080B37CB36FF02E0504F151
:10232C002F0304F13F0CDFF864E02D1B01261A4645
:10233C0013F8011F814207D12A44BEF8001006FA97
:10234C0002F20A43AEF800209C45F0D16FF01A025D
:10235C0004F11B0304F11F050B4E141B4FF0010C71
:10236C001A4613F8011F814205D1224431780CFA28
:10237C0002F20A4332709D42F2D170BD6089002096
:10238C0085920020B8810020919200207692002046
:10239C001E4A1F49136870B501331E4C1360246824
:1023AC00087090B38CB36FF02E0504F12F0304F179
:1023BC003F0CDFF868E02D1B01261A4613F8011FAD
:1023CC00814208D12A44BEF8001006FA02F221EA32
:1023DC000202AEF800209C45EFD16FF01A0204F116
:1023EC001B0304F11F050C4E141B4FF0010C1A4675
:1023FC0013F8011F814206D1224431780CFA02F203
:10240C0021EA020232709D42F1D170BD6089002038
:10241C0085920020B88100209192002076920020B5
:10242C00012A57D12DE9F04F85B00E9A082A8CBF9E
:10243C00002201221AB1002005B0BDE8F08FB1F8DE
:10244C001EE040F25E4CE645F5D193F805C0BCF1B8
:10245C00FF0FF0D193F806C0BCF1470FEBD193F806
:10246C0000C00E9C9C4423440CF1060E7345E2D331
:10247C009346904692469146174603921A4604E0BC
:10248C00F4440CF1060E724526D39CF800E0BEF124
:10249C00030F21D99CF80130052BF1D1BEF1060FA9
:1024AC00EED99CF8033003F00303032BE8D19CF91D
:1024BC0002309CF80240002BBCF804509CF80660DB
:1024CC002DDBB8F1000FDBD104F00F08C5F30A0BBC
:1024DC000396D5E7002070473A46002FABD04B4609
:1024EC000D4604460321402B2846CDF804A028BFF6
:1024FC0040230093012309F0EFFCE06000289AD000
:10250C00174A234604F13401C263402209F03CF916
:10251C00B8F1000F0BD10123184663758CE7002F1F
:10252C00AED104F00F07C5F30A09B246A8E7594625
:10253C00039B42462846052901934FF0000328BF10
:10254C0005210091032109F0C7FC234620610028D6
:10255C00E1D004490522C163034909F015F9DAE712
:10256C00690A000079010000E02A002008B52DED71
:10257C00048B09EE900A9FED227A40F2E931214852
:10258C00F8EE697A67EE807A87EE879A11F0E8FAAE
:10259C0040F2E93108EE900A1A4811F0E1FA08EE1F
:1025AC00100A40F2E9311748F8EEE88A11F0D8FA2F
:1025BC00B8EEC88A07EE100A9FED136A19EE902A3E
:1025CC00B8EEC77ADFED116A38EE288A47F6FF734A
:1025DC0037EE087AC7EE067A67EE897ABDEC048B83
:1025EC0067EEA67AFDEEE77A17EE900A1044984251
:1025FC00A8BF18460128B8BF012080B208BD00BF93
:10260C000000C84218FCFFFF00803B452DB25D4026
:10261C00464AF8B511680023454D04462B5411B1B8
:10262C008B79002B2FD1434A1378A34201D1002B75
:10263C0078D1414B196829B38B791BB3C87A08B38D
:10264C003E4D002395F800C008E0032A02D1CA7B56
:10265C00012A60D0984201F11A0113D0DAB2013389
:10266C009445F7D10A7B012AEFD1CA7B012AF1D11B
:10267C004A7BA242EED1002331483249FF2203703B
:10268C000B702A70F8BD304B1B78002BCBD191F816
:10269C0007E0BEF1000FC6D0012301F1080701F1DC
:1026AC0009060DE0A44501D1285CD0B1082B18BF58
:1026BC00724503F1010334BF01220022002AB2D07B
:1026CC0017F82300DAB20028F0D016F823C0BCF1BA
:1026DC00000FEBD0A042E5D115F80C0008B1A445D1
:1026EC00E4D188680133DFED197A00EE100A184A3C
:1026FC0001EB8303B4EEE70A1568D888F1EE10FA03
:10270C0002D410B1FFF732FF0544124A01231560C1
:10271C000D4A137087E74A7BA242ACD08A7BA24257
:10272C0098D1A8E700231370F8BD00BFB481002036
:10273C00548800208F9200205489002022310020E0
:10274C009892002093920020959200200AD7233C67
:10275C00589100205086002030B500220B7989B0AA
:10276C00044658070692CDE9042203F001024FEA11
:10277C00822248BF42F040021D0748BF42F080024F
:10278C00D80648BF42F001029D0648BF42F0020243
:10279C00580648BF42F004021B064B7948BF42F072
:1027AC000802DD0648BF42F01002980648BF42F00E
:1027BC0020025D0648BF42F48072180623EA93009B
:1027CC0048BF42F4007220EAD300C50762D403EA82
:1027DC00D300C00733D50123009204F1180C0A89E9
:1027EC00C88892014D89B1F80EE080018DF818303F
:1027FC000023ADF80E20A5F500458A89AEF5004EF4
:10280C00098AADF80C00A2F500401A46A1F500416A
:10281C0065F30F0301256EF30F02EE4660F31F43C1
:10282C0061F31F42CDE90132BEE80F00ACE80F00A6
:10283C009EE807008CE80700257509B030BD03F051
:10284C000105C3F340004FEA530C85F0010580F0FD
:10285C00010005EAD30E1EEA000F1FD10CEAD30EBD
:10286C001EF0010F18D12CEA930E2EEAD30E1EF097
:10287C00010F19D10CEA930C1CF0010F10D100EAD6
:10288C00930005420ED103EA930303F00103C3F155
:10289C000803A1E700239FE703239DE702239BE79F
:1028AC00052399E7062397E7042395E7DFF8B8C1DA
:1028BC0007EE902A027F07EE101ADCF8001010B415
:1028CC00002A00F09F80046A0C1B06EE904AF8EE7A
:1028DC00666AF5EEC06AF1EE10FA07DD9FED5D6AEF
:1028EC00F4EEC66AF1EE10FA00F18F8090F87EC01B
:1028FC00B8EEC77ABCF1000F01D0B1EE477A90F870
:10290C007FC0F8EEE77ABCF1000F01D0F1EE677AE8
:10291C00002A5DD0F5EEC06AF1EE10FA58DDF7EE44
:10292C00005A90ED0A6AB4EEE56AF1EE10FA7EDD1B
:10293C00B0EE085AF3EE0E5A26EE056AB4EEE56ACE
:10294C00F1EE10FA77D4DFED445AB4EEE56AF1EE0D
:10295C0010FACCBF01220022DFED3F5A002A06FEFE
:10296C00256ABCEEC66AB8EE466AF4EEC66AF1EEAB
:10297C0010FA2DD890ED115AD0ED125A90F8422041
:10298C0037EE455A77EEE55A012A85EE266A85EE32
:10299C00A65A56D9D0ED134A022AD0ED145A80ED1E
:1029AC00156A80ED136A75EE655A80ED165A36EE8F
:1029BC00646A80ED145A86EE265A85EEA66A80ED7E
:1029CC00175A80ED186A0ED1013280F842200AE0C5
:1029DC0000224FF0010C0265C2640266C26582657A
:1029EC00426580F842C0012280ED117AC0ED127A66
:1029FC00416680ED057AC0ED067A02770162838428
:102A0C0010BC7047DFED156A70E7F7EE005A90EDD9
:102A1C000A6AB4EEE56AF1EE10FA0FD936EEC65A30
:102A2C00DFED0F5AA5EE256A80ED0A6A5EE70022FB
:102A3C009FED0C6A90E7B0EE656A96E7C0ED0A6A06
:102A4C0054E780ED156A80ED136A80ED165A80ED1F
:102A5C00145AB9E70000FA43000048430000000094
:102A6C00CDCC4C3E00001643589100204FF01A0C70
:102A7C001B4A01EB810312680CFB0033134493F8DF
:102A8C0012C0BCF1000F27D0DFED167ADFF860C062
:102A9C0000B5D2F8072083B0B3F8130000EE102A6B
:102AAC00DCF80030B4EEE70AF1EE10FA12D430B1D3
:102ABC00CDE90031FFF75AFD009B01990344DFF883
:102ACC0034C00948094ACCF8003001230170137056
:102ADC0003B000BD0344F2E7034B197000F00CB8CF
:102AEC00548900200AD7233C94920020989200200D
:102AFC0058910020A486002000B5DFF874E09EF801
:102B0C0000100131C9B2032918D8164B01EB810210
:102B1C001B6813441A2202FB003303E05FFA8CF1AA
:102B2C0004290BD09A7C01F1010C0533002AF5D055
:102B3C008EF800105DF804EBFFF798BF0A4A137883
:102B4C0043B9DFF830C0FF20084913708CF800300F
:102B5C00087000BD00218EF800105DF804EBFFF743
:102B6C0085BF00BF548900209392002022310020A1
:102B7C009492002098920020C36B2BB3826803F1CF
:102B8C003401C2F30E422F3A112A18D993F834208B
:102B9C00202A14D193F837200E2A10D1184600B5EC
:102BAC0083B001910093FFF7D7FDDDE90031D868C0
:102BBC0058B1402203B05DF804EB08F0E5BDD868CD
:102BCC0010B1402208F0E0BD704703B000BD00BF5B
:102BDC00204A137800B583B00BB100231370DFF8D3
:102BEC0084C01A23DFF880E0DCF800C08EF8000007
:102BFC0003FB00C3DFF874E08EF80010997C11B36E
:102C0C00DCF80700DFED147A00EE100A1349B3F874
:102C1C001300B4EEE70A0B68F1EE10FA11D428B1E8
:102C2C000193FFF7A3FC019B0A4A0344DFF840C061
:102C3C0000200B49CCF8003001230870137003B04E
:102C4C0000BD0344F2E7064B197003B05DF804EBCA
:102C5C00FFF752BF989200200AD7233C58910020CE
:102C6C00949200205489002022310020939200205D
:102C7C00A48600201D4BD3F8D820106891680068FA
:102C8C0010B40842137C546814BF0121002103F0D6
:102C9C000303D4F800C0D06843EA81031CEA000F98
:102CAC0043F0080118BF0B469908013B11740D2B1A
:102CBC000BD8DFE803F0110C070C0A161111160AD9
:102CCC000C070C1153690233536110BC70475369E4
:102CDC00013B10BC536170475369013310BC536105
:102CEC0070475369023B10BC53617047B489002094
:102CFC001D4BD3F8D42010689168006810B40842BA
:102D0C00137C546814BF0121002103F00303D4F891
:102D1C0000C0D06843EA81031CEA000F43F00801AD
:102D2C0018BF0B469908013B11740D2B0BD8DFE82B
:102D3C0003F0110C070C0A161111160A0C070C11D2
:102D4C0053690233536110BC70475369013B10BC8B
:102D5C00536170475369013310BC53617047536919
:102D6C00023B10BC53617047B48900201D4BD3F853
:102D7C00D02010689168006810B40842137C546825
:102D8C0014BF0121002103F00303D4F800C0D06864
:102D9C0043EA81031CEA000F43F0080118BF0B46FD
:102DAC009908013B11740D2B0BD8DFE803F0110CC3
:102DBC00070C0A161111160A0C070C115369023371
:102DCC00536110BC70475369013B10BC5361704791
:102DDC005369013310BC536170475369023B10BCFB
:102DEC0053617047B48900201D4BD3F8CC20106878
:102DFC009168006810B40842137C546814BF012118
:102E0C00002103F00303D4F800C0D06843EA810327
:102E1C001CEA000F43F0080118BF0B469908013B50
:102E2C0011740D2B0BD8DFE803F0110C070C0A16EC
:102E3C001111160A0C070C1153690233536110BCA3
:102E4C0070475369013B10BC5361704753690133A0
:102E5C0010BC536170475369023B10BC53617047FF
:102E6C00B48900201D4BD3F8C82010689168006805
:102E7C0010B40842137C546814BF0121002103F0E4
:102E8C000303D4F800C0D06843EA81031CEA000FA6
:102E9C0043F0080118BF0B469908013B11740D2B28
:102EAC000BD8DFE803F0110C070C0A161111160AE7
:102EBC000C070C1153690233536110BC70475369F2
:102ECC00013B10BC536170475369013310BC536113
:102EDC0070475369023B10BC53617047B4890020A2
:102EEC001D4BD3F8C42010689168006810B40842D8
:102EFC00137C546814BF0121002103F00303D4F8A0
:102F0C0000C0D06843EA81031CEA000F43F00801BB
:102F1C0018BF0B469908013B11740D2B0BD8DFE839
:102F2C0003F0110C070C0A161111160A0C070C11E0
:102F3C0053690233536110BC70475369013B10BC99
:102F4C00536170475369013310BC53617047536927
:102F5C00023B10BC53617047B48900201D4BD3F861
:102F6C00C02010689168006810B40842137C546843
:102F7C0014BF0121002103F00303D4F800C0D06872
:102F8C0043EA81031CEA000F43F0080118BF0B460B
:102F9C009908013B11740D2B0BD8DFE803F0110CD1
:102FAC00070C0A161111160A0C070C11536902337F
:102FBC00536110BC70475369013B10BC536170479F
:102FCC005369013310BC536170475369023B10BC09
:102FDC0053617047B48900201D4BD3F8BC20106896
:102FEC009168006810B40842137C546814BF012126
:102FFC00002103F00303D4F800C0D06843EA810336
:10300C001CEA000F43F0080118BF0B469908013B5E
:10301C0011740D2B0BD8DFE803F0110C070C0A16FA
:10302C001111160A0C070C1153690233536110BCB1
:10303C0070475369013B10BC5361704753690133AE
:10304C0010BC536170475369023B10BC536170470D
:10305C00B48900201D4BD3F8B82010689168006823
:10306C0010B40842137C546814BF0121002103F0F2
:10307C000303D4F800C0D06843EA81031CEA000FB4
:10308C0043F0080118BF0B469908013B11740D2B36
:10309C000BD8DFE803F0110C070C0A161111160AF5
:1030AC000C070C1153690233536110BC7047536900
:1030BC00013B10BC536170475369013310BC536121
:1030CC0070475369023B10BC53617047B4890020B0
:1030DC001D4BD3F8B42010689168006810B40842F6
:1030EC00137C546814BF0121002103F00303D4F8AE
:1030FC0000C0D06843EA81031CEA000F43F00801CA
:10310C0018BF0B469908013B11740D2B0BD8DFE847
:10311C0003F0110C070C0A161111160A0C070C11EE
:10312C0053690233536110BC70475369013B10BCA7
:10313C00536170475369013310BC53617047536935
:10314C00023B10BC53617047B48900201D4BD3F86F
:10315C00B02010689168006810B40842137C546861
:10316C0014BF0121002103F00303D4F800C0D06880
:10317C0043EA81031CEA000F43F0080118BF0B4619
:10318C009908013B11740D2B0BD8DFE803F0110CDF
:10319C00070C0A161111160A0C070C11536902338D
:1031AC00536110BC70475369013B10BC53617047AD
:1031BC005369013310BC536170475369023B10BC17
:1031CC0053617047B48900201D4BD3F8AC201068B4
:1031DC009168006810B40842137C546814BF012134
:1031EC00002103F00303D4F800C0D06843EA810344
:1031FC001CEA000F43F0080118BF0B469908013B6D
:10320C0011740D2B0BD8DFE803F0110C070C0A1608
:10321C001111160A0C070C1153690233536110BCBF
:10322C0070475369013B10BC5361704753690133BC
:10323C0010BC536170475369023B10BC536170471B
:10324C00B48900201D4BD3F8A82010689168006841
:10325C0010B40842137C546814BF0121002103F000
:10326C000303D4F800C0D06843EA81031CEA000FC2
:10327C0043F0080118BF0B469908013B11740D2B44
:10328C000BD8DFE803F0110C070C0A161111160A03
:10329C000C070C1153690233536110BC704753690E
:1032AC00013B10BC536170475369013310BC53612F
:1032BC0070475369023B10BC53617047B4890020BE
:1032CC001D4BD3F8A42010689168006810B4084214
:1032DC00137C546814BF0121002103F00303D4F8BC
:1032EC0000C0D06843EA81031CEA000F43F00801D8
:1032FC0018BF0B469908013B11740D2B0BD8DFE856
:10330C0003F0110C070C0A161111160A0C070C11FC
:10331C0053690233536110BC70475369013B10BCB5
:10332C00536170475369013310BC53617047536943
:10333C00023B10BC53617047B48900201D4BD3F87D
:10334C00A02010689168006810B40842137C54687F
:10335C0014BF0121002103F00303D4F800C0D0688E
:10336C0043EA81031CEA000F43F0080118BF0B4627
:10337C009908013B11740D2B0BD8DFE803F0110CED
:10338C00070C0A161111160A0C070C11536902339B
:10339C00536110BC70475369013B10BC53617047BB
:1033AC005369013310BC536170475369023B10BC25
:1033BC0053617047B48900201D4BD3F89C201068D2
:1033CC009168006810B40842137C546814BF012142
:1033DC00002103F00303D4F800C0D06843EA810352
:1033EC001CEA000F43F0080118BF0B469908013B7B
:1033FC0011740D2B0BD8DFE803F0110C070C0A1617
:10340C001111160A0C070C1153690233536110BCCD
:10341C0070475369013B10BC5361704753690133CA
:10342C0010BC536170475369023B10BC5361704729
:10343C00B48900201D4BD3F898201068916800685F
:10344C0010B40842137C546814BF0121002103F00E
:10345C000303D4F800C0D06843EA81031CEA000FD0
:10346C0043F0080118BF0B469908013B11740D2B52
:10347C000BD8DFE803F0110C070C0A161111160A11
:10348C000C070C1153690233536110BC704753691C
:10349C00013B10BC536170475369013310BC53613D
:1034AC0070475369023B10BC53617047B4890020CC
:1034BC001D4BD3F8942010689168006810B4084232
:1034CC00137C546814BF0121002103F00303D4F8CA
:1034DC0000C0D06843EA81031CEA000F43F00801E6
:1034EC0018BF0B469908013B11740D2B0BD8DFE864
:1034FC0003F0110C070C0A161111160A0C070C110B
:10350C0053690233536110BC70475369013B10BCC3
:10351C00536170475369013310BC53617047536951
:10352C00023B10BC53617047B48900201D4BD3F88B
:10353C00902010689168006810B40842137C54689D
:10354C0014BF0121002103F00303D4F800C0D0689C
:10355C0043EA81031CEA000F43F0080118BF0B4635
:10356C009908013B11740D2B0BD8DFE803F0110CFB
:10357C00070C0A161111160A0C070C1153690233A9
:10358C00536110BC70475369013B10BC53617047C9
:10359C005369013310BC536170475369023B10BC33
:1035AC0053617047B48900201D4BD3F88C201068F0
:1035BC009168006810B40842137C546814BF012150
:1035CC00002103F00303D4F800C0D06843EA810360
:1035DC001CEA000F43F0080118BF0B469908013B89
:1035EC0011740D2B0BD8DFE803F0110C070C0A1625
:1035FC001111160A0C070C1153690233536110BCDC
:10360C0070475369013B10BC5361704753690133D8
:10361C0010BC536170475369023B10BC5361704737
:10362C00B48900201D4BD3F888201068916800687D
:10363C0010B40842137C546814BF0121002103F01C
:10364C000303D4F800C0D06843EA81031CEA000FDE
:10365C0043F0080118BF0B469908013B11740D2B60
:10366C000BD8DFE803F0110C070C0A161111160A1F
:10367C000C070C1153690233536110BC704753692A
:10368C00013B10BC536170475369013310BC53614B
:10369C0070475369023B10BC53617047B4890020DA
:1036AC001D4BD3F8842010689168006810B4084250
:1036BC00137C546814BF0121002103F00303D4F8D8
:1036CC0000C0D06843EA81031CEA000F43F00801F4
:1036DC0018BF0B469908013B11740D2B0BD8DFE872
:1036EC0003F0110C070C0A161111160A0C070C1119
:1036FC0053690233536110BC70475369013B10BCD2
:10370C00536170475369013310BC5361704753695F
:10371C00023B10BC53617047B48900201D4BD3F899
:10372C00802010689168006810B40842137C5468BB
:10373C0014BF0121002103F00303D4F800C0D068AA
:10374C0043EA81031CEA000F43F0080118BF0B4643
:10375C009908013B11740D2B0BD8DFE803F0110C09
:10376C00070C0A161111160A0C070C1153690233B7
:10377C00536110BC70475369013B10BC53617047D7
:10378C005369013310BC536170475369023B10BC41
:10379C0053617047B48900201D4BDA6F1068916833
:1037AC00006810B40842137C546814BF0121002136
:1037BC0003F00303D4F800C0D06843EA81031CEA89
:1037CC00000F43F0080118BF0B469908013B117418
:1037DC000D2B0BD8DFE803F0110C070C0A16111196
:1037EC00160A0C070C1153690233536110BC704755
:1037FC005369013B10BC536170475369013310BCD2
:10380C00536170475369023B10BC5361704700BF52
:10381C00B48900201D4B9A6F10689168006810B431
:10382C000842137C546814BF0121002103F00303E8
:10383C00D4F800C0D06843EA81031CEA000F43F0BF
:10384C00080118BF0B469908013B11740D2B0BD8BE
:10385C00DFE803F0110C070C0A161111160A0C07FD
:10386C000C1153690233536110BC70475369013B0F
:10387C0010BC536170475369013310BC53617047DE
:10388C005369023B10BC5361704700BFB4890020E0
:10389C001D4B5A6F10689168006810B40842137C75
:1038AC00546814BF0121002103F00303D4F800C0B5
:1038BC00D06843EA81031CEA000F43F0080118BFEB
:1038CC000B469908013B11740D2B0BD8DFE803F064
:1038DC00110C070C0A161111160A0C070C1153695E
:1038EC000233536110BC70475369013B10BC5361E8
:1038FC0070475369013310BC536170475369023BE5
:10390C0010BC5361704700BFB48900201D4B1A6F67
:10391C0010689168006810B40842137C546814BF96
:10392C000121002103F00303D4F800C0D06843EA5E
:10393C0081031CEA000F43F0080118BF0B469908DD
:10394C00013B11740D2B0BD8DFE803F0110C070CA5
:10395C000A161111160A0C070C1153690233536124
:10396C0010BC70475369013B10BC536170475369DD
:10397C00013310BC536170475369023B10BC536157
:10398C00704700BFB48900201D4BDA6E1068916837
:10399C00006810B40842137C546814BF0121002144
:1039AC0003F00303D4F800C0D06843EA81031CEA97
:1039BC00000F43F0080118BF0B469908013B117426
:1039CC000D2B0BD8DFE803F0110C070C0A161111A4
:1039DC00160A0C070C1153690233536110BC704763
:1039EC005369013B10BC536170475369013310BCE0
:1039FC00536170475369023B10BC5361704700BF61
:103A0C00B48900201D4B9A6E10689168006810B440
:103A1C000842137C546814BF0121002103F00303F6
:103A2C00D4F800C0D06843EA81031CEA000F43F0CD
:103A3C00080118BF0B469908013B11740D2B0BD8CC
:103A4C00DFE803F0110C070C0A161111160A0C070B
:103A5C000C1153690233536110BC70475369013B1D
:103A6C0010BC536170475369013310BC53617047EC
:103A7C005369023B10BC5361704700BFB4890020EE
:103A8C001D4B5A6E10689168006810B40842137C84
:103A9C00546814BF0121002103F00303D4F800C0C3
:103AAC00D06843EA81031CEA000F43F0080118BFF9
:103ABC000B469908013B11740D2B0BD8DFE803F072
:103ACC00110C070C0A161111160A0C070C1153696C
:103ADC000233536110BC70475369013B10BC5361F6
:103AEC0070475369013310BC536170475369023BF3
:103AFC0010BC5361704700BFB48900201D4B1A6E77
:103B0C0010689168006810B40842137C546814BFA4
:103B1C000121002103F00303D4F800C0D06843EA6C
:103B2C0081031CEA000F43F0080118BF0B469908EB
:103B3C00013B11740D2B0BD8DFE803F0110C070CB3
:103B4C000A161111160A0C070C1153690233536132
:103B5C0010BC70475369013B10BC536170475369EB
:103B6C00013310BC536170475369023B10BC536165
:103B7C00704700BFB48900201D4BDA6D1068916846
:103B8C00006810B40842137C546814BF0121002152
:103B9C0003F00303D4F800C0D06843EA81031CEAA5
:103BAC00000F43F0080118BF0B469908013B117434
:103BBC000D2B0BD8DFE803F0110C070C0A161111B2
:103BCC00160A0C070C1153690233536110BC704771
:103BDC005369013B10BC536170475369013310BCEE
:103BEC00536170475369023B10BC5361704700BF6F
:103BFC00B48900201D4B9A6D10689168006810B450
:103C0C000842137C546814BF0121002103F0030304
:103C1C00D4F800C0D06843EA81031CEA000F43F0DB
:103C2C00080118BF0B469908013B11740D2B0BD8DA
:103C3C00DFE803F0110C070C0A161111160A0C0719
:103C4C000C1153690233536110BC70475369013B2B
:103C5C0010BC536170475369013310BC53617047FA
:103C6C005369023B10BC5361704700BFB4890020FC
:103C7C001D4B5A6D10689168006810B40842137C93
:103C8C00546814BF0121002103F00303D4F800C0D1
:103C9C00D06843EA81031CEA000F43F0080118BF07
:103CAC000B469908013B11740D2B0BD8DFE803F080
:103CBC00110C070C0A161111160A0C070C1153697A
:103CCC000233536110BC70475369013B10BC536104
:103CDC0070475369013310BC536170475369023B01
:103CEC0010BC5361704700BFB48900201D4B1A6D86
:103CFC0010689168006810B40842137C546814BFB3
:103D0C000121002103F00303D4F800C0D06843EA7A
:103D1C0081031CEA000F43F0080118BF0B469908F9
:103D2C00013B11740D2B0BD8DFE803F0110C070CC1
:103D3C000A161111160A0C070C1153690233536140
:103D4C0010BC70475369013B10BC536170475369F9
:103D5C00013310BC536170475369023B10BC536173
:103D6C00704700BFB48900201D4BDA6C1068916855
:103D7C00006810B40842137C546814BF0121002160
:103D8C0003F00303D4F800C0D06843EA81031CEAB3
:103D9C00000F43F0080118BF0B469908013B117442
:103DAC000D2B0BD8DFE803F0110C070C0A161111C0
:103DBC00160A0C070C1153690233536110BC70477F
:103DCC005369013B10BC536170475369013310BCFC
:103DDC00536170475369023B10BC5361704700BF7D
:103DEC00B48900201D4B9A6C10689168006810B45F
:103DFC000842137C546814BF0121002103F0030313
:103E0C00D4F800C0D06843EA81031CEA000F43F0E9
:103E1C00080118BF0B469908013B11740D2B0BD8E8
:103E2C00DFE803F0110C070C0A161111160A0C0727
:103E3C000C1153690233536110BC70475369013B39
:103E4C0010BC536170475369013310BC5361704708
:103E5C005369023B10BC5361704700BFB48900200A
:103E6C001D4B5A6C10689168006810B40842137CA2
:103E7C00546814BF0121002103F00303D4F800C0DF
:103E8C00D06843EA81031CEA000F43F0080118BF15
:103E9C000B469908013B11740D2B0BD8DFE803F08E
:103EAC00110C070C0A161111160A0C070C11536988
:103EBC000233536110BC70475369013B10BC536112
:103ECC0070475369013310BC536170475369023B0F
:103EDC0010BC5361704700BFB48900201D4B1A6C95
:103EEC0010689168006810B40842137C546814BFC1
:103EFC000121002103F00303D4F800C0D06843EA89
:103F0C0081031CEA000F43F0080118BF0B46990807
:103F1C00013B11740D2B0BD8DFE803F0110C070CCF
:103F2C000A161111160A0C070C115369023353614E
:103F3C0010BC70475369013B10BC53617047536907
:103F4C00013310BC536170475369023B10BC536181
:103F5C00704700BFB48900201D4BDA6B1068916864
:103F6C00006810B40842137C546814BF012100216E
:103F7C0003F00303D4F800C0D06843EA81031CEAC1
:103F8C00000F43F0080118BF0B469908013B117450
:103F9C000D2B0BD8DFE803F0110C070C0A161111CE
:103FAC00160A0C070C1153690233536110BC70478D
:103FBC005369013B10BC536170475369013310BC0A
:103FCC00536170475369023B10BC5361704700BF8B
:103FDC00B48900201D4B9A6B10689168006810B46E
:103FEC000842137C546814BF0121002103F0030321
:103FFC00D4F800C0D06843EA81031CEA000F43F0F8
:10400C00080118BF0B469908013B11740D2B0BD8F6
:10401C00DFE803F0110C070C0A161111160A0C0735
:10402C000C1153690233536110BC70475369013B47
:10403C0010BC536170475369013310BC5361704716
:10404C005369023B10BC5361704700BFB489002018
:10405C001D4B5A6B10689168006810B40842137CB1
:10406C00546814BF0121002103F00303D4F800C0ED
:10407C00D06843EA81031CEA000F43F0080118BF23
:10408C000B469908013B11740D2B0BD8DFE803F09C
:10409C00110C070C0A161111160A0C070C11536996
:1040AC000233536110BC70475369013B10BC536120
:1040BC0070475369013310BC536170475369023B1D
:1040CC0010BC5361704700BFB48900201D4B1A6BA4
:1040DC0010689168006810B40842137C546814BFCF
:1040EC000121002103F00303D4F800C0D06843EA97
:1040FC0081031CEA000F43F0080118BF0B46990816
:10410C00013B11740D2B0BD8DFE803F0110C070CDD
:10411C000A161111160A0C070C115369023353615C
:10412C0010BC70475369013B10BC53617047536915
:10413C00013310BC536170475369023B10BC53618F
:10414C00704700BFB48900201D4BDA6A1068916873
:10415C00006810B40842137C546814BF012100217C
:10416C0003F00303D4F800C0D06843EA81031CEACF
:10417C00000F43F0080118BF0B469908013B11745E
:10418C000D2B0BD8DFE803F0110C070C0A161111DC
:10419C00160A0C070C1153690233536110BC70479B
:1041AC005369013B10BC536170475369013310BC18
:1041BC00536170475369023B10BC5361704700BF99
:1041CC00B48900201D4B9A6A10689168006810B47D
:1041DC000842137C546814BF0121002103F003032F
:1041EC00D4F800C0D06843EA81031CEA000F43F006
:1041FC00080118BF0B469908013B11740D2B0BD805
:10420C00DFE803F0110C070C0A161111160A0C0743
:10421C000C1153690233536110BC70475369013B55
:10422C0010BC536170475369013310BC5361704724
:10423C005369023B10BC5361704700BFB489002026
:10424C001D4B5A6A10689168006810B40842137CC0
:10425C00546814BF0121002103F00303D4F800C0FB
:10426C00D06843EA81031CEA000F43F0080118BF31
:10427C000B469908013B11740D2B0BD8DFE803F0AA
:10428C00110C070C0A161111160A0C070C115369A4
:10429C000233536110BC70475369013B10BC53612E
:1042AC0070475369013310BC536170475369023B2B
:1042BC0010BC5361704700BFB48900201D4B1A6AB3
:1042CC0010689168006810B40842137C546814BFDD
:1042DC000121002103F00303D4F800C0D06843EAA5
:1042EC0081031CEA000F43F0080118BF0B46990824
:1042FC00013B11740D2B0BD8DFE803F0110C070CEC
:10430C000A161111160A0C070C115369023353616A
:10431C0010BC70475369013B10BC53617047536923
:10432C00013310BC536170475369023B10BC53619D
:10433C00704700BFB48900201D4BDA691068916882
:10434C00006810B40842137C546814BF012100218A
:10435C0003F00303D4F800C0D06843EA81031CEADD
:10436C00000F43F0080118BF0B469908013B11746C
:10437C000D2B0BD8DFE803F0110C070C0A161111EA
:10438C00160A0C070C1153690233536110BC7047A9
:10439C005369013B10BC536170475369013310BC26
:1043AC00536170475369023B10BC5361704700BFA7
:1043BC00B48900201D4B9A6910689168006810B48C
:1043CC000842137C546814BF0121002103F003033D
:1043DC00D4F800C0D06843EA81031CEA000F43F014
:1043EC00080118BF0B469908013B11740D2B0BD813
:1043FC00DFE803F0110C070C0A161111160A0C0752
:10440C000C1153690233536110BC70475369013B63
:10441C0010BC536170475369013310BC5361704732
:10442C005369023B10BC5361704700BFB489002034
:10443C001D4B5A6910689168006810B40842137CCF
:10444C00546814BF0121002103F00303D4F800C009
:10445C00D06843EA81031CEA000F43F0080118BF3F
:10446C000B469908013B11740D2B0BD8DFE803F0B8
:10447C00110C070C0A161111160A0C070C115369B2
:10448C000233536110BC70475369013B10BC53613C
:10449C0070475369013310BC536170475369023B39
:1044AC0010BC5361704700BFB48900201D4B1A69C2
:1044BC0010689168006810B40842137C546814BFEB
:1044CC000121002103F00303D4F800C0D06843EAB3
:1044DC0081031CEA000F43F0080118BF0B46990832
:1044EC00013B11740D2B0BD8DFE803F0110C070CFA
:1044FC000A161111160A0C070C1153690233536179
:10450C0010BC70475369013B10BC53617047536931
:10451C00013310BC536170475369023B10BC5361AB
:10452C00704700BFB48900201D4BDA681068916891
:10453C00006810B40842137C546814BF0121002198
:10454C0003F00303D4F800C0D06843EA81031CEAEB
:10455C00000F43F0080118BF0B469908013B11747A
:10456C000D2B0BD8DFE803F0110C070C0A161111F8
:10457C00160A0C070C1153690233536110BC7047B7
:10458C005369013B10BC536170475369013310BC34
:10459C00536170475369023B10BC5361704700BFB5
:1045AC00B48900201D4B9A6810689168006810B49B
:1045BC000842137C546814BF0121002103F003034B
:1045CC00D4F800C0D06843EA81031CEA000F43F022
:1045DC00080118BF0B469908013B11740D2B0BD821
:1045EC00DFE803F0110C070C0A161111160A0C0760
:1045FC000C1153690233536110BC70475369013B72
:10460C0010BC536170475369013310BC5361704740
:10461C005369023B10BC5361704700BFB489002042
:10462C001D4B5A6810689168006810B40842137CDE
:10463C00546814BF0121002103F00303D4F800C017
:10464C00D06843EA81031CEA000F43F0080118BF4D
:10465C000B469908013B11740D2B0BD8DFE803F0C6
:10466C00110C070C0A161111160A0C070C115369C0
:10467C000233536110BC70475369013B10BC53614A
:10468C0070475369013310BC536170475369023B47
:10469C0010BC5361704700BFB48900201D4B1A68D1
:1046AC0010689168006810B40842137C546814BFF9
:1046BC000121002103F00303D4F800C0D06843EAC1
:1046CC0081031CEA000F43F0080118BF0B46990840
:1046DC00013B11740D2B0BD8DFE803F0110C070C08
:1046EC000A161111160A0C070C1153690233536187
:1046FC0010BC70475369013B10BC53617047536940
:10470C00013310BC536170475369023B10BC5361B9
:10471C00704700BFB48900204B490122F8B54B4CBF
:10472C000B782254002B67D149490A78002A71D1A1
:10473C00484B1E68002E3AD0B379002B37D0464B2D
:10474C00F17A1B681F4691B333460AE0BCF1020FA5
:10475C002ED193F80DC0844561D001321A338A42B0
:10476C0025D093F80CC0D5B2BCF1010FEED193F863
:10477C000DC08445F1D11A2303FB0263D97B0129B7
:10478C0002D0022905D091B92846BDE8F840FEF7C1
:10479C001FBA32498B5C83F001038B54002B4CD134
:1047AC002F4CFF212F48304A237003701170F8BD35
:1047BC00BCF1030FD1D193F80DC0844507D093F809
:1047CC000EE08645C9D114F80C30002BEFD01A231B
:1047DC0003FB0263997B615C0029E8D0D97B01293A
:1047EC00D2D00229CFD11D498B5C83F001038B54AD
:1047FC00002BD5D00121C7E700231C4C0A220B70DB
:10480C00207001461A480FF0E5F81948BDE8F84049
:10481C000FF0B8B8154A0B7010700A22F1E7154B5F
:10482C0053F8201043F820707B1A312BBFD91A2172
:10483C0001FB0262128A9A42B9D328460021BDE8D4
:10484C00F840FEF7C5B900BF8992002054880020BB
:10485C008492002054890020589100206C860020FE
:10486C009892002093920020223100208F920020F9
:10487C00F0290020C48100204A4B02689A4210B5EE
:10488C007ED10379042B7BD1431D00F13F0C002416
:10489C0013F8012F634584EA0204F9D14179A1424E
:1048AC0074D1D0ED027AF5EEC07AF1EE10FA67D43D
:1048BC00B7EE007AF4EEC77AF1EE10FA60DCD0EDC8
:1048CC00037AF5EEC07AF1EE10FA59D4F3EE046ADD
:1048DC00F4EEE67AF1EE10FA52DCD0ED047ADFED6C
:1048EC00326AF4EEE67AF1EE10FA49D4B1EE046ACB
:1048FC00F4EEC67AF1EE10FA42DCD0ED057AF4EE65
:10490C00E67AF1EE10FA3BD4F4EEC77AF1EE10FA37
:10491C0036DCB6EE007AD0ED067AF4EEC77AF1EE1C
:10492C0010FA2DD4B0EE087AF4EEC77AF1EE10FA44
:10493C0026DC00F11B0300F11F0413F8011F0A1FF2
:10494C00D2B2002918BFE32A94BF0122002217D843
:10495C009C42F2D190F82C30012B11D800F12F038E
:10496C0001E0634510D013F8011F081F01F110047A
:10497C00C0B2E4B2E328F4D90029F2D0062CF0D965
:10498C000A480EF0FFFF0022104610BD0023102233
:10499C0006480FF01FF800231022214603480FF0A1
:1049AC0019F8EDE7314D4941CDCCCC3DF029002033
:1049BC00504B10B502689A4240F096800379022B56
:1049CC0040F09280431D00F13F01002413F8012FA9
:1049DC00994284EA0204F9D14179A14279D10022A9
:1049EC0000EB420101324B8A03F5FA739BB2B3F52B
:1049FC007A7F79D80B8C03F5FA739BB2B3F57A7F77
:104A0C0072D8072AECD1428E40F6B8339A426BD852
:104A1C00828E9A4268D8D0F806309FED377A07EE2E
:104A2C00903AF4EEC77AF1EE10FA5DD4F2EE0E6A1B
:104A3C00F4EEE67AF1EE10FA56DCD0F82E3007EEF2
:104A4C00903AF5EEC07AF1EE10FA4DD4F3EE046A1A
:104A5C00F4EEE67AF1EE10FA46DCD0F80A3007EE06
:104A6C00903AF4EEC77AF1EE10FA3DD4B2EE0E7A2B
:104A7C00F4EEC77AF1EE10FA36DC90F83630053BDE
:104A8C005A2B31D8D0F80E3042F21C52A3F5FA73DF
:104A9C00934229D890F83730092B25D890F8383024
:104AAC00092B21D890F839301F2B1DD8C36BB7EECA
:104ABC00007A07EE903AF4EEC77AF1EE10FA13D4BE
:104ACC009FED0E7AF4EEC77AF1EE10FA0CDC0120B1
:104ADC0010BD002310220A480EF07CFF0023102288
:104AEC00214607480EF076FF05480EF04BFF0020DC
:104AFC0010BD00BF314D4943CDCCCC3D000000442E
:104B0C00F0290020704700BF10B5002304460E4A60
:104B1C000321A382226023630C48C4E90133C4E956
:104B2C000333C4E90633C4E90833C4E90A330CF08F
:104B3C0033FA042106480CF047FA012105480CF021
:104B4C005DFA204610BD00BF6C1A0020E042002028
:104B5C00E0410020788900202DE9F047002406462A
:104B6C004FF0FF0A2030FB4D4FF4407834704FF477
:104B7C00687774703562B470C6F86403F470C6F864
:104B8C00800386F804A0B4737462B46286F805A03E
:104B9C0008F040FE06F58060C6F8005406F5805516
:104BAC00C6F84407C6F86007C6F80444C6F80844BB
:104BBC0008F030FEDFF8A49306F5FC6006F61873D7
:104BCC00C6F8E097C6F8680BA6F8588BC6F8183FDD
:104BDC00C6F8E447C6F8E847C6F8384BC6F83C4B6D
:104BEC00C6F8404BC6F8444BC6F8484BC6F84C4B7D
:104BFC00C6F8504BC6F8544B86F85A4B86F81E4FE5
:104C0C00A6F81C7F07F09CFF41F2586306F5726012
:104C1C00C6F8209FF318C6F8244FC6F8284FC5F8DD
:104C2C005836A5F8988285F89A42A5F85C7685F8EE
:104C3C005E46C5F8A802C5E99E44C5E9A044C5E98D
:104C4C00A244C5E9A44407F07BFF41F6985306F54E
:104C5C00B350C5F86446F318C5F86846C5F86096B5
:104C6C00C5F8B849C5F8BC49C5F8C049C5F8C44928
:104C7C00C5F8C849C5F8CC49C5F8D049C5F8D449D8
:104C8C00A5F8D88985F8DA49A5F89C7D85F89E4D5C
:104C9C00C5F8983DC5F8E80907F052FF42F2D84232
:104CAC0005F58053C5F8A44DC5F8A84DB218C5F844
:104CBC00A09D06F5ED5006F50055C3E93E44C3E949
:104CCC004044C3E94244C3E94444A5F8188183F83D
:104CDC001A41C5F82801C3F8D824A3F8DC7483F86A
:104CEC00DE4407F02DFF42F2E04042F61843A5F8EF
:104CFC0058883018DFF86882F318C5F8E094A5F8E6
:104D0C001C7C08F15809C5F8183CC5F8E444C5F8F2
:104D1C00E844C5F83848C5F83C48C5F84048C5F8DB
:104D2C004448C5F84848C5F84C48C5F85048C5F83B
:104D3C00544885F85A4885F81E4CC5F8680807F0A1
:104D4C00FFFE42F6204085F8A24C3018C5F8244CE2
:104D5C00C5F8284CC5F8304C85F8344CC5F8384C9F
:104D6C00C5F83C4CC5F8208CC5F8484CC5F84C4CE3
:104D7C0085F87E4C85F8804CC5F88C4CC5F8904C69
:104D8C00C5F8944CC5F8984CC5F89C4CA5F8A04CAB
:104D9C00A5F8A4ACC5F8B04CC5F8B44CC5F8B84CE3
:104DAC00C5F8BC4C85F8AF4C85F8A34CC5F82C9CC9
:104DBC000BF058FDC5F8C08CDFF8A88106F5335010
:104DCC0085F8424DC5F8CC9C08F14C09C5F8C44C8B
:104DDC00C5F8C84CC5F8D04C85F8D44CC5F8D84C9F
:104DEC00C5F8DC4CC5F8E84CC5F8EC4C85F81E4D04
:104DFC0085F8204DC5F82C4DC5F8304DC5F8344D0F
:104E0C00C5F8384DC5F83C4DA5F8404D85F8434DD7
:104E1C00A5F844AD85F84F4DC5F8504DC5F8544D27
:104E2C00C5F8584DC5F85C4D0BF01CFD42F66050B2
:104E3C0085F8854D3018C5F8644DC5F8684DC5F832
:104E4C00704D85F8744DC5F8784DC5F87C4DC5F896
:104E5C00608DC5F8804D85F8844D85F8864D85F8B4
:104E6C00874DC5F8884DC5F88C4DC5F8904DC5F8E3
:104E7C00944DC5F86C9D0CF0CBFA42F6985085F821
:104E8C00BD4D3018C5F8988DC5F89C4DC5F8A04D92
:104E9C00C5F8A84D85F8AC4DC5F8B04DC5F8B44D66
:104EAC00C5F8A49DC5F8B84D85F8BC4D85F8BE4D28
:104EBC0085F8BF4DC5F8C04DC5F8C44DC5F8C84DF3
:104ECC00C5F8CC4D0CF0A4FA234B2146C5F8E44DA3
:104EDC0003F16C02C5F8E03D9833C5F8E84DC5F810
:104EEC00F04D05F62860C5F8F83D40F20113C5F801
:104EFC00F44DA5F8183E0123C5F8FC4D85F8004E7D
:104F0C00C5F8044EC5F8084E85F80C4EC5F8104E81
:104F1C00C5F8144EC5F81C4EA5F8204E85F8224E47
:104F2C00C5F8244EC5F8EC2D4FF4807285F81A3E66
:104F3C0012F02EFF05F55E6300200021C3E952013B
:104F4C00C3E95401002140F2FF30C3E95601C5F812
:104F5C00404F09E0481C0020B01A0020A81800207F
:104F6C00841B0020E4190020C5F8444FC5F8484FB5
:104F7C00C5F84C4F0FF0E8F885F8544FC5F8500FB2
:104F8C0006F5405542F6E05085F875423018C5F8E4
:104F9C00764209F02BFB43F220303018FFF7B4FDBA
:104FAC0085F894433046C6F80640C6F80A40BDE87A
:104FBC00F08700BF00B583B0019006F059F9019855
:104FCC00064A00F50050064BC0F8482CC0F8E82CF7
:104FDC00C0F84C3CC0F8EC3C03B000BD35010000FF
:104FEC005101000010B5044682B0019107F01AF986
:104FFC0004F500530199D3F8682DBAB3012204F5D6
:10500C00405080F8942393F8852D5ABB93F8BD3DFE
:10501C0003F0FF000BB902B010BD42F698502018F7
:10502C0090F827206FF07E040A70826A7F2AA8BF4E
:10503C007F22A242B8BF22464A80D0E90B237F2AA6
:10504C00A8BF7F227F2BA8BF7F23A242B8BF2246D6
:10505C00A342B8BF23468A808B710CF0E5F901207E
:10506C0002B010BD42F660502018D9E7D3F8A02D3D
:10507C00003A18BF0122C2E7704700BF00F540504C
:10508C0090F89403704700BF2DE9F04F044689B0A7
:10509C000D4607F0C7F804F5005E9EF8223ECBB92A
:1050AC0004F5405C9CF8340310B909B0BDE8F08FEE
:1050BC000CF54E7403F0FF06AE460FCCAEE80F00B5
:1050CC0094E807008EE807008CF83463012009B0DF
:1050DC00BDE8F08F42F6246342F64C6CDEF8241ED9
:1050EC002A46E318A44442F8021B53F8040F9C45CB
:1050FC0022F8020FF9D19EF80C3E033B012B0CD980
:10510C00B5F916309AB2092A28BFFF232B7642F63E
:10511C00E050201809F0C0FDD8E7B5F9043040F292
:10512C00FF3EB5F9080001F48079A3F50046002391
:10513C00A0F50040B5F906209C46069301F4806A60
:10514C0060F30F0C47F6FF70CDE90433821A66F357
:10515C000F0362F31F43B5F90E20801A6A8972455A
:10516C0060F31F4CC1F3C02028BF72464FEA82186F
:10517C00AA89724528BF72464E05C1F3002E4FEA2C
:10518C00821218D4BEF1000F1BD0EE468DF8180019
:10519C00ADF80C80ADF80E20CDE9013C21F4706324
:1051AC00AC460093BEE80F00ACE80F009EE8070089
:1051BC008CE80700ABE7BEF1000F02D008B101206C
:1051CC00E3E701F400764F46B3462FB920B14E45C4
:1051DC000CBF02200320D8E74FEA5B27BBF1000F7E
:1051EC0000D0C0B911F4406F00D1B7B94FEA9A2082
:1051FC0017B108B10520C8E7BBF1000F14BF00269A
:10520C0000F0010616B1B9F1000F08D00EEA000E3D
:10521C00CEF10800B9E70320B7E70420B5E7062074
:10522C00B3E700BF00F50053D3F8F43D0BB10120F8
:10523C00704700F5405090F83503704700F500506A
:10524C00D0F8283C0BB101207047D0F8C80CC01A1C
:10525C0018BF0120704700BF0138022808B505D8D7
:10526C0008480EF08FFB07480EF08CFB05480EF03B
:10527C0089FB64200EF012FF0248BDE808400EF0D6
:10528C0081BB00BFF0290020FFEE007A70B5B4EEB0
:10529C00E70A86B0F1EE10FA00F1C180F7EE007A61
:1052AC009FED707AB4EEE70AF1EE10FA77FE807A91
:1052BC0067EE877AFDEEE77A17EE90CAFFEE007A7A
:1052CC005FFA8CF1CCF3072CF4EEE70AF1EE10FA4E
:1052DC0000F1B080F7EE007A9FED627AF4EEE70A07
:1052EC00F1EE10FA77FEA07A67EE877AFDEEE77A98
:1052FC0017EE904AFFEE007A5FFA84FEB4EEE71ADE
:10530C00240AF1EE10FA00F1A080F7EE007A9FED7E
:10531C00557AB4EEE71AF1EE10FA77FE817A67EE61
:10532C00877AFDEEE77A17EE902AFFEE007A160ADE
:10533C00F4EEE71AF1EE10FA00F19180F7EE007A34
:10534C009FED487AF4EEE71AF1EE10FA77FEA17AA7
:10535C0067EE877AFDEEE77A17EE903AC3F30725EE
:10536C008DF80A20020A8DF80C30030A02F00202B2
:10537C008DF80B6003F0810306011343020A06F05B
:10538C00100602F004021A430023019304930593C0
:10539C0065F307038DF81140440A61F30F23C1082C
:1053AC006CF317434FEA102C6EF31F630CF0080CD0
:1053BC00CDF80D30C0F30013334343EAC11142EA78
:1053CC000C0304F01002C409134304F02004020A75
:1053DC002343040102F0400204F0200413430209A9
:1053EC0002F002028DF8063041EA02030101C0F31B
:1053FC008012C0F3C010234301F0400140425242DE
:10540C000B4314218DF8090001A88DF808208DF8A4
:10541C0007308DF8051010F02DF906B070BDFFEEB9
:10542C00007A4FF0800C0121F4EEE70AF1EE10FA4D
:10543C007FF550AFFFEE007A80244FF0010EB4EEF2
:10544C00E71AF1EE10FA7FF560AFFFEE007A8026D6
:10545C000122F4EEE71AF1EE10FA7FF56FAF80251A
:10546C0001237DE700FEFF460B4611460022D3F8D0
:10547C0000C003601846DCF81C30184770B50446B1
:10548C00006820B3002504F10E060DE0627C531C6D
:10549C002244DBB2082B6374107204D9237CA574EC
:1054AC000A2B657414D0206803681B69984770B187
:1054BC00206803685B699847A37CC0B2002BE5D1D8
:1054CC00FE28F0D1012320726374A374EBE770BD46
:1054DC0004F10803002213F8011FB34282EA01020F
:1054EC00F9D1E37B9342DED1B4F80D30C82BDAD876
:1054FC00B4F90B202046B4F90910FDF7D7F9D2E71F
:10550C00B5EEC00A00230B80F1EE10FA138019D906
:10551C00F3EE045A90ED0E6AB7EE007AD0ED0F7AE6
:10552C00C6EE006A0023836380EE256A76EEE76A96
:10553C00B4EEC76AF1EE10FA37FE067AE7EE267A79
:10554C00C0ED0F7A0379002B00F0C9810368002BA2
:10555C0000F0C581037F002B00F0C18190F8693009
:10556C00012B00F0B881022B03D1C379002B00F082
:10557C00B681F7EE006ADFF8C0C390ED0A7ADCF86A
:10558C000030B4EEE67A10B5046AF1EE10FAA3EB33
:10559C00040307EE903AF8EE677A40F3A481B4EE78
:1055AC00E77AF1EE10FA80F2B581F0EE086AB3EE0C
:1055BC000E6A67EE266AF4EEC66AF1EE10FA00F196
:1055CC00AC819FEDD76AF4EEC66AF1EE10FACCBF4F
:1055DC00012300239FEDD26A002B46FE866AFCEE67
:1055EC00E66AF8EE666AF4EEE67AF1EE10FA80F20C
:1055FC008D8177EEC77A76EEC76AB7EE006A87EED2
:10560C00A67A36EE476AB5EEC06AF1EE10FA40F2B1
:10561C007D81B0F87A3090ED057A5BB107EE903A67
:10562C00F0EEC76AFBEEEF7AF4EEE76AF1EE10FAF1
:10563C0000F36C81B0F87C30D0ED066A5BB107EEFC
:10564C00903AF0EEE65AFBEEEF7AF4EEE75AF1EE12
:10565C0010FA00F35B81B0F876305BB107EE903A4C
:10566C00F0EEC75AF8EE677AF4EEE75AF1EE10FA5C
:10567C0000F1448190F88430002B00F0898090F880
:10568C008530002B00F0848090F842E0BEF1010FD1
:10569C007ED9F7EE007AB4EEE76AF1EE10FA77DB1A
:1056AC00B6EE004A07EE903A90ED175A838CF8EE5E
:1056BC00677A25EE045ADFEDA13A04EE103ADFEDDD
:1056CC00985AD0ED154AB8EE444A64EE277A87EE24
:1056DC00A34AB4EEE54AF1EE10FA75FE847A65EE53
:1056EC00275A67EEA44A65EEA75AB0EEE45AF4EED8
:1056FC00C55AF1EE10FA07DCB1EE455AB4EEE55A94
:10570C00F1EE10FA35FE255A74EE855A9FED855A46
:10571C00F4EEC55AF1EE10FA00F384819FED825A33
:10572C00B4EEE55AF1EE10FA75FE254AB6EE004AD3
:10573C00D0ED185A90ED165A37EE247A65EE845A4D
:10574C0027EE855A65EEA75AF0EEC54A65EEA77AA4
:10575C00F4EEE47AF1EE10FA07DCF1EE644AF4EEC2
:10576C00E74AF1EE10FA74FEA74A75EE247ADFEDE3
:10577C006D5AF4EEE57AF1EE10FA07DCDFED6A5AB9
:10578C00F4EEE75AF1EE10FA75FEA75A76EEA56A1A
:10579C0090F880309FED695A07EE903AB0F882305D
:1057AC00F8EE677AC7EE855AF3B1B0F840404FF681
:1057BC00FF7E744540F0C980D0ED0F4ADFED5B7A77
:1057CC0064EEA74A07EE903AB7EE005AF8EE677A05
:1057DC0084EEA74AB4EEC54AF1EE10FA35FE044A3F
:1057EC0035EE445A65EE855AF5EEC05AF1EE10FAD4
:1057FC0040F28C80B0F86A30002B40F0A180B7EEFC
:10580C00005A90F86830022B00F0A980012B00F0B0
:10581C00DB8090F86C309FED494A07EE903AF8EE39
:10582C00677AC7EE844A67EE247A66EEA46A67EE5E
:10583C00867A66EE866A67EE807A66EE806A87EE16
:10584C00857AC6EE857AB0F8783027EE257A67EE41
:10585C00A57A002B40F0A18090ED0C6AD0ED0B6A7C
:10586C0077EE867A37EE267AF8FE676AFDEEE66A00
:10587C00B8FE476ABDEEC66A16EE903A16EE104AAE
:10588C001BB20C80138006EE903AB1F900C0F8EE12
:10589C00E66A06EE10CABCF17F0FB8EEC66A77EE68
:1058AC00E67A37EE467AC0ED0C7A80ED0B7A54DC52
:1058BC00B1F900306FF07E008342B8BF03460B8015
:1058CC00B2F900307F2B45DC13F17F0F43DA4FF632
:1058DC008173138010BD8379002B7FF44AAE0023B3
:1058EC000363C36270479FED127AF4EEC77AF1EE50
:1058FC0010FA0FD90023DFED0F6A6BE6F0EEE65AD3
:10590C00F4EEE57AF1EE10FA7FF7B4AE0023036300
:10591C00C36210BDB0EE666A7BE6F0EE466A62E6E4
:10592C00000048430000FE420000FEC200007A4422
:10593C000000484200001643589100200000C84265
:10594C0007EE903AB8EEE75A5BE707EE904AF8EEAE
:10595C00674A37E77F23138010BD7F23AFE7DCF85E
:10596C0000C0436BB0F872E0ACEB03037345B1D3EA
:10597C0090F874305FED0F4A05EE103AC0F834C061
:10598C00B8EE455AC5EE247A27EE277A66EEA77A4A
:10599C0027EE067A67EE867A55E727EEA76A06EEBB
:1059AC00903AF8EE666AA7EE076AF1EEC65AF4EE84
:1059BC00E65AF1EE10FA7FF74FAF86EEA56A27EEA6
:1059CC00067A67EE867A47E766EEA67AB0F870300C
:1059DC00E7EE077AB1EEE74A2BB107EE903AF8EE14
:1059EC00E77A84EE274A90F86D305FED2C2A03EEAF
:1059FC00903A90F86E3003EE103AF8EE633AF7EE08
:105A0C00007AB8EE433AC3EEA24AC3EE223AB4EEA1
:105A1C00E74AF1EE10FA77FE847A33EEE44AE4EECC
:105A2C00274A00E7F0EE454A80E600BF8B795A1E04
:105A3C00022A28BF042380F86830CB79032B28BFB7
:105A4C00002380F869300B89092B78D9B3F57A7F5C
:105A5C00A8BF4FF47A73A0F86A3047F230528B7AB1
:105A6C00642B28BF6423012B38BF012380F86C30D2
:105A7C00CB7A642B28BF6423012B38BF012380F819
:105A8C006D300B7B642B28BF6423012B38BF0123A3
:105A9C0080F86E30B1F80D30002B08BF6423A0F8ED
:105AAC00703091F810C0CB7B43EA0C23B3F5FA7F2E
:105ABC0028BF4FF4FA73012B38BF0123A0F87230C2
:105ACC004B7C642B28BF6423012B38BF012380F847
:105ADC0074304B8AA0F876308B8AA0F87830CB8A59
:105AEC00A0F87A300B8BA0F87C308B7E003B18BF73
:105AFC00012380F87E30CB7E003B18BF012380F859
:105B0C007F300B7F642B28BF642380F880304B7F61
:105B1C0091F81EC043EA0C23934228BF1346A0F809
:105B2C008230CB7F003B18BF012380F8843091F882
:105B3C002030642B28BF642380F8853070470A23FB
:105B4C0089E700BF08B50B46362800F2B782DFE8BC
:105B5C0010F0AB02A10297028D02830279026F0250
:105B6C0065025B02510247023D023302D201C801B9
:105B7C00BE01B401AA01A00196018C018201780139
:105B8C006E0164015A01500146013C0132012801A9
:105B9C001E0114010A010001F600EC00E200D8001D
:105BAC00CE00C400BA00B000A6009C009200880091
:105BBC007E0074006A00600056004C004200370002
:105BCC00DFF8F0C30422D1493620CCF8D8300EF0DF
:105BDC007BFD012008BDDFF8DCC30422CC49352055
:105BEC00CCF8D4300EF070FDF3E7DFF8C8C3042214
:105BFC00C8493420CCF8D0300EF066FDE9E7DFF868
:105C0C00B4C30422C4493320CCF8CC300EF05CFD74
:105C1C00DFE7DFF8A0C30422C0493220CCF8C8303B
:105C2C000EF052FDD5E7DFF88CC30422BC493120BD
:105C3C00CCF8C4300EF048FDCBE7DFF878C3042273
:105C4C00B8493020CCF8C0300EF03EFDC1E7DFF88B
:105C5C0064C30422B4492F20CCF8BC300EF034FDC0
:105C6C00B7E7DFF850C30422B0492E20CCF8B83087
:105C7C000EF02AFDADE7DFF83CC30422AC492D2021
:105C8C00CCF8B4300EF020FDA3E7DFF828C30422D3
:105C9C00A8492C20CCF8B0300EF016FD99E7DFF8AF
:105CAC0014C30422A4492B20CCF8AC300EF00CFD0C
:105CBC008FE7DFF800C30422A0492A20CCF8A830D3
:105CCC000EF002FD85E7DFF8ECC204229C49292086
:105CDC00CCF8A4300EF0F8FC7BE7DFF8D8C2042235
:105CEC0098492820CCF8A0300EF0EEFC71E7DFF8D4
:105CFC00C4C2042294492720CCF89C300EF0E4FC5A
:105D0C0067E7DFF8B0C2042290492620CCF898301F
:105D1C000EF0DAFC5DE7DFF89CC204228C492520EA
:105D2C00CCF894300EF0D0FC53E7DFF888C2042294
:105D3C0088492420CCF890300EF0C6FC49E7DFF8F7
:105D4C0074C2042284492320CCF88C300EF0BCFCA5
:105D5C003FE7DFF860C2042280492220CCF888306B
:105D6C000EF0B2FC35E7DFF84CC204227C4921204E
:105D7C00CCF884300EF0A8FC2BE7DFF838C20422F4
:105D8C0078492020CCF880300EF09EFC21E7DFF81B
:105D9C0024C2042274491F20CCF87C300EF094FCF1
:105DAC0017E7DFF810C2042270491E20CCF87830B7
:105DBC000EF08AFC0DE7DFF8FCC104226C491D20B3
:105DCC00CCF874300EF080FC03E7DFF8E8C1042255
:105DDC0068491C20CCF870300EF076FCF9E6DFF840
:105DEC00D4C1042264491B20CCF86C300EF06CFC3E
:105DFC00EFE6DFF8C0C1042260491A20CCF8683005
:105E0C000EF062FCE5E6DFF8ACC104225C49192017
:105E1C00CCF864300EF058FCDBE6DFF898C10422B5
:105E2C0058491820CCF860300EF04EFCD1E6DFF863
:105E3C0084C1042254491720CCF85C300EF044FC89
:105E4C00C7E6DFF870C1042250491620CCF8583050
:105E5C000EF03AFCBDE6DFF85CC104224C4915207B
:105E6C00CCF854300EF030FCB3E6DFF848C1042215
:105E7C0048491420CCF850300EF026FCA9E6DFF887
:105E8C0034C1042244491320CCF84C300EF01CFCD5
:105E9C009FE6DFF820C1042240491220CCF848309C
:105EAC000EF012FC95E6DFF80CC104223C491120DF
:105EBC00CCF844300EF008FC8BE6DFF8F8C0042276
:105ECC0038491020CCF840300EF0FEFB81E6DFF8AC
:105EDC00E4C0042234490F20CCF83C300EF0F4FB23
:105EEC0077E6DFF8D0C0042230490E20CCF83830E9
:105EFC000EF0EAFB6DE6DFF8BCC004222C490D2045
:105F0C00CCF834300EF0E0FB63E600BF650B00000C
:105F1C00E10B00005D0C0000D90C0000550D0000D9
:105F2C00D10D00004D0E0000C90E0000450F000001
:105F3C00C10F00003D100000B91000003511000029
:105F4C00B11100002D120000A91200002513000051
:105F5C00A11300001D140000991400001515000079
:105F6C00911500000D1600008916000005170000A1
:105F7C0081170000FD17000079180000F5180000CB
:105F8C0071190000ED190000691A0000E51A0000F3
:105F9C00611B0000DD1B0000591C0000D51C00001B
:105FAC00511D0000CD1D0000491E0000C51E000043
:105FBC00411F0000B4890020DFF838C10422404999
:105FCC000C20CCF830300EF07FFB02E6DFF824C159
:105FDC0004223C490B20CCF82C300EF075FBF8E574
:105FEC00DFF810C1042238490A20CCF828300EF012
:105FFC006BFBEEE5DFF8FCC0042234490920CCF839
:10600C0024300EF061FBE4E5DFF8E8C004223049EF
:10601C000820CCF820300EF057FBDAE5DFF8D4C0BE
:10602C0004222C490720CCF81C300EF04DFBD0E597
:10603C00DFF8C0C0042228490620CCF818300EF036
:10604C0043FBC6E5DFF8ACC0042224490520CCF89C
:10605C0014300EF039FBBCE50422DFF898C020495F
:10606C001046CCF810300EF02FFBB2E5DFF884C0F0
:10607C0004221C490320CCF80C300EF025FBA8E5BB
:10608C00DFF870C0042218490220CCF808300EF05A
:10609C001BFB9EE5DFF85CC0042214490120CCF800
:1060AC0004300EF011FB94E5DFF848C004221049CF
:1060BC000020CCF800300EF007FB8AE5002008BD6C
:1060CC00BD1F000039200000B52000003121000068
:1060DC00AD21000029220000A52200002123000090
:1060EC009D230000192400009524000011250000B8
:1060FC008D250000B48900202DE9F0410E4615468F
:10610C000446022130460EF07DF8022128460EF09E
:10611C0079F8234B3201234953F8028003EB061222
:10612C00D76803EB0512C4F80080A760D2F80CC046
:10613C002A0153F802E000231B4A6361C4F80CC027
:10614C001A4B48681268C4F804E0A3FB02324FF4FF
:10615C00FA63920C03FB02F24B681B1A9A42FBD8AF
:10616C00D8F800302146DEF8002030461F4214BF1C
:10617C00012300231CEA020F43F0020218BF13464E
:10618C002374FFF7DFFC0346214628462376FFF7EE
:10619C00D9FC227E831820462376BDE8F08100BF0F
:1061AC001C1E0020001000E0FC28002083DE1B4396
:1061BC00022110B5044608460EF024F802210520F1
:1061CC000EF020F802200EF00BF80346052084F8A0
:1061DC0020300EF005F8002302460548636284F86F
:1061EC002120E362A386BDE810400DF0CBBB00BFBD
:1061FC00F0290020A94AAA4930B5137E83B0044681
:10620C000D68012B40F2B48072B6536962B6002B54
:10621C001846B8BFD81C80101AD072B6D3F1000C37
:10622C0003F003010CF0030C58BFCCF100015161D9
:10623C0062B6226862B1B3F5007F06DA13F5007F0F
:10624C0040F32081404240B201E06FF07E00904765
:10625C00944A137E012B51D972B6536962B6002B46
:10626C001846B8BFD81C80101AD072B6D3F1000CE7
:10627C0003F003010CF0030C58BFCCF10001516189
:10628C0062B6626862B1B3F5007F06DA13F5007F7F
:10629C0040F3FA80404240B201E06FF07E0090473C
:1062AC0002200DF09DFF94F82030834203D0636AE6
:1062BC00EB1A312B18D805200DF092FF94F82130F1
:1062CC0083420FD0E36AEB1A312B0BD9E56200281D
:1062DC0040F0A48001232563E56184F835302376F2
:1062EC0084F8210003B030BD656200287CD1012305
:1062FC00A56284F8343084F82000DCE772B6D2E969
:10630C0000130968186893681942137C14BF0121A3
:10631C00002103F0030343EA8103D168084243F0F0
:10632C00080118BF0B469808591E536910740D29A3
:10633C0094D801A050F821F05743000051430000BD
:10634C0063430000514300004D4100005D430000D9
:10635C0057430000574300005D4300004D410000CF
:10636C0051430000634300005143000057430000B9
:10637C0072B6D2E900130968186893681942137C45
:10638C0014BF0121002103F0030343EA8103D16808
:10639C00084243F0080118BF0B469808591E536970
:1063AC0010740D293FF632AF01A050F821F000BF58
:1063BC004B430000454300006F4300004543000081
:1063CC00FD400000694300004B4300004B430000BC
:1063DC0069430000FD400000454300006F4300008E
:1063EC00454300004B43000094F83430002B82D01E
:1063FC000022A36A84F83420EB1A40F2DB52934259
:10640C0044D8294B1B78002B7FF475AFA368002B65
:10641C003FF471AF0190984701986CE7002394F812
:10642C0035202376002A3FF45BAF1F4A84F83530C1
:10643C001378002B7FF454AF226B40F2DB53AD1A70
:10644C009D4227D96369002B3FF44AAF01909847CE
:10645C00019845E7013B5361D8E601335361D5E61A
:10646C00013B5361FAE601335361F7E6023B53619A
:10647C00F4E602335361F1E6023B5361C6E60233A4
:10648C005361C3E67F20E2E67F2008E7E368002B38
:10649C00C0D130E72369002BD8D121E7F087002049
:1064AC00589100200C8800202A31002010B50121C1
:1064BC000A200DF0A7FE01210A200DF06FFE01212C
:1064CC0025200DF09FFE012125200DF067FE0121F6
:1064DC0007200DF097FE012107200DF05FFE002331
:1064EC004FF48C72F02116480DF012F8012114486B
:1064FC000CF0A4FF002112480BF062FB10480022A4
:10650C004FF0FF3304460321C27643610CF060F870
:10651C000C4B03220C49204623610DF001FA204656
:10652C0002210CF055F8094B20460D220849236135
:10653C000DF0F6F90748BDE810400DF023BA00BF86
:10654C00609100203C005A00E80900203C007D00CE
:10655C00EC090020F029002010B5012122200DF0BB
:10656C0051FE012122200DF019FE00234FF48C72F4
:10657C00F02116480CF0CCFF012114480CF05EFF02
:10658C00002112480BF01CFB104800226FF0F8237E
:10659C0004460321C27643610CF01AF80C4B03221B
:1065AC000C49204623610DF0BBF9204602210CF06A
:1065BC000FF8094B20460B22084923610DF0B0F966
:1065CC000748BDE810400DF0DDB900BFE491002094
:1065DC003C005A00E809002054007D00FC09002012
:1065EC00F0290020034608461146062B14D90D2B22
:1065FC000AD90E3B00B583B0062B43D8DFE803F075
:10660C004038362B1F1B1300DFF8BCC0073B204A59
:10661C003CF9133011F046BADFF8B0C01C4A3CF913
:10662C00133011F03FBA1B4B1B4A1B6803B05DF8CB
:10663C0004EB11F037BA194B194A1B78F6E7194BD2
:10664C0093ED007A184AB7EEC77A8DED007B11F006
:10665C0029FA03B000BD154B154A93ED007AB7EE3D
:10666C00C77A8DED007B11F01DFAF2E7114BE7E7CD
:10667C00114B124A1B8803B05DF804EB11F012BAEF
:10668C000F4BF6E70F4A03B05DF804EB11F00ABAB2
:10669C00080A0020542E00203C0A0020293100203A
:1066AC00340A0020442E00201C0A00206490002094
:1066BC00280A00204C2E002080920020140A002072
:1066CC007E920020440A00207890002068900020E0
:1066DC00374A43B2C1EB01112DE9F041064692F95C
:1066EC0000004C0086B0984204F1180254D0314B93
:1066FC00B3F900309E4207D0062E51D90D2E53D837
:10670C004FF6A041002302E000214FF6FF73002753
:10671C00294D01931E2361F30F07284600934FF474
:10672C008C7361F31F4700210CF030FA02212846CC
:10673C006F610BF04DFF214B042204F11F0853F83D
:10674C0026702A82A5F812803FB1384611F040FD20
:10675C003946024628460DF0E3F802A930460E22CF
:10676C00FFF740FF982302A8A5F812802B8211F0A6
:10677C002FFD42F20415024602A90F480DF0D0F885
:10678C004FF48C7304F1350200210B4800950CF08A
:10679C0081F906B0BDE8F08100214FF4FC63B6E747
:1067AC0040F25F410023B2E74FF6FF710023AEE7E2
:1067BC00273100207C92002060910020B012002034
:1067CC002DE9F04F2DED048B8FB0002800F01582D1
:1067DC0040F25F42924BDFF894820292B3F800A031
:1067EC00904A0492029B0026002063F30F0663F389
:1067FC001F46049B9F1E03F10C04394631F9023FDE
:10680C005A4212B233EA230328BF13469842B8BF48
:10681C0018468C42F2D1642840F38082C82840F399
:10682C00F781B0F5967F40F392829FED7F8A4FF00F
:10683C00FA0B4FF4FA797D4C0021162520460BF00B
:10684C00BFF900220F2320461146CDE900534FF427
:10685C008C730CF09BF9022120460BF0B9FE744BA3
:10686C00414607222046666123610DF059F8714BB1
:10687C00012120464FF0CC0863610BF0A9FE6E4A53
:10688C004B46142109A8126841F6C30600926B4AC4
:10689C0011F008F909A811F09BFC082140F215131E
:1068AC000246618200EB40012046A3EB410309A99B
:1068BC0023820DF035F840F641032A461C21204670
:1068CC00CDE90083FA230CF061F944F208237C2211
:1068DC001C2120460093FA230CF0DCF8FA23492201
:1068EC001C21204600960CF0D5F8FA23AF221C216F
:1068FC00204600960CF0CEF842F204132A461C21D6
:10690C0000932046FA230CF0C5F8BAF1000F04D01E
:10691C00494A1268524500F20882012143480BF0A3
:10692C0057FE474B474A0721636107A84B46002592
:10693C0011F0B8F84FF4B01307A89FED439A2361F8
:10694C0011F046FC07A9024638484FF001080CF03C
:10695C00E7FF5B463B4A072107A8DFED3C9A11F0A5
:10696C00A1F84FF48A0307A8DFED398A236111F0EF
:10697C002FFC07A902462D482E460CF0D1FF354BB3
:10698C0002223549294823610CF0CAFF5B46334A81
:10699C00072107A811F086F84FF42B0307A84FF036
:1069AC001C0B236111F014FC07A902461F480CF0C4
:1069BC00B7FF4B46294A072107A84FF07C0911F075
:1069CC0071F84FF45A0307A8236111F001FC07A9D1
:1069DC00024616480CF0A4FF214B01222149134812
:1069EC0023610CF09DFF144B14211F4A09A81B684E
:1069FC0011F058F809A811F0EBFBE423024609A9A1
:106A0C00638200EB400309485B00C3F58B73238260
:106A1C000CF086FF05480BF0A3FF05973FE000BF85
:106A2C007E920020689000200000FA43E491002040
:106A3C000900030018C618C6542E0020580A00205E
:106A4C0010841084680A0020000000000000CC4272
:106A5C000000F842040078006C0A0020700A002044
:106A6C001C00E400740A0020780A0020480A002068
:106A7C00E12C05F11C03A8BFE1241BB227B2B8F12D
:106A8C00000F00F0958002354FF0000846F100062B
:106A9C00A5F1FC02324300F0D780B9469B46AF4BC0
:106AAC00FA221C680023A4FB050110F08DF8504558
:106ABC00C0F0B580844240F2B280A0EB0A00A4EB97
:106ACC000A04B1EE086A049907EE900AB8EE677AE8
:106ADC0007EE904AF8EE677AC7EE276A66EE867A7A
:106AEC00BDEEE77A17EE102A052A1346A8BF052338
:106AFC0031F9130007EE103A01EB4303B8EEC77AF5
:106B0C0005EE100AB3F90210B8EEC55A04EE901A4D
:106B1C0077EEC77AF8EEE44A002A40F0838074EEF0
:106B2C00C53AB3F90430B6EE007A05EE903AF8EEB9
:106B3C00E55A75EEC55A65EE875A67EEA76AB0EE50
:106B4C00086AF0EE002A27EEA64A26EE866AB7EE11
:106B5C00002AB0EE447AB0EE463AA4EE626AA6EE93
:106B6C00E27A94EE223A74EE666A37EE277A73EE86
:106B7C00027A27EE237AA5EE277AA4EE867AA6EE81
:106B8C00A57A27EE297AC7EE087A78EEE77AFDEE39
:106B9C00E77A17EE903A1CB2152C3FF769AF16271F
:106BAC0005F11C033C461BB2B8F1000F7FF46BAF30
:106BBC00029909F1FF326A480191611E12B20393E6
:106BCC0009B20134009159460AF0FAFE4A4664486B
:106BDC0024B2DDE90213CDE9007159460AF0F0FE4A
:106BEC00029809F10102039B594612B2CDE900400B
:106BFC005B480AF0E5FE039B45E74FF6A042594B74
:106C0C00DFF880810292584AB3F800A00492E9E5BB
:106C1C009FED568A4FF0640B4FF0C8090BE6B0EEAF
:106C2C00497AB0E733F9021CB6EE007A042A03EE77
:106C3C00901AF8EEE33A74EEE33A63EE873A7FF794
