:0200000460009A
:100000004643464200000156000000000101020084
:1000100000000000000000000000000000000000E0
:1000200000000000000000000000000000000000D0
:1000300000000000000000000000000000000000C0
:1000400000000000010406010000000000000000A4
:100050000000800000000000000000000000000020
:100060000000000000000000000000000000000090
:100070000000000000000000000000000000000080
:10008000EB04180AFF1E04320126000000000000E5
:100090000000000000000000000000000000000060
:1000A0000000000000000000000000000000000050
:1000B0000000000000000000000000000000000040
:1000C0000000000000000000000000000000000030
:1000D0000000000000000000000000000000000020
:1000E0000000000000000000000000000000000010
:1000F0000000000000000000000000000000000000
:1001000000000000000000000000000000000000EF
:1001100000000000000000000000000000000000DF
:1001200000000000000000000000000000000000CF
:1001300000000000000000000000000000000000BF
:1001400000000000000000000000000000000000AF
:10015000000000000000000000000000000000009F
:10016000000000000000000000000000000000008F
:10017000000000000000000000000000000000007F
:10018000000000000000000000000000000000006F
:10019000000000000000000000000000000000005F
:1001A000000000000000000000000000000000004F
:1001B000000000000000000000000000000000003F
:1001C000000100000010000001000000000000001D
:1001D000000001000000000000000000000000001E
:1001E000000000000000000000000000000000000F
:1001F00000000000000000000000000000000000FF
:10020000FFFFFFFFFFFFFFFFFFFFFFFFFFFFFFFFFE
:10021000FFFFFFFFFFFFFFFFFFFFFFFFFFFFFFFFEE
:10100000D1002043F1150060000000000000000046
:10101000201000600010006000D802600000000096
:101020000000006000E4020000000000FFFFFFFF7E
:10103000FFFFFFFFFFFFFFFFFFFFFFFFFFFFFFFFC0
:10104000FFFFFFFFFFFFFFFFFFFFFFFFFFFFFFFFB0
:10105000FFFFFFFFFFFFFFFFFFFFFFFFFFFFFFFFA0
:10106000FFFFFFFFFFFFFFFFFFFFFFFFFFFFFFFF90
:10140000824205D051F8043B40F8043B8242F9D8AF
:10141000704700BF044A05494FF0000342F8043BFF
:101420009142FBD8704700BFC0520020E09F0020CF
:1014300080B5BFF34F8F00F075F9544C544B082022
:101440005449C3F85401544AC3F800115348C3F82F
:10145000F0405349FFF7D4FF524A53495348FFF72E
:10146000CFFF534CFFF7D6FF4FF470004FF0E02151
:101470000023504AC1F8880D44F823200133B02BD3
:10148000FAD14D4B80214D4A03F8011B9342FBD109
:101490004FF0E0254A4F4B4A4FF0FF31C5F8084D59
:1014A0000026D5F8243D43F4E023C5F8243DFB692C
:1014B00023F07F0343F04003FB617B6A23F07F034B
:1014C00043F040037B629166D1661167516700F07B
:1014D00031F93D4B63223D49A3633D4BE363032355
:1014E0006A613C4AAE612B61C5F8202DD5F8FC2D10
:1014F000394B42F08072C5F8FC2D1A6842F00102A7
:101500001A605B680B6000F0D9FA344800F058FCB0
:10151000F96E334B334A41F44051F9661E60C3F80B
:101520000861C3F81861C3F82861C3F83861936B88
:10153000DB0708D442F615632B4951651365936B9D
:1015400043F001039363274A284C936843F0011347
:10155000936000F079F900F05FF800F029FC00F0EA
:10156000DBFA00F0E1F82368132BFCD900F06CFBE8
:101570002368B3F5967FFBD300F0DAF800F0D6F8D5
:1015800000F012FC00F004FC30BFFDE70C0D11135D
:1015900000800D401B101820E862020000000000CF
:1015A000D01F0060C0520020BC82026000000020FA
:1015B0000050002009B0010000E400E0A0E400E0D9
:1015C00000C00F4000C00A40759D0100289E002009
:1015D000799D010000002020001000E00046C32398
:1015E0000040084000400D400000C0562C9E0020E6
:1015F000054B4FF42A01054A05485A641864054A08
:1016000099639546FFF714FF00C00A40FFABAAAAF2
:101610000700200000800520104BA020104AD96E42
:1016200041F4403110B4D96640F23764D96E41F4C8
:101630004071D96654649064936C1B06FCD4094ACB
:1016400040F23761A02351649364936C13F08003DC
:10165000FBD1054A13705DF8044B704700C00F4082
:1016600000400C4000800C408F9F00202B4A00213E
:10167000012310B4C2F8A000C2F8A410C2F8B03020
:101680005369DB07FCD501234FF4803423495361B0
:10169000C2F8A000C2F8A440C2F8B0304B69DC0721
:1016A000FCD501234FF400341C4A4B61C1F8A00063
:1016B000C1F8A440C1F8B0305369D907FCD5012363
:1016C000174C16495361C2F8A000C2F8A440C2F8F2
:1016D000B0304B69DB07FCD5D1F8003145F60D5031
:1016E00021249AB24C61824214D045F69D518A421F
:1016F0000CD1C3F34253032B0CD0A3F104035DF8C8
:10170000044BB3FA83F35B091801704700205DF8BE
:10171000044B704708205DF8044B704700402A4096
:1017200004000300704700BF704700BF704700BF50
:1017300000BF704710B44FF0E0230021102432485E
:10174000C3F8941DC3F89C4D1124C3F8A00D2F4875
:10175000C3F89C4D1224C3F8A00D2D48C3F89C4D2E
:101760002C4AC3F8A00D2C4C42F015022B48C3F8AC
:101770009C4DC3F8A00D2A4C2A48C3F89C4DC3F8D1
:10178000A00D294CC3F89C2D2848294AC3F8A04D28
:10179000C3F89C0DC3F8A02D02F5A022254C0C32F5
:1017A0002548C3F89C4DC3F8A02D244AC3F89C0DCE
:1017B000C3F8A02D02F14062214C02322148C3F847
:1017C0009C4DC3F8A02D0A32C3F89C0DC3F8A02D80
:1017D00000BF00BF00BF00BF00BF0122C3F8942DAF
:1017E000BFF34F8FBFF36F8FC3F8501FBFF34F8FFF
:1017F000BFF36F8FD3F8142D5DF8044B42F44032E1
:10180000C3F8142D704700BF3F00001025000807E3
:1018100009001000E09F00201300200021000207B3
:1018200014000020250008130900001016002020D5
:1018300027000B1317000040180000602F000B0753
:10184000190000701A000080F0B5824B1822824DFA
:101850000120824F83B0C3F85C528149C3F86072A3
:10186000804CC3F86452A5F530457F4EC3F86852EA
:1018700048F20C75C3F86C42C3F87042C3F8744266
:10188000C3F878424FF0FF34DA661A675A679A67EE
:10189000DA67C3F88020C3F88420C3F88820C1F831
:1018A0002C03724AC1F83003C1F83403C1F838037D
:1018B000C1F83C03C1F85003B1696D4B0A406D4853
:1018C0006D4913436D4AB361D6F8843043F00C037D
:1018D000C6F88430036843F00203036003682B40BA
:1018E00021251A43664B026044608A68654C1340A8
:1018F000654A43F000538360C36823F07803C360F4
:10190000036A134023430362036A13405F4A23437D
:1019100040F2056443628262C2620022D1F8B830AC
:1019200023F03F0343F00103C0F8B830D1F8BC30D6
:10193000574923F03F0343F00103C0F8BC30026174
:101940000567C0F880404567C0F8844002240368FA
:1019500023F00203036081614E4B4F49C46143F899
:10196000042B8B42FBD1434D2B6843F001032B60CA
:101970002C6814F00104FBD14549022340F2F562C2
:101980002046A96140F29941EB6140F26643C5F8F7
:10199000002242F20142C5F81032404BC5F8201235
:1019A000C5F8303240F23543C5F834223C49C5F819
:1019B00040323C4BC5F850123B4AC5F8543242F213
:1019C0000123C5F86022C5F86432FFF74FFE0646D2
:1019D000002836D083024FF480222B660123C5F8FD
:1019E000A040244CC5F8A420C5F8B0306369DA07DC
:1019F000FCD50125370565613846FFF737FE3218FB
:101A00002A4BD2B21A7078B180024FF48023194960
:101A10006066C4F8A070C4F8A430C4F8B0504B6934
:101A2000DB07FCD501234B61214900242148012318
:101A30000094401A00EB02521F4800F0ADF903B0C9
:101A4000F0BD1D4B194A18601070D860C3E9010041
:101A500003B0F0BD00801F40F9B00100F910010093
:101A600000841F40F970010000C00F40FFFCFF1F01
:101A70000003008000402A4000802A401200FFFF3F
:101A8000FF37F7004000008000FFF07CFF000F836D
:101A9000F05AF05A00422A4000432A409F0418306E
:101AA000EB06180A063201263806180A909F002015
:101AB0000000007000000070A89B0020F0B4154AE0
:101AC00040274FF480314FF480564FF400554FF4C7
:101AD000404443F24200136913F0020F0ED113F495
:101AE000005F0FD013F4805F0ED0002BF3DA13F4F5
:101AF000803F0BD15B060BD5F0BC70479461516100
:101B00009061E8E75561E6E75661E4E79161E2E755
:101B10005761E0E700800D403F4A03203F49F3EE64
:101B2000095AD2F880304FF0000C9FED3D6A23F047
:101B300001039FED3C5A30B4C2F88030C2F89000E7
:101B4000D1F8E010384DCBB2384C39482B6007EE55
:101B5000903A0B0DC1F30B21F8EEE77A06EE903ABE
:101B600007EE101A334BB8EEC77A2160F8EEE66A3A
:101B7000314937EEC66A37EEC55A76EEC76A77EE58
:101B8000E57A26EE266AC3ED006A25EE265AD2F8DB
:101B9000803067EEA64AC0ED007AC6EE275A274885
:101BA00085EE276AC4EEA76A75EE875AFCEEE55A01
:101BB00036EE076A15EE904ABCEEC66A43EA045355
:101BC00076EE877AC2F8803016EE103AD2F890415D
:101BD000FCEEE77A01EA0341214317EE903AC2F89E
:101BE0009011C3F30B03D2F890110B431449C2F8C0
:101BF0009031D2F8803043F00203C2F88030114BAC
:101C000080F840C0C1F840314FF0E023012230BCE1
:101C1000C3F80821704700BF00810D4000441F40F9
:101C20000000AA420000B442989D0020949D00202C
:101C30009C9D0020A09D00200000FF0F00E400E01C
:101C400000500020F5B10100314B40F6617210B533
:101C5000C3F8202140F2044400F0A2F82D4A2E4996
:101C6000D2F880302D4843F00303C2F880302C4B6B
:101C7000C1F8604102681A4203D1D1F8A8319A072D
:101C80001BD0254A4FF00041244B5963D2F8403114
:101C900043F00203C2F84031D2F840319B07FBD435
:101CA0004FF400304FF0E0211C4B4FF00042C1F8E0
:101CB0008C0219209A6300F07FF8184A4FF0804098
:101CC000154C002190630A20164B11604FF480627E
:101CD000C4F8A801184600F077F84FF480020346D4
:101CE0004FF4810040F243111860C4F858311A646F
:101CF0000D4B0E4AC4F84811C3F804224FF0E022FD
:101D00004FF400310123C2F80C11C4F8403110BD6A
:101D100000800D4000C00F4000002E4000900D409C
:101D2000001C1E000000002000500020A5B401008F
:101D300008B50E4B1B6E9B0700D4FBBE72B60C4B56
:101D400000200C4AC3F8400103F160430A49A3F59F
:101D50005F2311649D46BFF34F8F4FF40013074874
:101D6000074ADB6902609B68984700BF00441F4038
:101D700000002E4000C00A40030020000080202008
:101D8000000012EBF8B500BFF8BC08BC9E467047D7
:101D90005FF800F061AE01005FF800F0CDCE010009
:101DA0005FF800F009BC01005FF800F031000200AC
:101DB0005FF800F069CD01005FF800F05DA7010059
:101DC0005FF800F041A401005FF800F0B9FD0100E8
:101DD00005010000217B0000E90801001923010032
:041DE0008D6B010006
:101DE4000901809611800A3A81550A3601082A04AD
:101DF400000000F02B040000014021800A13800A37
:101E040029800A003E0353006500720069006100E6
:101E14006C002F004B006500790062006F006100C8
:101E2400720064002F004D006F00750073006500A0
:101E34002F004A006F00790073007400690063008A
:101E44006B00000018035400650065006E00730009
:101E540079006400750069006E006F0004030904D2
:101E64000902AF00060100C032080B0002020201A1
:101E7400000904000001020201000524001001050C
:101E84002401010104240206052406000107058239
:101E94000310001009040100020A000000070503F2
:101EA400024000000705830240000009040200010B
:101EB40003010100092111010001223F00070584EB
:101EC40003080001090403000103000000092111B3
:101ED40001000122540007058603080002090404D6
:101EE400000103000000092111010001225500072F
:101EF4000587030C00010904050001030000000923
:101F040021110100012228000705850308000400AF
:101F14000902AF00060100C032080B0002020201F0
:101F2400000904000001020201000524001001055B
:101F34002401010104240206052406000107058288
:101F44000310000509040100020A0000000705034C
:101F540002000200070583020002000904020001D6
:101F640003010100092111010001223F000705843A
:101F74000308000109040300010300000009211102
:101F84000100012254000705860308000209040425
:101F9400000103000000092111010001225500077E
:101FA4000587030C00010904050001030000000972
:101FB40021110100012228000705850308000400FF
:0C1FC4000A060002EF02014001000000CC
:101FD0000000000000000000000000000000000001
:101FE00000000000000000000000000000000000F1
:101FF000F8B54FF084439D695A6915400DD0254FBF
:1020000001269D6195FAA5F4B4FA84F457F82430BA
:1020100006FA04F49847A543F4D11F4B9D695A6909
:1020200015400DD01D4F01269D6195FAA5F4B4FA17
:1020300084F457F8243006FA04F49847A543F4D101
:10204000174B9D695A6915400DD0164F01269D61A9
:1020500095FAA5F4B4FA84F457F8243006FA04F497
:102060009847A543F4D1104B9D695A6915400DD08E
:102070000E4F01269D6195FAA5F4B4FA84F457F841
:10208000243006FA04F49847A543F4D1BFF34F8FE8
:10209000F8BD00BF804C002000400042004D0020F1
:1020A00000800042804D002000C00042004E002011
:1020B0000548064B1B1AD90F01EBA301491002D0AA
:1020C000034B03B118477047C0520020C052002094
:1020D0000000000008B5054B1BB105490548AFF3EA
:1020E0000080BDE80840FFF7E3BF00BF000000002C
:1020F000449D002000E40260704700BF704700BFAD
:10210000704700BF0023C0E903338382704700BFDC
:10211000704700BF704700BF2DE9F84329492A4E98
:1021200091F8F68796F90030327838EA030591F98C
:10213000F6771AD00024DFF89C9002E00134082CD6
:102140000AD025FA04F3DA07F8D539F81400013477
:102150001CF02CF8082CF4D11C4B32781B682A4355
:102160001B49323332700B6053B218EA020F04D0AD
:10217000164A1749126832320A6023EA070515F039
:10218000FF071CD0114B124A1B6812689B1A002BC8
:1021900015DB0024DFF83C8002E00134082C0AD073
:1021A00027FA04F3DB07F8D538F8140001341BF0E4
:1021B00055FF082CF4D1337823EA05033370BDE8CA
:1021C000F88300BF40680020809F00202C9E0020E4
:1021D000C492002014290020562810B5044602D1CC
:1021E000064B00229A73FFF797FF054B1B681BB144
:1021F0002046BDE81040184710BD00BF40680020D1
:1022000038940020562810B5044602D1064B01220E
:102210009A73FFF781FF054B1B681BB12046BDE891
:102220001040184710BD00BF4068002024940020D3
:10223000031F192B12D9A0F11E03082B0BD9272835
:1022400017D0A0F13A030B2B0FD92838C0B2BF2802
:1022500007D9002070471330C0B270475D30C0B25C
:102260007047054B33F810007047A0F5805080B2DE
:1022700070473020704700BFC40A0020284A002160
:1022800038B5284C137821540BB1834245D0264BE6
:102290001B688BB39A797AB3DC7A6CB3234D002236
:1022A00095F800E011460BE0BCF1030F04D193F860
:1022B0000FC0BCF1010F27D0A14203F11A031BD2BA
:1022C00001328E45D1B2F7D193F80CC0BCF1010FA9
:1022D000EAD193F80FC0BCF1010FEDD193F80DC016
:1022E0008445E9D11BF074FE00231148FF221149F7
:1022F00003700B702A7038BDFFF79AFF0028FAD0E0
:10230000BDE838401BF0AABE93F80DC08445E9D063
:1023100093F80EC08445CFD1E4E7117038BD00BFFB
:102320007C9F0020B0940020B0950020AA4F002090
:10233000849F0020819F0020012A51D12DE9F04F78
:1023400085B00E9A082A8CBF002601261EB10020F7
:1023500005B0BDE8F08F0C4640F25E42C98B914259
:10236000F5D15A79FF2AF2D19A79472AEFD1197813
:102370000E9A194403EB020C8B1D9C45E7D30546CE
:10238000B246B046304637463246029403E019441E
:102390008B1D9C4526D30B78032B23D991F801E0A4
:1023A000BEF1050FF3D1062BF1D991F803E00EF041
:1023B000030EBEF1030FEAD191F90290B1F804E0E7
:1023C0008C79B9F1000F91F802B0CEF30A0E0394A4
:1023D00028DB002FDBD10BF00F07F246039ED6E778
:1023E00000207047029C002AB1D040284FF0010322
:1023F0004FF00301CDF8048028BF40200090204614
:1024000012F0A2FDE8600028A1D0154A2B4605F184
:102410003401C263402212F0E5F957B9012318468E
:102420006B7595E7002AB2D10BF00F027046A046FB
:10243000ADE751463A46204600230529019628BFBC
:1024400005210091032112F07FFD28610028E5D0CD
:1024500004492B460522C163034912F0C3F9DDE7A5
:1024600031090000410100005446002038B5254DD7
:10247000044640F2E93128462DED028BF0EE408A09
:1024800019F0C2FD034640F2E931284608EE103A41
:1024900019F0BAFD07EE900A40F2E931B8EEC88AA9
:1024A0002846F8EEE77A38EE278A19F0ADFD07EEF8
:1024B000904A07EE100A9FED146A47F6FF73F8EE94
:1024C000677ADFED125AB8EEC77ADFED116A27EEB0
:1024D000A80A37EE087AC0EE067A87EE256ABDECC8
:1024E000028B67EE867A67EEA67AFDEEE77A17EE44
:1024F000900A20449842A8BF18460128B8BF01207E
:1025000080B238BD18FCFFFF0000C84200803B4588
:102510002DB25D402DE9F043002389B004460793B6
:10252000CDE905330B7903F0010258074FEA822207
:1025300048BF42F040021F0748BF42F08002DE065B
:1025400048BF42F001029D0648BF42F00202580611
:1025500048BF42F004021B064B7948BF42F0080214
:10256000DF066FEA930C48BF42F010029E060CEAA9
:10257000030E4FEA930648BF42F020025D065FFA61
:102580008CFC48BF42F4807218066FEAD3004FEA11
:10259000D30548BF42F4007200EA0E0EC0B21EF02E
:1025A000010F5ED103EA0507FF0730D501238DF83F
:1025B0001C300DF1040E0B8904F1180C0192012559
:1025C0009B014A89C888ADF81230A2F500428B8978
:1025D0008001ADF80820A3F50043CA89ADF81000CA
:1025E000ADF80A30A2F500420B8AADF80C20A3F535
:1025F0000043ADF80E30BEE80F00ACE80F009EE8D7
:1026000007008CE80700257509B0BDE8F08303F0EA
:102610000107C3F3400E4FEA530887F001078EF01D
:10262000010E05EA070919EA0E0F1ED108EA050591
:10263000ED0718D408EA0C0C00EA0C00C0071AD405
:1026400008EA060818F0010F11D106EA0E0E17EA83
:102650000E0F0ED1334003F00103C3F10803DBB2C8
:10266000A5E70023A3E70323A1E702239FE70523B0
:102670009DE706239BE7042399E700BF2DE9F04F70
:102680000A46D0F8845889B0864600F6840300F6DE
:10269000AC0C42F8025B53F8044F634522F8024F3A
:1026A000F9D19EF86C38033B012B0ED9B1F91630E5
:1026B0009AB2092A28BFFF230B760EF5046014F0A6
:1026C0003FFE012009B0BDE8F08F40F2FF304A899B
:1026D0008B8905F480798242B1F90E70B1F904401A
:1026E000C5F3002828BF02468342B1F90660A4F56D
:1026F000004428BF0346B1F908C047F6FF709201B5
:102700009B01ACF5004C861B15F4806AA0EB07001A
:102710004FF0000724B2079712B21BB236B20FFA7D
:102720008CFC00B2CDE90577C5F3C02728D1B8F1FC
:10273000000F19D025F470658DF81C70ADF80840B5
:102740000C46019501ADADF80A60ADF80CC0ADF8CE
:102750000E00ADF81020ADF812300FCD0FC495E883
:10276000070084E80700A8E705F4007BB9F1000F33
:102770000DD167B1BBF1000F0CBF02270327D9E7CA
:10278000B8F1000FF0D0002FEED00127D2E7BBF157
:10279000000918BF4FF00109BBF1000F02D00FB1C3
:1027A0000327C7E715F4406F02D1B9F1000F13D129
:1027B000BAF1000718BF0127B9F1000F02D00FB11D
:1027C0000527B7E715F4407F00D13FB908EA0707AE
:1027D000C7F10807FFB2ADE70427ABE70627A9E773
:1027E0002DE9F0411A22DFF8948001EB81030C46B9
:1027F000D8F8006002FB003333449B7C6BB3074680
:1028000018468D00FFF714FD10BB3346D3F8073090
:102810002544DFED157A00EE103A1A23B4EEE70AEC
:1028200003FB0750114B0644F1EE10FA1D68B6F891
:1028300013000BD440B90E4A0E490F4B14700122FD
:102840000D601A70BDE8F081FFF710FE0544F2E755
:102850001BF0ACFCD8F80030D8E7054B1970BDE888
:10286000F04100F00DB800BF0AD7233C2C9E002099
:10287000829F002004930020849F0020B0950020B8
:1028800070B51A4C1A4B21781B680131C9B2032963
:1028900019D800EB40024FF0050C00EB8202520009
:1028A0001CFB0122134403E05FFA8CF104290AD0D7
:1028B0009A7C01F1010C0533002AF5D02170BDE8A6
:1028C0007040FFF78DBF0B4E35782DB10021217080
:1028D000BDE87040FFF784BF1BF07AFB0649074B49
:1028E000FF220D7035701A7070BD00BF829F0020EE
:1028F000B0950020819F0020849F0020AA4F0020D7
:1029000070B5C46B8CB1836804F13405C3F30E4316
:10291000C3F14003112B09D8E06830B123462946A2
:102920004022BDE8704011F05DBF70BD94F83430B6
:10293000202BF1D194F837300E2BEDD129462046CB
:10294000FFF7E8FDE8E700BF38B5044649B108469F
:102950000D461FF0BDFD2368024629465B682046F0
:1029600098472046BDE8384019F062BA214B5A68B2
:10297000D2E90010D3680968006810B4184294685E
:1029800001EA04012ED0137C03F00303D9B943F00C
:1029900008039908013B11740D2B0BD8DFE803F0F5
:1029A0000D071C070A160D0D160A071C070D5369A3
:1029B000013B53615DF8044B704753695DF8044B6C
:1029C00001335361704743F00403E0E753695DF856
:1029D000044B023B5361704753695DF8044B02336B
:1029E00053617047137C03F003030029D1D043F0F7
:1029F0000403CEE72C960020224BD3F8A420D2E982
:102A00000010D3680968006810B41842946801EA9D
:102A100004012ED0137C03F00303D9B943F008035B
:102A20009908013B11740D2B0BD8DFE803F00D075B
:102A30001C070A160D0D160A071C070D5369013BEA
:102A400053615DF8044B704753695DF8044B0133E3
:102A50005361704743F00403E0E753695DF8044BAA
:102A6000023B5361704753695DF8044B0233536175
:102A70007047137C03F003030029D1D043F0040313
:102A8000CEE700BF2C960020224BD3F8A820D2E935
:102A90000010D3680968006810B41842946801EA0D
:102AA00004012ED0137C03F00303D9B943F00803CB
:102AB0009908013B11740D2B0BD8DFE803F00D07CB
:102AC0001C070A160D0D160A071C070D5369013B5A
:102AD00053615DF8044B704753695DF8044B013353
:102AE0005361704743F00403E0E753695DF8044B1A
:102AF000023B5361704753695DF8044B02335361E5
:102B00007047137C03F003030029D1D043F0040382
:102B1000CEE700BF2C960020224BD3F8AC20D2E9A0
:102B20000010D3680968006810B41842946801EA7C
:102B300004012ED0137C03F00303D9B943F008033A
:102B40009908013B11740D2B0BD8DFE803F00D073A
:102B50001C070A160D0D160A071C070D5369013BC9
:102B600053615DF8044B704753695DF8044B0133C2
:102B70005361704743F00403E0E753695DF8044B89
:102B8000023B5361704753695DF8044B0233536154
:102B90007047137C03F003030029D1D043F00403F2
:102BA000CEE700BF2C960020224BD3F8B020D2E90C
:102BB0000010D3680968006810B41842946801EAEC
:102BC00004012ED0137C03F00303D9B943F00803AA
:102BD0009908013B11740D2B0BD8DFE803F00D07AA
:102BE0001C070A160D0D160A071C070D5369013B39
:102BF00053615DF8044B704753695DF8044B013332
:102C00005361704743F00403E0E753695DF8044BF8
:102C1000023B5361704753695DF8044B02335361C3
:102C20007047137C03F003030029D1D043F0040361
:102C3000CEE700BF2C960020224BD3F8B420D2E977
:102C40000010D3680968006810B41842946801EA5B
:102C500004012ED0137C03F00303D9B943F0080319
:102C60009908013B11740D2B0BD8DFE803F00D0719
:102C70001C070A160D0D160A071C070D5369013BA8
:102C800053615DF8044B704753695DF8044B0133A1
:102C90005361704743F00403E0E753695DF8044B68
:102CA000023B5361704753695DF8044B0233536133
:102CB0007047137C03F003030029D1D043F00403D1
:102CC000CEE700BF2C960020224BD3F8B820D2E9E3
:102CD0000010D3680968006810B41842946801EACB
:102CE00004012ED0137C03F00303D9B943F0080389
:102CF0009908013B11740D2B0BD8DFE803F00D0789
:102D00001C070A160D0D160A071C070D5369013B17
:102D100053615DF8044B704753695DF8044B013310
:102D20005361704743F00403E0E753695DF8044BD7
:102D3000023B5361704753695DF8044B02335361A2
:102D40007047137C03F003030029D1D043F0040340
:102D5000CEE700BF2C960020224BD3F8BC20D2E94E
:102D60000010D3680968006810B41842946801EA3A
:102D700004012ED0137C03F00303D9B943F00803F8
:102D80009908013B11740D2B0BD8DFE803F00D07F8
:102D90001C070A160D0D160A071C070D5369013B87
:102DA00053615DF8044B704753695DF8044B013380
:102DB0005361704743F00403E0E753695DF8044B47
:102DC000023B5361704753695DF8044B0233536112
:102DD0007047137C03F003030029D1D043F00403B0
:102DE000CEE700BF2C960020224BD3F8C020D2E9BA
:102DF0000010D3680968006810B41842946801EAAA
:102E000004012ED0137C03F00303D9B943F0080367
:102E10009908013B11740D2B0BD8DFE803F00D0767
:102E20001C070A160D0D160A071C070D5369013BF6
:102E300053615DF8044B704753695DF8044B0133EF
:102E40005361704743F00403E0E753695DF8044BB6
:102E5000023B5361704753695DF8044B0233536181
:102E60007047137C03F003030029D1D043F004031F
:102E7000CEE700BF2C960020214B5A69D2E9001002
:102E8000D3680968006810B41842946801EA040124
:102E90002ED0137C03F00303D9B943F0080399083B
:102EA000013B11740D2B0BD8DFE803F00D071C0755
:102EB0000A160D0D160A071C070D5369013B5361D5
:102EC0005DF8044B704753695DF8044B013353615F
:102ED000704743F00403E0E753695DF8044B023B9D
:102EE0005361704753695DF8044B02335361704777
:102EF000137C03F003030029D1D043F00403CEE791
:102F00002C960020214B9A69D2E90010D3680968F9
:102F1000006810B41842946801EA04012ED0137CB2
:102F200003F00303D9B943F008039908013B117476
:102F30000D2B0BD8DFE803F00D071C070A160D0D4B
:102F4000160A071C070D5369013B53615DF8044BDA
:102F5000704753695DF8044B01335361704743F088
:102F60000403E0E753695DF8044B023B536170478B
:102F700053695DF8044B023353617047137C03F0CF
:102F800003030029D1D043F00403CEE72C960020A0
:102F9000214BDA69D2E90010D3680968006810B4DF
:102FA0001842946801EA04012ED0137C03F0030355
:102FB000D9B943F008039908013B11740D2B0BD8C4
:102FC000DFE803F00D071C070A160D0D160A071C93
:102FD000070D5369013B53615DF8044B704753691A
:102FE0005DF8044B01335361704743F00403E0E79D
:102FF00053695DF8044B023B5361704753695DF8B8
:10300000044B023353617047137C03F00303002920
:10301000D1D043F00403CEE72C960020214B1A6A4E
:10302000D2E90010D3680968006810B418429468A7
:1030300001EA04012ED0137C03F00303D9B943F055
:1030400008039908013B11740D2B0BD8DFE803F03E
:103050000D071C070A160D0D160A071C070D5369EC
:10306000013B53615DF8044B704753695DF8044BB5
:1030700001335361704743F00403E0E753695DF89F
:10308000044B023B5361704753695DF8044B0233B4
:1030900053617047137C03F003030029D1D043F040
:1030A0000403CEE72C960020214BDA68D2E9001009
:1030B000D3680968006810B41842946801EA0401F2
:1030C0002ED0137C03F00303D9B943F00803990809
:1030D000013B11740D2B0BD8DFE803F00D071C0723
:1030E0000A160D0D160A071C070D5369013B5361A3
:1030F0005DF8044B704753695DF8044B013353612D
:10310000704743F00403E0E753695DF8044B023B6A
:103110005361704753695DF8044B02335361704744
:10312000137C03F003030029D1D043F00403CEE75E
:103130002C960020214B1A69D2E90010D368096847
:10314000006810B41842946801EA04012ED0137C80
:1031500003F00303D9B943F008039908013B117444
:103160000D2B0BD8DFE803F00D071C070A160D0D19
:10317000160A071C070D5369013B53615DF8044BA8
:10318000704753695DF8044B01335361704743F056
:103190000403E0E753695DF8044B023B5361704759
:1031A00053695DF8044B023353617047137C03F09D
:1031B00003030029D1D043F00403CEE72C9600206E
:1031C000214B9A68D2E90010D3680968006810B4EE
:1031D0001842946801EA04012ED0137C03F0030323
:1031E000D9B943F008039908013B11740D2B0BD892
:1031F000DFE803F00D071C070A160D0D160A071C61
:10320000070D5369013B53615DF8044B70475369E7
:103210005DF8044B01335361704743F00403E0E76A
:1032200053695DF8044B023B5361704753695DF885
:10323000044B023353617047137C03F003030029EE
:10324000D1D043F00403CEE72C960020214B5A6ADC
:10325000D2E90010D3680968006810B41842946875
:1032600001EA04012ED0137C03F00303D9B943F023
:1032700008039908013B11740D2B0BD8DFE803F00C
:103280000D071C070A160D0D160A071C070D5369BA
:10329000013B53615DF8044B704753695DF8044B83
:1032A00001335361704743F00403E0E753695DF86D
:1032B000044B023B5361704753695DF8044B023382
:1032C00053617047137C03F003030029D1D043F00E
:1032D0000403CEE72C960020214B9A6AD2E9001015
:1032E000D3680968006810B41842946801EA0401C0
:1032F0002ED0137C03F00303D9B943F008039908D7
:10330000013B11740D2B0BD8DFE803F00D071C07F0
:103310000A160D0D160A071C070D5369013B536170
:103320005DF8044B704753695DF8044B01335361FA
:10333000704743F00403E0E753695DF8044B023B38
:103340005361704753695DF8044B02335361704712
:10335000137C03F003030029D1D043F00403CEE72C
:103360002C960020214BDA6AD2E90010D368096854
:10337000006810B41842946801EA04012ED0137C4E
:1033800003F00303D9B943F008039908013B117412
:103390000D2B0BD8DFE803F00D071C070A160D0DE7
:1033A000160A071C070D5369013B53615DF8044B76
:1033B000704753695DF8044B01335361704743F024
:1033C0000403E0E753695DF8044B023B5361704727
:1033D00053695DF8044B023353617047137C03F06B
:1033E00003030029D1D043F00403CEE72C9600203C
:1033F000214B1A6BD2E90010D3680968006810B439
:103400001842946801EA04012ED0137C03F00303F0
:10341000D9B943F008039908013B11740D2B0BD85F
:10342000DFE803F00D071C070A160D0D160A071C2E
:10343000070D5369013B53615DF8044B70475369B5
:103440005DF8044B01335361704743F00403E0E738
:1034500053695DF8044B023B5361704753695DF853
:10346000044B023353617047137C03F003030029BC
:10347000D1D043F00403CEE72C960020214B5A6BA9
:10348000D2E90010D3680968006810B41842946843
:1034900001EA04012ED0137C03F00303D9B943F0F1
:1034A00008039908013B11740D2B0BD8DFE803F0DA
:1034B0000D071C070A160D0D160A071C070D536988
:1034C000013B53615DF8044B704753695DF8044B51
:1034D00001335361704743F00403E0E753695DF83B
:1034E000044B023B5361704753695DF8044B023350
:1034F00053617047137C03F003030029D1D043F0DC
:103500000403CEE72C960020214B9A6BD2E90010E1
:10351000D3680968006810B41842946801EA04018D
:103520002ED0137C03F00303D9B943F008039908A4
:10353000013B11740D2B0BD8DFE803F00D071C07BE
:103540000A160D0D160A071C070D5369013B53613E
:103550005DF8044B704753695DF8044B01335361C8
:10356000704743F00403E0E753695DF8044B023B06
:103570005361704753695DF8044B023353617047E0
:10358000137C03F003030029D1D043F00403CEE7FA
:103590002C960020214BDA6BD2E90010D368096821
:1035A000006810B41842946801EA04012ED0137C1C
:1035B00003F00303D9B943F008039908013B1174E0
:1035C0000D2B0BD8DFE803F00D071C070A160D0DB5
:1035D000160A071C070D5369013B53615DF8044B44
:1035E000704753695DF8044B01335361704743F0F2
:1035F0000403E0E753695DF8044B023B53617047F5
:1036000053695DF8044B023353617047137C03F038
:1036100003030029D1D043F00403CEE72C96002009
:10362000214B1A6CD2E90010D3680968006810B405
:103630001842946801EA04012ED0137C03F00303BE
:10364000D9B943F008039908013B11740D2B0BD82D
:10365000DFE803F00D071C070A160D0D160A071CFC
:10366000070D5369013B53615DF8044B7047536983
:103670005DF8044B01335361704743F00403E0E706
:1036800053695DF8044B023B5361704753695DF821
:10369000044B023353617047137C03F0030300298A
:1036A000D1D043F00403CEE72C960020214B5A6C76
:1036B000D2E90010D3680968006810B41842946811
:1036C00001EA04012ED0137C03F00303D9B943F0BF
:1036D00008039908013B11740D2B0BD8DFE803F0A8
:1036E0000D071C070A160D0D160A071C070D536956
:1036F000013B53615DF8044B704753695DF8044B1F
:1037000001335361704743F00403E0E753695DF808
:10371000044B023B5361704753695DF8044B02331D
:1037200053617047137C03F003030029D1D043F0A9
:103730000403CEE72C960020214B9A6CD2E90010AE
:10374000D3680968006810B41842946801EA04015B
:103750002ED0137C03F00303D9B943F00803990872
:10376000013B11740D2B0BD8DFE803F00D071C078C
:103770000A160D0D160A071C070D5369013B53610C
:103780005DF8044B704753695DF8044B0133536196
:10379000704743F00403E0E753695DF8044B023BD4
:1037A0005361704753695DF8044B023353617047AE
:1037B000137C03F003030029D1D043F00403CEE7C8
:1037C0002C960020214BDA6CD2E90010D3680968EE
:1037D000006810B41842946801EA04012ED0137CEA
:1037E00003F00303D9B943F008039908013B1174AE
:1037F0000D2B0BD8DFE803F00D071C070A160D0D83
:10380000160A071C070D5369013B53615DF8044B11
:10381000704753695DF8044B01335361704743F0BF
:103820000403E0E753695DF8044B023B53617047C2
:1038300053695DF8044B023353617047137C03F006
:1038400003030029D1D043F00403CEE72C960020D7
:10385000214B1A6DD2E90010D3680968006810B4D2
:103860001842946801EA04012ED0137C03F003038C
:10387000D9B943F008039908013B11740D2B0BD8FB
:10388000DFE803F00D071C070A160D0D160A071CCA
:10389000070D5369013B53615DF8044B7047536951
:1038A0005DF8044B01335361704743F00403E0E7D4
:1038B00053695DF8044B023B5361704753695DF8EF
:1038C000044B023353617047137C03F00303002958
:1038D000D1D043F00403CEE72C960020214B5A6D43
:1038E000D2E90010D3680968006810B418429468DF
:1038F00001EA04012ED0137C03F00303D9B943F08D
:1039000008039908013B11740D2B0BD8DFE803F075
:103910000D071C070A160D0D160A071C070D536923
:10392000013B53615DF8044B704753695DF8044BEC
:1039300001335361704743F00403E0E753695DF8D6
:10394000044B023B5361704753695DF8044B0233EB
:1039500053617047137C03F003030029D1D043F077
:103960000403CEE72C960020214B9A6DD2E900107B
:10397000D3680968006810B41842946801EA040129
:103980002ED0137C03F00303D9B943F00803990840
:10399000013B11740D2B0BD8DFE803F00D071C075A
:1039A0000A160D0D160A071C070D5369013B5361DA
:1039B0005DF8044B704753695DF8044B0133536164
:1039C000704743F00403E0E753695DF8044B023BA2
:1039D0005361704753695DF8044B0233536170477C
:1039E000137C03F003030029D1D043F00403CEE796
:1039F0002C960020214BDA6DD2E90010D3680968BB
:103A0000006810B41842946801EA04012ED0137CB7
:103A100003F00303D9B943F008039908013B11747B
:103A20000D2B0BD8DFE803F00D071C070A160D0D50
:103A3000160A071C070D5369013B53615DF8044BDF
:103A4000704753695DF8044B01335361704743F08D
:103A50000403E0E753695DF8044B023B5361704790
:103A600053695DF8044B023353617047137C03F0D4
:103A700003030029D1D043F00403CEE72C960020A5
:103A8000214B1A6ED2E90010D3680968006810B49F
:103A90001842946801EA04012ED0137C03F003035A
:103AA000D9B943F008039908013B11740D2B0BD8C9
:103AB000DFE803F00D071C070A160D0D160A071C98
:103AC000070D5369013B53615DF8044B704753691F
:103AD0005DF8044B01335361704743F00403E0E7A2
:103AE00053695DF8044B023B5361704753695DF8BD
:103AF000044B023353617047137C03F00303002926
:103B0000D1D043F00403CEE72C960020214B5A6E0F
:103B1000D2E90010D3680968006810B418429468AC
:103B200001EA04012ED0137C03F00303D9B943F05A
:103B300008039908013B11740D2B0BD8DFE803F043
:103B40000D071C070A160D0D160A071C070D5369F1
:103B5000013B53615DF8044B704753695DF8044BBA
:103B600001335361704743F00403E0E753695DF8A4
:103B7000044B023B5361704753695DF8044B0233B9
:103B800053617047137C03F003030029D1D043F045
:103B90000403CEE72C960020214B9A6ED2E9001048
:103BA000D3680968006810B41842946801EA0401F7
:103BB0002ED0137C03F00303D9B943F0080399080E
:103BC000013B11740D2B0BD8DFE803F00D071C0728
:103BD0000A160D0D160A071C070D5369013B5361A8
:103BE0005DF8044B704753695DF8044B0133536132
:103BF000704743F00403E0E753695DF8044B023B70
:103C00005361704753695DF8044B02335361704749
:103C1000137C03F003030029D1D043F00403CEE763
:103C20002C960020214BDA6ED2E90010D368096887
:103C3000006810B41842946801EA04012ED0137C85
:103C400003F00303D9B943F008039908013B117449
:103C50000D2B0BD8DFE803F00D071C070A160D0D1E
:103C6000160A071C070D5369013B53615DF8044BAD
:103C7000704753695DF8044B01335361704743F05B
:103C80000403E0E753695DF8044B023B536170475E
:103C900053695DF8044B023353617047137C03F0A2
:103CA00003030029D1D043F00403CEE72C96002073
:103CB000214B1A6FD2E90010D3680968006810B46C
:103CC0001842946801EA04012ED0137C03F0030328
:103CD000D9B943F008039908013B11740D2B0BD897
:103CE000DFE803F00D071C070A160D0D160A071C66
:103CF000070D5369013B53615DF8044B70475369ED
:103D00005DF8044B01335361704743F00403E0E76F
:103D100053695DF8044B023B5361704753695DF88A
:103D2000044B023353617047137C03F003030029F3
:103D3000D1D043F00403CEE72C960020214B5A6FDC
:103D4000D2E90010D3680968006810B4184294687A
:103D500001EA04012ED0137C03F00303D9B943F028
:103D600008039908013B11740D2B0BD8DFE803F011
:103D70000D071C070A160D0D160A071C070D5369BF
:103D8000013B53615DF8044B704753695DF8044B88
:103D900001335361704743F00403E0E753695DF872
:103DA000044B023B5361704753695DF8044B023387
:103DB00053617047137C03F003030029D1D043F013
:103DC0000403CEE72C960020214B9A6FD2E9001015
:103DD000D3680968006810B41842946801EA0401C5
:103DE0002ED0137C03F00303D9B943F008039908DC
:103DF000013B11740D2B0BD8DFE803F00D071C07F6
:103E00000A160D0D160A071C070D5369013B536175
:103E10005DF8044B704753695DF8044B01335361FF
:103E2000704743F00403E0E753695DF8044B023B3D
:103E30005361704753695DF8044B02335361704717
:103E4000137C03F003030029D1D043F00403CEE731
:103E50002C960020214BDA6FD2E90010D368096854
:103E6000006810B41842946801EA04012ED0137C53
:103E700003F00303D9B943F008039908013B117417
:103E80000D2B0BD8DFE803F00D071C070A160D0DEC
:103E9000160A071C070D5369013B53615DF8044B7B
:103EA000704753695DF8044B01335361704743F029
:103EB0000403E0E753695DF8044B023B536170472C
:103EC00053695DF8044B023353617047137C03F070
:103ED00003030029D1D043F00403CEE72C96002041
:103EE000224BD3F88020D2E90010D368096800681B
:103EF00010B41842946801EA04012ED0137C03F038
:103F00000303D9B943F008039908013B11740D2B41
:103F10000BD8DFE803F00D071C070A160D0D160A73
:103F2000071C070D5369013B53615DF8044B704753
:103F300053695DF8044B01335361704743F0040348
:103F4000E0E753695DF8044B023B536170475369E6
:103F50005DF8044B023353617047137C03F0030395
:103F60000029D1D043F00403CEE700BF2C960020F7
:103F7000224BD3F88420D2E90010D3680968006886
:103F800010B41842946801EA04012ED0137C03F0A7
:103F90000303D9B943F008039908013B11740D2BB1
:103FA0000BD8DFE803F00D071C070A160D0D160AE3
:103FB000071C070D5369013B53615DF8044B7047C3
:103FC00053695DF8044B01335361704743F00403B8
:103FD000E0E753695DF8044B023B53617047536956
:103FE0005DF8044B023353617047137C03F0030305
:103FF0000029D1D043F00403CEE700BF2C96002067
:10400000224BD3F88820D2E90010D36809680068F1
:1040100010B41842946801EA04012ED0137C03F016
:104020000303D9B943F008039908013B11740D2B20
:104030000BD8DFE803F00D071C070A160D0D160A52
:10404000071C070D5369013B53615DF8044B704732
:1040500053695DF8044B01335361704743F0040327
:10406000E0E753695DF8044B023B536170475369C5
:104070005DF8044B023353617047137C03F0030374
:104080000029D1D043F00403CEE700BF2C960020D6
:10409000224BD3F88C20D2E90010D368096800685D
:1040A00010B41842946801EA04012ED0137C03F086
:1040B0000303D9B943F008039908013B11740D2B90
:1040C0000BD8DFE803F00D071C070A160D0D160AC2
:1040D000071C070D5369013B53615DF8044B7047A2
:1040E00053695DF8044B01335361704743F0040397
:1040F000E0E753695DF8044B023B53617047536935
:104100005DF8044B023353617047137C03F00303E3
:104110000029D1D043F00403CEE700BF2C96002045
:10412000224BD3F89020D2E90010D36809680068C8
:1041300010B41842946801EA04012ED0137C03F0F5
:104140000303D9B943F008039908013B11740D2BFF
:104150000BD8DFE803F00D071C070A160D0D160A31
:10416000071C070D5369013B53615DF8044B704711
:1041700053695DF8044B01335361704743F0040306
:10418000E0E753695DF8044B023B536170475369A4
:104190005DF8044B023353617047137C03F0030353
:1041A0000029D1D043F00403CEE700BF2C960020B5
:1041B000224BD3F89420D2E90010D3680968006834
:1041C00010B41842946801EA04012ED0137C03F065
:1041D0000303D9B943F008039908013B11740D2B6F
:1041E0000BD8DFE803F00D071C070A160D0D160AA1
:1041F000071C070D5369013B53615DF8044B704781
:1042000053695DF8044B01335361704743F0040375
:10421000E0E753695DF8044B023B53617047536913
:104220005DF8044B023353617047137C03F00303C2
:104230000029D1D043F00403CEE700BF2C96002024
:10424000224BD3F89820D2E90010D368096800689F
:1042500010B41842946801EA04012ED0137C03F0D4
:104260000303D9B943F008039908013B11740D2BDE
:104270000BD8DFE803F00D071C070A160D0D160A10
:10428000071C070D5369013B53615DF8044B7047F0
:1042900053695DF8044B01335361704743F00403E5
:1042A000E0E753695DF8044B023B53617047536983
:1042B0005DF8044B023353617047137C03F0030332
:1042C0000029D1D043F00403CEE700BF2C96002094
:1042D000224BD3F89C20D2E90010D368096800680B
:1042E00010B41842946801EA04012ED0137C03F044
:1042F0000303D9B943F008039908013B11740D2B4E
:104300000BD8DFE803F00D071C070A160D0D160A7F
:10431000071C070D5369013B53615DF8044B70475F
:1043200053695DF8044B01335361704743F0040354
:10433000E0E753695DF8044B023B536170475369F2
:104340005DF8044B023353617047137C03F00303A1
:104350000029D1D043F00403CEE700BF2C96002003
:10436000224BD3F8A020D2E90010D3680968006876
:1043700010B41842946801EA04012ED0137C03F0B3
:104380000303D9B943F008039908013B11740D2BBD
:104390000BD8DFE803F00D071C070A160D0D160AEF
:1043A000071C070D5369013B53615DF8044B7047CF
:1043B00053695DF8044B01335361704743F00403C4
:1043C000E0E753695DF8044B023B53617047536962
:1043D0005DF8044B023353617047137C03F0030311
:1043E0000029D1D043F00403CEE700BF2C96002073
:1043F000214B1A68D2E90010D3680968006810B42C
:104400001842946801EA04012ED0137C03F00303E0
:10441000D9B943F008039908013B11740D2B0BD84F
:10442000DFE803F00D071C070A160D0D160A071C1E
:10443000070D5369013B53615DF8044B70475369A5
:104440005DF8044B01335361704743F00403E0E728
:1044500053695DF8044B023B5361704753695DF843
:10446000044B023353617047137C03F003030029AC
:10447000D1D043F00403CEE72C960020224BD3F892
:10448000C420D2E90010D3680968006810B418424B
:10449000946801EA04012ED0137C03F00303D9B918
:1044A00043F008039908013B11740D2B0BD8DFE88A
:1044B00003F00D071C070A160D0D160A071C070D41
:1044C0005369013B53615DF8044B704753695DF8D4
:1044D000044B01335361704743F00403E0E7536931
:1044E0005DF8044B023B5361704753695DF8044B20
:1044F000023353617047137C03F003030029D1D0CA
:1045000043F00403CEE700BF2C960020224BD3F8E3
:10451000C820D2E90010D3680968006810B41842B6
:10452000946801EA04012ED0137C03F00303D9B987
:1045300043F008039908013B11740D2B0BD8DFE8F9
:1045400003F00D071C070A160D0D160A071C070DB0
:104550005369013B53615DF8044B704753695DF843
:10456000044B01335361704743F00403E0E75369A0
:104570005DF8044B023B5361704753695DF8044B8F
:10458000023353617047137C03F003030029D1D039
:1045900043F00403CEE700BF2C960020224BD3F853
:1045A000CC20D2E90010D3680968006810B4184222
:1045B000946801EA04012ED0137C03F00303D9B9F7
:1045C00043F008039908013B11740D2B0BD8DFE869
:1045D00003F00D071C070A160D0D160A071C070D20
:1045E0005369013B53615DF8044B704753695DF8B3
:1045F000044B01335361704743F00403E0E7536910
:104600005DF8044B023B5361704753695DF8044BFE
:10461000023353617047137C03F003030029D1D0A8
:1046200043F00403CEE700BF2C960020224BD3F8C2
:10463000D020D2E90010D3680968006810B418428D
:10464000946801EA04012ED0137C03F00303D9B966
:1046500043F008039908013B11740D2B0BD8DFE8D8
:1046600003F00D071C070A160D0D160A071C070D8F
:104670005369013B53615DF8044B704753695DF822
:10468000044B01335361704743F00403E0E753697F
:104690005DF8044B023B5361704753695DF8044B6E
:1046A000023353617047137C03F003030029D1D018
:1046B00043F00403CEE700BF2C960020224BD3F832
:1046C000D420D2E90010D3680968006810B41842F9
:1046D000946801EA04012ED0137C03F00303D9B9D6
:1046E00043F008039908013B11740D2B0BD8DFE848
:1046F00003F00D071C070A160D0D160A071C070DFF
:104700005369013B53615DF8044B704753695DF891
:10471000044B01335361704743F00403E0E75369EE
:104720005DF8044B023B5361704753695DF8044BDD
:10473000023353617047137C03F003030029D1D087
:1047400043F00403CEE700BF2C960020224BD3F8A1
:10475000D820D2E90010D3680968006810B4184264
:10476000946801EA04012ED0137C03F00303D9B945
:1047700043F008039908013B11740D2B0BD8DFE8B7
:1047800003F00D071C070A160D0D160A071C070D6E
:104790005369013B53615DF8044B704753695DF801
:1047A000044B01335361704743F00403E0E753695E
:1047B0005DF8044B023B5361704753695DF8044B4D
:1047C000023353617047137C03F003030029D1D0F7
:1047D00043F00403CEE700BF2C9600206B49F8B5E8
:1047E0000A7801256A4F04463D54002A3FD1694B9F
:1047F0001868002832D0837983B3674BC57AD3F821
:1048000000E05DB30346164609E002291AD1597B40
:10481000A14254D001321A33D6B2B5421ED9197B07
:104820000129F2D1597BA142F4D11A2303FB0203DF
:10483000DC7B012C00F09180022C00F08680002CA3
:104840007BD0F8BD0329E5D1597BA14255D093F81F
:104850000EC0A445DED17B5C002B55D12046FDF770
:10486000E7FC0028EDD0BDE8F84019F09FBC4B4BA9
:10487000002618700E701AF0B5F9494B1B78002B02
:10488000DFD0484B1B78DB07DBD5434B464A1B6820
:1048900012689B1A0E2BD4D9112144481AF024F91E
:1048A000334621460A22424817F0ECFA294641488D
:1048B0001AF01AF93E48BDE8F84017F0B9BA3E4B75
:1048C00053F8241043F824E0AEEB010EBEF1310F93
:1048D000C4D91A2303FB02031B8A7345BED3374C8A
:1048E0002378002B4CD1364B0021364A30461970C4
:1048F0001670BDE8F840FDF773BF1A2303FB0203EF
:104900009B7BFB5C002BA9D01A2303FB0203DC7BFF
:10491000012C22D0022C92D12B498B5C83F0010315
:104920008B54D3B919F054FB244C00232448254A56
:10493000FF21237003701170F8BD204D2B78002BE0
:10494000D1D019F045FB2C70CDE71F498B5C83F06B
:1049500001038B54002BE5D0C1E7184C237853B9E1
:1049600018480122164B0021067030461A70BDE827
:10497000F840FDF735BF19F02BFB00232370EFE75C
:1049800019F026FB00232370ADE700BF729F0020C3
:10499000B0940020B09500202C9E00207C9F002029
:1049A000A49F0020A39F0020449F0020C01F002040
:1049B00020460020D42300208C7E0020849F0020ED
:1049C000819F0020AA4F0020C892002038B5002304
:1049D00004460E4D03212361A38223630C48C4E9DE
:1049E0000053C4E90233C4E90633C4E90833C4E917
:1049F0000A3314F019FE0421064814F02DFE01219B
:104A0000054814F043FE204638BD00BF9C3200200C
:104A1000E0620020E0610020D095002070B50446DF
:104A200000257B49FF2604F5EB634FF440722030EC
:104A30002570C4F858374FF4687365702162A5700B
:104A4000A4F89823E570C4F8A8032671A4F85C378D
:104A50006671A5736562A562C4F87853C4F87C5387
:104A600084F89A5384F85E57C4E9E055C4E9E255E6
:104A7000C4E9E45511F060F8664B04F5EC6084F885
:104A8000855703F14C02C4F86037C4F86457C4F882
:104A90006C27C4F86857C4F8705784F87457C4F882
:104AA0007857C4F87C57C4F8805784F8845784F842
:104AB000865784F88757C4F88857C4F88C57C4F8C9
:104AC0009057C4F8945714F0D9FF534B04F5F36092
:104AD00084F81A5803F15802C4F89837A4F81C68EF
:104AE00004F50466C4F8A427C4F89C57C4F8A0577A
:104AF000C4F8A85784F8AC57C4F8B057C4F8B457F2
:104B0000C4F8C057C4F8C45784F8F65784F8F85767
:104B1000C4F80458C4F80858C4F80C58C4F810581D
:104B2000C4F81458A4F8185884F81B5884F8275867
:104B3000C4F82858C4F82C58C4F83058C4F834586D
:104B400014F002FA354B40F20111012003F16C021E
:104B5000C4F84038A4F878182946C4F84C2803F162
:104B6000980284F87A0804F68800C4F858284FF4AC
:104B70008072C4F84458C4F84858C4F85058C4F86F
:104B80005458C4F85C5884F86058C4F86458C4F8A1
:104B9000685884F86C58C4F87058C4F87458C4F84D
:104BA0007C58A4F8805884F88258C4F884581DF0C2
:104BB000EBF800220023C6E95223C6E9542340F251
:104BC000FF320023C6E95623C4F8A059C4F8A459FB
:104BD000C4F8A859C4F8AC5917F0FCFD034684F892
:104BE000B4593046C4F8B03984F8D55CA4F8D65C22
:104BF000A4F8D85C12F004F804F55860FFF7E6FE5C
:104C0000204684F8F45DC4F80650C4F80A5070BD1C
:104C1000D830002014320020B4330020E0320020CD
:104C200010B504460FF078FB034A044BC4F8C027C4
:104C3000C4F8C43710BD00BF3502000009020000EF
:104C400070B504460E4610F033FBFDF765FAD4F854
:104C5000683794F88527003B02F0FF0518BF012351
:104C600084F8F43D0AB9284670BD94F887376FF090
:104C70007E0204F5EC603370D4F888377F2BA8BF30
:104C80007F239342B8BF13467380D4F88C377F2BB1
:104C9000A8BF7F239342B8BF1346B380D4F89037A0
:104CA0007F2BA8BF7F239342B8BF1346B37114F084
:104CB000EFFE284670BD00BF144A10B5137882B0CD
:104CC00008780C4683420DD0C0F300111070C0F379
:104CD000C003C0F340020091C0F3800100F0010066
:104CE00019F084FBB4F90200B4F9041094F9062019
:104CF00000B939B1002349B240B202B0BDE810405A
:104D000019F09CBB002AF5D102B010BDAE4F0020B7
:104D100090F8F40D704700BFD0F854380BB1012063
:104D2000704790F8950D7047D0F8A007003818BF6D
:104D300001207047012870B576D0831E0446012BF0
:104D400033D9464D19F04EFF2B781BB1444B1B78DD
:104D5000DA071BD4642017F0E9FC19F043FF2B7825
:104D60009BB13F4B1B78DB070FD53E4B3E4A1B6880
:104D700012689B1A0E2B08D90B213C4819F0B4FE7F
:104D80003B48BDE8704017F053B870BD354B364A0C
:104D90001B6812689B1A0E2BDCD92521354819F0A7
:104DA000A3FE334817F044F8D4E7334B40F6020231
:104DB00032485D68324905F00F05324E2843274DD1
:104DC0005860986801400A439A600123337018F0D4
:104DD00057FF19F007FF2B78002BB3D0204B1B781F
:104DE000D907AFD51F4B204A1B6812689B1A0E2BA0
:104DF000A8D90E21244819F077FE244B032124481A
:104E00008C4218BF184619F06FFE2121214819F075
:104E10006BFE174817F00CF835211F4819F064FE97
:104E2000134817F005F88DE70C4D19F0DBFE2B78D1
:104E3000002B87D00A4B1B78D80783D5094B0A4A29
:104E40001B6812689B1A0E2B7FF67CAF2321134838
:104E500019F04AFE064816F0EBFF73E7A49F002006
:104E6000A39F00202C9E0020449F0020801900203A
:104E70002046002058190020489F00200020800074
:104E800000F0FFFF869F0020481900201C19002019
:104E9000201900208C190020B019002024190020AE
:104EA000DFED327A40F2FF3120EE270A60EEA70AEA
:104EB000BDEEC00AFDEEE00A10EE103A03F50073F5
:104EC0002DE9F0418B422A4E074610EE900AA8BF0A
:104ED0000B46B26800F50074DFF89C8023EAE373A8
:104EE00022F003028C4242EA1322F371A8BF0C465F
:104EF00098F80010B26024EAE47431B31D4B1340FB
:104F000043EA8403B3600024012508E033680134D8
:104F10001A43326089B1072C13D098F8001047FA71
:104F200004F305FA04F0DB070246EFD432680134DB
:104F300022EA000232600029EDD118F0A1FE072C10
:104F4000EBD1BDE8F04118F09BBE18F099FEB268B5
:104F5000084B98F80010134043EA8403B36000291B
:104F6000D1D118F08DFE98F80010CCE70080FF43F7
:104F7000489F002003F0FFFF869F00200B4610B5DE
:104F8000362800F29782DFE810F08C028202790264
:104F9000700267025E0255024C0243023A0231027D
:104FA00028021F02BF01B601AD01A4019B019201BD
:104FB0008901800177016E0165015C0153014A019D
:104FC000410138012F0126011D0113010901FF00D4
:104FD000F500EB00E100D700CD00C300B900AF0041
:104FE000A5009B00910087007D00730069005F00B1
:104FF00055004B0041003700C84C0422C8493620F8
:10500000C4F8D83017F092FE012010BDC34C042222
:10501000C4493520C4F8D43017F088FE012010BDF3
:10502000BE4C0422C0493420C4F8D03017F07EFEB4
:10503000012010BDB94C0422BC493320C4F8CC3047
:1050400017F074FE012010BDB44C0422B849322080
:10505000C4F8C83017F06AFE012010BDAF4C04221E
:10506000B4493120C4F8C43017F060FE012010BDEF
:10507000AA4C0422B0493020C4F8C03017F056FEC4
:10508000012010BDA54C0422AC492F20C4F8BC302F
:1050900017F04CFE012010BDA04C0422A8492E2080
:1050A000C4F8B83017F042FE012010BD9B4C04221A
:1050B000A4492D20C4F8B43017F038FE012010BDEB
:1050C000964C0422A0492C20C4F8B03017F02EFED4
:1050D000012010BD914C04229C492B20C4F8AC3017
:1050E00017F024FE012010BD8C4C042298492A2080
:1050F000C4F8A83017F01AFE012010BD874C042216
:1051000094492920C4F8A43017F010FE012010BDE6
:10511000824C042290492820C4F8A03017F006FEE3
:10512000012010BD7D4C04228C492720C4F89C30FE
:1051300017F0FCFD012010BD784C04228849262080
:10514000C4F8983017F0F2FD012010BD734C042212
:1051500084492520C4F8943017F0E8FD012010BDE3
:105160006E4C042280492420C4F8903017F0DEFDF4
:10517000012010BD694C04227C492320C4F88C30E6
:1051800017F0D4FD012010BD644C04227849222080
:10519000C4F8883017F0CAFD012010BD5F4C04220E
:1051A00074492120C4F8843017F0C0FD012010BDDF
:1051B0005A4C042270492020C4F8803017F0B6FD04
:1051C000012010BD554C04226C491F20E36717F0E5
:1051D000ADFD012010BD514C042269491E20A3677A
:1051E00017F0A4FD012010BD4C4C042265491D2080
:1051F000636717F09BFD012010BD484C04226249F3
:105200001C20236717F092FD012010BD434C04229F
:105210005E491B20E36617F089FD012010BD3F4C5D
:1052200004225B491A20A36617F080FD012010BDFF
:105230003A4C042257491920636617F077FD012084
:1052400010BD364C042254491820236617F06EFD19
:10525000012010BD314C042250491720E36517F09E
:1052600065FD012010BD2D4C04224D491620A3657B
:1052700017F05CFD012010BD284C0422494915207F
:10528000636517F053FD012010BD244C04224649EC
:105290001420236517F04AFD012010BD1F4C042285
:1052A00042491320E36417F041FD012010BD1B4C5F
:1052B00004223F491220A36417F038FD012010BDDD
:1052C000164C04223B491120636417F02FFD012086
:1052D00010BD124C042238491020236417F026FD1B
:1052E000012010BD0D4C042234490F20E36317F058
:1052F0001DFD012010BD094C042231490E20A3637D
:1053000017F014FD012010BD044C04222D490D207E
:10531000636317F00BFD012010BD00BF2C96002029
:105320007D270000ED2600005D260000CD25000051
:105330003D250000AD240000190E0000890D00007D
:10534000F90C0000690C0000D90B0000490B0000AB
:10535000B90A0000290A000091230000012300007F
:1053600071220000E121000051210000C120000055
:1053700031200000A11F0000111F0000851E000049
:10538000F91D00006D1D0000E11C0000551C00000F
:10539000C91B00003D1B0000B11A0000251A0000C7
:1053A000991900000D19000081180000F517000080
:1053B00069170000DD16000051160000C515000039
:1053C00039150000AD1400003B4C04223B490C2071
:1053D000236317F0ABFC012010BD374C0422384981
:1053E0000B20E36217F0A2FC012010BD324C042216
:1053F00034490A20A36217F099FC012010BD2E4CFD
:10540000042231490920636217F090FC012010BD8D
:10541000294C04222D490820236217F087FC012023
:1054200010BD254C04222A490720E36117F07EFCB9
:10543000012010BD204C042226490620A36117F04C
:1054400075FC012010BD1C4C04222349052063611A
:1054500017F06CFC012010BD0422174C1F491046A8
:10546000236117F063FC012010BD134C04221C497A
:105470000320E36017F05AFC012010BD0E4C0422FB
:1054800018490220A36017F051FC012010BD04460A
:105490000948042214494360012017F047FC2046C4
:1054A00010BD054C042211490020236017F03EFC7A
:1054B000012010BD002010BD2C96002021140000FA
:1054C00095130000091300007D1200004D1000002C
:1054D000C10F0000350F0000A90E0000651100008B
:1054E000D9100000F11100009D09000021240000E6
:1054F0002DE9F0410F46164604460221384617F0C2
:10550000CFF90221304617F0CBF9224B3A0122485D
:105510003101DFF88CC053F8028003EB0712C4F8A6
:105520000080D2F80CE003EB061259580023C4F8AF
:1055300008E0D2686361194BE26045681B686160EE
:10554000ACFB033C4FF4FA634FEA9C4C03FB0CFCAE
:1055500043685B1B9C45FBD8D8F800303846096887
:105560001EEA030F14BF012300230A42214618BF7D
:1055700043F002032374FFF701FD03462146304642
:105580002376FFF7FBFC227E034620461344237656
:10559000BDE8F0810C390020001000E02C4500200F
:1055A00083DE1B43022110B50446084617F078F944
:1055B0000221052017F074F9022017F05FF9034665
:1055C000052084F8203017F059F9002384F82100D1
:1055D0006362E362A38619F005FB0C4B1B789BB159
:1055E0000B4B1B78DB070FD50A4B0B4A1B68126865
:1055F0009B1A0E2B08D92721084819F075FA08487C
:10560000BDE8104016F014BC10BD00BFA49F0020E0
:10561000A39F00202C9E0020449F0020EC2A002005
:1056200020460020A94AAA4930B5137E83B004461B
:105630000D68012B40F28C8072B6536962B6002B64
:105640001846B8BFD81C80101AD072B6D3F1000C1F
:1056500003F003010CF0030C58BFCCF100015161C1
:1056600062B6226862B1B3F5007F06DA13F5007FF7
:1056700040F33481404240B201E06FF07E00904739
:10568000944A137E012B50D972B6536962B6002B2F
:105690001846B8BFD81C80101AD072B6D3F1000CCF
:1056A00003F003010CF0030C58BFCCF10001516171
:1056B00062B6626862B1B3F5007F06DA13F5007F67
:1056C00040F30E81404240B201E06FF07E0090470F
:1056D000022017F0D3F894F82030834203D0636A95
:1056E000EB1A312B17D8052017F0C8F894F82130A1
:1056F00083420ED0E36AEB1A312B0AD9E562002807
:1057000052D101232563E56184F83530237684F88E
:10571000210003B030BD656200282CD10123A562B1
:1057200084F8343084F82000DDE772B6136891689D
:105730001B68194053681868D36818427AD0137CE4
:1057400003F0030309B143F0040343F0080377E0D7
:1057500072B6136891681B68194053681868D3685B
:1057600018423BD0137C03F0030309B143F0040358
:1057700043F0080338E094F83430002BD2D00022F4
:10578000A36A84F83420EB1A40F2DB52934200F211
:10579000A980514B1B78002BC4D1A368002BC1D02A
:1057A000019098470198BDE7002394F835202376AF
:1057B000002AACD0484A84F835301378002BA6D1A3
:1057C000236B40F2DB52EB1A934240F29080636904
:1057D000002B9CD001909847019898E7137C03F028
:1057E000030309B143F004039908013B11740D2B25
:1057F0003FF623AF01A151F823F000BFD5380000D8
:10580000CD380000E5380000CD3800006B360000D0
:10581000DD380000D5380000D5380000DD38000044
:105820006B360000CD380000E5380000CD380000B0
:10583000D5380000137C03F0030309B143F00403DF
:105840009908013B11740D2B3FF61FAF01A151F8D0
:1058500023F000BFC5380000BD380000F538000057
:10586000BD380000BB360000ED380000C538000030
:10587000C5380000ED380000BB360000BD38000020
:10588000F5380000BD380000C53800005369013B01
:105890005361FBE6536901335361F7E65369013BFA
:1058A0005361CBE6536901335361C7E65369023B49
:1058B0005361C3E6536902335361BFE65369023B48
:1058C0005361E3E6536902335361DFE650940020ED
:1058D0002C9E00206C940020B34F00207F20CEE649
:1058E0007F20F4E6E368002B7FF45AAF1AE72369C0
:1058F000002B7FF46FAF0AE710B501210A2016F0E4
:10590000CFFF01210A202B4C16F08EFF012125200C
:1059100016F0C6FF0121252016F086FF0121072081
:1059200016F0BEFF0121072016F07EFF00234FF482
:105930008C72F021204616F053F80121204615F014
:10594000E5FF0021204614F061FB00224FF0FF33F9
:1059500003212046E276636115F01CF9164B032201
:1059600016492046236116F0FFF90221204615F062
:1059700011F9134B0C2213492046236116F0F4F958
:1059800019F030F9104B1B789BB1104B1B78DB07DB
:105990000FD50F4B0F4A1B6812689B1A0E2B08D9A4
:1059A00016210D4819F0A0F80C48BDE8104016F07B
:1059B0003FBA10BD349E00203C005A00381E002023
:1059C0003C007D003C1E0020A49F0020A39F0020DF
:1059D0002C9E0020449F00204C1E002020460020CA
:1059E00010B50121254C222016F05AFF012122205A
:1059F00016F01AFF00234FF48C72F021204615F0A8
:105A0000EFFF0121204615F081FF0021204614F010
:105A1000FDFA00226FF0F82303212046E27663614D
:105A200015F0B8F8164B032216492046236116F0EC
:105A30009BF90221204615F0ADF8134B0B221349B8
:105A40002046236116F090F919F0CCF8104B1B7822
:105A50009BB1104B1B78DB070FD50F4B0F4A1B6810
:105A600012689B1A0E2B08D916210D4819F03CF824
:105A70000C48BDE8104016F0DBB910BDB89E002000
:105A80003C005A00381E002054007D00FC1E0020FF
:105A9000A49F0020A39F00202C9E0020449F002054
:105AA000081F002020460020034608461146062B0A
:105AB00010B582B014D90D2B08D90E3B062B3AD85D
:105AC000DFE803F035312F24181410001D4C073B7C
:105AD0001D4A34F9133002B0BDE810401BF0E8BF96
:105AE0001A4CF5E71A4B1B4A1B68F4E71A4B1B4A82
:105AF0001B78F0E71A4B93ED007A1A4AB7EEC77A93
:105B00008DED007B1BF0D4FF02B010BD164B174A81
:105B100093ED007AB7EEC77A8DED007B1BF0C8FFDE
:105B2000F2E7134BE7E7134B134A1B88D3E7134BFA
:105B3000114A1B88CFE7124A02B0BDE810401BF0A3
:105B4000B7BF00BF209D0020E8190020109D002055
:105B50007C4C00201C1A0020B24F0020141A002098
:105B60006C4C0020FC1900200C9D0020081A00201D
:105B7000744C0020689F0020F4190020669F0020CC
:105B80000C300020C1EB0111364A374B49002DE99A
:105B9000F0410746B3F9005092F900008CB27BB295
:105BA00086B004F11802984292B253D0AF424DD061
:105BB000062F53D94FF6FF734FF6A0460D2F88BF1F
:105BC0001E460023294D12B201931E2300212846B0
:105BD00000934FF48C7315F08FFAEE82AE8202219F
:105BE000284604F11F0614F0D5FF042336B22B8299
:105BF0001F4B6E8253F82780B8F1000F07D0404644
:105C00001CF066FC41460246284616F0ADF802A993
:105C100038460E22FFF748FF982302A86E822B8297
:105C20001CF056FC02A90246104816F09DF804F13B
:105C3000350242F204144FF48C7312B200210B4867
:105C4000009415F0F1F906B0BDE8F08100264FF69A
:105C5000FF73B7E700264FF4FC63B3E740F25F46FB
:105C60000023AFE7B04F0020649F0020349E002047
:105C7000402200202DE9F04F2DED048B8FB000283D
:105C800000F01B8240F25F42914B924F0292B3F8B8
:105C90000080914A0492049B00219A1E03F10C0497
:105CA000059232F9023F002BC3F10000B8BF03B2E6
:105CB0009942B8BF1946A242F3D1642940F38C82BD
:105CC000C82940F30482B1F5967F9FED848ADFED09
:105CD000847ACBBF4FF0FA094FF096094FF4FA7669
:105CE0004FF4967638FE278A7E4C002116254FF019
:105CF000CC0A204614F08AF900220F2320461146D0
:105D0000009501934FF48C7315F0F6F902212046AB
:105D100014F040FF029B39460722E3822046A3820B
:105D200041F6C307704B236116F01EF86F4B01213B
:105D30002046636114F02EFF6D4B6E4A14211B68E0
:105D400009A8009333461BF0B3FE09A81CF0C0FB62
:105D5000082140F215130246618200EB4001204603
:105D6000A3EB410309A9238215F0FEFF40F641038E
:105D70002A461C212046CDE900A3FA2315F0BCF9E0
:105D800044F208237C221C2120460093FA2315F0BC
:105D90004BF9FA2349221C212046009715F044F9BB
:105DA000FA23AF221C212046009715F03DF942F25C
:105DB00004132A461C2100932046FA2315F034F9D7
:105DC000B8F1000F04D04A4B1A68424500F20A822B
:105DD0000121444814F0DEFE474B484A0721636125
:105DE00007A8334600251BF063FE4FF4B01307A845
:105DF0009FED439A23614FF07C0A1CF069FB07A9D1
:105E00000246384815F0B0FF4B463C4A072107A828
:105E1000DFED3C9A1BF04CFE4FF48A0307A8DFED40
:105E20003A8A23611CF054FB07A902462D4815F05D
:105E30009BFF364B0222364923612A4815F094FF16
:105E40004B46344A072107A84FF01C091BF030FECF
:105E50004FF42B0307A823611CF03AFB07A9024665
:105E6000204815F081FF33462A4A072107A82E460D
:105E70001BF01EFE4FF45A0307A823611CF028FBF9
:105E800007A90246174815F06FFF234B012223494B
:105E90002361144815F068FF154B214A14211B6833
:105EA00009A81BF005FE09A81CF012FBE42302461A
:105EB00009A9638200EB40030A485B00C3F58B73BA
:105EC0002382012415F050FF064815F02DF841E01B
:105ED000669F0020C00C0020109D00200000FA43A7
:105EE00000009643B89E00200900030018C618C69B
:105EF0007C4C0020D00C002010841084E00C00208A
:105F0000000000000000CC420000F84204007800CD
:105F1000E40C0020E80C00201C00E400EC0C002045
:105F2000F00C0020E12BA8BFE1231A461FB205F1B7
:105F30001C030FFA83FB002C00F0988002354FF011
:105F4000000446F10006A5F1FC02324300F0DA80BD
:105F5000BA46D946AC4BFA221F680023A7FB0501BD
:105F600007FB061119F0F6FD4045C0F0B6808742E8
:105F700040F2B380A0EB0800A7EB0807B1EE086A77
:105F8000049907EE900AF8EE676A07EE907AB8EE89
:105F9000677AC6EE877A67EE867ABDEEE77A17EE05
:105FA000102A17EE103A052AA8BF052331F913006D
:105FB00007EE103A01EB4303B8EEC77A05EE900AFC
:105FC000B3F90210F8EEE55A05EE101A77EEC77A2B
:105FD000B8EEC55A002A40F0838035EE654AB3F921
:105FE0000430B6EE007A06EE103AB8EEC66A36EE27
:105FF000656A26EE076A27EEA77AF0EE086AB0EE29
:10600000003A67EE874A67EE266AF7EE002AB0EE9E
:10601000642AF0EE663AE4EEC36AA7EE432AD4EEB1
:10602000833A34EEC77A77EE827A73EEA24A67EE4D
:10603000847AE5EEA47AE6EE857AE7EE067A67EEF4
:10604000A97A87EE887A78EEC77AFDEEE77A17EEBE
:10605000903A1BB2152B3FF765AF162705F11C03CD
:106060003A460FFA83FB002C7FF468AF94B2029B90
:106070001FFA8AF16548621E019303915B4612B2D2
:10608000013400924A1E494624B212B214F03AF882
:10609000029B524649465D48CDE900735B4614F0C9
:1060A00031F8039902985B464A1C4946CDE9004005
:1060B00012B2564814F026F840E74FF6A042544B6F
:1060C000544F0292544AB3F800800492E3E59FEDE6
:1060D000538A4FF06409C82606E6F0EE497AB0E725
:1060E00033F9021CB6EE007A042A04EE101AB8EE58
:1060F000C44A35EE444A24EE074A7FF770AF35EEC6
:10610000656A78E74148254614F0B8FD9FED449A4A
:10611000DFED448A444E059F4CE001FB0500191851
:1061200041F10001A6FB01CE2EF0010C0CEB5E0C40
:10613000A1EB0C015B1AA3FB061360F100004908F8
:1061400006FB003341EAC3714144FA200023A1FB5E
:10615000000119F0FFFC1C2140F21512084403B2A3
:106160001B2B03DD9342A8BF1346194637F9023FA4
:106170004FF6FF72254807EE103A00920423B8EE5E
:10618000C77A27EE097AC7EE087A78EEE77AFDEE4D
:10619000E77A17EE902A12B2E12AA8BFE122162A66
:1061A000B8BF162214F028FA013445F10005E31FA8
:1061B0002B430CD0144B1A68A2EB08014245A1FBFB
:1061C0000430AAD84146002ABFD11C21CEE70FB027
:1061D000BDEC048BBDE8F08F9FED148A4FF03209BF
:1061E000642681E5FA210023A8FB010119F0B2FC25
:1061F0001C3053462A4601B247F6EF300090204645
:1062000014F0A8FEE4E500BF7C4C0020B89E0020FE
:10621000689F0020C80C0020209D002000004843FB
:106220000000CC420000F842ABAAAAAA0000C84273
:106230002DE9F04F844D91B000214FF00F08284612
:106240004FF0FF3413F0E2FE002216214FF48C735E
:10625000284609AE07AF4FF01B09CDE900181146DB
:1062600014F04AFF0221284614F094FC774B0722D1
:1062700077492846C5E9043415F076FD754B0121B0
:1062800028466B6114F086FC734B10227349284634
:106290002B6115F069FD724B724AADF82040002465
:1062A000079293E8070086E807000121284614F0CA
:1062B00071FC5C2321B216222846CDE9009814F027
:1062C0001BFF37F8022B56F804ABA31C1F21EA82F0
:1062D0005046AA822B826982BAF1000F06D01CF0C8
:1062E000F7F851460246284615F03EFD5D3440F26F
:1062F0001713A4B29C42DCD15B4B00264FF01B0B62
:10630000514F0393594B0493594B059306EB4604A5
:1063100016F0010F40F6410A4FF05C0304EBC40491
:1063200018BF4FF0000A00213846A4B2CDF800B0E3
:10633000CDF804A05FFA86F804F131093A340FFA77
:1063400089F924B24A4614F0D7FE4A4B4A4A40F231
:106350005F411B7810784FF6FF72C3EBC3036C826A
:10636000434408F10E08DBB2834218BF0A460E21EF
:106370000CA8EA82AA82039A32F9023F0093022310
:1063800003922B8233463D4A1BF092FB0CA81CF073
:106390009FF80CA90246384615F0E6FC5C234A46F5
:1063A0005D213846CDE900BA14F0A6FE049A0E210C
:1063B0000CA832F9023F6C820093314B04926B615E
:1063C0005F23304A2B8233461BF072FB0CA81CF073
:1063D0007FF80CA90246384615F0C6FC4A465D23F4
:1063E000BA213846CDF804A0CDF800B014F084FEF0
:1063F0004FF0FF330E225FFA88F06B61BC230CA9CB
:106400006C822B82FFF750FB059B53F8044F0593DA
:106410003CB120461CF05CF821460246384615F097
:10642000A3FC3A21384614F019FB01360CA81CF0E5
:106430004FF80CA90246384615F096FC072E7FF45B
:1064400065AF11B0BDE8F08FB89E002009000300D1
:106450000C1D002018C618C678000800F01800208F
:10646000180A00205F04A0FC0E9D00201E9D002045
:1064700074220020939F0020649F002004190020B4
:10648000A0FCA0FC1019002010B5204C8AB00346D7
:1064900008461146E268D4F808C0042B0692226927
:1064A000CDF814C00792D4F814C0A269CDF820C06A
:1064B000099225D8164C9A0003EB830304EB83035F
:1064C0001C69237873B102F12803124A6B4413ED5F
:1064D000057A0294B7EEC77A8DED007B1BF0E8FADF
:1064E0000AB010BD02F128030B4A6B4413ED057A84
:1064F000B7EEC77A8DED007B1BF0DAFA0AB010BD5B
:10650000064A0AB0BDE810401BF0D2BABC9B00207E
:10651000E41F00203C1D0020341D00200C30002012
:10652000C1EB011104284FEA41012DE9F0418CB281
:1065300086B004F1180292B259D80746324B33495B
:10654000B3F900007BB291F9001099424BD0874219
:1065500040F2FF764FF6FF730CBF002600232C4D50
:1065600012B201931E230021284600934FF48C732E
:1065700014F0C2FD02212846EE82AE8214F00AFB1E
:10658000042304F11F062B8236B2224B6E8253F88D
:106590002780B8F1000F07D040461BF099FF414615
:1065A0000246284615F0E0FB02A938460E22FFF706
:1065B0006BFF982302A86E822B821BF089FF02A931
:1065C0000246134815F0D0FB04F1350242F20414E0
:1065D0004FF48C7312B200210D48009414F024FD86
:1065E00006B0BDE8F08100264FF4FC63B7E7002158
:1065F0001E204FF48C7312B2CDE90001044814F050
:106600007BFD06B0BDE8F081649F0020B04F002004
:10661000349E00202C220020F0B5002287B03C4C94
:106620001F2118274FF0FF354FF48C7320460526A5
:10663000CDE90071114614F05FFD0221204665612D
:1066400014F0A8FA334B032233492361204615F096
:106650008BFB324B0A2232492361204615F084FB22
:1066600001212046656114F095FA2E4B0C212E4A2B
:10667000B3F900300DEB0100009601331BF018FA5E
:106680002A4B03A823611BF023FF03A902462046DF
:1066900015F06AFB264B274A1B6812689A421AD9E2
:1066A000254B1B88312B20D84FF478724FF48C7314
:1066B0002046009701920022114614F01DFD022190
:1066C0002046656114F066FA32461C491C4B10489E
:1066D000236115F049FB0024E1B201340846FFF7BD
:1066E0001FFF072CF8D107B0F0BD00224FF4004186
:1066F0004FF48C73204601911146009714F0FCFC76
:1067000002212046656114F045FA07220D49DDE7B4
:10671000349E0020090004001C19002041000400E0
:10672000840C0020649F0020900C0020DE000A00F2
:106730002C9E00202C9B00205E9F0020740C0020CB
:10674000550004007C0C0020614B1B78022B00F0EC
:10675000A380002218204FF48C731146F0B55D4CD5
:1067600089B00F254FF0FF36CDE9000520465A4D80
:1067700014F0C2FC02212046666114F00BFA574B5C
:10678000032257492361204615F0EEFA2B78002B9F
:106790007BD140F25F425349E282A282524A216198
:1067A00052F823100846514F03911BF091FE0399B4
:1067B00002464848072615F0D7FA01214548676187
:1067C00014F0E8F92B78082104A8C3EB431203EB7B
:1067D000C203474A128800961344464A0133DBB28B
:1067E0001BF066F9444B04A823611BF071FE04A959
:1067F0000246384815F0B8FA02213648676114F0AD
:10680000C9F92B783D4A0821013306A81BF050F93D
:106810003B4B06A823611BF05BFE06A902462D48F0
:1068200015F0A2FA374B384A1B6812689A421DD9F4
:10683000364B1B88312B31D8002218234FF4787146
:106840002448CDE9003111464FF48C7314F054FC08
:106850004FF0FF3302211F48636114F09BF90522BA
:106860002B492C4B1B48236115F07EFA2D78002410
:10687000C5EBC505EDB2E1B201346818C0B2FFF74F
:1068800081F9072CF7D109B0F0BD012B1CD0154BB5
:106890002149C4E9043685E7FFF7BEBE002218236C
:1068A0004FF400410B48CDE9003111464FF48C7391
:1068B00014F022FC4FF0FF3302210648636114F00C
:1068C00069F932461549CCE74FF6A04263E700BFAD
:1068D000B14F0020349E0020939F00200900040047
:1068E000381E002041000400281F002018C618C6CA
:1068F000649F0020900C0020A2000A00201F0020AE
:10690000DA0004002C9E00202C9B00205E9F0020BB
:10691000740C002055000400880C00207C0C002022
:106920002DE9F04F564C8FB00021564F2046DFF82E
:10693000749113F06BFB00221F2016214FF48C730F
:1069400048260025DFF860B1CDE900101146204649
:1069500014F0D2FB0221204614F01CF94FF0FF3353
:1069600049490B222046C4E90413484915F0FCF9B3
:10697000474B01212046636114F00CF9454B0E2270
:1069800045492046236115F0EFF9444915F0010F00
:1069900040F64103A6F10E02B1F9001018BF002322
:1069A00024205FFA85F8A94212B25AD00021CDE91D
:1069B00000034FF48C73204614F09EFB40F2FF73EB
:1069C00001212046E3820FFA86FAA38214F0E2F84E
:1069D00059F8041B04230135A4F812A008462382A9
:1069E000059131B11BF074FD05990246204615F062
:1069F000BBF90E2206A940462436FFF745FD822347
:106A000006A8A4F812A023821BF062FD06A9024684
:106A10002046143715F0A8F917ED036A17ED047A2C
:106A20001021B7EEC66A5A46B7EEC77A0AA8B6B2C0
:106A30008DED026B8DED007B1BF03AF8C323184AF5
:106A40000AA823826261A4F812A01BF041FD0AA9E2
:106A50000246204615F088F9052D96D10FB0BDE805
:106A6000F08F242343F286112046CDE900314FF404
:106A70008C73002114F040FB4FF6FF73A0E700BFBA
:106A8000B89E0020E41F002009000300081D00201C
:106A900018C618C6B4000800141D0020649F00200A
:106AA0004D6B4D6B2C220020241D0020094B1B78C0
:106AB000022B0CD0084B1B7833B1012B01D0FFF710
:106AC000B7BB0020FFF7D6B80120FFF7D3B8FFF718
:106AD00027BF00BFB14F0020939F002040F2DB533F
:106AE00098422DE9F0470C4682B041D84FF0640837
:106AF000324B4FF48A75002208FB00F7DFF8D8907C
:106B000011462F48A3FB073A18234FEA5A1A05FBF0
:106B10000AF5CDE90032A9FB05364FF48C7314F069
:106B2000EBFA284B76099F423AD8CAEB4A1040004C
:106B3000A9FB00904009C00240F4FC6080B2632DC4
:106B400024D8214A4FF6FF73204E01211C4D022C00
:106B500018BF164628466B6114F01CF81C4B062221
:106B6000314628462B6102B0BDE8F04715F0FCB86D
:106B7000002218204FF48C734FF48A76009011464F
:106B80000F48019214F0B8FA4FF68020102133B26A
:106B90000422CDE900100221094814F0ADFAD0E733
:106BA00056230C4803FB0A00B0FBF8F0C0F13F008D
:106BB000C0B2400140F47840C1E700BFF11976054A
:106BC000349E0020D32A01005C1D0020641D00209B
:106BD0007A00080034EFFFFF1F85EB51014B188846
:106BE000704700BF5E9F002010B50446002021467C
:106BF00015F0F0FFA521012015F0ECFF17F0F2FFD2
:106C0000134B1B78FBB1134B1B78DB071BD5124BC7
:106C1000124A1B6812689B1A0E2B14D916211048B1
:106C200017F062FF022C11D0032C0DD00D480E4B33
:106C3000042C18BF1846122117F056FF0B48BDE868
