:0200000460009A
:100000004643464200000156000000000101020084
:1000100000000000000000000000000000000000E0
:1000200000000000000000000000000000000000D0
:1000300000000000000000000000000000000000C0
:1000400000000000010406010000000000000000A4
:100050000000800000000000000000000000000020
:100060000000000000000000000000000000000090
:100070000000000000000000000000000000000080
:10008000EB04180AFF1E04320126000000000000E5
:100090000000000000000000000000000000000060
:1000A0000000000000000000000000000000000050
:1000B0000000000000000000000000000000000040
:1000C0000000000000000000000000000000000030
:1000D0000000000000000000000000000000000020
:1000E0000000000000000000000000000000000010
:1000F0000000000000000000000000000000000000
:1001000000000000000000000000000000000000EF
:1001100000000000000000000000000000000000DF
:1001200000000000000000000000000000000000CF
:1001300000000000000000000000000000000000BF
:1001400000000000000000000000000000000000AF
:10015000000000000000000000000000000000009F
:10016000000000000000000000000000000000008F
:10017000000000000000000000000000000000007F
:10018000000000000000000000000000000000006F
:10019000000000000000000000000000000000005F
:1001A000000000000000000000000000000000004F
:1001B000000000000000000000000000000000003F
:1001C000000100000010000001000000000000001D
:1001D000000001000000000000000000000000001E
:1001E000000000000000000000000000000000000F
:1001F00000000000000000000000000000000000FF
:10020000FFFFFFFFFFFFFFFFFFFFFFFFFFFFFFFFFE
:10021000FFFFFFFFFFFFFFFFFFFFFFFFFFFFFFFFEE
:10100000D1002043F1150060000000000000000046
:101010002010006000100060000C02600000000062
:10102000000000600018020000000000FFFFFFFF4A
:10103000FFFFFFFFFFFFFFFFFFFFFFFFFFFFFFFFC0
:10104000FFFFFFFFFFFFFFFFFFFFFFFFFFFFFFFFB0
:10105000FFFFFFFFFFFFFFFFFFFFFFFFFFFFFFFFA0
:10106000FFFFFFFFFFFFFFFFFFFFFFFFFFFFFFFF90
:10140000824205D051F8043B40F8043B8242F9D8AF
:10141000704700BF044A05494FF0000342F8043BFF
:101420009142FBD8704700BFC0360020406F0020BB
:1014300008B5BFF34F8F00F06FF9544C544B0820A0
:101440005449C3F85401544AC3F800115348C3F82F
:10145000F0405349FFF7D4FF524A53495348FFF72E
:10146000CFFF534CFFF7D6FF4FF470004FF0E02151
:101470000023504AC1F8880D44F823200133B02BD3
:10148000FAD14D4B80214D4A03F8011B9342FBD109
:101490004FF0E0254A4E4B4A4FF0FF31C5F8084D5A
:1014A000D5F8243D43F4E023C5F8243DF36923F047
:1014B0007F0343F04003F361736A23F07F0343F03B
:1014C000400373629166D1661167516700F02CF991
:1014D0003D4A3E4BA2636322E36300246A61032317
:1014E0003B4AAC612B61C5F8202DD5F8FC2D394B5A
:1014F00042F080723849C5F8FC2D1A6842F00102AA
:101500001A605B680B6000F0DFFA344800F068FC9A
:10151000F16E334B334A41F44051F1661C60C3F81D
:101520000841C3F81841C3F82841C3F83841936B08
:10153000DB0708D442F615632B4951651365936B9D
:1015400043F001039363274A284C936843F0011347
:10155000936000F077F900F05FF800F02DFC00F0E8
:10156000E5FA00F0DBF82368132BFCD900F07AFBD6
:101570002368B3F5967FFBD300F0D4F800F0D0F8E1
:1015800000F016FC00F030FC30BFFDE70C0D11132D
:1015900000800D401B10182078B3010000000000EF
:1015A0001C210060C036002098D40160000000209B
:1015B000003400200121010000E400E0A0E400E08C
:1015C00000C00F4000C00A40E10F0100E50F01001C
:1015D00000002020001000E0BC6D00200046C32366
:1015E0000040084000400D400000C056C06D002083
:1015F000054B4FF42A01054A05485A641864054A08
:1016000099639546FFF714FF00C00A40FFAAAAAAF3
:1016100007002000000006200F4B40F2376C0F4AF5
:10162000A020D96E41F44031D966D96E41F44071A1
:10163000D966C2F844C09064936C1B06FCD4084A77
:1016400040F23761A02351649364936C13F08003DC
:10165000FBD1044A1370704700C00F4000400C409B
:1016600000800C40036F0020294A00210123C2F8AA
:10167000A000C2F8A410C2F8B0305369D907FCD555
:1016800001234FF4803C22495361C2F8A000C2F804
:10169000A4C0C2F8B0304B69DB07FCD501234FF47E
:1016A000003C1B4A4B61C1F8A000C1F8A4C0C1F8BE
:1016B000B0305369D907FCD50123DFF858C014496D
:1016C0005361C2F8A000C2F8A4C0C2F8B0304B69A0
:1016D000DB07FCD5D1F8003145F60D504FF0210C59
:1016E0009AB2C1F814C0824210D045F69D518A4288
:1016F0000AD1C3F34253032B08D0A3F10403B3FA76
:1017000083F35B0918017047002070470820704779
:1017100000402A4004000300704700BF704700BF2C
:10172000704700BF00BF70474FF0E02300214FF02B
:10173000100C3448C3F8941DC3F89CCD4FF0110C25
:10174000C3F8A00D3048C3F89CCD4FF0120CC3F87D
:10175000A00D2E48C3F89CCD2D4AC3F8A00DDFF88C
:10176000D0C042F015022B48C3F89CCDC3F8A00DA1
:10177000DFF8C0C02848C3F89CCDC3F8A00DDFF83F
:10178000B8C0C3F89C2D2548254AC3F8A0CDC3F89E
:101790009C0DC3F8A02D02F5A022DFF8A0C00C32EA
:1017A0002048C3F89CCDC3F8A02D1F4AC3F89C0D58
:1017B000C3F8A02D02F14062DFF884C002321B485A
:1017C000C3F89CCDC3F8A02D0A32C3F89C0DC3F812
:1017D000A02D00BF00BF00BF00BF00BF0122C3F8A3
:1017E000942DBFF34F8FBFF36F8FC3F8501FBFF31C
:1017F0004F8FBFF36F8FD3F8142D42F44032C3F8EC
:10180000142D70473F000010250008070900100044
:10181000406F002021000207250008131600202039
:1018200027000B13180000602F000B071A00008020
:1018300013002000140000200900001017000040D1
:101840001900007030B5864B85B0DFF874E21822BD
:10185000844D0120C3F85CE28349C3F86052A5F5CA
:101860008055DFF860C2814CC3F864E2C3F8685267
:101870002125C3F86CC2C3F870C2C3F874C2C3F8A0
:1018800078C248F20C7CDA661A675A679A67DA6798
:10189000C3F88020C3F88420C3F88820C1F82C0343
:1018A000734AC1F83003C1F83403C1F83803C1F8F2
:1018B0003C03C1F85003A1696E4B0A406E486F4962
:1018C00013436F4AA361D4F8843043F00C03C4F887
:1018D00084304FF0FF34036843F002030360036871
:1018E00003EA0C031A43674B026044608A68664C43
:1018F0001340664A43F000538360C36823F07803C3
:10190000C360036A23401A43604B0262026A2240AA
:101910005F4C1343002243628462C46240F2056458
:10192000D1F8B83023F03F0343F00103C0F8B830DA
:10193000D1F8BC30574923F03F0343F00103C0F80E
:10194000BC3002610567C0F880404567C0F884403C
:101950000224036823F00203036081614E4B4F4968
:10196000C46143F8042B8B42FBD1434C236843F002
:1019700001032360256815F00105FBD145480222CB
:1019800040F2F561A06140F29940E26140F26642A6
:10199000C4F8001242F20141C4F81022404AC4F8CF
:1019A0002002C4F8302240F23542C4F834123D48D7
:1019B000C4F840223C4AC4F850022846C4F85422D5
:1019C00042F201223949C4F86012C4F86422FFF7D8
:1019D0004BFE0246002839D0810201234FF48020BB
:1019E00021662549C4F8A050C4F8A400C4F8B0305A
:1019F0004B69D807FCD515050124039228464C6194
:101A0000FFF732FE039A2A4B0244D2B21A7080B119
:101A1000194980024FF4802348660846C1F8A05057
:101A2000C1F8A430C1F8B0404369DB07FCD50123FD
:101A3000436120490024204801230094401A00EB10
:101A400002521E4800F0C0F905B030BD1B4B1849CA
:101A500018600870D860C3E9010005B030BD00BF50
:101A600000801F40F910010000841F4000C00F409B
:101A7000FFFCFF1F0003008000402A4000802A4036
:101A80001200FFFFFF37F70000FFF07C40000080EE
:101A9000FF000F83F05AF05A00422A4000432A40C8
:101AA0009F041830EB06180A063201263806180A79
:101AB000056F00200000007000000070686B0020BF
:101AC000F9B00100F970010010B5174A4FF48054C5
:101AD0004FF4005E4FF4404C4FF4803043F242012B
:101AE000136913F0020F0DD113F4005F0FD013F43C
:101AF000805F0FD0002BF3DA13F4803F0CD15B062C
:101B00000ED510BDC2F818C050619161E8E7C2F867
:101B100014E0E5E75461E3E74FF480339361DFE7D6
:101B200040235361DCE700BF00800D40414A0320A1
:101B30004149F3EE095AD2F880309FED406A23F014
:101B400001039FED3F5ADFF814C100B5C2F88030A1
:101B5000C2F89000D1F8E010DFF804E1CBB23948C8
:101B6000CEF8003007EE903A0B0DC1F30B21F8EEE2
:101B7000E77A06EE903A07EE101A334BB8EEC77AC2
:101B8000CCF80010F8EEE66A304937EEC66A37EE58
:101B9000C55A76EEC76A77EEE57A26EE266AC3ED79
:101BA000006A25EE265AD2F8803067EEA64AC0EDCC
:101BB000007AC6EE275A264885EE276AC4EEA76A41
:101BC00075EE875AFCEEE55A36EE076A15EE90CAB6
:101BD000BCEEC66A43EA0C5376EE877AC2F88030D0
:101BE00016EE103AD2F890C1FCEEE77A01EA034112
:101BF00041EA0C014FF0000C17EE903AC2F8901138
:101C0000C3F30B03D2F890110B431249C2F8903181
:101C1000D2F8803043F00203C2F880300E4B80F8D7
:101C200040C0C1F840314FF0E0230122C3F8082141
:101C300000BD00BF00810D4000441F400000AA42CB
:101C40000000B442306D0020346D00200000FF0F12
:101C500000E400E000340020E5220100286D0020AF
:101C60002C6D0020314B40F6617210B5C3F8202175
:101C700040F2044400F0B0F82D4A2E49D2F88030EA
:101C80002D4843F00303C2F880302C4BC1F860416B
:101C900002681A4203D1D1F8A8319A071BD0254A0D
:101CA0004FF00041244B5963D2F8403143F0020316
:101CB000C2F84031D2F840319B07FBD44FF40030DA
:101CC0004FF0E0211C4B4FF00042C1F88C0219206C
:101CD0009A6300F075F8184B0021164C4FF08042C3
:101CE0000A209A634FF480621960C4F8A80114486E
:101CF00000F06EF84FF4800203464FF4810040F28A
:101D000043111860C4F858311A640E4B0E4AC4F8D7
:101D10004811C3F804224FF0E0224FF400310123B0
:101D2000C2F80C11C4F8403110BD00BF00800D4056
:101D300000C00F4000002E4000900D40001C1E000F
:101D40000000002000340020E924010008B50E4BFB
:101D50001B6E9B0700D4FBBE72B60C4B00200C4AD6
:101D6000C3F8400103F160430A49A3F55F231164FE
:101D70009D46BFF34F8F4FF40013074A0748DB69B6
:101D800002609B68984700BF00441F4000002E403F
:101D900000C00A4003002000000012EB0080202059
:101DA000F8B500BFF8BC08BC9E46704700000000B4
:101DB0005FF800F0A95701005FF800F0E536010078
:101DC0005FF800F0051801005FF800F049380100E5
:101DD0005FF800F0595501005FF800F0092C010090
:101DE0005FF800F0F11401005FF800F0551F0100EA
:101DF0000501000091760000E97700005D8A00008F
:081E00006593000031DC0000D5
:101E08006CC00F40030000000E0D0000D1EC000074
:101E18002A36000014000000130000000100000032
:101E2800F4841F402B32000014000000130000004F
:101E380001000000F8841F402D310000140000004C
:101E48001300000001000000F0841F402CFFFF0079
:101E58001400000000000000000000000100000065
:101E680000000000EC841F4000000000000000009B
:101E78006CC00F4030000000100F0000D1EC0000D3
:101E880001270000170000001200000000010000F8
:101E980014851F401AFF0000120000000000000017
:101EA8000100000018851F401BFF00001200000001
:101EB800000000000100000010851F400026FF0000
:101EC80017000000120000000000000001010000DF
:101ED800010000000C851F400C851F400000000019
:101EE8006CC00F40C0000000504F0000A5ED00007E
:101EF8000CFF0000130000000000000000000000BC
:101F080024851F400BFF00001300000000000000A4
:101F18000000000028851F400DFF0000130000008E
:101F2800000000000000000020851F400A25240052
:101F3800130000001200000012000000010203005C
:101F48000000000000000000000000000000000089
:101F58000901809611800A3A81550A3601082A0437
:101F6800000000F02B040000014021800A13800AC1
:101F780029800A0010034D0049004D002000500040
:101F88006F00430008034D0049004D000403090495
:101F98000902BA00050100A0FA080B0004FFFFFFC0
:101FA800000904000002FF5D010011210001012564
:101FB80081140000000013020800000705810320B7
:101FC8000004070502032000080904010004FF5D5E
:101FD80003001B2100010101834001042016850034
:101FE800000000000016050000000000000705833F
:101FF80003200002070504032000040705850320C9
:102008000040070505032000100904020001FF5DD8
:102018000200092100010122860700070586032026
:1020280000100904030000FFFD130406410001012C
:102038000309040400010300000009211101000143
:10204800221C000705870340000A00000902BA00A5
:10205800050100A0FA080B0004FFFFFF00090400B7
:102068000002FF5D0100112100010125811400001B
:10207800000013020800000705810320000407057B
:1020880002032000080904010004FF5D03001B216E
:1020980000010101834001042016850000000000B2
:1020A8000016050000000000000705830320000259
:1020B80007050403200004070585032000400705E1
:1020C80005032000100904020001FF5D0200092138
:1020D8000001012286070007058603200010090475
:1020E800030000FFFD130406410001010309040475
:1020F800000103000000092111010001221C000752
:1021080005870340000A00000A060002EF020140AA
:0421180001000000C2
:10211C0000000000000000000000000000000000B3
:10212C0000000000000000000000000000000000A3
:10213C00F8B54FF084439D695A6915400DD0254F71
:10214C0001269D6195FAA5F4B4FA84F457F824306D
:10215C0006FA04F49847A543F4D11F4B9D695A69BC
:10216C0015400DD01D4F01269D6195FAA5F4B4FACA
:10217C0084F457F8243006FA04F49847A543F4D1B4
:10218C00174B9D695A6915400DD0164F01269D615C
:10219C0095FAA5F4B4FA84F457F8243006FA04F44A
:1021AC009847A543F4D1104B9D695A6915400DD041
:1021BC000E4F01269D6195FAA5F4B4FA84F457F8F4
:1021CC00243006FA04F49847A543F4D1BFF34F8F9B
:1021DC00F8BD00BF082E002000400042882E0020D1
:1021EC0000800042082F002000C00042882F0020F1
:1021FC000548064B1B1AD90F01EBA301491002D05D
:10220C00034B03B118477047C0360020C03600207E
:10221C000000000008B5054B1BB105490548AFF39C
:10222C000080BDE80840FFF7E3BF00BF00000000DE
:10223C00F06C002000180260704700BF704700BFB0
:10224C00704700BF562802D1034B01229A73034BEF
:10225C001B6803B118477047A04500201C62002082
:10226C00562802D1034B00229A73034B1B6803B10F
:10227C0018477047A04500202C6200200023838261
:10228C00C0E90333704700BF704700BF012A57D124
:10229C002DE9F04F85B00E9A082A8CBF002201223E
:1022AC001AB1002005B0BDE8F08FB1F81EE040F285
:1022BC005E4CE645F5D193F805C0BCF1FF0FF0D1AB
:1022CC0093F806C0BCF1470FEBD193F800C00E9CFD
:1022DC009C4423440CF1060E7345E2D3934690467E
:1022EC0092469146174603921A4604E0F4440CF1C8
:1022FC00060E724526D39CF800E0BEF1030F21D9DF
:10230C009CF80130052BF1D1BEF1060FEED99CF8EB
:10231C00033003F00303032BE8D19CF902309CF843
:10232C000240002BBCF804509CF806602DDBB8F181
:10233C00000FDBD104F00F08C5F30A0B0396D5E7A9
:10234C00002070473A46002FABD04B460D46044652
:10235C000321402B2846CDF804A028BF402300932E
:10236C00012309F0D3FEE06000289AD0174A2346D7
:10237C0004F13401C263402209F020FBB8F1000FD4
:10238C000BD10123184663758CE7002FAED104F0F6
:10239C000F07C5F30A09B246A8E75946039B424604
:1023AC002846052901934FF0000328BF0521009111
:1023BC00032109F0ABFE234620610028E1D004493B
:1023CC000522C163034909F0F9FADAE79D07000019
:1023DC0079010000902A002008B52DED028B9FEDAD
:1023EC001D8A1D49012010F0F7FF07EE900AF8EE48
:1023FC00E77AC7EE888AF5EE408AF1EE10FAF0D053
:10240C001549002010F0E8FF07EE900AB0EE680ABC
:10241C00F8EEE77AC7EE888A13F034FBF8EE007A10
:10242C0020EE270AB5EE400AF1EE10FA0CD4B1EE0C
:10243C00C08A9FED0A0A28EE800A13F01DFD20EEDB
:10244C00080ABDEC028B08BD13F0C6FAB0EE408A48
:10245C00EFE700BF0024744941420F00DB0FC94075
:10246C0008B52DED048B09EE900A9FED227A40F20F
:10247C00E9312148F8EE697A67EE807A87EE879A1F
:10248C0010F0AAFF40F2E93108EE900A1A4810F059
:10249C00A3FF08EE100A40F2E9311748F8EEE88A7B
:1024AC0010F09AFFB8EEC88A07EE100A9FED136A77
:1024BC0019EE902AB8EEC77ADFED116A38EE288A49
:1024CC0047F6FF7337EE087AC7EE067A67EE897A1D
:1024DC00BDEC048B67EEA67AFDEEE77A17EE900A58
:1024EC0010449842A8BF18460128B8BF012080B2FA
:1024FC0008BD00BF0000C84218FCFFFF00803B4530
:10250C002DB25D40464AF8B511680023454D04468E
:10251C002B5411B18B79002B2FD1434A1378A34242
:10252C0001D1002B78D1414B196829B38B791BB39E
:10253C00C87A08B33E4D002395F800C008E0032A82
:10254C0002D1CA7B012A60D0984201F11A0113D042
:10255C00DAB201339445F7D10A7B012AEFD1CA7B59
:10256C00012AF1D14A7BA242EED1002331483249F3
:10257C00FF2203700B702A70F8BD304B1B78002BB8
:10258C00CBD191F807E0BEF1000FC6D0012301F1C9
:10259C00080701F109060DE0A44501D1285CD0B172
:1025AC00082B18BF724503F1010334BF012200222E
:1025BC00002AB2D017F82300DAB20028F0D016F8AF
:1025CC0023C0BCF1000FEBD0A042E5D115F80C00F4
:1025DC0008B1A445E4D188680133DFED197A00EE27
:1025EC00100A184A01EB8303B4EEE70A1568D88881
:1025FC00F1EE10FA02D410B1FFF732FF0544124A83
:10260C00012315600D4A137087E74A7BA242ACD0B8
:10261C008A7BA24298D1A8E700231370F8BD00BFB3
:10262C00145C0020A4620020F26E0020A463002041
:10263C00D2300020FA6E0020F56E0020F76E0020DC
:10264C000AD7233CC06D0020AC60002030B50022BE
:10265C000B7989B0044658070692CDE9042203F0A1
:10266C0001024FEA822248BF42F040021D0748BFD8
:10267C0042F08002D80648BF42F001029D0648BFD6
:10268C0042F00202580648BF42F004021B064B7986
:10269C0048BF42F00802DD0648BF42F0100298061F
:1026AC0048BF42F020025D0648BF42F48072180613
:1026BC0023EA930048BF42F4007220EAD300C50716
:1026CC0062D403EAD300C00733D50123009204F18E
:1026DC00180C0A89C88892014D89B1F80EE0800166
:1026EC008DF818300023ADF80E20A5F500458A8929
:1026FC00AEF5004E098AADF80C00A2F500401A4662
:10270C00A1F5004165F30F0301256EF30F02EE46B0
:10271C0060F31F4361F31F42CDE90132BEE80F00A5
:10272C00ACE80F009EE807008CE80700257509B09F
:10273C0030BD03F00105C3F340004FEA530C85F0A4
:10274C00010580F0010005EAD30E1EEA000F1FD12F
:10275C000CEAD30E1EF0010F18D12CEA930E2EEAC0
:10276C00D30E1EF0010F19D10CEA930C1CF0010FC3
:10277C0010D100EA930005420ED103EA930303F053
:10278C000103C3F10803A1E700239FE703239DE79F
:10279C0002239BE7052399E7062397E7042395E794
:1027AC004FF01A0C1B4A01EB810312680CFB00332F
:1027BC00134493F812C0BCF1000F27D0DFED167A4A
:1027CC00DFF860C000B5D2F8072083B0B3F813006F
:1027DC0000EE102ADCF80030B4EEE70AF1EE10FA45
:1027EC0012D430B1CDE90031FFF73AFE009B0199CC
:1027FC000344DFF834C00948094ACCF800300123FF
:10280C000170137003B000BD0344F2E7034B197061
:10281C0000F00CB8A46300200AD7233CF66E00200D
:10282C00FA6E0020C06D0020F860002000B5DFF8C3
:10283C0074E09EF800100131C9B2032918D8164B68
:10284C0001EB81021B6813441A2202FB003303E0E4
:10285C005FFA8CF104290BD09A7C01F1010C053341
:10286C00002AF5D08EF800105DF804EBFFF798BF46
:10287C000A4A137843B9DFF830C0FF2008491370B7
:10288C008CF80030087000BD00218EF800105DF847
:10289C0004EBFFF785BF00BFA4630020F56E00209A
:1028AC00D2300020F66E0020FA6E0020C36B2BB3E2
:1028BC00826803F13401C2F30E422F3A112A18D95F
:1028CC0093F83420202A14D193F837200E2A10D1F3
:1028DC00184600B583B001910093FFF7B7FEDDE910
:1028EC000031D86858B1402203B05DF804EB09F010
:1028FC0065B8D86810B1402209F060B8704703B0D1
:10290C0000BD00BF4378012B00F02281022B00F0A8
:10291C000281B0F87A306BB190ED057A07EE903AFF
:10292C00B0EEC77AFBEEEF7AB4EEE77AF1EE10FA7E
:10293C0000F3F580B0F87C306BB190ED067A07EEC1
:10294C00903AB0EEC77AFBEEEF7AB4EEE77AF1EE9E
:10295C0010FA00F3E480D0ED167A9FEDD57AF4EE00
:10296C00C77AF1EE10FA00F3DE8090F84C30002BB1
:10297C0000F0FA80022B40F0F48090ED147ADFED39
:10298C00CC7AB4EEE77AF1EE10FA40F2C880F0EEB1
:10299C00407A034630B52DED028B90F828C01546D1
:1029AC00C04A89B0BCF1020F126800F0EE80BCF195
:1029BC00030F00F01F81BCF1040F00F09981D0EDE2
:1029CC00026A9FEDBB6AF4EEC66AF1EE10FA23DDE3
:1029DC00406C101A63281FD99FEDB66A059186EEDC
:1029EC00868A8DED037A029201938DED040AFFF72E
:1029FC00F3FC019B68EE006AC3ED036AFFF7ECFC85
:102A0C0068EE006A0599DDED047A9DED037ADDE947
:102A1C0001325A64C3ED046AD3F8B00293EDAA6A8A
:102A2C00121AB8EE466A06EE902AF8EE666AF4EED2
:102A3C00C66AF1EE10FA6AD576EE666AC6EE865A6A
:102A4C00F5EEC05AF1EE10FA61D993ED066AD3EDAA
:102A5C00056A93F8680065EEA66A65EE865A93EDF2
:102A6C00AB6A66EE876A65EE875AB8EE466A26EE62
:102A7C00A77A65EEA77AC7EE066A87EE867A0028F3
:102A8C0040F0B68193ED026AF8FE666ADFED887A53
:102A9C00B8FE477AB4EEE76AFDEEE66ABDEEC77A99
:102AAC00F1EE10FA16EE902A17EE100A0A80288022
:102ABC002DDDB1F90000F7EE005AD3ED036A07EEF5
:102ACC00900A9FED7D6A76EEA56A93ED047AF8EE96
:102ADC00E77A37EE257AC6FE866A67EEA67A87FE17
:102AEC00067AF8FE677AFDEEE77A17EE903A0B80DD
:102AFC00B5F9003007EE903AF8EEE77A67EE877A90
:102B0C00F8FE677AFDEEE77A17EE903A2B8009B063
:102B1C00BDEC028B30BDC378002B7FF4FAAE0023E2
:102B2C0080F87830704790ED057AB0EEC77AF4EE05
:102B3C00C77AF1EE10FA7FF718AF90ED067AB0EE87
:102B4C00C77AF4EEC77AF1EE10FA7FF70EAFE6E72C
:102B5C008378002BE3D0B0F87A30002B3FF4EAAE48
:102B6C00DAE6B7EE007A12E7F3EE0E6A90ED176A2A
:102B7C00B7EE007AC6EE267AF4EEC77AF1EE10FACA
:102B8C0077FE277A37EE677AF9E6D0F8B002D3F8F9
:102B9C00A842101AA04280F0228193F8300000283D
:102BAC0040F08C8093F838000028B0D0D3ED0F6A39
:102BBC00D3ED107A93ED026A0020DFED3D5A67EEFB
:102BCC00266A67EE277A83F83800B4EEE56AF1EEF0
:102BDC0010FA00F32481F8FE666AF8FE677AFDEEBF
:102BEC00E66AFDEEE77A16EE903A17EE902A0B8025
:102BFC002A808CE7D0F8B042A2EB040CD0F8A842A3
:102C0C00A44547D290F87800002840F0EC80D86EAC
:102C1C0093F869C0101A6045FFF479AF93F86A0015
:102C2C0093ED056AD3ED066A012827EE066ADA668B
:102C3C0067EE266A38BF012007EE900A0138F8EEDD
:102C4C00675A83F8780086EE257AC6EEA57AB8FE28
:102C5C00477ABDEEC77A17EE102AF8FE677AFDEEBA
:102C6C00E77A0FFA82FC17EE902A07EE90CA10B2A0
:102C7C00B8EEE77A07EE900A36EE476AF8EEE77A96
:102C8C0083ED1C6A76EEE76AC3ED1D6AA1F800C0FD
:102C9C0028803CE7002380F8783009B0BDEC028B2B
:102CAC0030BD00BFC06D0020000048C30000484389
:102CBC006F12833A0000C842000000005C6BA2EB6C
:102CCC00040C8445FFF423AF93ED0B5A5FED075AC8
:102CDC00D3ED056AC5EE257A93ED066A5A6367EE65
:102CEC00A66A67EE867AC3ED0F6AC3ED107A61E7C8
:102CFC0090F8980000283FF40AAF93F87F201FED5E
:102D0C00133A04EE902A93F8802093ED236AF8EEA0
:102D1C00644A07EE902AD3ED215AF8EE677AD3ED88
:102D2C00243A84EE834A93ED225A5FED216A27EE12
:102D3C00866A67EEA37AA4EE256AE4EE057A26EE9F
:102D4C00076A27EE877AB4EEE66AF1EE10FA07D43A
:102D5C005FED2A6AB4EEE66AF1EE10FA76FE866A48
:102D6C005FED2F7AB4EEE77AF1EE10FA07D45FED4F
:102D7C00317AB4EEE77AF1EE10FA77FE877A93F8AF
:102D8C006800002840F0B78093ED027A1FED386A96
:102D9C00B4EEC67AF1EE10FA74DCF8FE677AFDEE4A
:102DAC00E77AF8FE666AFDEEE66A17EE902A10B234
:102DBC0016EE902A0A8007EE900A2880B1F90020BE
:102DCC00F8EEE77A07EE102A35EE675AB8EEC77AB6
:102DDC0083ED225A75EEC75AC3ED215A97E60022AD
:102DEC0083F8382093E693ED1C6AD3ED1D6A23E734
:102DFC0027EE076A07EE900AF8EE677AA6EEA66A47
:102E0C00F1EEC65AF4EEE75AF1EE10FA7FF73AAE4D
:102E1C0087EEA56A66EE866A27EE067A32E61FED25
:102E2C005B7A069186EE078ACDED057ACDED016AC7
:102E3C00FFF7D2FA5FED605ADDED016ACDED035A72
:102E4C00B7EE007AB0EE476A8DED047AA8EE006A10
:102E5C0086FE256A66EE866ACDED026ACDED016AC4
:102E6C00FFF7BAFA9DED047ADDED035AA8EE007A6D
:102E7C00DDED057A0699DDED016A87FE257A67EEB0
:102E8C00877AA8E61FED756ACDED057A87EE068A7E
:102E9C00CDED016ACDE90631FFF79EFAB7EE007A67
:102EAC005FED7B4ADDED016AB0EE476A8DED047A89
:102EBC00CDED034AA8EE006A86FE246A66EE866AA9
:102ECC00CDED026ACDED016AFFF786FA9DED047A2D
:102EDC00069BA8EE007ADDED034ADDED057AD3ED15
:102EEC00215A93ED225A0799DDED016A87FE247A67
:102EFC0067EE877A51E727EEA76A07EE100AB8EE5D
:102F0C00477AA6EEA66AF1EEC64AF4EEC74AF1EE8F
:102F1C0010FA7FF739AF87EE246A66EE866A67EEA1
:102F2C00867A31E7204A137800B583B00BB10023C1
:102F3C001370DFF884C01A23DFF880E0DCF800C0DF
:102F4C008EF8000003FB00C3DFF874E08EF800106D
:102F5C00997C11B3DCF80700DFED147A00EE100A4F
:102F6C001349B3F81300B4EEE70A0B68F1EE10FA4C
:102F7C0011D428B10193FFF773FA019B0A4A034459
:102F8C00DFF840C000200B49CCF80030012308705A
:102F9C00137003B000BD0344F2E7064B197003B085
:102FAC005DF804EBFFF742BCFA6E00200AD7233C15
:102FBC00C06D0020F66E0020A4630020D2300020EB
:102FCC00F56E0020F86000201D4BD3F8D820106857
:102FDC009168006810B40842137C546814BF012136
:102FEC00002103F00303D4F800C0D06843EA810346
:102FFC001CEA000F43F0080118BF0B469908013B6F
:10300C0011740D2B0BD8DFE803F0110C070C0A160A
:10301C001111160A0C070C1153690233536110BCC1
:10302C0070475369013B10BC5361704753690133BE
:10303C0010BC536170475369023B10BC536170471D
:10304C00006400201D4BD3F8D420106891680068F0
:10305C0010B40842137C546814BF0121002103F002
:10306C000303D4F800C0D06843EA81031CEA000FC4
:10307C0043F0080118BF0B469908013B11740D2B46
:10308C000BD8DFE803F0110C070C0A161111160A05
:10309C000C070C1153690233536110BC7047536910
:1030AC00013B10BC536170475369013310BC536131
:1030BC0070475369023B10BC536170470064002099
:1030CC001D4BD3F8D02010689168006810B40842EA
:1030DC00137C546814BF0121002103F00303D4F8BE
:1030EC0000C0D06843EA81031CEA000F43F00801DA
:1030FC0018BF0B469908013B11740D2B0BD8DFE858
:10310C0003F0110C070C0A161111160A0C070C11FE
:10311C0053690233536110BC70475369013B10BCB7
:10312C00536170475369013310BC53617047536945
:10313C00023B10BC53617047006400201D4BD3F858
:10314C00CC2010689168006810B40842137C546855
:10315C0014BF0121002103F00303D4F800C0D06890
:10316C0043EA81031CEA000F43F0080118BF0B4629
:10317C009908013B11740D2B0BD8DFE803F0110CEF
:10318C00070C0A161111160A0C070C11536902339D
:10319C00536110BC70475369013B10BC53617047BD
:1031AC005369013310BC536170475369023B10BC27
:1031BC0053617047006400201D4BD3F8C820106881
:1031CC009168006810B40842137C546814BF012144
:1031DC00002103F00303D4F800C0D06843EA810354
:1031EC001CEA000F43F0080118BF0B469908013B7D
:1031FC0011740D2B0BD8DFE803F0110C070C0A1619
:10320C001111160A0C070C1153690233536110BCCF
:10321C0070475369013B10BC5361704753690133CC
:10322C0010BC536170475369023B10BC536170472B
:10323C00006400201D4BD3F8C4201068916800680E
:10324C0010B40842137C546814BF0121002103F010
:10325C000303D4F800C0D06843EA81031CEA000FD2
:10326C0043F0080118BF0B469908013B11740D2B54
:10327C000BD8DFE803F0110C070C0A161111160A13
:10328C000C070C1153690233536110BC704753691E
:10329C00013B10BC536170475369013310BC53613F
:1032AC0070475369023B10BC5361704700640020A7
:1032BC001D4BD3F8C02010689168006810B4084208
:1032CC00137C546814BF0121002103F00303D4F8CC
:1032DC0000C0D06843EA81031CEA000F43F00801E8
:1032EC0018BF0B469908013B11740D2B0BD8DFE866
:1032FC0003F0110C070C0A161111160A0C070C110D
:10330C0053690233536110BC70475369013B10BCC5
:10331C00536170475369013310BC53617047536953
:10332C00023B10BC53617047006400201D4BD3F866
:10333C00BC2010689168006810B40842137C546873
:10334C0014BF0121002103F00303D4F800C0D0689E
:10335C0043EA81031CEA000F43F0080118BF0B4637
:10336C009908013B11740D2B0BD8DFE803F0110CFD
:10337C00070C0A161111160A0C070C1153690233AB
:10338C00536110BC70475369013B10BC53617047CB
:10339C005369013310BC536170475369023B10BC35
:1033AC0053617047006400201D4BD3F8B82010689F
:1033BC009168006810B40842137C546814BF012152
:1033CC00002103F00303D4F800C0D06843EA810362
:1033DC001CEA000F43F0080118BF0B469908013B8B
:1033EC0011740D2B0BD8DFE803F0110C070C0A1627
:1033FC001111160A0C070C1153690233536110BCDE
:10340C0070475369013B10BC5361704753690133DA
:10341C0010BC536170475369023B10BC5361704739
:10342C00006400201D4BD3F8B4201068916800682C
:10343C0010B40842137C546814BF0121002103F01E
:10344C000303D4F800C0D06843EA81031CEA000FE0
:10345C0043F0080118BF0B469908013B11740D2B62
:10346C000BD8DFE803F0110C070C0A161111160A21
:10347C000C070C1153690233536110BC704753692C
:10348C00013B10BC536170475369013310BC53614D
:10349C0070475369023B10BC5361704700640020B5
:1034AC001D4BD3F8B02010689168006810B4084226
:1034BC00137C546814BF0121002103F00303D4F8DA
:1034CC0000C0D06843EA81031CEA000F43F00801F6
:1034DC0018BF0B469908013B11740D2B0BD8DFE874
:1034EC0003F0110C070C0A161111160A0C070C111B
:1034FC0053690233536110BC70475369013B10BCD4
:10350C00536170475369013310BC53617047536961
:10351C00023B10BC53617047006400201D4BD3F874
:10352C00AC2010689168006810B40842137C546891
:10353C0014BF0121002103F00303D4F800C0D068AC
:10354C0043EA81031CEA000F43F0080118BF0B4645
:10355C009908013B11740D2B0BD8DFE803F0110C0B
:10356C00070C0A161111160A0C070C1153690233B9
:10357C00536110BC70475369013B10BC53617047D9
:10358C005369013310BC536170475369023B10BC43
:10359C0053617047006400201D4BD3F8A8201068BD
:1035AC009168006810B40842137C546814BF012160
:1035BC00002103F00303D4F800C0D06843EA810370
:1035CC001CEA000F43F0080118BF0B469908013B99
:1035DC0011740D2B0BD8DFE803F0110C070C0A1635
:1035EC001111160A0C070C1153690233536110BCEC
:1035FC0070475369013B10BC5361704753690133E9
:10360C0010BC536170475369023B10BC5361704747
:10361C00006400201D4BD3F8A4201068916800684A
:10362C0010B40842137C546814BF0121002103F02C
:10363C000303D4F800C0D06843EA81031CEA000FEE
:10364C0043F0080118BF0B469908013B11740D2B70
:10365C000BD8DFE803F0110C070C0A161111160A2F
:10366C000C070C1153690233536110BC704753693A
:10367C00013B10BC536170475369013310BC53615B
:10368C0070475369023B10BC5361704700640020C3
:10369C001D4BD3F8A02010689168006810B4084244
:1036AC00137C546814BF0121002103F00303D4F8E8
:1036BC0000C0D06843EA81031CEA000F43F0080104
:1036CC0018BF0B469908013B11740D2B0BD8DFE882
:1036DC0003F0110C070C0A161111160A0C070C1129
:1036EC0053690233536110BC70475369013B10BCE2
:1036FC00536170475369013310BC53617047536970
:10370C00023B10BC53617047006400201D4BD3F882
:10371C009C2010689168006810B40842137C5468AF
:10372C0014BF0121002103F00303D4F800C0D068BA
:10373C0043EA81031CEA000F43F0080118BF0B4653
:10374C009908013B11740D2B0BD8DFE803F0110C19
:10375C00070C0A161111160A0C070C1153690233C7
:10376C00536110BC70475369013B10BC53617047E7
:10377C005369013310BC536170475369023B10BC51
:10378C0053617047006400201D4BD3F898201068DB
:10379C009168006810B40842137C546814BF01216E
:1037AC00002103F00303D4F800C0D06843EA81037E
:1037BC001CEA000F43F0080118BF0B469908013BA7
:1037CC0011740D2B0BD8DFE803F0110C070C0A1643
:1037DC001111160A0C070C1153690233536110BCFA
:1037EC0070475369013B10BC5361704753690133F7
:1037FC0010BC536170475369023B10BC5361704756
:10380C00006400201D4BD3F8942010689168006868
:10381C0010B40842137C546814BF0121002103F03A
:10382C000303D4F800C0D06843EA81031CEA000FFC
:10383C0043F0080118BF0B469908013B11740D2B7E
:10384C000BD8DFE803F0110C070C0A161111160A3D
:10385C000C070C1153690233536110BC7047536948
:10386C00013B10BC536170475369013310BC536169
:10387C0070475369023B10BC5361704700640020D1
:10388C001D4BD3F8902010689168006810B4084262
:10389C00137C546814BF0121002103F00303D4F8F6
:1038AC0000C0D06843EA81031CEA000F43F0080112
:1038BC0018BF0B469908013B11740D2B0BD8DFE890
:1038CC0003F0110C070C0A161111160A0C070C1137
:1038DC0053690233536110BC70475369013B10BCF0
:1038EC00536170475369013310BC5361704753697E
:1038FC00023B10BC53617047006400201D4BD3F891
:10390C008C2010689168006810B40842137C5468CD
:10391C0014BF0121002103F00303D4F800C0D068C8
:10392C0043EA81031CEA000F43F0080118BF0B4661
:10393C009908013B11740D2B0BD8DFE803F0110C27
:10394C00070C0A161111160A0C070C1153690233D5
:10395C00536110BC70475369013B10BC53617047F5
:10396C005369013310BC536170475369023B10BC5F
:10397C0053617047006400201D4BD3F888201068F9
:10398C009168006810B40842137C546814BF01217C
:10399C00002103F00303D4F800C0D06843EA81038C
:1039AC001CEA000F43F0080118BF0B469908013BB5
:1039BC0011740D2B0BD8DFE803F0110C070C0A1651
:1039CC001111160A0C070C1153690233536110BC08
:1039DC0070475369013B10BC536170475369013305
:1039EC0010BC536170475369023B10BC5361704764
:1039FC00006400201D4BD3F8842010689168006887
:103A0C0010B40842137C546814BF0121002103F048
:103A1C000303D4F800C0D06843EA81031CEA000F0A
:103A2C0043F0080118BF0B469908013B11740D2B8C
:103A3C000BD8DFE803F0110C070C0A161111160A4B
:103A4C000C070C1153690233536110BC7047536956
:103A5C00013B10BC536170475369013310BC536177
:103A6C0070475369023B10BC5361704700640020DF
:103A7C001D4BD3F8802010689168006810B4084280
:103A8C00137C546814BF0121002103F00303D4F804
:103A9C0000C0D06843EA81031CEA000F43F0080120
:103AAC0018BF0B469908013B11740D2B0BD8DFE89E
:103ABC0003F0110C070C0A161111160A0C070C1145
:103ACC0053690233536110BC70475369013B10BCFE
:103ADC00536170475369013310BC5361704753698C
:103AEC00023B10BC53617047006400201D4BDA6F21
:103AFC0010689168006810B40842137C546814BFB5
:103B0C000121002103F00303D4F800C0D06843EA7C
:103B1C0081031CEA000F43F0080118BF0B469908FB
:103B2C00013B11740D2B0BD8DFE803F0110C070CC3
:103B3C000A161111160A0C070C1153690233536142
:103B4C0010BC70475369013B10BC536170475369FB
:103B5C00013310BC536170475369023B10BC536175
:103B6C00704700BF006400201D4B9A6F106891686D
:103B7C00006810B40842137C546814BF0121002162
:103B8C0003F00303D4F800C0D06843EA81031CEAB5
:103B9C00000F43F0080118BF0B469908013B117444
:103BAC000D2B0BD8DFE803F0110C070C0A161111C2
:103BBC00160A0C070C1153690233536110BC704781
:103BCC005369013B10BC536170475369013310BCFE
:103BDC00536170475369023B10BC5361704700BF7F
:103BEC00006400201D4B5A6F10689168006810B477
:103BFC000842137C546814BF0121002103F0030315
:103C0C00D4F800C0D06843EA81031CEA000F43F0EB
:103C1C00080118BF0B469908013B11740D2B0BD8EA
:103C2C00DFE803F0110C070C0A161111160A0C0729
:103C3C000C1153690233536110BC70475369013B3B
:103C4C0010BC536170475369013310BC536170470A
:103C5C005369023B10BC5361704700BF00640020E5
:103C6C001D4B1A6F10689168006810B40842137CE1
:103C7C00546814BF0121002103F00303D4F800C0E1
:103C8C00D06843EA81031CEA000F43F0080118BF17
:103C9C000B469908013B11740D2B0BD8DFE803F090
:103CAC00110C070C0A161111160A0C070C1153698A
:103CBC000233536110BC70475369013B10BC536114
:103CCC0070475369013310BC536170475369023B11
:103CDC0010BC5361704700BF006400201D4BDA6EAE
:103CEC0010689168006810B40842137C546814BFC3
:103CFC000121002103F00303D4F800C0D06843EA8B
:103D0C0081031CEA000F43F0080118BF0B46990809
:103D1C00013B11740D2B0BD8DFE803F0110C070CD1
:103D2C000A161111160A0C070C1153690233536150
:103D3C0010BC70475369013B10BC53617047536909
:103D4C00013310BC536170475369023B10BC536183
:103D5C00704700BF006400201D4B9A6E106891687C
:103D6C00006810B40842137C546814BF0121002170
:103D7C0003F00303D4F800C0D06843EA81031CEAC3
:103D8C00000F43F0080118BF0B469908013B117452
:103D9C000D2B0BD8DFE803F0110C070C0A161111D0
:103DAC00160A0C070C1153690233536110BC70478F
:103DBC005369013B10BC536170475369013310BC0C
:103DCC00536170475369023B10BC5361704700BF8D
:103DDC00006400201D4B5A6E10689168006810B486
:103DEC000842137C546814BF0121002103F0030323
:103DFC00D4F800C0D06843EA81031CEA000F43F0FA
:103E0C00080118BF0B469908013B11740D2B0BD8F8
:103E1C00DFE803F0110C070C0A161111160A0C0737
:103E2C000C1153690233536110BC70475369013B49
:103E3C0010BC536170475369013310BC5361704718
:103E4C005369023B10BC5361704700BF00640020F3
:103E5C001D4B1A6E10689168006810B40842137CF0
:103E6C00546814BF0121002103F00303D4F800C0EF
:103E7C00D06843EA81031CEA000F43F0080118BF25
:103E8C000B469908013B11740D2B0BD8DFE803F09E
:103E9C00110C070C0A161111160A0C070C11536998
:103EAC000233536110BC70475369013B10BC536122
:103EBC0070475369013310BC536170475369023B1F
:103ECC0010BC5361704700BF006400201D4BDA6DBD
:103EDC0010689168006810B40842137C546814BFD1
:103EEC000121002103F00303D4F800C0D06843EA99
:103EFC0081031CEA000F43F0080118BF0B46990818
:103F0C00013B11740D2B0BD8DFE803F0110C070CDF
:103F1C000A161111160A0C070C115369023353615E
:103F2C0010BC70475369013B10BC53617047536917
:103F3C00013310BC536170475369023B10BC536191
:103F4C00704700BF006400201D4B9A6D106891688B
:103F5C00006810B40842137C546814BF012100217E
:103F6C0003F00303D4F800C0D06843EA81031CEAD1
:103F7C00000F43F0080118BF0B469908013B117460
:103F8C000D2B0BD8DFE803F0110C070C0A161111DE
:103F9C00160A0C070C1153690233536110BC70479D
:103FAC005369013B10BC536170475369013310BC1A
:103FBC00536170475369023B10BC5361704700BF9B
:103FCC00006400201D4B5A6D10689168006810B495
:103FDC000842137C546814BF0121002103F0030331
:103FEC00D4F800C0D06843EA81031CEA000F43F008
:103FFC00080118BF0B469908013B11740D2B0BD807
:10400C00DFE803F0110C070C0A161111160A0C0745
:10401C000C1153690233536110BC70475369013B57
:10402C0010BC536170475369013310BC5361704726
:10403C005369023B10BC5361704700BF0064002001
:10404C001D4B1A6D10689168006810B40842137CFF
:10405C00546814BF0121002103F00303D4F800C0FD
:10406C00D06843EA81031CEA000F43F0080118BF33
:10407C000B469908013B11740D2B0BD8DFE803F0AC
:10408C00110C070C0A161111160A0C070C115369A6
:10409C000233536110BC70475369013B10BC536130
:1040AC0070475369013310BC536170475369023B2D
:1040BC0010BC5361704700BF006400201D4BDA6CCC
:1040CC0010689168006810B40842137C546814BFDF
:1040DC000121002103F00303D4F800C0D06843EAA7
:1040EC0081031CEA000F43F0080118BF0B46990826
:1040FC00013B11740D2B0BD8DFE803F0110C070CEE
:10410C000A161111160A0C070C115369023353616C
:10411C0010BC70475369013B10BC53617047536925
:10412C00013310BC536170475369023B10BC53619F
:10413C00704700BF006400201D4B9A6C106891689A
:10414C00006810B40842137C546814BF012100218C
:10415C0003F00303D4F800C0D06843EA81031CEADF
:10416C00000F43F0080118BF0B469908013B11746E
:10417C000D2B0BD8DFE803F0110C070C0A161111EC
:10418C00160A0C070C1153690233536110BC7047AB
:10419C005369013B10BC536170475369013310BC28
:1041AC00536170475369023B10BC5361704700BFA9
:1041BC00006400201D4B5A6C10689168006810B4A4
:1041CC000842137C546814BF0121002103F003033F
:1041DC00D4F800C0D06843EA81031CEA000F43F016
:1041EC00080118BF0B469908013B11740D2B0BD815
:1041FC00DFE803F0110C070C0A161111160A0C0754
:10420C000C1153690233536110BC70475369013B65
:10421C0010BC536170475369013310BC5361704734
:10422C005369023B10BC5361704700BF006400200F
:10423C001D4B1A6C10689168006810B40842137C0E
:10424C00546814BF0121002103F00303D4F800C00B
:10425C00D06843EA81031CEA000F43F0080118BF41
:10426C000B469908013B11740D2B0BD8DFE803F0BA
:10427C00110C070C0A161111160A0C070C115369B4
:10428C000233536110BC70475369013B10BC53613E
:10429C0070475369013310BC536170475369023B3B
:1042AC0010BC5361704700BF006400201D4BDA6BDB
:1042BC0010689168006810B40842137C546814BFED
:1042CC000121002103F00303D4F800C0D06843EAB5
:1042DC0081031CEA000F43F0080118BF0B46990834
:1042EC00013B11740D2B0BD8DFE803F0110C070CFC
:1042FC000A161111160A0C070C115369023353617B
:10430C0010BC70475369013B10BC53617047536933
:10431C00013310BC536170475369023B10BC5361AD
:10432C00704700BF006400201D4B9A6B10689168A9
:10433C00006810B40842137C546814BF012100219A
:10434C0003F00303D4F800C0D06843EA81031CEAED
:10435C00000F43F0080118BF0B469908013B11747C
:10436C000D2B0BD8DFE803F0110C070C0A161111FA
:10437C00160A0C070C1153690233536110BC7047B9
:10438C005369013B10BC536170475369013310BC36
:10439C00536170475369023B10BC5361704700BFB7
:1043AC00006400201D4B5A6B10689168006810B4B3
:1043BC000842137C546814BF0121002103F003034D
:1043CC00D4F800C0D06843EA81031CEA000F43F024
:1043DC00080118BF0B469908013B11740D2B0BD823
:1043EC00DFE803F0110C070C0A161111160A0C0762
:1043FC000C1153690233536110BC70475369013B74
:10440C0010BC536170475369013310BC5361704742
:10441C005369023B10BC5361704700BF006400201D
:10442C001D4B1A6B10689168006810B40842137C1D
:10443C00546814BF0121002103F00303D4F800C019
:10444C00D06843EA81031CEA000F43F0080118BF4F
:10445C000B469908013B11740D2B0BD8DFE803F0C8
:10446C00110C070C0A161111160A0C070C115369C2
:10447C000233536110BC70475369013B10BC53614C
:10448C0070475369013310BC536170475369023B49
:10449C0010BC5361704700BF006400201D4BDA6AEA
:1044AC0010689168006810B40842137C546814BFFB
:1044BC000121002103F00303D4F800C0D06843EAC3
:1044CC0081031CEA000F43F0080118BF0B46990842
:1044DC00013B11740D2B0BD8DFE803F0110C070C0A
:1044EC000A161111160A0C070C1153690233536189
:1044FC0010BC70475369013B10BC53617047536942
:10450C00013310BC536170475369023B10BC5361BB
:10451C00704700BF006400201D4B9A6A10689168B8
:10452C00006810B40842137C546814BF01210021A8
:10453C0003F00303D4F800C0D06843EA81031CEAFB
:10454C00000F43F0080118BF0B469908013B11748A
:10455C000D2B0BD8DFE803F0110C070C0A16111108
:10456C00160A0C070C1153690233536110BC7047C7
:10457C005369013B10BC536170475369013310BC44
:10458C00536170475369023B10BC5361704700BFC5
:10459C00006400201D4B5A6A10689168006810B4C2
:1045AC000842137C546814BF0121002103F003035B
:1045BC00D4F800C0D06843EA81031CEA000F43F032
:1045CC00080118BF0B469908013B11740D2B0BD831
:1045DC00DFE803F0110C070C0A161111160A0C0770
:1045EC000C1153690233536110BC70475369013B82
:1045FC0010BC536170475369013310BC5361704751
:10460C005369023B10BC5361704700BF006400202B
:10461C001D4B1A6A10689168006810B40842137C2C
:10462C00546814BF0121002103F00303D4F800C027
:10463C00D06843EA81031CEA000F43F0080118BF5D
:10464C000B469908013B11740D2B0BD8DFE803F0D6
:10465C00110C070C0A161111160A0C070C115369D0
:10466C000233536110BC70475369013B10BC53615A
:10467C0070475369013310BC536170475369023B57
:10468C0010BC5361704700BF006400201D4BDA69F9
:10469C0010689168006810B40842137C546814BF09
:1046AC000121002103F00303D4F800C0D06843EAD1
:1046BC0081031CEA000F43F0080118BF0B46990850
:1046CC00013B11740D2B0BD8DFE803F0110C070C18
:1046DC000A161111160A0C070C1153690233536197
:1046EC0010BC70475369013B10BC53617047536950
:1046FC00013310BC536170475369023B10BC5361CA
:10470C00704700BF006400201D4B9A6910689168C7
:10471C00006810B40842137C546814BF01210021B6
:10472C0003F00303D4F800C0D06843EA81031CEA09
:10473C00000F43F0080118BF0B469908013B117498
:10474C000D2B0BD8DFE803F0110C070C0A16111116
:10475C00160A0C070C1153690233536110BC7047D5
:10476C005369013B10BC536170475369013310BC52
:10477C00536170475369023B10BC5361704700BFD3
:10478C00006400201D4B5A6910689168006810B4D1
:10479C000842137C546814BF0121002103F0030369
:1047AC00D4F800C0D06843EA81031CEA000F43F040
:1047BC00080118BF0B469908013B11740D2B0BD83F
:1047CC00DFE803F0110C070C0A161111160A0C077E
:1047DC000C1153690233536110BC70475369013B90
:1047EC0010BC536170475369013310BC536170475F
:1047FC005369023B10BC5361704700BF006400203A
:10480C001D4B1A6910689168006810B40842137C3B
:10481C00546814BF0121002103F00303D4F800C035
:10482C00D06843EA81031CEA000F43F0080118BF6B
:10483C000B469908013B11740D2B0BD8DFE803F0E4
:10484C00110C070C0A161111160A0C070C115369DE
:10485C000233536110BC70475369013B10BC536168
:10486C0070475369013310BC536170475369023B65
:10487C0010BC5361704700BF006400201D4BDA6808
:10488C0010689168006810B40842137C546814BF17
:10489C000121002103F00303D4F800C0D06843EADF
:1048AC0081031CEA000F43F0080118BF0B4699085E
:1048BC00013B11740D2B0BD8DFE803F0110C070C26
:1048CC000A161111160A0C070C11536902335361A5
:1048DC0010BC70475369013B10BC5361704753695E
:1048EC00013310BC536170475369023B10BC5361D8
:1048FC00704700BF006400201D4B9A6810689168D7
:10490C00006810B40842137C546814BF01210021C4
:10491C0003F00303D4F800C0D06843EA81031CEA17
:10492C00000F43F0080118BF0B469908013B1174A6
:10493C000D2B0BD8DFE803F0110C070C0A16111124
:10494C00160A0C070C1153690233536110BC7047E3
:10495C005369013B10BC536170475369013310BC60
:10496C00536170475369023B10BC5361704700BFE1
:10497C00006400201D4B5A6810689168006810B4E0
:10498C000842137C546814BF0121002103F0030377
:10499C00D4F800C0D06843EA81031CEA000F43F04E
:1049AC00080118BF0B469908013B11740D2B0BD84D
:1049BC00DFE803F0110C070C0A161111160A0C078C
:1049CC000C1153690233536110BC70475369013B9E
:1049DC0010BC536170475369013310BC536170476D
:1049EC005369023B10BC5361704700BF0064002048
:1049FC001D4B1A6810689168006810B40842137C4B
:104A0C00546814BF0121002103F00303D4F800C043
:104A1C00D06843EA81031CEA000F43F0080118BF79
:104A2C000B469908013B11740D2B0BD8DFE803F0F2
:104A3C00110C070C0A161111160A0C070C115369EC
:104A4C000233536110BC70475369013B10BC536176
:104A5C0070475369013310BC536170475369023B73
:104A6C0010BC5361704700BF006400204B49012209
:104A7C00F8B54B4C0B782254002B67D149490A7876
:104A8C00002A71D1484B1E68002E3AD0B379002B06
:104A9C0037D0464BF17A1B681F4691B333460AE078
:104AAC00BCF1020F2ED193F80DC0844561D00132B8
:104ABC001A338A4225D093F80CC0D5B2BCF1010F41
:104ACC00EED193F80DC08445F1D11A2303FB026398
:104ADC00D97B012902D0022905D091B92846BDE81D
:104AEC00F840FEF71FBA32498B5C83F001038B54FC
:104AFC00002B4CD12F4CFF212F48304A23700370D0
:104B0C001170F8BDBCF1030FD1D193F80DC08445E1
:104B1C0007D093F80EE08645C9D114F80C30002B61
:104B2C00EFD01A2303FB0263997B615C0029E8D068
:104B3C00D97B0129D2D00229CFD11D498B5C83F0BE
:104B4C0001038B54002BD5D00121C7E700231C4C4B
:104B5C000A220B70207001461A480EF077FB194898
:104B6C00BDE8F8400EF04ABB154A0B7010700A22D3
:104B7C00F1E7154B53F8201043F820707B1A312BBA
:104B8C00BFD91A2101FB0262128A9A42B9D3284674
:104B9C000021BDE8F840FEF7C5B900BFEC6E00205F
:104BAC00A4620020E86E0020A4630020C06D0020E9
:104BBC00C0600020FA6E0020F56E0020D23000207C
:104BCC00F26E0020A0290020205C0020424B0268DD
:104BDC009A4210B57AD10379022B77D1431D00F19B
:104BEC002F01002413F8012F8B4284EA0204F9D11F
:104BFC004179A1425FD1D0ED027AF5EEC07AF1EEA7
:104C0C0010FA63D4B7EE007AF4EEC77AF1EE10FA2C
:104C1C005CDCD0ED037AF5EEC07AF1EE10FA55D4E7
:104C2C00F3EE046AF4EEE67AF1EE10FA4EDCD0ED17
:104C3C00047ADFED2A6AF4EEE67AF1EE10FA45D446
:104C4C00B1EE046AF4EEC67AF1EE10FA3EDCD0ED69
:104C5C00057AF4EEE67AF1EE10FA37D4F4EEC77A70
:104C6C00F1EE10FA32DCB6EE007AD0ED067AF4EE04
:104C7C00C77AF1EE10FA29D4B0EE087AF4EEC77ABE
:104C8C00F1EE10FA22DC00F11B0400F12B0C14F8ED
:104C9C00012F131F02F11001DBB2C9B2E32B02D9B1
:104CAC000AB1042912D8A445F1D190F82C30012B6B
:104CBC000CD8012010BD0023102209480EF0C6FAB2
:104CCC0000231022214606480EF0C0FA04480EF0CC
:104CDC0095FA002010BD00BF314D4941CDCCCC3DE3
:104CEC00A0290020504B10B502689A4240F09680E3
:104CFC000379022B40F09280431D00F13F01002408
:104D0C0013F8012F994284EA0204F9D14179A142A6
:104D1C0079D1002200EB420101324B8A03F5FA7380
:104D2C009BB2B3F57A7F79D80B8C03F5FA739BB2EF
:104D3C00B3F57A7F72D8072AECD1428E40F6B8339D
:104D4C009A426BD8828E9A4268D8D0F806309FED82
:104D5C00377A07EE903AF4EEC77AF1EE10FA5DD49A
:104D6C00F2EE0E6AF4EEE67AF1EE10FA56DCD0F8BA
:104D7C002E3007EE903AF5EEC07AF1EE10FA4DD4E3
:104D8C00F3EE046AF4EEE67AF1EE10FA46DCD0F8B3
:104D9C000A3007EE903AF4EEC77AF1EE10FA3DD4F1
:104DAC00B2EE0E7AF4EEC77AF1EE10FA36DC90F829
:104DBC003630053B5A2B31D8D0F80E3042F21C520B
:104DCC00A3F5FA73934229D890F83730092B25D8DC
:104DDC0090F83830092B21D890F839301F2B1DD87A
:104DEC00C36BB7EE007A07EE903AF4EEC77AF1EEA9
:104DFC0010FA13D49FED0E7AF4EEC77AF1EE10FA96
:104E0C000CDC012010BD002310220A480EF01EFA03
:104E1C0000231022214607480EF018FA05480EF020
:104E2C00EDF9002010BD00BF314D4943CDCCCC3D38
:104E3C0000000044A029002010B5002304460E4AAF
:104E4C000321A382226023630C48C4E90133C4E923
:104E5C000333C4E90633C4E90833C4E90A330BF05D
:104E6C00D7FC042106480BF0EBFC012105480BF0A4
:104E7C0001FD204610BD00BF381A0020E042002082
:104E8C00E0410020C4630020F8B504464FF44073A1
:104E9C000025FF27A4F8983304F5EB63764A2030FD
:104EAC00C4F858374FF46873257022626570C4F8E3
:104EBC00A803A570A4F85C37E570A573277165622B
:104ECC006771A562C4F87853C4F87C5384F89A537C
:104EDC0084F85E57C4E9E055C4E9E255C4E9E455E9
:104EEC0007F046FF654B04F5EC6084F8855703F139
:104EFC004C02C4F86037C4F86457C4F86C27C4F883
:104F0C006857C4F8705784F87457C4F87857C4F8C5
:104F1C007C57C4F8805784F8845784F8865784F8F3
:104F2C008757C4F88857C4F88C57C4F89057C4F8FE
:104F3C0094570BF0A9FE524B04F5F36084F81A5801
:104F4C0003F15802C4F89837A4F81C7804F50467E8
:104F5C00C4F8A427C4F89C57C4F8A057C4F8A857A1
:104F6C0084F8AC57C4F8B057C4F8B457C4F8C05759
:104F7C00C4F8C45784F8F65784F8F857C4F80458A2
:104F8C00C4F80858C4F80C58C4F81058C4F814588D
:104F9C00A4F8185884F81B5884F82758C4F82858D3
:104FAC00C4F82C58C4F83058C4F834580BF0AEF888
:104FBC00344B294604F6880003F16C02C4F84038DF
:104FCC009833C4F84458C4F84C2840F20112C4F881
:104FDC0058380123A4F878284FF4807284F87A3872
:104FEC00C4F84858C4F85058C4F85458C4F85C581D
:104FFC0084F86058C4F86458C4F8685884F86C583D
:10500C00C4F87058C4F87458C4F87C58A4F8805884
:10501C0084F88258C4F8845812F026FB002200232E
:10502C00C7E95223C7E9542340F2FF320023C7E9F2
:10503C005623C4F8A059C4F8A459C4F8A859C4F804
:10504C00AC590EF0BDFC034684F8B4593846C4F88C
:10505C00B03984F8D55CC4F8D65C08F01BFF04F5B5
:10506C005860FFF7E9FE204684F8F45DC4F806505A
:10507C00C4F80A50F8BD00BF74180020B019002005
:10508C00501B00207C1A002000B583B0019006F064
:10509C0009FA0198034A044BC0F8C027C0F8C4377A
:1050AC0003B000BD350100005101000030B50446CD
:1050BC0083B00D4607F0D0F9D4F8683794F88527FB
:1050CC00003B02F0FF0118BF012384F8F43D12B934
:1050DC00084603B030BD94F887376FF07E0204F5B4
:1050EC00EC6001912B70D4F888377F2BA8BF7F23FD
:1050FC009342B8BF13466B80D4F88C377F2BA8BF74
:10510C007F239342B8BF1346AB80D4F890377F2BE4
:10511C00A8BF7F239342B8BF1346AB710BF0C0FD01
:10512C000199084603B030BD704700BF90F8F40DEC
:10513C00704700BF2DE9F04F04468BB0019107F08A
:10514C008BF994F882380199C3B994F8940D10B97D
:10515C000BB0BDE8F08F04F6985E03F0FF058C46AB
:10516C00BEE80F00ACE80F009EE807008CE80700D3
:10517C0084F8945D01200BB0BDE8F08FD4F884E87E
:10518C000A4604F6840304F6AC0C42F802EB53F81E
:10519C00040F9C4522F8020FF9D194F86C38033BAC
:1051AC00012B0BD9B1F916309AB2092A28BFFF236B
:1051BC000B7604F5046009F0C3F9DBE7B1F90430B0
:1051CC000EF48079B1F908000EF4806AA3F500455D
:1051DC000023A0F50040B1F906209C46089360F32B
:1051EC000F0C47F6FF70CDE90633821A65F30F03F7
:1051FC0062F31F43B1F90E20801A4A8960F31F4CE9
:10520C0040F2FF30824228BF024697018A898242CF
:10521C0028BF02461EF4806FCEF3C0204FEA8218DE
:10522C00CEF3002217D1D2B18DF82000ADF8147056
:10523C00ADF81680CDE9033C2EF470630DF1080E29
:10524C008C460293BEE80F00ACE80F009EE8070006
:10525C008CE80700ADE712B108B10120E4E70EF4C9
:10526C000075AB46B9F1000F05D120B14D450CBF0F
:10527C0002200320D8E74FEA5B26BBF1000F00D0D9
:10528C00B8B91EF4406F00D1AEB94FEA9A2016B1EE
:10529C0008B10520C8E7BBF1000F14BF002500F0D2
:1052AC00010515B1B9F1000F07D01040C0F108008D
:1052BC00BAE70320B8E70420B6E70620B4E700BF3E
:1052CC00D0F854380BB10120704790F8950D704709
:1052DC00D0F8A007003818BF012070470138022809
:1052EC0008B505D808480DF089FF07480DF086FF72
:1052FC0005480DF083FF64200EF00CFB0248BDE85E
:10530C0008400DF07BBF00BFA0290020FFEE007A03
:10531C0000B5B4EEE70A87B0F1EE10FA5ED4F7EE02
:10532C00007A9FED357AB4EEE70AF1EE10FA77FECB
:10533C00807A67EE877AFDEEE77A17EE901AFFEE29
:10534C00007A5FFA81FEC1F30721F4EEE70AF1EE71
:10535C0010FA4DD4F7EE007A9FED277AF4EEE70AB7
:10536C00F1EE10FA77FEA07A67EE877AFDEEE77A17
:10537C0017EE902A5FFA82FCC2F3072200230193F6
:10538C0002930593CDE903336EF3070361F30F2307
:10539C006CF31743C0F3001C62F31F63CDF80E309F
:1053AC00030103F0200203F0400103F4796343EAA4
:1053BC000C0313430209400802F002020B4300F0F5
:1053CC002000142113438DF8060001A88DF8073036
:1053DC008DF805100FF08AFD07B000BDFFEE007AC6
:1053EC0080214FF0010EF4EEE70AF1EE10FAB1D580
:1053FC0080224FF0010CC1E700FEFF4608B50B46BA
:10540C00362800F2B782DFE810F0AB02A102970257
:10541C008D02830279026F0265025B025102470220
:10542C003D023302D201C801BE01B401AA01A001A0
:10543C0096018C01820178016E0164015A015001C0
:10544C0046013C01320128011E0114010A01000130
:10545C00F600EC00E200D800CE00C400BA00B000A8
:10546C00A6009C00920088007E0074006A00600018
:10547C0056004C0042003700DFF8F0C30422D1493B
:10548C003620CCF8D8300EF05BFD012008BDDFF8DB
:10549C00DCC30422CC493520CCF8D4300EF050FDBE
:1054AC00F3E7DFF8C8C30422C8493420CCF8D03065
:1054BC000EF046FDE9E7DFF8B4C30422C4493320FB
:1054CC00CCF8CC300EF03CFDDFE7DFF8A0C30422B3
:1054DC00C0493220CCF8C8300EF032FDD5E7DFF8E9
:1054EC008CC30422BC493120CCF8C4300EF028FD0A
:1054FC00CBE7DFF878C30422B8493020CCF8C030B1
:10550C000EF01EFDC1E7DFF864C30422B4492F205E
:10551C00CCF8BC300EF014FDB7E7DFF850C3042212
:10552C00B0492E20CCF8B8300EF00AFDADE7DFF80C
:10553C003CC30422AC492D20CCF8B4300EF000FD55
:10554C00A3E7DFF828C30422A8492C20CCF8B030FC
:10555C000EF0F6FC99E7DFF814C30422A4492B20C3
:10556C00CCF8AC300EF0ECFC8FE7DFF800C3042273
:10557C00A0492A20CCF8A8300EF0E2FC85E7DFF831
:10558C00ECC204229C492920CCF8A4300EF0D8FCA3
:10559C007BE7DFF8D8C2042298492820CCF8A03049
:1055AC000EF0CEFC71E7DFF8C4C204229449272028
:1055BC00CCF89C300EF0C4FC67E7DFF8B0C20422D4
:1055CC0090492620CCF898300EF0BAFC5DE7DFF855
:1055DC009CC204228C492520CCF894300EF0B0FCEF
:1055EC0053E7DFF888C2042288492420CCF8903095
:1055FC000EF0A6FC49E7DFF874C20422844923208C
:10560C00CCF88C300EF09CFC3FE7DFF860C2042233
:10561C0080492220CCF888300EF092FC35E7DFF878
:10562C004CC204227C492120CCF884300EF088FC3A
:10563C002BE7DFF838C2042278492020CCF88030E0
:10564C000EF07EFC21E7DFF824C2042274491F20EF
:10565C00CCF87C300EF074FC17E7DFF810C2042293
:10566C0070491E20CCF878300EF06AFC0DE7DFF89C
:10567C00FCC104226C491D20CCF874300EF060FC87
:10568C0003E7DFF8E8C1042268491C20CCF870302D
:10569C000EF056FCF9E6DFF8D4C1042264491B2055
:1056AC00CCF86C300EF04CFCEFE6DFF8C0C10422F5
:1056BC0060491A20CCF868300EF042FCE5E6DFF8C1
:1056CC00ACC104225C491920CCF864300EF038FCD3
:1056DC00DBE6DFF898C1042258491820CCF860307A
:1056EC000EF02EFCD1E6DFF884C1042254491720B9
:1056FC00CCF85C300EF024FCC7E6DFF870C1042255
:10570C0050491620CCF858300EF01AFCBDE6DFF8E4
:10571C005CC104224C491520CCF854300EF010FC1E
:10572C00B3E6DFF848C1042248491420CCF85030C5
:10573C000EF006FCA9E6DFF834C10422444913201C
:10574C00CCF84C300EF0FCFB9FE6DFF820C10422B5
:10575C0040491220CCF848300EF0F2FB95E6DFF809
:10576C000CC104223C491120CCF844300EF0E8FB6B
:10577C008BE6DFF8F8C0042238491020CCF8403012
:10578C000EF0DEFB81E6DFF8E4C0042234490F2082
:10579C00CCF83C300EF0D4FB77E6DFF8D0C0042216
:1057AC0030490E20CCF838300EF0CAFB6DE6DFF82D
:1057BC00BCC004222C490D20CCF834300EF0C0FBB8
:1057CC0063E600BFB90E0000350F0000B10F0000FA
:1057DC002D100000A910000025110000A1110000DF
:1057EC001D12000099120000151300009113000007
:1057FC000D1400008914000005150000811500002F
:10580C00FD15000079160000F51600007117000058
:10581C00ED17000069180000E51800006119000080
:10582C00DD190000591A0000D51A0000511B0000A8
:10583C00CD1B0000491C0000C51C0000411D0000D0
:10584C00BD1D0000391E0000B51E0000311F0000F8
:10585C00AD1F000029200000A52000002121000020
:10586C009D210000192200009522000000640020F8
:10587C00DFF838C1042240490C20CCF830300EF04F
:10588C005FFB02E6DFF824C104223C490B20CCF874
:10589C002C300EF055FBF8E5DFF810C10422384926
:1058AC000A20CCF828300EF04BFBEEE5DFF8FCC0FC
:1058BC00042234490920CCF824300EF041FBE4E5F5
:1058CC00DFF8E8C0042230490820CCF820300EF074
:1058DC0037FBDAE5DFF8D4C004222C490720CCF8DA
:1058EC001C300EF02DFBD0E5DFF8C0C00422284997
:1058FC000620CCF818300EF023FBC6E5DFF8ACC060
:10590C00042224490520CCF814300EF019FBBCE518
:10591C000422DFF898C020491046CCF810300EF065
:10592C000FFBB2E5DFF884C004221C490320CCF83D
:10593C000C300EF005FBA8E5DFF870C00422184906
:10594C000220CCF808300EF0FBFA9EE5DFF85CC0C4
:10595C00042214490120CCF804300EF0F1FA94E53D
:10596C00DFF848C0042210490020CCF800300EF0BB
:10597C00E7FA8AE5002008BD112300008D23000002
:10598C000924000085240000012500007D2500006D
:10599C00F925000075260000F12600006D27000097
:1059AC00E927000065280000E128000000640020C1
:1059BC002DE9F0410E4615460446022130460EF004
:1059CC005DF8022128460EF059F8234B3201234989
:1059DC0053F8028003EB0612D76803EB0512C4F8E8
:1059EC000080A760D2F80CC02A0153F802E0002313
:1059FC001B4A6361C4F80CC01A4B48681268C4F89F
:105A0C0004E0A3FB02324FF4FA63920C03FB02F2A4
:105A1C004B681B1A9A42FBD8D8F800302146DEF8A6
:105A2C00002030461F4214BF012300231CEA020F42
:105A3C0043F0020218BF13462374FFF7DFFC034642
:105A4C00214628462376FFF7D9FC227E8318204670
:105A5C002376BDE8F08100BFCC1D0020001000E0D3
:105A6C00AC28002083DE1B43022110B504460846F7
:105A7C000EF004F8022105200EF000F802200DF0C3
:105A8C00EBFF0346052084F820300DF0E5FF0023E2
:105A9C0002460548636284F82120E362A386BDE8D0
:105AAC0010400DF0ABBB00BFA0290020A94AAA49A9
:105ABC0030B5137E83B004460D68012B40F2B480E0
:105ACC0072B6536962B6002B1846B8BFD81C80104A
:105ADC001AD072B6D3F1000C03F003010CF0030CD6
:105AEC0058BFCCF10001516162B6226862B1B3F5C6
:105AFC00007F06DA13F5007F40F32081404240B26C
:105B0C0001E06FF07E009047944A137E012B51D92F
:105B1C0072B6536962B6002B1846B8BFD81C8010F9
:105B2C001AD072B6D3F1000C03F003010CF0030C85
:105B3C0058BFCCF10001516162B6626862B1B3F535
:105B4C00007F06DA13F5007F40F3FA80404240B242
:105B5C0001E06FF07E00904702200DF07DFF94F87D
:105B6C002030834203D0636AEB1A312B18D80520FE
:105B7C000DF072FF94F8213083420FD0E36AEB1AD8
:105B8C00312B0BD9E562002840F0A480012325635A
:105B9C00E56184F83530237684F8210003B030BDFC
:105BAC00656200287CD10123A56284F8343084F826
:105BBC002000DCE772B6D2E9001309681868936814
:105BCC001942137C14BF0121002103F0030343EAA3
:105BDC008103D168084243F0080118BF0B469808AE
:105BEC00591E536910740D2994D801A050F821F056
:105BFC000F3C0000093C00001B3C0000093C00006D
:105C0C00053A0000153C00000F3C00000F3C000062
:105C1C00153C0000053A0000093C00001B3C00004C
:105C2C00093C00000F3C000072B6D2E90013096871
:105C3C00186893681942137C14BF0121002103F0EA
:105C4C00030343EA8103D168084243F0080118BFFB
:105C5C000B469808591E536910740D293FF632AF44
:105C6C0001A050F821F000BF033C0000FD3B0000F8
:105C7C00273C0000FD3B0000B5390000213C000032
:105C8C00033C0000033C0000213C0000B53900003F
:105C9C00FD3B0000273C0000FD3B0000033C0000E6
:105CAC0094F83430002B82D00022A36A84F834207C
:105CBC00EB1A40F2DB52934244D8294B1B78002B51
:105CCC007FF475AFA368002B3FF471AF0190984738
:105CDC0001986CE7002394F835202376002A3FF4D2
:105CEC005BAF1F4A84F835301378002B7FF454AF28
:105CFC00226B40F2DB53AD1A9D4227D96369002B0E
:105D0C003FF44AAF01909847019845E7013B536136
:105D1C00D8E601335361D5E6013B5361FAE6013312
:105D2C005361F7E6023B5361F4E602335361F1E64B
:105D3C00023B5361C6E602335361C3E67F20E2E6C1
:105D4C007F2008E7E368002BC0D130E72369002BE4
:105D5C00D8D121E744620020C06D00206062002091
:105D6C00DA30002010B501210A200DF087FE012148
:105D7C000A200DF04FFE012125200DF07FFE0121A0
:105D8C0025200DF047FE012107200DF077FE0121A3
:105D9C0007200DF03FFE00234FF48C72F0211648C3
:105DAC000CF0F2FF012114480CF084FF0021124882
:105DBC000BF042FB104800224FF0FF330446032146
:105DCC00C27643610CF040F80C4B03220C49204680
:105DDC0023610DF0E1F9204602210CF035F8094B56
:105DEC0020460C22084923610DF0D6F90748BDE87E
:105DFC0010400DF003BA00BFC86D00203C005A00E3
:105E0C00E40900203C007D00E8090020A0290020C6
:105E1C0010B5012122200DF031FE012122200DF0C0
:105E2C00F9FD00234FF48C72F02116480CF0ACFFF6
:105E3C00012114480CF03EFF002112480BF0FCFA33
:105E4C00104800226FF0F82304460321C276436108
:105E5C000BF0FAFF0C4B03220C49204623610DF08A
:105E6C009BF9204602210BF0EFFF094B20460B2239
:105E7C00084923610DF090F90748BDE810400DF07A
:105E8C00BDB900BF4C6E00203C005A00E409002054
:105E9C0054007D00F8090020A02900200346084684
:105EAC001146062B14D90D2B0AD90E3B00B583B025
:105EBC00062B43D8DFE803F04038362B1F1B1300AA
:105ECC00DFF8BCC0073B204A3CF9133011F056BA3E
:105EDC00DFF8B0C01C4A3CF9133011F04FBA1B4B21
:105EEC001B4A1B6803B05DF804EB11F047BA194B61
:105EFC00194A1B78F6E7194B93ED007A184AB7EE5E
:105F0C00C77A8DED007B11F039FA03B000BD154B4B
:105F1C00154A93ED007AB7EEC77A8DED007B11F040
:105F2C002DFAF2E7114BE7E7114B124A1B8803B02D
:105F3C005DF804EB11F022BA0F4BF6E70F4A03B0F1
:105F4C005DF804EB11F01ABA040A0020042E0020AC
:105F5C00380A0020D9300020300A0020F42D00200F
:105F6C00180A0020CC6C0020240A0020FC2D0020F4
:105F7C00E46E0020100A0020E26E0020400A00208F
:105F8C00E06C0020D06C0020374A43B2C1EB011109
:105F9C002DE9F041064692F900004C0086B098427B
:105FAC0004F1180254D0314BB3F900309E4207D0A3
:105FBC00062E51D90D2E53D84FF6A041002302E0E6
:105FCC0000214FF6FF730027294D01931E2361F327
:105FDC000F07284600934FF48C7361F31F47002181
:105FEC000CF010FA022128466F610BF02DFF214BAB
:105FFC00042204F11F0853F826702A82A5F8128097
:10600C003FB1384611F044FD3946024628460DF0A2
:10601C00C3F802A930460E22FFF740FF982302A8CE
:10602C00A5F812802B8211F033FD42F204150246C2
:10603C0002A90F480DF0B0F84FF48C7304F135023F
:10604C0000210B4800950CF061F906B0BDE8F08119
:10605C0000214FF4FC63B6E740F25F410023B2E746
:10606C004FF6FF710023AEE7D7300020E06E002022
:10607C00C86D00207C1200202DE9F04F2DED048B13
:10608C008FB0002800F0158240F25F42924BDFF88F
:10609C0094820292B3F800A0904A0492029B0026CC
:1060AC00002063F30F0663F31F46049B9F1E03F14E
:1060BC000C04394631F9023F5A4212B233EA230337
:1060CC0028BF13469842B8BF18468C42F2D16428B8
:1060DC0040F38082C82840F3F781B0F5967F40F3F7
:1060EC0092829FED7F8A4FF0FA0B4FF4FA797D4C38
:1060FC000021162520460BF09FF900220F23204685
:10610C001146CDE900534FF48C730CF07BF902214E
:10611C0020460BF099FE744B4146072220466661DF
:10612C0023610DF039F8714B012120464FF0CC085A
:10613C0063610BF089FE6E4A4B46142109A8126864
:10614C0041F6C30600926B4A11F018F909A811F038
:10615C009FFC082140F215130246618200EB4001BE
:10616C002046A3EB410309A923820DF015F840F654
:10617C0041032A461C212046CDE90083FA230CF06A
:10618C0041F944F208237C221C2120460093FA2377
:10619C000CF0BCF8FA2349221C21204600960CF086
:1061AC00B5F8FA23AF221C21204600960CF0AEF86D
:1061BC0042F204132A461C2100932046FA230CF0C9
:1061CC00A5F8BAF1000F04D0494A1268524500F202
:1061DC000882012143480BF037FE474B474A072101
:1061EC00636107A84B46002511F0C8F84FF4B013B3
:1061FC0007A89FED439A236111F04AFC07A90246B8
:10620C0038484FF001080CF0C7FF5B463B4A0721AA
:10621C0007A8DFED3C9A11F0B1F84FF48A0307A8F8
:10622C00DFED398A236111F033FC07A902462D48B2
:10623C002E460CF0B1FF354B02223549294823611B
:10624C000CF0AAFF5B46334A072107A811F096F819
:10625C004FF42B0307A84FF01C0B236111F018FC13
:10626C0007A902461F480CF097FF4B46294A072105
:10627C0007A84FF07C0911F081F84FF45A0307A8D6
:10628C00236111F005FC07A9024616480CF084FFA7
:10629C00214B01222149134823610CF07DFF144B43
:1062AC0014211F4A09A81B6811F068F809A811F0FD
:1062BC00EFFBE423024609A9638200EB4003094883
:1062CC005B00C3F58B7323820CF066FF05480BF063
:1062DC0083FF05973FE000BFE26E0020D06C0020EA
:1062EC000000FA434C6E00200900030018C618C6C3
:1062FC00042E0020540A002010841084640A00200C
:10630C00000000000000CC420000F84204007800BD
:10631C00680A00206C0A00201C00E400700A0020AF
:10632C00740A0020440A0020E12C05F11C03A8BFCC
:10633C00E1241BB227B2B8F1000F00F095800235B2
:10634C004FF0000846F10006A5F1FC02324300F0C4
:10635C00D780B9469B46AF4BFA221C680023A4FB9E
:10636C00050110F09DF85045C0F0B580844240F214
:10637C00B280A0EB0A00A4EB0A04B1EE086A0499FF
:10638C0007EE900AB8EE677A07EE904AF8EE677A55
:10639C00C7EE276A66EE867ABDEEE77A17EE102A0C
:1063AC00052A1346A8BF052331F9130007EE103A4E
:1063BC0001EB4303B8EEC77A05EE100AB3F90210ED
:1063CC00B8EEC55A04EE901A77EEC77AF8EEE44AA6
:1063DC00002A40F0838074EEC53AB3F90430B6EE6F
:1063EC00007A05EE903AF8EEE55A75EEC55A65EE70
:1063FC00875A67EEA76AB0EE086AF0EE002A27EE1D
:10640C00A64A26EE866AB7EE002AB0EE447AB0EEC3
:10641C00463AA4EE626AA6EEE27A94EE223A74EE62
:10642C00666A37EE277A73EE027A27EE237AA5EEA8
:10643C00277AA4EE867AA6EEA57A27EE297AC7EEFD
:10644C00087A78EEE77AFDEEE77A17EE903A1CB20E
:10645C00152C3FF769AF162705F11C033C461BB200
:10646C00B8F1000F7FF46BAF029909F1FF326A4863
:10647C000191611E12B2039309B201340091594685
:10648C000AF0DAFE4A46644824B2DDE90213CDE98B
:10649C00007159460AF0D0FE029809F10102039BE3
:1064AC00594612B2CDE900405B480AF0C5FE039B89
:1064BC0045E74FF6A042594BDFF880810292584ACB
:1064CC00B3F800A00492E9E59FED568A4FF0640BF7
:1064DC004FF0C8090BE6B0EE497AB0E733F9021C6D
:1064EC00B6EE007A042A03EE901AF8EEE33A74EE54
:1064FC00E33A63EE873A7FF770AF74EEC55A78E7EC
:10650C0045484446059F0BF025FD9FED479ADFED6E
:10651C00478A474D4CE0191841F10001A5FB016C6D
:10652C002CF0010606EB5C06891B5B1AA3FB0536F7
:10653C0060F10001580805FB016340EAC370504448
:10654C00FA210023A0FB01010FF0AAFF1C2140F24D
:10655C001512084403B280B21B2B03DD9042A8BF76
:10656C00104601B237F9023F4FF6FF722A4807EE88
:10657C00103A00920423B8EEC77A27EE097AC7EED8
:10658C00087A78EEE77AFDEEE77A17EE902A12B2E7
:10659C00E12AA8BFE122162AB8BF16220BF066F931
:1065AC0018F1010844F10004A8F1070323430CD0AF
:1065BC00184B1A68A2EB0A035245A3FB0830AAD861
:1065CC000AB91C21CEE75046BAE70FB0BDEC048BDC
:1065DC00BDE8F08F9FED178A4FF0320B4FF0640936
:1065EC0085E5FA200023AAFB00010FF059FF00F10A
:1065FC001C0147F6EF3043462A4609B2009020466C
:10660C000BF00AFEE5E59FED0C8A4FF0960B4FF46C
:10661C0096796CE5042E00204C6E0020E46E002070
:10662C00E06C0020000048430000CC420000F8421F
:10663C00ABAAAAAA0000C842000096434C0A00204C
:10664C002DE9F04F844C8FB000214FF00F082046FD
:10665C004FF0FF350AF0F0FE002216214FF48C7338
:10666C00204607AE05AF4FF01B09CDE900181146C7
:10667C000BF0C8FE022120460BF0E6FB774B0722FD
:10668C0077492046C4E904350CF086FD754B012191
:10669C00204663610BF0D8FB734B102273492046E4
:1066AC0023610CF079FD724B724AADF8185000253D
:1066BC00059293E8070086E80700012120460BF0BD
:1066CC00C3FB5C23162229B22046CDE900980BF0BF
:1066DC0099FE37F8021B0023AA1C4FF01F0C56F82A
:1066EC0004AB61F30F0322825046A4F812C061F38D
:1066FC001F436361BAF1000F06D011F0C9F951467E
:10670C00024620460CF048FD5D3540F21713ADB241
:10671C009D42D6D1584B0026DFF874B14FF01B09BF
:10672C00DFF870A1039306EB460516F0010F40F657
:10673C0041084FF05C0305EBC50518BF4FF000088E
:10674C000021454805F13107CDF80090CDF80480C3
:10675C003A353FB23A460BF055FE484B484A4FF695
:10676C00FF711B78107840F25F42C3EBC303658264
:10677C003344DBB2834208BF0A4600230E210AA829
:10678C0062F30F0362F31F433E4A63613BF9023F1E
:10679C00009302232382334610F0F0FD0AA811F077
:1067AC0077F90AA902462C480CF0F6FC5C233A4611
:1067BC005D212948CDE900980BF024FE3AF9023FFF
:1067CC0065820E2100930AA82F4B304A63615F2328
:1067DC002382334610F0D2FD0AA811F059F90AA908
:1067EC0002461D480CF0D8FC3A465D23BA211A48E3
:1067FC00CDF80480CDF800900BF004FE4FF0FF3381
:10680C0006F10E000E226361BC23C0B20AA9658298
:10681C002382FFF743FB039B53F8045F03933DB1C3
:10682C00284611F035F9294602460B480CF0B4FC09
:10683C003A2109480BF06EFA01360AA811F028F932
:10684C000AA9024604480CF0A7FC072E7FF46BAF94
:10685C000FB0BDE8F08F00BF4C6E002009000300A4
:10686C00F00A002018C618C6780008007C0A002020
:10687C00600900205F04A0FCB0120020086F00200B
:10688C00E06E0020900A0020A0FCA0FC9C0A0020D6
:10689C00CE6C0020DE6C0020DFF884C00346084676
:1068AC001146DCF80820042B00B58BB0DCF814E0A2
:1068BC000592DCF80C20CDF820E00692DCF81020D4
:1068CC000792DCF8182009921CD803EB830C104AB1
:1068DC000DEB830302EB8C0293ED057A1369B7EE93
:1068EC00C77A1A783AB10B4A02938DED007B10F0FF
:1068FC0045FD0BB000BD084A8DED007B10F03EFD50
:10690C000BB000BD054A0BB05DF804EB10F036BDC2
:10691C006C110020B00A0020A80A0020400A0020B8
:10692C007C6B0020C1EB011104282DE9F0414FEAEA
:10693C00410486B004F1180212B257D8334943B25D
:10694C00064691F9001099424CD0314BB3F9003006
:10695C00984257D040F2FF71002300272D4D019330
:10696C001E2361F30F07284600934FF48C7361F3D9
:10697C001F4700210BF046FD022128466F610BF0EA
:10698C0063FA254B042204F11F0853F826702A825F
:10699C00A5F812803FB1384611F07AF83946024614
:1069AC0028460CF0F9FB02A930460E22FFF774FFC3
:1069BC00982302A8A5F812802B8211F069F842F2F4
:1069CC000415024602A913480CF0E6FB4FF48C7335
:1069DC0004F1350200210F4800950BF097FC06B02E
:1069EC00BDE8F08100214FF4FC63B6E700211E20C6
:1069FC004FF48C73CDE9000106480BF003FD06B093
:106A0C00BDE8F08100214FF6FF73A6E7D7300020D8
:106A1C00E06E0020C86D002068120020F0B5002246
:106A2C0087B01F2118264FF48C733A4801911146F8
:106A3C0000964FF0FF340BF0E5FC3648022105259B
:106A4C00074644610BF000FA334B032233493846B6
:106A5C003B610CF0A1FB324B0A22324938463B61B8
:106A6C000CF09AFB012138467C610BF0EDF92E4BB2
:106A7C000C212E4AB3F900300DEB010000950133C7
:106A8C0010F07CFC2A4B03A83B6111F001F803A920
:106A9C00024638460CF080FB264B274A1B681268CE
:106AAC009A421AD9254B1B88312B20D84FF4787277
:106ABC004FF48C73174801920022009611460BF08C
:106ACC00A1FC1448022144610BF0BEF91C492A4672
:106ADC001C4B104803610CF05FFB0024E1B2013445
:106AEC000846FFF71FFF072CF8D107B0F0BD0022B6
:106AFC004FF400414FF48C730648CDE90061114608
:106B0C000BF080FC0348022144610BF09DF9072235
:106B1C000D49DDE7C86D002009000400CC0A0020F7
:106B2C0041000400D00A0020E06E0020DC0A0020A6
:106B3C00DE000A00C06D002000680020DC6E002022
:106B4C00C40A002055000400BC0A0020634B1B78CB
:106B5C00022B00F0A78000220F2118204FF48C7319
:106B6C00F0B587B04FF0FF365D4C019111460090A7
:106B7C005C480BF047FC5B480221074646610BF072
:106B8C0063F9594B0322594938463B610CF004FB1D
:106B9C00574A237852F82350002B7BD140F25F42A6
:106BAC000023504962F30F0362F31F43514AC1E9BA
:106BBC000423284610F06CFF2946024649480CF085
:106BCC00EBFA484801214C4E0725074646610BF06D
:106BDC003BF923780821494AA3EBC3030DEB0100D1
:106BEC00128800951344464A0133DBB210F0C6FB01
:106BFC00444B02A83B6110F04BFF02A902463846F9
:106C0C000CF0CAFA022138467E610BF01DF923788C
:106C1C003D4A0821013304A810F0B0FB3B4B04A8FB
:106C2C003B6110F035FF04A9024638460CF0B4FA6B
:106C3C00374B384A1B6812689A421DD9364B1B8851
