:0200000460009A
:100000004643464200000156000000000101020084
:1000100000000000000000000000000000000000E0
:1000200000000000000000000000000000000000D0
:1000300000000000000000000000000000000000C0
:1000400000000000010406010000000000000000A4
:100050000000800000000000000000000000000020
:100060000000000000000000000000000000000090
:100070000000000000000000000000000000000080
:10008000EB04180AFF1E04320126000000000000E5
:100090000000000000000000000000000000000060
:1000A0000000000000000000000000000000000050
:1000B0000000000000000000000000000000000040
:1000C0000000000000000000000000000000000030
:1000D0000000000000000000000000000000000020
:1000E0000000000000000000000000000000000010
:1000F0000000000000000000000000000000000000
:1001000000000000000000000000000000000000EF
:1001100000000000000000000000000000000000DF
:1001200000000000000000000000000000000000CF
:1001300000000000000000000000000000000000BF
:1001400000000000000000000000000000000000AF
:10015000000000000000000000000000000000009F
:10016000000000000000000000000000000000008F
:10017000000000000000000000000000000000007F
:10018000000000000000000000000000000000006F
:10019000000000000000000000000000000000005F
:1001A000000000000000000000000000000000004F
:1001B000000000000000000000000000000000003F
:1001C000000100000010000001000000000000001D
:1001D000000001000000000000000000000000001E
:1001E000000000000000000000000000000000000F
:1001F00000000000000000000000000000000000FF
:10020000FFFFFFFFFFFFFFFFFFFFFFFFFFFFFFFFFE
:10021000FFFFFFFFFFFFFFFFFFFFFFFFFFFFFFFFEE
:10100000D1002043F1150060000000000000000046
:10101000201000600010006000B8026000000000B6
:101020000000006000C4020000000000FFFFFFFF9E
:10103000FFFFFFFFFFFFFFFFFFFFFFFFFFFFFFFFC0
:10104000FFFFFFFFFFFFFFFFFFFFFFFFFFFFFFFFB0
:10105000FFFFFFFFFFFFFFFFFFFFFFFFFFFFFFFFA0
:10106000FFFFFFFFFFFFFFFFFFFFFFFFFFFFFFFF90
:10140000824205D051F8043B40F8043B8242F9D8AF
:10141000704700BF044A05494FF0000342F8043BFF
:101420009142FBD8704700BFC0520020C09C0020F2
:1014300080B5BFF34F8F00F075F9544C544B082022
:101440005449C3F85401544AC3F800115348C3F82F
:10145000F0405349FFF7D4FF524A53495348FFF72E
:10146000CFFF534CFFF7D6FF4FF470004FF0E02151
:101470000023504AC1F8880D44F823200133B02BD3
:10148000FAD14D4B80214D4A03F8011B9342FBD109
:101490004FF0E0254A4F4B4A4FF0FF31C5F8084D59
:1014A0000026D5F8243D43F4E023C5F8243DFB692C
:1014B00023F07F0343F04003FB617B6A23F07F034B
:1014C00043F040037B629166D1661167516700F07B
:1014D00031F93D4B63223D49A3633D4BE363032355
:1014E0006A613C4AAE612B61C5F8202DD5F8FC2D10
:1014F000394B42F08072C5F8FC2D1A6842F00102A7
:101500001A605B680B6000F0D9FA344800F050FCB8
:10151000F96E334B334A41F44051F9661E60C3F80B
:101520000861C3F81861C3F82861C3F83861936B88
:10153000DB0708D442F615632B4951651365936B9D
:1015400043F001039363274A284C936843F0011347
:10155000936000F079F900F05FF800F02DFC00F0E6
:10156000DBFA00F0E1F82368132BFCD900F06CFBE8
:101570002368B3F5967FFBD300F0DAF800F0D6F8D5
:1015800000F00AFC00F010FC30BFFDE70C0D111359
:1015900000800D401B101820A8420200000000002F
:1015A000D01F0060C05200207C620260000000205A
:1015B00000500020C98F010000E400E0A0E400E03A
:1015C00000C00F4000C00A40357D0100149B002080
:1015D000397D010000002020001000E00046C323F8
:1015E0000040084000400D400000C056189B0020FD
:1015F000054B4FF42A01054A05485A641864054A08
:1016000099639546FFF714FF00C00A40FFABAAAAF2
:101610000700200000800520104BA020104AD96E42
:1016200041F4403110B4D96640F23764D96E41F4C8
:101630004071D96654649064936C1B06FCD4094ACB
:1016400040F23761A02351649364936C13F08003DC
:10165000FBD1054A13705DF8044B704700C00F4082
:1016600000400C4000800C40779C00202B4A002159
:10167000012310B4C2F8A000C2F8A410C2F8B03020
:101680005369DB07FCD501234FF4803423495361B0
:10169000C2F8A000C2F8A440C2F8B0304B69DC0721
:1016A000FCD501234FF400341C4A4B61C1F8A00063
:1016B000C1F8A440C1F8B0305369D907FCD5012363
:1016C000174C16495361C2F8A000C2F8A440C2F8F2
:1016D000B0304B69DB07FCD5D1F8003145F60D5031
:1016E00021249AB24C61824214D045F69D518A421F
:1016F0000CD1C3F34253032B0CD0A3F104035DF8C8
:10170000044BB3FA83F35B091801704700205DF8BE
:10171000044B704708205DF8044B704700402A4096
:1017200004000300704700BF704700BF704700BF50
:1017300000BF704710B44FF0E0230021102432485E
:10174000C3F8941DC3F89C4D1124C3F8A00D2F4875
:10175000C3F89C4D1224C3F8A00D2D48C3F89C4D2E
:101760002C4AC3F8A00D2C4C42F015022B48C3F8AC
:101770009C4DC3F8A00D2A4C2A48C3F89C4DC3F8D1
:10178000A00D294CC3F89C2D2848294AC3F8A04D28
:10179000C3F89C0DC3F8A02D02F5A022254C0C32F5
:1017A0002548C3F89C4DC3F8A02D244AC3F89C0DCE
:1017B000C3F8A02D02F14062214C02322148C3F847
:1017C0009C4DC3F8A02D0A32C3F89C0DC3F8A02D80
:1017D00000BF00BF00BF00BF00BF0122C3F8942DAF
:1017E000BFF34F8FBFF36F8FC3F8501FBFF34F8FFF
:1017F000BFF36F8FD3F8142D5DF8044B42F44032E1
:10180000C3F8142D704700BF3F00001025000807E3
:1018100009001000C09C00201300200021000207D6
:1018200014000020250008130900001016002020D5
:1018300027000B1317000040180000602F000B0753
:10184000190000701A000080F0B5824B1822824DFA
:101850000120824F83B0C3F85C528149C3F86072A3
:10186000804CC3F86452A5F530457F4EC3F86852EA
:1018700048F20C75C3F86C42C3F87042C3F8744266
:10188000C3F878424FF0FF34DA661A675A679A67EE
:10189000DA67C3F88020C3F88420C3F88820C1F831
:1018A0002C03724AC1F83003C1F83403C1F838037D
:1018B000C1F83C03C1F85003B1696D4B0A406D4853
:1018C0006D4913436D4AB361D6F8843043F00C037D
:1018D000C6F88430036843F00203036003682B40BA
:1018E00021251A43664B026044608A68654C1340A8
:1018F000654A43F000538360C36823F07803C360F4
:10190000036A134023430362036A13405F4A23437D
:1019100040F2056443628262C2620022D1F8B830AC
:1019200023F03F0343F00103C0F8B830D1F8BC30D6
:10193000574923F03F0343F00103C0F8BC30026174
:101940000567C0F880404567C0F8844002240368FA
:1019500023F00203036081614E4B4F49C46143F899
:10196000042B8B42FBD1434D2B6843F001032B60CA
:101970002C6814F00104FBD14549022340F2F562C2
:101980002046A96140F29941EB6140F26643C5F8F7
:10199000002242F20142C5F81032404BC5F8201235
:1019A000C5F8303240F23543C5F834223C49C5F819
:1019B00040323C4BC5F850123B4AC5F8543242F213
:1019C0000123C5F86022C5F86432FFF74FFE0646D2
:1019D000002836D083024FF480222B660123C5F8FD
:1019E000A040244CC5F8A420C5F8B0306369DA07DC
:1019F000FCD50125370565613846FFF737FE3218FB
:101A00002A4BD2B21A7078B180024FF48023194960
:101A10006066C4F8A070C4F8A430C4F8B0504B6934
:101A2000DB07FCD501234B61214900242148012318
:101A30000094401A00EB02521F4800F0A9F903B0CD
:101A4000F0BD1D4B194A18601070D860C3E9010041
:101A500003B0F0BD00801F40F9B00100F910010093
:101A600000841F40F970010000C00F40FFFCFF1F01
:101A70000003008000402A4000802A401200FFFF3F
:101A8000FF37F7004000008000FFF07CFF000F836D
:101A9000F05AF05A00422A4000432A409F0418306E
:101AA000EB06180A063201263806180A789C002030
:101AB0000000007000000070AC980020F0B4154ADF
:101AC00040274FF480314FF480564FF400554FF4C7
:101AD000404443F24200136913F0020F0ED113F495
:101AE000005F0FD013F4805F0ED0002BF3DA13F4F5
:101AF000803F0BD15B060BD5F0BC70479461516100
:101B00009061E8E75561E6E75661E4E79161E2E755
:101B10005761E0E700800D403F4A03203F49F3EE64
:101B2000095AD2F880304FF0000C9FED3D6A23F047
:101B300001039FED3C5A30B4C2F88030C2F89000E7
:101B4000D1F8E010384DCBB2384C39482B6007EE55
:101B5000903A0B0DC1F30B21F8EEE77A06EE903ABE
:101B600007EE101A334BB8EEC77A2160F8EEE66A3A
:101B7000314937EEC66A37EEC55A76EEC76A77EE58
:101B8000E57A26EE266AC3ED006A25EE265AD2F8DB
:101B9000803067EEA64AC0ED007AC6EE275A274885
:101BA00085EE276AC4EEA76A75EE875AFCEEE55A01
:101BB00036EE076A15EE904ABCEEC66A43EA045355
:101BC00076EE877AC2F8803016EE103AD2F890415D
:101BD000FCEEE77A01EA0341214317EE903AC2F89E
:101BE0009011C3F30B03D2F890110B431449C2F8C0
:101BF0009031D2F8803043F00203C2F88030114BAC
:101C000080F840C0C1F840314FF0E023012230BCE1
:101C1000C3F80821704700BF00810D4000441F40F9
:101C20000000AA420000B442849A0020809A00205A
:101C3000889A00208C9A00200000FF0F00E400E04A
:101C400000500020B5910100314B40F6617210B593
:101C5000C3F8202140F2044400F0B6F82D4A2E4982
:101C6000D2F880302D4843F00303C2F880302C4B6B
:101C7000C1F8604102681A4203D1D1F8A8319A072D
:101C80001BD0254A4FF00041244B5963D2F8403114
:101C900043F00203C2F84031D2F840319B07FBD435
:101CA0004FF400304FF0E0211C4B4FF00042C1F8E0
:101CB0008C0219209A6300F073F8184A4FF08040A4
:101CC000154C002190630A20164B11604FF480627E
:101CD000C4F8A801184600F073F84FF480020346D8
:101CE0004FF4810040F243111860C4F858311A646F
:101CF0000D4B0E4AC4F84811C3F804224FF0E022FD
:101D00004FF400310123C2F80C11C4F8403110BD6A
:101D100000800D4000C00F4000002E4000900D409C
:101D2000001C1E00000000200050002065940100EF
:101D300008B50E4B1B6E9B0700D4FBBE72B60C4B56
:101D400000200C4AC3F8400103F160430A49A3F59F
:101D50005F2311649D46BFF34F8F4FF40013074874
:101D6000074ADB6902609B68984700BF00441F4038
:101D700000002E4000C00A40030020000080202008
:101D8000000012EBF8B500BFF8BC08BC9E467047D7
:101D90005FF800F08DAE01005FF800F0F1DF0100A8
:101DA0005FF800F01D8701005FF800F0218E010050
:101DB0005FF800F0018401005FF800F029AD010038
:101DC0005FF800F079DD01005FF800F0C99B0100C9
:101DD00005010000AD6C00005DE00000D5020100CF
:041DE0004D4B010066
:101DE4000901809611800A3A81550A3601082A04AD
:101DF400000000F02B040000014021800A13800A37
:101E040029800A003E0353006500720069006100E6
:101E14006C002F004B006500790062006F006100C8
:101E2400720064002F004D006F00750073006500A0
:101E34002F004A006F00790073007400690063008A
:101E44006B00000018035400650065006E00730009
:101E540079006400750069006E006F0004030904D2
:101E64000902AF00060100C032080B0002020201A1
:101E7400000904000001020201000524001001050C
:101E84002401010104240206052406000107058239
:101E94000310001009040100020A000000070503F2
:101EA400024000000705830240000009040200010B
:101EB40003010100092111010001223F00070584EB
:101EC40003080001090403000103000000092111B3
:101ED40001000122540007058603080002090404D6
:101EE400000103000000092111010001225500072F
:101EF4000587030C00010904050001030000000923
:101F040021110100012228000705850308000400AF
:101F14000902AF00060100C032080B0002020201F0
:101F2400000904000001020201000524001001055B
:101F34002401010104240206052406000107058288
:101F44000310000509040100020A0000000705034C
:101F540002000200070583020002000904020001D6
:101F640003010100092111010001223F000705843A
:101F74000308000109040300010300000009211102
:101F84000100012254000705860308000209040425
:101F9400000103000000092111010001225500077E
:101FA4000587030C00010904050001030000000972
:101FB40021110100012228000705850308000400FF
:0C1FC4000A060002EF02014001000000CC
:101FD0000000000000000000000000000000000001
:101FE00000000000000000000000000000000000F1
:101FF000F8B54FF084439D695A6915400DD0254FBF
:1020000001269D6195FAA5F4B4FA84F457F82430BA
:1020100006FA04F49847A543F4D11F4B9D695A6909
:1020200015400DD01D4F01269D6195FAA5F4B4FA17
:1020300084F457F8243006FA04F49847A543F4D101
:10204000174B9D695A6915400DD0164F01269D61A9
:1020500095FAA5F4B4FA84F457F8243006FA04F497
:102060009847A543F4D1104B9D695A6915400DD08E
:102070000E4F01269D6195FAA5F4B4FA84F457F841
:10208000243006FA04F49847A543F4D1BFF34F8FE8
:10209000F8BD00BFB04A002000400042304B002095
:1020A00000800042B04B002000C00042304C0020B5
:1020B0000548064B1B1AD90F01EBA301491002D0AA
:1020C000034B03B118477047C0520020C052002094
:1020D0000000000008B5054B1BB105490548AFF3EA
:1020E0000080BDE80840FFF7E3BF00BF000000002C
:1020F000309A002000C40260704700BF2DE9F84309
:1021000029492A4E91F8F68796F90030327838EA54
:10211000030591F9F6771AD00024DFF89C9002E0CD
:102120000134082C0AD025FA04F3DA07F8D539F877
:10213000140001341AF01AF8082CF4D11C4B327830
:102140001B682A431B49323332700B6053B218EAC2
:10215000020F04D0164A1749126832320A6023EA85
:10216000070515F0FF071CD0114B124A1B681268B7
:102170009B1A002B15DB0024DFF83C8002E00134C1
:10218000082C0AD027FA04F3DB07F8D538F8140036
:10219000013419F043FF082CF4D1337823EA050306
:1021A0003370BDE8F88300BF20660020699C0020E2
:1021B000189B002034900020C8270020562810B516
:1021C000044602D1064B0022DA73FFF797FF054B56
:1021D0001B681BB12046BDE81040184710BD00BF6A
:1021E00020660020A4910020562810B5044602D194
:1021F000064B0122DA73FFF781FF054B1B681BB109
:102200002046BDE81040184710BD00BF20660020E2
:1022100090910020031F192B12D9A0F11E03082B47
:102220000BD9272817D0A0F13A030B2B0FD9283848
:10223000C0B2BF2807D9002070471330C0B2704722
:102240005D30C0B27047054B33F810007047A0F501
:10225000805080B270473020704700BFAC0A002029
:10226000284A002138B5284C137821540BB18342F9
:1022700045D0264B1B688BB39A797AB3DC7A6CB362
:10228000234D002295F800E011460BE0BCF1030F4E
:1022900004D193F80FC0BCF1010F27D0A14203F184
:1022A0001A031BD201328E45D1B2F7D193F80CC07C
:1022B000BCF1010FEAD193F80FC0BCF1010FEDD1D1
:1022C00093F80DC08445E9D119F062FE002311484E
:1022D000FF22114903700B702A7038BDFFF79AFF77
:1022E0000028FAD0BDE8384019F098BE93F80DC028
:1022F0008445E9D093F80EC08445CFD1E4E711704E
:1023000038BD00BF679C0020FC910020FC9200209B
:10231000DA4D00206D9C00206A9C002038B5254DC8
:10232000044640F2E93128462DED028BF0EE408A5A
:1023300017F04AFE034640F2E931284608EE103A0B
:1023400017F042FE07EE900A40F2E931B8EEC88A73
:102350002846F8EEE77A38EE278A17F035FE07EEC2
:10236000904A07EE100A9FED146A47F6FF73F8EEE5
:10237000677ADFED125AB8EEC77ADFED116A27EE01
:10238000A80A37EE087AC0EE067A87EE256ABDEC19
:10239000028B67EE867A67EEA67AFDEEE77A17EE95
:1023A000900A20449842A8BF18460128B8BF0120CF
:1023B00080B238BD18FCFFFF0000C84200803B45DA
:1023C0002DB25D402DE9F0411A22DFF8948001EB37
:1023D00081030C46D8F8006002FB003333449B7C39
:1023E0006BB3074618468D00FFF714FF10BB33464A
:1023F000D3F807302544DFED157A00EE103A1A23A2
:10240000B4EEE70A03FB0750114B0644F1EE10FA55
:102410001D68B6F813000BD440B90E4A0E490F4B95
:10242000147001220D601A70BDE8F081FFF776FF8D
:102430000544F2E719F09AFED8F80030D8E7054BCA
:102440001970BDE8F04100F00DB800BF0AD7233C79
:10245000189B00206B9C0020749000206D9C002035
:10246000FC92002070B51A4C1A4B21781B68013180
:10247000C9B2032919D800EB40024FF0050C00EB5C
:10248000820252001CFB0122134403E05FFA8CF12C
:1024900004290AD09A7C01F1010C0533002AF5D0F9
:1024A0002170BDE87040FFF78DBF0B4E35782DB120
:1024B00000212170BDE87040FFF784BF19F068FD6E
:1024C0000649074BFF220D7035701A7070BD00BFB2
:1024D0006B9C0020FC9200206A9C00206D9C0020D8
:1024E000DA4D002038B5044649B108460D461DF0C6
:1024F000CFFF2368024629465B682046984720465E
:10250000BDE8384017F074BC214B1A68D2E90010BE
:10251000D3680968006810B41842946801EA04019D
:102520002ED0137C03F00303D9B943F008039908B4
:10253000013B11740D2B0BD8DFE803F00D071C07CE
:102540000A160D0D160A071C070D5369013B53614E
:102550005DF8044B704753695DF8044B01335361D8
:10256000704743F00403E0E753695DF8044B023B16
:102570005361704753695DF8044B023353617047F0
:10258000137C03F003030029D1D043F00403CEE70A
:1025900038930020214B5A68D2E90010D3680968AB
:1025A000006810B41842946801EA04012ED0137C2C
:1025B00003F00303D9B943F008039908013B1174F0
:1025C0000D2B0BD8DFE803F00D071C070A160D0DC5
:1025D000160A071C070D5369013B53615DF8044B54
:1025E000704753695DF8044B01335361704743F002
:1025F0000403E0E753695DF8044B023B5361704705
:1026000053695DF8044B023353617047137C03F048
:1026100003030029D1D043F00403CEE73893002010
:10262000214B9A68D2E90010D3680968006810B499
:102630001842946801EA04012ED0137C03F00303CE
:10264000D9B943F008039908013B11740D2B0BD83D
:10265000DFE803F00D071C070A160D0D160A071C0C
:10266000070D5369013B53615DF8044B7047536993
:102670005DF8044B01335361704743F00403E0E716
:1026800053695DF8044B023B5361704753695DF831
:10269000044B023353617047137C03F0030300299A
:1026A000D1D043F00403CEE738930020214BDA6801
:1026B000D2E90010D3680968006810B41842946821
:1026C00001EA04012ED0137C03F00303D9B943F0CF
:1026D00008039908013B11740D2B0BD8DFE803F0B8
:1026E0000D071C070A160D0D160A071C070D536966
:1026F000013B53615DF8044B704753695DF8044B2F
:1027000001335361704743F00403E0E753695DF818
:10271000044B023B5361704753695DF8044B02332D
:1027200053617047137C03F003030029D1D043F0B9
:102730000403CEE738930020214B1A69D2E9001038
:10274000D3680968006810B41842946801EA04016B
:102750002ED0137C03F00303D9B943F00803990882
:10276000013B11740D2B0BD8DFE803F00D071C079C
:102770000A160D0D160A071C070D5369013B53611C
:102780005DF8044B704753695DF8044B01335361A6
:10279000704743F00403E0E753695DF8044B023BE4
:1027A0005361704753695DF8044B023353617047BE
:1027B000137C03F003030029D1D043F00403CEE7D8
:1027C00038930020214B5A69D2E90010D368096878
:1027D000006810B41842946801EA04012ED0137CFA
:1027E00003F00303D9B943F008039908013B1174BE
:1027F0000D2B0BD8DFE803F00D071C070A160D0D93
:10280000160A071C070D5369013B53615DF8044B21
:10281000704753695DF8044B01335361704743F0CF
:102820000403E0E753695DF8044B023B53617047D2
:1028300053695DF8044B023353617047137C03F016
:1028400003030029D1D043F00403CEE738930020DE
:10285000214B9A69D2E90010D3680968006810B466
:102860001842946801EA04012ED0137C03F003039C
:10287000D9B943F008039908013B11740D2B0BD80B
:10288000DFE803F00D071C070A160D0D160A071CDA
:10289000070D5369013B53615DF8044B7047536961
:1028A0005DF8044B01335361704743F00403E0E7E4
:1028B00053695DF8044B023B5361704753695DF8FF
:1028C000044B023353617047137C03F00303002968
:1028D000D1D043F00403CEE738930020214BDA69CE
:1028E000D2E90010D3680968006810B418429468EF
:1028F00001EA04012ED0137C03F00303D9B943F09D
:1029000008039908013B11740D2B0BD8DFE803F085
:102910000D071C070A160D0D160A071C070D536933
:10292000013B53615DF8044B704753695DF8044BFC
:1029300001335361704743F00403E0E753695DF8E6
:10294000044B023B5361704753695DF8044B0233FB
:1029500053617047137C03F003030029D1D043F087
:102960000403CEE738930020214B1A6AD2E9001005
:10297000D3680968006810B41842946801EA040139
:102980002ED0137C03F00303D9B943F00803990850
:10299000013B11740D2B0BD8DFE803F00D071C076A
:1029A0000A160D0D160A071C070D5369013B5361EA
:1029B0005DF8044B704753695DF8044B0133536174
:1029C000704743F00403E0E753695DF8044B023BB2
:1029D0005361704753695DF8044B0233536170478C
:1029E000137C03F003030029D1D043F00403CEE7A6
:1029F00038930020214B5A6AD2E90010D368096845
:102A0000006810B41842946801EA04012ED0137CC7
:102A100003F00303D9B943F008039908013B11748B
:102A20000D2B0BD8DFE803F00D071C070A160D0D60
:102A3000160A071C070D5369013B53615DF8044BEF
:102A4000704753695DF8044B01335361704743F09D
:102A50000403E0E753695DF8044B023B53617047A0
:102A600053695DF8044B023353617047137C03F0E4
:102A700003030029D1D043F00403CEE738930020AC
:102A8000214B9A6AD2E90010D3680968006810B433
:102A90001842946801EA04012ED0137C03F003036A
:102AA000D9B943F008039908013B11740D2B0BD8D9
:102AB000DFE803F00D071C070A160D0D160A071CA8
:102AC000070D5369013B53615DF8044B704753692F
:102AD0005DF8044B01335361704743F00403E0E7B2
:102AE00053695DF8044B023B5361704753695DF8CD
:102AF000044B023353617047137C03F00303002936
:102B0000D1D043F00403CEE738930020214BDA6A9A
:102B1000D2E90010D3680968006810B418429468BC
:102B200001EA04012ED0137C03F00303D9B943F06A
:102B300008039908013B11740D2B0BD8DFE803F053
:102B40000D071C070A160D0D160A071C070D536901
:102B5000013B53615DF8044B704753695DF8044BCA
:102B600001335361704743F00403E0E753695DF8B4
:102B7000044B023B5361704753695DF8044B0233C9
:102B800053617047137C03F003030029D1D043F055
:102B90000403CEE738930020214B1A6BD2E90010D2
:102BA000D3680968006810B41842946801EA040107
:102BB0002ED0137C03F00303D9B943F0080399081E
:102BC000013B11740D2B0BD8DFE803F00D071C0738
:102BD0000A160D0D160A071C070D5369013B5361B8
:102BE0005DF8044B704753695DF8044B0133536142
:102BF000704743F00403E0E753695DF8044B023B80
:102C00005361704753695DF8044B02335361704759
:102C1000137C03F003030029D1D043F00403CEE773
:102C200038930020214B5A6BD2E90010D368096811
:102C3000006810B41842946801EA04012ED0137C95
:102C400003F00303D9B943F008039908013B117459
:102C50000D2B0BD8DFE803F00D071C070A160D0D2E
:102C6000160A071C070D5369013B53615DF8044BBD
:102C7000704753695DF8044B01335361704743F06B
:102C80000403E0E753695DF8044B023B536170476E
:102C900053695DF8044B023353617047137C03F0B2
:102CA00003030029D1D043F00403CEE7389300207A
:102CB000214B9A6BD2E90010D3680968006810B400
:102CC0001842946801EA04012ED0137C03F0030338
:102CD000D9B943F008039908013B11740D2B0BD8A7
:102CE000DFE803F00D071C070A160D0D160A071C76
:102CF000070D5369013B53615DF8044B70475369FD
:102D00005DF8044B01335361704743F00403E0E77F
:102D100053695DF8044B023B5361704753695DF89A
:102D2000044B023353617047137C03F00303002903
:102D3000D1D043F00403CEE738930020214BDA6B67
:102D4000D2E90010D3680968006810B4184294688A
:102D500001EA04012ED0137C03F00303D9B943F038
:102D600008039908013B11740D2B0BD8DFE803F021
:102D70000D071C070A160D0D160A071C070D5369CF
:102D8000013B53615DF8044B704753695DF8044B98
:102D900001335361704743F00403E0E753695DF882
:102DA000044B023B5361704753695DF8044B023397
:102DB00053617047137C03F003030029D1D043F023
:102DC0000403CEE738930020214B1A6CD2E900109F
:102DD000D3680968006810B41842946801EA0401D5
:102DE0002ED0137C03F00303D9B943F008039908EC
:102DF000013B11740D2B0BD8DFE803F00D071C0706
:102E00000A160D0D160A071C070D5369013B536185
:102E10005DF8044B704753695DF8044B013353610F
:102E2000704743F00403E0E753695DF8044B023B4D
:102E30005361704753695DF8044B02335361704727
:102E4000137C03F003030029D1D043F00403CEE741
:102E500038930020214B5A6CD2E90010D3680968DE
:102E6000006810B41842946801EA04012ED0137C63
:102E700003F00303D9B943F008039908013B117427
:102E80000D2B0BD8DFE803F00D071C070A160D0DFC
:102E9000160A071C070D5369013B53615DF8044B8B
:102EA000704753695DF8044B01335361704743F039
:102EB0000403E0E753695DF8044B023B536170473C
:102EC00053695DF8044B023353617047137C03F080
:102ED00003030029D1D043F00403CEE73893002048
:102EE000214B9A6CD2E90010D3680968006810B4CD
:102EF0001842946801EA04012ED0137C03F0030306
:102F0000D9B943F008039908013B11740D2B0BD874
:102F1000DFE803F00D071C070A160D0D160A071C43
:102F2000070D5369013B53615DF8044B70475369CA
:102F30005DF8044B01335361704743F00403E0E74D
:102F400053695DF8044B023B5361704753695DF868
:102F5000044B023353617047137C03F003030029D1
:102F6000D1D043F00403CEE738930020214BDA6C34
:102F7000D2E90010D3680968006810B41842946858
:102F800001EA04012ED0137C03F00303D9B943F006
:102F900008039908013B11740D2B0BD8DFE803F0EF
:102FA0000D071C070A160D0D160A071C070D53699D
:102FB000013B53615DF8044B704753695DF8044B66
:102FC00001335361704743F00403E0E753695DF850
:102FD000044B023B5361704753695DF8044B023365
:102FE00053617047137C03F003030029D1D043F0F1
:102FF0000403CEE738930020214B1A6DD2E900106C
:10300000D3680968006810B41842946801EA0401A2
:103010002ED0137C03F00303D9B943F008039908B9
:10302000013B11740D2B0BD8DFE803F00D071C07D3
:103030000A160D0D160A071C070D5369013B536153
:103040005DF8044B704753695DF8044B01335361DD
:10305000704743F00403E0E753695DF8044B023B1B
:103060005361704753695DF8044B023353617047F5
:10307000137C03F003030029D1D043F00403CEE70F
:1030800038930020214B5A6DD2E90010D3680968AB
:10309000006810B41842946801EA04012ED0137C31
:1030A00003F00303D9B943F008039908013B1174F5
:1030B0000D2B0BD8DFE803F00D071C070A160D0DCA
:1030C000160A071C070D5369013B53615DF8044B59
:1030D000704753695DF8044B01335361704743F007
:1030E0000403E0E753695DF8044B023B536170470A
:1030F00053695DF8044B023353617047137C03F04E
:1031000003030029D1D043F00403CEE73893002015
:10311000214B9A6DD2E90010D3680968006810B499
:103120001842946801EA04012ED0137C03F00303D3
:10313000D9B943F008039908013B11740D2B0BD842
:10314000DFE803F00D071C070A160D0D160A071C11
:10315000070D5369013B53615DF8044B7047536998
:103160005DF8044B01335361704743F00403E0E71B
:1031700053695DF8044B023B5361704753695DF836
:10318000044B023353617047137C03F0030300299F
:10319000D1D043F00403CEE738930020214BDA6D01
:1031A000D2E90010D3680968006810B41842946826
:1031B00001EA04012ED0137C03F00303D9B943F0D4
:1031C00008039908013B11740D2B0BD8DFE803F0BD
:1031D0000D071C070A160D0D160A071C070D53696B
:1031E000013B53615DF8044B704753695DF8044B34
:1031F00001335361704743F00403E0E753695DF81E
:10320000044B023B5361704753695DF8044B023332
:1032100053617047137C03F003030029D1D043F0BE
:103220000403CEE738930020214B1A6ED2E9001038
:10323000D3680968006810B41842946801EA040170
:103240002ED0137C03F00303D9B943F00803990887
:10325000013B11740D2B0BD8DFE803F00D071C07A1
:103260000A160D0D160A071C070D5369013B536121
:103270005DF8044B704753695DF8044B01335361AB
:10328000704743F00403E0E753695DF8044B023BE9
:103290005361704753695DF8044B023353617047C3
:1032A000137C03F003030029D1D043F00403CEE7DD
:1032B00038930020214B5A6ED2E90010D368096878
:1032C000006810B41842946801EA04012ED0137CFF
:1032D00003F00303D9B943F008039908013B1174C3
:1032E0000D2B0BD8DFE803F00D071C070A160D0D98
:1032F000160A071C070D5369013B53615DF8044B27
:10330000704753695DF8044B01335361704743F0D4
:103310000403E0E753695DF8044B023B53617047D7
:1033200053695DF8044B023353617047137C03F01B
:1033300003030029D1D043F00403CEE738930020E3
:10334000214B9A6ED2E90010D3680968006810B466
:103350001842946801EA04012ED0137C03F00303A1
:10336000D9B943F008039908013B11740D2B0BD810
:10337000DFE803F00D071C070A160D0D160A071CDF
:10338000070D5369013B53615DF8044B7047536966
:103390005DF8044B01335361704743F00403E0E7E9
:1033A00053695DF8044B023B5361704753695DF804
:1033B000044B023353617047137C03F0030300296D
:1033C000D1D043F00403CEE738930020214BDA6ECE
:1033D000D2E90010D3680968006810B418429468F4
:1033E00001EA04012ED0137C03F00303D9B943F0A2
:1033F00008039908013B11740D2B0BD8DFE803F08B
:103400000D071C070A160D0D160A071C070D536938
:10341000013B53615DF8044B704753695DF8044B01
:1034200001335361704743F00403E0E753695DF8EB
:10343000044B023B5361704753695DF8044B023300
:1034400053617047137C03F003030029D1D043F08C
:103450000403CEE738930020214B1A6FD2E9001005
:10346000D3680968006810B41842946801EA04013E
:103470002ED0137C03F00303D9B943F00803990855
:10348000013B11740D2B0BD8DFE803F00D071C076F
:103490000A160D0D160A071C070D5369013B5361EF
:1034A0005DF8044B704753695DF8044B0133536179
:1034B000704743F00403E0E753695DF8044B023BB7
:1034C0005361704753695DF8044B02335361704791
:1034D000137C03F003030029D1D043F00403CEE7AB
:1034E00038930020214B5A6FD2E90010D368096845
:1034F000006810B41842946801EA04012ED0137CCD
:1035000003F00303D9B943F008039908013B117490
:103510000D2B0BD8DFE803F00D071C070A160D0D65
:10352000160A071C070D5369013B53615DF8044BF4
:10353000704753695DF8044B01335361704743F0A2
:103540000403E0E753695DF8044B023B53617047A5
:1035500053695DF8044B023353617047137C03F0E9
:1035600003030029D1D043F00403CEE738930020B1
:10357000214B9A6FD2E90010D3680968006810B433
:103580001842946801EA04012ED0137C03F003036F
:10359000D9B943F008039908013B11740D2B0BD8DE
:1035A000DFE803F00D071C070A160D0D160A071CAD
:1035B000070D5369013B53615DF8044B7047536934
:1035C0005DF8044B01335361704743F00403E0E7B7
:1035D00053695DF8044B023B5361704753695DF8D2
:1035E000044B023353617047137C03F0030300293B
:1035F000D1D043F00403CEE738930020214BDA6F9B
:10360000D2E90010D3680968006810B418429468C1
:1036100001EA04012ED0137C03F00303D9B943F06F
:1036200008039908013B11740D2B0BD8DFE803F058
:103630000D071C070A160D0D160A071C070D536906
:10364000013B53615DF8044B704753695DF8044BCF
:1036500001335361704743F00403E0E753695DF8B9
:10366000044B023B5361704753695DF8044B0233CE
:1036700053617047137C03F003030029D1D043F05A
:103680000403CEE738930020224BD3F88020D2E900
:103690000010D3680968006810B41842946801EA01
:1036A00004012ED0137C03F00303D9B943F00803BF
:1036B0009908013B11740D2B0BD8DFE803F00D07BF
:1036C0001C070A160D0D160A071C070D5369013B4E
:1036D00053615DF8044B704753695DF8044B013347
:1036E0005361704743F00403E0E753695DF8044B0E
:1036F000023B5361704753695DF8044B02335361D9
:103700007047137C03F003030029D1D043F0040376
:10371000CEE700BF38930020224BD3F88420D2E9B3
:103720000010D3680968006810B41842946801EA70
:1037300004012ED0137C03F00303D9B943F008032E
:103740009908013B11740D2B0BD8DFE803F00D072E
:103750001C070A160D0D160A071C070D5369013BBD
:1037600053615DF8044B704753695DF8044B0133B6
:103770005361704743F00403E0E753695DF8044B7D
:10378000023B5361704753695DF8044B0233536148
:103790007047137C03F003030029D1D043F00403E6
:1037A000CEE700BF38930020224BD3F88820D2E91F
:1037B0000010D3680968006810B41842946801EAE0
:1037C00004012ED0137C03F00303D9B943F008039E
:1037D0009908013B11740D2B0BD8DFE803F00D079E
:1037E0001C070A160D0D160A071C070D5369013B2D
:1037F00053615DF8044B704753695DF8044B013326
:103800005361704743F00403E0E753695DF8044BEC
:10381000023B5361704753695DF8044B02335361B7
:103820007047137C03F003030029D1D043F0040355
:10383000CEE700BF38930020224BD3F88C20D2E98A
:103840000010D3680968006810B41842946801EA4F
:1038500004012ED0137C03F00303D9B943F008030D
:103860009908013B11740D2B0BD8DFE803F00D070D
:103870001C070A160D0D160A071C070D5369013B9C
:1038800053615DF8044B704753695DF8044B013395
:103890005361704743F00403E0E753695DF8044B5C
:1038A000023B5361704753695DF8044B0233536127
:1038B0007047137C03F003030029D1D043F00403C5
:1038C000CEE700BF38930020224BD3F89020D2E9F6
:1038D0000010D3680968006810B41842946801EABF
:1038E00004012ED0137C03F00303D9B943F008037D
:1038F0009908013B11740D2B0BD8DFE803F00D077D
:103900001C070A160D0D160A071C070D5369013B0B
:1039100053615DF8044B704753695DF8044B013304
:103920005361704743F00403E0E753695DF8044BCB
:10393000023B5361704753695DF8044B0233536196
:103940007047137C03F003030029D1D043F0040334
:10395000CEE700BF38930020224BD3F89420D2E961
:103960000010D3680968006810B41842946801EA2E
:1039700004012ED0137C03F00303D9B943F00803EC
:103980009908013B11740D2B0BD8DFE803F00D07EC
:103990001C070A160D0D160A071C070D5369013B7B
:1039A00053615DF8044B704753695DF8044B013374
:1039B0005361704743F00403E0E753695DF8044B3B
:1039C000023B5361704753695DF8044B0233536106
:1039D0007047137C03F003030029D1D043F00403A4
:1039E000CEE700BF38930020224BD3F89820D2E9CD
:1039F0000010D3680968006810B41842946801EA9E
:103A000004012ED0137C03F00303D9B943F008035B
:103A10009908013B11740D2B0BD8DFE803F00D075B
:103A20001C070A160D0D160A071C070D5369013BEA
:103A300053615DF8044B704753695DF8044B0133E3
:103A40005361704743F00403E0E753695DF8044BAA
:103A5000023B5361704753695DF8044B0233536175
:103A60007047137C03F003030029D1D043F0040313
:103A7000CEE700BF38930020224BD3F89C20D2E938
:103A80000010D3680968006810B41842946801EA0D
:103A900004012ED0137C03F00303D9B943F00803CB
:103AA0009908013B11740D2B0BD8DFE803F00D07CB
:103AB0001C070A160D0D160A071C070D5369013B5A
:103AC00053615DF8044B704753695DF8044B013353
:103AD0005361704743F00403E0E753695DF8044B1A
:103AE000023B5361704753695DF8044B02335361E5
:103AF0007047137C03F003030029D1D043F0040383
:103B0000CEE700BF38930020224BD3F8A020D2E9A3
:103B10000010D3680968006810B41842946801EA7C
:103B200004012ED0137C03F00303D9B943F008033A
:103B30009908013B11740D2B0BD8DFE803F00D073A
:103B40001C070A160D0D160A071C070D5369013BC9
:103B500053615DF8044B704753695DF8044B0133C2
:103B60005361704743F00403E0E753695DF8044B89
:103B7000023B5361704753695DF8044B0233536154
:103B80007047137C03F003030029D1D043F00403F2
:103B9000CEE700BF38930020224BD3F8A420D2E90F
:103BA0000010D3680968006810B41842946801EAEC
:103BB00004012ED0137C03F00303D9B943F00803AA
:103BC0009908013B11740D2B0BD8DFE803F00D07AA
:103BD0001C070A160D0D160A071C070D5369013B39
:103BE00053615DF8044B704753695DF8044B013332
:103BF0005361704743F00403E0E753695DF8044BF9
:103C0000023B5361704753695DF8044B02335361C3
:103C10007047137C03F003030029D1D043F0040361
:103C2000CEE700BF38930020224BD3F8A820D2E97A
:103C30000010D3680968006810B41842946801EA5B
:103C400004012ED0137C03F00303D9B943F0080319
:103C50009908013B11740D2B0BD8DFE803F00D0719
:103C60001C070A160D0D160A071C070D5369013BA8
:103C700053615DF8044B704753695DF8044B0133A1
:103C80005361704743F00403E0E753695DF8044B68
:103C9000023B5361704753695DF8044B0233536133
:103CA0007047137C03F003030029D1D043F00403D1
:103CB000CEE700BF38930020224BD3F8AC20D2E9E6
:103CC0000010D3680968006810B41842946801EACB
:103CD00004012ED0137C03F00303D9B943F0080389
:103CE0009908013B11740D2B0BD8DFE803F00D0789
:103CF0001C070A160D0D160A071C070D5369013B18
:103D000053615DF8044B704753695DF8044B013310
:103D10005361704743F00403E0E753695DF8044BD7
:103D2000023B5361704753695DF8044B02335361A2
:103D30007047137C03F003030029D1D043F0040340
:103D4000CEE700BF38930020224BD3F8B020D2E951
:103D50000010D3680968006810B41842946801EA3A
:103D600004012ED0137C03F00303D9B943F00803F8
:103D70009908013B11740D2B0BD8DFE803F00D07F8
:103D80001C070A160D0D160A071C070D5369013B87
:103D900053615DF8044B704753695DF8044B013380
:103DA0005361704743F00403E0E753695DF8044B47
:103DB000023B5361704753695DF8044B0233536112
:103DC0007047137C03F003030029D1D043F00403B0
:103DD000CEE700BF38930020224BD3F8D420D2E99D
:103DE0000010D3680968006810B41842946801EAAA
:103DF00004012ED0137C03F00303D9B943F0080368
:103E00009908013B11740D2B0BD8DFE803F00D0767
:103E10001C070A160D0D160A071C070D5369013BF6
:103E200053615DF8044B704753695DF8044B0133EF
:103E30005361704743F00403E0E753695DF8044BB6
:103E4000023B5361704753695DF8044B0233536181
:103E50007047137C03F003030029D1D043F004031F
:103E6000CEE700BF38930020224BD3F8D820D2E908
:103E70000010D3680968006810B41842946801EA19
:103E800004012ED0137C03F00303D9B943F00803D7
:103E90009908013B11740D2B0BD8DFE803F00D07D7
:103EA0001C070A160D0D160A071C070D5369013B66
:103EB00053615DF8044B704753695DF8044B01335F
:103EC0005361704743F00403E0E753695DF8044B26
:103ED000023B5361704753695DF8044B02335361F1
:103EE0007047137C03F003030029D1D043F004038F
:103EF000CEE700BF38930020224BD3F8B420D2E99C
:103F00000010D3680968006810B41842946801EA88
:103F100004012ED0137C03F00303D9B943F0080346
:103F20009908013B11740D2B0BD8DFE803F00D0746
:103F30001C070A160D0D160A071C070D5369013BD5
:103F400053615DF8044B704753695DF8044B0133CE
:103F50005361704743F00403E0E753695DF8044B95
:103F6000023B5361704753695DF8044B0233536160
:103F70007047137C03F003030029D1D043F00403FE
:103F8000CEE700BF38930020224BD3F8B820D2E907
:103F90000010D3680968006810B41842946801EAF8
:103FA00004012ED0137C03F00303D9B943F00803B6
:103FB0009908013B11740D2B0BD8DFE803F00D07B6
:103FC0001C070A160D0D160A071C070D5369013B45
:103FD00053615DF8044B704753695DF8044B01333E
:103FE0005361704743F00403E0E753695DF8044B05
:103FF000023B5361704753695DF8044B02335361D0
:104000007047137C03F003030029D1D043F004036D
:10401000CEE700BF38930020224BD3F8BC20D2E972
:104020000010D3680968006810B41842946801EA67
:1040300004012ED0137C03F00303D9B943F0080325
:104040009908013B11740D2B0BD8DFE803F00D0725
:104050001C070A160D0D160A071C070D5369013BB4
:1040600053615DF8044B704753695DF8044B0133AD
:104070005361704743F00403E0E753695DF8044B74
:10408000023B5361704753695DF8044B023353613F
:104090007047137C03F003030029D1D043F00403DD
:1040A000CEE700BF38930020224BD3F8C020D2E9DE
:1040B0000010D3680968006810B41842946801EAD7
:1040C00004012ED0137C03F00303D9B943F0080395
:1040D0009908013B11740D2B0BD8DFE803F00D0795
:1040E0001C070A160D0D160A071C070D5369013B24
:1040F00053615DF8044B704753695DF8044B01331D
:104100005361704743F00403E0E753695DF8044BE3
:10411000023B5361704753695DF8044B02335361AE
:104120007047137C03F003030029D1D043F004034C
:10413000CEE700BF38930020224BD3F8C420D2E949
:104140000010D3680968006810B41842946801EA46
:1041500004012ED0137C03F00303D9B943F0080304
:104160009908013B11740D2B0BD8DFE803F00D0704
:104170001C070A160D0D160A071C070D5369013B93
:1041800053615DF8044B704753695DF8044B01338C
:104190005361704743F00403E0E753695DF8044B53
:1041A000023B5361704753695DF8044B023353611E
:1041B0007047137C03F003030029D1D043F00403BC
:1041C000CEE700BF38930020224BD3F8C820D2E9B5
:1041D0000010D3680968006810B41842946801EAB6
:1041E00004012ED0137C03F00303D9B943F0080374
:1041F0009908013B11740D2B0BD8DFE803F00D0774
:104200001C070A160D0D160A071C070D5369013B02
:1042100053615DF8044B704753695DF8044B0133FB
:104220005361704743F00403E0E753695DF8044BC2
:10423000023B5361704753695DF8044B023353618D
:104240007047137C03F003030029D1D043F004032B
:10425000CEE700BF38930020224BD3F8CC20D2E920
:104260000010D3680968006810B41842946801EA25
:1042700004012ED0137C03F00303D9B943F00803E3
:104280009908013B11740D2B0BD8DFE803F00D07E3
:104290001C070A160D0D160A071C070D5369013B72
:1042A00053615DF8044B704753695DF8044B01336B
:1042B0005361704743F00403E0E753695DF8044B32
:1042C000023B5361704753695DF8044B02335361FD
:1042D0007047137C03F003030029D1D043F004039B
:1042E000CEE700BF38930020224BD3F8D020D2E98C
:1042F0000010D3680968006810B41842946801EA95
:1043000004012ED0137C03F00303D9B943F0080352
:104310009908013B11740D2B0BD8DFE803F00D0752
:104320001C070A160D0D160A071C070D5369013BE1
:1043300053615DF8044B704753695DF8044B0133DA
:104340005361704743F00403E0E753695DF8044BA1
:10435000023B5361704753695DF8044B023353616C
:104360007047137C03F003030029D1D043F004030A
:10437000CEE700BF38930020F8B50123744E754F87
:104380000546335418F00EFC3B781BB1724B1B787A
:10439000DA0741D4714C2278002A4ED1704B1F6845
:1043A0008FB3BB797BB36F4BF87AD3F800E050B38F
:1043B0003B46144609E0022966D1597BA94218D030
:1043C00001321A33D4B2A0421DD9197B0129F2D18E
:1043D000597BA942F4D11A2303FB0273DD7B012D23
:1043E00000F09E80022D00F09380002D00F0888068
:1043F000F8BD5D4B53F8251043F825E0AEEB010EF8
:10440000BEF1310F69D82846FDF704FF0028EFD030
:10441000BDE8F84017F0AABE524B544A1B68126818
:104420004E4C9B1A0E2BB6D92A4623785049514838
:1044300015F0FAFC2278002AB0D04F4B00261D70F0
:10444000267018F0AFFB3B78002BD1D0424B1B7885
:10445000DB07CDD5434B454A1B6812689B1A0E2BD0
:10446000C6D91121454818F01FFB334629460A22B8
:10447000404815F0E7FC0121414818F015FB3D4884
:10448000BDE8F84015F0B4BC032999D1597BA94285
:1044900003D093F80EC0AC4592D1735C002BB2D020
:1044A0001A2303FB0273997B715C0029ABD0DD7B7F
:1044B000012D35D0022D98D132498B5C83F0010358
:1044C0008B546BBB17F064FD2F4C00232F48304AF0
:1044D000FF21237003701170F8BD1A2303FB0273D0
:1044E0001B8A73458FD3284D2B7863BB274B002144
:1044F000274A204619701470BDE8F840FDF762BFE6
:10450000214E3378002BF1D017F042FD3570EDE7E6
:104510001C498B5C83F001038B54002BD2D0E2E763
:10452000194D2B7853B91A480122184B00210470F9
:1045300020461A70BDE8F840FDF744BF17F028FD8B
:1045400000232B70EFE717F023FD00232B70CDE73E
:10455000FC9100208C9C00208B9C00205E9C002005
:10456000FC920020189B00200C7C0020309C002036
:10457000AC1E002060440020679C0020C81E002064
:1045800094220020389000206D9C00206A9C00201E
:10459000DA4D002070B5044600257949FF2604F560
:1045A000EB634FF4407220302570C4F858374FF455
:1045B000687365702162A570A4F89823E570C4F84B
:1045C000A8032671A4F85C376671E5816562A5626F
:1045D000C4F87853C4F87C5384F89A5384F85E572F
:1045E000C4E9E055C4E9E255C4E9E4550FF082FAA4
:1045F000644B04F5EC6084F8855703F14C02C4F871
:104600006037C4F86457C4F86C27C4F86857C4F816
:10461000705784F87457C4F87857C4F87C57C4F8B6
:10462000805784F8845784F8865784F88757C4F8ED
:104630008857C4F88C57C4F89057C4F8945713F0AF
:10464000FDF9514B04F5F36084F81A5803F1580250
:10465000C4F89837A4F81C6804F50466C4F8A427C5
:10466000C4F89C57C4F8A057C4F8A85784F8AC57AE
:10467000C4F8B057C4F8B457C4F8C057C4F8C45706
:1046800084F8F65784F8F857C4F80458C4F8085862
:10469000C4F80C58C4F81058C4F81458A4F81858A2
:1046A00084F81B5884F82758C4F82858C4F82C58A4
:1046B000C4F83058C4F8345812F026FC334B40F29A
:1046C0000111012003F16C02C4F84038A4F87818F5
:1046D0002946C4F84C2803F1980284F87A0804F6B5
:1046E0008800C4F858284FF48072C4F84458C4F8BD
:1046F0004858C4F85058C4F85458C4F85C5884F862
:104700006058C4F86458C4F8685884F86C58C4F801
:104710007058C4F87458C4F87C58A4F8805884F8C9
:104720008258C4F884581BF00FFB00220023C6E90E
:104730005223C6E9542340F2FF320023C6E9562330
:10474000C4F8A059C4F8A459C4F8A859C4F8AC597D
:1047500016F020F8034684F8B4593046C4F8B0394E
:1047600084F8D55CA4F8D65CA4F8D85C10F028FADC
:10477000204684F8805DC4F80650C4F80A5070BD25
:10478000242F002060300020E43100201031002070
:1047900010B504460DF09EFD034A044BC4F8C02733
:1047A000C4F8C43710BD00BF19020000ED010000BD
:1047B00070B504460E460EF059FDFDF79FFCD4F887
:1047C000683794F88527003B02F0FF0518BF0123E6
:1047D00084F8803D0AB9284670BD94F887376FF099
:1047E0007E0204F5EC603370D4F888377F2BA8BFC5
:1047F0007F239342B8BF13467380D4F88C377F2B46
:10480000A8BF7F239342B8BF1346B380D4F8903734
:104810007F2BA8BF7F239342B8BF1346B37113F019
:1048200017F9284670BD00BF144A10B5137882B03E
:1048300008780C4683420DD0C0F300111070C0F30D
:10484000C003C0F340020091C0F3800100F00100FA
:1048500017F0ACFDB4F90200B4F9041094F9062085
:1048600000B939B1002349B240B202B0BDE81040EE
:1048700017F0C4BD002AF5D102B010BDDD4D0020F7
:1048800090F8800D704700BFD0F85408003818BF6A
:1048900001207047D0F8A007003818BF01207047EA
:1048A000012870B576D0831E0446012B33D9464DBE
:1048B00018F078F92B781BB1444B1B78DA071BD41E
:1048C000642015F013FF18F06DF92B789BB13F4B66
:1048D0001B78DB070FD53E4B3E4A1B6812689B1ABC
:1048E0000E2B08D90B213C4818F0DEF83B48BDE8F8
:1048F000704015F07DBA70BD354B364A1B681268A2
:104900009B1A0E2BDCD92521354818F0CDF83348F9
:1049100015F06EFAD4E7334B40F6020232485D6878
:10492000324905F00F05324E2843274D58609868EC
:1049300001400A439A600123337017F081F918F09F
:1049400031F92B78002BB3D0204B1B78D907AFD58A
:104950001F4B204A1B6812689B1A0E2BA8D90E21E8
:10496000244818F0A1F8244B032124488C4218BF96
:10497000184618F099F82121214818F095F81748A1
:1049800015F036FA35211F4818F08EF8134815F047
:104990002FFA8DE70C4D18F005F92B78002B87D0F6
:1049A0000A4B1B78D80783D5094B0A4A1B68126843
:1049B0009B1A0E2B7FF67CAF2321134818F074F856
:1049C000064815F015FA73E78C9C00208B9C00209C
:1049D000189B0020309C002010190020604400200B
:1049E000E8180020349C00200020800000F0FFFF29
:1049F0006F9C0020D8180020AC180020B0180020B0
:104A00001C19002040190020B4180020DFED327A74
:104A100040F2FF3120EE270A60EEA70ABDEEC00A81
:104A2000FDEEE00A10EE103A03F500732DE9F041B7
:104A30008B422A4E074610EE900AA8BF0B46B2687A
:104A400000F50074DFF89C8023EAE37322F0030290
:104A50008C4242EA1322F371A8BF0C4698F800106A
:104A6000B26024EAE47431B31D4B134043EA84037B
:104A7000B3600024012508E0336801341A43326032
:104A800089B1072C13D098F8001047FA04F305FAFF
:104A900004F0DB070246EFD43268013422EA000258
:104AA00032600029EDD117F0CBF8072CEBD1BDE82F
:104AB000F04117F0C5B817F0C3F8B268084B98F882
:104AC0000010134043EA8403B3600029D1D117F0EA
:104AD000B7F898F80010CCE70080FF43349C002022
:104AE00003F0FFFF6F9C00200B4610B5362800F244
:104AF0009782DFE810F08C0282027902700267026E
:104B00005E0255024C0243023A02310228021F02A1
:104B1000BF01B601AD01A4019B0192018901800191
:104B200077016E0165015C0153014A0141013801C1
:104B30002F0126011D0113010901FF00F500EB0003
:104B4000E100D700CD00C300B900AF00A5009B0075
:104B5000910087007D00730069005F0055004B00E5
:104B600041003700C84C0422C8493620C4F8D83068
:104B700016F0BCF8012010BDC34C0422C4493520F6
:104B8000C4F8D43016F0B2F8012010BDBE4C042297
:104B9000C0493420C4F8D03016F0A8F8012010BD68
:104BA000B94C0422BC493320C4F8CC3016F09EF82E
:104BB000012010BDB44C0422B8493220C4F8C830DA
:104BC00016F094F8012010BDAF4C0422B4493120F6
:104BD000C4F8C43016F08AF8012010BDAA4C042293
:104BE000B0493020C4F8C03016F080F8012010BD64
:104BF000A54C0422AC492F20C4F8BC3016F076F83E
:104C0000012010BDA04C0422A8492E20C4F8B830C1
:104C100016F06CF8012010BD9B4C0422A4492D20F5
:104C2000C4F8B43016F062F8012010BD964C04228E
:104C3000A0492C20C4F8B03016F058F8012010BD5F
:104C4000914C04229C492B20C4F8AC3016F04EF84D
:104C5000012010BD8C4C042298492A20C4F8A830A9
:104C600016F044F8012010BD874C042294492920F5
:104C7000C4F8A43016F03AF8012010BD824C04228A
:104C800090492820C4F8A03016F030F8012010BD5B
:104C90007D4C04228C492720C4F89C3016F026F85D
:104CA000012010BD784C042288492620C4F8983091
:104CB00016F01CF8012010BD734C042284492520F5
:104CC000C4F8943016F012F8012010BD6E4C042286
:104CD00080492420C4F8903016F008F8012010BD57
:104CE000694C04227C492320C4F88C3015F0FEFF67
:104CF000012010BD644C042278492220C4F8883079
:104D000015F0F4FF012010BD5F4C042274492120EE
:104D1000C4F8843015F0EAFF012010BD5A4C04227B
:104D200070492020C4F8803015F0E0FF012010BD4C
:104D3000554C04226C491F20E36715F0D7FF012072
:104D400010BD514C042269491E20A36715F0CEFF07
:104D5000012010BD4C4C042265491D20636715F0ED
:104D6000C5FF012010BD484C042262491C20236766
:104D700015F0BCFF012010BD434C04225E491B20EE
:104D8000E36615F0B3FF012010BD3F4C04225B49E0
:104D90001A20A36615F0AAFF012010BD3A4C042288
:104DA00057491920636615F0A1FF012010BD364C4C
:104DB000042254491820236615F098FF012010BDE5
:104DC000314C042250491720E36515F08FFF012074
:104DD00010BD2D4C04224D491620A36515F086FF09
:104DE000012010BD284C042249491520636515F0A7
:104DF0007DFF012010BD244C042246491420236568
:104E000015F074FF012010BD1F4C042242491320ED
:104E1000E36415F06BFF012010BD1B4C04223F49D9
:104E20001220A36415F062FF012010BD164C04226D
:104E30003B491120636415F059FF012010BD124C4D
:104E4000042238491020236415F050FF012010BDC2
:104E50000D4C042234490F20E36315F047FF012075
:104E600010BD094C042231490E20A36315F03EFF0A
:104E7000012010BD044C04222D490D20636315F060
:104E800035FF012010BD00BF38930020991E00009F
:104E9000091E00001923000089220000F9210000EA
:104EA00069210000D920000049200000B91F00003E
:104EB000291F0000791D0000E91C0000591C00009A
:104EC000C91B0000391B0000A91A0000191A0000B4
:104ED00089190000F918000069180000D9170000AE
:104EE00049170000B91600002D160000A11500009A
:104EF0001515000089140000FD1300007113000057
:104F0000E512000059120000CD110000411100000F
:104F1000B5100000291000009D0F0000110F0000C7
:104F2000850E0000F90D00006D0D0000E10C000081
:104F3000550C00003B4C04223B490C20236315F028
:104F4000D5FE012010BD374C042238490B20E36206
:104F500015F0CCFE012010BD324C042234490A2049
:104F6000A36215F0C3FE012010BD2E4C042231496E
:104F70000920636215F0BAFE012010BD294C0422FD
:104F80002D490820236215F0B1FE012010BD254CEB
:104F900004222A490720E36115F0A8FE012010BD74
:104FA000204C042226490620A36115F09FFE012013
:104FB00010BD1C4C042223490520636115F096FEA8
:104FC000012010BD0422174C1F491046236115F023
:104FD0008DFE012010BD134C04221C490320E36008
:104FE00015F084FE012010BD0E4C04221849022049
:104FF000A36015F07BFE012010BD04460948042281
:1050000014494360012015F071FE204610BD054C87
:10501000042211490020236015F068FE012010BD14
:10502000002010BD38930020C90B00003D0B00008C
:10503000B10A0000250A0000990900000D090000CE
:1050400081080000F507000069070000DD06000088
:1050500051060000C5050000390500002DE9F041AA
:105060000F46164604460221384615F0F9FB022188
:10507000304615F0F5FB224B3A0122483101DFF8AA
:105080008CC053F8028003EB0712C4F80080D2F8FA
:105090000CE003EB061259580023C4F808E0D2686C
:1050A0006361194BE26045681B686160ACFB033CBF
:1050B0004FF4FA634FEA9C4C03FB0CFC43685B1B08
:1050C0009C45FBD8D8F80030384609681EEA030F23
:1050D00014BF012300230A42214618BF43F00203F4
:1050E0002374FFF701FD0346214630462376FFF780
:1050F000FBFC227E0346204613442376BDE8F08164
:105100003C370020001000E06C43002083DE1B438E
:10511000022110B50446084615F0A2FB0221052025
:1051200015F09EFB022015F089FB0346052084F84C
:10513000203015F083FB002384F821006362E362D2
:1051400017F030FD0B4B1B789BB10B4B1B78DB072B
:105150000FD50A4B0A4A1B6812689B1A0E2B08D9F6
:105160002721084817F0A0FC0748BDE8104014F0BC
:105170003FBE10BD8C9C00208B9C0020189B002003
:10518000309C00203829002060440020A74AA8490C
:1051900030B5137E83B004460D68012B40F2928037
:1051A00072B6536962B6002B1846B8BFD81C80107F
:1051B0001AD072B6D3F1000C03F003010CF0030C0B
:1051C00058BFCCF10001516162B6226862B1B3F5FB
:1051D000007F06DA13F5007F40F31681404240B2AB
:1051E00001E06FF07E009047924A137E012B56D962
:1051F00072B6536962B6002B1846B8BFD81C80102F
:105200001AD072B6D3F1000C03F003010CF0030CBA
:1052100058BFCCF10001516162B6626862B1B3F56A
:10522000007F06DA13F5007F40F3EC80404240B285
:1052300001E06FF07E009047022015F0FFFA94F82D
:105240002030834203D0636AEB1A312B15D8052036
:1052500015F0F4FA94F8213083420CD0E36AEB1A8B
:10526000312B08D9E56200283FD101232563E56190
:10527000237684F8210003B030BD6562002848D051
:10528000A36A40F2DB52EB1A934240F2BF80E3681C
:1052900013B101909847019884F82000D7E772B6BF
:1052A000136891681B68194053681868D3681842DE
:1052B0005CD0137C03F0030309B143F0040343F013
:1052C000080359E072B6136891681B681940536867
:1052D0001868D36818421ED0137C03F0030309B189
:1052E00043F0040343F008031BE0534B00221B78F8
:1052F0002276002BBDD1236B40F2DB52EB1A934296
:1053000000F28E802369002BB3D00190984701985A
:10531000AFE7A562C0E7137C03F0030309B143F0D4
:1053200004039908013B11740D2B3FF63AAF01A11C
:1053300051F823F0FD330000F53300002D34000058
:10534000F5330000D331000025340000FD330000A8
:10535000FD33000025340000D3310000F533000098
:105360002D340000F5330000FD330000137C03F002
:10537000030309B143F004039908013B11740D2B99
:105380003FF637AF01A151F823F000BF0D34000004
:10539000053400001D3400000534000023320000F5
:1053A000153400000D3400000D34000015340000E9
:1053B00023320000053400001D34000005340000D5
:1053C0000D3400005369013B5361EBE6536901332F
:1053D0005361E7E65369013B53610BE753690133BE
:1053E000536107E75369023B536103E75369023393
:1053F0005361FFE65369023B5361D3E653690233BD
:105400005361CFE67F2016E77F20ECE60A4B1B783E
:10541000002B7FF441AFA368002B7FF43AAF3BE74A
:105420006369002B7FF471AF23E700BFBC910020BC
:10543000189B0020D8910020E24D002010B50121DA
:105440000A2015F00DFA01210A202B4C15F0CCF999
:105450000121252015F004FA0121252015F0C4F9B9
:105460000121072015F0FCF90121072015F0BCF9F6
:1054700000234FF48C72F021204614F091FA0121A0
:10548000204614F023FA0021204612F09FFD00224E
:105490004FF0FF3303212046E276636113F05AFB9D
:1054A000164B092216492046236114F03DFC0221C7
:1054B000204613F04FFB134B0F2213492046236164
:1054C00014F032FC17F06EFB104B1B789BB1104BA5
:1054D0001B78DB070FD50F4B0F4A1B6812689B1A0E
:1054E0000E2B08D916210D4817F0DEFA0C48BDE83E
:1054F000104014F07DBC10BD209B00203C005A00E1
:10550000CC1C00203C007D00D81C00208C9C00207E
:105510008B9C0020189B0020309C0020E81C002061
:105520006044002010B50121254C222015F098F987
:105530000121222015F058F900234FF48C72F0213C
:10554000204614F02DFA0121204614F0BFF9002165
:10555000204612F03BFD00226FF0F8230321204685
:10556000E276636113F0F6FA164B092216492046DB
:10557000236114F0D9FB0221204613F0EBFA134B00
:105580000B2213492046236114F0CEFB17F00AFBCF
:10559000104B1B789BB1104B1B78DB070FD50F4BC3
:1055A0000F4A1B6812689B1A0E2B08D916210D484A
:1055B00017F07AFA0C48BDE8104014F019BC10BD81
:1055C000A49B00203C005A00CC1C002054007D000D
:1055D000981D00208C9C00208B9C0020189B002094
:1055E000309C0020A41D0020604400200346084693
:1055F0001146062B10B582B014D90D2B08D90E3BDD
:10560000062B3AD8DFE803F035312F2418141000A8
:105610001D4C073B1D4A34F9133002B0BDE8104061
:105620001AF026BA1A4CF5E71A4B1B4A1B68F4E726
:105630001A4B1B4A1B78F0E71A4B93ED007A1A4A73
:10564000B7EEC77A8DED007B1AF012FA02B010BDEA
:10565000164B174A93ED007AB7EEC77A8DED007BB3
:105660001AF006FAF2E7134BE7E7134B134A1B88CD
:10567000D3E7134B114A1B88CFE7124A02B0BDE8AB
:1056800010401AF0F5B900BF0C9A002078190020DC
:10569000FC990020AC4A0020AC190020E14D00200C
:1056A000A41900209C4A00208C190020F8990020A1
:1056B00098190020A44A0020549C0020841900203E
:1056C000529C0020582E0020C1EB0111364A374B66
:1056D00049002DE9F0410746B3F9005092F9000066
:1056E0008CB27BB286B004F11802984292B253D0C9
:1056F000AF424DD0062F53D94FF6FF734FF6A04659
:105700000D2F88BF1E460023294D12B201931E2380
:105710000021284600934FF48C7313F0CDFCEE82E9
:10572000AE820221284604F11F0613F013FA042367
:1057300036B22B821F4B6E8253F82780B8F1000FD0
:1057400007D040461AF0A4FE41460246284614F00F
:10575000EBFA02A938460E22FFF748FF982302A869
:105760006E822B821AF094FE02A90246104814F0B1
:10577000DBFA04F1350242F204144FF48C7312B2D6
:1057800000210B48009413F02FFC06B0BDE8F08117
:1057900000264FF6FF73B7E700264FF4FC63B3E72C
:1057A00040F25F460023AFE7DF4D0020509C002011
:1057B000209B0020282100202DE9F04F2DED048BA7
:1057C0008FB0002800F01B8240F25F42914B924F55
:1057D0000292B3F80080914A0492049B00219A1E21
:1057E00003F10C04059232F9023F002BC3F10000D3
:1057F000B8BF03B29942B8BF1946A242F3D1642997
:1058000040F38C82C82940F30482B1F5967F9FED66
:10581000848ADFED847ACBBF4FF0FA094FF0960906
:105820004FF4FA764FF4967638FE278A7E4C0021A4
:1058300016254FF0CC0A204612F0C8FB00220F2399
:1058400020461146009501934FF48C7313F034FCFD
:105850000221204613F07EF9029B39460722E3829B
:105860002046A38241F6C307704B236114F05CFA13
:105870006F4B01212046636113F06CF96D4B6E4A4A
:1058800014211B6809A8009333461AF0F1F809A8FF
:105890001AF0FEFD082140F215130246618200EB6A
:1058A00040012046A3EB410309A9238214F03CFAEE
:1058B00040F641032A461C212046CDE900A3FA23E5
:1058C00013F0FAFB44F208237C221C2120460093AB
:1058D000FA2313F089FBFA2349221C212046009762
:1058E00013F082FBFA23AF221C212046009713F00D
:1058F0007BFB42F204132A461C2100932046FA2324
:1059000013F072FBB8F1000F04D04A4B1A684245FD
:1059100000F20A820121444813F01CF9474B484A1F
:105920000721636107A8334600251AF0A1F84FF458
:10593000B01307A89FED439A23614FF07C0A1AF039
:10594000A7FD07A90246384814F0EEF94B463C4A39
:10595000072107A8DFED3C9A1AF08AF84FF48A0372
:1059600007A8DFED3A8A23611AF092FD07A90246E3
:105970002D4814F0D9F9364B0222364923612A48C2
:1059800014F0D2F94B46344A072107A84FF01C09FE
:105990001AF06EF84FF42B0307A823611AF078FD74
:1059A00007A90246204814F0BFF933462A4A0721C6
:1059B00007A82E461AF05CF84FF45A0307A8236193
:1059C0001AF066FD07A90246174814F0ADF9234BFB
:1059D000012223492361144814F0A6F9154B214AEA
:1059E00014211B6809A81AF043F809A81AF050FD01
:1059F000E423024609A9638200EB40030A485B00E6
:105A0000C3F58B732382012414F08EF9064813F03A
:105A10006BFA41E0529C0020A80C0020FC99002069
:105A20000000FA4300009643A49B002009000300F5
:105A300018C618C6AC4A0020B80C00201084108488
:105A4000C80C0020000000000000CC420000F8421A
:105A500004007800CC0C0020D00C00201C00E400D6
:105A6000D41C0020D40C0020E12BA8BFE1231A464F
:105A70001FB205F11C030FFA83FB002C00F0988085
:105A800002354FF0000446F10006A5F1FC02324356
:105A900000F0DA80BA46D946AC4BFA221F680023E0
:105AA000A7FB050107FB061118F034F84045C0F0CC
:105AB000B680874240F2B380A0EB0800A7EB08074E
:105AC000B1EE086A049907EE900AF8EE676A07EEED
:105AD000907AB8EE677AC6EE877A67EE867ABDEE80
:105AE000E77A17EE102A17EE103A052AA8BF052309
:105AF00031F9130007EE103A01EB4303B8EEC77A11
:105B000005EE900AB3F90210F8EEE55A05EE101A08
:105B100077EEC77AB8EEC55A002A40F0838035EE9A
:105B2000654AB3F90430B6EE007A06EE103AB8EEE4
:105B3000C66A36EE656A26EE076A27EEA77AF0EEA9
:105B4000086AB0EE003A67EE874A67EE266AF7EE1B
:105B5000002AB0EE642AF0EE663AE4EEC36AA7EEDD
:105B6000432AD4EE833A34EEC77A77EE827A73EE24
:105B7000A24A67EE847AE5EEA47AE6EE857AE7EE4D
:105B8000067A67EEA97A87EE887A78EEC77AFDEE14
:105B9000E77A17EE903A1BB2152B3FF765AF162741
:105BA00005F11C033A460FFA83FB002C7FF468AF23
:105BB00094B2029B1FFA8AF16548621E0193039119
:105BC0005B4612B2013400924A1E494624B212B218
:105BD00012F078FA029B524649465D48CDE90073BF
:105BE0005B4612F06FFA039902985B464A1C4946DD
:105BF000CDE9004012B2564812F064FA40E74FF681
:105C0000A042544B544F0292544AB3F8008004927D
:105C1000E3E59FED538A4FF06409C82606E6F0EEEF
:105C2000497AB0E733F9021CB6EE007A042A04EE92
:105C3000101AB8EEC44A35EE444A24EE074A7FF7FC
:105C400070AF35EE656A78E74148254612F0F6FFF9
:105C50009FED449ADFED448A444E059F4CE001FBE2
:105C60000500191841F10001A6FB01CE2EF0010C30
:105C70000CEB5E0CA1EB0C015B1AA3FB061360F1AD
:105C80000000490806FB003341EAC3714144FA2091
:105C90000023A1FB000117F03DFF1C2140F215126B
:105CA000084403B21B2B03DD9342A8BF13461946D9
:105CB00037F9023F4FF6FF72254807EE103A00927F
:105CC0000423B8EEC77A27EE097AC7EE087A78EE91
:105CD000E77AFDEEE77A17EE902A12B2E12AA8BF22
:105CE000E122162AB8BF162212F066FC013445F1F3
:105CF0000005E31F2B430CD0144B1A68A2EB0801DC
:105D00004245A1FB0430AAD84146002ABFD11C213C
:105D1000CEE70FB0BDEC048BBDE8F08F9FED148A89
:105D20004FF03209642681E5FA210023A8FB010126
:105D300017F0F0FE1C3053462A4601B247F6EF300A
:105D40000090204613F0E6F8E4E500BFAC4A0020DE
:105D5000A49B0020549C0020B00C00200C9A002032
:105D6000000048430000CC420000F842ABAAAAAAB7
:105D70000000C8422DE9F04F844D91B000214FF052
:105D80000F0828464FF0FF3412F020F900221621A8
:105D90004FF48C73284609AE07AF4FF01B09CDE9CD
:105DA0000018114613F088F90221284612F0D2FE9D
:105DB000774B072277492846C5E9043413F0B4FF2E
:105DC000754B012128466B6112F0C4FE734B102203
:105DD000734928462B6113F0A7FF724B724AADF846
:105DE00020400024079293E8070086E8070001217D
:105DF000284612F0AFFE5C2321B216222846CDE9D8
:105E0000009813F059F937F8022B56F804ABA31C8D
:105E10001F21EA825046AA822B826982BAF1000FC2
:105E200006D01AF035FB51460246284613F07CFF97
:105E30005D3440F21713A4B29C42DCD15B4B0026C8
:105E40004FF01B0B514F0393594B0493594B059340
:105E500006EB460416F0010F40F6410A4FF05C03D2
:105E600004EBC40418BF4FF0000A00213846A4B266
:105E7000CDF800B0CDF804A05FFA86F804F131093E
:105E80003A340FFA89F924B24A4613F015F94A4B0D
:105E90004A4A40F25F411B7810784FF6FF72C3EB1D
:105EA000C3036C82434408F10E08DBB2834218BF7F
:105EB0000A460E210CA8EA82AA82039A32F9023F0E
:105EC0000093022303922B8233463D4A19F0D0FD02
:105ED0000CA81AF0DDFA0CA90246384613F024FF8C
:105EE0005C234A465D213846CDE900BA13F0E4F858
:105EF000049A0E210CA832F9023F6C820093314BB8
:105F000004926B615F23304A2B82334619F0B0FD57
:105F10000CA81AF0BDFA0CA90246384613F004FF8B
:105F20004A465D23BA213846CDF804A0CDF800B02A
:105F300013F0C2F84FF0FF330E225FFA88F06B6166
:105F4000BC230CA96C822B82FFF750FB059B53F8F6
:105F5000044F05933CB120461AF09AFA21460246B6
:105F6000384613F0E1FE3A21384612F057FD01366B
:105F70000CA81AF08DFA0CA90246384613F0D4FE8C
:105F8000072E7FF465AF11B0BDE8F08FA49B002011
:105F900009000300B81B002018C618C678000800C6
:105FA00080180020180A00205F04A0FCFA99002045
:105FB0000A9A00205C2100207B9C0020509C00203D
:105FC00094180020A0FCA0FCA018002010B5204CC4
:105FD0008AB0034608461146E268D4F808C0042B8C
:105FE00006922269CDF814C00792D4F814C0A269B1
:105FF000CDF820C0099225D8164C9A0003EB8303F4
:1060000004EB83031C69237873B102F12803124A5D
:106010006B4413ED057A0294B7EEC77A8DED007BE1
:1060200019F026FD0AB010BD02F128030B4A6B449B
:1060300013ED057AB7EEC77A8DED007B19F018FDE8
:106040000AB010BD064A0AB0BDE8104019F010BDF4
:10605000C0980020EC1E0020E81B0020E01B002060
:10606000582E0020C1EB011104284FEA41012DE90F
:10607000F0418CB286B004F1180292B259D80746AA
:10608000324B3349B3F900007BB291F900109942C9
:106090004BD0874240F2FF764FF6FF730CBF0026CD
:1060A00000232C4D12B201931E2300212846009399
:1060B0004FF48C7313F000F802212846EE82AE8272
:1060C00012F048FD042304F11F062B8236B2224B46
:1060D0006E8253F82780B8F1000F07D040461AF0BF
:1060E000D7F941460246284613F01EFE02A938465B
:1060F0000E22FFF76BFF982302A86E822B821AF004
:10610000C7F902A90246134813F00EFE04F1350246
:1061100042F204144FF48C7312B200210D48009423
:1061200012F062FF06B0BDE8F08100264FF4FC6378
:10613000B7E700211E204FF48C7312B2CDE90001A5
:10614000044812F0B9FF06B0BDE8F081509C002071
:10615000DF4D0020209B002014210020F0B50022FC
:1061600087B03C4C1F2118274FF0FF354FF48C733C
:1061700020460526CDE90071114612F09DFF02214F
:106180002046656112F0E6FC334B0322334923615C
:10619000204613F0C9FD324B0A22324923612046C2
:1061A00013F0C2FD01212046656112F0D3FC2E4B95
:1061B0000C212E4AB3F900300DEB0100009601339B
:1061C00019F056FC2A4B03A823611AF061F903A9C0
:1061D0000246204613F0A8FD264B274A1B6812688A
:1061E0009A421AD9254B1B88312B20D84FF478724C
:1061F0004FF48C732046009701920022114612F052
:106200005BFF02212046656112F0A4FC32461C4966
:106210001C4B1048236113F087FD0024E1B20134C8
:106220000846FFF71FFF072CF8D107B0F0BD00228A
:106230004FF400414FF48C732046019111460097B2
:1062400012F03AFF02212046656112F083FC07221A
:106250000D49DDE7209B002009000400AC18002058
:10626000410004006C0C0020509C0020780C0020A1
:10627000DE000A00189B0020349800204A9C002071
:106280005C0C002055000400640C0020614B1B785E
:10629000022B00F0A380002218204FF48C731146CB
:1062A000F0B55D4C89B00F254FF0FF36CDE9000504
:1062B00020465A4D12F000FF02212046666112F07E
:1062C00049FC574B032257492361204613F02CFD0C
:1062D0002B78002B7BD140F25F425349E282A282AD
:1062E000524A216152F823100846514F03911AF087
:1062F000CFF8039902464848072613F015FD0121FF
:106300004548676112F026FC2B78082104A8C3EBEE
:10631000431203EBC203474A128800961344464ACD
:106320000133DBB219F0A4FB444B04A823611AF03B
:10633000AFF804A90246384813F0F6FC02213648AB
:10634000676112F007FC2B783D4A0821013306A84B
:1063500019F08EFB3B4B06A823611AF099F806A9A9
:1063600002462D4813F0E0FC374B384A1B68126890
:106370009A421DD9364B1B88312B31D80022182365
:106380004FF478712448CDE9003111464FF48C73F5
:1063900012F092FE4FF0FF3302211F48636112F0AA
:1063A000D9FB05222B492C4B1B48236113F0BCFC65
:1063B0002D780024C5EBC505EDB2E1B201346818B3
:1063C000C0B2FFF781F9072CF7D109B0F0BD012B5E
:1063D0001CD0154B2149C4E9043685E7FFF7BEBE42
:1063E000002218234FF400410B48CDE9003111463B
:1063F0004FF48C7312F060FE4FF0FF330221064819
:10640000636112F0A7FB32461549CCE74FF6A04274
:1064100063E700BFE04D0020209B00207B9C002014
:1064200009000400BC1D002041000400C81D00201C
:1064300018C618C6509C0020780C0020A2000A0044
:10644000C01D0020DA000400189B002034980020B2
:106450004A9C00205C0C002055000400700C0020B9
:10646000640C00202DE9F04F564C8FB00021564FA0
:106470002046DFF8749111F0A9FD00221F2016219B
:106480004FF48C7348260025DFF860B1CDE9001089
:106490001146204612F010FE0221204612F05AFB4F
:1064A0004FF0FF3349490B222046C4E90413484901
:1064B00013F03AFC474B01212046636112F04AFB7E
:1064C000454B0E2245492046236113F02DFC4449DB
:1064D00015F0010F40F64103A6F10E02B1F90010CC
:1064E00018BF002324205FFA85F8A94212B25AD0BF
:1064F0000021CDE900034FF48C73204612F0DCFD3F
:1065000040F2FF7301212046E3820FFA86FAA3824C
:1065100012F020FB59F8041B04230135A4F812A043
:1065200008462382059131B119F0B2FF0599024660
:10653000204613F0F9FB0E2206A940462436FFF749
:1065400045FD822306A8A4F812A0238219F0A0FF1B
:1065500006A902462046143713F0E6FB17ED036A3E
:1065600017ED047A1021B7EEC66A5A46B7EEC77A1D
:106570000AA8B6B28DED026B8DED007B19F078FAAA
:10658000C323184A0AA823826261A4F812A019F052
:106590007FFF0AA90246204613F0C6FB052D96D1BF
:1065A0000FB0BDE8F08F242343F286112046CDE9D9
:1065B00000314FF48C73002112F07EFD4FF6FF7313
:1065C000A0E700BFA49B0020EC1E002009000300F0
:1065D000B41B002018C618C6B4000800C01B002059
:1065E000509C00204D6B4D6B14210020D01B0020CF
:1065F000094B1B78022B0CD0084B1B7833B1012BB5
:1066000001D0FFF7B7BB0020FFF7D6B80120FFF796
:10661000D3B8FFF727BF00BFE04D00207B9C0020D0
:1066200040F2DB5398422DE9F0470C4682B041D846
:106630004FF06408324B4FF48A75002208FB00F7D4
:10664000DFF8D89011462F48A3FB073A18234FEAEA
:106650005A1A05FB0AF5CDE90032A9FB05364FF4BD
:106660008C7312F029FD284B76099F423AD8CAEB69
:106670004A104000A9FB00904009C00240F4FC60B1
:1066800080B2632D24D8214A4FF6FF73204E01219A
:106690001C4D022C18BF164628466B6112F05AFAA0
:1066A0001C4B0622314628462B6102B0BDE8F0475C
:1066B00013F03ABB002218204FF48C734FF48A7603
:1066C000009011460F48019212F0F6FC4FF6802020
:1066D000102133B20422CDE900100221094812F042
:1066E000EBFCD0E756230C4803FB0A00B0FBF8F0A4
:1066F000C0F13F00C0B2400140F47840C1E700BFA4
:10670000F1197605209B0020D32A0100081C0020E7
:10671000101C00207A00080034EFFFFF1F85EB51AA
:10672000014B1888704700BF4A9C002010B50446F2
:106730000020214614F02EFA16F034FA114B1B7883
:10674000EBB1114B1B78DB0719D5104B104A1B68B6
:1067500012689B1A0E2B12D916210E4816F0A4F9B6
:10676000022C0DD00C480D4B032C18BF18461221DB
:1067700016F09AF90A48BDE8104013F039BB10BD75
:106780000848F4E78C9C00208B9C0020189B00207C
:10679000309C0020F4160020B8160020E0160020DF
:1067A00060440020CC160020494B986810F001008E
:1067B00010B525D114F0DEF80228044655D0032880
:1067C0006CD0042838D016F0EDF9424B1B7813B981
:1067D0000124204610BD404B1C7814F00104F7D072
:1067E0003E4B3F4A1B6812689B1A0E2BF0D91921A9
:1067F0003C4816F059F93C4813F0FAFA204610BD0F
:1068000001229A6016F0CEF9324B1B78002BDFD0B4
:10681000314B1C7814F00104DAD0304B304A1B683D
:1068200012689B1A0E2BD3D91E21304816F03CF962
:106830002D4813F0DDFACCE716F0B4F9254B1B78A0
:10684000002BC6D0244B1B78DB07C2D5234B244A30
:106850001B6812689B1A0E2BBBD91921244816F00D
:1068600023F9214813F0C4FAB3E716F09BF9194B4A
:106870001B78002BADD0184B1B78D907A9D5174B27
:10688000174A1B6812689B1A0E2BA2D919211948A6
:1068900016F00AF9144813F0ABFA9AE716F082F9E9
:1068A0000C4B1B78002B94D00B4B1B78DA0790D540
:1068B0000A4B0B4A1B6812689B1A0E2B89D91921A7
:1068C0000D4816F0F1F8084813F092FA81E700BF7E
:1068D00000800F408C9C00208B9C0020189B002087
:1068E000309C00205C0F002060440020E80E002057
:1068F000400F0020080F0020240F002038B54D2144
:10690000002232244923417094460470012483708C
:10691000431DC17000F13701047180F8372013F86E
:10692000012F99428CEA020CF9D1244C382204211F
:1069300080F805C014F0C8F92388214D0133238065
:1069400016F030F92B781BB11E4B1B78DA0704D4F4
:106950002388322B1AD0012038BD1B4B1B4A1B68E1
:1069600012689B1A0E2BF3D92B21194816F09CF8AC
:106970002188184813F030FA0121174816F094F8CE
:10698000144813F035FA2388322BE4D116F00AF9B3
:106990002B78002BDFD00B4B1B78DB07DBD50A4BAA
:1069A0000A4A1B6812689B1A0E2BD4D930210B4857
:1069B00016F07AF8074813F01BFACCE74A9C00203F
:1069C0008C9C00208B9C0020189B0020309C002079
:1069D00064170020604400209017002094170020C6
:1069E0002DE9F0418EB006466F463C46C7F10405DE
:1069F000601913F0BFFF0EAB04F8010B9C42F7D1F6
:106A0000AE4B009A9A4240F026819DF80430012B4B
:106A100040F0B4800DF105030DF13701002413F8A7
:106A2000012F8B4284EA0204F9D19DF80580444588
:106A300040F05E8104AA07F11E0132F8023F03F51F
:106A4000FA739BB2B3F57A7F00F28481D38903F5A0
:106A5000FA739BB2B3F57A7F00F2D6819142ECD102
:106A6000BDF8322040F6B8339A4200F20D81BDF8ED
:106A700034209A4200F20881DDF806309FED907ACA
:106A800007EE903AF4EEC77AF1EE10FA00F1A08129
:106A9000F2EE0E6AF4EEE67AF1EE10FA00F3988167
:106AA000DDF82E3007EE903AF5EEC07AF1EE10FAEE
:106AB00000F16E81F3EE046AF4EEE67AF1EE10FA7C
:106AC00000F36681DDF80A3007EE903AF4EEC77AFB
:106AD000F1EE10FA00F1B481B2EE0E7AF4EEC77A5C
:106AE000F1EE10FA00F3AC819DF83630053B5A2BDD
:106AF00000F2C281DDF80E3042F21C52A3F5FA73A7
:106B0000934200F2D5810CAD3C46103610370FCCC5
:106B1000AC4246F8100C46F80C1C46F8082C46F817
:106B2000043CF1D103CF3060716016F03BF8654B47
:106B30001B78002B00F04881634B1B78DB0740F18A
:106B40004381624B624A1B6812689B1A0E2B40F20B
:106B50003B811E215F4815F0A7FF00230A22012177
:106B60005D4813F06FF901215C4815F09DFF5A480C
:106B700013F03EF901200EB0BDE8F081514D16F042
:106B800011F82B788BB1504B1B78DC070DD54F4B90
:106B90004F4A1B6812689B1A0E2B06D931215048A8
:106BA00015F082FF4C4813F023F94D2332220024C4
:106BB00000217370F370012332704FF07E523371F5
:106BC0006FF07703C6F80620B3731323C6F80A20C4
:106BD0004622F37349237471B370C6F81240C6F8A5
:106BE0002E10C6F81640C6F81A40C6F81E40C6F861
:106BF0002240C6F82640C6F82A4086F8324086F879
:106C0000334086F8344086F83540347486F83620B0
:106C1000747486F8374015F0C5FF2B7803F0FF0039
:106C2000002BA8D0284B1B7813F0010300F09080B4
:106C3000264B274A1B6812689B1A0E2B40F2A6802F
