:0200000460009A
:100000004643464200000156000000000101020084
:1000100000000000000000000000000000000000E0
:1000200000000000000000000000000000000000D0
:1000300000000000000000000000000000000000C0
:1000400000000000010406010000000000000000A4
:100050000000800000000000000000000000000020
:100060000000000000000000000000000000000090
:100070000000000000000000000000000000000080
:10008000EB04180AFF1E04320126000000000000E5
:100090000000000000000000000000000000000060
:1000A0000000000000000000000000000000000050
:1000B0000000000000000000000000000000000040
:1000C0000000000000000000000000000000000030
:1000D0000000000000000000000000000000000020
:1000E0000000000000000000000000000000000010
:1000F0000000000000000000000000000000000000
:1001000000000000000000000000000000000000EF
:1001100000000000000000000000000000000000DF
:1001200000000000000000000000000000000000CF
:1001300000000000000000000000000000000000BF
:1001400000000000000000000000000000000000AF
:10015000000000000000000000000000000000009F
:10016000000000000000000000000000000000008F
:10017000000000000000000000000000000000007F
:10018000000000000000000000000000000000006F
:10019000000000000000000000000000000000005F
:1001A000000000000000000000000000000000004F
:1001B000000000000000000000000000000000003F
:1001C000000100000010000001000000000000001D
:1001D000000001000000000000000000000000001E
:1001E000000000000000000000000000000000000F
:1001F00000000000000000000000000000000000FF
:10020000FFFFFFFFFFFFFFFFFFFFFFFFFFFFFFFFFE
:10021000FFFFFFFFFFFFFFFFFFFFFFFFFFFFFFFFEE
:10100000D1002043F1150060000000000000000046
:101010002010006000100060003403600000000039
:10102000000000600040030000000000FFFFFFFF21
:10103000FFFFFFFFFFFFFFFFFFFFFFFFFFFFFFFFC0
:10104000FFFFFFFFFFFFFFFFFFFFFFFFFFFFFFFFB0
:10105000FFFFFFFFFFFFFFFFFFFFFFFFFFFFFFFFA0
:10106000FFFFFFFFFFFFFFFFFFFFFFFFFFFFFFFF90
:10140000824205D051F8043B40F8043B8242F9D8AF
:10141000704700BF044A05494FF0000342F8043BFF
:101420009142FBD8704700BFC05A002080A0002026
:1014300008B5BFF34F8F00F06FF9544C544B0820A0
:101440005449C3F85401544AC3F800115348C3F82F
:10145000F0405349FFF7D4FF524A53495348FFF72E
:10146000CFFF534CFFF7D6FF4FF470004FF0E02151
:101470000023504AC1F8880D44F823200133B02BD3
:10148000FAD14D4B80214D4A03F8011B9342FBD109
:101490004FF0E0254A4E4B4A4FF0FF31C5F8084D5A
:1014A000D5F8243D43F4E023C5F8243DF36923F047
:1014B0007F0343F04003F361736A23F07F0343F03B
:1014C000400373629166D1661167516700F02CF991
:1014D0003D4A3E4BA2636322E36300246A61032317
:1014E0003B4AAC612B61C5F8202DD5F8FC2D394B5A
:1014F00042F080723849C5F8FC2D1A6842F00102AA
:101500001A605B680B6000F0DFFA344800F064FC9E
:10151000F16E334B334A41F44051F1661C60C3F81D
:101520000841C3F81841C3F82841C3F83841936B08
:10153000DB0708D442F615632B4951651365936B9D
:1015400043F001039363274A284C936843F0011347
:10155000936000F077F900F05FF800F035FC00F0E0
:10156000E5FA00F0DBF82368132BFCD900F07AFBD6
:101570002368B3F5967FFBD300F0D4F800F0D0F8E1
:1015800000F02EFC00F030FC30BFFDE70C0D111315
:1015900000800D401B10182098B5020000000000CC
:1015A00004220060C05A0020A0D702600000002082
:1015B0000058002039F2010000E400E0A0E400E05F
:1015C00000C00F4000C00A40F9DE0100FDDE01004E
:1015D00000002020001000E0D09E00200046C32321
:1015E0000040084000400D400000C056D49E00203E
:1015F000054B4FF42A01054A05485A641864054A08
:1016000099639546FFF714FF00C00A40FFAFAAAAEE
:1016100007002000000005200F4B40F2376C0F4AF6
:10162000A020D96E41F44031D966D96E41F44071A1
:10163000D966C2F844C09064936C1B06FCD4084A77
:1016400040F23761A02351649364936C13F08003DC
:10165000FBD1044A1370704700C00F4000400C409B
:1016600000800C403BA00020294A00210123C2F841
:10167000A000C2F8A410C2F8B0305369D907FCD555
:1016800001234FF4803C22495361C2F8A000C2F804
:10169000A4C0C2F8B0304B69DB07FCD501234FF47E
:1016A000003C1B4A4B61C1F8A000C1F8A4C0C1F8BE
:1016B000B0305369D907FCD50123DFF858C014496D
:1016C0005361C2F8A000C2F8A4C0C2F8B0304B69A0
:1016D000DB07FCD5D1F8003145F60D504FF0210C59
:1016E0009AB2C1F814C0824210D045F69D518A4288
:1016F0000AD1C3F34253032B08D0A3F10403B3FA76
:1017000083F35B0918017047002070470820704779
:1017100000402A4004000300704700BF704700BF2C
:10172000704700BF00BF70474FF0E02300214FF02B
:10173000100C3448C3F8941DC3F89CCD4FF0110C25
:10174000C3F8A00D3048C3F89CCD4FF0120CC3F87D
:10175000A00D2E48C3F89CCD2D4AC3F8A00DDFF88C
:10176000D0C042F015022B48C3F89CCDC3F8A00DA1
:10177000DFF8C0C02848C3F89CCDC3F8A00DDFF83F
:10178000B8C0C3F89C2D2548254AC3F8A0CDC3F89E
:101790009C0DC3F8A02D02F5A022DFF8A0C00C32EA
:1017A0002048C3F89CCDC3F8A02D1F4AC3F89C0D58
:1017B000C3F8A02D02F14062DFF884C002321B485A
:1017C000C3F89CCDC3F8A02D0A32C3F89C0DC3F812
:1017D000A02D00BF00BF00BF00BF00BF0122C3F8A3
:1017E000942DBFF34F8FBFF36F8FC3F8501FBFF31C
:1017F0004F8FBFF36F8FD3F8142D42F44032C3F8EC
:10180000142D70473F000010250008070900100044
:1018100080A00020210002072500081316002020C8
:1018200027000B13180000602F000B071A00008020
:1018300013002000140000200900001017000040D1
:101840001900007030B5864B85B0DFF874E21822BD
:10185000844D0120C3F85CE28349C3F86052A5F5CA
:101860008055DFF860C2814CC3F864E2C3F8685267
:101870002125C3F86CC2C3F870C2C3F874C2C3F8A0
:1018800078C248F20C7CDA661A675A679A67DA6798
:10189000C3F88020C3F88420C3F88820C1F82C0343
:1018A000734AC1F83003C1F83403C1F83803C1F8F2
:1018B0003C03C1F85003A1696E4B0A406E486F4962
:1018C00013436F4AA361D4F8843043F00C03C4F887
:1018D00084304FF0FF34036843F002030360036871
:1018E00003EA0C031A43674B026044608A68664C43
:1018F0001340664A43F000538360C36823F07803C3
:10190000C360036A23401A43604B0262026A2240AA
:101910005F4C1343002243628462C46240F2056458
:10192000D1F8B83023F03F0343F00103C0F8B830DA
:10193000D1F8BC30574923F03F0343F00103C0F80E
:10194000BC3002610567C0F880404567C0F884403C
:101950000224036823F00203036081614E4B4F4968
:10196000C46143F8042B8B42FBD1434C236843F002
:1019700001032360256815F00105FBD145480222CB
:1019800040F2F561A06140F29940E26140F26642A6
:10199000C4F8001242F20141C4F81022404AC4F8CF
:1019A0002002C4F8302240F23542C4F834123D48D7
:1019B000C4F840223C4AC4F850022846C4F85422D5
:1019C00042F201223949C4F86012C4F86422FFF7D8
:1019D0004BFE0246002839D0810201234FF48020BB
:1019E00021662549C4F8A050C4F8A400C4F8B0305A
:1019F0004B69D807FCD515050124039228464C6194
:101A0000FFF732FE039A2A4B0244D2B21A7080B119
:101A1000194980024FF4802348660846C1F8A05057
:101A2000C1F8A430C1F8B0404369DB07FCD50123FD
:101A3000436120490024204801230094401A00EB10
:101A400002521E4800F0C4F905B030BD1B4B1849C6
:101A500018600870D860C3E9010005B030BD00BF50
:101A600000801F40F910010000841F4000C00F409B
:101A7000FFFCFF1F0003008000402A4000802A4036
:101A80001200FFFFFF37F70000FFF07C40000080EE
:101A9000FF000F83F05AF05A00422A4000432A40C8
:101AA0009F041830EB06180A063201263806180A79
:101AB0003CA000200000007000000070649C00202A
:101AC000F9B00100F970010010B5174A4FF48054C5
:101AD0004FF4005E4FF4404C4FF4803043F242012B
:101AE000136913F0020F0DD113F4005F0FD013F43C
:101AF000805F0FD0002BF3DA13F4803F0CD15B062C
:101B00000ED510BDC2F818C050619161E8E7C2F867
:101B100014E0E5E75461E3E74FF480339361DFE7D6
:101B200040235361DCE700BF00800D40414A0320A1
:101B30004149F3EE095AD2F880309FED406A23F014
:101B400001039FED3F5ADFF814C100B5C2F88030A1
:101B5000C2F89000D1F8E010DFF804E1CBB23948C8
:101B6000CEF8003007EE903A0B0DC1F30B21F8EEE2
:101B7000E77A06EE903A07EE101A334BB8EEC77AC2
:101B8000CCF80010F8EEE66A304937EEC66A37EE58
:101B9000C55A76EEC76A77EEE57A26EE266AC3ED79
:101BA000006A25EE265AD2F8803067EEA64AC0EDCC
:101BB000007AC6EE275A264885EE276AC4EEA76A41
:101BC00075EE875AFCEEE55A36EE076A15EE90CAB6
:101BD000BCEEC66A43EA0C5376EE877AC2F88030D0
:101BE00016EE103AD2F890C1FCEEE77A01EA034112
:101BF00041EA0C014FF0000C17EE903AC2F8901138
:101C0000C3F30B03D2F890110B431249C2F8903181
:101C1000D2F8803043F00203C2F880300E4B80F8D7
:101C200040C0C1F840314FF0E0230122C3F8082141
:101C300000BD00BF00810D4000441F400000AA42CB
:101C40000000B442449E0020489E00200000FF0F88
:101C500000E400E0005800201DF401003C9E00203C
:101C6000409E0020314B40F6617210B5C3F8202130
:101C700040F2044400F0A0F82D4A2E49D2F88030FA
:101C80002D4843F00303C2F880302C4BC1F860416B
:101C900002681A4203D1D1F8A8319A071BD0254A0D
:101CA0004FF00041244B5963D2F8403143F0020316
:101CB000C2F84031D2F840319B07FBD44FF40030DA
:101CC0004FF0E0211C4B4FF00042C1F88C0219206C
:101CD0009A6300F075F8184B0021164C4FF08042C3
:101CE0000A209A634FF480621960C4F8A80114486E
:101CF00000F05EF84FF4800203464FF4810040F29A
:101D000043111860C4F858311A640E4B0E4AC4F8D7
:101D10004811C3F804224FF0E0224FF400310123B0
:101D2000C2F80C11C4F8403110BD00BF00800D4056
:101D300000C00F4000002E4000900D40001C1E000F
:101D40000000002000580020D9F6010008B50E4B15
:101D50001B6E9B0700D4FBBE72B60C4B00200C4AD6
:101D6000C3F8400103F160430A49A3F55F231164FE
:101D70009D46BFF34F8F4FF40013074A0748DB69B6
:101D800002609B68984700BF00441F4000002E403F
:101D900000C00A4003002000000012EB0080202059
:101DA000F8B500BFF8BC08BC9E46704700000000B4
:101DB0005FF800F0794802005FF800F035FE01009E
:101DC0005FF800F03DE901005FF800F04516020001
:101DD0005FF800F0A91702005FF800F029E60100A3
:101DE0005FF800F0C94A02005FF800F08DF00100D2
:101DF0000501000019920000D13101005545010094
:081E00007962010049AB010009
:101E0800CDCCCC3D0AD7233C17B7D13877CC2B3271
:101E18009595E6241FB14F0A000020410000C842F2
:101E280000401C4620BCBE4CCA1B0E5AAEC59D7451
:101E38009A9999999999B93F7B14AE47E17A843F69
:101E48002D431CEBE2361A3F3A8C30E28E79453E40
:101E5800BC89D897B2D29C3C33A7A8D523F6493978
:101E68003DA7F444FD0FA5329D978CCF08BA5B259A
:101E7800436FAC642806C80A000000000000244034
:101E88000000000000005940000000000088C34026
:101E98000000000084D797410080E03779C34143B0
:101EA800176E05B5B5B89346F5F93FE9034F384DB8
:101EB800321D30F94877825A3CBF737FDD4F157564
:101EC8006CC00F40030000000E0D0000E9BB0100CC
:101ED8002A36000014000000130000000100000072
:101EE800F4841F402B32000014000000130000008F
:101EF80001000000F8841F402D310000140000008C
:101F08001300000001000000F0841F402CFFFF00B8
:101F180014000000000000000000000001000000A4
:101F280000000000EC841F400000000000000000DA
:101F38006CC00F4030000000100F0000E9BB01002A
:101F48000127000017000000120000000001000037
:101F580014851F401AFF0000120000000000000056
:101F68000100000018851F401BFF00001200000040
:101F7800000000000100000010851F400026FF003F
:101F8800170000001200000000000000010100001E
:101F9800010000000C851F400C851F400000000058
:101FA8006CC00F40C0000000504F0000BDBC0100D5
:101FB8000CFF0000130000000000000000000000FB
:101FC80024851F400BFF00001300000000000000E4
:101FD8000000000028851F400DFF000013000000CE
:101FE800000000000000000020851F400A25240092
:101FF800130000001200000012000000010203009C
:1020080000000000000000000000000000000000C8
:102018000901809611800A3A81550A3601082A0476
:10202800000000F02B040000014021800A13800A00
:1020380029800A003E0353006500720069006100B0
:102048006C002F004B006500790062006F00610092
:10205800720064002F004D006F007500730065006A
:102068002F004A006F007900730074006900630054
:102078006B00000018035400650065006E007300D3
:1020880079006400750069006E006F00040309049C
:102098000902AF00060100C032080B00020202016B
:1020A80000090400000102020100052400100105D6
:1020B8002401010104240206052406000107058203
:1020C8000310001009040100020A000000070503BC
:1020D80002400000070583024000000904020001D5
:1020E80003010100092111010001223F00070584B5
:1020F800030800010904030001030000000921117D
:10210800010001225400070586030800020904049F
:1021180000010300000009211101000122550007F8
:102128000587030C000109040500010300000009EC
:102138002111010001222800070585030800040079
:102148000902AF00060100C032080B0002020201BA
:102158000009040000010202010005240010010525
:102168002401010104240206052406000107058252
:102178000310000509040100020A00000007050316
:1021880002000200070583020002000904020001A0
:1021980003010100092111010001223F0007058404
:1021A80003080001090403000103000000092111CC
:1021B80001000122540007058603080002090404EF
:1021C8000001030000000921110100012255000748
:1021D8000587030C0001090405000103000000093C
:1021E80021110100012228000705850308000400C9
:0C21F8000A060002EF0201400100000096
:1022040000000000000000000000000000000000CA
:1022140000000000000000000000000000000000BA
:10222400F8B54FF084439D695A6915400DD0254F88
:1022340001269D6195FAA5F4B4FA84F457F8243084
:1022440006FA04F49847A543F4D11F4B9D695A69D3
:1022540015400DD01D4F01269D6195FAA5F4B4FAE1
:1022640084F457F8243006FA04F49847A543F4D1CB
:10227400174B9D695A6915400DD0164F01269D6173
:1022840095FAA5F4B4FA84F457F8243006FA04F461
:102294009847A543F4D1104B9D695A6915400DD058
:1022A4000E4F01269D6195FAA5F4B4FA84F457F80B
:1022B400243006FA04F49847A543F4D1BFF34F8FB2
:1022C400F8BD00BFF05100200040004270520020D1
:1022D40000800042F052002000C0004270530020F1
:1022E4000548064B1B1AD90F01EBA301491002D074
:1022F400034B03B118477047C05A0020C05A00204E
:102304000000000008B5054B1BB105490548AFF3B3
:102314000080BDE80840FFF7E3BF00BF00000000F5
:10232400EC9D002000400360704700BF704700BF71
:10233400704700BF00238382C0E90333704700BFA6
:10234400704700BF012A57D12DE9F04F85B00E9A8E
:10235400082A8CBF002201221AB1002005B0BDE872
:10236400F08FB1F81EE040F25E4CE645F5D193F8EB
:1023740005C0BCF1FF0FF0D193F806C0BCF1470FC4
:10238400EBD193F800C00E9C9C4423440CF1060E40
:102394007345E2D39346904692469146174603927C
:1023A4001A4604E0F4440CF1060E724526D39CF858
:1023B40000E0BEF1030F21D99CF80130052BF1D1C7
:1023C400BEF1060FEED99CF8033003F00303032B90
:1023D400E8D19CF902309CF80240002BBCF8045070
:1023E4009CF806602DDBB8F1000FDBD104F00F0878
:1023F400C5F30A0B0396D5E7002070473A46002F31
:10240400ABD04B460D4604460321402B2846CDF85D
:1024140004A028BF40230093012316F079FEE06056
:1024240000289AD0174A234604F13401C26340229B
:1024340016F0C6FAB8F1000F0BD1012318466375E4
:102444008CE7002FAED104F00F07C5F30A09B2469A
:10245400A8E75946039B42462846052901934FF0B5
:10246400000328BF05210091032116F051FE2346E5
:1024740020610028E1D004490522C163034916F014
:102484009FFADAE72506000041010000144E0020FF
:10249400F8B5274A274F92F8F66797F900303A784B
:1024A40036EA030519D0002402E00134082C0BD0CD
:1024B40025FA04F3DA07F8D51F4B33F81400013476
:1024C40020F08AF8082CF3D11C4B3A781B682A4375
:1024D4001B4932333A700B601346164204D0174A34
:1024E4001749126832320A6023EA060313F0FF0424
:1024F4005DB21BD0114B124A1B6812689B1A002B49
:1025040014DB002602E00136082E0BD024FA06F272
:10251400D307F8D5084B33F8160001361FF0B4FF83
:10252400082EF3D13B7823EA05033B70F8BD00BFC6
:10253400606800202AA0002014390020D49E0020C6
:102544009C930020562800B583B002D1074B00228B
:102554009A730190FFF79CFF054B1B6823B1019808
:1025640003B05DF804EB184703B000BD60680020B9
:1025740014950020562800B583B002D1074B0122E0
:102584009A730190FFF784FF054B1B6823B10198F0
:1025940003B05DF804EB184703B000BD6068002089
:1025A4000095002008B52DED028B9FED1D8A1D4975
:1025B40001201DF001FF07EE900AF8EEE77AC7EE5E
:1025C400888AF5EE408AF1EE10FAF0D01549002021
:1025D4001DF0F2FE07EE900AB0EE680AF8EEE77A14
:1025E400C7EE888A21F048FAF8EE007A20EE270A2E
:1025F400B5EE400AF1EE10FA0CD4B1EEC08A9FEDAC
:102604000A0A28EE800A21F02FFC20EE080ABDEC0D
:10261400028B08BD21F008FAB0EE408AEFE700BF54
:102624000024744941420F00DB0FC94008B52DED69
:10263400048B09EE900A9FED227A40F2E931214899
:10264400F8EE697A67EE807A87EE879A1DF0B4FE19
:1026540040F2E93108EE900A1A481DF0ADFE08EE8A
:10266400100A40F2E9311748F8EEE88A1DF0A4FE9A
:10267400B8EEC88A07EE100A9FED136A19EE902A85
:10268400B8EEC77ADFED116A38EE288A47F6FF7391
:1026940037EE087AC7EE067A67EE897ABDEC048BCA
:1026A40067EEA67AFDEEE77A17EE900A1044984298
:1026B400A8BF18460128B8BF012080B208BD00BFDA
:1026C4000000C84218FCFFFF00803B452DB25D406E
:1026D40030B500220B7989B0044658070692CDE93B
:1026E400042203F001024FEA822248BF42F0400272
:1026F4001D0748BF42F08002D80648BF42F00102DD
:102704009D0648BF42F00202580648BF42F0040248
:102714001B064B7948BF42F00802DD0648BF42F071
:102724001002980648BF42F020025D0648BF42F4FA
:102734008072180623EA930048BF42F4007220EA2C
:10274400D300C50762D403EAD300C00733D50123FD
:10275400009204F1180C0A89C88892014D89B1F8D5
:102764000EE080018DF818300023ADF80E20A5F599
:1027740000458A89AEF5004E098AADF80C00A2F531
:1027840000401A46A1F5004165F30F0301256EF3DD
:102794000F02EE4660F31F4361F31F42CDE901329D
:1027A400BEE80F00ACE80F009EE807008CE80700C5
:1027B400257509B030BD03F00105C3F340004FEAAD
:1027C400530C85F0010580F0010005EAD30E1EEAE2
:1027D400000F1FD10CEAD30E1EF0010F18D12CEA02
:1027E400930E2EEAD30E1EF0010F19D10CEA930CAE
:1027F4001CF0010F10D100EA930005420ED103EA48
:10280400930303F00103C3F10803A1E700239FE747
:1028140003239DE702239BE7052399E7062397E714
:10282400042395E7C36B2BB3826803F13401C2F32D
:102834000E422F3A112A18D993F83420202A14D1A1
:1028440093F837200E2A10D1184600B583B00191B1
:102854000093FFF73DFFDDE90031D86858B140220D
:1028640003B05DF804EB16F0ABB8D86810B14022A1
:1028740016F0A6B8704703B000BD00BF4378012B23
:1028840000F04081022B00F02081B0F89A306BB147
:1028940090ED057A07EE903AB0EEC77AFBEEEF7A48
:1028A400B4EEE77AF1EE10FA00F31381B0F89C303D
:1028B4006BB190ED067A07EE903AB0EEC77AFBEE74
:1028C400EF7AB4EEE77AF1EE10FA00F30281D0ED7C
:1028D400167A9FEDB87AF4EEC77AF1EE10FA00F3A7
:1028E400FC8090F84C30002B00F01881022B40F053
:1028F400128190ED147ADFEDAF7AB4EEE77AF1EE5F
:1029040010FA40F2E680F0EE407A034630B52DED41
:10291400028B90F828C01546A34A89B0BCF1020F77
:10292400126800F00C81BCF1030F00F04981BCF186
:10293400040F00F0B881D0ED026A9FED9E6AF4EEB8
:10294400C66AF1EE10FA23DD406C101A63281FD911
:102954009FED996A059186EE868A8DED037A02923F
:1029640001938DED040AFFF71DFE019B68EE006ADA
:10297400C3ED036AFFF716FE68EE006A0599DDED04
:10298400047A9DED037ADDE901325A64C3ED046AE9
:10299400D3F8CC0093ED316A121AB8EE466A06EE0B
:1029A400902AF8EE666AF4EEC66AF1EE10FA40F187
:1029B400888076EE666AC6EE865AF5EEC05AF1EE67
:1029C40010FA7ED993F86A00D3ED056A93ED065A9E
:1029D400C8B106EE100A9FED783AB3F86000B8EE7D
:1029E400466A93ED1B4AD3ED1C3AC6EE034A06EE43
:1029F400100AB8EE466A24EE844A64EEA34AE4EE72
:102A0400066AA6EE245A65EEA66A93F86B0065EE94
:102A1400855A66EE876A65EE875A93ED327AB8EE88
:102A2400476A26EEA77A65EEA77AC7EE066A87EEAE
:102A3400867A002840F0B78193ED026AF8FE666A50
:102A4400DFED5C7AB8FE477AB4EEE76AFDEEE66A3B
:102A5400BDEEC77AF1EE10FA16EE902A17EE100AC0
:102A64000A8028802DDDB1F90000F7EE005AD3ED7D
:102A7400036A07EE900A9FED516A76EEA56A93ED1C
:102A8400047AF8EEE77A37EE257AC6FE866A67EEB0
:102A9400A67A87FE067AF8FE677AFDEEE77A17EEE5
:102AA400903A0B80B5F9003007EE903AF8EEE77AE9
:102AB40067EE877AF8FE677AFDEEE77A17EE903ACA
:102AC4002B8009B0BDEC028B30BDC378002B7FF4A2
:102AD400DCAE002380F89830704790ED057AB0EEB4
:102AE400C77AF4EEC77AF1EE10FA7FF7FAAE90EDFA
:102AF400067AB0EEC77AF4EEC77AF1EE10FA7FF7F1
:102B0400F0AEE6E78378002BE3D0B0F89A30002BE0
:102B14003FF4CCAEBCE6B7EE007AF4E6F3EE0E6A10
:102B240090ED176AB7EE007AC6EE267AF4EEC77A0D
:102B3400F1EE10FA77FE277A37EE677ADBE6D0F803
:102B4400CC00D3F8C440101AA04280F0238193F83B
:102B54003000002840F08D8093F838000028B0D071
:102B6400D3ED0F6AD3ED107A93ED026A0020DFED06
:102B7400115A67EE266A67EE277A83F83800B4EEB6
:102B8400E56AF1EE10FA00F32581F8FE666AF8FEB4
:102B9400677AFDEEE66AFDEEE77A16EE903A17EEF6
:102BA400902A0B802A808CE7D49E0020000048C322
:102BB400000048436F12833A0000C842000000003E
:102BC400D0F8CC40A2EB040CD0F8C440A44549D2C0
:102BD40090F89800002840F0E180D3F88C0093F836
:102BE40089C0101A6045FFF46CAF93F88A0093ED26
:102BF400056AD3ED066A012827EE066AC3F88C201D
:102C040067EE266A38BF012007EE900A0138F8EE15
:102C1400675A83F8980086EE257AC6EEA57AB8FE40
:102C2400477ABDEEC77A17EE102AF8FE677AFDEEF2
:102C3400E77A0FFA82FC17EE902A07EE90CA10B2D8
:102C4400B8EEE77A07EE900A36EE476AF8EEE77ACE
:102C540083ED246A76EEE76AC3ED256AA1F800C025
:102C640028802EE7002380F8983009B0BDEC028B51
:102C740030BD5C6BA2EB040C8445FFF422AF93EDF2
:102C84000B5A5FED335AD3ED056AC5EE257A93ED01
:102C9400066A5A6367EEA66A67EE867AC3ED0F6A20
:102CA400C3ED107A60E790F8B80000283FF409AF4C
:102CB40093F89F201FED403A04EE902A93F8A02049
:102CC40093ED2B6AF8EE644A07EE902AD3ED295A65
:102CD400F8EE677AD3ED2C3A84EE834A93ED2A5AC0
:102CE4005FED4E6A27EE866A67EEA37AA4EE256A44
:102CF400E4EE057A26EE076A27EE877AB4EEE66AF2
:102D0400F1EE10FA07D45FED566AB4EEE66AF1EE1E
:102D140010FA76FE866A5FED5B7AB4EEE77AF1EE3E
:102D240010FA07D45FED5E7AB4EEE77AF1EE10FAAA
:102D340077FE877A93F86B00002840F0B78093ED14
:102D4400027A1FED646AB4EEC67AF1EE10FA74DC0E
:102D5400F8FE677AFDEEE77AF8FE666AFDEEE66A4B
:102D640017EE902A10B216EE902A0A8007EE900A07
:102D74002880B1F90020F8EEE77A07EE102A35EE44
:102D8400675AB8EEC77A83ED2A5A75EEC75AC3ED6F
:102D9400295A96E6002283F8382092E693ED246AB5
:102DA400D3ED256A30E727EE076A07EE900AF8EEBE
:102DB400677AA6EEA66AF1EEC65AF4EEE75AF1EE89
:102DC40010FA7FF739AE87EEA56A66EE866A27EEBB
:102DD400067A31E61FED887A069186EE078ACDEDF4
:102DE400057ACDED016AFFF7DDFB5FED8C5ADDED71
:102DF400016ACDED035AB7EE007AB0EE476A8DED65
:102E0400047AA8EE006A86FE256A66EE866ACDED2F
:102E1400026ACDED016AFFF7C5FB9DED047ADDED95
:102E2400035AA8EE007ADDED057A0699DDED016A14
:102E340087FE257A67EE877AA7E61FEDA16ACDEDB6
:102E4400057A87EE068ACDED016ACDE90631FFF7F2
:102E5400A9FBB7EE007A5FEDA74ADDED016AB0EE9B
:102E6400476A8DED047ACDED034AA8EE006A86FE2A
:102E7400246A66EE866ACDED026ACDED016AFFF73B
:102E840091FB9DED047A069BA8EE007ADDED034AE2
:102E9400DDED057AD3ED295A93ED2A5A0799DDED34
:102EA400016A87FE247A67EE877A51E727EEA76ADC
:102EB40007EE100AB8EE477AA6EEA66AF1EEC64A05
:102EC400F4EEC74AF1EE10FA7FF739AF87EE246AC1
:102ED40066EE866A67EE867A31E700BF2DE9F8432D
:102EE40005460F4600242F4E4FF00109DFF8BC8041
:102EF40014E0192A3AD9A0F11E02082A4AD927282F
:102F04004ED0A0F13A020B2A46D92838264AC0B23C
:102F140032F8100058BB0134072C25D025FA04F3ED
:102F2400DB07F8D5305D27FA04F3021F03F0010331
:102F3400D2B2E32ADDD91030C0B20428EBD809FAA2
:102F440000F098F80020C0B2C3B140EA02039043F5
:102F5400E1D088F80030002301341A461946184697
:102F64001FF07EFC072CD9D1BDE8F8835D3013B186
:102F74001FF032FBCFE71FF087FACCE71042CAD02C
:102F840022EA00021946184688F800201A461FF063
:102F940067FCC0E71330EAE7A0F5805080B2E6E7AB
:102FA4003020E4E7949C0020180A002052A000205E
:102FB40010B5044682B049B10846019124F0E0F806
:102FC40023680246019920465B689847204602B070
:102FD400BDE810401DF006B930B501EB8103324C59
:102FE4004FF01A0C83B022680CFB003313449B7C13
:102FF400002B42D00546181F192834D9A3F11E000E
:10300400082841D9272B4CD0A3F13A000B2844D9E6
:10301400283BDBB2BF2B3AD91346D3F8073001EB78
:103024008100DFED227A00EE103A214BB4EEE70A7C
:103034001C681A2303FB0500F1EE10FA0244B2F8EF
:1030440013000ED420B10091FFF7F0FA0099044464
:10305400184A1948194B1170012204601A7003B000
:1030640030BD0444F4E703F15D00CDE900211FF015
:10307400B3FA2368DDE90021CFE70E4B197003B0E2
:10308400BDE8304000F01EB803F11300EDE70C4832
:1030940030F813000028BFD0E7E7A3F5805398B2B7
:1030A400E3E73020E1E700BF8C9600200AD7233CF9
:1030B400D49E00202CA00020DC93002030A000200F
:1030C400180A002000B5DFF884E083B09EF80010F1
:1030D4000131C9B2032919D8194B01EB81021B68CC
:1030E40013441A2202FB003303E05FFA8CF1042933
:1030F4000CD09A7C01F1010C0533002AF5D08EF82E
:10310400001003B05DF804EBFFF766BF0D4A1378B7
:103114003BB100218EF8001003B05DF804EBFFF71B
:103124005BBF01931FF070F9019BFF20DFF820C003
:103134000549044A8CF800301370087003B000BDD0
:103144008C9600202BA000201A5500202CA00020D3
:1031540030A000202DE9F0417C4F00237C4D82B04B
:10316400396804462B5411B18B79002B52D1794A1A
:10317400137813B1A34200F0C780774B196859B391
:103184008B794BB3C87A38B3744D002395F800C0DB
:1031940009E0032A03D1CA7B012A00F09E809842E9
:1031A40001F11A0118D0DAB201339445F7D10A7B40
:1031B400012AEED1CA7B012AF1D14A7BA242EED187
:1031C4001FF022F900236648FF22664903700B7042
:1031D4002A7002B0BDE8F081231F192B40F28680CB
:1031E400A4F11E03082B40F28880272C00F099805C
:1031F400A4F13A030B2B40F28C80A4F12803DBB238
:10320400BF2BE6D8584A32F81300002870D102B018
:10321400BDE8F081554B1B78002BA8D191F807C06D
:10322400BCF1000FA3D0012301F1080E01F109083C
:103234000FE0A64203D12E5C002E00F08580082BFF
:1032440018BF944503F101038CBF01220022002A18
:103254008DD01EF82300DAB20028F0D018F82360CD
:10326400002EECD0A042E4D1A85D08B1A642E6D17C
:103274005D1E331F192B56D9A6F11E03082B5AD9EC
:10328400272E5FD0A6F13A030B2B57D9A6F12803BA
:10329400DBB2BF2B04D8344A32F81300002844D1DF
:1032A4000A46AB1CDFED327A01EB830331490E7021
:1032B4009268D88800EE102A2F4AB4EEE70A1568FF
:1032C400F1EE10FA02D410B1FFF7B0F905442B4A1D
:1032D40001231560254A137049E74A7BA2423FF453
:1032E4006FAF8A7BA2427FF45AAF69E704F15D00B5
:1032F40002B0BDE8F0411FF0C7B804F1130002B0FA
:10330400BDE8F0411FF0C0B80023137002B0BDE85F
:10331400F081A4F58054A0B202B0BDE8F0411FF0E2
:10332400B3B83020E4E706F15D0001911FF054F9D1
:103334003A680199B5E706F11300F6E7A6F580505F
:1033440080B2F2E73020F0E7064691E7EC7E0020F9
:103354008C95002025A000208C9600201A55002072
:1033640030A000202BA00020180A00202DA000204F
:103374000AD7233C26A00020D49E0020848300206A
:103384001D4BD3F8D82010689168006810B4084227
:10339400137C546814BF0121002103F00303D4F803
:1033A40000C0D06843EA81031CEA000F43F008011F
:1033B40018BF0B469908013B11740D2B0BD8DFE89D
:1033C40003F0110C070C0A161111160A0C070C1144
:1033D40053690233536110BC70475369013B10BCFD
:1033E400536170475369013310BC5361704753698B
:1033F400023B10BC53617047E89600201D4BD3F884
:10340400D42010689168006810B40842137C546892
:1034140014BF0121002103F00303D4F800C0D068D5
:1034240043EA81031CEA000F43F0080118BF0B466E
:103434009908013B11740D2B0BD8DFE803F0110C34
:10344400070C0A161111160A0C070C1153690233E2
:10345400536110BC70475369013B10BC5361704702
:103464005369013310BC536170475369023B10BC6C
:1034740053617047E89600201D4BD3F8D0201068A4
:103484009168006810B40842137C546814BF012189
:10349400002103F00303D4F800C0D06843EA810399
:1034A4001CEA000F43F0080118BF0B469908013BC2
:1034B40011740D2B0BD8DFE803F0110C070C0A165E
:1034C4001111160A0C070C1153690233536110BC15
:1034D40070475369013B10BC536170475369013312
:1034E40010BC536170475369023B10BC5361704771
:1034F400E89600201D4BD3F8CC2010689168006832
:1035040010B40842137C546814BF0121002103F055
:103514000303D4F800C0D06843EA81031CEA000F17
:1035240043F0080118BF0B469908013B11740D2B99
:103534000BD8DFE803F0110C070C0A161111160A58
:103544000C070C1153690233536110BC7047536963
:10355400013B10BC536170475369013310BC536184
:1035640070475369023B10BC53617047E8960020D2
:103574001D4BD3F8C82010689168006810B4084245
:10358400137C546814BF0121002103F00303D4F811
:1035940000C0D06843EA81031CEA000F43F008012D
:1035A40018BF0B469908013B11740D2B0BD8DFE8AB
:1035B40003F0110C070C0A161111160A0C070C1152
:1035C40053690233536110BC70475369013B10BC0B
:1035D400536170475369013310BC53617047536999
:1035E400023B10BC53617047E89600201D4BD3F892
:1035F400C42010689168006810B40842137C5468B1
:1036040014BF0121002103F00303D4F800C0D068E3
:1036140043EA81031CEA000F43F0080118BF0B467C
:103624009908013B11740D2B0BD8DFE803F0110C42
:10363400070C0A161111160A0C070C1153690233F0
:10364400536110BC70475369013B10BC5361704710
:103654005369013310BC536170475369023B10BC7A
:1036640053617047E89600201D4BD3F8C0201068C2
:103674009168006810B40842137C546814BF012197
:10368400002103F00303D4F800C0D06843EA8103A7
:103694001CEA000F43F0080118BF0B469908013BD0
:1036A40011740D2B0BD8DFE803F0110C070C0A166C
:1036B4001111160A0C070C1153690233536110BC23
:1036C40070475369013B10BC536170475369013320
:1036D40010BC536170475369023B10BC536170477F
:1036E400E89600201D4BD3F8BC2010689168006850
:1036F40010B40842137C546814BF0121002103F064
:103704000303D4F800C0D06843EA81031CEA000F25
:1037140043F0080118BF0B469908013B11740D2BA7
:103724000BD8DFE803F0110C070C0A161111160A66
:103734000C070C1153690233536110BC7047536971
:10374400013B10BC536170475369013310BC536192
:1037540070475369023B10BC53617047E8960020E0
:103764001D4BD3F8B82010689168006810B4084263
:10377400137C546814BF0121002103F00303D4F81F
:1037840000C0D06843EA81031CEA000F43F008013B
:1037940018BF0B469908013B11740D2B0BD8DFE8B9
:1037A40003F0110C070C0A161111160A0C070C1160
:1037B40053690233536110BC70475369013B10BC19
:1037C400536170475369013310BC536170475369A7
:1037D400023B10BC53617047E89600201D4BD3F8A0
:1037E400B42010689168006810B40842137C5468CF
:1037F40014BF0121002103F00303D4F800C0D068F2
:1038040043EA81031CEA000F43F0080118BF0B468A
:103814009908013B11740D2B0BD8DFE803F0110C50
:10382400070C0A161111160A0C070C1153690233FE
:10383400536110BC70475369013B10BC536170471E
:103844005369013310BC536170475369023B10BC88
:1038540053617047E89600201D4BD3F8B0201068E0
:103864009168006810B40842137C546814BF0121A5
:10387400002103F00303D4F800C0D06843EA8103B5
:103884001CEA000F43F0080118BF0B469908013BDE
:1038940011740D2B0BD8DFE803F0110C070C0A167A
:1038A4001111160A0C070C1153690233536110BC31
:1038B40070475369013B10BC53617047536901332E
:1038C40010BC536170475369023B10BC536170478D
:1038D400E89600201D4BD3F8AC201068916800686E
:1038E40010B40842137C546814BF0121002103F072
:1038F4000303D4F800C0D06843EA81031CEA000F34
:1039040043F0080118BF0B469908013B11740D2BB5
:103914000BD8DFE803F0110C070C0A161111160A74
:103924000C070C1153690233536110BC704753697F
:10393400013B10BC536170475369013310BC5361A0
:1039440070475369023B10BC53617047E8960020EE
:103954001D4BD3F8A82010689168006810B4084281
:10396400137C546814BF0121002103F00303D4F82D
:1039740000C0D06843EA81031CEA000F43F0080149
:1039840018BF0B469908013B11740D2B0BD8DFE8C7
:1039940003F0110C070C0A161111160A0C070C116E
:1039A40053690233536110BC70475369013B10BC27
:1039B400536170475369013310BC536170475369B5
:1039C400023B10BC53617047E89600201D4BD3F8AE
:1039D400A42010689168006810B40842137C5468ED
:1039E40014BF0121002103F00303D4F800C0D06800
:1039F40043EA81031CEA000F43F0080118BF0B4699
:103A04009908013B11740D2B0BD8DFE803F0110C5E
:103A1400070C0A161111160A0C070C11536902330C
:103A2400536110BC70475369013B10BC536170472C
:103A34005369013310BC536170475369023B10BC96
:103A440053617047E89600201D4BD3F8A0201068FE
:103A54009168006810B40842137C546814BF0121B3
:103A6400002103F00303D4F800C0D06843EA8103C3
:103A74001CEA000F43F0080118BF0B469908013BEC
:103A840011740D2B0BD8DFE803F0110C070C0A1688
:103A94001111160A0C070C1153690233536110BC3F
:103AA40070475369013B10BC53617047536901333C
:103AB40010BC536170475369023B10BC536170479B
:103AC400E89600201D4BD3F89C201068916800688C
:103AD40010B40842137C546814BF0121002103F080
:103AE4000303D4F800C0D06843EA81031CEA000F42
:103AF40043F0080118BF0B469908013B11740D2BC4
:103B04000BD8DFE803F0110C070C0A161111160A82
:103B14000C070C1153690233536110BC704753698D
:103B2400013B10BC536170475369013310BC5361AE
:103B340070475369023B10BC53617047E8960020FC
:103B44001D4BD3F8982010689168006810B408429F
:103B5400137C546814BF0121002103F00303D4F83B
:103B640000C0D06843EA81031CEA000F43F0080157
:103B740018BF0B469908013B11740D2B0BD8DFE8D5
:103B840003F0110C070C0A161111160A0C070C117C
:103B940053690233536110BC70475369013B10BC35
:103BA400536170475369013310BC536170475369C3
:103BB400023B10BC53617047E89600201D4BD3F8BC
:103BC400942010689168006810B40842137C54680B
:103BD40014BF0121002103F00303D4F800C0D0680E
:103BE40043EA81031CEA000F43F0080118BF0B46A7
:103BF4009908013B11740D2B0BD8DFE803F0110C6D
:103C0400070C0A161111160A0C070C11536902331A
:103C1400536110BC70475369013B10BC536170473A
:103C24005369013310BC536170475369023B10BCA4
:103C340053617047E89600201D4BD3F8902010681C
:103C44009168006810B40842137C546814BF0121C1
:103C5400002103F00303D4F800C0D06843EA8103D1
:103C64001CEA000F43F0080118BF0B469908013BFA
:103C740011740D2B0BD8DFE803F0110C070C0A1696
:103C84001111160A0C070C1153690233536110BC4D
:103C940070475369013B10BC53617047536901334A
:103CA40010BC536170475369023B10BC53617047A9
:103CB400E89600201D4BD3F88C20106891680068AA
:103CC40010B40842137C546814BF0121002103F08E
:103CD4000303D4F800C0D06843EA81031CEA000F50
:103CE40043F0080118BF0B469908013B11740D2BD2
:103CF4000BD8DFE803F0110C070C0A161111160A91
:103D04000C070C1153690233536110BC704753699B
:103D1400013B10BC536170475369013310BC5361BC
:103D240070475369023B10BC53617047E89600200A
:103D34001D4BD3F8882010689168006810B40842BD
:103D4400137C546814BF0121002103F00303D4F849
:103D540000C0D06843EA81031CEA000F43F0080165
:103D640018BF0B469908013B11740D2B0BD8DFE8E3
:103D740003F0110C070C0A161111160A0C070C118A
:103D840053690233536110BC70475369013B10BC43
:103D9400536170475369013310BC536170475369D1
:103DA400023B10BC53617047E89600201D4BD3F8CA
:103DB400842010689168006810B40842137C546829
:103DC40014BF0121002103F00303D4F800C0D0681C
:103DD40043EA81031CEA000F43F0080118BF0B46B5
:103DE4009908013B11740D2B0BD8DFE803F0110C7B
:103DF400070C0A161111160A0C070C115369023329
:103E0400536110BC70475369013B10BC5361704748
:103E14005369013310BC536170475369023B10BCB2
:103E240053617047E89600201D4BD3F8802010683A
:103E34009168006810B40842137C546814BF0121CF
:103E4400002103F00303D4F800C0D06843EA8103DF
:103E54001CEA000F43F0080118BF0B469908013B08
:103E640011740D2B0BD8DFE803F0110C070C0A16A4
:103E74001111160A0C070C1153690233536110BC5B
:103E840070475369013B10BC536170475369013358
:103E940010BC536170475369023B10BC53617047B7
:103EA400E89600201D4BDA6F10689168006810B422
:103EB4000842137C546814BF0121002103F003035A
:103EC400D4F800C0D06843EA81031CEA000F43F031
:103ED400080118BF0B469908013B11740D2B0BD830
:103EE400DFE803F0110C070C0A161111160A0C076F
:103EF4000C1153690233536110BC70475369013B81
:103F040010BC536170475369013310BC536170474F
:103F14005369023B10BC5361704700BFE896002010
:103F24001D4B9A6F10689168006810B40842137CA6
:103F3400546814BF0121002103F00303D4F800C026
:103F4400D06843EA81031CEA000F43F0080118BF5C
:103F54000B469908013B11740D2B0BD8DFE803F0D5
:103F6400110C070C0A161111160A0C070C115369CF
:103F74000233536110BC70475369013B10BC536159
:103F840070475369013310BC536170475369023B56
:103F940010BC5361704700BFE89600201D4B5A6F58
:103FA40010689168006810B40842137C546814BF08
:103FB4000121002103F00303D4F800C0D06843EAD0
:103FC40081031CEA000F43F0080118BF0B4699084F
:103FD400013B11740D2B0BD8DFE803F0110C070C17
:103FE4000A161111160A0C070C1153690233536196
:103FF40010BC70475369013B10BC5361704753694F
:10400400013310BC536170475369023B10BC5361C8
:10401400704700BFE89600201D4B1A6F1068916826
:10402400006810B40842137C546814BF01210021B5
:1040340003F00303D4F800C0D06843EA81031CEA08
:10404400000F43F0080118BF0B469908013B117497
:104054000D2B0BD8DFE803F0110C070C0A16111115
:10406400160A0C070C1153690233536110BC7047D4
:104074005369013B10BC536170475369013310BC51
:10408400536170475369023B10BC5361704700BFD2
:10409400E89600201D4BDA6E10689168006810B431
:1040A4000842137C546814BF0121002103F0030368
:1040B400D4F800C0D06843EA81031CEA000F43F03F
:1040C400080118BF0B469908013B11740D2B0BD83E
:1040D400DFE803F0110C070C0A161111160A0C077D
:1040E4000C1153690233536110BC70475369013B8F
:1040F40010BC536170475369013310BC536170475E
:104104005369023B10BC5361704700BFE89600201E
:104114001D4B9A6E10689168006810B40842137CB5
:10412400546814BF0121002103F00303D4F800C034
:10413400D06843EA81031CEA000F43F0080118BF6A
:104144000B469908013B11740D2B0BD8DFE803F0E3
:10415400110C070C0A161111160A0C070C115369DD
:104164000233536110BC70475369013B10BC536167
:1041740070475369013310BC536170475369023B64
:1041840010BC5361704700BFE89600201D4B5A6E67
:1041940010689168006810B40842137C546814BF16
:1041A4000121002103F00303D4F800C0D06843EADE
:1041B40081031CEA000F43F0080118BF0B4699085D
:1041C400013B11740D2B0BD8DFE803F0110C070C25
:1041D4000A161111160A0C070C11536902335361A4
:1041E40010BC70475369013B10BC5361704753695D
:1041F400013310BC536170475369023B10BC5361D7
:10420400704700BFE89600201D4B1A6E1068916835
:10421400006810B40842137C546814BF01210021C3
:1042240003F00303D4F800C0D06843EA81031CEA16
:10423400000F43F0080118BF0B469908013B1174A5
:104244000D2B0BD8DFE803F0110C070C0A16111123
:10425400160A0C070C1153690233536110BC7047E2
:104264005369013B10BC536170475369013310BC5F
:10427400536170475369023B10BC5361704700BFE0
:10428400E89600201D4BDA6D10689168006810B440
:104294000842137C546814BF0121002103F0030376
:1042A400D4F800C0D06843EA81031CEA000F43F04D
:1042B400080118BF0B469908013B11740D2B0BD84C
:1042C400DFE803F0110C070C0A161111160A0C078B
:1042D4000C1153690233536110BC70475369013B9D
:1042E40010BC536170475369013310BC536170476C
:1042F4005369023B10BC5361704700BFE89600202D
:104304001D4B9A6D10689168006810B40842137CC4
:10431400546814BF0121002103F00303D4F800C042
:10432400D06843EA81031CEA000F43F0080118BF78
:104334000B469908013B11740D2B0BD8DFE803F0F1
:10434400110C070C0A161111160A0C070C115369EB
:104354000233536110BC70475369013B10BC536175
:1043640070475369013310BC536170475369023B72
:1043740010BC5361704700BFE89600201D4B5A6D76
:1043840010689168006810B40842137C546814BF24
:104394000121002103F00303D4F800C0D06843EAEC
:1043A40081031CEA000F43F0080118BF0B4699086B
:1043B400013B11740D2B0BD8DFE803F0110C070C33
:1043C4000A161111160A0C070C11536902335361B2
:1043D40010BC70475369013B10BC5361704753696B
:1043E400013310BC536170475369023B10BC5361E5
:1043F400704700BFE89600201D4B1A6D1068916845
:10440400006810B40842137C546814BF01210021D1
:1044140003F00303D4F800C0D06843EA81031CEA24
:10442400000F43F0080118BF0B469908013B1174B3
:104434000D2B0BD8DFE803F0110C070C0A16111131
:10444400160A0C070C1153690233536110BC7047F0
:104454005369013B10BC536170475369013310BC6D
:10446400536170475369023B10BC5361704700BFEE
:10447400E89600201D4BDA6C10689168006810B44F
:104484000842137C546814BF0121002103F0030384
:10449400D4F800C0D06843EA81031CEA000F43F05B
:1044A400080118BF0B469908013B11740D2B0BD85A
:1044B400DFE803F0110C070C0A161111160A0C0799
:1044C4000C1153690233536110BC70475369013BAB
:1044D40010BC536170475369013310BC536170477A
:1044E4005369023B10BC5361704700BFE89600203B
:1044F4001D4B9A6C10689168006810B40842137CD4
:10450400546814BF0121002103F00303D4F800C050
:10451400D06843EA81031CEA000F43F0080118BF86
:104524000B469908013B11740D2B0BD8DFE803F0FF
:10453400110C070C0A161111160A0C070C115369F9
:104544000233536110BC70475369013B10BC536183
:1045540070475369013310BC536170475369023B80
:1045640010BC5361704700BFE89600201D4B5A6C85
:1045740010689168006810B40842137C546814BF32
:104584000121002103F00303D4F800C0D06843EAFA
:1045940081031CEA000F43F0080118BF0B46990879
:1045A400013B11740D2B0BD8DFE803F0110C070C41
:1045B4000A161111160A0C070C11536902335361C0
:1045C40010BC70475369013B10BC53617047536979
:1045D400013310BC536170475369023B10BC5361F3
:1045E400704700BFE89600201D4B1A6C1068916854
:1045F400006810B40842137C546814BF01210021E0
:1046040003F00303D4F800C0D06843EA81031CEA32
:10461400000F43F0080118BF0B469908013B1174C1
:104624000D2B0BD8DFE803F0110C070C0A1611113F
:10463400160A0C070C1153690233536110BC7047FE
:104644005369013B10BC536170475369013310BC7B
:10465400536170475369023B10BC5361704700BFFC
:10466400E89600201D4BDA6B10689168006810B45E
:104674000842137C546814BF0121002103F0030392
:10468400D4F800C0D06843EA81031CEA000F43F069
:10469400080118BF0B469908013B11740D2B0BD868
:1046A400DFE803F0110C070C0A161111160A0C07A7
:1046B4000C1153690233536110BC70475369013BB9
:1046C40010BC536170475369013310BC5361704788
:1046D4005369023B10BC5361704700BFE896002049
:1046E4001D4B9A6B10689168006810B40842137CE3
:1046F400546814BF0121002103F00303D4F800C05F
:10470400D06843EA81031CEA000F43F0080118BF94
:104714000B469908013B11740D2B0BD8DFE803F00D
:10472400110C070C0A161111160A0C070C11536907
:104734000233536110BC70475369013B10BC536191
:1047440070475369013310BC536170475369023B8E
:1047540010BC5361704700BFE89600201D4B5A6B94
:1047640010689168006810B40842137C546814BF40
:104774000121002103F00303D4F800C0D06843EA08
:1047840081031CEA000F43F0080118BF0B46990887
:10479400013B11740D2B0BD8DFE803F0110C070C4F
:1047A4000A161111160A0C070C11536902335361CE
:1047B40010BC70475369013B10BC53617047536987
:1047C400013310BC536170475369023B10BC536101
:1047D400704700BFE89600201D4B1A6B1068916863
:1047E400006810B40842137C546814BF01210021EE
:1047F40003F00303D4F800C0D06843EA81031CEA41
:10480400000F43F0080118BF0B469908013B1174CF
:104814000D2B0BD8DFE803F0110C070C0A1611114D
:10482400160A0C070C1153690233536110BC70470C
:104834005369013B10BC536170475369013310BC89
:10484400536170475369023B10BC5361704700BF0A
:10485400E89600201D4BDA6A10689168006810B46D
:104864000842137C546814BF0121002103F00303A0
:10487400D4F800C0D06843EA81031CEA000F43F077
:10488400080118BF0B469908013B11740D2B0BD876
:10489400DFE803F0110C070C0A161111160A0C07B5
:1048A4000C1153690233536110BC70475369013BC7
:1048B40010BC536170475369013310BC5361704796
:1048C4005369023B10BC5361704700BFE896002057
:1048D4001D4B9A6A10689168006810B40842137CF2
:1048E400546814BF0121002103F00303D4F800C06D
:1048F400D06843EA81031CEA000F43F0080118BFA3
:104904000B469908013B11740D2B0BD8DFE803F01B
:10491400110C070C0A161111160A0C070C11536915
:104924000233536110BC70475369013B10BC53619F
:1049340070475369013310BC536170475369023B9C
:1049440010BC5361704700BFE89600201D4B5A6AA3
:1049540010689168006810B40842137C546814BF4E
:104964000121002103F00303D4F800C0D06843EA16
:1049740081031CEA000F43F0080118BF0B46990895
:10498400013B11740D2B0BD8DFE803F0110C070C5D
:104994000A161111160A0C070C11536902335361DC
:1049A40010BC70475369013B10BC53617047536995
:1049B400013310BC536170475369023B10BC53610F
:1049C400704700BFE89600201D4B1A6A1068916872
:1049D400006810B40842137C546814BF01210021FC
:1049E40003F00303D4F800C0D06843EA81031CEA4F
:1049F400000F43F0080118BF0B469908013B1174DE
:104A04000D2B0BD8DFE803F0110C070C0A1611115B
:104A1400160A0C070C1153690233536110BC70471A
:104A24005369013B10BC536170475369013310BC97
:104A3400536170475369023B10BC5361704700BF18
:104A4400E89600201D4BDA6910689168006810B47C
:104A54000842137C546814BF0121002103F00303AE
:104A6400D4F800C0D06843EA81031CEA000F43F085
:104A7400080118BF0B469908013B11740D2B0BD884
:104A8400DFE803F0110C070C0A161111160A0C07C3
:104A94000C1153690233536110BC70475369013BD5
:104AA40010BC536170475369013310BC53617047A4
:104AB4005369023B10BC5361704700BFE896002065
:104AC4001D4B9A6910689168006810B40842137C01
:104AD400546814BF0121002103F00303D4F800C07B
:104AE400D06843EA81031CEA000F43F0080118BFB1
:104AF4000B469908013B11740D2B0BD8DFE803F02A
:104B0400110C070C0A161111160A0C070C11536923
:104B14000233536110BC70475369013B10BC5361AD
:104B240070475369013310BC536170475369023BAA
:104B340010BC5361704700BFE89600201D4B5A69B2
:104B440010689168006810B40842137C546814BF5C
:104B54000121002103F00303D4F800C0D06843EA24
:104B640081031CEA000F43F0080118BF0B469908A3
:104B7400013B11740D2B0BD8DFE803F0110C070C6B
:104B84000A161111160A0C070C11536902335361EA
:104B940010BC70475369013B10BC536170475369A3
:104BA400013310BC536170475369023B10BC53611D
:104BB400704700BFE89600201D4B1A691068916881
:104BC400006810B40842137C546814BF012100210A
:104BD40003F00303D4F800C0D06843EA81031CEA5D
:104BE400000F43F0080118BF0B469908013B1174EC
:104BF4000D2B0BD8DFE803F0110C070C0A1611116A
:104C0400160A0C070C1153690233536110BC704728
:104C14005369013B10BC536170475369013310BCA5
:104C2400536170475369023B10BC5361704700BF26
:104C3400E89600201D4BDA6810689168006810B48B
:104C44000842137C546814BF0121002103F00303BC
:104C5400D4F800C0D06843EA81031CEA000F43F093
:104C6400080118BF0B469908013B11740D2B0BD892
:104C7400DFE803F0110C070C0A161111160A0C07D1
:104C84000C1153690233536110BC70475369013BE3
:104C940010BC536170475369013310BC53617047B2
:104CA4005369023B10BC5361704700BFE896002073
:104CB4001D4B9A6810689168006810B40842137C10
:104CC400546814BF0121002103F00303D4F800C089
:104CD400D06843EA81031CEA000F43F0080118BFBF
:104CE4000B469908013B11740D2B0BD8DFE803F038
:104CF400110C070C0A161111160A0C070C11536932
:104D04000233536110BC70475369013B10BC5361BB
:104D140070475369013310BC536170475369023BB8
:104D240010BC5361704700BFE89600201D4B5A68C1
:104D340010689168006810B40842137C546814BF6A
:104D44000121002103F00303D4F800C0D06843EA32
:104D540081031CEA000F43F0080118BF0B469908B1
:104D6400013B11740D2B0BD8DFE803F0110C070C79
:104D74000A161111160A0C070C11536902335361F8
:104D840010BC70475369013B10BC536170475369B1
:104D9400013310BC536170475369023B10BC53612B
:104DA400704700BFE89600201D4B1A681068916890
:104DB400006810B40842137C546814BF0121002118
:104DC40003F00303D4F800C0D06843EA81031CEA6B
:104DD400000F43F0080118BF0B469908013B1174FA
:104DE4000D2B0BD8DFE803F0110C070C0A16111178
:104DF400160A0C070C1153690233536110BC704737
:104E04005369013B10BC536170475369013310BCB3
:104E1400536170475369023B10BC5361704700BF34
:104E2400E8960020F8B58A4B01278A4E04461D787F
:104E34003754002D77D1884B1A78002A40F0A5808A
:104E4400864B1F68002F33D0BB798BB3844BF87A21
:104E5400D3F800E060B33B4610E0022941D00329B7
:104E640008D1597BA14200F0C38093F80EC0A44539
:104E740000F0BA8001321A33824219D0197BD5B2BC
:104E84000129EAD1597BA142F4D11A2303FB02730D
:104E9400DC7B012C00F0C180022C00F09380FCB973
:104EA400704E3378002B34D01DF0AEFA347030E0FD
:104EB400231F192B5FD9A4F11E03082B7CD9272C9F
:104EC40000F0B980A4F13A030B2B5AD9A4F12803BA
:104ED400DBB2BF2B04D8644A32F8130000284CD14B
:104EE400F8BD597BA142C5D1604B53F8241043F857
:104EF40024E0AEEB010EBEF1310FD9D91A2303FB26
:104F040002731B8A7345D3D3564C2378002B40F08D
:104F14009980574B0021574A284619701570BDE8EF
:104F2400F840FEF759B8544A002510701D701EF061
:104F340079F8524B1B78002BD2D0514B1B78DA07EF
:104F4400CED5474B4F4A1B6812689B1A0E2BC7D904
:104F540010214D481DF0EAFF2B4621460A224B48FA
:104F64001BF068F939464A481DF0E0FF4748BDE8A0
:104F7400F8401BF037B904F15D00BDE8F8401DF0BE
:104F84002BBBA4F58054A0B2F7E73B4A1D70107008
:104F94001EF048F8394B1B78002BA1D0384B1B78F6
:104FA400DB079DD52E4B374A1B6812689B1A0E2BC4
:104FB40096D911213748CDE704F11300BDE8F84034
:104FC4001DF00ABB34498B5C83F001038B54002B26
:104FD4009AD11DF019FA234C00232548254AFF21B4
:104FE400237003701170F8BD735C002B3FF460AF45
:104FF4001A2303FB0273997B715C00293FF458AFB9
:10500400DC7B012C09D0022C7FF449AF22498B5C54
:1050140083F001038B54002BDBD0124C237863B94B
:1050240014480122124B0021057028461A70BDE86D
:10503400F840FDF7D1BF30209FE71DF0E5F90023CC
:105044002370EDE71DF0E0F90023237061E700BF52
:105054001EA000208C9500201AA000208C96002011
:10506400D49E002030A00020180A0020F87E0020E2
:105074002BA000201A55002025A0002050A00020BD
:105084004FA00020EC9F0020D80B0020204D0020D2
:1050940064240020EC0B0020A093002010B5002312
:1050A40004460E4A0321A382226023630C48C4E908
:1050B4000133C4E90333C4E90633C4E90833C4E95A
:1050C4000A3318F0A9FB0421064818F0BDFB01219E
:1050D400054818F0D3FB204610BD00BF543C002007
:1050E400E0620020E0610020AC960020F8B50446A0
:1050F4004FF440730025FF27A4F8983304F5EB63BD
:10510400764A2030C4F858374FF468732570226209
:105114006570C4F8A803A570A4F85C37E570A5739E
:10512400277165626771A562C4F87853C4F87C532B
:1051340084F89A5384F85E57C4E9E055C4E9E2550B
:10514400C4E9E45514F018FE654B04F5EC6084F8EA
:10515400855703F14C02C4F86037C4F86457C4F8A7
:105164006C27C4F86857C4F8705784F87457C4F8A7
:105174007857C4F87C57C4F8805784F8845784F867
:10518400865784F88757C4F88857C4F88C57C4F8EE
:105194009057C4F8945718F07BFD524B04F5F36014
:1051A40084F81A5803F15802C4F89837A4F81C7804
:1051B40004F50467C4F8A427C4F89C57C4F8A0579E
:1051C400C4F8A85784F8AC57C4F8B057C4F8B45717
:1051D400C4F8C057C4F8C45784F8F65784F8F8578D
:1051E400C4F80458C4F80858C4F80C58C4F8105843
:1051F400C4F81458A4F8185884F81B5884F827588D
:10520400C4F82858C4F82C58C4F83058C4F8345892
:1052140017F080FF344B294604F6880003F16C0232
:10522400C4F840389833C4F84458C4F84C2840F2C1
:105234000112C4F858380123A4F878284FF4807276
:1052440084F87A38C4F84858C4F85058C4F8545804
:10525400C4F85C5884F86058C4F86458C4F86858B2
:1052640084F86C58C4F87058C4F87458C4F87C585E
:10527400A4F8805884F88258C4F8845821F0FCFBC0
:1052840000220023C7E95223C7E9542340F2FF3226
:105294000023C7E95623C4F8A059C4F8A459C4F894
:1052A400A859C4F8AC591BF09FFC034684F8B459C0
:1052B4003846C4F8B03984F8D55CC4F8D65C15F027
:1052C400EDFD04F55860FFF7E9FE204684F8F45D2F
:1052D400C4F80650C4F80A50F8BD00BF903A002044
:1052E400CC3B00206C3D0020983C002000B583B0EE
:1052F400019013F0D9F80198034A044BC0F8C02771
:10530400C0F8C43703B000BD7503000045030000B6
:1053140030B5044683B00D4614F0A0F8FDF7B8F894
:10532400D4F8683794F88527003B02F0FF0118BFD2
:10533400012384F8F43D12B9084603B030BD94F853
:1053440087376FF07E0204F5EC6001912B70D4F87E
:1053540088377F2BA8BF7F239342B8BF13466B8047
:10536400D4F88C377F2BA8BF7F239342B8BF134652
:10537400AB80D4F890377F2BA8BF7F239342B8BF6C
:105384001346AB7118F090FC0199084603B030BD88
:10539400144A10B5087882B013780C4683420DD0B5
:1053A400C0F300111070C0F3C003C0F340020091B9
:1053B400C0F3800100F001001DF01CFAB4F90200F2
:1053C400B4F9041094F9062050EA010300D13AB16B
:1053D400002349B240B202B0BDE810401DF040BA0B
:1053E40002B010BD1E55002090F8F40D704700BFA8
:1053F4002DE9F04F04468BB0019114F02FF894F886
:1054040082380199C3B994F8940D10B90BB0BDE872
:10541400F08F04F6985E03F0FF058C46BEE80F009B
:10542400ACE80F009EE807008CE8070084F8945D60
:1054340001200BB0BDE8F08FD4F884E80A4604F6E6
:10544400840304F6AC0C42F802EB53F8040F9C45B9
:1054540022F8020FF9D194F86C38033B012B0BD9D5
:10546400B1F916309AB2092A28BFFF230B7604F546
:10547400046016F069F8DBE7B1F904300EF48079C2
:10548400B1F908000EF4806AA3F500450023A0F5E5
:105494000040B1F906209C46089360F30F0C47F6D0
:1054A400FF70CDE90633821A65F30F0362F31F43DD
:1054B400B1F90E20801A4A8960F31F4C40F2FF3084
:1054C400824228BF024697018A89824228BF024647
:1054D4001EF4806FCEF3C0204FEA8218CEF3002270
:1054E40017D1D2B18DF82000ADF81470ADF8168044
:1054F400CDE9033C2EF470630DF1080E8C46029343
:10550400BEE80F00ACE80F009EE807008CE8070037
:10551400ADE712B108B10120E4E70EF40075AB4623
:10552400B9F1000F05D120B14D450CBF0220032075
:10553400D8E74FEA5B26BBF1000F00D0B8B91EF4E0
:10554400406F00D1AEB94FEA9A2016B108B10520D8
:10555400C8E7BBF1000F14BF002500F0010515B129
:10556400B9F1000F07D01040C0F10800BAE70320DA
:10557400B8E70420B6E70620B4E700BFD0F85438F3
:105584000BB10120704790F8950D7047D0F8A00733
:10559400003818BF01207047012810B582B073D0BD
:1055A400821E012A35D9454C1DF03CFD23781BB1E0
:1055B400434B1B78DA071DD464201BF0BFFA1DF09F
:1055C40031FD2378A3B13E4B1B78DB0710D53D4B4F
:1055D4003D4A1B6812689B1A0E2B09D90B213B48C4
:1055E4001DF0A4FC3A4802B0BDE810401AF0FABD20
:1055F40002B010BD334B344A1B6812689B1A0E2B41
:10560400DAD9252133481DF091FC31481AF0EAFD1E
:10561400D2E7314A0124019030483149047050687E
:10562400304C00F00F0094600143244C51601CF096
:1056340059FD1DF0F7FC2278002AB5D0204A1278D3
:10564400D107B1D51F4A204912680968521A0E2A97
:10565400AAD90E2124481DF069FC019B0321032BC8
:105664000CBF224822481DF061FC212121481DF075
:105674005DFC17481AF0B6FD35211F481DF056FC95
:1056840013481AF0AFFD8FE70C4C1DF0CBFC2378C8
:10569400002B89D00A4B1B78D80785D5094B0A4AB9
:1056A4001B6812689B1A0E2B7FF67EAF23211348CA
:1056B4001DF03CFC06481AF095FD75E750A000204B
:1056C4004FA00020D49E0020EC9F0020C00C00209E
:1056D400204D0020980C0020F09F002032A00020D4
:1056E40000208000020820802C0C0020000C0020E8
:1056F400040C00203C0C0020600C0020080C00204E
:10570400DFED3F7A40F2FF3220EE270A60EEA70A6F
:10571400BDEEC00AFDEEE00A10EE103A2DE9F041AC
:1057240003F50073074610EE900A364D9342364E49
:1057340000F50074A8BF13463078944223EAE3735B
:10574400A8BF14466A6824EAE47461B96FF30D12C1
:1057540042EA03126A60002837D06FF3973242EAB4
:1057640084326A6011E022F07F4242EA03626A6096
:10577400AA6822F0030242EA1323AB60002833D064
:105784006FF38B0343EA8403AB6000244FF00108FA
:1057940003E00134072C14D0307847FA04F32A6864
:1057A40008FA04F113F0010F22EA010318BF41EAD9
:1057B40002032B600028ECD101341CF093FC072C6D
:1057C400EAD1BDE8F0411CF08DBC1CF08BFC6B6889
:1057D40030786FF3973343EA84336B600028D4D175
:1057E4001CF080FC3078D0E71CF07CFCAB6830788F
:1057F4006FF38B0343EA8403AB600028F0D0C4E763
:105804000080FF43F09F002032A0002008B50B4623
:10581400362800F2B782DFE810F0AB02A10297024B
:105824008D02830279026F0265025B025102470214
:105834003D023302D201C801BE01B401AA01A00194
:1058440096018C01820178016E0164015A015001B4
:1058540046013C01320128011E0114010A01000124
:10586400F600EC00E200D800CE00C400BA00B0009C
:10587400A6009C00920088007E0074006A0060000C
:1058840056004C0042003700DFF8F0C30422D1492F
:105894003620CCF8D8301BF067FC012008BDDFF8B7
:1058A400DCC30422CC493520CCF8D4301BF05CFC9A
:1058B400F3E7DFF8C8C30422C8493420CCF8D03059
:1058C4001BF052FCE9E7DFF8B4C30422C4493320D7
:1058D400CCF8CC301BF048FCDFE7DFF8A0C304228F
:1058E400C0493220CCF8C8301BF03EFCD5E7DFF8C5
:1058F4008CC30422BC493120CCF8C4301BF034FCE6
:10590400CBE7DFF878C30422B8493020CCF8C030A4
:105914001BF02AFCC1E7DFF864C30422B4492F203A
:10592400CCF8BC301BF020FCB7E7DFF850C30422EE
:10593400B0492E20CCF8B8301BF016FCADE7DFF8E8
:105944003CC30422AC492D20CCF8B4301BF00CFC31
:10595400A3E7DFF828C30422A8492C20CCF8B030F0
:105964001BF002FC99E7DFF814C30422A4492B209E
:10597400CCF8AC301BF0F8FB8FE7DFF800C304224F
:10598400A0492A20CCF8A8301BF0EEFB85E7DFF80D
:10599400ECC204229C492920CCF8A4301BF0E4FB7F
:1059A4007BE7DFF8D8C2042298492820CCF8A0303D
:1059B4001BF0DAFB71E7DFF8C4C204229449272004
:1059C400CCF89C301BF0D0FB67E7DFF8B0C20422B0
:1059D40090492620CCF898301BF0C6FB5DE7DFF831
:1059E4009CC204228C492520CCF894301BF0BCFBCB
:1059F40053E7DFF888C2042288492420CCF8903089
:105A04001BF0B2FB49E7DFF874C204228449232067
:105A1400CCF88C301BF0A8FB3FE7DFF860C204220F
:105A240080492220CCF888301BF09EFB35E7DFF854
:105A34004CC204227C492120CCF884301BF094FB16
:105A44002BE7DFF838C2042278492020CCF88030D4
:105A54001BF08AFB21E7DFF824C2042274491F20CB
:105A6400CCF87C301BF080FB17E7DFF810C204226F
:105A740070491E20CCF878301BF076FB0DE7DFF878
:105A8400FCC104226C491D20CCF874301BF06CFB63
:105A940003E7DFF8E8C1042268491C20CCF8703021
:105AA4001BF062FBF9E6DFF8D4C1042264491B2031
:105AB400CCF86C301BF058FBEFE6DFF8C0C10422D1
:105AC40060491A20CCF868301BF04EFBE5E6DFF89D
:105AD400ACC104225C491920CCF864301BF044FBAF
:105AE400DBE6DFF898C1042258491820CCF860306E
:105AF4001BF03AFBD1E6DFF884C104225449172095
:105B0400CCF85C301BF030FBC7E6DFF870C1042230
:105B140050491620CCF858301BF026FBBDE6DFF8C0
:105B24005CC104224C491520CCF854301BF01CFBFA
:105B3400B3E6DFF848C1042248491420CCF85030B9
:105B44001BF012FBA9E6DFF834C1042244491320F8
:105B5400CCF84C301BF008FB9FE6DFF820C1042290
:105B640040491220CCF848301BF0FEFA95E6DFF8E5
:105B74000CC104223C491120CCF844301BF0F4FA47
:105B84008BE6DFF8F8C0042238491020CCF8403006
:105B94001BF0EAFA81E6DFF8E4C0042234490F205E
:105BA400CCF83C301BF0E0FA77E6DFF8D0C00422F2
:105BB40030490E20CCF838301BF0D6FA6DE6DFF809
:105BC400BCC004222C490D20CCF834301BF0CCFA94
:105BD40063E600BF81110000FD110000791200008E
:105BE400F512000071130000ED13000069140000A9
:105BF400E514000061150000DD15000059160000D1
:105C0400D516000051170000CD17000049180000F8
:105C1400C518000041190000BD190000391A000020
:105C2400B51A0000311B0000AD1B0000291C000048
:105C3400A51C0000211D00009D1D0000191E000070
:105C4400951E0000111F00008D1F00000920000098
:105C540085200000012100007D210000F9210000C1
:105C640075220000F12200006D230000E9230000EA
:105C740065240000E12400005D250000E896002072
:105C8400DFF838C1042240490C20CCF830301BF036
:105C94006BFA02E6DFF824C104223C490B20CCF85D
:105CA4002C301BF061FAF8E5DFF810C10422384902
:105CB4000A20CCF828301BF057FAEEE5DFF8FCC0D8
:105CC400042234490920CCF824301BF04DFAE4E5D1
:105CD400DFF8E8C0042230490820CCF820301BF05B
:105CE40043FADAE5DFF8D4C004222C490720CCF8C3
:105CF4001C301BF039FAD0E5DFF8C0C00422284973
:105D04000620CCF818301BF02FFAC6E5DFF8ACC03B
:105D1400042224490520CCF814301BF025FABCE5F4
:105D24000422DFF898C020491046CCF810301BF04C
:105D34001BFAB2E5DFF884C004221C490320CCF826
:105D44000C301BF011FAA8E5DFF870C004221849E2
:105D54000220CCF808301BF007FA9EE5DFF85CC09F
:105D6400042214490120CCF804301BF0FDF994E519
:105D7400DFF848C0042210490020CCF800301BF0A2
:105D8400F3F98AE5002008BDD92500005526000056
:105D9400D12600004D270000C92700004528000037
:105DA400C12800003D290000B9290000352A00005F
:105DB400B12A00002D2B0000A92B0000E89600203A
:105DC4002DE9F0410E4615460446022130461AF0EC
:105DD40069FF022128461AF065FF234B320123494B
:105DE40053F8028003EB0612D76803EB0512C4F8DC
:105DF4000080A760D2F80CC02A0153F802E0002307
:105E04001B4A6361C4F80CC01A4B48681268C4F892
:105E140004E0A3FB02324FF4FA63920C03FB02F298
:105E24004B681B1A9A42FBD8D8F800302146DEF89A
:105E3400002030461F4214BF012300231CEA020F36
:105E440043F0020218BF13462374FFF7DFFC034636
:105E5400214628462376FFF7D9FC227E8318204664
:105E64002376BDE8F08100BFFC400020001000E074
:105E74002C4C002083DE1B43022110B50446084647
:105E84001AF010FF022105201AF00CFF02201AF06C
:105E9400F7FE0346052084F820301AF0F1FE0023B3
:105EA40084F821006362E362A3861DF0BBF80C4B07
:105EB4001B789BB10B4B1B78DB070FD50A4B0B4AA6
:105EC4001B6812689B1A0E2B08D9272108481DF05D
:105ED4002DF80848BDE810401AF084B910BD00BF81
:105EE40050A000204FA00020D49E0020EC9F002052
:105EF400CC0C0020204D0020A94AAA4930B5137EBD
:105F040083B004460D68012B40F2B48072B6536925
:105F140062B6002B1846B8BFD81C80101AD072B6CF
:105F2400D3F1000C03F003010CF0030C58BFCCF1C7
:105F34000001516162B6226862B1B3F5007F06DAEE
:105F440013F5007F40F32081404240B201E06FF03E
:105F54007E009047944A137E012B51D972B653693F
:105F640062B6002B1846B8BFD81C80101AD072B67F
:105F7400D3F1000C03F003010CF0030C58BFCCF177
:105F84000001516162B6626862B1B3F5007F06DA5E
:105F940013F5007F40F3FA80404240B201E06FF015
:105FA4007E00904702201AF06BFE94F82030834262
:105FB40003D0636AEB1A312B18D805201AF060FE5F
:105FC40094F8213083420FD0E36AEB1A312B0BD9BA
:105FD400E562002840F0A48001232563E56184F88C
:105FE4003530237684F8210003B030BD6562002883
:105FF4007CD10123A56284F8343084F82000DCE7E6
:1060040072B6D2E900130968186893681942137CC0
:1060140014BF0121002103F0030343EA8103D16883
:10602400084243F0080118BF0B469808591E5369EB
:1060340010740D2994D801A050F821F06B3F000092
:10604400653F0000773F0000653F0000613D0000B0
:10605400713F00006B3F00006B3F0000713F000088
:10606400613D0000653F0000773F0000653F000090
:106074006B3F000072B6D2E9001309681868936890
:106084001942137C14BF0121002103F0030343EAE6
:106094008103D168084243F0080118BF0B469808F1
:1060A400591E536910740D293FF632AF01A050F800
:1060B40021F000BF5F3F0000593F0000833F000014
:1060C400593F0000113D00007D3F00005F3F00008C
:1060D4005F3F00007D3F0000113D0000593F00007C
:1060E400833F0000593F00005F3F000094F83430C4
:1060F400002B82D00022A36A84F83420EB1A40F2E9
:10610400DB52934244D8294B1B78002B7FF475AFA4
:10611400A368002B3FF471AF0190984701986CE796
:10612400002394F835202376002A3FF45BAF1F4AFE
:1061340084F835301378002B7FF454AF226B40F28F
:10614400DB53AD1A9D4227D96369002B3FF44AAF54
:1061540001909847019845E7013B5361D8E6013324
:106164005361D5E6013B5361FAE601335361F7E627
:10617400023B5361F4E602335361F1E6023B53619F
:10618400C6E602335361C3E67F20E2E67F2008E7D8
:10619400E368002BC0D130E72369002BD8D121E775
:1061A4002C950020D49E00204895002023550020E3
:1061B40010B501210A201AF075FD01210A201AF0F8
:1061C4003DFD012125201AF06DFD012125201AF045
:1061D40035FD012107201AF065FD012107201AF081
:1061E4002DFD00234FF48C72F021204819F0D0FDCE
:1061F40001211E4819F062FD00211C4818F020F905
:106204001A4800224FF0FF3304460321C27643614B
:1062140018F01EFE164B032216492046236119F07E
:1062240083FF0221204618F013FE134B0C2213495E
:106234002046236119F078FF1CF0F4FE104B1B7804
:106244009BB1104B1B78DB070FD50F4B0F4A1B6814
:1062540012689B1A0E2B08D916210D481CF066FEF5
:106264000C48BDE8104019F0BDBF10BDDC9E0020F5
:106274003C005A00F40C00203C007D00F80C002087
:1062840050A000204FA00020D49E0020EC9F0020AE
:10629400080D0020204D002010B5012122201AF005
:1062A40001FD012122201AF0C9FC00234FF48C7255
:1062B400F021204819F06CFD01211E4819F0FEFC64
:1062C40000211C4818F0BCF81A4800226FF0F8238B
:1062D40004460321C276436118F0BAFD164B03222B
:1062E40016492046236119F01FFF0221204618F0A9
:1062F400AFFD134B0B2213492046236119F014FF01
:106304001CF090FE104B1B789BB1104B1B78DB07E5
:106314000FD50F4B0F4A1B6812689B1A0E2B08D916
:1063240016210D481CF002FE0C48BDE8104019F07F
:1063340059BF10BD609F00203C005A00F40C00209F
:1063440054007D00200D002050A000204FA000200C
:10635400D49E0020EC9F00202C0D0020204D002016
:10636400034608461146062B14D90D2B0AD90E3BB9
:1063740000B583B0062B43D8DFE803F04038362B52
:106384001F1B1300DFF8BCC0073B204A3CF9133045
:1063940020F0FCB9DFF8B0C01C4A3CF9133020F0FF
:1063A400F5B91B4B1B4A1B6803B05DF804EB20F0E6
:1063B400EDB9194B194A1B78F6E7194B93ED007A9E
:1063C400184AB7EEC77A8DED007B20F0DFF903B0F1
:1063D40000BD154B154A93ED007AB7EEC77A8DEDE3
:1063E400007B20F0D3F9F2E7114BE7E7114B124A97
:1063F4001B8803B05DF804EB20F0C8B90F4BF6E737
:106404000F4A03B05DF804EB20F0C0B9440D00203E
:10641400EC510020780D002022550020700D002042
:10642400DC510020580D0020C89D0020640D002080
:10643400E451002010A00020500D00200EA00020E8
:10644400D81A0020DC9D0020CC9D0020374A43B29E
:10645400C1EB01112DE9F041064692F900004C0010
:1064640086B0984204F1180254D0314BB3F900308D
:106474009E4207D0062E51D90D2E53D84FF6A04177
:10648400002302E000214FF6FF730027294D0193FA
:106494001E2361F30F07284600934FF48C7361F3B6
:1064A4001F47002118F0B2FF022128466F6118F03F
:1064B400CFFC214B042204F11F0853F826702A82D2
:1064C400A5F812803FB1384620F05AFE39460246FC
:1064D400284619F029FE02A930460E22FFF740FF94
:1064E400982302A8A5F812802B8220F049FE42F2DC
:1064F4000415024602A90F4819F016FE4FF48C73D6
:1065040004F1350200210B48009518F003FF06B092
:10651400BDE8F08100214FF4FC63B6E740F25F412F
:106524000023B2E74FF6FF710023AEE720550020A9
:106534000CA00020DC9E0020883300202DE9F04FC1
:106544002DED048B8FB0002800F0158240F25F42DD
:10655400924BDFF894820292B3F800A0904A04921E
:10656400029B0026002063F30F0663F31F46049B7F
:106574009F1E03F10C04394631F9023F5A4212B20C
:1065840033EA230328BF13469842B8BF18468C4207
:10659400F2D1642840F38082C82840F3F781B0F533
:1065A400967F40F392829FED7F8A4FF0FA0B4FF46F
:1065B400FA797D4C00211625204617F041FF002270
:1065C4000F2320461146CDE900534FF48C7318F085
:1065D4001DFF0221204618F03BFC744B4146072264
:1065E40020466661236119F09FFD714B012120460D
:1065F4004FF0CC08636118F02BFC6E4A4B46142113
:1066040009A8126841F6C30600926B4A20F0BEF84E
:1066140009A820F0B5FD082140F215130246618255
:1066240000EB40012046A3EB410309A9238219F0A2
:106634007BFD40F641032A461C212046CDE9008318
:10664400FA2318F0E3FE44F208237C221C2120469E
:106654000093FA2318F05EFEFA2349221C212046F7
:10666400009618F057FEFA23AF221C21204600960C
:1066740018F050FE42F204132A461C2100932046CF
:10668400FA2318F047FEBAF1000F04D0494A126801
:10669400524500F208820121434818F0D9FB474BC8
:1066A400474A0721636107A84B46002520F06EF88E
:1066B4004FF4B01307A89FED439A236120F060FDC7
:1066C40007A9024638484FF0010819F02DFD5B4632
:1066D4003B4A072107A8DFED3C9A20F057F84FF416
:1066E4008A0307A8DFED398A236120F049FD07A951
:1066F40002462D482E4619F017FD354B0222354926
:106704002948236119F010FD5B46334A072107A885
:1067140020F03CF84FF42B0307A84FF01C0B236127
:1067240020F02EFD07A902461F4819F0FDFC4B4638
:10673400294A072107A84FF07C0920F027F84FF4D5
:106744005A0307A8236120F01BFD07A90246164837
:1067540019F0EAFC214B012221491348236119F065
:10676400E3FC144B14211F4A09A81B6820F00EF8FF
:1067740009A820F005FDE423024609A9638200EB81
:10678400400309485B00C3F58B73238219F0CCFCEA
:10679400054818F025FD05973FE000BF0EA0002036
:1067A400CC9D00200000FA43609F002009000300F4
:1067B40018C618C6EC510020900D002010841084D7
:1067C400A00D0020000000000000CC420000F842B0
:1067D40004007800A40D0020A80D00201C00E40093
:1067E400AC0D0020B00D0020800D0020E12C05F13F
:1067F4001C03A8BFE1241BB227B2B8F1000F00F0BC
:10680400958002354FF0000846F10006A5F1FC0220
:10681400324300F0D780B9469B46AF4BFA221C683E
:106824000023A4FB05011DF041FF5045C0F0B580D5
:10683400844240F2B280A0EB0A00A4EB0A04B1EE59
:10684400086A049907EE900AB8EE677A07EE904A50
:10685400F8EE677AC7EE276A66EE867ABDEEE77AC7
:1068640017EE102A052A1346A8BF052331F9130091
:1068740007EE103A01EB4303B8EEC77A05EE100AAF
:10688400B3F90210B8EEC55A04EE901A77EEC77A3F
:10689400F8EEE44A002A40F0838074EEC53AB3F976
:1068A4000430B6EE007A05EE903AF8EEE55A75EE4D
:1068B400C55A65EE875A67EEA76AB0EE086AF0EE2D
:1068C400002A27EEA64A26EE866AB7EE002AB0EE24
:1068D400447AB0EE463AA4EE626AA6EEE27A94EE08
:1068E400223A74EE666A37EE277A73EE027A27EE5E
:1068F400237AA5EE277AA4EE867AA6EEA57A27EE69
:10690400297AC7EE087A78EEE77AFDEEE77A17EE91
:10691400903A1CB2152C3FF769AF162705F11C03FA
:106924003C461BB2B8F1000F7FF46BAF029909F13A
:10693400FF326A480191611E12B2039309B2013415
:106944000091594617F07CFC4A46644824B2DDE9BC
:106954000213CDE90071594617F072FC029809F14F
:106964000102039B594612B2CDE900405B4817F07F
:1069740067FC039B45E74FF6A042594BDFF8808143
:106984000292584AB3F800A00492E9E59FED568AB2
:106994004FF0640B4FF0C8090BE6B0EE497AB0E74C
:1069A40033F9021CB6EE007A042A03EE901AF8EECC
:1069B400E33A74EEE33A63EE873A7FF770AF74EE2E
:1069C400C55A78E745484446059F18F0C7FA9FED35
:1069D400479ADFED478A474D4CE0191841F1000111
:1069E400A5FB016C2CF0010606EB5C06891B5B1A07
:1069F400A3FB053660F10001580805FB016340EA7A
:106A0400C3705044FA210023A0FB01011DF04EFE87
:106A14001C2140F21512084403B280B21B2B03DD83
:106A24009042A8BF104601B237F9023F4FF6FF72F9
:106A34002A4807EE103A00920423B8EEC77A27EEEC
:106A4400097AC7EE087A78EEE77AFDEEE77A17EE70
:106A5400902A12B2E12AA8BFE122162AB8BF162250
:106A640017F008FF18F1010844F10004A8F1070326
:106A740023430CD0184B1A68A2EB0A035245A3FB1C
:106A84000830AAD80AB91C21CEE75046BAE70FB09D
:106A9400BDEC048BBDE8F08F9FED178A4FF0320BED
:106AA4004FF0640985E5FA200023AAFB00011DF0DC
:106AB400FDFD00F11C0147F6EF3043462A4609B2BA
:106AC4000090204618F0ACFBE5E59FED0C8A4FF0F2
:106AD400960B4FF496796CE5EC510020609F0020F2
:106AE40010A00020DC9D0020000048430000CC42A0
:106AF4000000F842ABAAAAAA0000C84200009643CC
:106B0400880D00202DE9F04F844C8FB000214FF008
:106B14000F0820464FF0FF3517F092FC0022162193
:106B24004FF48C73204607AE05AF4FF01B09CDE937
:106B34000018114618F06AFC0221204618F088F962
:106B4400774B072277492046C4E9043519F0ECFA5B
:106B5400754B01212046636118F07AF9734B1022BA
:106B640073492046236119F0DFFA724B724AADF87B
:106B740018500025059293E8070086E807000121D4
:106B8400204618F065F95C23162229B22046CDE987
:106B9400009818F03BFC37F8021B0023AA1C4FF0A6
:106BA4001F0C56F804AB61F30F0322825046A4F87D
:106BB40012C061F31F436361BAF1000F06D020F0E5
:106BC400DFFA51460246204619F0AEFA5D3540F22E
:106BD4001713ADB29D42D6D1584B0026DFF874B1DD
:106BE4004FF01B09DFF870A1039306EB460516F07E
:106BF400010F40F641084FF05C0305EBC50518BFD3
:106C04004FF000080021454805F13107CDF8009008
:106C1400CDF804803A353FB23A4618F0F7FB484BBA
:106C2400484A4FF6FF711B78107840F25F42C3EB7D
:106C3400C30365823344DBB2834208BF0A460023A0
