:0200000460009A
:100000004643464200000156000000000101020084
:1000100000000000000000000000000000000000E0
:1000200000000000000000000000000000000000D0
:1000300000000000000000000000000000000000C0
:1000400000000000010406010000000000000000A4
:100050000000800000000000000000000000000020
:100060000000000000000000000000000000000090
:100070000000000000000000000000000000000080
:10008000EB04180AFF1E04320126000000000000E5
:100090000000000000000000000000000000000060
:1000A0000000000000000000000000000000000050
:1000B0000000000000000000000000000000000040
:1000C0000000000000000000000000000000000030
:1000D0000000000000000000000000000000000020
:1000E0000000000000000000000000000000000010
:1000F0000000000000000000000000000000000000
:1001000000000000000000000000000000000000EF
:1001100000000000000000000000000000000000DF
:1001200000000000000000000000000000000000CF
:1001300000000000000000000000000000000000BF
:1001400000000000000000000000000000000000AF
:10015000000000000000000000000000000000009F
:10016000000000000000000000000000000000008F
:10017000000000000000000000000000000000007F
:10018000000000000000000000000000000000006F
:10019000000000000000000000000000000000005F
:1001A000000000000000000000000000000000004F
:1001B000000000000000000000000000000000003F
:1001C000000100000010000001000000000000001D
:1001D000000001000000000000000000000000001E
:1001E000000000000000000000000000000000000F
:1001F00000000000000000000000000000000000FF
:10020000FFFFFFFFFFFFFFFFFFFFFFFFFFFFFFFFFE
:10021000FFFFFFFFFFFFFFFFFFFFFFFFFFFFFFFFEE
:10100000D1002043F1150060000000000000000046
:10101000201000600010006000040260000000006A
:10102000000000600010020000000000FFFFFFFF52
:10103000FFFFFFFFFFFFFFFFFFFFFFFFFFFFFFFFC0
:10104000FFFFFFFFFFFFFFFFFFFFFFFFFFFFFFFFB0
:10105000FFFFFFFFFFFFFFFFFFFFFFFFFFFFFFFFA0
:10106000FFFFFFFFFFFFFFFFFFFFFFFFFFFFFFFF90
:10140000824205D051F8043B40F8043B8242F9D8AF
:10141000704700BF044A05494FF0000342F8043BFF
:101420009142FBD8704700BFC0360020806C00207E
:1014300008B5BFF34F8F00F06FF9544C544B0820A0
:101440005449C3F85401544AC3F800115348C3F82F
:10145000F0405349FFF7D4FF524A53495348FFF72E
:10146000CFFF534CFFF7D6FF4FF470004FF0E02151
:101470000023504AC1F8880D44F823200133B02BD3
:10148000FAD14D4B80214D4A03F8011B9342FBD109
:101490004FF0E0254A4E4B4A4FF0FF31C5F8084D5A
:1014A000D5F8243D43F4E023C5F8243DF36923F047
:1014B0007F0343F04003F361736A23F07F0343F03B
:1014C000400373629166D1661167516700F02CF991
:1014D0003D4A3E4BA2636322E36300246A61032317
:1014E0003B4AAC612B61C5F8202DD5F8FC2D394B5A
:1014F00042F080723849C5F8FC2D1A6842F00102AA
:101500001A605B680B6000F0DFFA344800F060FCA2
:10151000F16E334B334A41F44051F1661C60C3F81D
:101520000841C3F81841C3F82841C3F83841936B08
:10153000DB0708D442F615632B4951651365936B9D
:1015400043F001039363274A284C936843F0011347
:10155000936000F077F900F05FF800F035FC00F0E0
:10156000E5FA00F0DBF82368132BFCD900F07AFBD6
:101570002368B3F5967FFBD300F0D4F800F0D0F8E1
:1015800000F01AFC00F030FC30BFFDE70C0D111329
:1015900000800D401B101820F8A80100000000007A
:1015A0001C210060C036002018CA01600000002025
:1015B00000340020A916010000E400E0A0E400E0EF
:1015C00000C00F4000C00A40890501008D050100E0
:1015D00000002020001000E0086B00200046C3231C
:1015E0000040084000400D400000C0560C6B002039
:1015F000054B4FF42A01054A05485A641864054A08
:1016000099639546FFF714FF00C00A40FFAAAAAAF3
:1016100007002000000006200F4B40F2376C0F4AF5
:10162000A020D96E41F44031D966D96E41F44071A1
:10163000D966C2F844C09064936C1B06FCD4084A77
:1016400040F23761A02351649364936C13F08003DC
:10165000FBD1044A1370704700C00F4000400C409B
:1016600000800C404F6C0020294A00210123C2F861
:10167000A000C2F8A410C2F8B0305369D907FCD555
:1016800001234FF4803C22495361C2F8A000C2F804
:10169000A4C0C2F8B0304B69DB07FCD501234FF47E
:1016A000003C1B4A4B61C1F8A000C1F8A4C0C1F8BE
:1016B000B0305369D907FCD50123DFF858C014496D
:1016C0005361C2F8A000C2F8A4C0C2F8B0304B69A0
:1016D000DB07FCD5D1F8003145F60D504FF0210C59
:1016E0009AB2C1F814C0824210D045F69D518A4288
:1016F0000AD1C3F34253032B08D0A3F10403B3FA76
:1017000083F35B0918017047002070470820704779
:1017100000402A4004000300704700BF704700BF2C
:10172000704700BF00BF70474FF0E02300214FF02B
:10173000100C3448C3F8941DC3F89CCD4FF0110C25
:10174000C3F8A00D3048C3F89CCD4FF0120CC3F87D
:10175000A00D2E48C3F89CCD2D4AC3F8A00DDFF88C
:10176000D0C042F015022B48C3F89CCDC3F8A00DA1
:10177000DFF8C0C02848C3F89CCDC3F8A00DDFF83F
:10178000B8C0C3F89C2D2548254AC3F8A0CDC3F89E
:101790009C0DC3F8A02D02F5A022DFF8A0C00C32EA
:1017A0002048C3F89CCDC3F8A02D1F4AC3F89C0D58
:1017B000C3F8A02D02F14062DFF884C002321B485A
:1017C000C3F89CCDC3F8A02D0A32C3F89C0DC3F812
:1017D000A02D00BF00BF00BF00BF00BF0122C3F8A3
:1017E000942DBFF34F8FBFF36F8FC3F8501FBFF31C
:1017F0004F8FBFF36F8FD3F8142D42F44032C3F8EC
:10180000142D70473F000010250008070900100044
:10181000806C0020210002072500081316002020FC
:1018200027000B13180000602F000B071A00008020
:1018300013002000140000200900001017000040D1
:101840001900007030B5864B85B0DFF874E21822BD
:10185000844D0120C3F85CE28349C3F86052A5F5CA
:101860008055DFF860C2814CC3F864E2C3F8685267
:101870002125C3F86CC2C3F870C2C3F874C2C3F8A0
:1018800078C248F20C7CDA661A675A679A67DA6798
:10189000C3F88020C3F88420C3F88820C1F82C0343
:1018A000734AC1F83003C1F83403C1F83803C1F8F2
:1018B0003C03C1F85003A1696E4B0A406E486F4962
:1018C00013436F4AA361D4F8843043F00C03C4F887
:1018D00084304FF0FF34036843F002030360036871
:1018E00003EA0C031A43674B026044608A68664C43
:1018F0001340664A43F000538360C36823F07803C3
:10190000C360036A23401A43604B0262026A2240AA
:101910005F4C1343002243628462C46240F2056458
:10192000D1F8B83023F03F0343F00103C0F8B830DA
:10193000D1F8BC30574923F03F0343F00103C0F80E
:10194000BC3002610567C0F880404567C0F884403C
:101950000224036823F00203036081614E4B4F4968
:10196000C46143F8042B8B42FBD1434C236843F002
:1019700001032360256815F00105FBD145480222CB
:1019800040F2F561A06140F29940E26140F26642A6
:10199000C4F8001242F20141C4F81022404AC4F8CF
:1019A0002002C4F8302240F23542C4F834123D48D7
:1019B000C4F840223C4AC4F850022846C4F85422D5
:1019C00042F201223949C4F86012C4F86422FFF7D8
:1019D0004BFE0246002839D0810201234FF48020BB
:1019E00021662549C4F8A050C4F8A400C4F8B0305A
:1019F0004B69D807FCD515050124039228464C6194
:101A0000FFF732FE039A2A4B0244D2B21A7080B119
:101A1000194980024FF4802348660846C1F8A05057
:101A2000C1F8A430C1F8B0404369DB07FCD50123FD
:101A3000436120490024204801230094401A00EB10
:101A400002521E4800F0BCF905B030BD1B4B1849CE
:101A500018600870D860C3E9010005B030BD00BF50
:101A600000801F40F910010000841F4000C00F409B
:101A7000FFFCFF1F0003008000402A4000802A4036
:101A80001200FFFFFF37F70000FFF07C40000080EE
:101A9000FF000F83F05AF05A00422A4000432A40C8
:101AA0009F041830EB06180A063201263806180A79
:101AB000516C00200000007000000070B46800202D
:101AC000F9B00100F970010010B5174A4FF48054C5
:101AD0004FF4005E4FF4404C4FF4803043F242012B
:101AE000136913F0020F0DD113F4005F0FD013F43C
:101AF000805F0FD0002BF3DA13F4803F0CD15B062C
:101B00000ED510BDC2F818C050619161E8E7C2F867
:101B100014E0E5E75461E3E74FF480339361DFE7D6
:101B200040235361DCE700BF00800D40414A0320A1
:101B30004149F3EE095AD2F880309FED406A23F014
:101B400001039FED3F5ADFF814C100B5C2F88030A1
:101B5000C2F89000D1F8E010DFF804E1CBB23948C8
:101B6000CEF8003007EE903A0B0DC1F30B21F8EEE2
:101B7000E77A06EE903A07EE101A334BB8EEC77AC2
:101B8000CCF80010F8EEE66A304937EEC66A37EE58
:101B9000C55A76EEC76A77EEE57A26EE266AC3ED79
:101BA000006A25EE265AD2F8803067EEA64AC0EDCC
:101BB000007AC6EE275A264885EE276AC4EEA76A41
:101BC00075EE875AFCEEE55A36EE076A15EE90CAB6
:101BD000BCEEC66A43EA0C5376EE877AC2F88030D0
:101BE00016EE103AD2F890C1FCEEE77A01EA034112
:101BF00041EA0C014FF0000C17EE903AC2F8901138
:101C0000C3F30B03D2F890110B431249C2F8903181
:101C1000D2F8803043F00203C2F880300E4B80F8D7
:101C200040C0C1F840314FF0E0230122C3F8082141
:101C300000BD00BF00810D4000441F400000AA42CB
:101C40000000B4427C6A0020806A00200000FF0F80
:101C500000E400E0003400208D180100746A0020C8
:101C6000786A0020314B40F6617210B5C3F820212C
:101C700040F2044400F09CF82D4A2E49D2F88030FE
:101C80002D4843F00303C2F880302C4BC1F860416B
:101C900002681A4203D1D1F8A8319A071BD0254A0D
:101CA0004FF00041244B5963D2F8403143F0020316
:101CB000C2F84031D2F840319B07FBD44FF40030DA
:101CC0004FF0E0211C4B4FF00042C1F88C0219206C
:101CD0009A6300F081F8184B0021164C4FF08042B7
:101CE0000A209A634FF480621960C4F8A80114486E
:101CF00000F076F84FF4800203464FF4810040F282
:101D000043111860C4F858311A640E4B0E4AC4F8D7
:101D10004811C3F804224FF0E0224FF400310123B0
:101D2000C2F80C11C4F8403110BD00BF00800D4056
:101D300000C00F4000002E4000900D40001C1E000F
:101D40000000002000340020911A010008B50E4B5D
:101D50001B6E9B0700D4FBBE72B60C4B00200C4AD6
:101D6000C3F8400103F160430A49A3F55F231164FE
:101D70009D46BFF34F8F4FF40013074A0748DB69B6
:101D800002609B68984700BF00441F4000002E403F
:101D900000C00A4003002000000012EB0080202059
:101DA000F8B500BFF8BC08BC9E46704700000000B4
:101DB0005FF800F0B12101005FF800F0F14C010084
:101DC0005FF800F0F12D01005FF800F08D2C0100AC
:101DD0005FF800F0990A01005FF800F0AD0D010016
:101DE0005FF800F0A14A01005FF800F0FD14010067
:101DF00005010000456E0000D56E0000D180000096
:081E00000D890000D9D100009A
:101E08006CC00F40030000000E0D000079E20000D6
:101E18002A36000014000000130000000100000032
:101E2800F4841F402B32000014000000130000004F
:101E380001000000F8841F402D310000140000004C
:101E48001300000001000000F0841F402CFFFF0079
:101E58001400000000000000000000000100000065
:101E680000000000EC841F4000000000000000009B
:101E78006CC00F4030000000100F000079E2000035
:101E880001270000170000001200000000010000F8
:101E980014851F401AFF0000120000000000000017
:101EA8000100000018851F401BFF00001200000001
:101EB800000000000100000010851F400026FF0000
:101EC80017000000120000000000000001010000DF
:101ED800010000000C851F400C851F400000000019
:101EE8006CC00F40C0000000504F00004DE30000E0
:101EF8000CFF0000130000000000000000000000BC
:101F080024851F400BFF00001300000000000000A4
:101F18000000000028851F400DFF0000130000008E
:101F2800000000000000000020851F400A25240052
:101F3800130000001200000012000000010203005C
:101F48000000000000000000000000000000000089
:101F58000901809611800A3A81550A3601082A0437
:101F6800000000F02B040000014021800A13800AC1
:101F780029800A0010034D0049004D002000500040
:101F88006F00430008034D0049004D000403090495
:101F98000902BA00050100A0FA080B0004FFFFFFC0
:101FA800000904000002FF5D010011210001012564
:101FB80081140000000013020800000705810320B7
:101FC8000004070502032000080904010004FF5D5E
:101FD80003001B2100010101834001042016850034
:101FE800000000000016050000000000000705833F
:101FF80003200002070504032000040705850320C9
:102008000040070505032000100904020001FF5DD8
:102018000200092100010122860700070586032026
:1020280000100904030000FFFD130406410001012C
:102038000309040400010300000009211101000143
:10204800221C000705870340000A00000902BA00A5
:10205800050100A0FA080B0004FFFFFF00090400B7
:102068000002FF5D0100112100010125811400001B
:10207800000013020800000705810320000407057B
:1020880002032000080904010004FF5D03001B216E
:1020980000010101834001042016850000000000B2
:1020A8000016050000000000000705830320000259
:1020B80007050403200004070585032000400705E1
:1020C80005032000100904020001FF5D0200092138
:1020D8000001012286070007058603200010090475
:1020E800030000FFFD130406410001010309040475
:1020F800000103000000092111010001221C000752
:1021080005870340000A00000A060002EF020140AA
:0421180001000000C2
:10211C0000000000000000000000000000000000B3
:10212C0000000000000000000000000000000000A3
:10213C00F8B54FF084439D695A6915400DD0254F71
:10214C0001269D6195FAA5F4B4FA84F457F824306D
:10215C0006FA04F49847A543F4D11F4B9D695A69BC
:10216C0015400DD01D4F01269D6195FAA5F4B4FACA
:10217C0084F457F8243006FA04F49847A543F4D1B4
:10218C00174B9D695A6915400DD0164F01269D615C
:10219C0095FAA5F4B4FA84F457F8243006FA04F44A
:1021AC009847A543F4D1104B9D695A6915400DD041
:1021BC000E4F01269D6195FAA5F4B4FA84F457F8F4
:1021CC00243006FA04F49847A543F4D1BFF34F8F9B
:1021DC00F8BD00BF642E002000400042E42E002019
:1021EC0000800042642F002000C00042E42F002039
:1021FC000548064B1B1AD90F01EBA301491002D05D
:10220C00034B03B118477047C0360020C03600207E
:10221C000000000008B5054B1BB105490548AFF39C
:10222C000080BDE80840FFF7E3BF00BF00000000DE
:10223C003C6A002000100260704700BF704700BF6E
:10224C00704700BF562802D1034B01229A73034BEF
:10225C001B6803B118477047A04500201C62002082
:10226C00562802D1034B00229A73034B1B6803B10F
:10227C0018477047A04500202C6200200023838261
:10228C00C0E90333704700BF704700BF012A57D124
:10229C002DE9F04F85B00E9A082A8CBF002201223E
:1022AC001AB1002005B0BDE8F08FB1F81EE040F285
:1022BC005E4CE645F5D193F805C0BCF1FF0FF0D1AB
:1022CC0093F806C0BCF1470FEBD193F800C00E9CFD
:1022DC009C4423440CF1060E7345E2D3934690467E
:1022EC0092469146174603921A4604E0F4440CF1C8
:1022FC00060E724526D39CF800E0BEF1030F21D9DF
:10230C009CF80130052BF1D1BEF1060FEED99CF8EB
:10231C00033003F00303032BE8D19CF902309CF843
:10232C000240002BBCF804509CF806602DDBB8F181
:10233C00000FDBD104F00F08C5F30A0B0396D5E7A9
:10234C00002070473A46002FABD04B460D46044652
:10235C000321402B2846CDF804A028BF402300932E
:10236C00012309F0A7F9E06000289AD0174A234608
:10237C0004F13401C263402208F0F4FDB8F1000FFF
:10238C000BD10123184663758CE7002FAED104F0F6
:10239C000F07C5F30A09B246A8E75946039B424604
:1023AC002846052901934FF0000328BF0521009111
:1023BC00032109F07FF9234620610028E1D004496C
:1023CC000522C163034908F0CDFDDAE7190A0000C4
:1023DC0079010000902A002008B52DED028B9FEDAD
:1023EC001D8A1D49012010F0CBFA07EE900AF8EE79
:1023FC00E77AC7EE888AF5EE408AF1EE10FAF0D053
:10240C001549002010F0BCFA07EE900AB0EE680AED
:10241C00F8EEE77AC7EE888A12F0DAFDF8EE007A69
:10242C0020EE270AB5EE400AF1EE10FA0CD4B1EE0C
:10243C00C08A9FED0A0A28EE800A12F0C1FF20EE36
:10244C00080ABDEC028B08BD12F09AFDB0EE408A72
:10245C00EFE700BF0024744941420F00DB0FC94075
:10246C0008B52DED048B09EE900A9FED227A40F20F
:10247C00E9312148F8EE697A67EE807A87EE879A1F
:10248C0010F07EFA40F2E93108EE900A1A4810F08A
:10249C0077FA08EE100A40F2E9311748F8EEE88AAC
:1024AC0010F06EFAB8EEC88A07EE100A9FED136AA8
:1024BC0019EE902AB8EEC77ADFED116A38EE288A49
:1024CC0047F6FF7337EE087AC7EE067A67EE897A1D
:1024DC00BDEC048B67EEA67AFDEEE77A17EE900A58
:1024EC0010449842A8BF18460128B8BF012080B2FA
:1024FC0008BD00BF0000C84218FCFFFF00803B4530
:10250C002DB25D40464AF8B511680023454D04468E
:10251C002B5411B18B79002B2FD1434A1378A34242
:10252C0001D1002B78D1414B196829B38B791BB39E
:10253C00C87A08B33E4D002395F800C008E0032A82
:10254C0002D1CA7B012A60D0984201F11A0113D042
:10255C00DAB201339445F7D10A7B012AEFD1CA7B59
:10256C00012AF1D14A7BA242EED1002331483249F3
:10257C00FF2203700B702A70F8BD304B1B78002BB8
:10258C00CBD191F807E0BEF1000FC6D0012301F1C9
:10259C00080701F109060DE0A44501D1285CD0B172
:1025AC00082B18BF724503F1010334BF012200222E
:1025BC00002AB2D017F82300DAB20028F0D016F8AF
:1025CC0023C0BCF1000FEBD0A042E5D115F80C00F4
:1025DC0008B1A445E4D188680133DFED197A00EE27
:1025EC00100A184A01EB8303B4EEE70A1568D88881
:1025FC00F1EE10FA02D410B1FFF732FF0544124A83
:10260C00012315600D4A137087E74A7BA242ACD0B8
:10261C008A7BA24298D1A8E700231370F8BD00BFB3
:10262C00145C0020A46200203E6C0020A4630020F7
:10263C002E310020466C0020416C0020436C0020A1
:10264C000AD7233C0C6B0020AC60002030B5002274
:10265C000B7989B0044658070692CDE9042203F0A1
:10266C0001024FEA822248BF42F040021D0748BFD8
:10267C0042F08002D80648BF42F001029D0648BFD6
:10268C0042F00202580648BF42F004021B064B7986
:10269C0048BF42F00802DD0648BF42F0100298061F
:1026AC0048BF42F020025D0648BF42F48072180613
:1026BC0023EA930048BF42F4007220EAD300C50716
:1026CC0062D403EAD300C00733D50123009204F18E
:1026DC00180C0A89C88892014D89B1F80EE0800166
:1026EC008DF818300023ADF80E20A5F500458A8929
:1026FC00AEF5004E098AADF80C00A2F500401A4662
:10270C00A1F5004165F30F0301256EF30F02EE46B0
:10271C0060F31F4361F31F42CDE90132BEE80F00A5
:10272C00ACE80F009EE807008CE80700257509B09F
:10273C0030BD03F00105C3F340004FEA530C85F0A4
:10274C00010580F0010005EAD30E1EEA000F1FD12F
:10275C000CEAD30E1EF0010F18D12CEA930E2EEAC0
:10276C00D30E1EF0010F19D10CEA930C1CF0010FC3
:10277C0010D100EA930005420ED103EA930303F053
:10278C000103C3F10803A1E700239FE703239DE79F
:10279C0002239BE7052399E7062397E7042395E794
:1027AC0010B52DED028B90F824C088B0974BBCF17E
:1027BC00020F1B6800F08780D0ED017AB0EE406A02
:1027CC009FED937AF4EEC77AF1EE10FA06DD046C05
:1027DC00A3EB040CBCF1630F00F2BC80846D90ED94
:1027EC00147A1B1BB8EE477A07EE903AF8EE677A2C
:1027FC00F4EEC77AF1EE10FA61D577EE677A9FEDB9
:10280C00855AC7EE876AF4EEC56AF1EE10FA56D90E
:10281C00D0ED047A90ED057A66EEA77A90ED014A38
:10282C0066EE876A90ED157ADFED794AF8EE475A35
:10283C0067EE867A26EE860AB4EEE44A87EEA57A2F
:10284C00C0EE257AF1EE10FAB8FE477ABDEEC77AE3
:10285C0017EE103AF8FE677AFDEEE77A0B8017EE6A
:10286C00903A13802BDDB1F90030B7EE006AD0ED51
:10287C00026A07EE903A90ED037A76EE866AF8EEED
:10288C00E77A37EE067AC6FE856A67EEA67A87FE89
:10289C00057AF8FE677AFDEEE77A17EE903A0B8030
:1028AC00B2F9003007EE903AF8EEE77A67EE877AE5
:1028BC00F8FE677AFDEEE77A17EE903A138008B0CF
:1028CC00BDEC028B10BD846DA3EB040C046DA44510
:1028DC005FD290F82CC0BCF1000F32D0046BA3EB8C
:1028EC00040EE645EBD3D0ED0A5A9FED4B6A90ED02
:1028FC00047AC5EE867AD0ED056A036327EE877AF3
:10290C0067EEA67A80ED0E7AC0ED0F7AD0ED016AF3
:10291C0000239FED3F6A80F83430F4EEC66AF1EE86
:10292C0010FA3DDCB8FE477ABDEEC77AF8FE677A3E
:10293C00FDEEE77A17EE103A0B8017EE903A138003
:10294C00BDE790F83430002BB9D090ED0E7AD0ED75
:10295C000F7ADBE79FED307A8DED030A87EE878ADD
:10296C00CDE90103CDE90412FFF736FD019828EEFD
:10297C00000A80ED020AFFF72FFD28EE000A9DEDFC
:10298C00036ADDE90103DDE90412036480ED030A47
:10299C0024E7002380F8343008B0BDEC028B10BD66
:1029AC009FED1D6ACDED057A86EE868A8DED017A56
:1029BC00CDE90612FFF710FDF7EE006ADFED155AB0
:1029CC009DED017AB0EE666ACDED046ACDED035A49
:1029DC00A8EE006A86FE256A27EE067A8DED027A4D
:1029EC008DED017AFFF7F8FCDDED046ADDED035A9D
:1029FC00E8EE006ADDED057A9DED017ADDE906125F
:102A0C00C6FEA56A67EEA67A8CE700BF0C6B0020A9
:102A1C006F12833A000000000000C8424FF01A0CFD
:102A2C001B4A01EB810312680CFB0033134493F82F
:102A3C0012C0BCF1000F27D0DFED167ADFF860C0B2
:102A4C0000B5D2F8072083B0B3F8130000EE102ABB
:102A5C00DCF80030B4EEE70AF1EE10FA12D430B123
:102A6C00CDE90031FFF7FCFC009B01990344DFF832
:102A7C0034C00948094ACCF80030012301701370A6
:102A8C0003B000BD0344F2E7034B197000F00CB81F
:102A9C00A46300200AD7233C426C0020466C002023
:102AAC000C6B0020F860002000B5DFF874E09EF895
:102ABC0000100131C9B2032918D8164B01EB810261
:102ACC001B6813441A2202FB003303E05FFA8CF1FB
:102ADC0004290BD09A7C01F1010C0533002AF5D0A6
:102AEC008EF800105DF804EBFFF798BF0A4A1378D4
:102AFC0043B9DFF830C0FF20084913708CF8003060
:102B0C00087000BD00218EF800105DF804EBFFF793
:102B1C0085BF00BFA4630020416C00202E31002033
:102B2C00426C0020466C0020C36B2BB3826803F10F
:102B3C003401C2F30E422F3A112A18D993F83420DB
:102B4C00202A14D193F837200E2A10D1184600B53C
:102B5C0083B001910093FFF779FDDDE90031D8686E
:102B6C0058B1402203B05DF804EB08F0FBB9D8680B
:102B7C0010B1402208F0F6B9704703B000BD00BF99
:102B8C00204A137800B583B00BB100231370DFF823
:102B9C0084C01A23DFF880E0DCF800C08EF8000057
:102BAC0003FB00C3DFF874E08EF80010997C11B3BE
:102BBC00DCF80700DFED147A00EE100A1349B3F8C5
:102BCC001300B4EEE70A0B68F1EE10FA11D428B139
:102BDC000193FFF745FC019B0A4A0344DFF840C010
:102BEC0000200B49CCF8003001230870137003B09F
:102BFC0000BD0344F2E7064B197003B05DF804EB1B
:102C0C00FFF752BF466C00200AD7233C0C6B002008
:102C1C00426C0020A46300202E310020416C002067
:102C2C00F86000201D4BD3F8D8201068916800681C
:102C3C0010B40842137C546814BF0121002103F026
:102C4C000303D4F800C0D06843EA81031CEA000FE8
:102C5C0043F0080118BF0B469908013B11740D2B6A
:102C6C000BD8DFE803F0110C070C0A161111160A29
:102C7C000C070C1153690233536110BC7047536934
:102C8C00013B10BC536170475369013310BC536155
:102C9C0070475369023B10BC5361704700640020BD
:102CAC001D4BD3F8D42010689168006810B408420A
:102CBC00137C546814BF0121002103F00303D4F8E2
:102CCC0000C0D06843EA81031CEA000F43F00801FE
:102CDC0018BF0B469908013B11740D2B0BD8DFE87C
:102CEC0003F0110C070C0A161111160A0C070C1123
:102CFC0053690233536110BC70475369013B10BCDC
:102D0C00536170475369013310BC53617047536969
:102D1C00023B10BC53617047006400201D4BD3F87C
:102D2C00D02010689168006810B40842137C546875
:102D3C0014BF0121002103F00303D4F800C0D068B4
:102D4C0043EA81031CEA000F43F0080118BF0B464D
:102D5C009908013B11740D2B0BD8DFE803F0110C13
:102D6C00070C0A161111160A0C070C1153690233C1
:102D7C00536110BC70475369013B10BC53617047E1
:102D8C005369013310BC536170475369023B10BC4B
:102D9C0053617047006400201D4BD3F8CC201068A1
:102DAC009168006810B40842137C546814BF012168
:102DBC00002103F00303D4F800C0D06843EA810378
:102DCC001CEA000F43F0080118BF0B469908013BA1
:102DDC0011740D2B0BD8DFE803F0110C070C0A163D
:102DEC001111160A0C070C1153690233536110BCF4
:102DFC0070475369013B10BC5361704753690133F1
:102E0C0010BC536170475369023B10BC536170474F
:102E1C00006400201D4BD3F8C8201068916800682E
:102E2C0010B40842137C546814BF0121002103F034
:102E3C000303D4F800C0D06843EA81031CEA000FF6
:102E4C0043F0080118BF0B469908013B11740D2B78
:102E5C000BD8DFE803F0110C070C0A161111160A37
:102E6C000C070C1153690233536110BC7047536942
:102E7C00013B10BC536170475369013310BC536163
:102E8C0070475369023B10BC5361704700640020CB
:102E9C001D4BD3F8C42010689168006810B4084228
:102EAC00137C546814BF0121002103F00303D4F8F0
:102EBC0000C0D06843EA81031CEA000F43F008010C
:102ECC0018BF0B469908013B11740D2B0BD8DFE88A
:102EDC0003F0110C070C0A161111160A0C070C1131
:102EEC0053690233536110BC70475369013B10BCEA
:102EFC00536170475369013310BC53617047536978
:102F0C00023B10BC53617047006400201D4BD3F88A
:102F1C00C02010689168006810B40842137C546893
:102F2C0014BF0121002103F00303D4F800C0D068C2
:102F3C0043EA81031CEA000F43F0080118BF0B465B
:102F4C009908013B11740D2B0BD8DFE803F0110C21
:102F5C00070C0A161111160A0C070C1153690233CF
:102F6C00536110BC70475369013B10BC53617047EF
:102F7C005369013310BC536170475369023B10BC59
:102F8C0053617047006400201D4BD3F8BC201068BF
:102F9C009168006810B40842137C546814BF012176
:102FAC00002103F00303D4F800C0D06843EA810386
:102FBC001CEA000F43F0080118BF0B469908013BAF
:102FCC0011740D2B0BD8DFE803F0110C070C0A164B
:102FDC001111160A0C070C1153690233536110BC02
:102FEC0070475369013B10BC5361704753690133FF
:102FFC0010BC536170475369023B10BC536170475E
:10300C00006400201D4BD3F8B8201068916800684C
:10301C0010B40842137C546814BF0121002103F042
:10302C000303D4F800C0D06843EA81031CEA000F04
:10303C0043F0080118BF0B469908013B11740D2B86
:10304C000BD8DFE803F0110C070C0A161111160A45
:10305C000C070C1153690233536110BC7047536950
:10306C00013B10BC536170475369013310BC536171
:10307C0070475369023B10BC5361704700640020D9
:10308C001D4BD3F8B42010689168006810B4084246
:10309C00137C546814BF0121002103F00303D4F8FE
:1030AC0000C0D06843EA81031CEA000F43F008011A
:1030BC0018BF0B469908013B11740D2B0BD8DFE898
:1030CC0003F0110C070C0A161111160A0C070C113F
:1030DC0053690233536110BC70475369013B10BCF8
:1030EC00536170475369013310BC53617047536986
:1030FC00023B10BC53617047006400201D4BD3F899
:10310C00B02010689168006810B40842137C5468B1
:10311C0014BF0121002103F00303D4F800C0D068D0
:10312C0043EA81031CEA000F43F0080118BF0B4669
:10313C009908013B11740D2B0BD8DFE803F0110C2F
:10314C00070C0A161111160A0C070C1153690233DD
:10315C00536110BC70475369013B10BC53617047FD
:10316C005369013310BC536170475369023B10BC67
:10317C0053617047006400201D4BD3F8AC201068DD
:10318C009168006810B40842137C546814BF012184
:10319C00002103F00303D4F800C0D06843EA810394
:1031AC001CEA000F43F0080118BF0B469908013BBD
:1031BC0011740D2B0BD8DFE803F0110C070C0A1659
:1031CC001111160A0C070C1153690233536110BC10
:1031DC0070475369013B10BC53617047536901330D
:1031EC0010BC536170475369023B10BC536170476C
:1031FC00006400201D4BD3F8A8201068916800686B
:10320C0010B40842137C546814BF0121002103F050
:10321C000303D4F800C0D06843EA81031CEA000F12
:10322C0043F0080118BF0B469908013B11740D2B94
:10323C000BD8DFE803F0110C070C0A161111160A53
:10324C000C070C1153690233536110BC704753695E
:10325C00013B10BC536170475369013310BC53617F
:10326C0070475369023B10BC5361704700640020E7
:10327C001D4BD3F8A42010689168006810B4084264
:10328C00137C546814BF0121002103F00303D4F80C
:10329C0000C0D06843EA81031CEA000F43F0080128
:1032AC0018BF0B469908013B11740D2B0BD8DFE8A6
:1032BC0003F0110C070C0A161111160A0C070C114D
:1032CC0053690233536110BC70475369013B10BC06
:1032DC00536170475369013310BC53617047536994
:1032EC00023B10BC53617047006400201D4BD3F8A7
:1032FC00A02010689168006810B40842137C5468D0
:10330C0014BF0121002103F00303D4F800C0D068DE
:10331C0043EA81031CEA000F43F0080118BF0B4677
:10332C009908013B11740D2B0BD8DFE803F0110C3D
:10333C00070C0A161111160A0C070C1153690233EB
:10334C00536110BC70475369013B10BC536170470B
:10335C005369013310BC536170475369023B10BC75
:10336C0053617047006400201D4BD3F89C201068FB
:10337C009168006810B40842137C546814BF012192
:10338C00002103F00303D4F800C0D06843EA8103A2
:10339C001CEA000F43F0080118BF0B469908013BCB
:1033AC0011740D2B0BD8DFE803F0110C070C0A1667
:1033BC001111160A0C070C1153690233536110BC1E
:1033CC0070475369013B10BC53617047536901331B
:1033DC0010BC536170475369023B10BC536170477A
:1033EC00006400201D4BD3F8982010689168006889
:1033FC0010B40842137C546814BF0121002103F05F
:10340C000303D4F800C0D06843EA81031CEA000F20
:10341C0043F0080118BF0B469908013B11740D2BA2
:10342C000BD8DFE803F0110C070C0A161111160A61
:10343C000C070C1153690233536110BC704753696C
:10344C00013B10BC536170475369013310BC53618D
:10345C0070475369023B10BC5361704700640020F5
:10346C001D4BD3F8942010689168006810B4084282
:10347C00137C546814BF0121002103F00303D4F81A
:10348C0000C0D06843EA81031CEA000F43F0080136
:10349C0018BF0B469908013B11740D2B0BD8DFE8B4
:1034AC0003F0110C070C0A161111160A0C070C115B
:1034BC0053690233536110BC70475369013B10BC14
:1034CC00536170475369013310BC536170475369A2
:1034DC00023B10BC53617047006400201D4BD3F8B5
:1034EC00902010689168006810B40842137C5468EE
:1034FC0014BF0121002103F00303D4F800C0D068ED
:10350C0043EA81031CEA000F43F0080118BF0B4685
:10351C009908013B11740D2B0BD8DFE803F0110C4B
:10352C00070C0A161111160A0C070C1153690233F9
:10353C00536110BC70475369013B10BC5361704719
:10354C005369013310BC536170475369023B10BC83
:10355C0053617047006400201D4BD3F88C20106819
:10356C009168006810B40842137C546814BF0121A0
:10357C00002103F00303D4F800C0D06843EA8103B0
:10358C001CEA000F43F0080118BF0B469908013BD9
:10359C0011740D2B0BD8DFE803F0110C070C0A1675
:1035AC001111160A0C070C1153690233536110BC2C
:1035BC0070475369013B10BC536170475369013329
:1035CC0010BC536170475369023B10BC5361704788
:1035DC00006400201D4BD3F88820106891680068A7
:1035EC0010B40842137C546814BF0121002103F06D
:1035FC000303D4F800C0D06843EA81031CEA000F2F
:10360C0043F0080118BF0B469908013B11740D2BB0
:10361C000BD8DFE803F0110C070C0A161111160A6F
:10362C000C070C1153690233536110BC704753697A
:10363C00013B10BC536170475369013310BC53619B
:10364C0070475369023B10BC536170470064002003
:10365C001D4BD3F8842010689168006810B40842A0
:10366C00137C546814BF0121002103F00303D4F828
:10367C0000C0D06843EA81031CEA000F43F0080144
:10368C0018BF0B469908013B11740D2B0BD8DFE8C2
:10369C0003F0110C070C0A161111160A0C070C1169
:1036AC0053690233536110BC70475369013B10BC22
:1036BC00536170475369013310BC536170475369B0
:1036CC00023B10BC53617047006400201D4BD3F8C3
:1036DC00802010689168006810B40842137C54680C
:1036EC0014BF0121002103F00303D4F800C0D068FB
:1036FC0043EA81031CEA000F43F0080118BF0B4694
:10370C009908013B11740D2B0BD8DFE803F0110C59
:10371C00070C0A161111160A0C070C115369023307
:10372C00536110BC70475369013B10BC5361704727
:10373C005369013310BC536170475369023B10BC91
:10374C0053617047006400201D4BDA6F106891685C
:10375C00006810B40842137C546814BF0121002186
:10376C0003F00303D4F800C0D06843EA81031CEAD9
:10377C00000F43F0080118BF0B469908013B117468
:10378C000D2B0BD8DFE803F0110C070C0A161111E6
:10379C00160A0C070C1153690233536110BC7047A5
:1037AC005369013B10BC536170475369013310BC22
:1037BC00536170475369023B10BC5361704700BFA3
:1037CC00006400201D4B9A6F10689168006810B45B
:1037DC000842137C546814BF0121002103F0030339
:1037EC00D4F800C0D06843EA81031CEA000F43F010
:1037FC00080118BF0B469908013B11740D2B0BD80F
:10380C00DFE803F0110C070C0A161111160A0C074D
:10381C000C1153690233536110BC70475369013B5F
:10382C0010BC536170475369013310BC536170472E
:10383C005369023B10BC5361704700BF0064002009
:10384C001D4B5A6F10689168006810B40842137CC5
:10385C00546814BF0121002103F00303D4F800C005
:10386C00D06843EA81031CEA000F43F0080118BF3B
:10387C000B469908013B11740D2B0BD8DFE803F0B4
:10388C00110C070C0A161111160A0C070C115369AE
:10389C000233536110BC70475369013B10BC536138
:1038AC0070475369013310BC536170475369023B35
:1038BC0010BC5361704700BF006400201D4B1A6F91
:1038CC0010689168006810B40842137C546814BFE7
:1038DC000121002103F00303D4F800C0D06843EAAF
:1038EC0081031CEA000F43F0080118BF0B4699082E
:1038FC00013B11740D2B0BD8DFE803F0110C070CF6
:10390C000A161111160A0C070C1153690233536174
:10391C0010BC70475369013B10BC5361704753692D
:10392C00013310BC536170475369023B10BC5361A7
:10393C00704700BF006400201D4BDA6E1068916860
:10394C00006810B40842137C546814BF0121002194
:10395C0003F00303D4F800C0D06843EA81031CEAE7
:10396C00000F43F0080118BF0B469908013B117476
:10397C000D2B0BD8DFE803F0110C070C0A161111F4
:10398C00160A0C070C1153690233536110BC7047B3
:10399C005369013B10BC536170475369013310BC30
:1039AC00536170475369023B10BC5361704700BFB1
:1039BC00006400201D4B9A6E10689168006810B46A
:1039CC000842137C546814BF0121002103F0030347
:1039DC00D4F800C0D06843EA81031CEA000F43F01E
:1039EC00080118BF0B469908013B11740D2B0BD81D
:1039FC00DFE803F0110C070C0A161111160A0C075C
:103A0C000C1153690233536110BC70475369013B6D
:103A1C0010BC536170475369013310BC536170473C
:103A2C005369023B10BC5361704700BF0064002017
:103A3C001D4B5A6E10689168006810B40842137CD4
:103A4C00546814BF0121002103F00303D4F800C013
:103A5C00D06843EA81031CEA000F43F0080118BF49
:103A6C000B469908013B11740D2B0BD8DFE803F0C2
:103A7C00110C070C0A161111160A0C070C115369BC
:103A8C000233536110BC70475369013B10BC536146
:103A9C0070475369013310BC536170475369023B43
:103AAC0010BC5361704700BF006400201D4B1A6EA0
:103ABC0010689168006810B40842137C546814BFF5
:103ACC000121002103F00303D4F800C0D06843EABD
:103ADC0081031CEA000F43F0080118BF0B4699083C
:103AEC00013B11740D2B0BD8DFE803F0110C070C04
:103AFC000A161111160A0C070C1153690233536183
:103B0C0010BC70475369013B10BC5361704753693B
:103B1C00013310BC536170475369023B10BC5361B5
:103B2C00704700BF006400201D4BDA6D106891686F
:103B3C00006810B40842137C546814BF01210021A2
:103B4C0003F00303D4F800C0D06843EA81031CEAF5
:103B5C00000F43F0080118BF0B469908013B117484
:103B6C000D2B0BD8DFE803F0110C070C0A16111102
:103B7C00160A0C070C1153690233536110BC7047C1
:103B8C005369013B10BC536170475369013310BC3E
:103B9C00536170475369023B10BC5361704700BFBF
:103BAC00006400201D4B9A6D10689168006810B479
:103BBC000842137C546814BF0121002103F0030355
:103BCC00D4F800C0D06843EA81031CEA000F43F02C
:103BDC00080118BF0B469908013B11740D2B0BD82B
:103BEC00DFE803F0110C070C0A161111160A0C076A
:103BFC000C1153690233536110BC70475369013B7C
:103C0C0010BC536170475369013310BC536170474A
:103C1C005369023B10BC5361704700BF0064002025
:103C2C001D4B5A6D10689168006810B40842137CE3
:103C3C00546814BF0121002103F00303D4F800C021
:103C4C00D06843EA81031CEA000F43F0080118BF57
:103C5C000B469908013B11740D2B0BD8DFE803F0D0
:103C6C00110C070C0A161111160A0C070C115369CA
:103C7C000233536110BC70475369013B10BC536154
:103C8C0070475369013310BC536170475369023B51
:103C9C0010BC5361704700BF006400201D4B1A6DAF
:103CAC0010689168006810B40842137C546814BF03
:103CBC000121002103F00303D4F800C0D06843EACB
:103CCC0081031CEA000F43F0080118BF0B4699084A
:103CDC00013B11740D2B0BD8DFE803F0110C070C12
:103CEC000A161111160A0C070C1153690233536191
:103CFC0010BC70475369013B10BC5361704753694A
:103D0C00013310BC536170475369023B10BC5361C3
:103D1C00704700BF006400201D4BDA6C106891687E
:103D2C00006810B40842137C546814BF01210021B0
:103D3C0003F00303D4F800C0D06843EA81031CEA03
:103D4C00000F43F0080118BF0B469908013B117492
:103D5C000D2B0BD8DFE803F0110C070C0A16111110
:103D6C00160A0C070C1153690233536110BC7047CF
:103D7C005369013B10BC536170475369013310BC4C
:103D8C00536170475369023B10BC5361704700BFCD
:103D9C00006400201D4B9A6C10689168006810B488
:103DAC000842137C546814BF0121002103F0030363
:103DBC00D4F800C0D06843EA81031CEA000F43F03A
:103DCC00080118BF0B469908013B11740D2B0BD839
:103DDC00DFE803F0110C070C0A161111160A0C0778
:103DEC000C1153690233536110BC70475369013B8A
:103DFC0010BC536170475369013310BC5361704759
:103E0C005369023B10BC5361704700BF0064002033
:103E1C001D4B5A6C10689168006810B40842137CF2
:103E2C00546814BF0121002103F00303D4F800C02F
:103E3C00D06843EA81031CEA000F43F0080118BF65
:103E4C000B469908013B11740D2B0BD8DFE803F0DE
:103E5C00110C070C0A161111160A0C070C115369D8
:103E6C000233536110BC70475369013B10BC536162
:103E7C0070475369013310BC536170475369023B5F
:103E8C0010BC5361704700BF006400201D4B1A6CBE
:103E9C0010689168006810B40842137C546814BF11
:103EAC000121002103F00303D4F800C0D06843EAD9
:103EBC0081031CEA000F43F0080118BF0B46990858
:103ECC00013B11740D2B0BD8DFE803F0110C070C20
:103EDC000A161111160A0C070C115369023353619F
:103EEC0010BC70475369013B10BC53617047536958
:103EFC00013310BC536170475369023B10BC5361D2
:103F0C00704700BF006400201D4BDA6B106891688D
:103F1C00006810B40842137C546814BF01210021BE
:103F2C0003F00303D4F800C0D06843EA81031CEA11
:103F3C00000F43F0080118BF0B469908013B1174A0
:103F4C000D2B0BD8DFE803F0110C070C0A1611111E
:103F5C00160A0C070C1153690233536110BC7047DD
:103F6C005369013B10BC536170475369013310BC5A
:103F7C00536170475369023B10BC5361704700BFDB
:103F8C00006400201D4B9A6B10689168006810B497
:103F9C000842137C546814BF0121002103F0030371
:103FAC00D4F800C0D06843EA81031CEA000F43F048
:103FBC00080118BF0B469908013B11740D2B0BD847
:103FCC00DFE803F0110C070C0A161111160A0C0786
:103FDC000C1153690233536110BC70475369013B98
:103FEC0010BC536170475369013310BC5361704767
:103FFC005369023B10BC5361704700BF0064002042
:10400C001D4B5A6B10689168006810B40842137C01
:10401C00546814BF0121002103F00303D4F800C03D
:10402C00D06843EA81031CEA000F43F0080118BF73
:10403C000B469908013B11740D2B0BD8DFE803F0EC
:10404C00110C070C0A161111160A0C070C115369E6
:10405C000233536110BC70475369013B10BC536170
:10406C0070475369013310BC536170475369023B6D
:10407C0010BC5361704700BF006400201D4B1A6BCD
:10408C0010689168006810B40842137C546814BF1F
:10409C000121002103F00303D4F800C0D06843EAE7
:1040AC0081031CEA000F43F0080118BF0B46990866
:1040BC00013B11740D2B0BD8DFE803F0110C070C2E
:1040CC000A161111160A0C070C11536902335361AD
:1040DC0010BC70475369013B10BC53617047536966
:1040EC00013310BC536170475369023B10BC5361E0
:1040FC00704700BF006400201D4BDA6A106891689D
:10410C00006810B40842137C546814BF01210021CC
:10411C0003F00303D4F800C0D06843EA81031CEA1F
:10412C00000F43F0080118BF0B469908013B1174AE
:10413C000D2B0BD8DFE803F0110C070C0A1611112C
:10414C00160A0C070C1153690233536110BC7047EB
:10415C005369013B10BC536170475369013310BC68
:10416C00536170475369023B10BC5361704700BFE9
:10417C00006400201D4B9A6A10689168006810B4A6
:10418C000842137C546814BF0121002103F003037F
:10419C00D4F800C0D06843EA81031CEA000F43F056
:1041AC00080118BF0B469908013B11740D2B0BD855
:1041BC00DFE803F0110C070C0A161111160A0C0794
:1041CC000C1153690233536110BC70475369013BA6
:1041DC0010BC536170475369013310BC5361704775
:1041EC005369023B10BC5361704700BF0064002050
:1041FC001D4B5A6A10689168006810B40842137C11
:10420C00546814BF0121002103F00303D4F800C04B
:10421C00D06843EA81031CEA000F43F0080118BF81
:10422C000B469908013B11740D2B0BD8DFE803F0FA
:10423C00110C070C0A161111160A0C070C115369F4
:10424C000233536110BC70475369013B10BC53617E
:10425C0070475369013310BC536170475369023B7B
:10426C0010BC5361704700BF006400201D4B1A6ADC
:10427C0010689168006810B40842137C546814BF2D
:10428C000121002103F00303D4F800C0D06843EAF5
:10429C0081031CEA000F43F0080118BF0B46990874
:1042AC00013B11740D2B0BD8DFE803F0110C070C3C
:1042BC000A161111160A0C070C11536902335361BB
:1042CC0010BC70475369013B10BC53617047536974
:1042DC00013310BC536170475369023B10BC5361EE
:1042EC00704700BF006400201D4BDA6910689168AC
:1042FC00006810B40842137C546814BF01210021DB
:10430C0003F00303D4F800C0D06843EA81031CEA2D
:10431C00000F43F0080118BF0B469908013B1174BC
:10432C000D2B0BD8DFE803F0110C070C0A1611113A
:10433C00160A0C070C1153690233536110BC7047F9
:10434C005369013B10BC536170475369013310BC76
:10435C00536170475369023B10BC5361704700BFF7
:10436C00006400201D4B9A6910689168006810B4B5
:10437C000842137C546814BF0121002103F003038D
:10438C00D4F800C0D06843EA81031CEA000F43F064
:10439C00080118BF0B469908013B11740D2B0BD863
:1043AC00DFE803F0110C070C0A161111160A0C07A2
:1043BC000C1153690233536110BC70475369013BB4
:1043CC0010BC536170475369013310BC5361704783
:1043DC005369023B10BC5361704700BF006400205E
:1043EC001D4B5A6910689168006810B40842137C20
:1043FC00546814BF0121002103F00303D4F800C05A
:10440C00D06843EA81031CEA000F43F0080118BF8F
:10441C000B469908013B11740D2B0BD8DFE803F008
:10442C00110C070C0A161111160A0C070C11536902
:10443C000233536110BC70475369013B10BC53618C
:10444C0070475369013310BC536170475369023B89
:10445C0010BC5361704700BF006400201D4B1A69EB
:10446C0010689168006810B40842137C546814BF3B
:10447C000121002103F00303D4F800C0D06843EA03
:10448C0081031CEA000F43F0080118BF0B46990882
:10449C00013B11740D2B0BD8DFE803F0110C070C4A
:1044AC000A161111160A0C070C11536902335361C9
:1044BC0010BC70475369013B10BC53617047536982
:1044CC00013310BC536170475369023B10BC5361FC
:1044DC00704700BF006400201D4BDA6810689168BB
:1044EC00006810B40842137C546814BF01210021E9
:1044FC0003F00303D4F800C0D06843EA81031CEA3C
:10450C00000F43F0080118BF0B469908013B1174CA
:10451C000D2B0BD8DFE803F0110C070C0A16111148
:10452C00160A0C070C1153690233536110BC704707
:10453C005369013B10BC536170475369013310BC84
:10454C00536170475369023B10BC5361704700BF05
:10455C00006400201D4B9A6810689168006810B4C4
:10456C000842137C546814BF0121002103F003039B
:10457C00D4F800C0D06843EA81031CEA000F43F072
:10458C00080118BF0B469908013B11740D2B0BD871
:10459C00DFE803F0110C070C0A161111160A0C07B0
:1045AC000C1153690233536110BC70475369013BC2
:1045BC0010BC536170475369013310BC5361704791
:1045CC005369023B10BC5361704700BF006400206C
:1045DC001D4B5A6810689168006810B40842137C2F
:1045EC00546814BF0121002103F00303D4F800C068
:1045FC00D06843EA81031CEA000F43F0080118BF9E
:10460C000B469908013B11740D2B0BD8DFE803F016
:10461C00110C070C0A161111160A0C070C11536910
:10462C000233536110BC70475369013B10BC53619A
:10463C0070475369013310BC536170475369023B97
:10464C0010BC5361704700BF006400201D4B1A68FA
:10465C0010689168006810B40842137C546814BF49
:10466C000121002103F00303D4F800C0D06843EA11
:10467C0081031CEA000F43F0080118BF0B46990890
:10468C00013B11740D2B0BD8DFE803F0110C070C58
:10469C000A161111160A0C070C11536902335361D7
:1046AC0010BC70475369013B10BC53617047536990
:1046BC00013310BC536170475369023B10BC53610A
:1046CC00704700BF006400204B490122F8B54B4CE9
:1046DC000B782254002B67D149490A78002A71D1F2
:1046EC00484B1E68002E3AD0B379002B37D0464B7E
:1046FC00F17A1B681F4691B333460AE0BCF1020FF6
:10470C002ED193F80DC0844561D001321A338A4200
:10471C0025D093F80CC0D5B2BCF1010FEED193F8B3
:10472C000DC08445F1D11A2303FB0263D97B012907
:10473C0002D0022905D091B92846BDE8F840FEF711
:10474C001FBA32498B5C83F001038B54002B4CD184
:10475C002F4CFF212F48304A237003701170F8BD85
:10476C00BCF1030FD1D193F80DC0844507D093F859
:10477C000EE08645C9D114F80C30002BEFD01A236B
:10478C0003FB0263997B615C0029E8D0D97B01298A
:10479C00D2D00229CFD11D498B5C83F001038B54FD
:1047AC00002BD5D00121C7E700231C4C0A220B702B
:1047BC00207001461A480EF01DF81948BDE8F84063
:1047CC000DF0F0BF154A0B7010700A22F1E7154B73
:1047DC0053F8201043F820707B1A312BBFD91A21C3
:1047EC0001FB0262128A9A42B9D328460021BDE825
:1047FC00F840FEF7C5B900BF386C0020A462002059
:10480C00346C0020A46300200C6B0020C0600020DE
:10481C00466C0020416C00202E3100203E6C0020A4
:10482C00A0290020205C0020424B02689A4210B55F
:10483C007AD10379022B77D1431D00F12F0100248B
:10484C0013F8012F8B4284EA0204F9D14179A14279
:10485C005FD1D0ED027AF5EEC07AF1EE10FA63D4A6
:10486C00B7EE007AF4EEC77AF1EE10FA5CDCD0ED1C
:10487C00037AF5EEC07AF1EE10FA55D4F3EE046A31
:10488C00F4EEE67AF1EE10FA4EDCD0ED047ADFEDC0
:10489C002A6AF4EEE67AF1EE10FA45D4B1EE046A27
:1048AC00F4EEC67AF1EE10FA3EDCD0ED057AF4EEB9
:1048BC00E67AF1EE10FA37D4F4EEC77AF1EE10FA8C
:1048CC0032DCB6EE007AD0ED067AF4EEC77AF1EE71
:1048DC0010FA29D4B0EE087AF4EEC77AF1EE10FA99
:1048EC0022DC00F11B0400F12B0C14F8012F131F18
:1048FC0002F11001DBB2C9B2DB2B02D90AB10429D7
:10490C0012D8A445F1D190F82C30012B0CD80120F1
:10491C0010BD0023102209480DF06CFF002310225B
:10492C00214606480DF066FF04480DF03BFF0020C1
:10493C0010BD00BF314D4941CDCCCC3DA02900204C
:10494C00504B10B502689A4240F096800379022BC6
:10495C0040F09280431D00F13F01002413F8012F19
:10496C00994284EA0204F9D14179A14279D1002219
:10497C0000EB420101324B8A03F5FA739BB2B3F59B
:10498C007A7F79D80B8C03F5FA739BB2B3F57A7FE7
:10499C0072D8072AECD1428E40F6B8339A426BD8C3
:1049AC00828E9A4268D8D0F806309FED377A07EE9F
:1049BC00903AF4EEC77AF1EE10FA5DD4F2EE0E6A8C
:1049CC00F4EEE67AF1EE10FA56DCD0F82E3007EE63
:1049DC00903AF5EEC07AF1EE10FA4DD4F3EE046A8B
:1049EC00F4EEE67AF1EE10FA46DCD0F80A3007EE77
:1049FC00903AF4EEC77AF1EE10FA3DD4B2EE0E7A9C
:104A0C00F4EEC77AF1EE10FA36DC90F83630053B4E
:104A1C005A2B31D8D0F80E3042F21C52A3F5FA734F
:104A2C00934229D890F83730092B25D890F8383094
:104A3C00092B21D890F839301F2B1DD8C36BB7EE3A
:104A4C00007A07EE903AF4EEC77AF1EE10FA13D42E
:104A5C009FED0E7AF4EEC77AF1EE10FA0CDC012021
:104A6C0010BD002310220A480DF0C4FE00231022B2
:104A7C00214607480DF0BEFE05480DF093FE0020C0
:104A8C0010BD00BF314D4943CDCCCC3D000000449E
:104A9C00A029002010B5002304460E4A0321A3824E
:104AAC00226023630C48C4E90133C4E90333C4E92D
:104ABC000633C4E90833C4E90A330BF07DF9042149
:104ACC0006480BF091F9012105480BF0A7F9204697
:104ADC0010BD00BF381A0020E0420020E041002049
:104AEC00C4630020F8B504464FF440730025FF273B
:104AFC00A4F8983304F5EB63764A2030C4F85837A1
:104B0C004FF46873257022626570C4F8A803A57011
:104B1C00A4F85C37E570A573277165626771A562AF
:104B2C00C4F87853C4F87C5384F89A5384F85E57CD
:104B3C00C4E9E055C4E9E255C4E9E45507F0ECFBDF
:104B4C00654B04F5EC6084F8855703F14C02C4F80E
:104B5C006037C4F86457C4F86C27C4F86857C4F8B5
:104B6C00705784F87457C4F87857C4F87C57C4F855
:104B7C00805784F8845784F8865784F88757C4F88C
:104B8C008857C4F88C57C4F89057C4F894570BF056
:104B9C004FFB524B04F5F36084F81A5803F158029A
:104BAC00C4F89837A4F81C7804F50467C4F8A42753
:104BBC00C4F89C57C4F8A057C4F8A85784F8AC574D
:104BCC00C4F8B057C4F8B457C4F8C057C4F8C457A5
:104BDC0084F8F65784F8F857C4F80458C4F8085801
:104BEC00C4F80C58C4F81058C4F81458A4F8185841
:104BFC0084F81B5884F82758C4F82858C4F82C5843
:104C0C00C4F83058C4F834580AF054FD344B2946D3
:104C1C0004F6880003F16C02C4F840389833C4F8E9
:104C2C004458C4F84C2840F20112C4F858380123F7
:104C3C00A4F878284FF4807284F87A38C4F848586D
:104C4C00C4F85058C4F85458C4F85C5884F86058E8
:104C5C00C4F86458C4F8685884F86C58C4F8705890
:104C6C00C4F87458C4F87C58A4F8805884F8825856
:104C7C00C4F8845811F09CFF00220023C7E952238A
:104C8C00C7E9542340F2FF320023C7E95623C4F886
:104C9C00A059C4F8A459C4F8A859C4F8AC590EF0DA
:104CAC0063F9034684F8B4593846C4F8B03984F82B
:104CBC00D55CC4F8D65C08F0C1FB04F55860FFF76E
:104CCC00E9FE204684F8F45DC4F80650C4F80A5096
:104CDC00F8BD00BF74180020B0190020501B002034
:104CEC007C1A002000B583B0019005F0AFFE01984E
:104CFC00034A044BC0F8C027C0F8C43703B000BD4A
:104D0C00350100005101000030B5044683B00D465A
:104D1C0006F076FED4F8683794F88527003B02F04D
:104D2C00FF0118BF012384F8F43D12B9084603B003
:104D3C0030BD94F887376FF07E0204F5EC6001917A
:104D4C002B70D4F888377F2BA8BF7F239342B8BF32
:104D5C0013466B80D4F88C377F2BA8BF7F239342EC
:104D6C00B8BF1346AB80D4F890377F2BA8BF7F23F6
:104D7C009342B8BF1346AB710BF066FA0199084623
:104D8C0003B030BD704700BF90F8F40D704700BF02
:104D9C002DE9F04F04468BB0019106F031FE94F8EA
:104DAC0082380199C3B994F8940D10B90BB0BDE8D1
:104DBC00F08F04F6985E03F0FF058C46BEE80F00FA
:104DCC00ACE80F009EE807008CE8070084F8945DBF
:104DDC0001200BB0BDE8F08FD4F884E80A4604F645
:104DEC00840304F6AC0C42F802EB53F8040F9C4518
:104DFC0022F8020FF9D194F86C38033B012B0BD934
:104E0C00B1F916309AB2092A28BFFF230B7604F5A4
:104E1C00046008F069FEDBE7B1F904300EF4807928
:104E2C00B1F908000EF4806AA3F500450023A0F543
:104E3C000040B1F906209C46089360F30F0C47F62E
:104E4C00FF70CDE90633821A65F30F0362F31F433B
:104E5C00B1F90E20801A4A8960F31F4C40F2FF30E2
:104E6C00824228BF024697018A89824228BF0246A5
:104E7C001EF4806FCEF3C0204FEA8218CEF30022CE
:104E8C0017D1D2B18DF82000ADF81470ADF81680A2
:104E9C00CDE9033C2EF470630DF1080E8C460293A1
:104EAC00BEE80F00ACE80F009EE807008CE8070096
:104EBC00ADE712B108B10120E4E70EF40075AB4682
:104ECC00B9F1000F05D120B14D450CBF02200320D4
:104EDC00D8E74FEA5B26BBF1000F00D0B8B91EF43F
:104EEC00406F00D1AEB94FEA9A2016B108B1052037
:104EFC00C8E7BBF1000F14BF002500F0010515B188
:104F0C00B9F1000F07D01040C0F10800BAE7032038
:104F1C00B8E70420B6E70620B4E700BFD0F8543851
:104F2C000BB10120704790F8950D7047D0F8A00791
:104F3C00003818BF012070470138022808B505D881
:104F4C0008480DF02FFC07480DF02CFC05480DF01F
:104F5C0029FC64200DF0B2FF0248BDE808400DF0BA
:104F6C0021BC00BFA0290020FFEE007A00B5B4EEF2
:104F7C00E70A87B0F1EE10FA5ED4F7EE007A9FEDF7
:104F8C00357AB4EEE70AF1EE10FA77FE807A67EE26
:104F9C00877AFDEEE77A17EE901AFFEE007A5FFA49
:104FAC0081FEC1F30721F4EEE70AF1EE10FA4DD4BD
:104FBC00F7EE007A9FED277AF4EEE70AF1EE10FA9D
:104FCC0077FEA07A67EE877AFDEEE77A17EE902AE5
:104FDC005FFA82FCC2F3072200230193029305932C
:104FEC00CDE903336EF3070361F30F236CF317431F
:104FFC00C0F3001C62F31F63CDF80E30030103F005
:10500C00200203F0400103F4796343EA0C031343D9
:10501C000209400802F002020B4300F020001421A8
:10502C0013438DF8060001A88DF807308DF8051094
:10503C000FF030FA07B000BDFFEE007A80214FF080
:10504C00010EF4EEE70AF1EE10FAB1D580224FF022
:10505C00010CC1E700FEFF4608B50B46362800F2EE
:10506C00B782DFE810F0AB02A10297028D02830237
:10507C0079026F0265025B02510247023D02330264
:10508C00D201C801BE01B401AA01A00196018C0194
:10509C00820178016E0164015A01500146013C0104
:1050AC00320128011E0114010A010001F600EC0076
:1050BC00E200D800CE00C400BA00B000A6009C00EC
:1050CC00920088007E0074006A00600056004C005C
:1050DC0042003700DFF8F0C30422D1493620CCF867
:1050EC00D8300EF001FA012008BDDFF8DCC3042231
:1050FC00CC493520CCF8D4300EF0F6F9F3E7DFF8D4
:10510C00C8C30422C8493420CCF8D0300EF0ECF9D6
:10511C00E9E7DFF8B4C30422C4493320CCF8CC301F
:10512C000EF0E2F9DFE7DFF8A0C30422C049322019
:10513C00CCF8C8300EF0D8F9D5E7DFF88CC30422D0
:10514C00BC493120CCF8C4300EF0CEF9CBE7DFF8F7
:10515C0078C30422B8493020CCF8C0300EF0C4F922
:10516C00C1E7DFF864C30422B4492F20CCF8BC306B
:10517C000EF0BAF9B7E7DFF850C30422B0492E207D
:10518C00CCF8B8300EF0B0F9ADE7DFF83CC3042230
:10519C00AC492D20CCF8B4300EF0A6F9A3E7DFF81B
:1051AC0028C30422A8492C20CCF8B0300EF09CF96E
:1051BC0099E7DFF814C30422A4492B20CCF8AC30B7
:1051CC000EF092F98FE7DFF800C30422A0492A20E1
:1051DC00CCF8A8300EF088F985E7DFF8ECC2042291
:1051EC009C492920CCF8A4300EF07EF97BE7DFF83F
:1051FC00D8C2042298492820CCF8A0300EF074F9BB
:10520C0071E7DFF8C4C2042294492720CCF89C3003
:10521C000EF06AF967E7DFF8B0C204229049262045
:10522C00CCF898300EF060F95DE7DFF89CC20422F0
:10523C008C492520CCF894300EF056F953E7DFF862
:10524C0088C2042288492420CCF890300EF04CF906
:10525C0049E7DFF874C2042284492320CCF88C304F
:10526C000EF042F93FE7DFF860C2042280492220A9
:10527C00CCF888300EF038F935E7DFF84CC2042250
:10528C007C492120CCF884300EF02EF92BE7DFF886
:10529C0038C2042278492020CCF880300EF024F952
:1052AC0021E7DFF824C2042274491F20CCF87C309B
:1052BC000EF01AF917E7DFF810C2042270491E200D
:1052CC00CCF878300EF010F90DE7DFF8FCC10422B1
:1052DC006C491D20CCF874300EF006F903E7DFF8AA
:1052EC00E8C1042268491C20CCF870300EF0FCF8A0
:1052FC00F9E6DFF8D4C1042264491B20CCF86C30E9
:10530C000EF0F2F8EFE6DFF8C0C1042260491A2073
:10531C00CCF868300EF0E8F8E5E6DFF8ACC1042212
:10532C005C491920CCF864300EF0DEF8DBE6DFF8CF
:10533C0098C1042258491820CCF860300EF0D4F8EB
:10534C00D1E6DFF884C1042254491720CCF85C3034
:10535C000EF0CAF8C7E6DFF870C1042250491620D7
:10536C00CCF858300EF0C0F8BDE6DFF85CC1042272
:10537C004C491520CCF854300EF0B6F8B3E6DFF8F3
:10538C0048C1042248491420CCF850300EF0ACF837
:10539C00A9E6DFF834C1042244491320CCF84C3080
:1053AC000EF0A2F89FE6DFF820C10422404912203B
:1053BC00CCF848300EF098F895E6DFF80CC10422D2
:1053CC003C491120CCF844300EF08EF88BE6DFF817
:1053DC00F8C0042238491020CCF840300EF084F884
:1053EC0081E6DFF8E4C0042234490F20CCF83C30CD
:1053FC000EF07AF877E6DFF8D0C0042230490E20A0
:10540C00CCF838300EF070F86DE6DFF8BCC0042232
:10541C002C490D20CCF834300EF066F863E600BF52
:10542C00150B0000910B00000D0C0000890C000006
:10543C00050D0000810D0000FD0D0000790E00002F
:10544C00F50E0000710F0000ED0F00006910000058
:10545C00E510000061110000DD1100005912000080
:10546C00D512000051130000CD13000049140000A8
:10547C00C514000041150000BD15000039160000D0
:10548C00B516000031170000AD17000029180000F8
:10549C00A5180000211900009D190000191A000020
:1054AC00951A0000111B00008D1B0000091C000048
:1054BC00851C0000011D00007D1D0000F91D000071
:1054CC00751E0000F11E000000640020DFF838C1DA
:1054DC00042240490C20CCF830300EF005F802E6DE
:1054EC00DFF824C104223C490B20CCF82C300DF001
:1054FC00FBFFF8E5DFF810C1042238490A20CCF88C
:10550C0028300DF0F1FFEEE5DFF8FCC00422344941
:10551C000920CCF824300DF0E7FFE4E5DFF8E8C013
:10552C00042230490820CCF820300DF0DDFFDAE5FC
:10553C00DFF8D4C004222C490720CCF81C300DF025
:10554C00D3FFD0E5DFF8C0C0042228490620CCF8F0
:10555C0018300DF0C9FFC6E5DFF8ACC004222449B1
:10556C000520CCF814300DF0BFFFBCE50422DFF8A9
:10557C0098C020491046CCF810300DF0B5FFB2E5BC
:10558C00DFF884C004221C490320CCF80C300DF049
:10559C00ABFFA8E5DFF870C0042218490220CCF854
:1055AC0008300DF0A1FF9EE5DFF85CC00422144921
:1055BC000120CCF804300DF097FF94E5DFF848C0DB
:1055CC00042210490020CCF800300DF08DFF8AE544
:1055DC00002008BD6D1F0000E91F000065200000C1
:1055EC00E12000005D210000D921000055220000BF
:1055FC00D12200004D230000C923000045240000E7
:10560C00C12400003D250000006400202DE9F0417C
:10561C000E4615460446022130460DF003FD0221CC
:10562C0028460DF0FFFC234B3201234953F802802E
:10563C0003EB0612D76803EB0512C4F80080A760D1
:10564C00D2F80CC02A0153F802E000231B4A636114
:10565C00C4F80CC01A4B48681268C4F804E0A3FBE9
:10566C0002324FF4FA63920C03FB02F24B681B1AE2
:10567C009A42FBD8D8F800302146DEF8002030469C
:10568C001F4214BF012300231CEA020F43F0020245
:10569C0018BF13462374FFF7DFFC03462146284648
:1056AC002376FFF7D9FC227E831820462376BDE8AB
:1056BC00F08100BFCC1D0020001000E0AC280020C1
:1056CC0083DE1B43022110B5044608460DF0AAFCEC
:1056DC00022105200DF0A6FC02200DF091FC0346E2
:1056EC00052084F820300DF08BFC00230246054881
:1056FC00636284F82120E362A386BDE810400DF0BC
:10570C0051B800BFA0290020A94AAA4930B5137E80
:10571C0083B004460D68012B40F2B48072B6536915
:10572C0062B6002B1846B8BFD81C80101AD072B6BF
:10573C00D3F1000C03F003010CF0030C58BFCCF1B7
:10574C000001516162B6226862B1B3F5007F06DADE
:10575C0013F5007F40F32081404240B201E06FF02E
:10576C007E009047944A137E012B51D972B653692F
:10577C0062B6002B1846B8BFD81C80101AD072B66F
:10578C00D3F1000C03F003010CF0030C58BFCCF167
:10579C000001516162B6626862B1B3F5007F06DA4E
:1057AC0013F5007F40F3FA80404240B201E06FF005
:1057BC007E00904702200DF023FC94F820308342A9
:1057CC0003D0636AEB1A312B18D805200DF018FCA6
:1057DC0094F8213083420FD0E36AEB1A312B0BD9AA
:1057EC00E562002840F0A48001232563E56184F87C
:1057FC003530237684F8210003B030BD6562002873
:10580C007CD10123A56284F8343084F82000DCE7D5
:10581C0072B6D2E900130968186893681942137CB0
:10582C0014BF0121002103F0030343EA8103D16873
:10583C00084243F0080118BF0B469808591E5369DB
:10584C0010740D2994D801A050F821F06B38000089
:10585C0065380000773800006538000061360000BC
:10586C00713800006B3800006B3800007138000094
:10587C00613600006538000077380000653800009C
:10588C006B38000072B6D2E9001309681868936887
:10589C001942137C14BF0121002103F0030343EAD6
:1058AC008103D168084243F0080118BF0B469808E1
:1058BC00591E536910740D293FF632AF01A050F8F0
:1058CC0021F000BF5F380000593800008338000019
:1058DC0059380000113600007D3800005F38000098
:1058EC005F3800007D380000113600005938000088
:1058FC0083380000593800005F38000094F83430C9
:10590C00002B82D00022A36A84F83420EB1A40F2D8
:10591C00DB52934244D8294B1B78002B7FF475AF94
:10592C00A368002B3FF471AF0190984701986CE786
:10593C00002394F835202376002A3FF45BAF1F4AEE
:10594C0084F835301378002B7FF454AF226B40F27F
:10595C00DB53AD1A9D4227D96369002B3FF44AAF44
:10596C0001909847019845E7013B5361D8E6013314
:10597C005361D5E6013B5361FAE601335361F7E617
:10598C00023B5361F4E602335361F1E6023B53618F
:10599C00C6E602335361C3E67F20E2E67F2008E7C8
:1059AC00E368002BC0D130E72369002BD8D121E765
:1059BC00446200200C6B0020606200203631002015
:1059CC0010B501210A200DF02DFB01210A200DF04C
:1059DC00F5FA012125200DF025FB012125200DF0E4
:1059EC00EDFA012107200DF01DFB012107200DF020
:1059FC00E5FA00234FF48C72F02116480CF098FC59
:105A0C00012114480CF02AFC002112480AF0E8FF8E
:105A1C00104800224FF0FF3304460321C276436145
:105A2C000BF0E6FC0C4B03220C49204623610CF0D6
:105A3C0087FE204602210BF0DBFC094B20460C2292
:105A4C00084923610CF07CFE0748BDE810400CF0BF
:105A5C00A9BE00BF146B00203C005A00E4090020D2
:105A6C003C007D00E8090020A029002010B5012190
:105A7C0022200DF0D7FA012122200DF09FFA0023ED
:105A8C004FF48C72F02116480CF052FC0121144892
:105A9C000CF0E4FB002112480AF0A2FF104800228F
:105AAC006FF0F82304460321C27643610BF0A0FC8F
:105ABC000C4B03220C49204623610CF041FE20467E
:105ACC0002210BF095FC094B20460B22084923615F
:105ADC000CF036FE0748BDE810400CF063BE00BF6A
:105AEC00986B00203C005A00E409002054007D0013
:105AFC00F8090020A0290020034608461146062B71
:105B0C0014D90D2B0AD90E3B00B583B0062B43D804
:105B1C00DFE803F04038362B1F1B1300DFF8BCC046
:105B2C00073B204A3CF9133010F0CCBEDFF8B0C074
:105B3C001C4A3CF9133010F0C5BE1B4B1B4A1B68AA
:105B4C0003B05DF804EB10F0BDBE194B194A1B787D
:105B5C00F6E7194B93ED007A184AB7EEC77A8DED3C
:105B6C00007B10F0AFFE03B000BD154B154A93ED52
:105B7C00007AB7EEC77A8DED007B10F0A3FEF2E74A
:105B8C00114BE7E7114B124A1B8803B05DF804EB8D
:105B9C0010F098BE0F4BF6E70F4A03B05DF804EB1C
:105BAC0010F090BE040A0020602E0020380A00205D
:105BBC0035310020300A0020502E0020180A002019
:105BCC00186A0020240A0020582E0020306C002077
:105BDC00100A00202E6C0020400A00202C6A0020A5
:105BEC001C6A0020374A43B2C1EB01112DE9F04188
:105BFC00064692F900004C0086B0984204F1180257
:105C0C0054D0314BB3F900309E4207D0062E51D9F7
:105C1C000D2E53D84FF6A041002302E000214FF681
:105C2C00FF730027294D01931E2361F30F072846AC
:105C3C0000934FF48C7361F31F4700210BF0B6FEF9
:105C4C00022128466F610BF0D3FB214B042204F197
:105C5C001F0853F826702A82A5F812803FB13846E7
:105C6C0011F0D6F93946024628460CF069FD02A916
:105C7C0030460E22FFF740FF982302A8A5F81280A9
:105C8C002B8211F0C5F942F20415024602A90F4805
:105C9C000CF056FD4FF48C7304F1350200210B48C7
:105CAC0000950BF007FE06B0BDE8F08100214FF423
:105CBC00FC63B6E740F25F410023B2E74FF6FF7199
:105CCC000023AEE7333100202C6C0020146B002035
:105CDC007C1200202DE9F04F2DED048B8FB00028A5
:105CEC0000F0158240F25F42924BDFF894820292F0
:105CFC00B3F800A0904A0492029B0026002063F3A4
:105D0C000F0663F31F46049B9F1E03F10C043946D8
:105D1C0031F9023F5A4212B233EA230328BF134629
:105D2C009842B8BF18468C42F2D1642840F3808266
:105D3C00C82840F3F781B0F5967F40F392829FED2F
:105D4C007F8A4FF0FA0B4FF4FA797D4C002116251F
:105D5C0020460AF045FE00220F2320461146CDE9CD
:105D6C0000534FF48C730BF021FE022120460BF0F4
:105D7C003FFB744B414607222046666123610CF0C1
:105D8C00DFFC714B012120464FF0CC0863610BF016
:105D9C002FFB6E4A4B46142109A8126841F6C30624
:105DAC0000926B4A10F08EFD09A811F031F9082110
:105DBC0040F215130246618200EB40012046A3EB32
:105DCC00410309A923820CF0BBFC40F641032A468F
:105DDC001C212046CDE90083FA230BF0E7FD44F2A9
:105DEC0008237C221C2120460093FA230BF062FD31
:105DFC00FA2349221C21204600960BF05BFDFA2366
:105E0C00AF221C21204600960BF054FD42F20413E5
:105E1C002A461C2100932046FA230BF04BFDBAF1C5
:105E2C00000F04D0494A1268524500F20882012141
:105E3C0043480BF0DDFA474B474A0721636107A83B
:105E4C004B46002510F03EFD4FF4B01307A89FED14
:105E5C00439A236111F0DCF807A9024638484FF049
:105E6C0001080CF06DFC5B463B4A072107A8DFEDEF
:105E7C003C9A10F027FD4FF48A0307A8DFED398A0E
:105E8C00236111F0C5F807A902462D482E460CF0E7
:105E9C0057FC354B02223549294823610CF050FC44
:105EAC005B46334A072107A810F00CFD4FF42B0377
:105EBC0007A84FF01C0B236111F0AAF807A90246A2
:105ECC001F480CF03DFC4B46294A072107A84FF010
:105EDC007C0910F0F7FC4FF45A0307A8236111F06A
:105EEC0097F807A9024616480CF02AFC214B012210
:105EFC002149134823610CF023FC144B14211F4A35
:105F0C0009A81B6810F0DEFC09A811F081F8E42345
:105F1C00024609A9638200EB400309485B00C3F504
:105F2C008B7323820CF00CFC05480BF029FC0597B5
:105F3C003FE000BF2E6C00201C6A00200000FA43DA
:105F4C00986B00200900030018C618C6602E0020AC
:105F5C00540A002010841084640A00200000000001
:105F6C000000CC420000F84204007800680A0020CF
:105F7C006C0A00201C00E400700A0020740A002047
:105F8C00440A0020E12C05F11C03A8BFE1241BB23C
:105F9C0027B2B8F1000F00F0958002354FF00008E1
:105FAC0046F10006A5F1FC02324300F0D780B94659
:105FBC009B46AF4BFA221C680023A4FB05010FF093
:105FCC0013FD5045C0F0B580844240F2B280A0EB86
:105FDC000A00A4EB0A04B1EE086A049907EE900AD1
:105FEC00B8EE677A07EE904AF8EE677AC7EE276A42
:105FFC0066EE867ABDEEE77A17EE102A052A13466E
:10600C00A8BF052331F9130007EE103A01EB430347
:10601C00B8EEC77A05EE100AB3F90210B8EEC55AFD
:10602C0004EE901A77EEC77AF8EEE44A002A40F0B4
:10603C00838074EEC53AB3F90430B6EE007A05EEFF
:10604C00903AF8EEE55A75EEC55A65EE875A67EE4A
:10605C00A76AB0EE086AF0EE002A27EEA64A26EEF2
:10606C00866AB7EE002AB0EE447AB0EE463AA4EE59
:10607C00626AA6EEE27A94EE223A74EE666A37EE23
:10608C00277A73EE027A27EE237AA5EE277AA4EE0E
:10609C00867AA6EEA57A27EE297AC7EE087A78EEEC
:1060AC00E77AFDEEE77A17EE903A1CB2152C3FF723
:1060BC0069AF162705F11C033C461BB2B8F1000F63
:1060CC007FF46BAF029909F1FF326A480191611EAE
:1060DC0012B2039309B20134009159460AF080FBC5
:1060EC004A46644824B2DDE90213CDE900715946F1
:1060FC000AF076FB029809F10102039B594612B291
:10610C00CDE900405B480AF06BFB039B45E74FF67B
:10611C00A042594BDFF880810292584AB3F800A094
:10612C000492E9E59FED568A4FF0640B4FF0C809D5
:10613C000BE6B0EE497AB0E733F9021CB6EE007A02
:10614C00042A03EE901AF8EEE33A74EEE33A63EEA7
:10615C00873A7FF770AF74EEC55A78E745484446E6
:10616C00059F0BF0CBF99FED479ADFED478A474D22
:10617C004CE0191841F10001A5FB016C2CF0010653
:10618C0006EB5C06891B5B1AA3FB053660F100016C
:10619C00580805FB016340EAC3705044FA21002300
:1061AC00A0FB01010FF020FC1C2140F21512084449
:1061BC0003B280B21B2B03DD9042A8BF104601B284
:1061CC0037F9023F4FF6FF722A4807EE103A009259
:1061DC000423B8EEC77A27EE097AC7EE087A78EE70
:1061EC00E77AFDEEE77A17EE902A12B2E12AA8BF01
:1061FC00E122162AB8BF16220AF00CFE18F101088B
:10620C0044F10004A8F1070323430CD0184B1A687F
:10621C00A2EB0A035245A3FB0830AAD80AB91C21E9
:10622C00CEE75046BAE70FB0BDEC048BBDE8F08F5B
:10623C009FED178A4FF0320B4FF0640985E5FA2079
:10624C000023AAFB00010FF0CFFB00F11C0147F665
:10625C00EF3043462A4609B2009020460BF0B0FAC4
:10626C00E5E59FED0C8A4FF0960B4FF496796CE5B3
:10627C00602E0020986B0020306C00202C6A0020CF
:10628C00000048430000CC420000F842ABAAAAAA86
:10629C000000C842000096434C0A00202DE9F04F44
:1062AC00844C8FB000214FF00F0820464FF0FF3583
:1062BC000AF096FB002216214FF48C73204607AE91
:1062CC0005AF4FF01B09CDE9001811460BF06EFB22
:1062DC00022120460BF08CF8774B07227749204699
:1062EC00C4E904350CF02CFA754B0121204663618E
:1062FC000BF07EF8734B10227349204623610CF08F
:10630C001FFA724B724AADF818500025059293E8AB
:10631C00070086E80700012120460BF069F85C2392
:10632C00162229B22046CDE900980BF03FFB37F836
:10633C00021B0023AA1C4FF01F0C56F804AB61F390
:10634C000F0322825046A4F812C061F31F4363610D
:10635C00BAF1000F06D010F05BFE51460246204603
:10636C000CF0EEF95D3540F21713ADB29D42D6D16B
:10637C00584B0026DFF874B14FF01B09DFF870A101
:10638C00039306EB460516F0010F40F641084FF05B
:10639C005C0305EBC50518BF4FF00008002145480C
:1063AC0005F13107CDF80090CDF804803A353FB2B5
:1063BC003A460BF0FBFA484B484A4FF6FF711B78F4
:1063CC00107840F25F42C3EBC30365823344DBB207
:1063DC00834208BF0A4600230E210AA862F30F036A
:1063EC0062F31F433E4A63613BF9023F0093022371
:1063FC002382334610F066FA0AA810F009FE0AA9A7
:10640C0002462C480CF09CF95C233A465D21294845
:10641C00CDE900980BF0CAFA3AF9023F65820E21D9
:10642C0000930AA82F4B304A63615F2323823346C3
:10643C0010F048FA0AA810F0EBFD0AA902461D4814
:10644C000CF07EF93A465D23BA211A48CDF8048047
:10645C00CDF800900BF0AAFA4FF0FF3306F10E00C6
:10646C000E226361BC23C0B20AA965822382FFF7A6
:10647C0043FB039B53F8045F03933DB1284610F094
:10648C00C7FD294602460B480CF05AF93A21094837
:10649C000AF014FF01360AA810F0BAFD0AA9024648
:1064AC0004480CF04DF9072E7FF46BAF0FB0BDE82C
:1064BC00F08F00BF986B002009000300F00A002049
:1064CC0018C618C6780008007C0A00206009002055
:1064DC005F04A0FCB0120020546C00202C6C002037
:1064EC00900A0020A0FCA0FC9C0A00201A6A002044
:1064FC002A6A0020DFF884C0034608461146DCF8FF
:10650C000820042B00B58BB0DCF814E00592DCF805
:10651C000C20CDF820E00692DCF810200792DCF875
:10652C00182009921CD803EB830C104A0DEB830343
:10653C0002EB8C0293ED057A1369B7EEC77A1A78E1
:10654C003AB10B4A02938DED007B10F0BBF90BB006
:10655C0000BD084A8DED007B10F0B4F90BB000BD06
:10656C00054A0BB05DF804EB10F0ACB96C110020CF
:10657C00B00A0020A80A0020400A0020C8680020A9
:10658C00C1EB011104282DE9F0414FEA410486B01A
:10659C0004F1180212B257D8334943B2064691F9A6
:1065AC00001099424CD0314BB3F90030984257D07F
:1065BC0040F2FF71002300272D4D01931E2361F340
:1065CC000F07284600934FF48C7361F31F4700218B
:1065DC000BF0ECF9022128466F610AF009FF254BFC
:1065EC00042204F11F0853F826702A82A5F81280A1
:1065FC003FB1384610F00CFD3946024628460CF0E7
:10660C009FF802A930460E22FFF774FF982302A8C8
:10661C00A5F812802B8210F0FBFC42F20415024606
:10662C0002A913480CF08CF84FF48C7304F135026A
:10663C0000210F4800950BF03DF906B0BDE8F08144
:10664C0000214FF4FC63B6E700211E204FF48C733D
:10665C00CDE9000106480BF0A9F906B0BDE8F081C0
:10666C0000214FF6FF73A6E7333100202C6C00207D
:10667C00146B002068120020F0B5002287B01F2197
:10668C0018264FF48C733A480191114600964FF03E
:10669C00FF340BF08BF9364802210525074644617F
:1066AC000AF0A6FE334B0322334938463B610CF00B
:1066BC0047F8324B0A22324938463B610CF040F81D
:1066CC00012138467C610AF093FE2E4B0C212E4A98
:1066DC00B3F900300DEB01000095013310F0F2F826
:1066EC002A4B03A83B6110F093FC03A902463846E1
:1066FC000CF026F8264B274A1B6812689A421AD9C6
:10670C00254B1B88312B20D84FF478724FF48C73A7
:10671C00174801920022009611460BF047F91448D5
:10672C00022144610AF064FE1C492A461C4B1048A5
:10673C0003610CF005F80024E1B201340846FFF7C0
:10674C001FFF072CF8D107B0F0BD00224FF4004119
:10675C004FF48C730648CDE9006111460BF026F915
:10676C000348022144610AF043FE07220D49DDE78C
:10677C00146B002009000400CC0A00204100040026
:10678C00D00A00202C6C0020DC0A0020DE000A005D
:10679C000C6B002000680020286C0020C40A00202C
:1067AC0055000400BC0A0020634B1B78022B00F040
:1067BC00A78000220F2118204FF48C73F0B587B0FE
:1067CC004FF0FF365D4C0191114600905C480BF088
:1067DC00EDF85B480221074646610AF009FE594B69
:1067EC000322594938463B610BF0AAFF574A2378DC
:1067FC0052F82350002B7BD140F25F4200235049CA
:10680C0062F30F0362F31F43514AC1E90423284684
:10681C0010F0FEFB2946024649480BF091FF484810
:10682C0001214C4E0725074646610AF0E1FD23780D
:10683C000821494AA3EBC3030DEB01001288009514
:10684C001344464A0133DBB210F03CF8444B02A827
:10685C003B6110F0DDFB02A9024638460BF070FFDD
:10686C00022138467E610AF0C3FD23783D4A082197
:10687C00013304A810F026F83B4B04A83B6110F040
:10688C00C7FB04A9024638460BF05AFF374B384A6F
:10689C001B6812689A421DD9364B1B88312B31D894
:1068AC0000224FF4787018214FF48C73CDE900104E
:1068BC00114623480BF07AF84FF0FF3320480221A1
:1068CC0043610AF095FD05222B492C4B1C480361B2
:1068DC000BF036FF25780024C5EBC505E1B2013479
:1068EC006818C0B2FFF77EF9072CF7D107B0F0BDDE
:1068FC00012B1ED0164BC7E90436002D8FD086E72E
:10690C00FFF7BABE18234FF400420D48CDE9003210
:10691C0000224FF48C7311460BF048F8084A4FF0E4
:10692C00FF330221104653610AF062FD14492A46D6
:10693C00CBE74FF6A04261E734310020546C0020C5
:10694C00146B002009000400E409002060110020F1
:10695C004100040018C618C62C6C0020DC0A00206C
:10696C00A2000A00E40A0020DA0004000C6B0020EC
:10697C0000680020286C0020C40A00205500040088
:10698C00BC0A00202DE9F04F574C8FB00021574F17
:10699C002046DFF878910AF023F800221F211620F8
:1069AC004FF48C73482601911146009020460AF052
:1069BC00FDFF0221204600250AF01AFD4C4B4FF03A
:1069CC00FF300B224B49DFF848B1C4E904302046B4
:1069DC000BF0B6FE484B0121204663610AF008FD1E
:1069EC00464B0E224649204623610BF0A9FE15F0BA
:1069FC00010F40F64102BBF900004FF024030CBF1D
:106A0C0011460021A6F10E02A8425FFA85FA12B2D5
:106A1C005BD02046CDE900314FF48C7300210AF095
:106A2C00C5FF40F2FF72002301212046B04662F3FD
:106A3C000F0362F31F4363610AF0DAFC042359F875
:106A4C00041B66820846238239B1059110F0E0FAE6
:106A5C000599024620460BF073FE0E2206A95046FD
:106A6C000135FFF747FD822306A8A4F81280238284
:106A7C0010F0CEFA06A90246204624360BF060FE32
:106A8C0097ED026A97ED017A1021B7EEC66A1D4A9E
:106A9C00B7EEC77A0AA814378DED026B8DED007B2B
:106AAC000FF010FFC323184A0AA823826261A4F8CE
:106ABC00128010F0ADFA0AA9024620460BF040FEF7
:106ACC00052D94D10FB0BDE8F08F242343F286112D
:106ADC002046CDE900314FF48C7300210AF066FF9B
:106AEC004FF6FF729FE700BF986B00206C110020DF
:106AFC0009000300EC0A002018C618C6B4000800F0
:106B0C00F80A0020080B00204D6B4D6B681200201A
:106B1C002C6C0020094B1B78022B0CD0084B1B78DB
:106B2C0033B1012B01D0FFF7B9BB0020FFF7D2B86E
:106B3C000120FFF7CFB8FFF725BF00BF343100208D
:106B4C00546C002040F2DB5398422DE9F0410E4684
:106B5C0082B035D86421344B4FF48A7201FB00F4B7
:106B6C003248A3FB04135B0902FB03F59846002291
:106B7C001823CDE900322E4BA3FB051311465F09F8
:106B8C004FF48C730AF012FF2A4B9C423CD8632DB5
:106B9C002DD8022E25484FF6FF734FF00101044605
:106BAC000CBF254D254D43610AF022FC244B0622D7
:106BBC0029462046236102B0BDE8F0410BF0C0BD70
:106BCC00002218204FF48C73114600900192174844
:106BDC000AF0ECFE4FF48A734FF680211020042249
:106BEC00CDE90001022111480AF0E0FED1E7C8EB23
:106BFC0048110F4A3BB24900A2FB01214909C902C5
:106C0C0041F4FC6189B2E9E75622A8F132013BB2AA
:106C1C0002FB01F16422B1FBF2F1C1F13F01C9B2F7
:106C2C00490141F47841D9E7F1197605146B00203C
:106C3C001F85EB51D32A0100180B0020200B0020DC
