:0200000460009A
:100000004643464200000156000000000101020084
:1000100000000000000000000000000000000000E0
:1000200000000000000000000000000000000000D0
:1000300000000000000000000000000000000000C0
:1000400000000000010406010000000000000000A4
:100050000000800000000000000000000000000020
:100060000000000000000000000000000000000090
:100070000000000000000000000000000000000080
:10008000EB04180AFF1E04320126000000000000E5
:100090000000000000000000000000000000000060
:1000A0000000000000000000000000000000000050
:1000B0000000000000000000000000000000000040
:1000C0000000000000000000000000000000000030
:1000D0000000000000000000000000000000000020
:1000E0000000000000000000000000000000000010
:1000F0000000000000000000000000000000000000
:1001000000000000000000000000000000000000EF
:1001100000000000000000000000000000000000DF
:1001200000000000000000000000000000000000CF
:1001300000000000000000000000000000000000BF
:1001400000000000000000000000000000000000AF
:10015000000000000000000000000000000000009F
:10016000000000000000000000000000000000008F
:10017000000000000000000000000000000000007F
:10018000000000000000000000000000000000006F
:10019000000000000000000000000000000000005F
:1001A000000000000000000000000000000000004F
:1001B000000000000000000000000000000000003F
:1001C000000100000010000001000000000000001D
:1001D000000001000000000000000000000000001E
:1001E000000000000000000000000000000000000F
:1001F00000000000000000000000000000000000FF
:10020000FFFFFFFFFFFFFFFFFFFFFFFFFFFFFFFFFE
:10021000FFFFFFFFFFFFFFFFFFFFFFFFFFFFFFFFEE
:10100000D1002043F1150060000000000000000046
:10101000201000600010006000D801600000000097
:101020000000006000E4010000000000FFFFFFFF7F
:10103000FFFFFFFFFFFFFFFFFFFFFFFFFFFFFFFFC0
:10104000FFFFFFFFFFFFFFFFFFFFFFFFFFFFFFFFB0
:10105000FFFFFFFFFFFFFFFFFFFFFFFFFFFFFFFFA0
:10106000FFFFFFFFFFFFFFFFFFFFFFFFFFFFFFFF90
:10140000824205D051F8043B40F8043B8242F9D8AF
:10141000704700BF044A05494FF0000342F8043BFF
:101420009142FBD8704700BFC0320020E06B002023
:1014300080B5BFF34F8F00F075F9544C544B082022
:101440005449C3F85401544AC3F800115348C3F82F
:10145000F0405349FFF7D4FF524A53495348FFF72E
:10146000CFFF534CFFF7D6FF4FF470004FF0E02151
:101470000023504AC1F8880D44F823200133B02BD3
:10148000FAD14D4B80214D4A03F8011B9342FBD109
:101490004FF0E0254A4F4B4A4FF0FF31C5F8084D59
:1014A0000026D5F8243D43F4E023C5F8243DFB692C
:1014B00023F07F0343F04003FB617B6A23F07F034B
:1014C00043F040037B629166D1661167516700F07B
:1014D00031F93D4B63223D49A3633D4BE363032355
:1014E0006A613C4AAE612B61C5F8202DD5F8FC2D10
:1014F000394B42F08072C5F8FC2D1A6842F00102A7
:101500001A605B680B6000F0D9FA344800F05CFCAC
:10151000F96E334B334A41F44051F9661E60C3F80B
:101520000861C3F81861C3F82861C3F83861936B88
:10153000DB0708D442F615632B4951651365936B9D
:1015400043F001039363274A284C936843F0011347
:10155000936000F079F900F05FF800F021FC00F0F2
:10156000DBFA00F0E1F82368132BFCD900F06CFBE8
:101570002368B3F5967FFBD300F0DAF800F0D6F8D5
:1015800000F00AFC00F014FC30BFFDE70C0D111355
:1015900000800D401B101820B881010000000000E1
:1015A000A81F0060C032002064A10160000000207C
:1015B0000030002079FE000000E400E0A0E400E03C
:1015C00000C00F4000C00A40CDED0000506A00206E
:1015D000D1ED000000002020001000E00046C323F1
:1015E0000040084000400D400000C056546A0020F2
:1015F000054B4FF42A01054A05485A641864054A08
:1016000099639546FFF714FF00C00A40FFAAAAAAF3
:101610000700200000000620104BA020104AD96EC1
:1016200041F4403110B4D96640F23764D96E41F4C8
:101630004071D96654649064936C1B06FCD4094ACB
:1016400040F23761A02351649364936C13F08003DC
:10165000FBD1054A13705DF8044B704700C00F4082
:1016600000400C4000800C40946B00202B4A00216D
:10167000012310B4C2F8A000C2F8A410C2F8B03020
:101680005369DB07FCD501234FF4803423495361B0
:10169000C2F8A000C2F8A440C2F8B0304B69DC0721
:1016A000FCD501234FF400341C4A4B61C1F8A00063
:1016B000C1F8A440C1F8B0305369D907FCD5012363
:1016C000174C16495361C2F8A000C2F8A440C2F8F2
:1016D000B0304B69DB07FCD5D1F8003145F60D5031
:1016E00021249AB24C61824214D045F69D518A421F
:1016F0000CD1C3F34253032B0CD0A3F104035DF8C8
:10170000044BB3FA83F35B091801704700205DF8BE
:10171000044B704708205DF8044B704700402A4096
:1017200004000300704700BF704700BF704700BF50
:1017300000BF704710B44FF0E0230021102432485E
:10174000C3F8941DC3F89C4D1124C3F8A00D2F4875
:10175000C3F89C4D1224C3F8A00D2D48C3F89C4D2E
:101760002C4AC3F8A00D2C4C42F015022B48C3F8AC
:101770009C4DC3F8A00D2A4C2A48C3F89C4DC3F8D1
:10178000A00D294CC3F89C2D2848294AC3F8A04D28
:10179000C3F89C0DC3F8A02D02F5A022254C0C32F5
:1017A0002548C3F89C4DC3F8A02D244AC3F89C0DCE
:1017B000C3F8A02D02F14062214C02322148C3F847
:1017C0009C4DC3F8A02D0A32C3F89C0DC3F8A02D80
:1017D00000BF00BF00BF00BF00BF0122C3F8942DAF
:1017E000BFF34F8FBFF36F8FC3F8501FBFF34F8FFF
:1017F000BFF36F8FD3F8142D5DF8044B42F44032E1
:10180000C3F8142D704700BF3F00001025000807E3
:1018100009001000E06B00201300200021000207E7
:1018200014000020250008130900001016002020D5
:1018300027000B1317000040180000602F000B0753
:10184000190000701A000080F0B5824B1822824DFA
:101850000120824F83B0C3F85C528149C3F86072A3
:10186000804CC3F86452A5F530457F4EC3F86852EA
:1018700048F20C75C3F86C42C3F87042C3F8744266
:10188000C3F878424FF0FF34DA661A675A679A67EE
:10189000DA67C3F88020C3F88420C3F88820C1F831
:1018A0002C03724AC1F83003C1F83403C1F838037D
:1018B000C1F83C03C1F85003B1696D4B0A406D4853
:1018C0006D4913436D4AB361D6F8843043F00C037D
:1018D000C6F88430036843F00203036003682B40BA
:1018E00021251A43664B026044608A68654C1340A8
:1018F000654A43F000538360C36823F07803C360F4
:10190000036A134023430362036A13405F4A23437D
:1019100040F2056443628262C2620022D1F8B830AC
:1019200023F03F0343F00103C0F8B830D1F8BC30D6
:10193000574923F03F0343F00103C0F8BC30026174
:101940000567C0F880404567C0F8844002240368FA
:1019500023F00203036081614E4B4F49C46143F899
:10196000042B8B42FBD1434D2B6843F001032B60CA
:101970002C6814F00104FBD14549022340F2F562C2
:101980002046A96140F29941EB6140F26643C5F8F7
:10199000002242F20142C5F81032404BC5F8201235
:1019A000C5F8303240F23543C5F834223C49C5F819
:1019B00040323C4BC5F850123B4AC5F8543242F213
:1019C0000123C5F86022C5F86432FFF74FFE0646D2
:1019D000002836D083024FF480222B660123C5F8FD
:1019E000A040244CC5F8A420C5F8B0306369DA07DC
:1019F000FCD50125370565613846FFF737FE3218FB
:101A00002A4BD2B21A7078B180024FF48023194960
:101A10006066C4F8A070C4F8A430C4F8B0504B6934
:101A2000DB07FCD501234B61214900242148012318
:101A30000094401A00EB02521F4800F0B5F903B0C1
:101A4000F0BD1D4B194A18601070D860C3E9010041
:101A500003B0F0BD00801F40F9B00100F910010093
:101A600000841F40F970010000C00F40FFFCFF1F01
:101A70000003008000402A4000802A401200FFFF3F
:101A8000FF37F7004000008000FFF07CFF000F836D
:101A9000F05AF05A00422A4000432A409F0418306E
:101AA000EB06180A063201263806180A966B002043
:101AB0000000007000000070FC670020F0B4154AC0
:101AC00040274FF480314FF480564FF400554FF4C7
:101AD000404443F24200136913F0020F0ED113F495
:101AE000005F0FD013F4805F0ED0002BF3DA13F4F5
:101AF000803F0BD15B060BD5F0BC70479461516100
:101B00009061E8E75561E6E75661E4E79161E2E755
:101B10005761E0E700800D403F4A03203F49F3EE64
:101B2000095AD2F880304FF0000C9FED3D6A23F047
:101B300001039FED3C5A30B4C2F88030C2F89000E7
:101B4000D1F8E010384DCBB2384C39482B6007EE55
:101B5000903A0B0DC1F30B21F8EEE77A06EE903ABE
:101B600007EE101A334BB8EEC77A2160F8EEE66A3A
:101B7000314937EEC66A37EEC55A76EEC76A77EE58
:101B8000E57A26EE266AC3ED006A25EE265AD2F8DB
:101B9000803067EEA64AC0ED007AC6EE275A274885
:101BA00085EE276AC4EEA76A75EE875AFCEEE55A01
:101BB00036EE076A15EE904ABCEEC66A43EA045355
:101BC00076EE877AC2F8803016EE103AD2F890415D
:101BD000FCEEE77A01EA0341214317EE903AC2F89E
:101BE0009011C3F30B03D2F890110B431449C2F8C0
:101BF0009031D2F8803043F00203C2F88030114BAC
:101C000080F840C0C1F840314FF0E023012230BCE1
:101C1000C3F80821704700BF00810D4000441F40F9
:101C20000000AA420000B442C0690020BC69002044
:101C3000C4690020C86900200000FF0F00E400E034
:101C40000030002065000100314B40F6617210B594
:101C5000C3F8202140F2044400F0B2F82D4A2E4986
:101C6000D2F880302D4843F00303C2F880302C4B6B
:101C7000C1F8604102681A4203D1D1F8A8319A072D
:101C80001BD0254A4FF00041244B5963D2F8403114
:101C900043F00203C2F84031D2F840319B07FBD435
:101CA0004FF400304FF0E0211C4B4FF00042C1F8E0
:101CB0008C0219209A6300F07FF8184A4FF0804098
:101CC000154C002190630A20164B11604FF480627E
:101CD000C4F8A801184600F05BF84FF480020346F0
:101CE0004FF4810040F243111860C4F858311A646F
:101CF0000D4B0E4AC4F84811C3F804224FF0E022FD
:101D00004FF400310123C2F80C11C4F8403110BD6A
:101D100000800D4000C00F4000002E4000900D409C
:101D2000001C1E0000000020003000204D020100B9
:101D300008B50E4B1B6E9B0700D4FBBE72B60C4B56
:101D400000200C4AC3F8400103F160430A49A3F59F
:101D50005F2311649D46BFF34F8F4FF40013074874
:101D6000074ADB6902609B68984700BF00441F4038
:101D700000002E4000C00A40030020000080202008
:101D8000000012EBF8B500BFF8BC08BC9E467047D7
:101D90005FF800F0412B01005FF800F0B92D010061
:101DA0005FF800F0990D01005FF800F0FD0E0100F2
:101DB0005FF800F0D1FC00005FF800F0CDF5000006
:101DC0005FF800F0810901005FF800F0B1F2000057
:101DD00005010000A15A0000416C00008973000059
:041DE000E5BB00005F
:101DE4000901809611800A3A81550A3601082A04AD
:101DF400000000F02B040000014021800A13800A37
:101E040029800A0010034D0049004D0020005000B5
:101E14006F00430008034D0049004D00040309040A
:101E24000902BA00050100A0FA080B0004FFFFFF35
:101E3400000904000002FF5D0100112100010125D9
:101E4400811400000000130208000007058103202C
:101E54000004070502032000080904010004FF5DD3
:101E640003001B21000101018340010420168500A9
:101E740000000000001605000000000000070583B4
:101E8400032000020705040320000407058503203E
:101E94000040070505032000100904020001FF5D4E
:101EA400020009210001012286070007058603209C
:101EB40000100904030000FFFD13040641000101A2
:101EC40003090404000103000000092111010001B9
:101ED400221C000705870340000A00000902BA001B
:101EE400050100A0FA080B0004FFFFFF000904002D
:101EF4000002FF5D01001121000101258114000091
:101F040000001302080000070581032000040705F0
:101F140002032000080904010004FF5D03001B21E3
:101F24000001010183400104201685000000000027
:101F340000160500000000000007058303200002CE
:101F44000705040320000407058503200040070556
:101F540005032000100904020001FF5D02000921AD
:101F640000010122860700070586032000100904EA
:101F7400030000FFFD1304064100010103090404EA
:101F8400000103000000092111010001221C0007C7
:101F940005870340000A00000A060002EF02014020
:041FA4000100000038
:101FA8000000000000000000000000000000000029
:101FB8000000000000000000000000000000000019
:101FC800F8B54FF084439D695A6915400DD0254FE7
:101FD80001269D6195FAA5F4B4FA84F457F82430E3
:101FE80006FA04F49847A543F4D11F4B9D695A6932
:101FF80015400DD01D4F01269D6195FAA5F4B4FA40
:1020080084F457F8243006FA04F49847A543F4D129
:10201800174B9D695A6915400DD0164F01269D61D1
:1020280095FAA5F4B4FA84F457F8243006FA04F4BF
:102038009847A543F4D1104B9D695A6915400DD0B6
:102048000E4F01269D6195FAA5F4B4FA84F457F869
:10205800243006FA04F49847A543F4D1BFF34F8F10
:10206800F8BD00BFC02C002000400042402D0020D9
:1020780000800042C02D002000C00042402E0020F9
:102088000548064B1B1AD90F01EBA301491002D0D2
:10209800034B03B118477047C0320020C0320020FC
:1020A8000000000008B5054B1BB105490548AFF312
:1020B8000080BDE80840FFF7E3BF00BF0000000054
:1020C8008469002000E40160704700BF704700BFCA
:1020D800704700BF562802D1034B01229A73034B65
:1020E8001B6803B118477047804500204C610020E9
:1020F800562802D1034B00229A73034B1B6803B185
:1021080018477047804500205C6100200023C0E923
:1021180003338382704700BF704700BF704700BF1A
:10212800234A002130B51378224C8342215401D12F
:10213800002B3BD1204B1B6873B39A7962B3DC7ACE
:1021480054B31E4D002295F800E011460BE0BCF197
:10215800030F04D193F80FC0BCF1010F1DD08C42BE
:1021680003F11A0318D901328E45D1B2F7D193F889
:102178000CC0BCF1010FEAD193F80FC0BCF1010FFC
:10218800EDD193F80DC08445E9D100230C480D49E1
:10219800FF2203700B702A7030BD93F80DC0844580
:1021A800F3D093F80EC08445D9D1EEE7117030BD55
:1021B800856B0020D4610020D46200208A2F002083
:1021C8008C6B0020886B0020012A51D12DE9F04F3B
:1021D80085B00E9A082A8CBF002601261EB1002061
:1021E80005B0BDE8F08F0C4640F25E42C98B9142C3
:1021F800F5D15A79FF2AF2D19A79472AEFD119787D
:102208000E9A194403EB020C8B1D9C45E7D3054637
:10221800B246B046304637463246029403E0194487
:102228008B1D9C4526D30B78032B23D991F801E00D
:10223800BEF1050FF3D1062BF1D991F803E00EF0AA
:10224800030EBEF1030FEAD191F90290B1F804E050
:102258008C79B9F1000F91F802B0CEF30A0E03940D
:1022680028DB002FDBD10BF00F07F246039ED6E7E1
:1022780000207047029C002AB1D040284FF001038B
:102288004FF00301CDF8048028BF4020009020467D
:1022980007F07AFEE8600028A1D0154A2B4605F120
:1022A8003401C263402207F0BDFA57B9012318462A
:1022B8006B7595E7002AB2D10BF00F027046A04665
:1022C800ADE751463A46204600230529019628BF26
:1022D80005210091032107F057FE28610028E5D069
:1022E80004492B460522C163034907F09BFADDE741
:1022F80061060000790100002826002038B5254D28
:10230800044640F2E93128462DED028BF0EE408A72
:102318000EF0A6FE034640F2E931284608EE103AD0
:102328000EF09EFE07EE900A40F2E931B8EEC88A38
:102338002846F8EEE77A38EE278A0EF091FE07EE87
:10234800904A07EE100A9FED146A47F6FF73F8EEFD
:10235800677ADFED125AB8EEC77ADFED116A27EE19
:10236800A80A37EE087AC0EE067A87EE256ABDEC31
:10237800028B67EE867A67EEA67AFDEEE77A17EEAD
:10238800900A20449842A8BF18460128B8BF0120E7
:1023980080B238BD18FCFFFF0000C84200803B45F2
:1023A8002DB25D402DE9F043002389B00446079320
:1023B800CDE905330B7903F0010258074FEA822271
:1023C80048BF42F040021F0748BF42F08002DE06C5
:1023D80048BF42F001029D0648BF42F0020258067B
:1023E80048BF42F004021B064B7948BF42F008027E
:1023F800DF066FEA930C48BF42F010029E060CEA13
:10240800030E4FEA930648BF42F020025D065FFACA
:102418008CFC48BF42F4807218066FEAD3004FEA7A
:10242800D30548BF42F4007200EA0E0EC0B21EF097
:10243800010F5ED103EA0507FF0730D501238DF8A8
:102448001C300DF1040E0B8904F1180C01920125C2
:102458009B014A89C888ADF81230A2F500428B89E1
:102468008001ADF80820A3F50043CA89ADF8100033
:10247800ADF80A30A2F500420B8AADF80C20A3F59E
:102488000043ADF80E30BEE80F00ACE80F009EE840
:1024980007008CE80700257509B0BDE8F08303F054
:1024A8000107C3F3400E4FEA530887F001078EF087
:1024B800010E05EA070919EA0E0F1ED108EA0505FB
:1024C800ED0718D408EA0C0C00EA0C00C0071AD46F
:1024D80008EA060818F0010F11D106EA0E0E17EAED
:1024E8000E0F0ED1334003F00103C3F10803DBB232
:1024F800A5E70023A3E70323A1E702239FE705231A
:102508009DE706239BE7042399E700BF38B5164BE0
:102518000C461A6801EB81031A2101FB00331344AE
:10252800997CD1B1D2F80720DFED107A00EE102A9D
:102538000F49B3F81300B4EEE70A0D68F1EE10FA8C
:1025480002D410B1FFF7DAFE05440A4A0A490B4BD8
:10255800147001220D601A7038BD064B1C70BDE85E
:10256800384000F00DB800BFD46200200AD7233CE1
:10257800546A0020896B00202C6000208C6B00209E
:1025880010B41A4C1A4B21781B680131C9B20329BF
:1025980019D800EB40024FF0050C00EB8202520004
:1025A8001CFB0122134403E05FFA8CF104290AD0D2
:1025B8009A7C01F1010C0533002AF5D021705DF8F1
:1025C800044BFFF7A3BF0B4A137843B90A49FF200E
:1025D8000A4C0870237013705DF8044B7047002193
:1025E80021705DF8044BFFF791BF00BF896B002095
:1025F800D4620020886B00208A2F00208C6B00207A
:1026080070B5C46B8CB1836804F13405C3F30E4311
:10261800C3F14003112B09D8E06830B1234629469D
:102628004022BDE8704007F0FDB870BD94F8343022
:10263800202BF1D194F837300E2BEDD129462046C6
:10264800FFF7B0FEE8E700BF38B5184C23780BB1A8
:1026580000232370164A1A23164D1268287003FBAC
:102668000023154D2970997CD1B1D2F80720DFEDF0
:10267800137A00EE102A1249B3F81300B4EEE70AF1
:102688000D68F1EE10FA02D410B1FFF737FE0544D9
:102698000C4B00220C491A7001230D60237038BDC1
:1026A800084B1970BDE83840FFF76ABF8C6B0020F3
:1026B800D46200208A2F0020886B00200AD7233C90
:1026C800546A0020896B00202C6000204849F8B526
:1026D8000A780123474E3354002A51D1464B1968D2
:1026E80039B38B792BB3454BCC7A1F680CB30B46A7
:1026F80015460BE0BCF1020F1CD193F80DC08445C0
:102708004CD001321A33D5B2A54212D293F80CC07C
:10271800BCF1010FEED193F80DC08445F1D11A2315
:1027280003FB0213D97B012955D0022958D000296F
:1027380051D0F8BDBCF1030FE3D193F80DC0844527
:1027480040D093F80EE08645DBD116F80C30002B0C
:10275800EFD01A2303FB0213D97B01293BD00229AE
:10276800E5D127498B5C83F001038B5493BB00238D
:10277800244C2548FF21254A237003701170F8BDA9
:102788000023234C0A220B700146207021480EF0CA
:102798009DFB2048BDE8F8400EF06EBB1E4B53F879
:1027A800204043F820703F1B312FC2D91A2303FB66
:1027B80002131B8ABB42BCD328460021BDE8F8405F
:1027C800FFF742BF1A2303FB02139B7BF35C002B2A
:1027D800BFD1F8BD01212846BDE8F840FFF734BF56
:1027E80007498B5C83F001038B54002BBFD0E3E7D0
:1027F8007C6B0020D4610020D4620020546A002041
:10280800F45F00208C6B0020886B00208A2F00204A
:10281800856B0020F8250020CC5B0020224BD3F8E4
:10282800B420D2E90010D3680968006810B41842CF
:10283800946801EA04012ED0137C03F00303D9B98C
:1028480043F008039908013B11740D2B0BD8DFE8FE
:1028580003F00D071C070A160D0D160A071C070DB5
:102868005369013B53615DF8044B704753695DF848
:10287800044B01335361704743F00403E0E75369A5
:102888005DF8044B023B5361704753695DF8044B94
:10289800023353617047137C03F003030029D1D03E
:1028A80043F00403CEE700BF50630020224BD3F867
:1028B800C420D2E90010D3680968006810B418422F
:1028C800946801EA04012ED0137C03F00303D9B9FC
:1028D80043F008039908013B11740D2B0BD8DFE86E
:1028E80003F00D071C070A160D0D160A071C070D25
:1028F8005369013B53615DF8044B704753695DF8B8
:10290800044B01335361704743F00403E0E7536914
:102918005DF8044B023B5361704753695DF8044B03
:10292800023353617047137C03F003030029D1D0AD
:1029380043F00403CEE700BF50630020224BD3F8D6
:10294800C820D2E90010D3680968006810B418429A
:10295800946801EA04012ED0137C03F00303D9B96B
:1029680043F008039908013B11740D2B0BD8DFE8DD
:1029780003F00D071C070A160D0D160A071C070D94
:102988005369013B53615DF8044B704753695DF827
:10299800044B01335361704743F00403E0E7536984
:1029A8005DF8044B023B5361704753695DF8044B73
:1029B800023353617047137C03F003030029D1D01D
:1029C80043F00403CEE700BF50630020224BD3F846
:1029D800CC20D2E90010D3680968006810B4184206
:1029E800946801EA04012ED0137C03F00303D9B9DB
:1029F80043F008039908013B11740D2B0BD8DFE84D
:102A080003F00D071C070A160D0D160A071C070D03
:102A18005369013B53615DF8044B704753695DF896
:102A2800044B01335361704743F00403E0E75369F3
:102A38005DF8044B023B5361704753695DF8044BE2
:102A4800023353617047137C03F003030029D1D08C
:102A580043F00403CEE700BF50630020224BD3F8B5
:102A6800D020D2E90010D3680968006810B4184271
:102A7800946801EA04012ED0137C03F00303D9B94A
:102A880043F008039908013B11740D2B0BD8DFE8BC
:102A980003F00D071C070A160D0D160A071C070D73
:102AA8005369013B53615DF8044B704753695DF806
:102AB800044B01335361704743F00403E0E7536963
:102AC8005DF8044B023B5361704753695DF8044B52
:102AD800023353617047137C03F003030029D1D0FC
:102AE80043F00403CEE700BF50630020224BD3F825
:102AF800BC20D2E90010D3680968006810B41842F5
:102B0800946801EA04012ED0137C03F00303D9B9B9
:102B180043F008039908013B11740D2B0BD8DFE82B
:102B280003F00D071C070A160D0D160A071C070DE2
:102B38005369013B53615DF8044B704753695DF875
:102B4800044B01335361704743F00403E0E75369D2
:102B58005DF8044B023B5361704753695DF8044BC1
:102B6800023353617047137C03F003030029D1D06B
:102B780043F00403CEE700BF50630020224BD3F894
:102B8800C020D2E90010D3680968006810B4184260
:102B9800946801EA04012ED0137C03F00303D9B929
:102BA80043F008039908013B11740D2B0BD8DFE89B
:102BB80003F00D071C070A160D0D160A071C070D52
:102BC8005369013B53615DF8044B704753695DF8E5
:102BD800044B01335361704743F00403E0E7536942
:102BE8005DF8044B023B5361704753695DF8044B31
:102BF800023353617047137C03F003030029D1D0DB
:102C080043F00403CEE700BF50630020224BD3F803
:102C1800B820D2E90010D3680968006810B41842D7
:102C2800946801EA04012ED0137C03F00303D9B998
:102C380043F008039908013B11740D2B0BD8DFE80A
:102C480003F00D071C070A160D0D160A071C070DC1
:102C58005369013B53615DF8044B704753695DF854
:102C6800044B01335361704743F00403E0E75369B1
:102C78005DF8044B023B5361704753695DF8044BA0
:102C8800023353617047137C03F003030029D1D04A
:102C980043F00403CEE700BF50630020214B5A6B7A
:102CA800D2E90010D3680968006810B41842946823
:102CB80001EA04012ED0137C03F00303D9B943F0D1
:102CC80008039908013B11740D2B0BD8DFE803F0BA
:102CD8000D071C070A160D0D160A071C070D536968
:102CE800013B53615DF8044B704753695DF8044B31
:102CF80001335361704743F00403E0E753695DF81B
:102D0800044B023B5361704753695DF8044B02332F
:102D180053617047137C03F003030029D1D043F0BB
:102D28000403CEE750630020214B9A6BD2E90010D0
:102D3800D3680968006810B41842946801EA04016D
:102D48002ED0137C03F00303D9B943F00803990884
:102D5800013B11740D2B0BD8DFE803F00D071C079E
:102D68000A160D0D160A071C070D5369013B53611E
:102D78005DF8044B704753695DF8044B01335361A8
:102D8800704743F00403E0E753695DF8044B023BE6
:102D98005361704753695DF8044B023353617047C0
:102DA800137C03F003030029D1D043F00403CEE7DA
:102DB80050630020214BDA6BD2E90010D368096810
:102DC800006810B41842946801EA04012ED0137CFC
:102DD80003F00303D9B943F008039908013B1174C0
:102DE8000D2B0BD8DFE803F00D071C070A160D0D95
:102DF800160A071C070D5369013B53615DF8044B24
:102E0800704753695DF8044B01335361704743F0D1
:102E18000403E0E753695DF8044B023B53617047D4
:102E280053695DF8044B023353617047137C03F018
:102E380003030029D1D043F00403CEE750630020F8
:102E4800214B1A6CD2E90010D3680968006810B4E5
:102E58001842946801EA04012ED0137C03F003039E
:102E6800D9B943F008039908013B11740D2B0BD80D
:102E7800DFE803F00D071C070A160D0D160A071CDC
:102E8800070D5369013B53615DF8044B7047536963
:102E98005DF8044B01335361704743F00403E0E7E6
:102EA80053695DF8044B023B5361704753695DF801
:102EB800044B023353617047137C03F0030300296A
:102EC800D1D043F00403CEE750630020214B5A6C65
:102ED800D2E90010D3680968006810B418429468F1
:102EE80001EA04012ED0137C03F00303D9B943F09F
:102EF80008039908013B11740D2B0BD8DFE803F088
:102F08000D071C070A160D0D160A071C070D536935
:102F1800013B53615DF8044B704753695DF8044BFE
:102F280001335361704743F00403E0E753695DF8E8
:102F3800044B023B5361704753695DF8044B0233FD
:102F480053617047137C03F003030029D1D043F089
:102F58000403CEE750630020214B9A6CD2E900109D
:102F6800D3680968006810B41842946801EA04013B
:102F78002ED0137C03F00303D9B943F00803990852
:102F8800013B11740D2B0BD8DFE803F00D071C076C
:102F98000A160D0D160A071C070D5369013B5361EC
:102FA8005DF8044B704753695DF8044B0133536176
:102FB800704743F00403E0E753695DF8044B023BB4
:102FC8005361704753695DF8044B0233536170478E
:102FD800137C03F003030029D1D043F00403CEE7A8
:102FE80050630020214BDA6CD2E90010D3680968DD
:102FF800006810B41842946801EA04012ED0137CCA
:1030080003F00303D9B943F008039908013B11748D
:103018000D2B0BD8DFE803F00D071C070A160D0D62
:10302800160A071C070D5369013B53615DF8044BF1
:10303800704753695DF8044B01335361704743F09F
:103048000403E0E753695DF8044B023B53617047A2
:1030580053695DF8044B023353617047137C03F0E6
:1030680003030029D1D043F00403CEE750630020C6
:10307800214B1A6DD2E90010D3680968006810B4B2
:103088001842946801EA04012ED0137C03F003036C
:10309800D9B943F008039908013B11740D2B0BD8DB
:1030A800DFE803F00D071C070A160D0D160A071CAA
:1030B800070D5369013B53615DF8044B7047536931
:1030C8005DF8044B01335361704743F00403E0E7B4
:1030D80053695DF8044B023B5361704753695DF8CF
:1030E800044B023353617047137C03F00303002938
:1030F800D1D043F00403CEE750630020214B5A6D32
:10310800D2E90010D3680968006810B418429468BE
:1031180001EA04012ED0137C03F00303D9B943F06C
:1031280008039908013B11740D2B0BD8DFE803F055
:103138000D071C070A160D0D160A071C070D536903
:10314800013B53615DF8044B704753695DF8044BCC
:1031580001335361704743F00403E0E753695DF8B6
:10316800044B023B5361704753695DF8044B0233CB
:1031780053617047137C03F003030029D1D043F057
:103188000403CEE750630020214B9A6DD2E900106A
:10319800D3680968006810B41842946801EA040109
:1031A8002ED0137C03F00303D9B943F00803990820
:1031B800013B11740D2B0BD8DFE803F00D071C073A
:1031C8000A160D0D160A071C070D5369013B5361BA
:1031D8005DF8044B704753695DF8044B0133536144
:1031E800704743F00403E0E753695DF8044B023B82
:1031F8005361704753695DF8044B0233536170475C
:10320800137C03F003030029D1D043F00403CEE775
:1032180050630020214BDA6DD2E90010D3680968A9
:10322800006810B41842946801EA04012ED0137C97
:1032380003F00303D9B943F008039908013B11745B
:103248000D2B0BD8DFE803F00D071C070A160D0D30
:10325800160A071C070D5369013B53615DF8044BBF
:10326800704753695DF8044B01335361704743F06D
:103278000403E0E753695DF8044B023B5361704770
:1032880053695DF8044B023353617047137C03F0B4
:1032980003030029D1D043F00403CEE75063002094
:1032A800214B1A6ED2E90010D3680968006810B47F
:1032B8001842946801EA04012ED0137C03F003033A
:1032C800D9B943F008039908013B11740D2B0BD8A9
:1032D800DFE803F00D071C070A160D0D160A071C78
:1032E800070D5369013B53615DF8044B70475369FF
:1032F8005DF8044B01335361704743F00403E0E782
:1033080053695DF8044B023B5361704753695DF89C
:10331800044B023353617047137C03F00303002905
:10332800D1D043F00403CEE750630020214B5A6EFE
:10333800D2E90010D3680968006810B4184294688C
:1033480001EA04012ED0137C03F00303D9B943F03A
:1033580008039908013B11740D2B0BD8DFE803F023
:103368000D071C070A160D0D160A071C070D5369D1
:10337800013B53615DF8044B704753695DF8044B9A
:1033880001335361704743F00403E0E753695DF884
:10339800044B023B5361704753695DF8044B023399
:1033A80053617047137C03F003030029D1D043F025
:1033B8000403CEE750630020214B9A6ED2E9001037
:1033C800D3680968006810B41842946801EA0401D7
:1033D8002ED0137C03F00303D9B943F008039908EE
:1033E800013B11740D2B0BD8DFE803F00D071C0708
:1033F8000A160D0D160A071C070D5369013B536188
:103408005DF8044B704753695DF8044B0133536111
:10341800704743F00403E0E753695DF8044B023B4F
:103428005361704753695DF8044B02335361704729
:10343800137C03F003030029D1D043F00403CEE743
:1034480050630020214BDA6ED2E90010D368096876
:10345800006810B41842946801EA04012ED0137C65
:1034680003F00303D9B943F008039908013B117429
:103478000D2B0BD8DFE803F00D071C070A160D0DFE
:10348800160A071C070D5369013B53615DF8044B8D
:10349800704753695DF8044B01335361704743F03B
:1034A8000403E0E753695DF8044B023B536170473E
:1034B80053695DF8044B023353617047137C03F082
:1034C80003030029D1D043F00403CEE75063002062
:1034D800214B1A6FD2E90010D3680968006810B44C
:1034E8001842946801EA04012ED0137C03F0030308
:1034F800D9B943F008039908013B11740D2B0BD877
:10350800DFE803F00D071C070A160D0D160A071C45
:10351800070D5369013B53615DF8044B70475369CC
:103528005DF8044B01335361704743F00403E0E74F
:1035380053695DF8044B023B5361704753695DF86A
:10354800044B023353617047137C03F003030029D3
:10355800D1D043F00403CEE750630020214B5A6FCB
:10356800D2E90010D3680968006810B4184294685A
:1035780001EA04012ED0137C03F00303D9B943F008
:1035880008039908013B11740D2B0BD8DFE803F0F1
:103598000D071C070A160D0D160A071C070D53699F
:1035A800013B53615DF8044B704753695DF8044B68
:1035B80001335361704743F00403E0E753695DF852
:1035C800044B023B5361704753695DF8044B023367
:1035D80053617047137C03F003030029D1D043F0F3
:1035E8000403CEE750630020214B9A6FD2E9001004
:1035F800D3680968006810B41842946801EA0401A5
:103608002ED0137C03F00303D9B943F008039908BB
:10361800013B11740D2B0BD8DFE803F00D071C07D5
:103628000A160D0D160A071C070D5369013B536155
:103638005DF8044B704753695DF8044B01335361DF
:10364800704743F00403E0E753695DF8044B023B1D
:103658005361704753695DF8044B023353617047F7
:10366800137C03F003030029D1D043F00403CEE711
:1036780050630020214BDA6FD2E90010D368096843
:10368800006810B41842946801EA04012ED0137C33
:1036980003F00303D9B943F008039908013B1174F7
:1036A8000D2B0BD8DFE803F00D071C070A160D0DCC
:1036B800160A071C070D5369013B53615DF8044B5B
:1036C800704753695DF8044B01335361704743F009
:1036D8000403E0E753695DF8044B023B536170470C
:1036E80053695DF8044B023353617047137C03F050
:1036F80003030029D1D043F00403CEE75063002030
:10370800224BD3F88020D2E90010D36809680068FA
:1037180010B41842946801EA04012ED0137C03F017
:103728000303D9B943F008039908013B11740D2B21
:103738000BD8DFE803F00D071C070A160D0D160A53
:10374800071C070D5369013B53615DF8044B704733
:1037580053695DF8044B01335361704743F0040328
:10376800E0E753695DF8044B023B536170475369C6
:103778005DF8044B023353617047137C03F0030375
:103788000029D1D043F00403CEE700BF50630020E6
:10379800224BD3F88420D2E90010D3680968006866
:1037A80010B41842946801EA04012ED0137C03F087
:1037B8000303D9B943F008039908013B11740D2B91
:1037C8000BD8DFE803F00D071C070A160D0D160AC3
:1037D800071C070D5369013B53615DF8044B7047A3
:1037E80053695DF8044B01335361704743F0040398
:1037F800E0E753695DF8044B023B53617047536936
:103808005DF8044B023353617047137C03F00303E4
:103818000029D1D043F00403CEE700BF5063002055
:10382800224BD3F88820D2E90010D36809680068D1
:1038380010B41842946801EA04012ED0137C03F0F6
:103848000303D9B943F008039908013B11740D2B00
:103858000BD8DFE803F00D071C070A160D0D160A32
:10386800071C070D5369013B53615DF8044B704712
:1038780053695DF8044B01335361704743F0040307
:10388800E0E753695DF8044B023B536170475369A5
:103898005DF8044B023353617047137C03F0030354
:1038A8000029D1D043F00403CEE700BF50630020C5
:1038B800224BD3F88C20D2E90010D368096800683D
:1038C80010B41842946801EA04012ED0137C03F066
:1038D8000303D9B943F008039908013B11740D2B70
:1038E8000BD8DFE803F00D071C070A160D0D160AA2
:1038F800071C070D5369013B53615DF8044B704782
:1039080053695DF8044B01335361704743F0040376
:10391800E0E753695DF8044B023B53617047536914
:103928005DF8044B023353617047137C03F00303C3
:103938000029D1D043F00403CEE700BF5063002034
:10394800224BD3F89020D2E90010D36809680068A8
:1039580010B41842946801EA04012ED0137C03F0D5
:103968000303D9B943F008039908013B11740D2BDF
:103978000BD8DFE803F00D071C070A160D0D160A11
:10398800071C070D5369013B53615DF8044B7047F1
:1039980053695DF8044B01335361704743F00403E6
:1039A800E0E753695DF8044B023B53617047536984
:1039B8005DF8044B023353617047137C03F0030333
:1039C8000029D1D043F00403CEE700BF50630020A4
:1039D800224BD3F89420D2E90010D3680968006814
:1039E80010B41842946801EA04012ED0137C03F045
:1039F8000303D9B943F008039908013B11740D2B4F
:103A08000BD8DFE803F00D071C070A160D0D160A80
:103A1800071C070D5369013B53615DF8044B704760
:103A280053695DF8044B01335361704743F0040355
:103A3800E0E753695DF8044B023B536170475369F3
:103A48005DF8044B023353617047137C03F00303A2
:103A58000029D1D043F00403CEE700BF5063002013
:103A6800224BD3F89820D2E90010D368096800687F
:103A780010B41842946801EA04012ED0137C03F0B4
:103A88000303D9B943F008039908013B11740D2BBE
:103A98000BD8DFE803F00D071C070A160D0D160AF0
:103AA800071C070D5369013B53615DF8044B7047D0
:103AB80053695DF8044B01335361704743F00403C5
:103AC800E0E753695DF8044B023B53617047536963
:103AD8005DF8044B023353617047137C03F0030312
:103AE8000029D1D043F00403CEE700BF5063002083
:103AF800224BD3F89C20D2E90010D36809680068EB
:103B080010B41842946801EA04012ED0137C03F023
:103B18000303D9B943F008039908013B11740D2B2D
:103B28000BD8DFE803F00D071C070A160D0D160A5F
:103B3800071C070D5369013B53615DF8044B70473F
:103B480053695DF8044B01335361704743F0040334
:103B5800E0E753695DF8044B023B536170475369D2
:103B68005DF8044B023353617047137C03F0030381
:103B78000029D1D043F00403CEE700BF50630020F2
:103B8800224BD3F8A020D2E90010D3680968006856
:103B980010B41842946801EA04012ED0137C03F093
:103BA8000303D9B943F008039908013B11740D2B9D
:103BB8000BD8DFE803F00D071C070A160D0D160ACF
:103BC800071C070D5369013B53615DF8044B7047AF
:103BD80053695DF8044B01335361704743F00403A4
:103BE800E0E753695DF8044B023B53617047536942
:103BF8005DF8044B023353617047137C03F00303F1
:103C08000029D1D043F00403CEE700BF5063002061
:103C1800224BD3F8A420D2E90010D36809680068C1
:103C280010B41842946801EA04012ED0137C03F002
:103C38000303D9B943F008039908013B11740D2B0C
:103C48000BD8DFE803F00D071C070A160D0D160A3E
:103C5800071C070D5369013B53615DF8044B70471E
:103C680053695DF8044B01335361704743F0040313
:103C7800E0E753695DF8044B023B536170475369B1
:103C88005DF8044B023353617047137C03F0030360
:103C98000029D1D043F00403CEE700BF50630020D1
:103CA800224BD3F8A820D2E90010D368096800682D
:103CB80010B41842946801EA04012ED0137C03F072
:103CC8000303D9B943F008039908013B11740D2B7C
:103CD8000BD8DFE803F00D071C070A160D0D160AAE
:103CE800071C070D5369013B53615DF8044B70478E
:103CF80053695DF8044B01335361704743F0040383
:103D0800E0E753695DF8044B023B53617047536920
:103D18005DF8044B023353617047137C03F00303CF
:103D28000029D1D043F00403CEE700BF5063002040
:103D3800224BD3F8AC20D2E90010D3680968006898
:103D480010B41842946801EA04012ED0137C03F0E1
:103D58000303D9B943F008039908013B11740D2BEB
:103D68000BD8DFE803F00D071C070A160D0D160A1D
:103D7800071C070D5369013B53615DF8044B7047FD
:103D880053695DF8044B01335361704743F00403F2
:103D9800E0E753695DF8044B023B53617047536990
:103DA8005DF8044B023353617047137C03F003033F
:103DB8000029D1D043F00403CEE700BF50630020B0
:103DC800224BD3F8B020D2E90010D3680968006804
:103DD80010B41842946801EA04012ED0137C03F051
:103DE8000303D9B943F008039908013B11740D2B5B
:103DF8000BD8DFE803F00D071C070A160D0D160A8D
:103E0800071C070D5369013B53615DF8044B70476C
:103E180053695DF8044B01335361704743F0040361
:103E2800E0E753695DF8044B023B536170475369FF
:103E38005DF8044B023353617047137C03F00303AE
:103E48000029D1D043F00403CEE700BF506300201F
:103E5800214B1A68D2E90010D3680968006810B4C9
:103E68001842946801EA04012ED0137C03F003037E
:103E7800D9B943F008039908013B11740D2B0BD8ED
:103E8800DFE803F00D071C070A160D0D160A071CBC
:103E9800070D5369013B53615DF8044B7047536943
:103EA8005DF8044B01335361704743F00403E0E7C6
:103EB80053695DF8044B023B5361704753695DF8E1
:103EC800044B023353617047137C03F0030300294A
:103ED800D1D043F00403CEE750630020214B5A6849
:103EE800D2E90010D3680968006810B418429468D1
:103EF80001EA04012ED0137C03F00303D9B943F07F
:103F080008039908013B11740D2B0BD8DFE803F067
:103F18000D071C070A160D0D160A071C070D536915
:103F2800013B53615DF8044B704753695DF8044BDE
:103F380001335361704743F00403E0E753695DF8C8
:103F4800044B023B5361704753695DF8044B0233DD
:103F580053617047137C03F003030029D1D043F069
:103F68000403CEE750630020214B9A68D2E9001081
:103F7800D3680968006810B41842946801EA04011B
:103F88002ED0137C03F00303D9B943F00803990832
:103F9800013B11740D2B0BD8DFE803F00D071C074C
:103FA8000A160D0D160A071C070D5369013B5361CC
:103FB8005DF8044B704753695DF8044B0133536156
:103FC800704743F00403E0E753695DF8044B023B94
:103FD8005361704753695DF8044B0233536170476E
:103FE800137C03F003030029D1D043F00403CEE788
:103FF80050630020214BDA68D2E90010D3680968C1
:10400800006810B41842946801EA04012ED0137CA9
:1040180003F00303D9B943F008039908013B11746D
:104028000D2B0BD8DFE803F00D071C070A160D0D42
:10403800160A071C070D5369013B53615DF8044BD1
:10404800704753695DF8044B01335361704743F07F
:104058000403E0E753695DF8044B023B5361704782
:1040680053695DF8044B023353617047137C03F0C6
:1040780003030029D1D043F00403CEE750630020A6
:10408800214B1A69D2E90010D3680968006810B496
:104098001842946801EA04012ED0137C03F003034C
:1040A800D9B943F008039908013B11740D2B0BD8BB
:1040B800DFE803F00D071C070A160D0D160A071C8A
:1040C800070D5369013B53615DF8044B7047536911
:1040D8005DF8044B01335361704743F00403E0E794
:1040E80053695DF8044B023B5361704753695DF8AF
:1040F800044B023353617047137C03F00303002918
:10410800D1D043F00403CEE750630020214B5A6915
:10411800D2E90010D3680968006810B4184294689E
:1041280001EA04012ED0137C03F00303D9B943F04C
:1041380008039908013B11740D2B0BD8DFE803F035
:104148000D071C070A160D0D160A071C070D5369E3
:10415800013B53615DF8044B704753695DF8044BAC
:1041680001335361704743F00403E0E753695DF896
:10417800044B023B5361704753695DF8044B0233AB
:1041880053617047137C03F003030029D1D043F037
:104198000403CEE750630020214B9A69D2E900104E
:1041A800D3680968006810B41842946801EA0401E9
:1041B8002ED0137C03F00303D9B943F00803990800
:1041C800013B11740D2B0BD8DFE803F00D071C071A
:1041D8000A160D0D160A071C070D5369013B53619A
:1041E8005DF8044B704753695DF8044B0133536124
:1041F800704743F00403E0E753695DF8044B023B62
:104208005361704753695DF8044B0233536170473B
:10421800137C03F003030029D1D043F00403CEE755
:1042280050630020214BDA69D2E90010D36809688D
:10423800006810B41842946801EA04012ED0137C77
:1042480003F00303D9B943F008039908013B11743B
:104258000D2B0BD8DFE803F00D071C070A160D0D10
:10426800160A071C070D5369013B53615DF8044B9F
:10427800704753695DF8044B01335361704743F04D
:104288000403E0E753695DF8044B023B5361704750
:1042980053695DF8044B023353617047137C03F094
:1042A80003030029D1D043F00403CEE75063002074
:1042B800214B1A6AD2E90010D3680968006810B463
:1042C8001842946801EA04012ED0137C03F003031A
:1042D800D9B943F008039908013B11740D2B0BD889
:1042E800DFE803F00D071C070A160D0D160A071C58
:1042F800070D5369013B53615DF8044B70475369DF
:104308005DF8044B01335361704743F00403E0E761
:1043180053695DF8044B023B5361704753695DF87C
:10432800044B023353617047137C03F003030029E5
:10433800D1D043F00403CEE750630020214B5A6AE2
:10434800D2E90010D3680968006810B4184294686C
:1043580001EA04012ED0137C03F00303D9B943F01A
:1043680008039908013B11740D2B0BD8DFE803F003
:104378000D071C070A160D0D160A071C070D5369B1
:10438800013B53615DF8044B704753695DF8044B7A
:1043980001335361704743F00403E0E753695DF864
:1043A800044B023B5361704753695DF8044B023379
:1043B80053617047137C03F003030029D1D043F005
:1043C8000403CEE750630020214B9A6AD2E900101B
:1043D800D3680968006810B41842946801EA0401B7
:1043E8002ED0137C03F00303D9B943F008039908CE
:1043F800013B11740D2B0BD8DFE803F00D071C07E8
:104408000A160D0D160A071C070D5369013B536167
:104418005DF8044B704753695DF8044B01335361F1
:10442800704743F00403E0E753695DF8044B023B2F
:104438005361704753695DF8044B02335361704709
:10444800137C03F003030029D1D043F00403CEE723
:1044580050630020214BDA6AD2E90010D36809685A
:10446800006810B41842946801EA04012ED0137C45
:1044780003F00303D9B943F008039908013B117409
:104488000D2B0BD8DFE803F00D071C070A160D0DDE
:10449800160A071C070D5369013B53615DF8044B6D
:1044A800704753695DF8044B01335361704743F01B
:1044B8000403E0E753695DF8044B023B536170471E
:1044C80053695DF8044B023353617047137C03F062
:1044D80003030029D1D043F00403CEE75063002042
:1044E800214B1A6BD2E90010D3680968006810B430
:1044F8001842946801EA04012ED0137C03F00303E8
:10450800D9B943F008039908013B11740D2B0BD856
:10451800DFE803F00D071C070A160D0D160A071C25
:10452800070D5369013B53615DF8044B70475369AC
:104538005DF8044B01335361704743F00403E0E72F
:1045480053695DF8044B023B5361704753695DF84A
:10455800044B023353617047137C03F003030029B3
:10456800D1D043F00403CEE750630020224BD3F8A8
:10457800D420D2E90010D3680968006810B4184242
:10458800946801EA04012ED0137C03F00303D9B91F
:1045980043F008039908013B11740D2B0BD8DFE891
:1045A80003F00D071C070A160D0D160A071C070D48
:1045B8005369013B53615DF8044B704753695DF8DB
:1045C800044B01335361704743F00403E0E7536938
:1045D8005DF8044B023B5361704753695DF8044B27
:1045E800023353617047137C03F003030029D1D0D1
:1045F80043F00403CEE700BF50630020224BD3F8FA
:10460800D820D2E90010D3680968006810B41842AD
:10461800946801EA04012ED0137C03F00303D9B98E
:1046280043F008039908013B11740D2B0BD8DFE800
:1046380003F00D071C070A160D0D160A071C070DB7
:104648005369013B53615DF8044B704753695DF84A
:10465800044B01335361704743F00403E0E75369A7
:104668005DF8044B023B5361704753695DF8044B96
:10467800023353617047137C03F003030029D1D040
:1046880043F00403CEE700BF50630020424B0268AA
:104698009A4210B57AD10379022B77D1431D00F1E4
:1046A8002F01002413F8012F8B4284EA0204F9D168
:1046B8004179A1425FD1D0ED027AF5EEC07AF1EEF0
:1046C80010FA63D4B7EE007AF4EEC77AF1EE10FA76
:1046D8005CDCD0ED037AF5EEC07AF1EE10FA55D431
:1046E800F3EE046AF4EEE67AF1EE10FA4EDCD0ED61
:1046F800047ADFED2A6AF4EEE67AF1EE10FA45D490
:10470800B1EE046AF4EEC67AF1EE10FA3EDCD0EDB2
:10471800057AF4EEE67AF1EE10FA37D4F4EEC77AB9
:10472800F1EE10FA32DCB6EE007AD0ED067AF4EE4D
:10473800C77AF1EE10FA29D4B0EE087AF4EEC77A07
:10474800F1EE10FA22DC00F11B0400F12B0C14F836
:10475800012F131F02F11001DBB2C9B2DB2B02D902
:104768000AB1042912D8A445F1D190F82C30012BB4
:104778000CD8012010BD0023102209480CF0A6FB1C
:1047880000231022214606480CF0A0FB04480CF038
:1047980073FB002010BD00BF314D4941CDCCCC3D4D
:1047A800F8250020504B10B502689A4240F09680D8
:1047B8000379022B40F09280431D00F13F01002451
:1047C80013F8012F8B4284EA0204F9D14179A142FE
:1047D80079D1002200EB420101324B8A03F5FA73CA
:1047E8009BB2B3F57A7F79D80B8C03F5FA739BB239
:1047F800B3F57A7F72D8072AECD1428E40F6B833E7
:104808009A426BD8828E9A4268D8D0F806309FEDCB
:10481800377A07EE903AF4EEC77AF1EE10FA5DD4E3
:10482800F2EE0E6AF4EEE67AF1EE10FA56DCD0F803
:104838002E3007EE903AF5EEC07AF1EE10FA4DD42C
:10484800F3EE046AF4EEE67AF1EE10FA46DCD0F8FC
:104858000A3007EE903AF4EEC77AF1EE10FA3DD43A
:10486800B2EE0E7AF4EEC77AF1EE10FA36DC90F872
:104878003630053B5A2B31D8D0F80E3042F21C5254
:10488800A3F5FA73934229D890F83730092B25D825
:1048980090F83830092B21D890F839301F2B1DD8C3
:1048A800C36BB7EE007A07EE903AF4EEC77AF1EEF2
:1048B80010FA13D49FED0E7AF4EEC77AF1EE10FADF
:1048C8000CDC012010BD002310220A480CF0FEFA6F
:1048D80000231022214607480CF0F8FA05480CF08E
:1048E800CBFA002010BD00BF314D4943CDCCCC3DA3
:1048F80000000044F825002038B5002304460E4D7A
:1049080003212361A38223630C48C4E90053C4E94B
:104918000233C4E90633C4E90833C4E90A3309F0A9
:1049280097FE0421064809F0ABFE0121054809F06D
:10493800C1FE204638BD00BF04190020E042002017
:10494800E0410020F462002070B5044600257B4950
:10495800FF2604F5EB634FF4407220302570C4F84D
:1049680058374FF4687365702162A570A4F89823CE
:10497800E570C4F8A8032671A4F85C376671A573BE
:104988006562A562C4F87853C4F87C5384F89A53D6
:1049980084F85E57C4E9E055C4E9E255C4E9E45532
:1049A80006F0EAF8664B04F5EC6084F8855703F1E5
:1049B8004C02C4F86037C4F86457C4F86C27C4F8CC
:1049C8006857C4F8705784F87457C4F87857C4F80F
:1049D8007C57C4F8805784F8845784F8865784F83D
:1049E8008757C4F88857C4F88C57C4F89057C4F848
:1049F80094570AF057F8534B04F5F36084F81A58A3
:104A080003F15802C4F89837A4F81C6804F5046642
:104A1800C4F8A427C4F89C57C4F8A057C4F8A857EA
:104A280084F8AC57C4F8B057C4F8B457C4F8C057A2
:104A3800C4F8C45784F8F65784F8F857C4F80458EB
:104A4800C4F80858C4F80C58C4F81058C4F81458D6
:104A5800A4F8185884F81B5884F82758C4F828581C
:104A6800C4F82C58C4F83058C4F8345809F080FAFF
:104A7800354B40F20111012003F16C02C4F84038B3
:104A8800A4F878182946C4F84C2803F1980284F849
:104A98007A0804F68800C4F858284FF48072C4F8DD
:104AA8004458C4F84858C4F85058C4F85458C4F87E
:104AB8005C5884F86058C4F86458C4F8685884F896
:104AC8006C58C4F87058C4F87458C4F87C58A4F8E2
:104AD800805884F88258C4F8845810F001F80022ED
:104AE8000023C6E95223C6E9542340F2FF320023CB
:104AF800C6E95623C4F8A059C4F8A459C4F8A8595B
:104B0800C4F8AC590CF086FD034684F8B459304615
:104B1800C4F8B03984F8D55CA4F8D65CA4F8D85C9D
:104B280007F08EF804F55860FFF7E6FE204684F893
:104B3800F45DC4F80650C4F80A5070BD4017002050
:104B48007C1800201C1A00204819002010B50446C3
:104B580004F002FC034A044BC4F8C027C4F8C43765
:104B680010BD00BF350100005101000070B50446BA
:104B78000E4605F0BDFBD4F8683794F88527003B4E
:104B880002F0FF0518BF012384F8F43D0AB928464E
:104B980070BD94F887376FF07E0204F5EC603370CF
:104BA800D4F888377F2BA8BF7F239342B8BF13461A
:104BB8007380D4F88C377F2BA8BF7F239342B8BF6C
:104BC8001346B380D4F890377F2BA8BF7F23934236
:104BD800B8BF1346B37109F06FFF284670BD00BF18
:104BE800704700BF90F8F40D704700BFD0F85438F4
:104BF8000BB10120704790F8950D7047D0F8A007C9
:104C0800003818BF012070470138022808B505D8B8
:104C180008480CF031F907480CF02EF905480CF05B
:104C28002BF964200CF0A2FC0248BDE808400CF007
:104C380023B900BFF8250020FFEE007A30B5B4EEA6
:104C4800E70A87B0F1EE10FA60D4F7EE007AB4EE16
:104C5800E70AF1EE10FA42DD4FF07F0EFF24FFEE77
:104C6800007AF4EEE70AF1EE10FA4BD4F7EE007A88
:104C7800F4EEE70AF1EE10FA4CDD7F224FF0FF0C5C
:104C88000301C0F30011002503F4796301950B4378
:104C98000101039501F020018DF80E4002950B43A8
:104CA80001018DF80FE001F040010B4301094008B4
:104CB80001F0020100F020000B4314218DF80600DA
:104CC80001A88DF807308DF80510CDE904558DF849
:104CD80010C08DF811200DF007FF07B030BDDFEDD3
:104CE800147A20EE270AFDEEC07A17EE90EAFFEE5E
:104CF800007A5FFA8EF4CEF3072EF4EEE70AF1EEAF
:104D080010FAB3D580224FF0010CB9E74FF0800EAE
:104D18000124A4E7DFED067A60EEA70AFDEEE07A4B
:104D280017EE902A5FFA82FCC2F30722A8E700BFB9
:104D380000FEFF460B4610B5362800F29782DFE8E2
:104D480010F08C0282027902700267025E0255023C
:104D58004C0243023A02310228021F02BF01B60187
:104D6800AD01A4019B0192018901800177016E01C7
:104D780065015C0153014A01410138012F012601F7
:104D88001D0113010901FF00F500EB00E100D70048
:104D9800CD00C300B900AF00A5009B0091008700BB
:104DA8007D00730069005F0055004B00410037002B
:104DB800C84C0422C8493620C4F8D8300CF0D6FEB6
:104DC800012010BDC34C0422C4493520C4F8D43096
:104DD8000CF0CCFE012010BDBE4C0422C04934208A
:104DE800C4F8D0300CF0C2FE012010BDB94C04222A
:104DF800BC493320C4F8CC300CF0B8FE012010BDFB
:104E0800B44C0422B8493220C4F8C8300CF0AEFEC5
:104E1800012010BDAF4C0422B4493120C4F8C4307D
:104E28000CF0A4FE012010BDAA4C0422B049302089
:104E3800C4F8C0300CF09AFE012010BDA54C042225
:104E4800AC492F20C4F8BC300CF090FE012010BDF6
:104E5800A04C0422A8492E20C4F8B8300CF086FED5
:104E6800012010BD9B4C0422A4492D20C4F8B43065
:104E78000CF07CFE012010BD964C0422A0492C2089
:104E8800C4F8B0300CF072FE012010BD914C042221
:104E98009C492B20C4F8AC300CF068FE012010BDF2
:104EA8008C4C042298492A20C4F8A8300CF05EFEE5
:104EB800012010BD874C042294492920C4F8A4304D
:104EC8000CF054FE012010BD824C04229049282089
:104ED800C4F8A0300CF04AFE012010BD7D4C04221D
:104EE8008C492720C4F89C300CF040FE012010BDEE
:104EF800784C042288492620C4F898300CF036FEF5
:104F0800012010BD734C042284492520C4F8943034
:104F18000CF02CFE012010BD6E4C04228049242088
:104F2800C4F890300CF022FE012010BD694C042218
:104F38007C492320C4F88C300CF018FE012010BDE9
:104F4800644C042278492220C4F888300CF00EFE04
:104F5800012010BD5F4C042274492120C4F884301C
:104F68000CF004FE012010BD5A4C04227049202088
:104F7800C4F880300CF0FAFD012010BD554C042215
:104F88006C491F20E3670CF0F1FD012010BD514C66
:104F9800042269491E20A3670CF0E8FD012010BD1A
:104FA8004C4C042265491D2063670CF0DFFD01208D
:104FB80010BD484C042262491C2023670CF0D6FD22
:104FC800012010BD434C04225E491B20E3660CF00F
:104FD800CDFD012010BD3F4C04225B491A20A36679
:104FE8000CF0C4FD012010BD3A4C04225749192089
:104FF80063660CF0BBFD012010BD364C04225449F9
:10500800182023660CF0B2FD012010BD314C04229B
:1050180050491720E3650CF0A9FD012010BD2D4C67
:1050280004224D491620A3650CF0A0FD012010BDF7
:10503800284C04224949152063650CF097FD01208E
:1050480010BD244C04224649142023650CF08EFD23
:10505800012010BD1F4C042242491320E3640CF0C8
:1050680085FD012010BD1B4C04223F491220A3647A
:105078000CF07CFD012010BD164C04223B49112088
:1050880063640CF073FD012010BD124C04223849F2
:10509800102023640CF06AFD012010BD0D4C042281
:1050A80034490F20E3630CF061FD012010BD094C69
:1050B800042231490E20A3630CF058FD012010BDD5
:1050C800044C04222D490D2063630CF04FFD012090
:1050D80010BD00BF506300205D260000CD250000F4
:1050E800BD0A00002D0A00009D0900000D090000FE
:1050F800DD0B00004D0B00006D0C00007D0800006A
:10510800211E0000911D0000011D0000711C0000FF
:10511800E11B0000511B0000C11A0000311A0000F9
:10512800A11900001119000081180000F1170000F2
:1051380061170000D516000049160000BD150000D3
:1051480031150000A5140000191400008D1300008B
:105158000113000075120000E91100005D11000044
:10516800D110000045100000B90F00002D0F0000FD
:10517800A10E0000150E0000890D0000FD0C0000B6
:105188003B4C04223B490C2023630CF0EFFC01202C
:1051980010BD374C042238490B20E3620CF0E6FCC2
:1051A800012010BD324C042234490A20A3620CF0BD
:1051B800DDFC012010BD2E4C042231490920636218
:1051C8000CF0D4FC012010BD294C04222D490820E4
:1051D80023620CF0CBFC012010BD254C04222A4987
:1051E8000720E3610CF0C2FC012010BD204C042212
:1051F80026490620A3610CF0B9FC012010BD1C4C07
:1052080004222349052063610CF0B0FC012010BD85
:105218000422174C1F49104623610CF0A7FC0120FB
:1052280010BD134C04221C490320E3600CF09EFCC3
:10523800012010BD0E4C042218490220A3600CF076
:1052480095FC012010BD0446094804221449436016
:1052580001200CF08BFC204610BD054C042211499E
:10526800002023600CF082FC012010BD002010BD3E
:105278005063002041250000B524000029240000C7
:105288009D2300001123000085220000F921000061
:105298006D210000E120000055200000C91F00001A
:1052A8003D1F0000B11E00002DE9F0410F461646D3
:1052B8000446022138460CF013FA022130460CF05D
:1052C8000FFA224B3A0122483101DFF88CC053F81B
:1052D800028003EB0712C4F80080D2F80CE003EB5D
:1052E800061259580023C4F808E0D2686361194BC4
:1052F800E26045681B686160ACFB033C4FF4FA63ED
:105308004FEA9C4C03FB0CFC43685B1B9C45FBD899
:10531800D8F80030384609681EEA030F14BF012385
:1053280000230A42214618BF43F002032374FFF703
:1053380001FD0346214630462376FFF7FBFC227E1B
:105348000346204613442376BDE8F081BC1D0020A7
:10535800001000E00425002083DE1B43022110B565
:10536800044608460CF0BCF9022105200CF0B8F9F7
:1053780002200CF0A3F90346052084F820300CF035
:105388009DF9002302460548636284F82120E36200
:10539800A386BDE810400BF06FBD00BFF8250020C4
:1053A800A94AAA4930B5137E83B004460D68012B7B
:1053B80040F28C8072B6536962B6002B1846B8BFAB
:1053C800D81C80101AD072B6D3F1000C03F0030178
:1053D8000CF0030C58BFCCF10001516162B6226891
:1053E80062B1B3F5007F06DA13F5007F40F334812C
:1053F800404240B201E06FF07E009047944A137E2D
:10540800012B50D972B6536962B6002B1846B8BF43
:10541800D81C80101AD072B6D3F1000C03F0030127
:105428000CF0030C58BFCCF10001516162B6626800
:1054380062B1B3F5007F06DA13F5007F40F30E8101
:10544800404240B201E06FF07E00904702200CF02D
:1054580035F994F82030834203D0636AEB1A312B74
:1054680017D805200CF02AF994F8213083420ED081
:10547800E36AEB1A312B0AD9E562002852D10123DD
:105488002563E56184F83530237684F8210003B07C
:1054980030BD656200282CD10123A56284F8343020
:1054A80084F82000DDE772B6136891681B6819401C
:1054B80053681868D36818427AD0137C03F0030342
:1054C80009B143F0040343F0080377E072B61368A8
:1054D80091681B68194053681868D36818423BD014
:1054E800137C03F0030309B143F0040343F00803FA
:1054F80038E094F83430002BD2D00022A36A84F824
:105508003420EB1A40F2DB52934200F2A980514B4F
:105518001B78002BC4D1A368002BC1D001909847F9
:105528000198BDE7002394F835202376002AACD0F3
:10553800484A84F835301378002BA6D1236B40F203
:10554800DB52EB1A934240F290806369002B9CD0A7
:1055580001909847019898E7137C03F0030309B179
:1055680043F004039908013B11740D2B3FF623AF58
:1055780001A151F823F000BF813600007936000000
:105588009136000079360000173400008936000093
:10559800813600008136000089360000173400008B
:1055A8007936000091360000793600008136000017
:1055B800137C03F0030309B143F004039908013B8A
:1055C80011740D2B3FF61FAF01A151F823F000BF56
:1055D8007136000069360000A13600006936000007
:1055E80067340000993600007136000071360000FB
:1055F800993600006734000069360000A1360000C3
:1056080069360000713600005369013B5361FBE6BF
:10561800536901335361F7E65369013B5361CBE6A4
:10562800536901335361C7E65369023B5361C3E6CB
:10563800536902335361BFE65369023B5361E3E6A2
:10564800536902335361DFE674610020546A002015
:1056580090610020922F00207F20CEE67F20F4E684
:10566800E368002B7FF45AAF1AE72369002B7FF415
:105678006FAF0AE710B501210A200CF031F80121BB
:105688000A20214C0BF0F0FF012125200CF028F80E
:10569800012125200BF0E8FF012107200CF020F85C
:1056A800012107200BF0E0FF00234FF48C72204605
:1056B800F0210BF0A9F9204601210BF03BF9204617
:1056C800002109F0B7FC00224FF0FF3320460321E8
:1056D800E27663610AF072FA0C4B03220C49204609
:1056E80023610BF097FB204602210AF067FA094B69
:1056F80020460C22084923610BF08CFB0748BDE8C3
:1057080010400BF0B9BB00BF5C6A00203C005A0097
:10571800240B00203C007D00280B0020F8250020E9
:1057280010B501211B4C22200BF0DAFF01212220A9
:105738000BF09AFF00234FF48C722046F0210BF0F7
:1057480063F9204601210BF0F5F82046002109F005
:1057580071FC00226FF0F82320460321E276636192
:105768000AF02CFA0C4B03220C49204623610BF05B
:1057780051FB204602210AF021FA094B20460B2250
:10578800084923610BF046FB0748BDE810400BF0C1
:1057980073BB00BFE06A00203C005A00240B0020C5
:1057A80054007D00380B0020F825002003460846E9
:1057B8001146062B10B582B014D90D2B08D90E3B13
:1057C800062B3AD8DFE803F035312F2418141000DF
:1057D8001D4C073B1D4A34F9133002B0BDE8104098
:1057E8000FF012B81A4CF5E71A4B1B4A1B68F4E77E
:1057F8001A4B1B4A1B78F0E71A4B93ED007A1A4AAA
:10580800B7EEC77A8DED007B0EF0FEFF02B010BD3B
:10581800164B174A93ED007AB7EEC77A8DED007BE9
:105828000EF0F2FFF2E7134BE7E7134B134A1B881E
:10583800D3E7134B114A1B88CFE7124A02B0BDE8E1
:1058480010400EF0E1BF00BF74690020940A0020E8
:1058580064690020BC2C0020C80A0020912F002079
:10586800C00A0020AC2C0020A80A00206069002093
:10587800B40A0020B42C0020786B0020A00A002075
:10588800766B0020D00A0020C1EB0111364A374B55
:1058980049002DE9F0410746B3F9005092F900009C
:1058A8008CB27BB286B004F11802984292B253D0FF
:1058B800AF424DD0062F53D94FF6FF734FF6A0468F
:1058C8000D2F88BF1E460023294D12B201931E23B7
:1058D8000021284600934FF48C730AF021FCEE82D5
:1058E800AE820221284604F11F060AF067F9042354
:1058F80036B22B821F4B6E8253F82780B8F1000F07
:1059080007D040460FF00CFB4146024628460BF0F4
:1059180081FA02A938460E22FFF748FF982302A809
:105928006E822B820FF0FCFA02A9024610480BF097
:1059380071FA04F1350242F204144FF48C7312B276
:1059480000210B4800940AF083FB06B0BDE8F08103
:1059580000264FF6FF73B7E700264FF4FC63B3E762
:1059680040F25F460023AFE78F2F0020746B0020C2
:105978005C6A0020880C00202DE9F04F2DED048B87
:105988008FB0002800F01B8240F25F42914B924F8B
:105998000292B3F80080914A0492049B00219A1E57
:1059A80003F10C04059232F9023F002BC3F1000009
:1059B800B8BF03B29942B8BF1946A242F3D16429CD
:1059C80040F38C82C82940F30482B1F5967F9FED9D
:1059D800848ADFED847ACBBF4FF0FA094FF096093D
:1059E8004FF4FA764FF4967638FE278A7E4C0021DB
:1059F80016254FF0CC0A204609F01CFB00220F2385
:105A080020461146009501934FF48C730AF088FBE9
:105A1800022120460AF0D2F8029B39460722E38287
:105A28002046A38241F6C307704B23610BF0F2F9BD
:105A38006F4B0121204663610AF0C0F86D4B6E4A36
:105A480014211B6809A8009333460EF0DDFE09A84F
:105A58000FF066FA082140F215130246618200EB46
:105A680040012046A3EB410309A923820BF0D2F998
:105A780040F641032A461C212046CDE900A3FA231B
:105A88000AF04EFB44F208237C221C212046009396
:105A9800FA230AF0DDFAFA2349221C21204600974E
:105AA8000AF0D6FAFA23AF221C21204600970AF002
:105AB800CFFA42F204132A461C2100932046FA2307
:105AC8000AF0C6FAB8F1000F04D04A4B1A684245EA
:105AD80000F20A82012144480AF070F8474B484A0C
:105AE8000721636107A8334600250EF08DFE4FF4A9
:105AF800B01307A89FED439A23614FF07C0A0FF07B
:105B08000FFA07A9024638480BF084F94B463C4A7D
:105B1800072107A8DFED3C9A0EF076FE4FF48A03C2
:105B280007A8DFED3A8A23610FF0FAF907A90246C0
:105B38002D480BF06FF9364B0222364923612A486B
:105B48000BF068F94B46344A072107A84FF01C09A7
:105B58000EF05AFE4FF42B0307A823610FF0E0F96B
:105B680007A9024620480BF055F933462A4A07216F
:105B780007A82E460EF048FE4FF45A0307A82361E3
:105B88000FF0CEF907A9024617480BF043F9234B4B
:105B980001222349236114480BF03CF9154B214A93
:105BA80014211B6809A80EF02FFE09A80FF0B8F9F8
:105BB800E423024609A9638200EB40030A485B001C
:105BC800C3F58B73238201240BF024F906480AF0ED
:105BD800BFF941E0766B0020300A0020646900209C
:105BE8000000FA4300009643E06A00200900030021
:105BF80018C618C6BC2C0020400A00201084108447
:105C0800500A0020000000000000CC420000F842CA
:105C180004007800540A0020580A00201C00E40000
:105C28005C0A0020600A0020E12BA8BFE1231A4685
:105C38001FB205F11C030FFA83FB002C00F09880BB
:105C480002354FF0000446F10006A5F1FC0232438C
:105C580000F0DA80BA46D946AC4BFA221F68002316
:105C6800A7FB050107FB06110DF066FE4045C0F0D5
:105C7800B680874240F2B380A0EB0800A7EB080784
:105C8800B1EE086A049907EE900AF8EE676A07EE23
:105C9800907AB8EE677AC6EE877A67EE867ABDEEB6
:105CA800E77A17EE102A17EE103A052AA8BF05233F
:105CB80031F9130007EE103A01EB4303B8EEC77A47
:105CC80005EE900AB3F90210F8EEE55A05EE101A3F
:105CD80077EEC77AB8EEC55A002A40F0838035EED1
:105CE800654AB3F90430B6EE007A06EE103AB8EE1B
:105CF800C66A36EE656A26EE076A27EEA77AF0EEE0
:105D0800086AB0EE003A67EE874A67EE266AF7EE51
:105D1800002AB0EE642AF0EE663AE4EEC36AA7EE13
:105D2800432AD4EE833A34EEC77A77EE827A73EE5A
:105D3800A24A67EE847AE5EEA47AE6EE857AE7EE83
:105D4800067A67EEA97A87EE887A78EEC77AFDEE4A
:105D5800E77A17EE903A1BB2152B3FF765AF162777
:105D680005F11C033A460FFA83FB002C7FF468AF59
:105D780094B2029B1FFA8AF16548621E019303914F
:105D88005B4612B2013400924A1E494624B212B24E
:105D980009F0CCF9029B524649465D48CDE90073AB
:105DA8005B4609F0C3F9039902985B464A1C4946C9
:105DB800CDE9004012B2564809F0B8F940E74FF66D
:105DC800A042544B544F0292544AB3F800800492B4
:105DD800E3E59FED538A4FF06409C82606E6F0EE26
:105DE800497AB0E733F9021CB6EE007A042A04EEC9
:105DF800101AB8EEC44A35EE444A24EE074A7FF733
:105E080070AF35EE656A78E74148254609F04AFFE4
:105E18009FED449ADFED448A444E059F4CE001FB18
:105E28000500191841F10001A6FB01CE2EF0010C66
:105E38000CEB5E0CA1EB0C015B1AA3FB061360F1E3
:105E48000000490806FB003341EAC3714144FA20C7
:105E58000023A1FB00010DF06FFD1C2140F215127B
:105E6800084403B21B2B03DD9342A8BF134619460F
:105E780037F9023F4FF6FF72254807EE103A0092B5
:105E88000423B8EEC77A27EE097AC7EE087A78EEC7
:105E9800E77AFDEEE77A17EE902A12B2E12AA8BF58
:105EA800E122162AB8BF162209F0BAFB013445F1DF
:105EB8000005E31F2B430CD0144B1A68A2EB080112
:105EC8004245A1FB0430AAD84146002ABFD11C2173
:105ED800CEE70FB0BDEC048BBDE8F08F9FED148AC0
:105EE8004FF03209642681E5FA210023A8FB01015D
:105EF8000DF022FD1C3053462A4601B247F6EF301A
:105F0800009020460AF03AF8E4E500BFBC2C0020D7
:105F1800E06A0020786B0020380A002074690020AD
:105F2800000048430000CC420000F842ABAAAAAAED
:105F38000000C8422DE9F04F844D91B000214FF088
:105F48000F0828464FF0FF3409F074F80022162194
:105F58004FF48C73284609AE07AF4FF01B09CDE903
:105F6800001811460AF0DCF80221284609F026FE3E
:105F7800774B072277492846C5E904340AF04AFFD7
:105F8800754B012128466B6109F018FE734B1022EE
:105F9800734928462B610AF03DFF724B724AADF8EF
:105FA80020400024079293E8070086E807000121B3
:105FB800284609F003FE5C2321B216222846CDE9C3
:105FC80000980AF0ADF837F8022B56F804ABA31C7A
:105FD8001F21EA825046AA822B826982BAF1000FF9
:105FE80006D00EF09DFF5146024628460AF012FFE1
:105FF8005D3440F21713A4B29C42DCD15B4B0026FF
:106008004FF01B0B514F0393594B0493594B059376
:1060180006EB460416F0010F40F6410A4FF05C0308
:1060280004EBC40418BF4FF0000A00213846A4B29C
:10603800CDF800B0CDF804A05FFA86F804F1310974
:106048003A340FFA89F924B24A460AF069F84A4BF9
:106058004A4A40F25F411B7810784FF6FF72C3EB53
:10606800C3036C82434408F10E08DBB2834218BFB5
:106078000A460E210CA8EA82AA82039A32F9023F44
:106088000093022303922B8233463D4A0EF0BCFB59
:106098000CA80EF045FF0CA9024638460AF0BAFED5
:1060A8005C234A465D213846CDE900BA0AF038F843
:1060B800049A0E210CA832F9023F6C820093314BEE
:1060C80004926B615F23304A2B8233460EF09CFBAF
:1060D8000CA80EF025FF0CA9024638460AF09AFED5
:1060E8004A465D23BA213846CDF804A0CDF800B061
:1060F8000AF016F84FF0FF330E225FFA88F06B6152
:10610800BC230CA96C822B82FFF750FB059B53F82C
:10611800044F05933CB120460EF002FF214602468B
:1061280038460AF077FE3A21384609F0ABFC0136CA
:106138000CA80EF0F5FE0CA9024638460AF06AFED5
:10614800072E7FF465AF11B0BDE8F08FE06A00203C
:1061580009000300D80A002018C618C678000800ED
:10616800680A0020600900205F04A0FC6269002022
:1061780072690020BC0C0020996B0020746B002011
:106188007C0A0020A0FCA0FC880A002010B5204C46
:106198008AB0034608461146E268D4F808C0042BC2
:1061A80006922269CDF814C00792D4F814C0A269E7
:1061B800CDF820C0099225D8164C9A0003EB83032A
:1061C80004EB83031C69237873B102F12803124A94
:1061D8006B4413ED057A0294B7EEC77A8DED007B18
:1061E8000EF012FB0AB010BD02F128030B4A6B44F3
:1061F80013ED057AB7EEC77A8DED007B0EF004FB40
:106208000AB010BD064A0AB0BDE810400EF0FCBA4C
:1062180010680020580B0020080B0020000B0020FD
:10622800D00A0020C1EB011104284FEA41012DE9F1
:10623800F0418CB286B004F1180292B259D80746E0
:10624800324B3349B3F900007BB291F900109942FF
:106258004BD0874240F2FF764FF6FF730CBF002603
:1062680000232C4D12B201931E23002128460093CF
:106278004FF48C7309F054FF02212846EE82AE8257
:1062880009F09CFC042304F11F062B8236B2224B32
:106298006E8253F82780B8F1000F07D040460EF001
:1062A8003FFE4146024628460AF0B4FD02A9384698
:1062B8000E22FFF76BFF982302A86E822B820EF046
:1062C8002FFE02A9024613480AF0A4FD04F1350284
:1062D80042F204144FF48C7312B200210D4800945A
:1062E80009F0B6FE06B0BDE8F08100264FF4FC6365
:1062F800B7E700211E204FF48C7312B2CDE90001DC
:10630800044809F00DFF06B0BDE8F081746B002069
:106318008F2F00205C6A0020740C0020F0B500224A
:1063280087B03C4C1F2118274FF0FF354FF48C7372
:1063380020460526CDE90071114609F0F1FE02213B
:106348002046656109F03AFC334B03223349236147
:1063580020460AF05FFD324B0A223249236120466B
:106368000AF058FD01212046656109F027FC2E4BF3
:106378000C212E4AB3F900300DEB010000960133D1
:106388000EF042FA2A4B03A823610EF0C9FD03A9B7
:10639800024620460AF03EFD264B274A1B68126833
:1063A8009A421AD9254B1B88312B20D84FF4787282
:1063B8004FF48C732046009701920022114609F091
:1063C800AFFE02212046656109F0F8FB32461C4900
:1063D8001C4B104823610AF01DFD0024E1B2013472
:1063E8000846FFF71FFF072CF8D107B0F0BD0022C1
:1063F8004FF400414FF48C732046019111460097E9
:1064080009F08EFE02212046656109F0D7FB0722BC
:106418000D49DDE75C6A002009000400180A002025
:10642800410004001C0A0020746B0020280A002088
:10643800DE000A00546A002048670020706B0020C4
:10644800080A002055000400100A0020614B1B7840
:10645800022B00F0A380002218204FF48C73114601
:10646800F0B55D4C89B00F254FF0FF36CDE900053A
:1064780020465A4D09F054FE02212046666109F073
:106488009DFB574B03225749236120460AF0C2FC63
:106498002B78002B7BD140F25F425349E282A282E3
:1064A800524A216152F823100846514F03910EF0C9
:1064B80037FD03990246484807260AF0ABFC01213C
:1064C8004548676109F07AFB2B78082104A8C3EBDB
:1064D800431203EBC203474A128800961344464A04
:1064E8000133DBB20EF090F9444B04A823610EF09F
:1064F80017FD04A9024638480AF08CFC02213648E8
:10650800676109F05BFB2B783D4A0821013306A837
:106518000EF07AF93B4B06A823610EF001FD06A99F
:1065280002462D480AF076FC374B384A1B68126839
:106538009A421DD9364B1B88312B31D8002218239B
:106548004FF478712448CDE9003111464FF48C732B
:1065580009F0E6FD4FF0FF3302211F48636109F09F
:106568002DFB05222B492C4B1B4823610AF052FCBA
:106578002D780024C5EBC505EDB2E1B201346818E9
:10658800C0B2FFF781F9072CF7D109B0F0BD012B94
:106598001CD0154B2149C4E9043685E7FFF7BEBE78
:1065A800002218234FF400410B48CDE90031114671
:1065B8004FF48C7309F0B4FD4FF0FF330221064805
:1065C800636109F0FBFA32461549CCE74FF6A04261
:1065D80063E700BF902F00205C6A0020996B0020C1
:1065E80009000400240B0020410004004C0B00208B
:1065F80018C618C6746B0020280A0020A2000A00DA
:10660800440B0020DA000400546A00204867002088
:10661800706B0020080A002055000400200A0020A2
:10662800100A00202DE9F04F564C8FB00021564F2C
:106638002046DFF8749108F0FDFC00221F20162187
:106648004FF48C7348260025DFF860B1CDE90010BF
:106658001146204609F064FD0221204609F0AEFAF1
:106668004FF0FF3349490B222046C4E90413484937
:106678000AF0D0FB474B01212046636109F09EFADE
:10668800454B0E224549204623610AF0C3FB444985
:1066980015F0010F40F64103A6F10E02B1F9001002
:1066A80018BF002324205FFA85F8A94212B25AD0F5
:1066B8000021CDE900034FF48C73204609F030FD2A
:1066C80040F2FF7301212046E3820FFA86FAA38283
:1066D80009F074FA59F8041B04230135A4F812A030
:1066E80008462382059131B10EF01AFC059902463D
:1066F80020460AF08FFB0E2206A940462436FFF7F3
:1067080045FD822306A8A4F812A023820EF008FCF7
:1067180006A90246204614370AF07CFB17ED036AE7
:1067280017ED047A1021B7EEC66A5A46B7EEC77A53
:106738000AA8B6B28DED026B8DED007B0EF064F801
:10674800C323184A0AA823826261A4F812A00EF093
:10675800E7FB0AA9024620460AF05CFB052D96D104
:106768000FB0BDE8F08F242343F286112046CDE90F
:1067780000314FF48C73002109F0D2FC4FF6FF73FF
:10678800A0E700BFE06A0020580B002009000300C2
:10679800D40A002018C618C6B4000800E00A002071
:1067A800746B00204D6B4D6B740C0020F00A0020B8
:1067B800094B1B78022B0CD0084B1B7833B1012BEB
:1067C80001D0FFF7B7BB0020FFF7D6B80120FFF7CD
:1067D800D3B8FFF727BF00BF902F0020996B002088
:1067E80040F2DB5398422DE9F0470C4682B041D87D
:1067F8004FF06408324B4FF48A75002208FB00F70B
:10680800DFF8D89011462F48A3FB073A18234FEA20
:106818005A1A05FB0AF5CDE90032A9FB05364FF4F3
:106828008C7309F07DFC284B76099F423AD8CAEB55
:106838004A104000A9FB00904009C00240F4FC60E7
:1068480080B2632D24D8214A4FF6FF73204E0121D0
:106858001C4D022C18BF164628466B6109F0AEF98C
:106868001C4B0622314628462B6102B0BDE8F04792
:106878000AF0D0BA002218204FF48C734FF48A76AD
:10688800009011460F48019209F04AFC4FF680200B
:10689800102133B20422CDE900100221094809F081
:1068A8003FFCD0E756230C4803FB0A00B0FBF8F086
:1068B800C0F13F00C0B2400140F47840C1E700BFDA
:1068C800F11976055C6A0020D32A0100140B002018
:1068D8001C0B00207A00080034EFFFFF1F85EB51E6
:1068E800014B1888704700BF706B002001460020DC
:1068F80008B50BF08FF80120A5210BF08BF80248A2
:10690800BDE808400AF0B8BAF8250020012010B503
:106918000AF070FFA52802D00024204610BD0020F0
:106928000AF068FF0446002101200BF073F8631E8B
:10693800DBB2032BF0D802480AF09EFAEDE700BF5D
:10694800F825002010B54D2100223224492341703A
:106958009446047001248370431DC17000F137010F
:10696800047180F8372013F8012F8B428CEA020C4F
:10697800F9D10D4C382280F805C004210BF0E4F859
:1069880021880A48013189B221800AF069FA07484A
:106998000AF072FA2388322B01D0012010BD034877
:1069A8000AF06AFA012010BD706B0020F82500205B
:1069B800F0B58FB006466F463C46C7F1040560192E
:1069C8000AF018FF0EAB04F8010B9C42F7D16F4B8D
:1069D800009A9A4240F09A809DF80430012B40F0CA
:1069E80095800DF105030DF13701002413F8012FEF
:1069F8008B4284EA0204F9D19DF805108C427AD1C1
:106A080004AA07F11E0132F8023F03F5FA739BB29C
:106A1800B3F57A7F7AD8D38903F5FA739BB2B3F5C5
:106A28007A7F73D88A42EED1BDF8322040F6B83367
:106A38009A426BD8BDF834209A4267D8DDF8063000
:106A48009FED537A07EE903AF4EEC77AF1EE10FA1A
:106A58005CD4F2EE0E6AF4EEE67AF1EE10FA55DC4A
:106A6800DDF82E3007EE903AF5EEC07AF1EE10FA26
:106A78004CD4F3EE046AF4EEE67AF1EE10FA45DC53
:106A8800DDF80A3007EE903AF4EEC77AF1EE10FA24
:106A98003CD4B2EE0E7AF4EEC77AF1EE10FA35DC99
:106AA8009DF83630053B5A2B30D8DDF80E3042F2CF
:106AB8001C52A3F5FA73934228D80CAD3C46103605
:106AC80010370FCCAC4246F8100C46F80C1C46F8B0
:106AD800082C46F8043CF1D100230A2203CF306089
:106AE800716001212B480AF0F1F92A480AF0C4F92B
:106AF80001200FB0F0BD0023102226480AF0E6F965
:106B080000231022214623480AF0E0F921480024F6
:106B18000AF0B2F94FF07E53322274711946C6F862
:106B280006304D2332700122C6F80A1073704621D0
:106B3800F370002332716FF07702C6F82E301323FA
:106B4800C6F81240F3734923C6F81640C6F81A402F
:106B5800C6F81E40C6F82240C6F82640C6F82A40A5
:106B680086F8324086F8334086F8344086F8354057
:106B780086F836103474B273747486F83740B3707C
:106B880004480AF079F920460FB0F0BD324D494D5E
:106B9800CDCCCC3DF825002000220221431D94468F
:106BA80010B5134C017100F12F010460C28013F875
:106BB800012F8B428CEA020CF9D10E4C302280F85E
:106BC80005C040210AF0C0FF21880B48013189B275
:106BD80021800AF045F908480AF04EF92388322B3B
:106BE80001D0012010BD04480AF046F9012010BD6B
:106BF800314D4941706B0020F82500202DE9F04106
:106C08008CB007466E463446C6F1400560190AF056
:106C1800F1FD0CAB04F8010B9C42F7D13046FDF7AF
:106C280035FD8046B8B134463D460FCC0FC50FCC74
:106C38000FC594E80F0085E80F0000230A229DF88D
