:0200000460009A
:100000004643464200000156000000000101020084
:1000100000000000000000000000000000000000E0
:1000200000000000000000000000000000000000D0
:1000300000000000000000000000000000000000C0
:1000400000000000010406010000000000000000A4
:100050000000800000000000000000000000000020
:100060000000000000000000000000000000000090
:100070000000000000000000000000000000000080
:10008000EB04180AFF1E04320126000000000000E5
:100090000000000000000000000000000000000060
:1000A0000000000000000000000000000000000050
:1000B0000000000000000000000000000000000040
:1000C0000000000000000000000000000000000030
:1000D0000000000000000000000000000000000020
:1000E0000000000000000000000000000000000010
:1000F0000000000000000000000000000000000000
:1001000000000000000000000000000000000000EF
:1001100000000000000000000000000000000000DF
:1001200000000000000000000000000000000000CF
:1001300000000000000000000000000000000000BF
:1001400000000000000000000000000000000000AF
:10015000000000000000000000000000000000009F
:10016000000000000000000000000000000000008F
:10017000000000000000000000000000000000007F
:10018000000000000000000000000000000000006F
:10019000000000000000000000000000000000005F
:1001A000000000000000000000000000000000004F
:1001B000000000000000000000000000000000003F
:1001C000000100000010000001000000000000001D
:1001D000000001000000000000000000000000001E
:1001E000000000000000000000000000000000000F
:1001F00000000000000000000000000000000000FF
:10020000FFFFFFFFFFFFFFFFFFFFFFFFFFFFFFFFFE
:10021000FFFFFFFFFFFFFFFFFFFFFFFFFFFFFFFFEE
:10100000D1002043F1150060000000000000000046
:10101000201000600010006000C0026000000000AE
:101020000000006000CC020000000000FFFFFFFF96
:10103000FFFFFFFFFFFFFFFFFFFFFFFFFFFFFFFFC0
:10104000FFFFFFFFFFFFFFFFFFFFFFFFFFFFFFFFB0
:10105000FFFFFFFFFFFFFFFFFFFFFFFFFFFFFFFFA0
:10106000FFFFFFFFFFFFFFFFFFFFFFFFFFFFFFFF90
:10140000824205D051F8043B40F8043B8242F9D8AF
:10141000704700BF044A05494FF0000342F8043BFF
:101420009142FBD8704700BFC0520020C09C0020F2
:1014300080B5BFF34F8F00F075F9544C544B082022
:101440005449C3F85401544AC3F800115348C3F82F
:10145000F0405349FFF7D4FF524A53495348FFF72E
:10146000CFFF534CFFF7D6FF4FF470004FF0E02151
:101470000023504AC1F8880D44F823200133B02BD3
:10148000FAD14D4B80214D4A03F8011B9342FBD109
:101490004FF0E0254A4F4B4A4FF0FF31C5F8084D59
:1014A0000026D5F8243D43F4E023C5F8243DFB692C
:1014B00023F07F0343F04003FB617B6A23F07F034B
:1014C00043F040037B629166D1661167516700F07B
:1014D00031F93D4B63223D49A3633D4BE363032355
:1014E0006A613C4AAE612B61C5F8202DD5F8FC2D10
:1014F000394B42F08072C5F8FC2D1A6842F00102A7
:101500001A605B680B6000F0D9FA344800F058FCB0
:10151000F96E334B334A41F44051F9661E60C3F80B
:101520000861C3F81861C3F82861C3F83861936B88
:10153000DB0708D442F615632B4951651365936B9D
:1015400043F001039363274A284C936843F0011347
:10155000936000F079F900F05FF800F02DFC00F0E6
:10156000DBFA00F0E1F82368132BFCD900F06CFBE8
:101570002368B3F5967FFBD300F0DAF800F0D6F8D5
:1015800000F022FC00F004FC30BFFDE70C0D11134D
:1015900000800D401B101820A84902000000000028
:1015A000D01F0060C05200207C6902600000002053
:1015B00000500020D996010000E400E0A0E400E023
:1015C00000C00F4000C00A4045840100189B002065
:1015D0004984010000002020001000E00046C323E1
:1015E0000040084000400D400000C0561C9B0020F9
:1015F000054B4FF42A01054A05485A641864054A08
:1016000099639546FFF714FF00C00A40FFABAAAAF2
:101610000700200000800520104BA020104AD96E42
:1016200041F4403110B4D96640F23764D96E41F4C8
:101630004071D96654649064936C1B06FCD4094ACB
:1016400040F23761A02351649364936C13F08003DC
:10165000FBD1054A13705DF8044B704700C00F4082
:1016600000400C4000800C407B9C00202B4A002155
:10167000012310B4C2F8A000C2F8A410C2F8B03020
:101680005369DB07FCD501234FF4803423495361B0
:10169000C2F8A000C2F8A440C2F8B0304B69DC0721
:1016A000FCD501234FF400341C4A4B61C1F8A00063
:1016B000C1F8A440C1F8B0305369D907FCD5012363
:1016C000174C16495361C2F8A000C2F8A440C2F8F2
:1016D000B0304B69DB07FCD5D1F8003145F60D5031
:1016E00021249AB24C61824214D045F69D518A421F
:1016F0000CD1C3F34253032B0CD0A3F104035DF8C8
:10170000044BB3FA83F35B091801704700205DF8BE
:10171000044B704708205DF8044B704700402A4096
:1017200004000300704700BF704700BF704700BF50
:1017300000BF704710B44FF0E0230021102432485E
:10174000C3F8941DC3F89C4D1124C3F8A00D2F4875
:10175000C3F89C4D1224C3F8A00D2D48C3F89C4D2E
:101760002C4AC3F8A00D2C4C42F015022B48C3F8AC
:101770009C4DC3F8A00D2A4C2A48C3F89C4DC3F8D1
:10178000A00D294CC3F89C2D2848294AC3F8A04D28
:10179000C3F89C0DC3F8A02D02F5A022254C0C32F5
:1017A0002548C3F89C4DC3F8A02D244AC3F89C0DCE
:1017B000C3F8A02D02F14062214C02322148C3F847
:1017C0009C4DC3F8A02D0A32C3F89C0DC3F8A02D80
:1017D00000BF00BF00BF00BF00BF0122C3F8942DAF
:1017E000BFF34F8FBFF36F8FC3F8501FBFF34F8FFF
:1017F000BFF36F8FD3F8142D5DF8044B42F44032E1
:10180000C3F8142D704700BF3F00001025000807E3
:1018100009001000C09C00201300200021000207D6
:1018200014000020250008130900001016002020D5
:1018300027000B1317000040180000602F000B0753
:10184000190000701A000080F0B5824B1822824DFA
:101850000120824F83B0C3F85C528149C3F86072A3
:10186000804CC3F86452A5F530457F4EC3F86852EA
:1018700048F20C75C3F86C42C3F87042C3F8744266
:10188000C3F878424FF0FF34DA661A675A679A67EE
:10189000DA67C3F88020C3F88420C3F88820C1F831
:1018A0002C03724AC1F83003C1F83403C1F838037D
:1018B000C1F83C03C1F85003B1696D4B0A406D4853
:1018C0006D4913436D4AB361D6F8843043F00C037D
:1018D000C6F88430036843F00203036003682B40BA
:1018E00021251A43664B026044608A68654C1340A8
:1018F000654A43F000538360C36823F07803C360F4
:10190000036A134023430362036A13405F4A23437D
:1019100040F2056443628262C2620022D1F8B830AC
:1019200023F03F0343F00103C0F8B830D1F8BC30D6
:10193000574923F03F0343F00103C0F8BC30026174
:101940000567C0F880404567C0F8844002240368FA
:1019500023F00203036081614E4B4F49C46143F899
:10196000042B8B42FBD1434D2B6843F001032B60CA
:101970002C6814F00104FBD14549022340F2F562C2
:101980002046A96140F29941EB6140F26643C5F8F7
:10199000002242F20142C5F81032404BC5F8201235
:1019A000C5F8303240F23543C5F834223C49C5F819
:1019B00040323C4BC5F850123B4AC5F8543242F213
:1019C0000123C5F86022C5F86432FFF74FFE0646D2
:1019D000002836D083024FF480222B660123C5F8FD
:1019E000A040244CC5F8A420C5F8B0306369DA07DC
:1019F000FCD50125370565613846FFF737FE3218FB
:101A00002A4BD2B21A7078B180024FF48023194960
:101A10006066C4F8A070C4F8A430C4F8B0504B6934
:101A2000DB07FCD501234B61214900242148012318
:101A30000094401A00EB02521F4800F0ADF903B0C9
:101A4000F0BD1D4B194A18601070D860C3E9010041
:101A500003B0F0BD00801F40F9B00100F910010093
:101A600000841F40F970010000C00F40FFFCFF1F01
:101A70000003008000402A4000802A401200FFFF3F
:101A8000FF37F7004000008000FFF07CFF000F836D
:101A9000F05AF05A00422A4000432A409F0418306E
:101AA000EB06180A063201263806180A7C9C00202C
:101AB0000000007000000070B0980020F0B4154ADB
:101AC00040274FF480314FF480564FF400554FF4C7
:101AD000404443F24200136913F0020F0ED113F495
:101AE000005F0FD013F4805F0ED0002BF3DA13F4F5
:101AF000803F0BD15B060BD5F0BC70479461516100
:101B00009061E8E75561E6E75661E4E79161E2E755
:101B10005761E0E700800D403F4A03203F49F3EE64
:101B2000095AD2F880304FF0000C9FED3D6A23F047
:101B300001039FED3C5A30B4C2F88030C2F89000E7
:101B4000D1F8E010384DCBB2384C39482B6007EE55
:101B5000903A0B0DC1F30B21F8EEE77A06EE903ABE
:101B600007EE101A334BB8EEC77A2160F8EEE66A3A
:101B7000314937EEC66A37EEC55A76EEC76A77EE58
:101B8000E57A26EE266AC3ED006A25EE265AD2F8DB
:101B9000803067EEA64AC0ED007AC6EE275A274885
:101BA00085EE276AC4EEA76A75EE875AFCEEE55A01
:101BB00036EE076A15EE904ABCEEC66A43EA045355
:101BC00076EE877AC2F8803016EE103AD2F890415D
:101BD000FCEEE77A01EA0341214317EE903AC2F89E
:101BE0009011C3F30B03D2F890110B431449C2F8C0
:101BF0009031D2F8803043F00203C2F88030114BAC
:101C000080F840C0C1F840314FF0E023012230BCE1
:101C1000C3F80821704700BF00810D4000441F40F9
:101C20000000AA420000B442889A0020849A002052
:101C30008C9A0020909A00200000FF0F00E400E042
:101C400000500020C5980100314B40F6617210B57C
:101C5000C3F8202140F2044400F0A6F82D4A2E4992
:101C6000D2F880302D4843F00303C2F880302C4B6B
:101C7000C1F8604102681A4203D1D1F8A8319A072D
:101C80001BD0254A4FF00041244B5963D2F8403114
:101C900043F00203C2F84031D2F840319B07FBD435
:101CA0004FF400304FF0E0211C4B4FF00042C1F8E0
:101CB0008C0219209A6300F07BF8184A4FF080409C
:101CC000154C002190630A20164B11604FF480627E
:101CD000C4F8A801184600F063F84FF480020346E8
:101CE0004FF4810040F243111860C4F858311A646F
:101CF0000D4B0E4AC4F84811C3F804224FF0E022FD
:101D00004FF400310123C2F80C11C4F8403110BD6A
:101D100000800D4000C00F4000002E4000900D409C
:101D2000001C1E000000002000500020759B0100D8
:101D300008B50E4B1B6E9B0700D4FBBE72B60C4B56
:101D400000200C4AC3F8400103F160430A49A3F59F
:101D50005F2311649D46BFF34F8F4FF40013074874
:101D6000074ADB6902609B68984700BF00441F4038
:101D700000002E4000C00A40030020000080202008
:101D8000000012EBF8B500BFF8BC08BC9E467047D7
:101D90005FF800F0319501005FF800F09DB501009B
:101DA0005FF800F089E401005FF800F0D9A20100BB
:101DB0005FF800F02D8E01005FF800F039B40100EB
:101DC0005FF800F0118B01005FF800F001E70100FF
:101DD00005010000196D000031E70000E509010070
:041DE0005D5201004F
:101DE4000901809611800A3A81550A3601082A04AD
:101DF400000000F02B040000014021800A13800A37
:101E040029800A003E0353006500720069006100E6
:101E14006C002F004B006500790062006F006100C8
:101E2400720064002F004D006F00750073006500A0
:101E34002F004A006F00790073007400690063008A
:101E44006B00000018035400650065006E00730009
:101E540079006400750069006E006F0004030904D2
:101E64000902AF00060100C032080B0002020201A1
:101E7400000904000001020201000524001001050C
:101E84002401010104240206052406000107058239
:101E94000310001009040100020A000000070503F2
:101EA400024000000705830240000009040200010B
:101EB40003010100092111010001223F00070584EB
:101EC40003080001090403000103000000092111B3
:101ED40001000122540007058603080002090404D6
:101EE400000103000000092111010001225500072F
:101EF4000587030C00010904050001030000000923
:101F040021110100012228000705850308000400AF
:101F14000902AF00060100C032080B0002020201F0
:101F2400000904000001020201000524001001055B
:101F34002401010104240206052406000107058288
:101F44000310000509040100020A0000000705034C
:101F540002000200070583020002000904020001D6
:101F640003010100092111010001223F000705843A
:101F74000308000109040300010300000009211102
:101F84000100012254000705860308000209040425
:101F9400000103000000092111010001225500077E
:101FA4000587030C00010904050001030000000972
:101FB40021110100012228000705850308000400FF
:0C1FC4000A060002EF02014001000000CC
:101FD0000000000000000000000000000000000001
:101FE00000000000000000000000000000000000F1
:101FF000F8B54FF084439D695A6915400DD0254FBF
:1020000001269D6195FAA5F4B4FA84F457F82430BA
:1020100006FA04F49847A543F4D11F4B9D695A6909
:1020200015400DD01D4F01269D6195FAA5F4B4FA17
:1020300084F457F8243006FA04F49847A543F4D101
:10204000174B9D695A6915400DD0164F01269D61A9
:1020500095FAA5F4B4FA84F457F8243006FA04F497
:102060009847A543F4D1104B9D695A6915400DD08E
:102070000E4F01269D6195FAA5F4B4FA84F457F841
:10208000243006FA04F49847A543F4D1BFF34F8FE8
:10209000F8BD00BFC84A002000400042484B002065
:1020A00000800042C84B002000C00042484C002085
:1020B0000548064B1B1AD90F01EBA301491002D0AA
:1020C000034B03B118477047C0520020C052002094
:1020D0000000000008B5054B1BB105490548AFF3EA
:1020E0000080BDE80840FFF7E3BF00BF000000002C
:1020F000349A002000CC0260704700BF2DE9F843FD
:1021000029492A4E91F8F68796F90030327838EA54
:10211000030591F9F6771AD00024DFF89C9002E0CD
:102120000134082C0AD025FA04F3DA07F8D539F877
:10213000140001341AF0A2FB082CF4D11C4B3278A5
:102140001B682A431B49323332700B6053B218EAC2
:10215000020F04D0164A1749126832320A6023EA85
:10216000070515F0FF071CD0114B124A1B681268B7
:102170009B1A002B15DB0024DFF83C8002E00134C1
:10218000082C0AD027FA04F3DB07F8D538F8140036
:1021900001341AF0CBFA082CF4D1337823EA050382
:1021A0003370BDE8F88300BF206600206D9C0020DE
:1021B0001C9B002034900020BC270020562810B51E
:1021C000044602D1064B00229A73FFF797FF054B96
:1021D0001B681BB12046BDE81040184710BD00BF6A
:1021E00020660020A4910020562810B5044602D194
:1021F000064B01229A73FFF781FF054B1B681BB149
:102200002046BDE81040184710BD00BF20660020E2
:1022100090910020031F192B12D9A0F11E03082B47
:102220000BD9272817D0A0F13A030B2B0FD9283848
:10223000C0B2BF2807D9002070471330C0B2704722
:102240005D30C0B27047054B33F810007047A0F501
:10225000805080B270473020704700BFAC0A002029
:10226000284A002138B5284C137821540BB18342F9
:1022700045D0264B1B688BB39A797AB3DC7A6CB362
:10228000234D002295F800E011460BE0BCF1030F4E
:1022900004D193F80FC0BCF1010F27D0A14203F184
:1022A0001A031BD201328E45D1B2F7D193F80CC07C
:1022B000BCF1010FEAD193F80FC0BCF1010FEDD1D1
:1022C00093F80DC08445E9D11AF0EAF900231148CA
:1022D000FF22114903700B702A7038BDFFF79AFF77
:1022E0000028FAD0BDE838401AF020BA93F80DC0A3
:1022F0008445E9D093F80EC08445CFD1E4E711704E
:1023000038BD00BF6B9C0020FC910020FC92002097
:10231000F24D0020719C00206E9C002038B5254DA8
:10232000044640F2E93128462DED028BF0EE408A5A
:1023300018F0D2F9034640F2E931284608EE103A87
:1023400018F0CAF907EE900A40F2E931B8EEC88AEF
:102350002846F8EEE77A38EE278A18F0BDF907EE3E
:10236000904A07EE100A9FED146A47F6FF73F8EEE5
:10237000677ADFED125AB8EEC77ADFED116A27EE01
:10238000A80A37EE087AC0EE067A87EE256ABDEC19
:10239000028B67EE867A67EEA67AFDEEE77A17EE95
:1023A000900A20449842A8BF18460128B8BF0120CF
:1023B00080B238BD18FCFFFF0000C84200803B45DA
:1023C0002DB25D402DE9F0411A22DFF8948001EB37
:1023D00081030C46D8F8006002FB003333449B7C39
:1023E0006BB3074618468D00FFF714FF10BB33464A
:1023F000D3F807302544DFED157A00EE103A1A23A2
:10240000B4EEE70A03FB0750114B0644F1EE10FA55
:102410001D68B6F813000BD440B90E4A0E490F4B95
:10242000147001220D601A70BDE8F081FFF776FF8D
:102430000544F2E71AF022FAD8F80030D8E7054B45
:102440001970BDE8F04100F00DB800BF0AD7233C79
:102450001C9B00206F9C002074900020719C002029
:10246000FC92002070B51A4C1A4B21781B68013180
:10247000C9B2032919D800EB40024FF0050C00EB5C
:10248000820252001CFB0122134403E05FFA8CF12C
:1024900004290AD09A7C01F1010C0533002AF5D0F9
:1024A0002170BDE87040FFF78DBF0B4E35782DB120
:1024B00000212170BDE87040FFF784BF1AF0F0F8EA
:1024C0000649074BFF220D7035701A7070BD00BFB2
:1024D0006F9C0020FC9200206E9C0020719C0020CC
:1024E000F24D002038B5044649B108460D461EF0AD
:1024F0004FFB2368024629465B68204698472046E2
:10250000BDE8384017F0FCBF214B1A6BD2E9001030
:10251000D3680968006810B41842946801EA04019D
:102520002ED0137C03F00303D9B943F008039908B4
:10253000013B11740D2B0BD8DFE803F00D071C07CE
:102540000A160D0D160A071C070D5369013B53614E
:102550005DF8044B704753695DF8044B01335361D8
:10256000704743F00403E0E753695DF8044B023B16
:102570005361704753695DF8044B023353617047F0
:10258000137C03F003030029D1D043F00403CEE70A
:1025900038930020224BD3F8B020D2E90010D36842
:1025A0000968006810B41842946801EA04012ED04A
:1025B000137C03F00303D9B943F008039908013BE6
:1025C00011740D2B0BD8DFE803F00D071C070A165A
:1025D0000D0D160A071C070D5369013B53615DF889
:1025E000044B704753695DF8044B013353617047E6
:1025F00043F00403E0E753695DF8044B023B536189
:10260000704753695DF8044B023353617047137C84
:1026100003F003030029D1D043F00403CEE700BF49
:1026200038930020224BD3F8B420D2E90010D368AD
:102630000968006810B41842946801EA04012ED0B9
:10264000137C03F00303D9B943F008039908013B55
:1026500011740D2B0BD8DFE803F00D071C070A16C9
:102660000D0D160A071C070D5369013B53615DF8F8
:10267000044B704753695DF8044B01335361704755
:1026800043F00403E0E753695DF8044B023B5361F8
:10269000704753695DF8044B023353617047137CF4
:1026A00003F003030029D1D043F00403CEE700BFB9
:1026B00038930020224BD3F8B820D2E90010D36819
:1026C0000968006810B41842946801EA04012ED029
:1026D000137C03F00303D9B943F008039908013BC5
:1026E00011740D2B0BD8DFE803F00D071C070A1639
:1026F0000D0D160A071C070D5369013B53615DF868
:10270000044B704753695DF8044B013353617047C4
:1027100043F00403E0E753695DF8044B023B536167
:10272000704753695DF8044B023353617047137C63
:1027300003F003030029D1D043F00403CEE700BF28
:1027400038930020224BD3F8BC20D2E90010D36884
:102750000968006810B41842946801EA04012ED098
:10276000137C03F00303D9B943F008039908013B34
:1027700011740D2B0BD8DFE803F00D071C070A16A8
:102780000D0D160A071C070D5369013B53615DF8D7
:10279000044B704753695DF8044B01335361704734
:1027A00043F00403E0E753695DF8044B023B5361D7
:1027B000704753695DF8044B023353617047137CD3
:1027C00003F003030029D1D043F00403CEE700BF98
:1027D00038930020224BD3F8C020D2E90010D368F0
:1027E0000968006810B41842946801EA04012ED008
:1027F000137C03F00303D9B943F008039908013BA4
:1028000011740D2B0BD8DFE803F00D071C070A1617
:102810000D0D160A071C070D5369013B53615DF846
:10282000044B704753695DF8044B013353617047A3
:1028300043F00403E0E753695DF8044B023B536146
:10284000704753695DF8044B023353617047137C42
:1028500003F003030029D1D043F00403CEE700BF07
:1028600038930020224BD3F8C420D2E90010D3685B
:102870000968006810B41842946801EA04012ED077
:10288000137C03F00303D9B943F008039908013B13
:1028900011740D2B0BD8DFE803F00D071C070A1687
:1028A0000D0D160A071C070D5369013B53615DF8B6
:1028B000044B704753695DF8044B01335361704713
:1028C00043F00403E0E753695DF8044B023B5361B6
:1028D000704753695DF8044B023353617047137CB2
:1028E00003F003030029D1D043F00403CEE700BF77
:1028F00038930020224BD3F8C820D2E90010D368C7
:102900000968006810B41842946801EA04012ED0E6
:10291000137C03F00303D9B943F008039908013B82
:1029200011740D2B0BD8DFE803F00D071C070A16F6
:102930000D0D160A071C070D5369013B53615DF825
:10294000044B704753695DF8044B01335361704782
:1029500043F00403E0E753695DF8044B023B536125
:10296000704753695DF8044B023353617047137C21
:1029700003F003030029D1D043F00403CEE700BFE6
:1029800038930020224BD3F8CC20D2E90010D36832
:102990000968006810B41842946801EA04012ED056
:1029A000137C03F00303D9B943F008039908013BF2
:1029B00011740D2B0BD8DFE803F00D071C070A1666
:1029C0000D0D160A071C070D5369013B53615DF895
:1029D000044B704753695DF8044B013353617047F2
:1029E00043F00403E0E753695DF8044B023B536195
:1029F000704753695DF8044B023353617047137C91
:102A000003F003030029D1D043F00403CEE700BF55
:102A100038930020224BD3F8D820D2E90010D36895
:102A20000968006810B41842946801EA04012ED0C5
:102A3000137C03F00303D9B943F008039908013B61
:102A400011740D2B0BD8DFE803F00D071C070A16D5
:102A50000D0D160A071C070D5369013B53615DF804
:102A6000044B704753695DF8044B01335361704761
:102A700043F00403E0E753695DF8044B023B536104
:102A8000704753695DF8044B023353617047137C00
:102A900003F003030029D1D043F00403CEE700BFC5
:102AA00038930020224BD3F8D020D2E90010D3680D
:102AB0000968006810B41842946801EA04012ED035
:102AC000137C03F00303D9B943F008039908013BD1
:102AD00011740D2B0BD8DFE803F00D071C070A1645
:102AE0000D0D160A071C070D5369013B53615DF874
:102AF000044B704753695DF8044B013353617047D1
:102B000043F00403E0E753695DF8044B023B536173
:102B1000704753695DF8044B023353617047137C6F
:102B200003F003030029D1D043F00403CEE700BF34
:102B300038930020224BD3F8D420D2E90010D36878
:102B40000968006810B41842946801EA04012ED0A4
:102B5000137C03F00303D9B943F008039908013B40
:102B600011740D2B0BD8DFE803F00D071C070A16B4
:102B70000D0D160A071C070D5369013B53615DF8E3
:102B8000044B704753695DF8044B01335361704740
:102B900043F00403E0E753695DF8044B023B5361E3
:102BA000704753695DF8044B023353617047137CDF
:102BB00003F003030029D1D043F00403CEE700BFA4
:102BC00038930020214B1A68D2E90010D3680968B5
:102BD000006810B41842946801EA04012ED0137CF6
:102BE00003F00303D9B943F008039908013B1174BA
:102BF0000D2B0BD8DFE803F00D071C070A160D0D8F
:102C0000160A071C070D5369013B53615DF8044B1D
:102C1000704753695DF8044B01335361704743F0CB
:102C20000403E0E753695DF8044B023B53617047CE
:102C300053695DF8044B023353617047137C03F012
:102C400003030029D1D043F00403CEE738930020DA
:102C5000214B5A68D2E90010D3680968006810B4A3
:102C60001842946801EA04012ED0137C03F0030398
:102C7000D9B943F008039908013B11740D2B0BD807
:102C8000DFE803F00D071C070A160D0D160A071CD6
:102C9000070D5369013B53615DF8044B704753695D
:102CA0005DF8044B01335361704743F00403E0E7E0
:102CB00053695DF8044B023B5361704753695DF8FB
:102CC000044B023353617047137C03F00303002964
:102CD000D1D043F00403CEE738930020214B9A680B
:102CE000D2E90010D3680968006810B418429468EB
:102CF00001EA04012ED0137C03F00303D9B943F099
:102D000008039908013B11740D2B0BD8DFE803F081
:102D10000D071C070A160D0D160A071C070D53692F
:102D2000013B53615DF8044B704753695DF8044BF8
:102D300001335361704743F00403E0E753695DF8E2
:102D4000044B023B5361704753695DF8044B0233F7
:102D500053617047137C03F003030029D1D043F083
:102D60000403CEE738930020214BDA68D2E9001043
:102D7000D3680968006810B41842946801EA040135
:102D80002ED0137C03F00303D9B943F0080399084C
:102D9000013B11740D2B0BD8DFE803F00D071C0766
:102DA0000A160D0D160A071C070D5369013B5361E6
:102DB0005DF8044B704753695DF8044B0133536170
:102DC000704743F00403E0E753695DF8044B023BAE
:102DD0005361704753695DF8044B02335361704788
:102DE000137C03F003030029D1D043F00403CEE7A2
:102DF00038930020214B1A69D2E90010D368096882
:102E0000006810B41842946801EA04012ED0137CC3
:102E100003F00303D9B943F008039908013B117487
:102E20000D2B0BD8DFE803F00D071C070A160D0D5C
:102E3000160A071C070D5369013B53615DF8044BEB
:102E4000704753695DF8044B01335361704743F099
:102E50000403E0E753695DF8044B023B536170479C
:102E600053695DF8044B023353617047137C03F0E0
:102E700003030029D1D043F00403CEE738930020A8
:102E8000214B5A69D2E90010D3680968006810B470
:102E90001842946801EA04012ED0137C03F0030366
:102EA000D9B943F008039908013B11740D2B0BD8D5
:102EB000DFE803F00D071C070A160D0D160A071CA4
:102EC000070D5369013B53615DF8044B704753692B
:102ED0005DF8044B01335361704743F00403E0E7AE
:102EE00053695DF8044B023B5361704753695DF8C9
:102EF000044B023353617047137C03F00303002932
:102F0000D1D043F00403CEE738930020214B9A69D7
:102F1000D2E90010D3680968006810B418429468B8
:102F200001EA04012ED0137C03F00303D9B943F066
:102F300008039908013B11740D2B0BD8DFE803F04F
:102F40000D071C070A160D0D160A071C070D5369FD
:102F5000013B53615DF8044B704753695DF8044BC6
:102F600001335361704743F00403E0E753695DF8B0
:102F7000044B023B5361704753695DF8044B0233C5
:102F800053617047137C03F003030029D1D043F051
:102F90000403CEE738930020214BDA69D2E9001010
:102FA000D3680968006810B41842946801EA040103
:102FB0002ED0137C03F00303D9B943F0080399081A
:102FC000013B11740D2B0BD8DFE803F00D071C0734
:102FD0000A160D0D160A071C070D5369013B5361B4
:102FE0005DF8044B704753695DF8044B013353613E
:102FF000704743F00403E0E753695DF8044B023B7C
:103000005361704753695DF8044B02335361704755
:10301000137C03F003030029D1D043F00403CEE76F
:1030200038930020214B1A6AD2E90010D36809684E
:10303000006810B41842946801EA04012ED0137C91
:1030400003F00303D9B943F008039908013B117455
:103050000D2B0BD8DFE803F00D071C070A160D0D2A
:10306000160A071C070D5369013B53615DF8044BB9
:10307000704753695DF8044B01335361704743F067
:103080000403E0E753695DF8044B023B536170476A
:1030900053695DF8044B023353617047137C03F0AE
:1030A00003030029D1D043F00403CEE73893002076
:1030B000214B5A6AD2E90010D3680968006810B43D
:1030C0001842946801EA04012ED0137C03F0030334
:1030D000D9B943F008039908013B11740D2B0BD8A3
:1030E000DFE803F00D071C070A160D0D160A071C72
:1030F000070D5369013B53615DF8044B70475369F9
:103100005DF8044B01335361704743F00403E0E77B
:1031100053695DF8044B023B5361704753695DF896
:10312000044B023353617047137C03F003030029FF
:10313000D1D043F00403CEE738930020214B9A6AA4
:10314000D2E90010D3680968006810B41842946886
:1031500001EA04012ED0137C03F00303D9B943F034
:1031600008039908013B11740D2B0BD8DFE803F01D
:103170000D071C070A160D0D160A071C070D5369CB
:10318000013B53615DF8044B704753695DF8044B94
:1031900001335361704743F00403E0E753695DF87E
:1031A000044B023B5361704753695DF8044B023393
:1031B00053617047137C03F003030029D1D043F01F
:1031C0000403CEE738930020214BDA6AD2E90010DD
:1031D000D3680968006810B41842946801EA0401D1
:1031E0002ED0137C03F00303D9B943F008039908E8
:1031F000013B11740D2B0BD8DFE803F00D071C0702
:103200000A160D0D160A071C070D5369013B536181
:103210005DF8044B704753695DF8044B013353610B
:10322000704743F00403E0E753695DF8044B023B49
:103230005361704753695DF8044B02335361704723
:10324000137C03F003030029D1D043F00403CEE73D
:1032500038930020214B1A6FD2E90010D368096817
:10326000006810B41842946801EA04012ED0137C5F
:1032700003F00303D9B943F008039908013B117423
:103280000D2B0BD8DFE803F00D071C070A160D0DF8
:10329000160A071C070D5369013B53615DF8044B87
:1032A000704753695DF8044B01335361704743F035
:1032B0000403E0E753695DF8044B023B5361704738
:1032C00053695DF8044B023353617047137C03F07C
:1032D00003030029D1D043F00403CEE73893002044
:1032E000214B5A6FD2E90010D3680968006810B406
:1032F0001842946801EA04012ED0137C03F0030302
:10330000D9B943F008039908013B11740D2B0BD870
:10331000DFE803F00D071C070A160D0D160A071C3F
:10332000070D5369013B53615DF8044B70475369C6
:103330005DF8044B01335361704743F00403E0E749
:1033400053695DF8044B023B5361704753695DF864
:10335000044B023353617047137C03F003030029CD
:10336000D1D043F00403CEE738930020214B9A6F6D
:10337000D2E90010D3680968006810B41842946854
:1033800001EA04012ED0137C03F00303D9B943F002
:1033900008039908013B11740D2B0BD8DFE803F0EB
:1033A0000D071C070A160D0D160A071C070D536999
:1033B000013B53615DF8044B704753695DF8044B62
:1033C00001335361704743F00403E0E753695DF84C
:1033D000044B023B5361704753695DF8044B023361
:1033E00053617047137C03F003030029D1D043F0ED
:1033F0000403CEE738930020214BDA6FD2E90010A6
:10340000D3680968006810B41842946801EA04019E
:103410002ED0137C03F00303D9B943F008039908B5
:10342000013B11740D2B0BD8DFE803F00D071C07CF
:103430000A160D0D160A071C070D5369013B53614F
:103440005DF8044B704753695DF8044B01335361D9
:10345000704743F00403E0E753695DF8044B023B17
:103460005361704753695DF8044B023353617047F1
:10347000137C03F003030029D1D043F00403CEE70B
:1034800038930020224BD3F88020D2E90010D36873
:103490000968006810B41842946801EA04012ED04B
:1034A000137C03F00303D9B943F008039908013BE7
:1034B00011740D2B0BD8DFE803F00D071C070A165B
:1034C0000D0D160A071C070D5369013B53615DF88A
:1034D000044B704753695DF8044B013353617047E7
:1034E00043F00403E0E753695DF8044B023B53618A
:1034F000704753695DF8044B023353617047137C86
:1035000003F003030029D1D043F00403CEE700BF4A
:1035100038930020224BD3F88420D2E90010D368DE
:103520000968006810B41842946801EA04012ED0BA
:10353000137C03F00303D9B943F008039908013B56
:1035400011740D2B0BD8DFE803F00D071C070A16CA
:103550000D0D160A071C070D5369013B53615DF8F9
:10356000044B704753695DF8044B01335361704756
:1035700043F00403E0E753695DF8044B023B5361F9
:10358000704753695DF8044B023353617047137CF5
:1035900003F003030029D1D043F00403CEE700BFBA
:1035A00038930020224BD3F88820D2E90010D3684A
:1035B0000968006810B41842946801EA04012ED02A
:1035C000137C03F00303D9B943F008039908013BC6
:1035D00011740D2B0BD8DFE803F00D071C070A163A
:1035E0000D0D160A071C070D5369013B53615DF869
:1035F000044B704753695DF8044B013353617047C6
:1036000043F00403E0E753695DF8044B023B536168
:10361000704753695DF8044B023353617047137C64
:1036200003F003030029D1D043F00403CEE700BF29
:1036300038930020224BD3F88C20D2E90010D368B5
:103640000968006810B41842946801EA04012ED099
:10365000137C03F00303D9B943F008039908013B35
:1036600011740D2B0BD8DFE803F00D071C070A16A9
:103670000D0D160A071C070D5369013B53615DF8D8
:10368000044B704753695DF8044B01335361704735
:1036900043F00403E0E753695DF8044B023B5361D8
:1036A000704753695DF8044B023353617047137CD4
:1036B00003F003030029D1D043F00403CEE700BF99
:1036C00038930020224BD3F89020D2E90010D36821
:1036D0000968006810B41842946801EA04012ED009
:1036E000137C03F00303D9B943F008039908013BA5
:1036F00011740D2B0BD8DFE803F00D071C070A1619
:103700000D0D160A071C070D5369013B53615DF847
:10371000044B704753695DF8044B013353617047A4
:1037200043F00403E0E753695DF8044B023B536147
:10373000704753695DF8044B023353617047137C43
:1037400003F003030029D1D043F00403CEE700BF08
:1037500038930020224BD3F89420D2E90010D3688C
:103760000968006810B41842946801EA04012ED078
:10377000137C03F00303D9B943F008039908013B14
:1037800011740D2B0BD8DFE803F00D071C070A1688
:103790000D0D160A071C070D5369013B53615DF8B7
:1037A000044B704753695DF8044B01335361704714
:1037B00043F00403E0E753695DF8044B023B5361B7
:1037C000704753695DF8044B023353617047137CB3
:1037D00003F003030029D1D043F00403CEE700BF78
:1037E00038930020224BD3F89820D2E90010D368F8
:1037F0000968006810B41842946801EA04012ED0E8
:10380000137C03F00303D9B943F008039908013B83
:1038100011740D2B0BD8DFE803F00D071C070A16F7
:103820000D0D160A071C070D5369013B53615DF826
:10383000044B704753695DF8044B01335361704783
:1038400043F00403E0E753695DF8044B023B536126
:10385000704753695DF8044B023353617047137C22
:1038600003F003030029D1D043F00403CEE700BFE7
:1038700038930020224BD3F89C20D2E90010D36863
:103880000968006810B41842946801EA04012ED057
:10389000137C03F00303D9B943F008039908013BF3
:1038A00011740D2B0BD8DFE803F00D071C070A1667
:1038B0000D0D160A071C070D5369013B53615DF896
:1038C000044B704753695DF8044B013353617047F3
:1038D00043F00403E0E753695DF8044B023B536196
:1038E000704753695DF8044B023353617047137C92
:1038F00003F003030029D1D043F00403CEE700BF57
:1039000038930020224BD3F8A020D2E90010D368CE
:103910000968006810B41842946801EA04012ED0C6
:10392000137C03F00303D9B943F008039908013B62
:1039300011740D2B0BD8DFE803F00D071C070A16D6
:103940000D0D160A071C070D5369013B53615DF805
:10395000044B704753695DF8044B01335361704762
:1039600043F00403E0E753695DF8044B023B536105
:10397000704753695DF8044B023353617047137C01
:1039800003F003030029D1D043F00403CEE700BFC6
:1039900038930020224BD3F8A420D2E90010D3683A
:1039A0000968006810B41842946801EA04012ED036
:1039B000137C03F00303D9B943F008039908013BD2
:1039C00011740D2B0BD8DFE803F00D071C070A1646
:1039D0000D0D160A071C070D5369013B53615DF875
:1039E000044B704753695DF8044B013353617047D2
:1039F00043F00403E0E753695DF8044B023B536175
:103A0000704753695DF8044B023353617047137C70
:103A100003F003030029D1D043F00403CEE700BF35
:103A200038930020224BD3F8A820D2E90010D368A5
:103A30000968006810B41842946801EA04012ED0A5
:103A4000137C03F00303D9B943F008039908013B41
:103A500011740D2B0BD8DFE803F00D071C070A16B5
:103A60000D0D160A071C070D5369013B53615DF8E4
:103A7000044B704753695DF8044B01335361704741
:103A800043F00403E0E753695DF8044B023B5361E4
:103A9000704753695DF8044B023353617047137CE0
:103AA00003F003030029D1D043F00403CEE700BFA5
:103AB00038930020224BD3F8AC20D2E90010D36811
:103AC0000968006810B41842946801EA04012ED015
:103AD000137C03F00303D9B943F008039908013BB1
:103AE00011740D2B0BD8DFE803F00D071C070A1625
:103AF0000D0D160A071C070D5369013B53615DF854
:103B0000044B704753695DF8044B013353617047B0
:103B100043F00403E0E753695DF8044B023B536153
:103B2000704753695DF8044B023353617047137C4F
:103B300003F003030029D1D043F00403CEE700BF14
:103B400038930020214B1A6DD2E90010D368096820
:103B5000006810B41842946801EA04012ED0137C66
:103B600003F00303D9B943F008039908013B11742A
:103B70000D2B0BD8DFE803F00D071C070A160D0DFF
:103B8000160A071C070D5369013B53615DF8044B8E
:103B9000704753695DF8044B01335361704743F03C
:103BA0000403E0E753695DF8044B023B536170473F
:103BB00053695DF8044B023353617047137C03F083
:103BC00003030029D1D043F00403CEE7389300204B
:103BD000214B5A6DD2E90010D3680968006810B40F
:103BE0001842946801EA04012ED0137C03F0030309
:103BF000D9B943F008039908013B11740D2B0BD878
:103C0000DFE803F00D071C070A160D0D160A071C46
:103C1000070D5369013B53615DF8044B70475369CD
:103C20005DF8044B01335361704743F00403E0E750
:103C300053695DF8044B023B5361704753695DF86B
:103C4000044B023353617047137C03F003030029D4
:103C5000D1D043F00403CEE738930020214B9A6D76
:103C6000D2E90010D3680968006810B4184294685B
:103C700001EA04012ED0137C03F00303D9B943F009
:103C800008039908013B11740D2B0BD8DFE803F0F2
:103C90000D071C070A160D0D160A071C070D5369A0
:103CA000013B53615DF8044B704753695DF8044B69
:103CB00001335361704743F00403E0E753695DF853
:103CC000044B023B5361704753695DF8044B023368
:103CD00053617047137C03F003030029D1D043F0F4
:103CE0000403CEE738930020214BDA6DD2E90010AF
:103CF000D3680968006810B41842946801EA0401A6
:103D00002ED0137C03F00303D9B943F008039908BC
:103D1000013B11740D2B0BD8DFE803F00D071C07D6
:103D20000A160D0D160A071C070D5369013B536156
:103D30005DF8044B704753695DF8044B01335361E0
:103D4000704743F00403E0E753695DF8044B023B1E
:103D50005361704753695DF8044B023353617047F8
:103D6000137C03F003030029D1D043F00403CEE712
:103D700038930020214B1A6ED2E90010D3680968ED
:103D8000006810B41842946801EA04012ED0137C34
:103D900003F00303D9B943F008039908013B1174F8
:103DA0000D2B0BD8DFE803F00D071C070A160D0DCD
:103DB000160A071C070D5369013B53615DF8044B5C
:103DC000704753695DF8044B01335361704743F00A
:103DD0000403E0E753695DF8044B023B536170470D
:103DE00053695DF8044B023353617047137C03F051
:103DF00003030029D1D043F00403CEE73893002019
:103E0000214B5A6ED2E90010D3680968006810B4DB
:103E10001842946801EA04012ED0137C03F00303D6
:103E2000D9B943F008039908013B11740D2B0BD845
:103E3000DFE803F00D071C070A160D0D160A071C14
:103E4000070D5369013B53615DF8044B704753699B
:103E50005DF8044B01335361704743F00403E0E71E
:103E600053695DF8044B023B5361704753695DF839
:103E7000044B023353617047137C03F003030029A2
:103E8000D1D043F00403CEE738930020214B9A6E43
:103E9000D2E90010D3680968006810B41842946829
:103EA00001EA04012ED0137C03F00303D9B943F0D7
:103EB00008039908013B11740D2B0BD8DFE803F0C0
:103EC0000D071C070A160D0D160A071C070D53696E
:103ED000013B53615DF8044B704753695DF8044B37
:103EE00001335361704743F00403E0E753695DF821
:103EF000044B023B5361704753695DF8044B023336
:103F000053617047137C03F003030029D1D043F0C1
:103F10000403CEE738930020214BDA6ED2E900107B
:103F2000D3680968006810B41842946801EA040173
:103F30002ED0137C03F00303D9B943F0080399088A
:103F4000013B11740D2B0BD8DFE803F00D071C07A4
:103F50000A160D0D160A071C070D5369013B536124
:103F60005DF8044B704753695DF8044B01335361AE
:103F7000704743F00403E0E753695DF8044B023BEC
:103F80005361704753695DF8044B023353617047C6
:103F9000137C03F003030029D1D043F00403CEE7E0
:103FA00038930020214B1A6CD2E90010D3680968BD
:103FB000006810B41842946801EA04012ED0137C02
:103FC00003F00303D9B943F008039908013B1174C6
:103FD0000D2B0BD8DFE803F00D071C070A160D0D9B
:103FE000160A071C070D5369013B53615DF8044B2A
:103FF000704753695DF8044B01335361704743F0D8
:104000000403E0E753695DF8044B023B53617047DA
:1040100053695DF8044B023353617047137C03F01E
:1040200003030029D1D043F00403CEE738930020E6
:10403000214B5A6CD2E90010D3680968006810B4AB
:104040001842946801EA04012ED0137C03F00303A4
:10405000D9B943F008039908013B11740D2B0BD813
:10406000DFE803F00D071C070A160D0D160A071CE2
:10407000070D5369013B53615DF8044B7047536969
:104080005DF8044B01335361704743F00403E0E7EC
:1040900053695DF8044B023B5361704753695DF807
:1040A000044B023353617047137C03F00303002970
:1040B000D1D043F00403CEE738930020214B9A6C13
:1040C000D2E90010D3680968006810B418429468F7
:1040D00001EA04012ED0137C03F00303D9B943F0A5
:1040E00008039908013B11740D2B0BD8DFE803F08E
:1040F0000D071C070A160D0D160A071C070D53693C
:10410000013B53615DF8044B704753695DF8044B04
:1041100001335361704743F00403E0E753695DF8EE
:10412000044B023B5361704753695DF8044B023303
:1041300053617047137C03F003030029D1D043F08F
:104140000403CEE738930020214BDA6CD2E900104B
:10415000D3680968006810B41842946801EA040141
:104160002ED0137C03F00303D9B943F00803990858
:10417000013B11740D2B0BD8DFE803F00D071C0772
:104180000A160D0D160A071C070D5369013B5361F2
:104190005DF8044B704753695DF8044B013353617C
:1041A000704743F00403E0E753695DF8044B023BBA
:1041B0005361704753695DF8044B02335361704794
:1041C000137C03F003030029D1D043F00403CEE7AE
:1041D00038930020214B9A6BD2E90010D36809680C
:1041E000006810B41842946801EA04012ED0137CD0
:1041F00003F00303D9B943F008039908013B117494
:104200000D2B0BD8DFE803F00D071C070A160D0D68
:10421000160A071C070D5369013B53615DF8044BF7
:10422000704753695DF8044B01335361704743F0A5
:104230000403E0E753695DF8044B023B53617047A8
:1042400053695DF8044B023353617047137C03F0EC
:1042500003030029D1D043F00403CEE738930020B4
:10426000214BDA6BD2E90010D3680968006810B4FA
:104270001842946801EA04012ED0137C03F0030372
:10428000D9B943F008039908013B11740D2B0BD8E1
:10429000DFE803F00D071C070A160D0D160A071CB0
:1042A000070D5369013B53615DF8044B7047536937
:1042B0005DF8044B01335361704743F00403E0E7BA
:1042C00053695DF8044B023B5361704753695DF8D5
:1042D000044B023353617047137C03F0030300293E
:1042E000D1D043F00403CEE738930020214B5A6B22
:1042F000D2E90010D3680968006810B418429468C5
:1043000001EA04012ED0137C03F00303D9B943F072
:1043100008039908013B11740D2B0BD8DFE803F05B
:104320000D071C070A160D0D160A071C070D536909
:10433000013B53615DF8044B704753695DF8044BD2
:1043400001335361704743F00403E0E753695DF8BC
:10435000044B023B5361704753695DF8044B0233D1
:1043600053617047137C03F003030029D1D043F05D
:104370000403CEE7389300206B49F8B50A7801258D
:104380006A4F04463D54002A3FD1694B1868002803
:1043900032D0837983B3674BC57AD3F800E05DB33D
:1043A0000346164609E002291AD1597BA14254D08E
:1043B00001321A33D6B2B5421ED9197B0129F2D186
:1043C000597BA142F4D11A2303FB0203DC7B012CAD
:1043D00000F09180022C00F08680002C7BD0F8BD8C
:1043E0000329E5D1597BA14255D093F80EC0A445CD
:1043F000DED17B5C002B55D12046FDF70BFF00285A
:10440000EDD0BDE8F84018F039BA4B4B00261870D3
:104410000E7018F04FFF494B1B78002BDFD0484B34
:104420001B78DB07DBD5434B464A1B6812689B1A97
:104430000E2BD4D91121444818F0BEFE3346214634
:104440000A22424816F086F82946414818F0B4FE80
:104450003E48BDE8F84016F053B83E4B53F82410E0
:1044600043F824E0AEEB010EBEF1310FC4D91A239C
:1044700003FB02031B8A7345BED3374C2378002B02
:104480004CD1364B0021364A304619701670BDE8C3
:10449000F840FDF797BF1A2303FB02039B7BFB5CED
:1044A000002BA9D01A2303FB0203DC7B012C22D0B2
:1044B000022C92D12B498B5C83F001038B54D3B92E
:1044C00018F0EEF8244C00232448254AFF212370DD
:1044D00003701170F8BD204D2B78002BD1D018F04F
:1044E000DFF82C70CDE71F498B5C83F001038B5400
:1044F000002BE5D0C1E7184C237853B918480122A6
:10450000164B0021067030461A70BDE8F840FDF7E2
:1045100059BF18F0C5F800232370EFE718F0C0F872
:1045200000232370ADE700BF629C0020FC910020B7
:10453000FC9200201C9B00206B9C0020909C002083
:104540008F9C0020349C0020A41E00207844002072
:104550008C2200200C7C0020719C00206E9C00208E
:10456000F24D00203890002070B5044600257949AE
:10457000FF2604F5EB634FF4407220302570C4F839
:1045800058374FF4687365702162A570A4F89823BA
:10459000E570C4F8A8032671A4F85C376671A573AA
:1045A0006562A562C4F87853C4F87C5384F89A53C2
:1045B00084F85E57C4E9E055C4E9E255C4E9E4551E
:1045C0000FF020FE644B04F5EC6084F8855703F18E
:1045D0004C02C4F86037C4F86457C4F86C27C4F8B8
:1045E0006857C4F8705784F87457C4F87857C4F8FB
:1045F0007C57C4F8805784F8845784F8865784F829
:104600008757C4F88857C4F88C57C4F89057C4F833
:10461000945713F09BFD514B04F5F36084F81A583E
:1046200003F15802C4F89837A4F81C6804F504662E
:10463000C4F8A427C4F89C57C4F8A057C4F8A857D6
:1046400084F8AC57C4F8B057C4F8B457C4F8C0578E
:10465000C4F8C45784F8F65784F8F857C4F80458D7
:10466000C4F80858C4F80C58C4F81058C4F81458C2
:10467000A4F8185884F81B5884F82758C4F8285808
:10468000C4F82C58C4F83058C4F8345812F0C4FF99
:10469000334B40F20111012003F16C02C4F84038A1
:1046A000A4F878182946C4F84C2803F1980284F835
:1046B0007A0804F68800C4F858284FF48072C4F8C9
:1046C0004458C4F84858C4F85058C4F85458C4F86A
:1046D0005C5884F86058C4F86458C4F8685884F882
:1046E0006C58C4F87058C4F87458C4F87C58A4F8CE
:1046F000805884F88258C4F884581BF0ADFE00221C
:104700000023C6E95223C6E9542340F2FF320023B6
:10471000C6E95623C4F8A059C4F8A459C4F8A85946
:10472000C4F8AC5916F0BEFB034684F8B4593046C1
:10473000C4F8B03984F8D55CA4F8D65CA4F8D85C89
:1047400010F0C6FD204684F8805DC4F80650C4F819
:104750000A5070BD242F002060300020E43100207A
:104760001031002010B504460EF03CF9034A044B0A
:10477000C4F8C027C4F8C43710BD00BF1902000038
:10478000ED01000070B504460E460FF0F7F8FDF796
:10479000B5FCD4F8683794F88527003B02F0FF0594
:1047A00018BF012384F8803D0AB9284670BD94F8EB
:1047B00087376FF07E0204F5EC603370D4F88837E9
:1047C0007F2BA8BF7F239342B8BF13467380D4F8D2
:1047D0008C377F2BA8BF7F239342B8BF1346B3808B
:1047E000D4F890377F2BA8BF7F239342B8BF1346DE
:1047F000B37113F0B5FC284670BD00BF144A10B564
:10480000137882B008780C4683420DD0C0F30011B3
:104810001070C0F3C003C0F340020091C0F38001E8
:1048200000F0010018F04AF9B4F90200B4F90410DC
:1048300094F9062000B939B1002349B240B202B060
:10484000BDE8104018F062B9002AF5D102B010BDE1
:10485000F54D002090F8800D704700BFD0F8540847
:10486000003818BF01207047D0F8A007003818BFE3
:1048700001207047012870B576D0831E0446012BB5
:1048800033D9464D18F016FD2B781BB1444B1B78DD
:10489000DA071BD4642016F0B1FA18F00BFD2B7860
:1048A0009BB13F4B1B78DB070FD53E4B3E4A1B6845
:1048B00012689B1A0E2B08D90B213C4818F07CFC7F
:1048C0003B48BDE8704015F01BBE70BD354B364A05
:1048D0001B6812689B1A0E2BDCD92521354818F06D
:1048E0006BFC334815F00CFED4E7334B40F6020264
:1048F00032485D68324905F00F05324E2843274D96
:104900005860986801400A439A600123337017F099
:104910001FFD18F0CFFC2B78002BB3D0204B1B7859
:10492000D907AFD51F4B204A1B6812689B1A0E2B64
:10493000A8D90E21244818F03FFC244B0321244819
:104940008C4218BF184618F037FC2121214818F076
:1049500033FC174815F0D4FD35211F4818F02CFC06
:10496000134815F0CDFD8DE70C4D18F0A3FC2B7806
:10497000002B87D00A4B1B78D80783D5094B0A4AEE
:104980001B6812689B1A0E2B7FF67CAF23211348FD
:1049900018F012FC064815F0B3FD73E7909C002058
:1049A0008F9C00201C9B0020349C0020B418002009
:1049B000784400208C180020389C002000208000C3
:1049C00000F0FFFF739C00207C180020501800208E
:1049D00054180020C0180020E418002058180020A7
:1049E000DFED327A40F2FF3120EE270A60EEA70AAF
:1049F000BDEEC00AFDEEE00A10EE103A03F50073BA
:104A00002DE9F0418B422A4E074610EE900AA8BFCE
:104A10000B46B26800F50074DFF89C8023EAE3736C
:104A200022F003028C4242EA1322F371A8BF0C4623
:104A300098F80010B26024EAE47431B31D4B1340BF
:104A400043EA8403B3600024012508E0336801349D
:104A50001A43326089B1072C13D098F8001047FA36
:104A600004F305FA04F0DB070246EFD432680134A0
:104A700022EA000232600029EDD117F069FC072C10
:104A8000EBD1BDE8F04117F063BC17F061FCB268F0
:104A9000084B98F80010134043EA8403B3600029E0
:104AA000D1D117F055FC98F80010CCE70080FF43F7
:104AB000389C002003F0FFFF739C00200B4610B5CC
:104AC000362800F29782DFE810F08C028202790229
:104AD000700267025E0255024C0243023A02310242
:104AE00028021F02BF01B601AD01A4019B01920182
:104AF0008901800177016E0165015C0153014A0162
:104B0000410138012F0126011D0113010901FF0098
:104B1000F500EB00E100D700CD00C300B900AF0005
:104B2000A5009B00910087007D00730069005F0075
:104B300055004B0041003700C84C0422C8493620BC
:104B4000C4F8D83016F05AFC012010BDC34C042222
:104B5000C4493520C4F8D43016F050FC012010BDF3
:104B6000BE4C0422C0493420C4F8D03016F046FCB4
:104B7000012010BDB94C0422BC493320C4F8CC300C
:104B800016F03CFC012010BDB44C0422B849322080
:104B9000C4F8C83016F032FC012010BDAF4C04221E
:104BA000B4493120C4F8C43016F028FC012010BDEF
:104BB000AA4C0422B0493020C4F8C03016F01EFCC4
:104BC000012010BDA54C0422AC492F20C4F8BC30F4
:104BD00016F014FC012010BDA04C0422A8492E2080
:104BE000C4F8B83016F00AFC012010BD9B4C04221A
:104BF000A4492D20C4F8B43016F000FC012010BDEB
:104C0000964C0422A0492C20C4F8B03016F0F6FBD4
:104C1000012010BD914C04229C492B20C4F8AC30DB
:104C200016F0ECFB012010BD8C4C042298492A2080
:104C3000C4F8A83016F0E2FB012010BD874C042216
:104C400094492920C4F8A43016F0D8FB012010BDE7
:104C5000824C042290492820C4F8A03016F0CEFBE4
:104C6000012010BD7D4C04228C492720C4F89C30C3
:104C700016F0C4FB012010BD784C04228849262080
:104C8000C4F8983016F0BAFB012010BD734C042212
:104C900084492520C4F8943016F0B0FB012010BDE3
:104CA0006E4C042280492420C4F8903016F0A6FBF4
:104CB000012010BD694C04227C492320C4F88C30AB
:104CC00016F09CFB012010BD644C04227849222080
:104CD000C4F8883016F092FB012010BD5F4C04220E
:104CE00074492120C4F8843016F088FB012010BDDF
:104CF0005A4C042270492020C4F8803016F07EFB04
:104D0000012010BD554C04226C491F20E36716F0AA
:104D100075FB012010BD514C042269491E20A36778
:104D200016F06CFB012010BD4C4C042265491D207F
:104D3000636716F063FB012010BD484C04226249F2
:104D40001C20236716F05AFB012010BD434C04229F
:104D50005E491B20E36616F051FB012010BD3F4C5D
:104D600004225B491A20A36616F048FB012010BDFF
:104D70003A4C042257491920636616F03FFB012084
:104D800010BD364C042254491820236616F036FB19
:104D9000012010BD314C042250491720E36516F064
:104DA0002DFB012010BD2D4C04224D491620A3657A
:104DB00016F024FB012010BD284C0422494915207F
:104DC000636516F01BFB012010BD244C04224649EC
:104DD0001420236516F012FB012010BD1F4C042285
:104DE00042491320E36416F009FB012010BD1B4C5F
:104DF00004223F491220A36416F000FB012010BDDD
:104E0000164C04223B491120636416F0F7FA012086
:104E100010BD124C042238491020236416F0EEFA1B
:104E2000012010BD0D4C042234490F20E36316F01D
:104E3000E5FA012010BD094C042231490E20A3637C
:104E400016F0DCFA012010BD044C04222D490D207F
:104E5000636316F0D3FA012010BD00BF3893002021
:104E6000450A0000650B0000D50A0000B5090000E6
:104E700025090000950800000508000075070000DE
:104E8000E506000055060000C5050000E51A000013
:104E9000551A0000C519000035190000A5180000BA
:104EA0001518000085170000F516000065160000B3
:104EB000D515000045150000B514000029140000A8
:104EC0009D1300001113000085120000491F00000F
:104ED000BD1E0000311E0000A51D0000191D0000B0
:104EE0008D1C0000011C0000751B000079210000D2
:104EF000ED20000061200000D51F0000912200007D
:104F0000052200001D2300003B4C04223B490C20DD
:104F1000236316F073FA012010BD374C0422384980
:104F20000B20E36216F06AFA012010BD324C042215
:104F300034490A20A36216F061FA012010BD2E4CFC
:104F4000042231490920636216F058FA012010BD8D
:104F5000294C04222D490820236216F04FFA012023
:104F600010BD254C04222A490720E36116F046FAB9
:104F7000012010BD204C042226490620A36116F012
:104F80003DFA012010BD1C4C042223490520636119
:104F900016F034FA012010BD0422174C1F491046A8
:104FA000236116F02BFA012010BD134C04221C497A
:104FB0000320E36016F022FA012010BD0E4C0422FB
:104FC00018490220A36016F019FA012010BD04460A
:104FD0000948042214494360012016F00FFA2046C4
:104FE00010BD054C042211490020236016F006FA7A
:104FF000012010BD002010BD3893002039050000AD
:10500000F91100006D110000E110000055100000C2
:10501000C90F00003D0F0000B10E0000250E00007A
:10502000990D00000D0D0000810C0000F50B000033
:105030002DE9F0410F46164604460221384615F088
:1050400097FF0221304615F093FF224B3A01224888
:105050003101DFF88CC053F8028003EB0712C4F86B
:105060000080D2F80CE003EB061259580023C4F874
:1050700008E0D2686361194BE26045681B686160B3
:10508000ACFB033C4FF4FA634FEA9C4C03FB0CFC73
:1050900043685B1B9C45FBD8D8F80030384609684C
:1050A0001EEA030F14BF012300230A42214618BF42
:1050B00043F002032374FFF701FD03462146304607
:1050C0002376FFF7FBFC227E03462046134423761B
:1050D000BDE8F0813C370020001000E08443002050
:1050E00083DE1B43022110B50446084615F040FF3D
:1050F0000221052015F03CFF022015F027FF034692
:10510000052084F8203015F021FF002384F82100C9
:105110006362E362A38618F0CDF80C4B1B789BB159
:105120000B4B1B78DB070FD50A4B0B4A1B68126829
:105130009B1A0E2B08D92721084818F03DF808487B
:10514000BDE8104015F0DCB910BD00BF909C0020F8
:105150008F9C00201C9B0020349C002038290020BC
:1051600078440020A94AAA4930B5137E83B004468A
:105170000D68012B40F28C8072B6536962B6002B29
:105180001846B8BFD81C80101AD072B6D3F1000CE4
:1051900003F003010CF0030C58BFCCF10001516186
:1051A00062B6226862B1B3F5007F06DA13F5007FBC
:1051B00040F33481404240B201E06FF07E009047FE
:1051C000944A137E012B50D972B6536962B6002BF4
:1051D0001846B8BFD81C80101AD072B6D3F1000C94
:1051E00003F003010CF0030C58BFCCF10001516136
:1051F00062B6626862B1B3F5007F06DA13F5007F2C
:1052000040F30E81404240B201E06FF07E009047D3
:10521000022015F09BFE94F82030834203D0636A8D
:10522000EB1A312B17D8052015F090FE94F8213099
:1052300083420ED0E36AEB1A312B0AD9E5620028CB
:1052400052D101232563E56184F83530237684F853
:10525000210003B030BD656200282CD10123A56276
:1052600084F8343084F82000DDE772B61368916862
:105270001B68194053681868D36818427AD0137CA9
:1052800003F0030309B143F0040343F0080377E09C
:1052900072B6136891681B68194053681868D36820
:1052A00018423BD0137C03F0030309B143F004031D
:1052B00043F0080338E094F83430002BD2D00022B9
:1052C000A36A84F83420EB1A40F2DB52934200F2D6
:1052D000A980514B1B78002BC4D1A368002BC1D0EF
:1052E000019098470198BDE7002394F83520237674
:1052F000002AACD0484A84F835301378002BA6D168
:10530000236B40F2DB52EB1A934240F290806369C8
:10531000002B9CD001909847019898E7137C03F0EC
:10532000030309B143F004039908013B11740D2BE9
:105330003FF623AF01A151F823F000BF1534000060
:105340000D340000253400000D340000AB310000A6
:105350001D34000015340000153400001D34000019
:10536000AB3100000D340000253400000D34000086
:1053700015340000137C03F0030309B143F0040368
:105380009908013B11740D2B3FF61FAF01A151F895
:1053900023F000BF05340000FD3300003534000069
:1053A000FD330000FB3100002D3400000534000007
:1053B000053400002D340000FB310000FD330000F7
:1053C00035340000FD330000053400005369013B13
:1053D0005361FBE6536901335361F7E65369013BBF
:1053E0005361CBE6536901335361C7E65369023B0E
:1053F0005361C3E6536902335361BFE65369023B0D
:105400005361E3E6536902335361DFE6BC91002048
:105410001C9B0020D8910020FA4D00207F20CEE672
:105420007F20F4E6E368002B7FF45AAF1AE7236984
:10543000002B7FF46FAF0AE710B501210A2015F0A9
:1054400097FD01210A202B4C15F056FD0121252046
:1054500015F08EFD0121252015F04EFD01210720BC
:1054600015F086FD0121072015F046FD00234FF4BD
:105470008C72F021204614F01BFE0121204614F00E
:10548000ADFD0021204613F029F900224FF0FF3333
:1054900003212046E276636113F0E4FE164B0322FB
:1054A00016492046236114F0C7FF0221204613F05D
:1054B000D9FE134B0C2213492046236114F0BCFF84
:1054C00017F0F8FE104B1B789BB1104B1B78DB07D5
:1054D0000FD50F4B0F4A1B6812689B1A0E2B08D969
:1054E00016210D4817F068FE0C48BDE8104015F075
:1054F00007B810BD249B00203C005A00901C0020DF
:105500003C007D00941C0020909C00208F9C00207B
:105510001C9B0020349C0020A41C00207844002008
:1055200010B50121254C222015F022FD0121222059
:1055300015F0E2FC00234FF48C72F021204614F0A9
:10554000B7FD0121204614F049FD0021204613F04B
:10555000C5F800226FF0F82303212046E27663614C
:1055600013F080FE164B032216492046236114F0E7
:1055700063FF0221204613F075FE134B0B221349E3
:105580002046236114F058FF17F094FE104B1B784F
:105590009BB1104B1B78DB070FD50F4B0F4A1B68D5
:1055A00012689B1A0E2B08D916210D4817F004FE1D
:1055B0000C48BDE8104014F0A3BF10BDA89B00200C
:1055C0003C005A00901C002054007D00541D002017
:1055D000909C00208F9C00201C9B0020349C00206D
:1055E000601D002078440020034608461146062B23
:1055F00010B582B014D90D2B08D90E3B062B3AD822
:10560000DFE803F035312F24181410001D4C073B40
:105610001D4A34F9133002B0BDE810401AF0B0BD95
:105620001A4CF5E71A4B1B4A1B68F4E71A4B1B4A46
:105630001B78F0E71A4B93ED007A1A4AB7EEC77A57
:105640008DED007B1AF09CFD02B010BD164B174A81
:1056500093ED007AB7EEC77A8DED007B1AF090FDDE
:10566000F2E7134BE7E7134B134A1B88D3E7134BBF
:10567000114A1B88CFE7124A02B0BDE810401AF069
:105680007FBD00BF109A00201C190020009A002046
:10569000C44A002050190020F94D0020481900206C
:1056A000B44A002030190020FC9900203C19002049
:1056B000BC4A0020589C002028190020569C00203D
:1056C000582E0020C1EB0111364A374B49002DE915
:1056D000F0410746B3F9005092F900008CB27BB25A
:1056E00086B004F11802984292B253D0AF424DD026
:1056F000062F53D94FF6FF734FF6A0460D2F88BFE4
:105700001E460023294D12B201931E230021284674
:1057100000934FF48C7314F057F8EE82AE8202219E
:10572000284604F11F0613F09DFD042336B22B8298
:105730001F4B6E8253F82780B8F1000F07D0404608
:105740001BF026FA41460246284614F075FE02A9CF
:1057500038460E22FFF748FF982302A86E822B825C
:105760001BF016FA02A90246104814F065FE04F177
:10577000350242F204144FF48C7312B200210B482C
:10578000009413F0B9FF06B0BDE8F08100264FF693
:10579000FF73B7E700264FF4FC63B3E740F25F46C0
:1057A0000023AFE7F74D0020549C0020249B0020ED
:1057B000042100202DE9F04F2DED048B8FB000283F
:1057C00000F01B8240F25F42914B924F0292B3F87D
:1057D0000080914A0492049B00219A1E03F10C045C
:1057E000059232F9023F002BC3F10000B8BF03B2AB
:1057F0009942B8BF1946A242F3D1642940F38C8282
:10580000C82940F30482B1F5967F9FED848ADFEDCD
:10581000847ACBBF4FF0FA094FF096094FF4FA762D
:105820004FF4967638FE278A7E4C002116254FF0DD
:10583000CC0A204612F052FF00220F2320461146C8
:10584000009501934FF48C7313F0BEFF02212046A4
:1058500013F008FD029B39460722E3822046A3820B
:1058600041F6C307704B236114F0E6FD6F4B012135
:105870002046636113F0F6FC6D4B6E4A14211B68E1
:1058800009A8009333461AF07BFC09A81BF080F9A5
:10589000082140F215130246618200EB40012046C8
:1058A000A3EB410309A9238214F0C6FD40F641038E
:1058B0002A461C212046CDE900A3FA2313F084FFD9
:1058C00044F208237C221C2120460093FA2313F083
:1058D00013FFFA2349221C212046009713F00CFFE6
:1058E000FA23AF221C212046009713F005FF42F255
:1058F00004132A461C2100932046FA2313F0FCFED1
:10590000B8F1000F04D04A4B1A68424500F20A82EF
:105910000121444813F0A6FC474B484A0721636124
:1059200007A8334600251AF02BFC4FF4B01307A844
:105930009FED439A23614FF07C0A1BF029F907A9D8
:105940000246384814F078FD4B463C4A072107A828
:10595000DFED3C9A1AF014FC4FF48A0307A8DFED40
:105960003A8A23611BF014F907A902462D4814F066
:1059700063FD364B0222364923612A4814F05CFD50
:105980004B46344A072107A84FF01C091AF0F8FBD0
:105990004FF42B0307A823611BF0FAF807A902466E
:1059A000204814F049FD33462A4A072107A82E460D
:1059B0001AF0E6FB4FF45A0307A823611BF0E8F83E
:1059C00007A90246174814F037FD234B012223494B
:1059D0002361144814F030FD154B214A14211B6833
:1059E00009A81AF0CDFB09A81BF0D2F8E42302465F
:1059F00009A9638200EB40030A485B00C3F58B737F
:105A00002382012414F018FD064813F0F5FD41E04F
:105A1000569C0020A80C0020009A00200000FA43A9
:105A200000009643A89B00200900030018C618C672
:105A3000C44A0020B80C002010841084C80C002038
:105A4000000000000000CC420000F8420400780092
:105A5000CC0C0020D00C00201C00E400D40C002052
:105A6000D80C0020E12BA8BFE1231A461FB205F194
:105A70001C030FFA83FB002C00F0988002354FF0D6
:105A8000000446F10006A5F1FC02324300F0DA8082
:105A9000BA46D946AC4BFA221F680023A7FB050182
:105AA00007FB061118F0BEFB4045C0F0B6808742E8
:105AB00040F2B380A0EB0800A7EB0807B1EE086A3C
:105AC000049907EE900AF8EE676A07EE907AB8EE4E
:105AD000677AC6EE877A67EE867ABDEEE77A17EECA
:105AE000102A17EE103A052AA8BF052331F9130032
:105AF00007EE103A01EB4303B8EEC77A05EE900AC1
:105B0000B3F90210F8EEE55A05EE101A77EEC77AEF
:105B1000B8EEC55A002A40F0838035EE654AB3F9E5
:105B20000430B6EE007A06EE103AB8EEC66A36EEEB
:105B3000656A26EE076A27EEA77AF0EE086AB0EEED
:105B4000003A67EE874A67EE266AF7EE002AB0EE63
:105B5000642AF0EE663AE4EEC36AA7EE432AD4EE76
:105B6000833A34EEC77A77EE827A73EEA24A67EE12
:105B7000847AE5EEA47AE6EE857AE7EE067A67EEB9
:105B8000A97A87EE887A78EEC77AFDEEE77A17EE83
:105B9000903A1BB2152B3FF765AF162705F11C0392
:105BA0003A460FFA83FB002C7FF468AF94B2029B55
:105BB0001FFA8AF16548621E019303915B4612B297
:105BC000013400924A1E494624B212B212F002FE7B
:105BD000029B524649465D48CDE900735B4612F090
:105BE000F9FD039902985B464A1C4946CDE90040FD
:105BF00012B2564812F0EEFD40E74FF6A042544B69
:105C0000544F0292544AB3F800800492E3E59FEDAA
:105C1000538A4FF06409C82606E6F0EE497AB0E7E9
:105C200033F9021CB6EE007A042A04EE101AB8EE1C
:105C3000C44A35EE444A24EE074A7FF770AF35EE8A
:105C4000656A78E74148254613F080FB9FED449A4A
:105C5000DFED448A444E059F4CE001FB0500191816
:105C600041F10001A6FB01CE2EF0010C0CEB5E0C05
:105C7000A1EB0C015B1AA3FB061360F100004908BD
:105C800006FB003341EAC3714144FA200023A1FB23
:105C9000000118F0C7FA1C2140F21512084403B2A3
:105CA0001B2B03DD9342A8BF1346194637F9023F69
:105CB0004FF6FF72254807EE103A00920423B8EE23
:105CC000C77A27EE097AC7EE087A78EEE77AFDEE12
:105CD000E77A17EE902A12B2E12AA8BFE122162A2B
:105CE000B8BF162212F0F0FF013445F10005E31FA2
:105CF0002B430CD0144B1A68A2EB08014245A1FBC0
:105D00000430AAD84146002ABFD11C21CEE70FB0EB
:105D1000BDEC048BBDE8F08F9FED148A4FF0320983
:105D2000642681E5FA210023A8FB010118F07AFA24
:105D30001C3053462A4601B247F6EF300090204609
:105D400013F070FCE4E500BFC44A0020A89B0020CB
:105D5000589C0020B00C0020109A002000004843FE
:105D60000000CC420000F842ABAAAAAA0000C84238
:105D70002DE9F04F844D91B000214FF00F082846D7
:105D80004FF0FF3412F0AAFC002216214FF48C735E
:105D9000284609AE07AF4FF01B09CDE900181146A0
:105DA00013F012FD0221284613F05CFA774B07220C
:105DB00077492846C5E9043414F03EFB754B0121B0
:105DC00028466B6113F04EFA734B10227349284634
:105DD0002B6114F031FB724B724AADF82040002465
:105DE000079293E8070086E807000121284613F090
:105DF00039FA5C2321B216222846CDE9009813F027
:105E0000E3FC37F8022B56F804ABA31C1F21EA82EF
:105E10005046AA822B826982BAF1000F06D01AF08E
:105E2000B7FE51460246284614F006FB5D3440F2A8
:105E30001713A4B29C42DCD15B4B00264FF01B0B26
:105E4000514F0393594B0493594B059306EB46046A
:105E500016F0010F40F6410A4FF05C0304EBC40456
:105E600018BF4FF0000A00213846A4B2CDF800B0A8
:105E7000CDF804A05FFA86F804F131093A340FFA3C
:105E800089F924B24A4613F09FFC4A4B4A4A40F231
:105E90005F411B7810784FF6FF72C3EBC3036C822F
:105EA000434408F10E08DBB2834218BF0A460E21B4
:105EB0000CA8EA82AA82039A32F9023F00930223D5
:105EC00003922B8233463D4A1AF05AF90CA81AF075
:105ED0005FFE0CA90246384614F0AEFA5C234A462F
:105EE0005D213846CDE900BA13F06EFC049A0E210C
:105EF0000CA832F9023F6C820093314B04926B6123
:105F00005F23304A2B8233461AF03AF90CA81AF074
:105F10003FFE0CA90246384614F08EFA4A465D232D
:105F2000BA213846CDF804A0CDF800B013F04CFCEF
:105F30004FF0FF330E225FFA88F06B61BC230CA98F
:105F40006C822B82FFF750FB059B53F8044F05939F
:105F50003CB120461AF01CFE21460246384614F099
:105F60006BFA3A21384613F0E1F801360CA81AF022
:105F70000FFE0CA90246384614F05EFA072E7FF495
:105F800065AF11B0BDE8F08FA89B002009000300A9
:105F9000641B002018C618C67800080024180020CA
:105FA000180A00205F04A0FCFE9900200E9A002031
:105FB000382100207F9C0020549C002038180020AD
:105FC000A0FCA0FC4418002010B5204C8AB0034669
:105FD00008461146E268D4F808C0042B06922269EC
:105FE000CDF814C00792D4F814C0A269CDF820C02F
:105FF000099225D8164C9A0003EB830304EB830324
:106000001C69237873B102F12803124A6B4413ED23
:10601000057A0294B7EEC77A8DED007B1AF0B0F8DE
:106020000AB010BD02F128030B4A6B4413ED057A48
:10603000B7EEC77A8DED007B1AF0A2F80AB010BD5A
:10604000064A0AB0BDE810401AF09AB8C498002079
:10605000C81E0020941B00208C1B0020582E0020FE
:10606000C1EB011104284FEA41012DE9F0418CB246
:1060700086B004F1180292B259D80746324B334920
:10608000B3F900007BB291F9001099424BD08742DE
:1060900040F2FF764FF6FF730CBF002600232C4D15
:1060A00012B201931E230021284600934FF48C73F3
:1060B00013F08AFB02212846EE82AE8213F0D2F85A
:1060C000042304F11F062B8236B2224B6E8253F852
:1060D0002780B8F1000F07D040461AF059FD41461D
:1060E0000246284614F0A8F902A938460E22FFF706
:1060F0006BFF982302A86E822B821AF049FD02A939
:106100000246134814F098F904F1350242F20414DF
:106110004FF48C7312B200210D48009413F0ECFA86
:1061200006B0BDE8F08100264FF4FC63B7E700211C
:106130001E204FF48C7312B2CDE90001044813F015
:1061400043FB06B0BDE8F081549C0020F74D0020D1
:10615000249B0020F0200020F0B5002287B03C4CAA
:106160001F2118274FF0FF354FF48C73204605266A
:10617000CDE90071114613F027FB0221204665612D
:1061800013F070F8334B032233492361204614F097
:1061900053F9324B0A2232492361204614F04CF95C
:1061A00001212046656113F05DF82E4B0C212E4A2B
:1061B000B3F900300DEB01000096013319F0E0FF58
:1061C0002A4B03A823611AF0E3FC03A902462046E8
:1061D00014F032F9264B274A1B6812689A421AD9E2
:1061E000254B1B88312B20D84FF478724FF48C73D9
:1061F0002046009701920022114613F0E5FA022191
:106200002046656113F02EF832461C491C4B10489D
:10621000236114F011F90024E1B201340846FFF7BC
:106220001FFF072CF8D107B0F0BD00224FF400414A
:106230004FF48C73204601911146009713F0C4FA75
:1062400002212046656113F00DF807220D49DDE7B4
:10625000249B002009000400501800204100040085
:106260006C0C0020549C0020780C0020DE000A00FA
:106270001C9B0020349800204E9C00205C0C0020C9
:1062800055000400640C0020614B1B78022B00F0C9
:10629000A380002218204FF48C731146F0B55D4C9A
:1062A00089B00F254FF0FF36CDE9000520465A4D45
:1062B00013F08AFA02212046666112F0D3FF574B91
:1062C000032257492361204614F0B6F82B78002B9F
:1062D0007BD140F25F425349E282A282524A21615D
:1062E00052F823100846514F03911AF051FC0399BC
:1062F00002464848072614F09FF801214548676187
:1063000012F0B0FF2B78082104A8C3EB431203EB73
:10631000C203474A128800961344464A0133DBB24F
:1063200019F02EFF444B04A823611AF031FC04A994
:106330000246384814F080F802213648676112F0AE
:1063400091FF2B783D4A0821013306A819F018FF68
:106350003B4B06A823611AF01BFC06A902462D48F8
:1063600014F06AF8374B384A1B6812689A421DD9F4
:10637000364B1B88312B31D8002218234FF478710B
:106380002448CDE9003111464FF48C7313F01CFA08
:106390004FF0FF3302211F48636112F063FF0522B3
:1063A0002B492C4B1B48236114F046F82D78002410
:1063B000C5EBC505EDB2E1B201346818C0B2FFF714
:1063C00081F9072CF7D109B0F0BD012B1CD0154B7A
:1063D0002149C4E9043685E7FFF7BEBE0022182331
:1063E0004FF400410B48CDE9003111464FF48C7356
:1063F00013F0EAF94FF0FF3302210648636112F00F
:1064000031FF32461549CCE74FF6A04263E700BFA3
:10641000F84D0020249B00207F9C002009000400F0
:10642000901C002041000400801D002018C618C6E2
:10643000549C0020780C0020A2000A00781D002047
:10644000DA0004001C9B0020349800204E9C0020A1
:106450005C0C002055000400700C0020640C00202F
:106460002DE9F04F564C8FB00021564F2046DFF8F3
:10647000749112F033F900221F2016214FF48C730F
:1064800048260025DFF860B1CDE90010114620460E
:1064900013F09AF90221204612F0E4FE4FF0FF3388
:1064A00049490B222046C4E90413484913F0C4FFAC
:1064B000474B01212046636112F0D4FE454B0E226A
:1064C00045492046236113F0B7FF444915F0010FF9
:1064D00040F64103A6F10E02B1F9001018BF0023E7
:1064E00024205FFA85F8A94212B25AD00021CDE9E2
:1064F00000034FF48C73204613F066F940F2FF73EB
:1065000001212046E3820FFA86FAA38212F0AAFE46
:1065100059F8041B04230135A4F812A0084623826D
:10652000059131B11AF034FB05990246204613F06B
:1065300083FF0E2206A940462436FFF745FD82233D
:1065400006A8A4F812A023821AF022FB06A902468C
:106550002046143713F070FF17ED036A17ED047A25
:106560001021B7EEC66A5A46B7EEC77A0AA8B6B285
:106570008DED026B8DED007B19F002FEC323184AEE
:106580000AA823826261A4F812A01AF001FB0AA9EA
:106590000246204613F050FF052D96D10FB0BDE8FE
:1065A000F08F242343F286112046CDE900314FF4C9
:1065B0008C73002113F008F94FF6FF73A0E700BFBA
:1065C000A89B0020C81E002009000300601B0020BB
:1065D00018C618C6B40008006C1B0020549C00208C
:1065E0004D6B4D6BF02000207C1B0020094B1B786D
:1065F000022B0CD0084B1B7833B1012B01D0FFF7D5
:10660000B7BB0020FFF7D6B80120FFF7D3B8FFF7DC
:1066100027BF00BFF84D00207F9C002040F2DB53D5
:1066200098422DE9F0470C4682B041D84FF06408FB
:10663000324B4FF48A75002208FB00F7DFF8D89040
:1066400011462F48A3FB073A18234FEA5A1A05FBB5
:106650000AF5CDE90032A9FB05364FF48C7313F02F
:10666000B3F8284B76099F423AD8CAEB4A1040004B
:10667000A9FB00904009C00240F4FC6080B2632D89
:1066800024D8214A4FF6FF73204E01211C4D022CC5
:1066900018BF164628466B6112F0E4FD1C4B06221B
:1066A000314628462B6102B0BDE8F04713F0C4BE66
:1066B000002218204FF48C734FF48A760090114614
:1066C0000F48019213F080F84FF68020102133B26A
:1066D0000422CDE900100221094813F075F8D0E733
:1066E00056230C4803FB0A00B0FBF8F0C0F13F0052
:1066F000C0B2400140F47840C1E700BFF11976050F
:10670000249B0020D32A0100B41B0020BC1B0020C6
:106710007A00080034EFFFFF1F85EB51014B18880A
:10672000704700BF4E9C002010B504460020214653
:1067300014F0B8FDA521012014F0B4FD16F0BAFD47
:10674000134B1B78FBB1134B1B78DB071BD5124B8C
:10675000124A1B6812689B1A0E2B14D91621104876
:1067600016F02AFD022C11D0032C0DD00D480E4B33
:10677000042C18BF1846122116F01EFD0B48BDE868
:10678000104013F0BDBE10BD0948F4E70948F2E718
:10679000909C00208F9C00201C9B0020349C00209B
:1067A0009C1600204C160020601600207844002023
:1067B0008816002074160020012010B514F062FC29
:1067C000A52802D00024204610BD002014F05AFC59
:1067D00004460021012014F065FD631EDBB2032B8B
:1067E000F0D816F067FD134B1B78002BEBD0124B43
:1067F0001B78DB07E7D5114B114A1B6812689B1AFF
:106800000E2BE0D918210F4816F0D6FC022C0DD023
:10681000032C0DD00C480D4B042C18BF1846032137
:1068200016F0CAFC0A4813F06BFECCE70948F6E7FD
:106830000948F4E7909C00208F9C00201C9B0020BE
:10684000349C0020F00E0020EC0E0020901C002054
:1068500078440020501800205418002038B54D21ED
:10686000002232244923417094460470012483702D
:10687000431DC17000F13701047180F8372013F80F
:10688000012F99428CEA020CF9D1244C38220421C0
:1068900080F805C014F0A0FD2388214D013323802A
:1068A00016F008FD2B781BB11E4B1B78DA0704D4B9
:1068B0002388322B1AD0012038BD1B4B1B4A1B6882
:1068C00012689B1A0E2BF3D92B21194816F074FC71
:1068D0002188184813F008FE0121174816F06CFCB7
:1068E000144813F00DFE2388322BE4D116F0E2FC9D
:1068F0002B78002BDFD00B4B1B78DB07DBD50A4B4B
:106900000A4A1B6812689B1A0E2BD4D930210B48F7
:1069100016F052FC074813F0F3FDCCE74E9C002024
:10692000909C00208F9C00201C9B0020349C002009
:106930000C17002078440020803F002038170020EA
:106940002DE9F0418EB006466F463C46C7F104057E
:10695000601914F097FB0EAB04F8010B9C42F7D1C1
:10696000AE4B009A9A4240F026819DF80430012BEC
:1069700040F0B4800DF105030DF13701002413F848
:10698000012F8B4284EA0204F9D19DF80580444529
:1069900040F05E8104AA07F11E0132F8023F03F5C0
:1069A000FA739BB2B3F57A7F00F28481D38903F541
:1069B000FA739BB2B3F57A7F00F2D6819142ECD1A3
:1069C000BDF8322040F6B8339A4200F20D81BDF88E
:1069D00034209A4200F20881DDF806309FED907A6B
:1069E00007EE903AF4EEC77AF1EE10FA00F1A081CA
:1069F000F2EE0E6AF4EEE67AF1EE10FA00F3988108
:106A0000DDF82E3007EE903AF5EEC07AF1EE10FA8E
:106A100000F16E81F3EE046AF4EEE67AF1EE10FA1C
:106A200000F36681DDF80A3007EE903AF4EEC77A9B
:106A3000F1EE10FA00F1B481B2EE0E7AF4EEC77AFC
:106A4000F1EE10FA00F3AC819DF83630053B5A2B7D
:106A500000F2C281DDF80E3042F21C52A3F5FA7347
:106A6000934200F2D5810CAD3C46103610370FCC66
:106A7000AC4246F8100C46F80C1C46F8082C46F8B8
:106A8000043CF1D103CF3060716016F013FC654B0C
:106A90001B78002B00F04881634B1B78DB0740F12B
:106AA0004381624B624A1B6812689B1A0E2B40F2AC
:106AB0003B811E215F4816F07FFB00230A22012143
:106AC0005D4813F047FD01215C4816F075FB5A48FC
:106AD00013F016FD01200EB0BDE8F081514D16F007
:106AE000E9FB2B788BB1504B1B78DC070DD54F4B56
:106AF0004F4A1B6812689B1A0E2B06D93121504849
:106B000016F05AFB4C4813F0FBFC4D2332220024B4
:106B100000217370F370012332704FF07E52337195
:106B20006FF07703C6F80620B3731323C6F80A2064
:106B30004622F37349237471B370C6F81240C6F845
:106B40002E10C6F81640C6F81A40C6F81E40C6F801
:106B50002240C6F82640C6F82A4086F8324086F819
:106B6000334086F8344086F83540347486F8362051
:106B7000747486F8374016F09DFB2B7803F0FF0005
:106B8000002BA8D0284B1B7813F0010300F0908055
:106B9000264B274A1B6812689B1A0E2B40F2A680D0
:106BA0002F21284816F008FB234813F0A9FC2046A3
:106BB0000EB0BDE8F0811B4D16F07CFB2B78002B4E
:106BC000A3D0194B1B78DF079FD5184B184A1B68B9
:106BD00012689B1A0E2B98D92F211B4816F0ECFA3D
:106BE000154813F08DFC90E70E4D16F063FB2B78E3
:106BF000002B8AD00C4B1B78DB0786D50B4B0C4A3D
:106C00001B6812689B1A0E2B7FF67FAF33210F484B
:106C100016F0D2FA084813F073FC76E7324D494D6E
:106C2000CDCCCC3D909C00208F9C00201C9B002054
:106C3000349C00200016002078440020803F002073
