:0200000460009A
:100000004643464200000156000000000101020084
:1000100000000000000000000000000000000000E0
:1000200000000000000000000000000000000000D0
:1000300000000000000000000000000000000000C0
:1000400000000000010406010000000000000000A4
:100050000000800000000000000000000000000020
:100060000000000000000000000000000000000090
:100070000000000000000000000000000000000080
:10008000EB04180AFF1E04320126000000000000E5
:100090000000000000000000000000000000000060
:1000A0000000000000000000000000000000000050
:1000B0000000000000000000000000000000000040
:1000C0000000000000000000000000000000000030
:1000D0000000000000000000000000000000000020
:1000E0000000000000000000000000000000000010
:1000F0000000000000000000000000000000000000
:1001000000000000000000000000000000000000EF
:1001100000000000000000000000000000000000DF
:1001200000000000000000000000000000000000CF
:1001300000000000000000000000000000000000BF
:1001400000000000000000000000000000000000AF
:10015000000000000000000000000000000000009F
:10016000000000000000000000000000000000008F
:10017000000000000000000000000000000000007F
:10018000000000000000000000000000000000006F
:10019000000000000000000000000000000000005F
:1001A000000000000000000000000000000000004F
:1001B000000000000000000000000000000000003F
:1001C000000100000010000001000000000000001D
:1001D000000001000000000000000000000000001E
:1001E000000000000000000000000000000000000F
:1001F00000000000000000000000000000000000FF
:10020000FFFFFFFFFFFFFFFFFFFFFFFFFFFFFFFFFE
:10021000FFFFFFFFFFFFFFFFFFFFFFFFFFFFFFFFEE
:10100000D1002043F1150060000000000000000046
:10101000201000600010006000240260000000004A
:10102000000000600030020000000000FFFFFFFF32
:10103000FFFFFFFFFFFFFFFFFFFFFFFFFFFFFFFFC0
:10104000FFFFFFFFFFFFFFFFFFFFFFFFFFFFFFFFB0
:10105000FFFFFFFFFFFFFFFFFFFFFFFFFFFFFFFFA0
:10106000FFFFFFFFFFFFFFFFFFFFFFFFFFFFFFFF90
:10140000824205D051F8043B40F8043B8242F9D8AF
:10141000704700BF044A05494FF0000342F8043BFF
:101420009142FBD8704700BFC03600208093002057
:1014300008B5BFF34F8F00F06FF9544C544B0820A0
:101440005449C3F85401544AC3F800115348C3F82F
:10145000F0405349FFF7D4FF524A53495348FFF72E
:10146000CFFF534CFFF7D6FF4FF470004FF0E02151
:101470000023504AC1F8880D44F823200133B02BD3
:10148000FAD14D4B80214D4A03F8011B9342FBD109
:101490004FF0E0254A4E4B4A4FF0FF31C5F8084D5A
:1014A000D5F8243D43F4E023C5F8243DF36923F047
:1014B0007F0343F04003F361736A23F07F0343F03B
:1014C000400373629166D1661167516700F02CF991
:1014D0003D4A3E4BA2636322E36300246A61032317
:1014E0003B4AAC612B61C5F8202DD5F8FC2D394B5A
:1014F00042F080723849C5F8FC2D1A6842F00102AA
:101500001A605B680B6000F0DFFA344800F054FCAE
:10151000F16E334B334A41F44051F1661C60C3F81D
:101520000841C3F81841C3F82841C3F83841936B08
:10153000DB0708D442F615632B4951651365936B9D
:1015400043F001039363274A284C936843F0011347
:10155000936000F077F900F05FF800F035FC00F0E0
:10156000E5FA00F0DBF82368132BFCD900F07AFBD6
:101570002368B3F5967FFBD300F0D4F800F0D0F8E1
:1015800000F01EFC00F028FC30BFFDE70C0D11132D
:1015900000800D401B101820F8CA01000000000058
:1015A0001C210060C036002018EC01600000002003
:1015B00000340020B138010000E400E0A0E400E0C5
:1015C00000C00F4000C00A4091270100952701008C
:1015D00000002020001000E0E09100200046C3231E
:1015E0000040084000400D400000C056E49100203B
:1015F000054B4FF42A01054A05485A641864054A08
:1016000099639546FFF714FF00C00A40FFAAAAAAF3
:1016100007002000000006200F4B40F2376C0F4AF5
:10162000A020D96E41F44031D966D96E41F44071A1
:10163000D966C2F844C09064936C1B06FCD4084A77
:1016400040F23761A02351649364936C13F08003DC
:10165000FBD1044A1370704700C00F4000400C409B
:1016600000800C4033930020294A00210123C2F856
:10167000A000C2F8A410C2F8B0305369D907FCD555
:1016800001234FF4803C22495361C2F8A000C2F804
:10169000A4C0C2F8B0304B69DB07FCD501234FF47E
:1016A000003C1B4A4B61C1F8A000C1F8A4C0C1F8BE
:1016B000B0305369D907FCD50123DFF858C014496D
:1016C0005361C2F8A000C2F8A4C0C2F8B0304B69A0
:1016D000DB07FCD5D1F8003145F60D504FF0210C59
:1016E0009AB2C1F814C0824210D045F69D518A4288
:1016F0000AD1C3F34253032B08D0A3F10403B3FA76
:1017000083F35B0918017047002070470820704779
:1017100000402A4004000300704700BF704700BF2C
:10172000704700BF00BF70474FF0E02300214FF02B
:10173000100C3448C3F8941DC3F89CCD4FF0110C25
:10174000C3F8A00D3048C3F89CCD4FF0120CC3F87D
:10175000A00D2E48C3F89CCD2D4AC3F8A00DDFF88C
:10176000D0C042F015022B48C3F89CCDC3F8A00DA1
:10177000DFF8C0C02848C3F89CCDC3F8A00DDFF83F
:10178000B8C0C3F89C2D2548254AC3F8A0CDC3F89E
:101790009C0DC3F8A02D02F5A022DFF8A0C00C32EA
:1017A0002048C3F89CCDC3F8A02D1F4AC3F89C0D58
:1017B000C3F8A02D02F14062DFF884C002321B485A
:1017C000C3F89CCDC3F8A02D0A32C3F89C0DC3F812
:1017D000A02D00BF00BF00BF00BF00BF0122C3F8A3
:1017E000942DBFF34F8FBFF36F8FC3F8501FBFF31C
:1017F0004F8FBFF36F8FD3F8142D42F44032C3F8EC
:10180000142D70473F000010250008070900100044
:1018100080930020210002072500081316002020D5
:1018200027000B13180000602F000B071A00008020
:1018300013002000140000200900001017000040D1
:101840001900007030B5864B85B0DFF874E21822BD
:10185000844D0120C3F85CE28349C3F86052A5F5CA
:101860008055DFF860C2814CC3F864E2C3F8685267
:101870002125C3F86CC2C3F870C2C3F874C2C3F8A0
:1018800078C248F20C7CDA661A675A679A67DA6798
:10189000C3F88020C3F88420C3F88820C1F82C0343
:1018A000734AC1F83003C1F83403C1F83803C1F8F2
:1018B0003C03C1F85003A1696E4B0A406E486F4962
:1018C00013436F4AA361D4F8843043F00C03C4F887
:1018D00084304FF0FF34036843F002030360036871
:1018E00003EA0C031A43674B026044608A68664C43
:1018F0001340664A43F000538360C36823F07803C3
:10190000C360036A23401A43604B0262026A2240AA
:101910005F4C1343002243628462C46240F2056458
:10192000D1F8B83023F03F0343F00103C0F8B830DA
:10193000D1F8BC30574923F03F0343F00103C0F80E
:10194000BC3002610567C0F880404567C0F884403C
:101950000224036823F00203036081614E4B4F4968
:10196000C46143F8042B8B42FBD1434C236843F002
:1019700001032360256815F00105FBD145480222CB
:1019800040F2F561A06140F29940E26140F26642A6
:10199000C4F8001242F20141C4F81022404AC4F8CF
:1019A0002002C4F8302240F23542C4F834123D48D7
:1019B000C4F840223C4AC4F850022846C4F85422D5
:1019C00042F201223949C4F86012C4F86422FFF7D8
:1019D0004BFE0246002839D0810201234FF48020BB
:1019E00021662549C4F8A050C4F8A400C4F8B0305A
:1019F0004B69D807FCD515050124039228464C6194
:101A0000FFF732FE039A2A4B0244D2B21A7080B119
:101A1000194980024FF4802348660846C1F8A05057
:101A2000C1F8A430C1F8B0404369DB07FCD50123FD
:101A3000436120490024204801230094401A00EB10
:101A400002521E4800F0C4F905B030BD1B4B1849C6
:101A500018600870D860C3E9010005B030BD00BF50
:101A600000801F40F910010000841F4000C00F409B
:101A7000FFFCFF1F0003008000402A4000802A4036
:101A80001200FFFFFF37F70000FFF07C40000080EE
:101A9000FF000F83F05AF05A00422A4000432A40C8
:101AA0009F041830EB06180A063201263806180A79
:101AB000359300200000007000000070248F00208B
:101AC000F9B00100F970010010B5174A4FF48054C5
:101AD0004FF4005E4FF4404C4FF4803043F242012B
:101AE000136913F0020F0DD113F4005F0FD013F43C
:101AF000805F0FD0002BF3DA13F4803F0CD15B062C
:101B00000ED510BDC2F818C050619161E8E7C2F867
:101B100014E0E5E75461E3E74FF480339361DFE7D6
:101B200040235361DCE700BF00800D40414A0320A1
:101B30004149F3EE095AD2F880309FED406A23F014
:101B400001039FED3F5ADFF814C100B5C2F88030A1
:101B5000C2F89000D1F8E010DFF804E1CBB23948C8
:101B6000CEF8003007EE903A0B0DC1F30B21F8EEE2
:101B7000E77A06EE903A07EE101A334BB8EEC77AC2
:101B8000CCF80010F8EEE66A304937EEC66A37EE58
:101B9000C55A76EEC76A77EEE57A26EE266AC3ED79
:101BA000006A25EE265AD2F8803067EEA64AC0EDCC
:101BB000007AC6EE275A264885EE276AC4EEA76A41
:101BC00075EE875AFCEEE55A36EE076A15EE90CAB6
:101BD000BCEEC66A43EA0C5376EE877AC2F88030D0
:101BE00016EE103AD2F890C1FCEEE77A01EA034112
:101BF00041EA0C014FF0000C17EE903AC2F8901138
:101C0000C3F30B03D2F890110B431249C2F8903181
:101C1000D2F8803043F00203C2F880300E4B80F8D7
:101C200040C0C1F840314FF0E0230122C3F8082141
:101C300000BD00BF00810D4000441F400000AA42CB
:101C40000000B44254910020589100200000FF0F82
:101C500000E400E000340020953A01004C9100209F
:101C600050910020314B40F6617210B5C3F820212D
:101C700040F2044400F0B4F82D4A2E49D2F88030E6
:101C80002D4843F00303C2F880302C4BC1F860416B
:101C900002681A4203D1D1F8A8319A071BD0254A0D
:101CA0004FF00041244B5963D2F8403143F0020316
:101CB000C2F84031D2F840319B07FBD44FF40030DA
:101CC0004FF0E0211C4B4FF00042C1F88C0219206C
:101CD0009A6300F089F8184B0021164C4FF08042AF
:101CE0000A209A634FF480621960C4F8A80114486E
:101CF00000F05EF84FF4800203464FF4810040F29A
:101D000043111860C4F858311A640E4B0E4AC4F8D7
:101D10004811C3F804224FF0E0224FF400310123B0
:101D2000C2F80C11C4F8403110BD00BF00800D4056
:101D300000C00F4000002E4000900D40001C1E000F
:101D40000000002000340020993C010008B50E4B33
:101D50001B6E9B0700D4FBBE72B60C4B00200C4AD6
:101D6000C3F8400103F160430A49A3F55F231164FE
:101D70009D46BFF34F8F4FF40013074A0748DB69B6
:101D800002609B68984700BF00441F4000002E403F
:101D900000C00A4003002000000012EB0080202059
:101DA000F8B500BFF8BC08BC9E46704700000000B4
:101DB0005FF800F0A96C01005FF800F0A12C0100B1
:101DC0005FF800F0F96E01005FF800F0954E010039
:101DD0005FF800F0F94F01005FF800F005370100EF
:101DE0005FF800F0B94301005FF800F0B52F010083
:101DF0000501000095850000CD8600007D9900005A
:081E000059A10000B1F300003C
:101E08006CC00F40030000000E0D000081040100AB
:101E18002A36000014000000130000000100000032
:101E2800F4841F402B32000014000000130000004F
:101E380001000000F8841F402D310000140000004C
:101E48001300000001000000F0841F402CFFFF0079
:101E58001400000000000000000000000100000065
:101E680000000000EC841F4000000000000000009B
:101E78006CC00F4030000000100F0000810401000A
:101E880001270000170000001200000000010000F8
:101E980014851F401AFF0000120000000000000017
:101EA8000100000018851F401BFF00001200000001
:101EB800000000000100000010851F400026FF0000
:101EC80017000000120000000000000001010000DF
:101ED800010000000C851F400C851F400000000019
:101EE8006CC00F40C0000000504F000055050100B5
:101EF8000CFF0000130000000000000000000000BC
:101F080024851F400BFF00001300000000000000A4
:101F18000000000028851F400DFF0000130000008E
:101F2800000000000000000020851F400A25240052
:101F3800130000001200000012000000010203005C
:101F48000000000000000000000000000000000089
:101F58000901809611800A3A81550A3601082A0437
:101F6800000000F02B040000014021800A13800AC1
:101F780029800A0010034D0049004D002000500040
:101F88006F00430008034D0049004D000403090495
:101F98000902BA00050100A0FA080B0004FFFFFFC0
:101FA800000904000002FF5D010011210001012564
:101FB80081140000000013020800000705810320B7
:101FC8000004070502032000080904010004FF5D5E
:101FD80003001B2100010101834001042016850034
:101FE800000000000016050000000000000705833F
:101FF80003200002070504032000040705850320C9
:102008000040070505032000100904020001FF5DD8
:102018000200092100010122860700070586032026
:1020280000100904030000FFFD130406410001012C
:102038000309040400010300000009211101000143
:10204800221C000705870340000A00000902BA00A5
:10205800050100A0FA080B0004FFFFFF00090400B7
:102068000002FF5D0100112100010125811400001B
:10207800000013020800000705810320000407057B
:1020880002032000080904010004FF5D03001B216E
:1020980000010101834001042016850000000000B2
:1020A8000016050000000000000705830320000259
:1020B80007050403200004070585032000400705E1
:1020C80005032000100904020001FF5D0200092138
:1020D8000001012286070007058603200010090475
:1020E800030000FFFD130406410001010309040475
:1020F800000103000000092111010001221C000752
:1021080005870340000A00000A060002EF020140AA
:0421180001000000C2
:10211C0000000000000000000000000000000000B3
:10212C0000000000000000000000000000000000A3
:10213C00F8B54FF084439D695A6915400DD0254F71
:10214C0001269D6195FAA5F4B4FA84F457F824306D
:10215C0006FA04F49847A543F4D11F4B9D695A69BC
:10216C0015400DD01D4F01269D6195FAA5F4B4FACA
:10217C0084F457F8243006FA04F49847A543F4D1B4
:10218C00174B9D695A6915400DD0164F01269D615C
:10219C0095FAA5F4B4FA84F457F8243006FA04F44A
:1021AC009847A543F4D1104B9D695A6915400DD041
:1021BC000E4F01269D6195FAA5F4B4FA84F457F8F4
:1021CC00243006FA04F49847A543F4D1BFF34F8F9B
:1021DC00F8BD00BF582E002000400042D82E002031
:1021EC0000800042582F002000C00042D82F002051
:1021FC000548064B1B1AD90F01EBA301491002D05D
:10220C00034B03B118477047C0360020C03600207E
:10221C000000000008B5054B1BB105490548AFF39C
:10222C000080BDE80840FFF7E3BF00BF00000000DE
:10223C001491002000300260704700BF704700BF4F
:10224C00704700BF562802D1034B01229A73034BEF
:10225C001B6803B118477047A0450020DC8700209D
:10226C00562802D1034B00229A73034B1B6803B10F
:10227C0018477047A0450020EC870020002383827C
:10228C00C0E90333704700BF704700BF194B1B7880
:10229C001A074CBFF7EE007ADFED177A5A0703D511
:1022AC00B7EE007A77EEC77A03F00202DB07C0EDD7
:1022BC00007A03D5D2B100230B607047002AFAD004
:1022CC000E4B0B60D0ED007AF5EE407AF1EE10FA81
:1022DC000FD09FED0B7A67EE877AC0ED007AD1EDC7
:1022EC00007A67EE877AC1ED007A70474FF07E5323
:1022FC00E7E770472093002000000000000080BF3B
:10230C00F304353F234A2449136870B50133234C39
:10231C00136024680870A0B39CB36FF02E0504F111
:10232C002F0304F13F0CDFF884E02D1B01261A4625
:10233C0013F8011F814207D12A44BEF8001006FA97
:10234C0002F20A43AEF800209C45F0D16FF01A025D
:10235C0004F11B0304F11F05114E141B4FF0010C6B
:10236C001A4613F8011F814205D1224431780CFA28
:10237C0002F20A4332709D42F2D10A4BDB7983425E
:10238C0000D070BD0438C0B2E328FAD8064B012245
:10239C001A7070BD7489002012930020B88100203F
:1023AC0020930020788F00201C93002002930020A3
:1023BC00244A2549136870B50133244C13602468F2
:1023CC000870B0B3ACB36FF02E0504F12F0304F119
:1023DC003F0CDFF888E02D1B01261A4613F8011F6D
:1023EC00814208D12A44BEF8001006FA02F221EA12
:1023FC000202AEF800209C45EFD16FF01A0204F1F6
:10240C001B0304F11F05124E141B4FF0010C1A464E
:10241C0013F8011F814206D1224431780CFA02F2E2
:10242C0021EA020232709D42F1D10A4BDB798342E0
:10243C0000D070BD0438C0B2E328FAD8064B002295
:10244C001A7070BD7489002012930020B88100208E
:10245C0020930020788F00201C93002002930020F2
:10246C00012A57D12DE9F04F85B00E9A082A8CBF5E
:10247C00002201221AB1002005B0BDE8F08FB1F89E
:10248C001EE040F25E4CE645F5D193F805C0BCF178
:10249C00FF0FF0D193F806C0BCF1470FEBD193F8C6
:1024AC0000C00E9C9C4423440CF1060E7345E2D3F1
:1024BC009346904692469146174603921A4604E07C
:1024CC00F4440CF1060E724526D39CF800E0BEF1E4
:1024DC00030F21D99CF80130052BF1D1BEF1060F69
:1024EC00EED99CF8033003F00303032BE8D19CF9DD
:1024FC0002309CF80240002BBCF804509CF806609B
:10250C002DDBB8F1000FDBD104F00F08C5F30A0B7B
:10251C000396D5E7002070473A46002FABD04B46C8
:10252C000D4604460321402B2846CDF804A028BFB5
:10253C004023009301230AF0E3FCE06000289AD0CA
:10254C00174A234604F13401C26340220AF030F9E1
:10255C00B8F1000F0BD10123184663758CE7002FDF
:10256C00AED104F00F07C5F30A09B246A8E75946E5
:10257C00039B42462846052901934FF0000328BFD0
:10258C000521009103210AF0BBFC234620610028A1
:10259C00E1D004490522C16303490AF009F9DAE7DD
:1025AC00D10A000079010000E02A002008B52DEDC9
:1025BC00048B09EE900A9FED227A40F2E931214812
:1025CC00F8EE697A67EE807A87EE879A12F0DCFA79
:1025DC0040F2E93108EE900A1A4812F0D5FA08EEEA
:1025EC00100A40F2E9311748F8EEE88A12F0CCFAFA
:1025FC00B8EEC88A07EE100A9FED136A19EE902AFE
:10260C00B8EEC77ADFED116A38EE288A47F6FF7309
:10261C0037EE087AC7EE067A67EE897ABDEC048B42
:10262C0067EEA67AFDEEE77A17EE900A1044984210
:10263C00A8BF18460128B8BF012080B208BD00BF52
:10264C000000C84218FCFFFF00803B452DB25D40E6
:10265C00464AF8B511680023454D04462B5411B178
:10266C008B79002B2FD1434A1378A34201D1002B35
:10267C0078D1414B196829B38B791BB3C87A08B34D
:10268C003E4D002395F800C008E0032A02D1CA7B16
:10269C00012A60D0984201F11A0113D0DAB2013349
:1026AC009445F7D10A7B012AEFD1CA7B012AF1D1DB
:1026BC004A7BA242EED1002331483249FF220370FB
:1026CC000B702A70F8BD304B1B78002BCBD191F8D6
:1026DC0007E0BEF1000FC6D0012301F1080701F19C
:1026EC0009060DE0A44501D1285CD0B1082B18BF18
:1026FC00724503F1010334BF01220022002AB2D03B
:10270C0017F82300DAB20028F0D016F823C0BCF179
:10271C00000FEBD0A042E5D115F80C0008B1A44590
:10272C00E4D188680133DFED197A00EE100A184AFB
:10273C0001EB8303B4EEE70A1568D888F1EE10FAC2
:10274C0002D410B1FFF732FF0544124A0123156081
:10275C000D4A137087E74A7BA242ACD08A7BA24217
:10276C0098D1A8E700231370F8BD00BFB4810020F6
:10277C00688800201E9300206889002022310020E8
:10278C002793002022930020249300200AD7233C77
:10279C00E49100205886002030B500220B7989B0D6
:1027AC00044658070692CDE9042203F001024FEAD1
:1027BC00822248BF42F040021D0748BF42F080020F
:1027CC00D80648BF42F001029D0648BF42F0020203
:1027DC00580648BF42F004021B064B7948BF42F032
:1027EC000802DD0648BF42F01002980648BF42F0CE
:1027FC0020025D0648BF42F48072180623EA93005B
:10280C0048BF42F4007220EAD300C50762D403EA41
:10281C00D300C00733D50123009204F1180C0A89A8
:10282C00C88892014D89B1F80EE080018DF81830FE
:10283C000023ADF80E20A5F500458A89AEF5004EB3
:10284C00098AADF80C00A2F500401A46A1F500412A
:10285C0065F30F0301256EF30F02EE4660F31F4381
:10286C0061F31F42CDE90132BEE80F00ACE80F0066
:10287C009EE807008CE80700257509B030BD03F011
:10288C000105C3F340004FEA530C85F0010580F0BD
:10289C00010005EAD30E1EEA000F1FD10CEAD30E7D
:1028AC001EF0010F18D12CEA930E2EEAD30E1EF057
:1028BC00010F19D10CEA930C1CF0010F10D100EA96
:1028CC00930005420ED103EA930303F00103C3F115
:1028DC000803A1E700239FE703239DE702239BE75F
:1028EC00052399E7062397E7042395E707EE902A3B
:1028FC0090F824209C4607EE101A00B5DFF8D0E1C2
:10290C00DEF80030002A00F0A380816A591A06EE26
:10291C00901AF8EE666AF5EEC06AF1EE10FA07DD71
:10292C009FED666AF4EEC66AF1EE10FA00F1A08033
:10293C0090F88E10B8EEC77A09B1B1EE477A90F8DC
:10294C008F10F8EEE77A09B1F1EE677A002A5FD0C2
:10295C00F5EEC06AF1EE10FA5ADDF7EE005A90ED82
:10296C000C6AB4EEE56AF1EE10FA40F39380B0EE27
:10297C00085AF3EE0E5A26EE056AB4EEE56AF1EE4D
:10298C0010FA00F18B80DFED4E5AB4EEE56AF1EEF1
:10299C0010FACCBF01220022DFED495A002A06FEB4
:1029AC00256ABCEEC66AB8EE466AF4EEC66AF1EE6B
:1029BC0010FA2DD890ED155AD0ED165A90F85220E9
:1029CC0037EE455A77EEE55A012A85EE266A85EEF2
:1029DC00A65A69D9D0ED174A022AD0ED185A80EDC3
:1029EC00196A80ED176A75EE655A80ED1A5A36EE43
:1029FC00646A80ED185A86EE265A85EEA66A80ED3A
:102A0C001B5A80ED1C6A0DD1013280F8522009E06E
:102A1C00002201210266C2650267C26682664266B6
:102A2C0080F852100121027980ED157AC0ED167AEA
:102A3C00436780ED077AC0ED087A80F82410836232
:102A4C00A0F82CC01AB190F87830052B03D000BD3B
:102A5C00DFED1C6A6CE790ED106AD0ED116A36EE72
:102A6C00077A76EEA77A80ED107AC0ED117A00BD68
:102A7C00F7EE005A90ED0C6AB4EEE56AF1EE10FA3E
:102A8C000FD936EEC65ADFED105AA5EE256A80ED49
:102A9C000C6A4DE700229FED0D6A7DE7B0EE656A8A
:102AAC0083E7C0ED0C6A43E780ED196A80ED176A85
:102ABC0080ED1A5A80ED185AA6E700BF0000FA43C1
:102ACC000000484300000000CDCC4C3E00001643F3
:102ADC00E49100204FF01A0C1B4A01EB81031268A1
:102AEC000CFB0033134493F812C0BCF1000F27D039
:102AFC00DFED167ADFF860C000B5D2F8072083B09E
:102B0C00B3F8130000EE102ADCF80030B4EEE70A3C
:102B1C00F1EE10FA12D430B1CDE90031FFF746FDD9
:102B2C00009B01990344DFF834C00948094ACCF8EA
:102B3C00003001230170137003B000BD0344F2E7B1
:102B4C00034B197000F00CB8688900200AD7233C9D
:102B5C002393002027930020E4910020B4860020CA
:102B6C0000B5DFF874E09EF800100131C9B20329FA
:102B7C0018D8164B01EB81021B6813441A2202FB76
:102B8C00003303E05FFA8CF104290BD09A7C01F13D
:102B9C00010C0533002AF5D08EF800105DF804EB1B
:102BAC00FFF798BF0A4A137843B9DFF830C0FF200B
:102BBC00084913708CF80030087000BD00218EF8A5
:102BCC0000105DF804EBFFF785BF00BF688900209B
:102BDC0022930020223100202393002027930020F1
:102BEC00C36B2BB3826803F13401C2F30E422F3A4C
:102BFC00112A18D993F83420202A14D193F83720AD
:102C0C000E2A10D1184600B583B001910093FFF73E
:102C1C00C3FDDDE90031D86858B1402203B05DF83E
:102C2C0004EB09F0C5BDD86810B1402209F0C0BD55
:102C3C00704703B000BD00BF204A137800B583B0C5
:102C4C000BB100231370DFF884C01A23DFF880E087
:102C5C00DCF800C08EF8000003FB00C3DFF874E062
:102C6C008EF80010997C11B3DCF80700DFED147AB4
:102C7C0000EE100A1349B3F81300B4EEE70A0B6820
:102C8C00F1EE10FA11D428B10193FFF78FFC019BE0
:102C9C000A4A0344DFF840C000200B49CCF800304E
:102CAC0001230870137003B000BD0344F2E7064B18
:102CBC00197003B05DF804EBFFF752BF27930020A7
:102CCC000AD7233CE491002023930020688900203C
:102CDC002231002022930020B48600201D4BD3F813
:102CEC00D82010689168006810B40842137C5468AE
:102CFC0014BF0121002103F00303D4F800C0D068F5
:102D0C0043EA81031CEA000F43F0080118BF0B468D
:102D1C009908013B11740D2B0BD8DFE803F0110C53
:102D2C00070C0A161111160A0C070C115369023301
:102D3C00536110BC70475369013B10BC5361704721
:102D4C005369013310BC536170475369023B10BC8B
:102D5C0053617047C88900201D4BD3F8D4201068EC
:102D6C009168006810B40842137C546814BF0121A8
:102D7C00002103F00303D4F800C0D06843EA8103B8
:102D8C001CEA000F43F0080118BF0B469908013BE1
:102D9C0011740D2B0BD8DFE803F0110C070C0A167D
:102DAC001111160A0C070C1153690233536110BC34
:102DBC0070475369013B10BC536170475369013331
:102DCC0010BC536170475369023B10BC5361704790
:102DDC00C88900201D4BD3F8D0201068916800687A
:102DEC0010B40842137C546814BF0121002103F075
:102DFC000303D4F800C0D06843EA81031CEA000F37
:102E0C0043F0080118BF0B469908013B11740D2BB8
:102E1C000BD8DFE803F0110C070C0A161111160A77
:102E2C000C070C1153690233536110BC7047536982
:102E3C00013B10BC536170475369013310BC5361A3
:102E4C0070475369023B10BC53617047C88900201E
:102E5C001D4BD3F8CC2010689168006810B4084260
:102E6C00137C546814BF0121002103F00303D4F830
:102E7C0000C0D06843EA81031CEA000F43F008014C
:102E8C0018BF0B469908013B11740D2B0BD8DFE8CA
:102E9C0003F0110C070C0A161111160A0C070C1171
:102EAC0053690233536110BC70475369013B10BC2A
:102EBC00536170475369013310BC536170475369B8
:102ECC00023B10BC53617047C88900201D4BD3F8DE
:102EDC00C82010689168006810B40842137C5468CC
:102EEC0014BF0121002103F00303D4F800C0D06803
:102EFC0043EA81031CEA000F43F0080118BF0B469C
:102F0C009908013B11740D2B0BD8DFE803F0110C61
:102F1C00070C0A161111160A0C070C11536902330F
:102F2C00536110BC70475369013B10BC536170472F
:102F3C005369013310BC536170475369023B10BC99
:102F4C0053617047C88900201D4BD3F8C42010680A
:102F5C009168006810B40842137C546814BF0121B6
:102F6C00002103F00303D4F800C0D06843EA8103C6
:102F7C001CEA000F43F0080118BF0B469908013BEF
:102F8C0011740D2B0BD8DFE803F0110C070C0A168B
:102F9C001111160A0C070C1153690233536110BC42
:102FAC0070475369013B10BC53617047536901333F
:102FBC0010BC536170475369023B10BC536170479E
:102FCC00C88900201D4BD3F8C02010689168006898
:102FDC0010B40842137C546814BF0121002103F083
:102FEC000303D4F800C0D06843EA81031CEA000F45
:102FFC0043F0080118BF0B469908013B11740D2BC7
:10300C000BD8DFE803F0110C070C0A161111160A85
:10301C000C070C1153690233536110BC7047536990
:10302C00013B10BC536170475369013310BC5361B1
:10303C0070475369023B10BC53617047C88900202C
:10304C001D4BD3F8BC2010689168006810B408427E
:10305C00137C546814BF0121002103F00303D4F83E
:10306C0000C0D06843EA81031CEA000F43F008015A
:10307C0018BF0B469908013B11740D2B0BD8DFE8D8
:10308C0003F0110C070C0A161111160A0C070C117F
:10309C0053690233536110BC70475369013B10BC38
:1030AC00536170475369013310BC536170475369C6
:1030BC00023B10BC53617047C88900201D4BD3F8EC
:1030CC00B82010689168006810B40842137C5468EA
:1030DC0014BF0121002103F00303D4F800C0D06811
:1030EC0043EA81031CEA000F43F0080118BF0B46AA
:1030FC009908013B11740D2B0BD8DFE803F0110C70
:10310C00070C0A161111160A0C070C11536902331D
:10311C00536110BC70475369013B10BC536170473D
:10312C005369013310BC536170475369023B10BCA7
:10313C0053617047C88900201D4BD3F8B420106828
:10314C009168006810B40842137C546814BF0121C4
:10315C00002103F00303D4F800C0D06843EA8103D4
:10316C001CEA000F43F0080118BF0B469908013BFD
:10317C0011740D2B0BD8DFE803F0110C070C0A1699
:10318C001111160A0C070C1153690233536110BC50
:10319C0070475369013B10BC53617047536901334D
:1031AC0010BC536170475369023B10BC53617047AC
:1031BC00C88900201D4BD3F8B020106891680068B6
:1031CC0010B40842137C546814BF0121002103F091
:1031DC000303D4F800C0D06843EA81031CEA000F53
:1031EC0043F0080118BF0B469908013B11740D2BD5
:1031FC000BD8DFE803F0110C070C0A161111160A94
:10320C000C070C1153690233536110BC704753699E
:10321C00013B10BC536170475369013310BC5361BF
:10322C0070475369023B10BC53617047C88900203A
:10323C001D4BD3F8AC2010689168006810B408429C
:10324C00137C546814BF0121002103F00303D4F84C
:10325C0000C0D06843EA81031CEA000F43F0080168
:10326C0018BF0B469908013B11740D2B0BD8DFE8E6
:10327C0003F0110C070C0A161111160A0C070C118D
:10328C0053690233536110BC70475369013B10BC46
:10329C00536170475369013310BC536170475369D4
:1032AC00023B10BC53617047C88900201D4BD3F8FA
:1032BC00A82010689168006810B40842137C546808
:1032CC0014BF0121002103F00303D4F800C0D0681F
:1032DC0043EA81031CEA000F43F0080118BF0B46B8
:1032EC009908013B11740D2B0BD8DFE803F0110C7E
:1032FC00070C0A161111160A0C070C11536902332C
:10330C00536110BC70475369013B10BC536170474B
:10331C005369013310BC536170475369023B10BCB5
:10332C0053617047C88900201D4BD3F8A420106846
:10333C009168006810B40842137C546814BF0121D2
:10334C00002103F00303D4F800C0D06843EA8103E2
:10335C001CEA000F43F0080118BF0B469908013B0B
:10336C0011740D2B0BD8DFE803F0110C070C0A16A7
:10337C001111160A0C070C1153690233536110BC5E
:10338C0070475369013B10BC53617047536901335B
:10339C0010BC536170475369023B10BC53617047BA
:1033AC00C88900201D4BD3F8A020106891680068D4
:1033BC0010B40842137C546814BF0121002103F09F
:1033CC000303D4F800C0D06843EA81031CEA000F61
:1033DC0043F0080118BF0B469908013B11740D2BE3
:1033EC000BD8DFE803F0110C070C0A161111160AA2
:1033FC000C070C1153690233536110BC70475369AD
:10340C00013B10BC536170475369013310BC5361CD
:10341C0070475369023B10BC53617047C889002048
:10342C001D4BD3F89C2010689168006810B40842BA
:10343C00137C546814BF0121002103F00303D4F85A
:10344C0000C0D06843EA81031CEA000F43F0080176
:10345C0018BF0B469908013B11740D2B0BD8DFE8F4
:10346C0003F0110C070C0A161111160A0C070C119B
:10347C0053690233536110BC70475369013B10BC54
:10348C00536170475369013310BC536170475369E2
:10349C00023B10BC53617047C88900201D4BD3F808
:1034AC00982010689168006810B40842137C546826
:1034BC0014BF0121002103F00303D4F800C0D0682D
:1034CC0043EA81031CEA000F43F0080118BF0B46C6
:1034DC009908013B11740D2B0BD8DFE803F0110C8C
:1034EC00070C0A161111160A0C070C11536902333A
:1034FC00536110BC70475369013B10BC536170475A
:10350C005369013310BC536170475369023B10BCC3
:10351C0053617047C88900201D4BD3F89420106864
:10352C009168006810B40842137C546814BF0121E0
:10353C00002103F00303D4F800C0D06843EA8103F0
:10354C001CEA000F43F0080118BF0B469908013B19
:10355C0011740D2B0BD8DFE803F0110C070C0A16B5
:10356C001111160A0C070C1153690233536110BC6C
:10357C0070475369013B10BC536170475369013369
:10358C0010BC536170475369023B10BC53617047C8
:10359C00C88900201D4BD3F89020106891680068F2
:1035AC0010B40842137C546814BF0121002103F0AD
:1035BC000303D4F800C0D06843EA81031CEA000F6F
:1035CC0043F0080118BF0B469908013B11740D2BF1
:1035DC000BD8DFE803F0110C070C0A161111160AB0
:1035EC000C070C1153690233536110BC70475369BB
:1035FC00013B10BC536170475369013310BC5361DC
:10360C0070475369023B10BC53617047C889002056
:10361C001D4BD3F88C2010689168006810B40842D8
:10362C00137C546814BF0121002103F00303D4F868
:10363C0000C0D06843EA81031CEA000F43F0080184
:10364C0018BF0B469908013B11740D2B0BD8DFE802
:10365C0003F0110C070C0A161111160A0C070C11A9
:10366C0053690233536110BC70475369013B10BC62
:10367C00536170475369013310BC536170475369F0
:10368C00023B10BC53617047C88900201D4BD3F816
:10369C00882010689168006810B40842137C546844
:1036AC0014BF0121002103F00303D4F800C0D0683B
:1036BC0043EA81031CEA000F43F0080118BF0B46D4
:1036CC009908013B11740D2B0BD8DFE803F0110C9A
:1036DC00070C0A161111160A0C070C115369023348
:1036EC00536110BC70475369013B10BC5361704768
:1036FC005369013310BC536170475369023B10BCD2
:10370C0053617047C88900201D4BD3F88420106882
:10371C009168006810B40842137C546814BF0121EE
:10372C00002103F00303D4F800C0D06843EA8103FE
:10373C001CEA000F43F0080118BF0B469908013B27
:10374C0011740D2B0BD8DFE803F0110C070C0A16C3
:10375C001111160A0C070C1153690233536110BC7A
:10376C0070475369013B10BC536170475369013377
:10377C0010BC536170475369023B10BC53617047D6
:10378C00C88900201D4BD3F8802010689168006810
:10379C0010B40842137C546814BF0121002103F0BB
:1037AC000303D4F800C0D06843EA81031CEA000F7D
:1037BC0043F0080118BF0B469908013B11740D2BFF
:1037CC000BD8DFE803F0110C070C0A161111160ABE
:1037DC000C070C1153690233536110BC70475369C9
:1037EC00013B10BC536170475369013310BC5361EA
:1037FC0070475369023B10BC53617047C889002065
:10380C001D4BDA6F10689168006810B40842137C85
:10381C00546814BF0121002103F00303D4F800C045
:10382C00D06843EA81031CEA000F43F0080118BF7B
:10383C000B469908013B11740D2B0BD8DFE803F0F4
:10384C00110C070C0A161111160A0C070C115369EE
:10385C000233536110BC70475369013B10BC536178
:10386C0070475369013310BC536170475369023B75
:10387C0010BC5361704700BFC88900201D4B9A6F64
:10388C0010689168006810B40842137C546814BF27
:10389C000121002103F00303D4F800C0D06843EAEF
:1038AC0081031CEA000F43F0080118BF0B4699086E
:1038BC00013B11740D2B0BD8DFE803F0110C070C36
:1038CC000A161111160A0C070C11536902335361B5
:1038DC0010BC70475369013B10BC5361704753696E
:1038EC00013310BC536170475369023B10BC5361E8
:1038FC00704700BFC88900201D4B5A6F1068916833
:10390C00006810B40842137C546814BF01210021D4
:10391C0003F00303D4F800C0D06843EA81031CEA27
:10392C00000F43F0080118BF0B469908013B1174B6
:10393C000D2B0BD8DFE803F0110C070C0A16111134
:10394C00160A0C070C1153690233536110BC7047F3
:10395C005369013B10BC536170475369013310BC70
:10396C00536170475369023B10BC5361704700BFF1
:10397C00C88900201D4B1A6F10689168006810B43C
:10398C000842137C546814BF0121002103F0030387
:10399C00D4F800C0D06843EA81031CEA000F43F05E
:1039AC00080118BF0B469908013B11740D2B0BD85D
:1039BC00DFE803F0110C070C0A161111160A0C079C
:1039CC000C1153690233536110BC70475369013BAE
:1039DC0010BC536170475369013310BC536170477D
:1039EC005369023B10BC5361704700BFC88900206B
:1039FC001D4BDA6E10689168006810B40842137C95
:103A0C00546814BF0121002103F00303D4F800C053
:103A1C00D06843EA81031CEA000F43F0080118BF89
:103A2C000B469908013B11740D2B0BD8DFE803F002
:103A3C00110C070C0A161111160A0C070C115369FC
:103A4C000233536110BC70475369013B10BC536186
:103A5C0070475369013310BC536170475369023B83
:103A6C0010BC5361704700BFC88900201D4B9A6E73
:103A7C0010689168006810B40842137C546814BF35
:103A8C000121002103F00303D4F800C0D06843EAFD
:103A9C0081031CEA000F43F0080118BF0B4699087C
:103AAC00013B11740D2B0BD8DFE803F0110C070C44
:103ABC000A161111160A0C070C11536902335361C3
:103ACC0010BC70475369013B10BC5361704753697C
:103ADC00013310BC536170475369023B10BC5361F6
:103AEC00704700BFC88900201D4B5A6E1068916842
:103AFC00006810B40842137C546814BF01210021E3
:103B0C0003F00303D4F800C0D06843EA81031CEA35
:103B1C00000F43F0080118BF0B469908013B1174C4
:103B2C000D2B0BD8DFE803F0110C070C0A16111142
:103B3C00160A0C070C1153690233536110BC704701
:103B4C005369013B10BC536170475369013310BC7E
:103B5C00536170475369023B10BC5361704700BFFF
:103B6C00C88900201D4B1A6E10689168006810B44B
:103B7C000842137C546814BF0121002103F0030395
:103B8C00D4F800C0D06843EA81031CEA000F43F06C
:103B9C00080118BF0B469908013B11740D2B0BD86B
:103BAC00DFE803F0110C070C0A161111160A0C07AA
:103BBC000C1153690233536110BC70475369013BBC
:103BCC0010BC536170475369013310BC536170478B
:103BDC005369023B10BC5361704700BFC889002079
:103BEC001D4BDA6D10689168006810B40842137CA4
:103BFC00546814BF0121002103F00303D4F800C062
:103C0C00D06843EA81031CEA000F43F0080118BF97
:103C1C000B469908013B11740D2B0BD8DFE803F010
:103C2C00110C070C0A161111160A0C070C1153690A
:103C3C000233536110BC70475369013B10BC536194
:103C4C0070475369013310BC536170475369023B91
:103C5C0010BC5361704700BFC88900201D4B9A6D82
:103C6C0010689168006810B40842137C546814BF43
:103C7C000121002103F00303D4F800C0D06843EA0B
:103C8C0081031CEA000F43F0080118BF0B4699088A
:103C9C00013B11740D2B0BD8DFE803F0110C070C52
:103CAC000A161111160A0C070C11536902335361D1
:103CBC0010BC70475369013B10BC5361704753698A
:103CCC00013310BC536170475369023B10BC536104
:103CDC00704700BFC88900201D4B5A6D1068916851
:103CEC00006810B40842137C546814BF01210021F1
:103CFC0003F00303D4F800C0D06843EA81031CEA44
:103D0C00000F43F0080118BF0B469908013B1174D2
:103D1C000D2B0BD8DFE803F0110C070C0A16111150
:103D2C00160A0C070C1153690233536110BC70470F
:103D3C005369013B10BC536170475369013310BC8C
:103D4C00536170475369023B10BC5361704700BF0D
:103D5C00C88900201D4B1A6D10689168006810B45A
:103D6C000842137C546814BF0121002103F00303A3
:103D7C00D4F800C0D06843EA81031CEA000F43F07A
:103D8C00080118BF0B469908013B11740D2B0BD879
:103D9C00DFE803F0110C070C0A161111160A0C07B8
:103DAC000C1153690233536110BC70475369013BCA
:103DBC0010BC536170475369013310BC5361704799
:103DCC005369023B10BC5361704700BFC889002087
:103DDC001D4BDA6C10689168006810B40842137CB3
:103DEC00546814BF0121002103F00303D4F800C070
:103DFC00D06843EA81031CEA000F43F0080118BFA6
:103E0C000B469908013B11740D2B0BD8DFE803F01E
:103E1C00110C070C0A161111160A0C070C11536918
:103E2C000233536110BC70475369013B10BC5361A2
:103E3C0070475369013310BC536170475369023B9F
:103E4C0010BC5361704700BFC88900201D4B9A6C91
:103E5C0010689168006810B40842137C546814BF51
:103E6C000121002103F00303D4F800C0D06843EA19
:103E7C0081031CEA000F43F0080118BF0B46990898
:103E8C00013B11740D2B0BD8DFE803F0110C070C60
:103E9C000A161111160A0C070C11536902335361DF
:103EAC0010BC70475369013B10BC53617047536998
:103EBC00013310BC536170475369023B10BC536112
:103ECC00704700BFC88900201D4B5A6C1068916860
:103EDC00006810B40842137C546814BF01210021FF
:103EEC0003F00303D4F800C0D06843EA81031CEA52
:103EFC00000F43F0080118BF0B469908013B1174E1
:103F0C000D2B0BD8DFE803F0110C070C0A1611115E
:103F1C00160A0C070C1153690233536110BC70471D
:103F2C005369013B10BC536170475369013310BC9A
:103F3C00536170475369023B10BC5361704700BF1B
:103F4C00C88900201D4B1A6C10689168006810B469
:103F5C000842137C546814BF0121002103F00303B1
:103F6C00D4F800C0D06843EA81031CEA000F43F088
:103F7C00080118BF0B469908013B11740D2B0BD887
:103F8C00DFE803F0110C070C0A161111160A0C07C6
:103F9C000C1153690233536110BC70475369013BD8
:103FAC0010BC536170475369013310BC53617047A7
:103FBC005369023B10BC5361704700BFC889002095
:103FCC001D4BDA6B10689168006810B40842137CC2
:103FDC00546814BF0121002103F00303D4F800C07E
:103FEC00D06843EA81031CEA000F43F0080118BFB4
:103FFC000B469908013B11740D2B0BD8DFE803F02D
:10400C00110C070C0A161111160A0C070C11536926
:10401C000233536110BC70475369013B10BC5361B0
:10402C0070475369013310BC536170475369023BAD
:10403C0010BC5361704700BFC88900201D4B9A6BA0
:10404C0010689168006810B40842137C546814BF5F
:10405C000121002103F00303D4F800C0D06843EA27
:10406C0081031CEA000F43F0080118BF0B469908A6
:10407C00013B11740D2B0BD8DFE803F0110C070C6E
:10408C000A161111160A0C070C11536902335361ED
:10409C0010BC70475369013B10BC536170475369A6
:1040AC00013310BC536170475369023B10BC536120
:1040BC00704700BFC88900201D4B5A6B106891686F
:1040CC00006810B40842137C546814BF012100210D
:1040DC0003F00303D4F800C0D06843EA81031CEA60
:1040EC00000F43F0080118BF0B469908013B1174EF
:1040FC000D2B0BD8DFE803F0110C070C0A1611116D
:10410C00160A0C070C1153690233536110BC70472B
:10411C005369013B10BC536170475369013310BCA8
:10412C00536170475369023B10BC5361704700BF29
:10413C00C88900201D4B1A6B10689168006810B478
:10414C000842137C546814BF0121002103F00303BF
:10415C00D4F800C0D06843EA81031CEA000F43F096
:10416C00080118BF0B469908013B11740D2B0BD895
:10417C00DFE803F0110C070C0A161111160A0C07D4
:10418C000C1153690233536110BC70475369013BE6
:10419C0010BC536170475369013310BC53617047B5
:1041AC005369023B10BC5361704700BFC8890020A3
:1041BC001D4BDA6A10689168006810B40842137CD1
:1041CC00546814BF0121002103F00303D4F800C08C
:1041DC00D06843EA81031CEA000F43F0080118BFC2
:1041EC000B469908013B11740D2B0BD8DFE803F03B
:1041FC00110C070C0A161111160A0C070C11536935
:10420C000233536110BC70475369013B10BC5361BE
:10421C0070475369013310BC536170475369023BBB
:10422C0010BC5361704700BFC88900201D4B9A6AAF
:10423C0010689168006810B40842137C546814BF6D
:10424C000121002103F00303D4F800C0D06843EA35
:10425C0081031CEA000F43F0080118BF0B469908B4
:10426C00013B11740D2B0BD8DFE803F0110C070C7C
:10427C000A161111160A0C070C11536902335361FB
:10428C0010BC70475369013B10BC536170475369B4
:10429C00013310BC536170475369023B10BC53612E
:1042AC00704700BFC88900201D4B5A6A106891687E
:1042BC00006810B40842137C546814BF012100211B
:1042CC0003F00303D4F800C0D06843EA81031CEA6E
:1042DC00000F43F0080118BF0B469908013B1174FD
:1042EC000D2B0BD8DFE803F0110C070C0A1611117B
:1042FC00160A0C070C1153690233536110BC70473A
:10430C005369013B10BC536170475369013310BCB6
:10431C00536170475369023B10BC5361704700BF37
:10432C00C88900201D4B1A6A10689168006810B487
:10433C000842137C546814BF0121002103F00303CD
:10434C00D4F800C0D06843EA81031CEA000F43F0A4
:10435C00080118BF0B469908013B11740D2B0BD8A3
:10436C00DFE803F0110C070C0A161111160A0C07E2
:10437C000C1153690233536110BC70475369013BF4
:10438C0010BC536170475369013310BC53617047C3
:10439C005369023B10BC5361704700BFC8890020B1
:1043AC001D4BDA6910689168006810B40842137CE0
:1043BC00546814BF0121002103F00303D4F800C09A
:1043CC00D06843EA81031CEA000F43F0080118BFD0
:1043DC000B469908013B11740D2B0BD8DFE803F049
:1043EC00110C070C0A161111160A0C070C11536943
:1043FC000233536110BC70475369013B10BC5361CD
:10440C0070475369013310BC536170475369023BC9
:10441C0010BC5361704700BFC88900201D4B9A69BE
:10442C0010689168006810B40842137C546814BF7B
:10443C000121002103F00303D4F800C0D06843EA43
:10444C0081031CEA000F43F0080118BF0B469908C2
:10445C00013B11740D2B0BD8DFE803F0110C070C8A
:10446C000A161111160A0C070C1153690233536109
:10447C0010BC70475369013B10BC536170475369C2
:10448C00013310BC536170475369023B10BC53613C
:10449C00704700BFC88900201D4B5A69106891688D
:1044AC00006810B40842137C546814BF0121002129
:1044BC0003F00303D4F800C0D06843EA81031CEA7C
:1044CC00000F43F0080118BF0B469908013B11740B
:1044DC000D2B0BD8DFE803F0110C070C0A16111189
:1044EC00160A0C070C1153690233536110BC704748
:1044FC005369013B10BC536170475369013310BCC5
:10450C00536170475369023B10BC5361704700BF45
:10451C00C88900201D4B1A6910689168006810B496
:10452C000842137C546814BF0121002103F00303DB
:10453C00D4F800C0D06843EA81031CEA000F43F0B2
:10454C00080118BF0B469908013B11740D2B0BD8B1
:10455C00DFE803F0110C070C0A161111160A0C07F0
:10456C000C1153690233536110BC70475369013B02
:10457C0010BC536170475369013310BC53617047D1
:10458C005369023B10BC5361704700BFC8890020BF
:10459C001D4BDA6810689168006810B40842137CEF
:1045AC00546814BF0121002103F00303D4F800C0A8
:1045BC00D06843EA81031CEA000F43F0080118BFDE
:1045CC000B469908013B11740D2B0BD8DFE803F057
:1045DC00110C070C0A161111160A0C070C11536951
:1045EC000233536110BC70475369013B10BC5361DB
:1045FC0070475369013310BC536170475369023BD8
:10460C0010BC5361704700BFC88900201D4B9A68CD
:10461C0010689168006810B40842137C546814BF89
:10462C000121002103F00303D4F800C0D06843EA51
:10463C0081031CEA000F43F0080118BF0B469908D0
:10464C00013B11740D2B0BD8DFE803F0110C070C98
:10465C000A161111160A0C070C1153690233536117
:10466C0010BC70475369013B10BC536170475369D0
:10467C00013310BC536170475369023B10BC53614A
:10468C00704700BFC88900201D4B5A68106891689C
:10469C00006810B40842137C546814BF0121002137
:1046AC0003F00303D4F800C0D06843EA81031CEA8A
:1046BC00000F43F0080118BF0B469908013B117419
:1046CC000D2B0BD8DFE803F0110C070C0A16111197
:1046DC00160A0C070C1153690233536110BC704756
:1046EC005369013B10BC536170475369013310BCD3
:1046FC00536170475369023B10BC5361704700BF54
:10470C00C88900201D4B1A6810689168006810B4A5
:10471C000842137C546814BF0121002103F00303E9
:10472C00D4F800C0D06843EA81031CEA000F43F0C0
:10473C00080118BF0B469908013B11740D2B0BD8BF
:10474C00DFE803F0110C070C0A161111160A0C07FE
:10475C000C1153690233536110BC70475369013B10
:10476C0010BC536170475369013310BC53617047DF
:10477C005369023B10BC5361704700BFC8890020CD
:10478C004B490122F8B54B4C0B782254002B67D1C6
:10479C0049490A78002A71D1484B1E68002E3AD03C
:1047AC00B379002B37D0464BF17A1B681F4691B377
:1047BC0033460AE0BCF1020F2ED193F80DC08445AC
:1047CC0061D001321A338A4225D093F80CC0D5B28D
:1047DC00BCF1010FEED193F80DC08445F1D11A2331
:1047EC0003FB0263D97B012902D0022905D091B9C0
:1047FC002846BDE8F840FEF71FBA32498B5C83F0BF
:10480C0001038B54002B4CD12F4CFF212F48304AE5
:10481C00237003701170F8BDBCF1030FD1D193F864
:10482C000DC0844507D093F80EE08645C9D114F825
:10483C000C30002BEFD01A2303FB0263997B615CD5
:10484C000029E8D0D97B0129D2D00229CFD11D492A
:10485C008B5C83F001038B54002BD5D00121C7E76F
:10486C0000231C4C0A220B70207001461A4810F0D1
:10487C00C5F81948BDE8F84010F098B8154A0B7007
:10488C0010700A22F1E7154B53F8201043F82070F2
:10489C007B1A312BBFD91A2101FB0262128A9A4270
:1048AC00B9D328460021BDE8F840FEF7C5B900BFD2
:1048BC00179300206888002011930020688900203D
:1048CC00E49100207C860020279300202293002076
:1048DC00223100201E930020F0290020C4810020EA
:1048EC0008B5394B02689A4267D10379012B64D120
:1048FC00431D00F13F0C002213F8011F9C4582EA76
:10490C000102F9D14379934257D18379012B54D8C1
:10491C00C279131FDBB2E32B54D9002A52D002F117
:10492C001003DBB2042B48D8B2FA82F2520900EB26
:10493C00420101320B8A03F5FA739BB2B3F57A7F0D
:10494C003BD8CB8B03F5FA739BB2B3F57A7F34D893
:10495C00072AECD1828D40F6B8339A422DD8C28DFD
:10496C009A422AD883689FED197A07EE903AF4EEB2
:10497C00C77AF1EE10FA20D4B2EE0E7AF4EEC77AC2
:10498C00F1EE10FA19DCC36842F21C52A3F5FA736B
:10499C00934212D8036BB7EE007A07EE903AF4EE1E
:1049AC00C77AF1EE10FA08D49FED097AF4EEC77AC3
:1049BC00F1EE10FA01DC012008BD06480FF0F6FFFD
:1049CC00002008BD0022B2E731534941CDCCCC3D8B
:1049DC0000000044F02900204A4B02689A4210B5AE
:1049EC007ED10379042B7BD1431D00F13F0C0024B5
:1049FC0013F8012F634584EA0204F9D14179A142ED
:104A0C0074D1D0ED027AF5EEC07AF1EE10FA67D4DB
:104A1C00B7EE007AF4EEC77AF1EE10FA60DCD0ED66
:104A2C00037AF5EEC07AF1EE10FA59D4F3EE046A7B
:104A3C00F4EEE67AF1EE10FA52DCD0ED047ADFED0A
:104A4C00326AF4EEE67AF1EE10FA49D4B1EE046A69
:104A5C00F4EEC67AF1EE10FA42DCD0ED057AF4EE03
:104A6C00E67AF1EE10FA3BD4F4EEC77AF1EE10FAD6
:104A7C0036DCB6EE007AD0ED067AF4EEC77AF1EEBB
:104A8C0010FA2DD4B0EE087AF4EEC77AF1EE10FAE3
:104A9C0026DC00F11B0300F11F0413F8011F0A1F91
:104AAC00D2B2002918BFE32A94BF0122002217D8E2
:104ABC009C42F2D190F82C30012B11D800F12F032D
:104ACC0001E0634510D013F8011F081F01F1100419
:104ADC00C0B2E4B2E328F4D90029F2D0062CF0D904
:104AEC000A480FF063FF0022104610BD002310226D
:104AFC0006480FF083FF00231022214603480FF0D5
:104B0C007DFFEDE7314D4941CDCCCC3DF029002066
:104B1C00504B10B502689A4240F096800379022BF4
:104B2C0040F09280431D00F13F01002413F8012F47
:104B3C00994284EA0204F9D14179A14279D1002247
:104B4C0000EB420101324B8A03F5FA739BB2B3F5C9
:104B5C007A7F79D80B8C03F5FA739BB2B3F57A7F15
:104B6C0072D8072AECD1428E40F6B8339A426BD8F1
:104B7C00828E9A4268D8D0F806309FED377A07EECD
:104B8C00903AF4EEC77AF1EE10FA5DD4F2EE0E6ABA
:104B9C00F4EEE67AF1EE10FA56DCD0F82E3007EE91
:104BAC00903AF5EEC07AF1EE10FA4DD4F3EE046AB9
:104BBC00F4EEE67AF1EE10FA46DCD0F80A3007EEA5
:104BCC00903AF4EEC77AF1EE10FA3DD4B2EE0E7ACA
:104BDC00F4EEC77AF1EE10FA36DC90F83630053B7D
:104BEC005A2B31D8D0F80E3042F21C52A3F5FA737E
:104BFC00934229D890F83730092B25D890F83830C3
:104C0C00092B21D890F839301F2B1DD8C36BB7EE68
:104C1C00007A07EE903AF4EEC77AF1EE10FA13D45C
:104C2C009FED0E7AF4EEC77AF1EE10FA0CDC01204F
:104C3C0010BD002310220A480FF0E0FE00231022C2
:104C4C00214607480FF0DAFE05480FF0AFFE0020B2
:104C5C0010BD00BF314D4943CDCCCC3D00000044CC
:104C6C00F0290020704700BF10B5002304460E4AFF
:104C7C000321A382226023630C48C4E90133C4E9F5
:104C8C000333C4E90633C4E90833C4E90A330DF02D
:104C9C0097F9042106480DF0ABF9012105480DF0F8
:104CAC00C1F9204610BD00BF6C1A0020E042002064
:104CBC00E04100208C8900202DE9F04700240646B5
:104CCC004FF0FF0A2030FB4D4FF4407834704FF416
:104CDC00687774703562B470C6F86403F470C6F803
:104CEC00800386F804A0B4737462B46286F805A0DD
:104CFC0009F0A4FD06F58060C6F8005406F5805551
:104D0C00C6F84407C6F86007C6F80444C6F8084459
:104D1C0009F094FDDFF8A49306F5FC6006F6187311
:104D2C00C6F8E097C6F8680BA6F8588BC6F8183F7B
:104D3C00C6F8E447C6F8E847C6F8384BC6F83C4B0B
:104D4C00C6F8404BC6F8444BC6F8484BC6F84C4B1B
:104D5C00C6F8504BC6F8544B86F85A4B86F81E4F83
:104D6C00A6F81C7F08F000FF41F2586306F572604C
:104D7C00C6F8209FF318C6F8244FC6F8284FC5F87C
:104D8C005836A5F8988285F89A42A5F85C7685F88D
:104D9C005E46C5F8A802C5E99E44C5E9A044C5E92C
:104DAC00A244C5E9A44408F0DFFE41F6985306F589
:104DBC00B350C5F86446F318C5F86846C5F8609654
:104DCC00C5F8B849C5F8BC49C5F8C049C5F8C449C7
:104DDC00C5F8C849C5F8CC49C5F8D049C5F8D44977
:104DEC00A5F8D88985F8DA49A5F89C7D85F89E4DFB
:104DFC00C5F8983DC5F8E80908F0B6FE42F2D8426D
:104E0C0005F58053C5F8A44DC5F8A84DB218C5F8E2
:104E1C00A09D06F5ED5006F50055C3E93E44C3E9E7
:104E2C004044C3E94244C3E94444A5F8188183F8DB
:104E3C001A41C5F82801C3F8D824A3F8DC7483F808
:104E4C00DE4408F091FE42F2E04042F61843A5F829
:104E5C0058883018DFF86882F318C5F8E094A5F884
:104E6C001C7C08F15809C5F8183CC5F8E444C5F891
:104E7C00E844C5F83848C5F83C48C5F84048C5F87A
:104E8C004448C5F84848C5F84C48C5F85048C5F8DA
:104E9C00544885F85A4885F81E4CC5F8680808F03F
:104EAC0063FE42F6204085F8A24C3018C5F8244C1D
:104EBC00C5F8284CC5F8304C85F8344CC5F8384C3E
:104ECC00C5F83C4CC5F8208CC5F8484CC5F84C4C82
:104EDC0085F87E4C85F8804CC5F88C4CC5F8904C08
:104EEC00C5F8944CC5F8984CC5F89C4CA5F8A04C4A
:104EFC00A5F8A4ACC5F8B04CC5F8B44CC5F8B84C82
:104F0C00C5F8BC4C85F8AF4C85F8A34CC5F82C9C67
:104F1C000CF0BCFCC5F8C08CDFF8A88106F533504A
:104F2C0085F8424DC5F8CC9C08F14C09C5F8C44C29
:104F3C00C5F8C84CC5F8D04C85F8D44CC5F8D84C3D
:104F4C00C5F8DC4CC5F8E84CC5F8EC4C85F81E4DA2
:104F5C0085F8204DC5F82C4DC5F8304DC5F8344DAD
:104F6C00C5F8384DC5F83C4DA5F8404D85F8434D76
:104F7C00A5F844AD85F84F4DC5F8504DC5F8544DC6
:104F8C00C5F8584DC5F85C4D0CF080FC42F66050ED
:104F9C0085F8854D3018C5F8644DC5F8684DC5F8D1
:104FAC00704D85F8744DC5F8784DC5F87C4DC5F835
:104FBC00608DC5F8804D85F8844D85F8864D85F853
:104FCC00874DC5F8884DC5F88C4DC5F8904DC5F882
:104FDC00944DC5F86C9D0DF02FFA42F6985085F85B
:104FEC00BD4D3018C5F8988DC5F89C4DC5F8A04D31
:104FFC00C5F8A84D85F8AC4DC5F8B04DC5F8B44D05
:10500C00C5F8A49DC5F8B84D85F8BC4D85F8BE4DC6
:10501C0085F8BF4DC5F8C04DC5F8C44DC5F8C84D91
:10502C00C5F8CC4D0DF008FA234B2146C5F8E44DDC
:10503C0003F16C02C5F8E03D9833C5F8E84DC5F8AE
:10504C00F04D05F62860C5F8F83D40F20113C5F89F
:10505C00F44DA5F8183E0123C5F8FC4D85F8004E1B
:10506C00C5F8044EC5F8084E85F80C4EC5F8104E20
:10507C00C5F8144EC5F81C4EA5F8204E85F8224EE6
:10508C00C5F8244EC5F8EC2D4FF4807285F81A3E05
:10509C0013F092FE05F55E6300200021C3E9520176
:1050AC00C3E95401002140F2FF30C3E95601C5F8B1
:1050BC00404F09E0481C0020B01A0020A81800201E
:1050CC00841B0020E4190020C5F8444FC5F8484F54
:1050DC00C5F84C4F10F04CF885F8544FC5F8500FEC
:1050EC0006F5405542F6E05085F875423018C5F883
:1050FC0076420AF08FFA43F220303018FFF7B4FDF5
:10510C0085F894433046C6F80640C6F80A40BDE818
:10511C00F08700BF00B583B0019007F0BDF801988F
:10512C00064A00F50050064BC0F8482CC0F8E82C95
:10513C00C0F84C3CC0F8EC3C03B000BD350100009D
:10514C005101000010B5044682B0019108F07EF8C0
:10515C0004F500530199D3F8682DBAB3012204F574
:10516C00405080F8942393F8852D5ABB93F8BD3D9D
:10517C0003F0FF000BB902B010BD42F69850201896
:10518C0090F827206FF07E040A70826A7F2AA8BFED
:10519C007F22A242B8BF22464A80D0E90B237F2A45
:1051AC00A8BF7F227F2BA8BF7F23A242B8BF224675
:1051BC00A342B8BF23468A808B710DF049F90120B8
:1051CC0002B010BD42F660502018D9E7D3F8A02DDC
:1051DC00003A18BF0122C2E7704700BF00F54050EB
:1051EC0090F89403704700BF2DE9F04F044689B046
:1051FC000D4608F02BF804F5005E9EF8223ECBB964
:10520C0004F5405C9CF8340310B909B0BDE8F08F8C
:10521C000CF54E7403F0FF06AE460FCCAEE80F0053
:10522C0094E807008EE807008CF83463012009B07D
:10523C00BDE8F08F42F6246342F64C6CDEF8241E77
:10524C002A46E318A44442F8021B53F8040F9C4569
:10525C0022F8020FF9D19EF80C3E033B012B0CD91E
:10526C00B5F916309AB2092A28BFFF232B7642F6DD
:10527C00E05020180AF024FDD8E7B5F9043040F2CC
:10528C00FF3EB5F9080001F48079A3F50046002330
:10529C00A0F50040B5F906209C46069301F4806AFF
:1052AC0060F30F0C47F6FF70CDE90433821A66F3F6
:1052BC000F0362F31F43B5F90E20801A6A897245F9
:1052CC0060F31F4CC1F3C02028BF72464FEA82180E
:1052DC00AA89724528BF72464E05C1F3002E4FEACB
:1052EC00821218D4BEF1000F1BD0EE468DF81800B8
:1052FC00ADF80C80ADF80E20CDE9013C21F47063C3
:10530C00AC460093BEE80F00ACE80F009EE8070027
:10531C008CE80700ABE7BEF1000F02D008B101200A
:10532C00E3E701F400764F46B3462FB920B14E4562
:10533C000CBF02200320D8E74FEA5B27BBF1000F1C
:10534C0000D0C0B911F4406F00D1B7B94FEA9A2020
:10535C0017B108B10520C8E7BBF1000F14BF002638
:10536C0000F0010616B1B9F1000F08D00EEA000EDC
:10537C00CEF10800B9E70320B7E70420B5E7062013
:10538C00B3E700BF00F50053D3F8F43D0BB1012097
:10539C00704700F5405090F83503704700F5005009
:1053AC00D0F8283C0BB101207047D0F8C80CC01ABB
:1053BC0018BF0120704700BF0138022808B505D876
:1053CC0008480FF0F3FA07480FF0F0FA05480FF011
:1053DC00EDFA64200FF076FE0248BDE808400FF0AD
:1053EC00E5BA00BFF0290020FFEE007A70B5B4EEEC
:1053FC00E70A86B0F1EE10FA00F1C180F7EE007A00
:10540C009FED707AB4EEE70AF1EE10FA77FE807A2F
:10541C0067EE877AFDEEE77A17EE90CAFFEE007A18
:10542C005FFA8CF1CCF3072CF4EEE70AF1EE10FAEC
:10543C0000F1B080F7EE007A9FED627AF4EEE70AA5
:10544C00F1EE10FA77FEA07A67EE877AFDEEE77A36
:10545C0017EE904AFFEE007A5FFA84FEB4EEE71A7C
:10546C00240AF1EE10FA00F1A080F7EE007A9FED1D
:10547C00557AB4EEE71AF1EE10FA77FE817A67EE00
:10548C00877AFDEEE77A17EE902AFFEE007A160A7D
:10549C00F4EEE71AF1EE10FA00F19180F7EE007AD3
:1054AC009FED487AF4EEE71AF1EE10FA77FEA17A46
:1054BC0067EE877AFDEEE77A17EE903AC3F307258D
:1054CC008DF80A20020A8DF80C30030A02F0020251
:1054DC008DF80B6003F0810306011343020A06F0FA
:1054EC00100602F004021A4300230193049305935F
:1054FC0065F307038DF81140440A61F30F23C108CB
:10550C006CF317434FEA102C6EF31F630CF0080C6E
:10551C00CDF80D30C0F30013334343EAC11142EA16
:10552C000C0304F01002C409134304F02004020A13
:10553C002343040102F0400204F020041343020947
:10554C0002F002028DF8063041EA02030101C0F3B9
:10555C008012C0F3C010234301F04001404252427C
:10556C000B4314218DF8090001A88DF808208DF843
:10557C0007308DF8051011F091F806B070BDFFEEF4
:10558C00007A4FF0800C0121F4EEE70AF1EE10FAEC
:10559C007FF550AFFFEE007A80244FF0010EB4EE91
:1055AC00E71AF1EE10FA7FF560AFFFEE007A802675
:1055BC000122F4EEE71AF1EE10FA7FF56FAF8025B9
:1055CC0001237DE700FEFF460B4611460022D3F86F
:1055DC0000C003601846DCF81C30184770B5044650
:1055EC00006818B3002604F117050CE0A27E531CCA
:1055FC002244DBB2082BA376507403D9637E6683F6
:10560C000A2B14D0206803681B69984770B1206876
:10561C0003685B699847E37EC0B2002BE6D1FE2895
:10562C00F0D140F2011360746383EBE770BD04F1B9
:10563C001103002213F8011FAB4282EA0102F9D1D7
:10564C00237E9342DED1E38AC82BDBD8B4F9142035
:10565C002046B4F91210FDF749F9D3E70268002A85
:10566C0031D0DFF864C070B5037A82B0DCF800404A
:10567C008B4226461FD00D461168044610468A6898
:10568C009047032815DDFD2220688DF805508DF814
:10569C0004200A228DF80720EA438DF806200268C0
:1056AC00536804220DEB0201984701222572E66033
:1056BC00227402B070BD037C002BDCD0C368E31AEB
:1056CC00312BF6D9D7E77047E4910020B5EEC00A2C
:1056DC00F1EE10FA3DD9838D4FF6FF72934239D01B
:1056EC00204907EE903A826AB2EE047A0B68F8EE23
:1056FC00676A9B1A07EE903AF8EE677A77EEA67A0D
:10570C00F4EEC77AF1EE10FA28D49FED177AF4EE86
:10571C00C77AF1EE10FACCBF012300239FED127A69
:10572C00002B47FE877A80EE276AD0ED286A90ED31
:10573C00297AF7EE007AB4EEE76AF1EE10FA77FE0A
:10574C00867AE6EEE76AA7EE677AC0ED286A80ED06
:10575C00297A70470023DFED057ADFE7F0EE477A10
:10576C00E1E700BFE49100200000C8430000704254
:10577C00B5EEC00A002370B5F1EE10FA86B00B80BE
:10578C00138019D9F3EE045A90ED126AB7EE007A31
:10579C00D0ED137AC6EE006A0023836480EE256A8E
:1057AC0076EEE76AB4EEC76AF1EE10FA37FE067AC7
:1057BC00E7EE267AC0ED137ACDE90012FFF786FFEB
:1057CC000379002B3DD00368002B3AD090F824309D
:1057DC00DDE90012ABB390F87930012B2ED0022BFF
:1057EC0003D0032B03D183790BB9C3794BB3F7EEF9
:1057FC00006ADFF86CC290ED0C7ADCF80030B4EE85
:10580C00E67A846A1B1BF1EE10FA07EE903AF8EE7A
:10581C00677A21DDB4EEE77AF1EE10FA43DAF0EEB6
:10582C00086AB3EE0E6A67EE266AF4EEC66AF1EE0B
:10583C0010FA40F1DB82F0EE466A20E08379002B0F
:10584C00D5D10023C0F8A430C0F8A0304364036461
:10585C008363436306B070BD9FED7C7AF4EEC77A28
:10586C00F1EE10FA1FD90023DFED796A9FED796A0A
:10587C00002B46FE866AFCEEE66AF8EE666AF4EEEB
:10588C00E67AF1EE10FADCDA76EEC76A77EEC77AD2
:10589C00B7EE006A87EEA67A76EE476AF5EEC06A36
:1058AC00F1EE10FACDD990F878E0BEF1050F00F0CA
:1058BC00FC81B0F88A30D0ED077A5BB107EE103A74
:1058CC00B0EEE76ABBEEEF7AB4EEC76AF1EE10FA0F
:1058DC0000F3E381B0F88C3090ED087A5BB106EE02
:1058EC00103AF0EEC75ABBEEEF6AF4EEC65AF1EE80
:1058FC0010FA00F3D281B0F8863093B106EE103A6C
:10590C00F0EEE75AB8EE466AF4EEC65AF1EE10FA2B
:10591C0007D5F0EEC75AB4EEE56AF1EE10FA00F3D3
:10592C00BC8190F89430002B00F0A28090F8953058
:10593C00002B00F09D8090F85240012C40F2988092
:10594C00B7EE006AF4EEC66AF1EE10FAC0F290807F
:10595C00B6EE004A06EE103A90ED1B5A838DB8EE67
:10596C00466A25EE045ADFED3F3A04EE103ADFEDBD
:10597C00395AD0ED194AB8EE444A24EE066A86EE3E
:10598C00234AB4EEE54AF1EE10FA35FE846A65EE70
:10599C00065A66EE244A65EE865AB0EEE45AF4EEE8
:1059AC00C55AF1EE10FA07DCB1EE455AB4EEE55AE1
:1059BC00F1EE10FA35FE255A74EE855A9FED265AF3
:1059CC00F4EEC55AF1EE10FA00F3C2829FED235AA1
:1059DC00B4EEE55AF1EE10FA75FE254AB6EE004A21
:1059EC00D0ED1C5A90ED1A5A77EEA47A65EE845AD3
:1059FC0026EE055A65EE865AF0EEC54A25EE866A05
:105A0C00B4EEE46AF1EE10FA07DCF1EE644AF4EE5F
:105A1C00C64AF1EE10FA74FE864A35EE246ADFEDC2
:105A2C000E5AB4EEE56AF1EE10FA07DCDFED0B5A14
:105A3C00F4EEC65AF1EE10FA75FE865A37EE257A58
:105A4C0067EE074AE7EEA74A16E000BF000048429F
:105A5C0000001643000048430000FE420000FEC256
:105A6C00E49100200000C8420000000000007A44CD
:105A7C0067EE074AE7EEA74A90F89A301E468BB1BC
:105A8C0090F89B305FED093A06EE103A90ED284AFB
:105A9C0090ED295AB8EE466AC6EE235AE4EE657AC2
:105AAC00A5EE657A90F890301FED125A05EE903AFB
:105ABC00B0F89230F8EE655A85EE856AE3B1B0F82D
:105ACC0050404FF6FF75AC4200F0E68105EE904A6F
:105ADC00B8EE654A05EE903AB7EE005AF8EE655A04
:105AEC00C4EE253AF4EEC53AF1EE10FA75FE233AFF
:105AFC0035EE635A26EE056AB5EEC06AF1EE10FA81
:105B0C0040F2CB80B0F87A30002B40F07981F7EE80
:105B1C00005ABEF1020F00F0A081BEF1010F00F09F
:105B2C00E68190F87C305FED313A04EE103AB8EE35
:105B3C00444A84EE235A67EE857A27EE057A67EE9F
:105B4C00A67A27EE267A67EE807A27EE007A87EE21
:105B5C00A55AC7EE256AB0F896301FED3C4A07EE01
:105B6C00103AB0F8983090F89CC065EE065A66EE84
:105B7C00866A06EE103AB8EE477AB0F88830B8EE7E
:105B8C00466AC7EE047A86EE047A67EEA57A27EEAB
:105B9C00267ABCF1000F3BD0B0F89EC0BCF1000FD0
:105BAC0036D0F1EEE45A002B00F0CF8106EE903A9D
:105BBC00B8EEE65A06EE90CAB7EE000AF8EE666A40
:105BCC0085EEA66AB4EEC06AF1EE10FA30FE060A53
:105BDC00B5EE400AF1EE10FA00F1BD8167EE076AEE
:105BEC00B1EEC06AE7EEA76AF1EEE65A66EE056A18
:105BFC00F4EEE65AF1EE10FA0ADDF5EEC05AF1EECB
:105C0C0010FA05DD86EEA56A67EE867A27EE067A2F
:105C1C00002B40F003815EB190ED286AD0ED296A2B
:105C2C0036EE276A76EE876A80ED286AC0ED296A1F
:105C3C0090ED0E6AD0ED0D6A37EE067A77EEA67A05
:105C4C00F8FE476AFDEEE66AB8FE676ABDEEC66A04
:105C5C0016EE903A16EE104A1BB20C80138006EE2C
:105C6C00903AB1F900C0F8EEE66A06EE10CABCF143
:105C7C007F0FB8EEC66A37EE667A77EEC67A80ED9D
:105C8C000E7AC0ED0D7A00F3A880B1F900306FF0F8
:105C9C007E008342B8BF0346A0E00023C0F8A430C6
:105CAC00C0F8A03083634363D4E590F890301FEDC7
:105CBC00937A07EE903AB0F89230F8EE677A87EE66
:105CCC00874AE3B1B0F850C04FF6FF7EF44500F0C0
:105CDC00078107EE90CAF8EE676A07EE903AB7EEC6
:105CEC00007AF8EE677A86EEA76AB4EEC76AF1EE30
:105CFC0010FA37FE066A37EE467A24EE074A5FED55
:105D0C00A67AB4EEE74AF1EE10FA7ED9B0F88830F4
:105D1C00D0ED116A90ED107A002B00F0C48026EEC5
:105D2C00A65A06EE103AB8EE466AA7EE075AF1EEFE
:105D3C00C55AB4EEE56AF1EE10FA05DAF5EE405A02
:105D4C00F1EE10FA40F0BD80B0EE673AB0F8983042
:105D5C0027EE046A5FEDBB3A66EE845A04EE903A85
:105D6C00B0F89630C0ED107A05EE103AF8EE644AB1
:105D7C00D0ED0E6AB8EE455A90ED0D7A84EEA34A3A
:105D8C0080ED113AC5EE237AE5EE846AA6EE277A09
:105D9C00F8FE667AFDEEE77A17EE903AB8FE476A9F
:105DAC00BDEEC66A1BB216EE104A07EE903A0C8096
:105DBC00F8EEE77A1380B1F900C076EEE76A06EEEA
:105DCC0010CABCF17F0FB8EEC66AC0ED0E6A37EE92
:105DDC00467A80ED0D7A7FF758AF7F230B80B2F9AE
:105DEC0000307F2B31DD7F23138033E59FED656A17
:105DFC00F4EEC66AF1EE10FACCBF0123002335E5B0
:105E0C0005EE903AF8EEE55A83E6C0ED117AC0ED56
:105E1C00107AC0ED0E7AC0ED0D7A1BE527EE076AFD
:105E2C0006EE903AF8EE666AA7EEA76AF1EEC65A4D
:105E3C00F4EEE65AF1EE10FA7FF7EDAE86EEA56AB7
:105E4C0067EE867A27EE067AE5E613807F33BFF697
:105E5C0001AD4FF681731380FCE4DCF800C0C36B1A
:105E6C00B0F882E0ACEB03037345FFF4F3AC90F8AD
:105E7C0084309FED454A05EE103AC0F83CC0B8EEB0
:105E8C00455AC5EE045A27EEA55A67EE255A25EE5B
:105E9C00265A65EEA66A5EE690ED134ADFED3B5A94
:105EAC0024EE254A16E626EEA65A9FED396AA7EE91
:105EBC00075AF1EEC55AF4EEC65AF1EE10FA7FF617
:105ECC0043AFC6EE257A27EEA66A67EE875A36EE02
:105EDC00C63A77EE657AF0EE466AB0EE657A35E74B
:105EEC00D0ED136ADFED297A66EEA76AF5E627EEA8
:105EFC00075AB0F88030A7EEA75AF1EEC52A2BB19D
:105F0C0005EE103AB8EEC55AC2EE852A90F87D30EF
:105F1C009FED1D2A03EE903A90F87E3003EE103A76
:105F2C00F8EE633AB7EE004AB8EE433A83EE825A83
:105F3C00C3EE023AF4EEC42AF1EE10FA34FE224A11
:105F4C0073EEC53AA4EE235AF5E59FED115A31E6EE
:105F5C00F0EE454A42E5CDE90412CDE902308DED73
:105F6C00017ACDED007A11F00FF9DDED007A9DED9F
:105F7C00017ADDE90230DDE90412002B3FF44BAE6F
:105F8C004CE700BF000048430000C84200007A44C0
:105F9C000000FE428B795A1E012A00B503D91A1F44
:105FAC00012A88BF042380F87830CB79042B28BFD2
:105FBC00002380F879300B89092B40F2C880B3F5A7
:105FCC007A7FA8BF4FF47A73A0F87A3047F2305238
:105FDC008B7A4FF0000C642B28BF6423012B38BF45
:105FEC00012380F87C30CB7A642B28BF6423012BEF
:105FFC0038BF012380F87D300B7B642B28BF6423D2
:10600C00012B38BF012380F87E30B1F80D30002B06
:10601C0008BF6423A0F8803091F810E0CB7B43EAF2
:10602C000E23B3F5FA7F28BF4FF4FA73012B38BF58
:10603C000123A0F882304B7C642B28BF6423012BF6
:10604C0038BF012380F884304B8AA0F886308B8AC5
:10605C00A0F88830CB8AA0F88A300B8BA0F88C3053
:10606C008B7E003B18BF012380F88E30CB7E003B2B
:10607C0018BF012380F88F300B7F642B28BF64235B
:10608C0080F890304B7F91F81EE043EA0E23934248
:10609C0028BF1346A0F89230CB7F003B18BF0123DA
:1060AC0080F8943091F82030642B28BF642380F85A
:1060BC00953091F8222091F8213043EA0223B3F570
:1060CC00FA6F28BF4FF4FA63642B38BF6423A0F82F
:1060DC00963091F8242091F8233043EA0223B3F54B
:1060EC00FA6F28BF4FF4FA63642B38BF6423A0F80F
:1060FC00983091F82530003B18BF012380F89A3076
:10610C0091F82630642B28BF642380F89B3091F8DB
:10611C002730003B18BF012380F89C3091F82830C1
:10612C0091F82920C0F844C043EA0223C0F840C0CB
:10613C00C0F8A4C0B3F5FA6FC0F8A0C028BF4FF4E4
:10614C00FA63012B38BF0123A0F89E3000BD0A234F
:10615C003AE700BF08B50B46362800F2B782DFE8F5
:10616C0010F0AB02A10297028D02830279026F023A
:10617C0065025B02510247023D023302D201C801A3
:10618C00BE01B401AA01A00196018C018201780123
:10619C006E0164015A01500146013C013201280193
:1061AC001E0114010A010001F600EC00E200D80007
:1061BC00CE00C400BA00B000A6009C00920088007B
:1061CC007E0074006A00600056004C0042003700EC
:1061DC00DFF8F0C30422D1493620CCF8D8300FF0C8
:1061EC0087FA012008BDDFF8DCC30422CC49352036
:1061FC00CCF8D4300FF07CFAF3E7DFF8C8C30422F4
:10620C00C8493420CCF8D0300FF072FAE9E7DFF847
:10621C00B4C30422C4493320CCF8CC300FF068FA54
:10622C00DFE7DFF8A0C30422C0493220CCF8C83025
:10623C000FF05EFAD5E7DFF88CC30422BC4931209D
:10624C00CCF8C4300FF054FACBE7DFF878C3042253
:10625C00B8493020CCF8C0300FF04AFAC1E7DFF86B
:10626C0064C30422B4492F20CCF8BC300FF040FAA0
:10627C00B7E7DFF850C30422B0492E20CCF8B83071
:10628C000FF036FAADE7DFF83CC30422AC492D2001
:10629C00CCF8B4300FF02CFAA3E7DFF828C30422B3
:1062AC00A8492C20CCF8B0300FF022FA99E7DFF88F
:1062BC0014C30422A4492B20CCF8AC300FF018FAEC
:1062CC008FE7DFF800C30422A0492A20CCF8A830BD
:1062DC000FF00EFA85E7DFF8ECC204229C49292066
:1062EC00CCF8A4300FF004FA7BE7DFF8D8C2042214
:1062FC0098492820CCF8A0300FF0FAF971E7DFF8B4
:10630C00C4C2042294492720CCF89C300FF0F0F939
:10631C0067E7DFF8B0C2042290492620CCF8983009
:10632C000FF0E6F95DE7DFF89CC204228C492520CA
:10633C00CCF894300FF0DCF953E7DFF888C2042274
:10634C0088492420CCF890300FF0D2F949E7DFF8D7
:10635C0074C2042284492320CCF88C300FF0C8F985
:10636C003FE7DFF860C2042280492220CCF8883055
:10637C000FF0BEF935E7DFF84CC204227C4921202E
:10638C00CCF884300FF0B4F92BE7DFF838C20422D4
:10639C0078492020CCF880300FF0AAF921E7DFF8FB
:1063AC0024C2042274491F20CCF87C300FF0A0F9D1
:1063BC0017E7DFF810C2042270491E20CCF87830A1
:1063CC000FF096F90DE7DFF8FCC104226C491D2093
:1063DC00CCF874300FF08CF903E7DFF8E8C1042235
:1063EC0068491C20CCF870300FF082F9F9E6DFF820
:1063FC00D4C1042264491B20CCF86C300FF078F91E
:10640C00EFE6DFF8C0C1042260491A20CCF86830EE
:10641C000FF06EF9E5E6DFF8ACC104225C491920F7
:10642C00CCF864300FF064F9DBE6DFF898C1042295
:10643C0058491820CCF860300FF05AF9D1E6DFF843
:10644C0084C1042254491720CCF85C300FF050F969
:10645C00C7E6DFF870C1042250491620CCF858303A
:10646C000FF046F9BDE6DFF85CC104224C4915205B
:10647C00CCF854300FF03CF9B3E6DFF848C10422F5
:10648C0048491420CCF850300FF032F9A9E6DFF867
:10649C0034C1042244491320CCF84C300FF028F9B5
:1064AC009FE6DFF820C1042240491220CCF8483086
:1064BC000FF01EF995E6DFF80CC104223C491120BF
:1064CC00CCF844300FF014F98BE6DFF8F8C0042256
:1064DC0038491020CCF840300FF00AF981E6DFF88B
:1064EC00E4C0042234490F20CCF83C300FF000F902
:1064FC0077E6DFF8D0C0042230490E20CCF83830D3
:10650C000FF0F6F86DE6DFF8BCC004222C490D2024
:10651C00CCF834300FF0ECF863E600BFCD0B000084
:10652C00490C0000C50C0000410D0000BD0D000021
:10653C00390E0000B50E0000310F0000AD0F000049
:10654C0029100000A5100000211100009D11000071
:10655C001912000095120000111300008D13000099
:10656C000914000085140000011500007D150000C1
:10657C00F915000075160000F11600006D170000EB
:10658C00E917000065180000E11800005D19000013
:10659C00D9190000551A0000D11A00004D1B00003B
:1065AC00C91B0000451C0000C11C00003D1D000063
:1065BC00B91D0000351E0000B11E00002D1F00008B
:1065CC00A91F0000C8890020DFF838C10422404907
:1065DC000C20CCF830300FF08BF802E6DFF824C139
:1065EC0004223C490B20CCF82C300FF081F8F8E554
:1065FC00DFF810C1042238490A20CCF828300FF0FB
:10660C0077F8EEE5DFF8FCC0042234490920CCF819
:10661C0024300FF06DF8E4E5DFF8E8C004223049CF
:10662C000820CCF820300FF063F8DAE5DFF8D4C09E
:10663C0004222C490720CCF81C300FF059F8D0E577
:10664C00DFF8C0C0042228490620CCF818300FF01F
:10665C004FF8C6E5DFF8ACC0042224490520CCF87D
:10666C0014300FF045F8BCE50422DFF898C020493F
:10667C001046CCF810300FF03BF8B2E5DFF884C0D0
:10668C0004221C490320CCF80C300FF031F8A8E59B
:10669C00DFF870C0042218490220CCF808300FF043
:1066AC0027F89EE5DFF85CC0042214490120CCF8E1
:1066BC0004300FF01DF894E5DFF848C004221049AF
:1066CC000020CCF800300FF013F88AE5002008BD4C
:1066DC0025200000A12000001D21000099210000B0
:1066EC0015220000912200000D23000089230000D8
:1066FC000524000081240000FD2400007925000001
:10670C00F5250000C88900202DE9F0410E461546FC
:10671C000446022130460EF089FD022128460EF077
:10672C0085FD234B3201234953F8028003EB0612FB
:10673C00D76803EB0512C4F80080A760D2F80CC030
:10674C002A0153F802E000231B4A6361C4F80CC011
:10675C001A4B48681268C4F804E0A3FB02324FF4E9
:10676C00FA63920C03FB02F24B681B1A9A42FBD899
:10677C00D8F800302146DEF8002030461F4214BF06
:10678C00012300231CEA020F43F0020218BF134638
:10679C002374FFF7DFFC0346214628462376FFF7D8
:1067AC00D9FC227E831820462376BDE8F08100BFF9
:1067BC001C1E0020001000E0FC28002083DE1B4380
:1067CC00022110B5044608460EF030FD02210520CA
:1067DC000EF02CFD02200EF017FD0346052084F868
:1067EC0020300EF011FD002302460548636284F848
:1067FC002120E362A386BDE810400EF0D7B800BF9D
:10680C00F0290020A94AAA4930B5137E83B004466A
:10681C000D68012B40F2B48072B6536962B6002B3E
:10682C001846B8BFD81C80101AD072B6D3F1000C21
:10683C0003F003010CF0030C58BFCCF100015161C3
:10684C0062B6226862B1B3F5007F06DA13F5007FF9
:10685C0040F32081404240B201E06FF07E0090474F
:10686C00944A137E012B51D972B6536962B6002B30
:10687C001846B8BFD81C80101AD072B6D3F1000CD1
:10688C0003F003010CF0030C58BFCCF10001516173
:10689C0062B6626862B1B3F5007F06DA13F5007F69
:1068AC0040F3FA80404240B201E06FF07E00904726
:1068BC0002200EF0A9FC94F82030834203D0636AC6
:1068CC00EB1A312B18D805200EF09EFC94F82130D1
:1068DC0083420FD0E36AEB1A312B0BD9E562002807
:1068EC0040F0A48001232563E56184F835302376DC
:1068FC0084F8210003B030BD656200287CD10123EF
:10690C00A56284F8343084F82000DCE772B6D2E952
:10691C0000130968186893681942137C14BF01218D
:10692C00002103F0030343EA8103D168084243F0DA
:10693C00080118BF0B469808591E536910740D298D
:10694C0094D801A050F821F067490000614900007B
:10695C0073490000614900005D4700006D4900006B
:10696C0067490000674900006D4900005D47000061
:10697C00614900007349000061490000674900004B
:10698C0072B6D2E900130968186893681942137C2F
:10699C0014BF0121002103F0030343EA8103D168F2
:1069AC00084243F0080118BF0B469808591E53695A
:1069BC0010740D293FF632AF01A050F821F000BF42
:1069CC005B490000554900007F4900005549000013
:1069DC000D470000794900005B4900005B4900004D
:1069EC00794900000D470000554900007F4900001F
:1069FC00554900005B49000094F83430002B82D0DC
:106A0C000022A36A84F83420EB1A40F2DB52934242
:106A1C0044D8294B1B78002B7FF475AFA368002B4F
:106A2C003FF471AF0190984701986CE7002394F8FC
:106A3C0035202376002A3FF45BAF1F4A84F83530AB
:106A4C001378002B7FF454AF226B40F2DB53AD1A5A
:106A5C009D4227D96369002B3FF44AAF01909847B8
:106A6C00019845E7013B5361D8E601335361D5E604
:106A7C00013B5361FAE601335361F7E6023B536184
:106A8C00F4E602335361F1E6023B5361C6E602338E
:106A9C005361C3E67F20E2E67F2008E7E368002B22
:106AAC00C0D130E72369002BD8D121E7048800201E
:106ABC00E4910020208800202A31002010B501210B
:106ACC000A200EF0B3FB01210A200EF07BFB012102
:106ADC0025200EF0ABFB012125200EF073FB0121CC
:106AEC0007200EF0A3FB012107200EF06BFB002307
:106AFC004FF48C72F02116480DF01EFD0121144844
:106B0C000DF0B0FC002112480CF06EF81048002279
:106B1C004FF0FF3304460321C27643610CF06CFD49
:106B2C000C4B03220C49204623610DF00DFF20462F
:106B3C0002210CF061FD094B20460D22084923610E
:106B4C000DF002FF0748BDE810400DF02FBF00BF4D
:106B5C00EC9100203C005A00E80900203C007D002C
:106B6C00EC090020F029002010B5012122200EF0A4
:106B7C005DFB012122200EF025FB00234FF48C72CB
:106B8C00F02116480DF0D8FC012114480DF06AFCD8
:106B9C00002112480CF028F8104800226FF0F8235E
:106BAC0004460321C27643610CF026FD0C4B0322F4
:106BBC000C49204623610DF0C7FE204602210CF043
:106BCC001BFD094B20460B22084923610DF0BCFE2E
:106BDC000748BDE810400DF0E9BE00BF70920020E0
:106BEC003C005A00E809002054007D00FC090020FC
:106BFC00F0290020034608461146062B14D90D2B0C
:106C0C000AD90E3B00B583B0062B43D8DFE803F05E
:106C1C004038362B1F1B1300DFF8BCC0073B204A43
:106C2C003CF9133011F052BFDFF8B0C01C4A3CF9EC
:106C3C00133011F04BBF1B4B1B4A1B6803B05DF8A4
